{
  "contractName": "BlindBox",
  "abi": [
    {
      "inputs": [
        {
          "internalType": "string",
          "name": "name",
          "type": "string"
        },
        {
          "internalType": "string",
          "name": "symbol",
          "type": "string"
        },
        {
          "internalType": "string",
          "name": "baseURI",
          "type": "string"
        }
      ],
      "stateMutability": "nonpayable",
      "type": "constructor"
    },
    {
      "anonymous": false,
      "inputs": [
        {
          "indexed": true,
          "internalType": "address",
          "name": "owner",
          "type": "address"
        },
        {
          "indexed": true,
          "internalType": "address",
          "name": "approved",
          "type": "address"
        },
        {
          "indexed": true,
          "internalType": "uint256",
          "name": "tokenId",
          "type": "uint256"
        }
      ],
      "name": "Approval",
      "type": "event"
    },
    {
      "anonymous": false,
      "inputs": [
        {
          "indexed": true,
          "internalType": "address",
          "name": "owner",
          "type": "address"
        },
        {
          "indexed": true,
          "internalType": "address",
          "name": "operator",
          "type": "address"
        },
        {
          "indexed": false,
          "internalType": "bool",
          "name": "approved",
          "type": "bool"
        }
      ],
      "name": "ApprovalForAll",
      "type": "event"
    },
    {
      "anonymous": false,
      "inputs": [
        {
          "indexed": true,
          "internalType": "address",
          "name": "previousOwner",
          "type": "address"
        },
        {
          "indexed": true,
          "internalType": "address",
          "name": "newOwner",
          "type": "address"
        }
      ],
      "name": "GovernanceTransferred",
      "type": "event"
    },
    {
      "anonymous": false,
      "inputs": [
        {
          "indexed": true,
          "internalType": "address",
          "name": "from",
          "type": "address"
        },
        {
          "indexed": true,
          "internalType": "address",
          "name": "to",
          "type": "address"
        },
        {
          "indexed": true,
          "internalType": "uint256",
          "name": "tokenId",
          "type": "uint256"
        }
      ],
      "name": "Transfer",
      "type": "event"
    },
    {
      "inputs": [],
      "name": "_governance",
      "outputs": [
        {
          "internalType": "address",
          "name": "",
          "type": "address"
        }
      ],
      "stateMutability": "view",
      "type": "function"
    },
    {
      "inputs": [
        {
          "internalType": "address",
          "name": "",
          "type": "address"
        }
      ],
      "name": "_minters",
      "outputs": [
        {
          "internalType": "bool",
          "name": "",
          "type": "bool"
        }
      ],
      "stateMutability": "view",
      "type": "function"
    },
    {
      "inputs": [
        {
          "internalType": "address",
          "name": "to",
          "type": "address"
        },
        {
          "internalType": "uint256",
          "name": "tokenId",
          "type": "uint256"
        }
      ],
      "name": "approve",
      "outputs": [],
      "stateMutability": "nonpayable",
      "type": "function"
    },
    {
      "inputs": [
        {
          "internalType": "address",
          "name": "owner",
          "type": "address"
        }
      ],
      "name": "balanceOf",
      "outputs": [
        {
          "internalType": "uint256",
          "name": "",
          "type": "uint256"
        }
      ],
      "stateMutability": "view",
      "type": "function"
    },
    {
      "inputs": [],
      "name": "baseURI",
      "outputs": [
        {
          "internalType": "string",
          "name": "",
          "type": "string"
        }
      ],
      "stateMutability": "view",
      "type": "function"
    },
    {
      "inputs": [
        {
          "internalType": "uint256",
          "name": "tokenId",
          "type": "uint256"
        }
      ],
      "name": "getApproved",
      "outputs": [
        {
          "internalType": "address",
          "name": "",
          "type": "address"
        }
      ],
      "stateMutability": "view",
      "type": "function"
    },
    {
      "inputs": [
        {
          "internalType": "address",
          "name": "owner",
          "type": "address"
        },
        {
          "internalType": "address",
          "name": "operator",
          "type": "address"
        }
      ],
      "name": "isApprovedForAll",
      "outputs": [
        {
          "internalType": "bool",
          "name": "",
          "type": "bool"
        }
      ],
      "stateMutability": "view",
      "type": "function"
    },
    {
      "inputs": [],
      "name": "name",
      "outputs": [
        {
          "internalType": "string",
          "name": "",
          "type": "string"
        }
      ],
      "stateMutability": "view",
      "type": "function"
    },
    {
      "inputs": [
        {
          "internalType": "uint256",
          "name": "tokenId",
          "type": "uint256"
        }
      ],
      "name": "ownerOf",
      "outputs": [
        {
          "internalType": "address",
          "name": "",
          "type": "address"
        }
      ],
      "stateMutability": "view",
      "type": "function"
    },
    {
      "inputs": [
        {
          "internalType": "address",
          "name": "from",
          "type": "address"
        },
        {
          "internalType": "address",
          "name": "to",
          "type": "address"
        },
        {
          "internalType": "uint256",
          "name": "tokenId",
          "type": "uint256"
        }
      ],
      "name": "safeTransferFrom",
      "outputs": [],
      "stateMutability": "nonpayable",
      "type": "function"
    },
    {
      "inputs": [
        {
          "internalType": "address",
          "name": "from",
          "type": "address"
        },
        {
          "internalType": "address",
          "name": "to",
          "type": "address"
        },
        {
          "internalType": "uint256",
          "name": "tokenId",
          "type": "uint256"
        },
        {
          "internalType": "bytes",
          "name": "_data",
          "type": "bytes"
        }
      ],
      "name": "safeTransferFrom",
      "outputs": [],
      "stateMutability": "nonpayable",
      "type": "function"
    },
    {
      "inputs": [
        {
          "internalType": "address",
          "name": "operator",
          "type": "address"
        },
        {
          "internalType": "bool",
          "name": "approved",
          "type": "bool"
        }
      ],
      "name": "setApprovalForAll",
      "outputs": [],
      "stateMutability": "nonpayable",
      "type": "function"
    },
    {
      "inputs": [
        {
          "internalType": "address",
          "name": "governance",
          "type": "address"
        }
      ],
      "name": "setGovernance",
      "outputs": [],
      "stateMutability": "nonpayable",
      "type": "function"
    },
    {
      "inputs": [
        {
          "internalType": "bytes4",
          "name": "interfaceId",
          "type": "bytes4"
        }
      ],
      "name": "supportsInterface",
      "outputs": [
        {
          "internalType": "bool",
          "name": "",
          "type": "bool"
        }
      ],
      "stateMutability": "view",
      "type": "function"
    },
    {
      "inputs": [],
      "name": "symbol",
      "outputs": [
        {
          "internalType": "string",
          "name": "",
          "type": "string"
        }
      ],
      "stateMutability": "view",
      "type": "function"
    },
    {
      "inputs": [
        {
          "internalType": "uint256",
          "name": "index",
          "type": "uint256"
        }
      ],
      "name": "tokenByIndex",
      "outputs": [
        {
          "internalType": "uint256",
          "name": "",
          "type": "uint256"
        }
      ],
      "stateMutability": "view",
      "type": "function"
    },
    {
      "inputs": [
        {
          "internalType": "address",
          "name": "owner",
          "type": "address"
        },
        {
          "internalType": "uint256",
          "name": "index",
          "type": "uint256"
        }
      ],
      "name": "tokenOfOwnerByIndex",
      "outputs": [
        {
          "internalType": "uint256",
          "name": "",
          "type": "uint256"
        }
      ],
      "stateMutability": "view",
      "type": "function"
    },
    {
      "inputs": [
        {
          "internalType": "uint256",
          "name": "tokenId",
          "type": "uint256"
        }
      ],
      "name": "tokenURI",
      "outputs": [
        {
          "internalType": "string",
          "name": "",
          "type": "string"
        }
      ],
      "stateMutability": "view",
      "type": "function"
    },
    {
      "inputs": [],
      "name": "totalSupply",
      "outputs": [
        {
          "internalType": "uint256",
          "name": "",
          "type": "uint256"
        }
      ],
      "stateMutability": "view",
      "type": "function"
    },
    {
      "inputs": [
        {
          "internalType": "address",
          "name": "from",
          "type": "address"
        },
        {
          "internalType": "address",
          "name": "to",
          "type": "address"
        },
        {
          "internalType": "uint256",
          "name": "tokenId",
          "type": "uint256"
        }
      ],
      "name": "transferFrom",
      "outputs": [],
      "stateMutability": "nonpayable",
      "type": "function"
    },
    {
      "inputs": [
        {
          "internalType": "string",
          "name": "baseURI",
          "type": "string"
        }
      ],
      "name": "setURIPrefix",
      "outputs": [],
      "stateMutability": "nonpayable",
      "type": "function"
    },
    {
      "inputs": [
        {
          "internalType": "address",
          "name": "to",
          "type": "address"
        },
        {
          "internalType": "uint256",
          "name": "tokenId",
          "type": "uint256"
        }
      ],
      "name": "mint",
      "outputs": [
        {
          "internalType": "bool",
          "name": "",
          "type": "bool"
        }
      ],
      "stateMutability": "nonpayable",
      "type": "function"
    },
    {
      "inputs": [
        {
          "internalType": "address",
          "name": "to",
          "type": "address"
        },
        {
          "internalType": "uint256",
          "name": "tokenId",
          "type": "uint256"
        },
        {
          "internalType": "bytes",
          "name": "_data",
          "type": "bytes"
        }
      ],
      "name": "safeMint",
      "outputs": [
        {
          "internalType": "bool",
          "name": "",
          "type": "bool"
        }
      ],
      "stateMutability": "nonpayable",
      "type": "function"
    },
    {
      "inputs": [
        {
          "internalType": "address",
          "name": "to",
          "type": "address"
        },
        {
          "internalType": "uint256",
          "name": "tokenId",
          "type": "uint256"
        }
      ],
      "name": "safeMint",
      "outputs": [
        {
          "internalType": "bool",
          "name": "",
          "type": "bool"
        }
      ],
      "stateMutability": "nonpayable",
      "type": "function"
    },
    {
      "inputs": [
        {
          "internalType": "address",
          "name": "minter",
          "type": "address"
        }
      ],
      "name": "addMinter",
      "outputs": [],
      "stateMutability": "nonpayable",
      "type": "function"
    },
    {
      "inputs": [
        {
          "internalType": "address",
          "name": "minter",
          "type": "address"
        }
      ],
      "name": "removeMinter",
      "outputs": [],
      "stateMutability": "nonpayable",
      "type": "function"
    },
    {
      "inputs": [
        {
          "internalType": "uint256",
          "name": "tokenId",
          "type": "uint256"
        }
      ],
      "name": "burn",
      "outputs": [],
      "stateMutability": "nonpayable",
      "type": "function"
    },
    {
      "inputs": [
        {
          "internalType": "address",
          "name": "owner",
          "type": "address"
        }
      ],
      "name": "tokensOfOwner",
      "outputs": [
        {
          "internalType": "uint256[]",
          "name": "",
          "type": "uint256[]"
        }
      ],
      "stateMutability": "view",
      "type": "function"
    },
    {
      "inputs": [
        {
          "internalType": "uint256",
          "name": "tokenId",
          "type": "uint256"
        }
      ],
      "name": "exists",
      "outputs": [
        {
          "internalType": "bool",
          "name": "",
          "type": "bool"
        }
      ],
      "stateMutability": "view",
      "type": "function"
    }
  ],
  "bytecode": "0x60806040523480156200001157600080fd5b5060405162002c7838038062002c78833981810160405260608110156200003757600080fd5b81019080805160405193929190846401000000008211156200005857600080fd5b9083019060208201858111156200006e57600080fd5b82516401000000008111828201881017156200008957600080fd5b82525081516020918201929091019080838360005b83811015620000b85781810151838201526020016200009e565b50505050905090810190601f168015620000e65780820380516001836020036101000a031916815260200191505b50604052602001805160405193929190846401000000008211156200010a57600080fd5b9083019060208201858111156200012057600080fd5b82516401000000008111828201881017156200013b57600080fd5b82525081516020918201929091019080838360005b838110156200016a57818101518382015260200162000150565b50505050905090810190601f168015620001985780820380516001836020036101000a031916815260200191505b5060405260200180516040519392919084640100000000821115620001bc57600080fd5b908301906020820185811115620001d257600080fd5b8251640100000000811182820188101715620001ed57600080fd5b82525081516020918201929091019080838360005b838110156200021c57818101518382015260200162000202565b50505050905090810190601f1680156200024a5780820380516001836020036101000a031916815260200191505b5060405250849150839050620002676301ffc9a760e01b620002f1565b81516200027c9060069060208501906200038f565b508051620002929060079060208401906200038f565b50620002a56380ac58cd60e01b620002f1565b620002b7635b5e139f60e01b620002f1565b620002c963780e9d6360e01b620002f1565b5050600a80546001600160a01b03191632179055620002e88162000376565b5050506200043b565b6001600160e01b0319808216141562000351576040805162461bcd60e51b815260206004820152601c60248201527f4552433136353a20696e76616c696420696e7465726661636520696400000000604482015290519081900360640190fd5b6001600160e01b0319166000908152602081905260409020805460ff19166001179055565b80516200038b9060099060208401906200038f565b5050565b828054600181600116156101000203166002900490600052602060002090601f016020900481019282620003c7576000855562000412565b82601f10620003e257805160ff191683800117855562000412565b8280016001018555821562000412579182015b8281111562000412578251825591602001919060010190620003f5565b506200042092915062000424565b5090565b5b8082111562000420576000815560010162000425565b61282d806200044b6000396000f3fe608060405234801561001057600080fd5b50600436106101cf5760003560e01c80634f6ccce71161010457806395d89b41116100a2578063ab033ea911610071578063ab033ea914610726578063b88d4fde1461074c578063c87b56dd14610812578063e985e9c51461082f576101cf565b806395d89b411461069e578063983b2d56146106a6578063a1448194146106cc578063a22cb465146106f8576101cf565b80636c0360eb116100de5780636c0360eb1461053f57806370a08231146105475780638462151c1461056d5780638832e6e3146105e3576101cf565b80634f6ccce71461045f5780636352211e1461047c5780636bff2c2414610499576101cf565b80632f745c591161017157806340c10f191161014b57806340c10f19146103c357806342842e0e146103ef57806342966c68146104255780634f558e7914610442576101cf565b80632f745c591461034b5780633092afd5146103775780633575597d1461039d576101cf565b8063095ea7b3116101ad578063095ea7b3146102c557806318160ddd146102f35780631c2f3e3d1461030d57806323b872dd14610315576101cf565b806301ffc9a7146101d457806306fdde031461020f578063081812fc1461028c575b600080fd5b6101fb600480360360208110156101ea57600080fd5b50356001600160e01b03191661085d565b604080519115158252519081900360200190f35b610217610880565b6040805160208082528351818301528351919283929083019185019080838360005b83811015610251578181015183820152602001610239565b50505050905090810190601f16801561027e5780820380516001836020036101000a031916815260200191505b509250505060405180910390f35b6102a9600480360360208110156102a257600080fd5b5035610916565b604080516001600160a01b039092168252519081900360200190f35b6102f1600480360360408110156102db57600080fd5b506001600160a01b038135169060200135610978565b005b6102fb610a53565b60408051918252519081900360200190f35b6102a9610a64565b6102f16004803603606081101561032b57600080fd5b506001600160a01b03813581169160208101359091169060400135610a73565b6102fb6004803603604081101561036157600080fd5b506001600160a01b038135169060200135610aca565b6102f16004803603602081101561038d57600080fd5b50356001600160a01b0316610af5565b6101fb600480360360208110156103b357600080fd5b50356001600160a01b0316610b66565b6101fb600480360360408110156103d957600080fd5b506001600160a01b038135169060200135610b7b565b6102f16004803603606081101561040557600080fd5b506001600160a01b03813581169160208101359091169060400135610bee565b6102f16004803603602081101561043b57600080fd5b5035610c09565b6101fb6004803603602081101561045857600080fd5b5035610cbf565b6102fb6004803603602081101561047557600080fd5b5035610cca565b6102a96004803603602081101561049257600080fd5b5035610ce0565b6102f1600480360360208110156104af57600080fd5b8101906020810181356401000000008111156104ca57600080fd5b8201836020820111156104dc57600080fd5b803590602001918460018302840111640100000000831117156104fe57600080fd5b91908080601f016020809104026020016040519081016040528093929190818152602001838380828437600092019190915250929550610d08945050505050565b610217610d61565b6102fb6004803603602081101561055d57600080fd5b50356001600160a01b0316610dc2565b6105936004803603602081101561058357600080fd5b50356001600160a01b0316610e2a565b60408051602080825283518183015283519192839290830191858101910280838360005b838110156105cf5781810151838201526020016105b7565b505050509050019250505060405180910390f35b6101fb600480360360608110156105f957600080fd5b6001600160a01b038235169160208101359181019060608101604082013564010000000081111561062957600080fd5b82018360208201111561063b57600080fd5b8035906020019184600183028401116401000000008311171561065d57600080fd5b91908080601f016020809104026020016040519081016040528093929190818152602001838380828437600092019190915250929550610efe945050505050565b610217610f6f565b6102f1600480360360208110156106bc57600080fd5b50356001600160a01b0316610fd0565b6101fb600480360360408110156106e257600080fd5b506001600160a01b038135169060200135611044565b6102f16004803603604081101561070e57600080fd5b506001600160a01b038135169060200135151561109c565b6102f16004803603602081101561073c57600080fd5b50356001600160a01b03166111a1565b6102f16004803603608081101561076257600080fd5b6001600160a01b0382358116926020810135909116916040820135919081019060808101606082013564010000000081111561079d57600080fd5b8201836020820111156107af57600080fd5b803590602001918460018302840111640100000000831117156107d157600080fd5b91908080601f0160208091040260200160405190810160405280939291908181526020018383808284376000920191909152509295506112a8945050505050565b6102176004803603602081101561082857600080fd5b5035611306565b6101fb6004803603604081101561084557600080fd5b506001600160a01b0381358116916020013516611589565b6001600160e01b0319811660009081526020819052604090205460ff165b919050565b60068054604080516020601f600260001961010060018816150201909516949094049384018190048102820181019092528281526060939092909183018282801561090c5780601f106108e15761010080835404028352916020019161090c565b820191906000526020600020905b8154815290600101906020018083116108ef57829003601f168201915b5050505050905090565b6000610921826115b7565b61095c5760405162461bcd60e51b815260040180806020018281038252602c8152602001806126f6602c913960400191505060405180910390fd5b506000908152600460205260409020546001600160a01b031690565b600061098382610ce0565b9050806001600160a01b0316836001600160a01b031614156109d65760405162461bcd60e51b81526004018080602001828103825260218152602001806127a66021913960400191505060405180910390fd5b806001600160a01b03166109e86115c4565b6001600160a01b03161480610a095750610a0981610a046115c4565b611589565b610a445760405162461bcd60e51b81526004018080602001828103825260388152602001806126496038913960400191505060405180910390fd5b610a4e83836115c8565b505050565b6000610a5f6002611636565b905090565b600a546001600160a01b031681565b610a84610a7e6115c4565b82611641565b610abf5760405162461bcd60e51b81526004018080602001828103825260318152602001806127c76031913960400191505060405180910390fd5b610a4e8383836116e5565b6001600160a01b0382166000908152600160205260408120610aec9083611831565b90505b92915050565b600a546001600160a01b03163314610b45576040805162461bcd60e51b815260206004820152600e60248201526d6e6f7420676f7665726e616e636560901b604482015290519081900360640190fd5b6001600160a01b03166000908152600b60205260409020805460ff19169055565b600b6020526000908152604090205460ff1681565b336000908152600b602052604081205460ff16610bc9576040805162461bcd60e51b815260206004820152600760248201526610b6b4b73a32b960c91b604482015290519081900360640190fd5b610bd3838361183d565b610be582610be08461196b565b611a43565b50600192915050565b610a4e838383604051806020016040528060008152506112a8565b336000908152600b602052604090205460ff16610c57576040805162461bcd60e51b815260206004820152600760248201526610b6b4b73a32b960c91b604482015290519081900360640190fd5b610c62610a7e6115c4565b610cb3576040805162461bcd60e51b815260206004820181905260248201527f63616c6c6572206973206e6f74206f776e6572206e6f7220617070726f766564604482015290519081900360640190fd5b610cbc81611aa6565b50565b6000610aef826115b7565b600080610cd8600284611b73565b509392505050565b6000610aef826040518060600160405280602981526020016126ab6029913960029190611b8f565b600a546001600160a01b03163314610d58576040805162461bcd60e51b815260206004820152600e60248201526d6e6f7420676f7665726e616e636560901b604482015290519081900360640190fd5b610cbc81611b9c565b60098054604080516020601f600260001961010060018816150201909516949094049384018190048102820181019092528281526060939092909183018282801561090c5780601f106108e15761010080835404028352916020019161090c565b60006001600160a01b038216610e095760405162461bcd60e51b815260040180806020018281038252602a815260200180612681602a913960400191505060405180910390fd5b6001600160a01b0382166000908152600160205260409020610aef90611636565b60606001600160a01b038216610e77576040805162461bcd60e51b815260206004820152600d60248201526c34b73b30b634b21037bbb732b960991b604482015290519081900360640190fd5b6000610e8283610dc2565b905060608167ffffffffffffffff81118015610e9d57600080fd5b50604051908082528060200260200182016040528015610ec7578160200160208202803683370190505b50905060005b82811015610cd857610edf8582610aca565b828281518110610eeb57fe5b6020908102919091010152600101610ecd565b336000908152600b602052604081205460ff16610f4c576040805162461bcd60e51b815260206004820152600760248201526610b6b4b73a32b960c91b604482015290519081900360640190fd5b610f57848484611bb3565b610f6483610be08561196b565b5060015b9392505050565b60078054604080516020601f600260001961010060018816150201909516949094049384018190048102820181019092528281526060939092909183018282801561090c5780601f106108e15761010080835404028352916020019161090c565b600a546001600160a01b03163314611020576040805162461bcd60e51b815260206004820152600e60248201526d6e6f7420676f7665726e616e636560901b604482015290519081900360640190fd5b6001600160a01b03166000908152600b60205260409020805460ff19166001179055565b336000908152600b602052604081205460ff16611092576040805162461bcd60e51b815260206004820152600760248201526610b6b4b73a32b960c91b604482015290519081900360640190fd5b610bd38383611c05565b6110a46115c4565b6001600160a01b0316826001600160a01b0316141561110a576040805162461bcd60e51b815260206004820152601960248201527f4552433732313a20617070726f766520746f2063616c6c657200000000000000604482015290519081900360640190fd5b80600560006111176115c4565b6001600160a01b03908116825260208083019390935260409182016000908120918716808252919093529120805460ff19169215159290921790915561115b6115c4565b6001600160a01b03167f17307eab39ab6107e8899845ad3d59bd9653f200f220920489ca2b5937696c318360405180821515815260200191505060405180910390a35050565b600a546001600160a01b031633146111f1576040805162461bcd60e51b815260206004820152600e60248201526d6e6f7420676f7665726e616e636560901b604482015290519081900360640190fd5b6001600160a01b03811661124c576040805162461bcd60e51b815260206004820152601f60248201527f6e657720676f7665726e616e636520746865207a65726f206164647265737300604482015290519081900360640190fd5b600a546040516001600160a01b038084169216907f5f56bee8cffbe9a78652a74a60705edede02af10b0bbb888ca44b79a0d42ce8090600090a3600a80546001600160a01b0319166001600160a01b0392909216919091179055565b6112b96112b36115c4565b83611641565b6112f45760405162461bcd60e51b81526004018080602001828103825260318152602001806127c76031913960400191505060405180910390fd5b61130084848484611c1f565b50505050565b6060611311826115b7565b61134c5760405162461bcd60e51b815260040180806020018281038252602f815260200180612777602f913960400191505060405180910390fd5b60008281526008602090815260409182902080548351601f60026000196101006001861615020190931692909204918201849004840281018401909452808452606093928301828280156113e15780601f106113b6576101008083540402835291602001916113e1565b820191906000526020600020905b8154815290600101906020018083116113c457829003601f168201915b5050505050905060606113f2610d61565b90508051600014156114065750905061087b565b8151156114c75780826040516020018083805190602001908083835b602083106114415780518252601f199092019160209182019101611422565b51815160209384036101000a600019018019909216911617905285519190930192850191508083835b602083106114895780518252601f19909201916020918201910161146a565b6001836020036101000a038019825116818451168082178552505050505050905001925050506040516020818303038152906040529250505061087b565b806114d185611c71565b6040516020018083805190602001908083835b602083106115035780518252601f1990920191602091820191016114e4565b51815160209384036101000a600019018019909216911617905285519190930192850191508083835b6020831061154b5780518252601f19909201916020918201910161152c565b6001836020036101000a0380198251168184511680821785525050505050509050019250505060405160208183030381529060405292505050919050565b6001600160a01b03918216600090815260056020908152604080832093909416825291909152205460ff1690565b6000610aef600283611d43565b3390565b600081815260046020526040902080546001600160a01b0319166001600160a01b03841690811790915581906115fd82610ce0565b6001600160a01b03167f8c5be1e5ebec7d5bd14f71427d1e84f3dd0314c0f7b2291e5b200ac8c7c3b92560405160405180910390a45050565b6000610aef82611d4f565b600061164c826115b7565b6116875760405162461bcd60e51b815260040180806020018281038252602c81526020018061261d602c913960400191505060405180910390fd5b600061169283610ce0565b9050806001600160a01b0316846001600160a01b031614806116cd5750836001600160a01b03166116c284610916565b6001600160a01b0316145b806116dd57506116dd8185611589565b949350505050565b826001600160a01b03166116f882610ce0565b6001600160a01b03161461173d5760405162461bcd60e51b815260040180806020018281038252602981526020018061274e6029913960400191505060405180910390fd5b6001600160a01b0382166117825760405162461bcd60e51b81526004018080602001828103825260248152602001806125f96024913960400191505060405180910390fd5b61178d838383610a4e565b6117986000826115c8565b6001600160a01b03831660009081526001602052604090206117ba9082611d53565b506001600160a01b03821660009081526001602052604090206117dd9082611d5f565b506117ea60028284611d6b565b5080826001600160a01b0316846001600160a01b03167fddf252ad1be2c89b69c2b068fc378daa952ba7f163c4a11628f55a4df523b3ef60405160405180910390a4505050565b6000610aec8383611d81565b6001600160a01b038216611898576040805162461bcd60e51b815260206004820181905260248201527f4552433732313a206d696e7420746f20746865207a65726f2061646472657373604482015290519081900360640190fd5b6118a1816115b7565b156118f3576040805162461bcd60e51b815260206004820152601c60248201527f4552433732313a20746f6b656e20616c7265616479206d696e74656400000000604482015290519081900360640190fd5b6118ff60008383610a4e565b6001600160a01b03821660009081526001602052604090206119219082611d5f565b5061192e60028284611d6b565b5060405181906001600160a01b038416906000907fddf252ad1be2c89b69c2b068fc378daa952ba7f163c4a11628f55a4df523b3ef908290a45050565b60608161199057506040805180820190915260018152600360fc1b602082015261087b565b8160005b81156119a857600101600a82049150611994565b60608167ffffffffffffffff811180156119c157600080fd5b506040519080825280601f01601f1916602001820160405280156119ec576020820181803683370190505b50905060001982015b8515611a3a57600a860660300160f81b82828060019003935081518110611a1857fe5b60200101906001600160f81b031916908160001a905350600a860495506119f5565b50949350505050565b611a4c826115b7565b611a875760405162461bcd60e51b815260040180806020018281038252602c815260200180612722602c913960400191505060405180910390fd5b60008281526008602090815260409091208251610a4e928401906124c3565b6000611ab182610ce0565b9050611abf81600084610a4e565b611aca6000836115c8565b6000828152600860205260409020546002600019610100600184161502019091160415611b08576000828152600860205260408120611b089161254f565b6001600160a01b0381166000908152600160205260409020611b2a9083611d53565b50611b36600283611de5565b5060405182906000906001600160a01b038416907fddf252ad1be2c89b69c2b068fc378daa952ba7f163c4a11628f55a4df523b3ef908390a45050565b6000808080611b828686611df1565b9097909650945050505050565b60006116dd848484611e6c565b8051611baf9060099060208401906124c3565b5050565b611bbd838361183d565b611bca6000848484611f36565b610a4e5760405162461bcd60e51b81526004018080602001828103825260328152602001806125c76032913960400191505060405180910390fd5b611baf828260405180602001604052806000815250611bb3565b611c2a8484846116e5565b611c3684848484611f36565b6113005760405162461bcd60e51b81526004018080602001828103825260328152602001806125c76032913960400191505060405180910390fd5b606081611c9657506040805180820190915260018152600360fc1b602082015261087b565b8160005b8115611cae57600101600a82049150611c9a565b60608167ffffffffffffffff81118015611cc757600080fd5b506040519080825280601f01601f191660200182016040528015611cf2576020820181803683370190505b50859350905060001982015b8315611a3a57600a840660300160f81b82828060019003935081518110611d2157fe5b60200101906001600160f81b031916908160001a905350600a84049350611cfe565b6000610aec838361209e565b5490565b6000610aec83836120b6565b6000610aec838361217c565b60006116dd84846001600160a01b0385166121c6565b81546000908210611dc35760405162461bcd60e51b81526004018080602001828103825260228152602001806125a56022913960400191505060405180910390fd5b826000018281548110611dd257fe5b9060005260206000200154905092915050565b6000610aec838361225d565b815460009081908310611e355760405162461bcd60e51b81526004018080602001828103825260228152602001806126d46022913960400191505060405180910390fd5b6000846000018481548110611e4657fe5b906000526020600020906002020190508060000154816001015492509250509250929050565b60008281526001840160205260408120548281611f075760405162461bcd60e51b81526004018080602001828103825283818151815260200191508051906020019080838360005b83811015611ecc578181015183820152602001611eb4565b50505050905090810190601f168015611ef95780820380516001836020036101000a031916815260200191505b509250505060405180910390fd5b50846000016001820381548110611f1a57fe5b9060005260206000209060020201600101549150509392505050565b6000611f4a846001600160a01b0316612331565b611f56575060016116dd565b6060612064630a85bd0160e11b611f6b6115c4565b88878760405160240180856001600160a01b03168152602001846001600160a01b0316815260200183815260200180602001828103825283818151815260200191508051906020019080838360005b83811015611fd2578181015183820152602001611fba565b50505050905090810190601f168015611fff5780820380516001836020036101000a031916815260200191505b5095505050505050604051602081830303815290604052906001600160e01b0319166020820180516001600160e01b0383818316178352505050506040518060600160405280603281526020016125c7603291396001600160a01b0388169190612337565b9050600081806020019051602081101561207d57600080fd5b50516001600160e01b031916630a85bd0160e11b1492505050949350505050565b60009081526001919091016020526040902054151590565b6000818152600183016020526040812054801561217257835460001980830191908101906000908790839081106120e957fe5b906000526020600020015490508087600001848154811061210657fe5b60009182526020808320909101929092558281526001898101909252604090209084019055865487908061213657fe5b60019003818190600052602060002001600090559055866001016000878152602001908152602001600020600090556001945050505050610aef565b6000915050610aef565b6000612188838361209e565b6121be57508154600181810184556000848152602080822090930184905584548482528286019093526040902091909155610aef565b506000610aef565b60008281526001840160205260408120548061222b575050604080518082018252838152602080820184815286546001818101895560008981528481209551600290930290950191825591519082015586548684528188019092529290912055610f68565b8285600001600183038154811061223e57fe5b9060005260206000209060020201600101819055506000915050610f68565b60008181526001830160205260408120548015612172578354600019808301919081019060009087908390811061229057fe5b90600052602060002090600202019050808760000184815481106122b057fe5b6000918252602080832084546002909302019182556001938401549184019190915583548252898301905260409020908401905586548790806122ef57fe5b6000828152602080822060026000199094019384020182815560019081018390559290935588815289820190925260408220919091559450610aef9350505050565b3b151590565b60606116dd84846000858561234b85612331565b61239c576040805162461bcd60e51b815260206004820152601d60248201527f416464726573733a2063616c6c20746f206e6f6e2d636f6e7472616374000000604482015290519081900360640190fd5b60006060866001600160a01b031685876040518082805190602001908083835b602083106123db5780518252601f1990920191602091820191016123bc565b6001836020036101000a03801982511681845116808217855250505050505090500191505060006040518083038185875af1925050503d806000811461243d576040519150601f19603f3d011682016040523d82523d6000602084013e612442565b606091505b509150915061245282828661245d565b979650505050505050565b6060831561246c575081610f68565b82511561247c5782518084602001fd5b60405162461bcd60e51b8152602060048201818152845160248401528451859391928392604401919085019080838360008315611ecc578181015183820152602001611eb4565b828054600181600116156101000203166002900490600052602060002090601f0160209004810192826124f9576000855561253f565b82601f1061251257805160ff191683800117855561253f565b8280016001018555821561253f579182015b8281111561253f578251825591602001919060010190612524565b5061254b92915061258f565b5090565b50805460018160011615610100020316600290046000825580601f106125755750610cbc565b601f016020900490600052602060002090810190610cbc91905b5b8082111561254b576000815560010161259056fe456e756d657261626c655365743a20696e646578206f7574206f6620626f756e64734552433732313a207472616e7366657220746f206e6f6e20455243373231526563656976657220696d706c656d656e7465724552433732313a207472616e7366657220746f20746865207a65726f20616464726573734552433732313a206f70657261746f7220717565727920666f72206e6f6e6578697374656e7420746f6b656e4552433732313a20617070726f76652063616c6c6572206973206e6f74206f776e6572206e6f7220617070726f76656420666f7220616c6c4552433732313a2062616c616e636520717565727920666f7220746865207a65726f20616464726573734552433732313a206f776e657220717565727920666f72206e6f6e6578697374656e7420746f6b656e456e756d657261626c654d61703a20696e646578206f7574206f6620626f756e64734552433732313a20617070726f76656420717565727920666f72206e6f6e6578697374656e7420746f6b656e4552433732314d657461646174613a2055524920736574206f66206e6f6e6578697374656e7420746f6b656e4552433732313a207472616e73666572206f6620746f6b656e2074686174206973206e6f74206f776e4552433732314d657461646174613a2055524920717565727920666f72206e6f6e6578697374656e7420746f6b656e4552433732313a20617070726f76616c20746f2063757272656e74206f776e65724552433732313a207472616e736665722063616c6c6572206973206e6f74206f776e6572206e6f7220617070726f766564a26469706673582212202c2c9038813de73387fc13977a71ba2974b95c46c88afc2cd00076d001ee9ab564736f6c63430007040033",
  "immutableReferences": {},
  "source": "// SPDX-License-Identifier: MIT\r\npragma solidity ^0.7.4;\r\n\r\nimport \"@openzeppelin/contracts/token/ERC721/ERC721.sol\";\r\nimport \"@openzeppelin/contracts/token/ERC20/ERC20.sol\";\r\nimport \"../library/Governance.sol\";\r\nimport \"../library/CitizenUtil.sol\";\r\n\r\ncontract BlindBox is ERC721, Governance {\r\n    // for minters\r\n    mapping(address => bool) public _minters;\r\n\r\n    constructor(\r\n        string memory name,\r\n        string memory symbol,\r\n        string memory baseURI\r\n    ) ERC721(name, symbol) {\r\n        _setBaseURI(baseURI);\r\n    }\r\n\r\n    function setURIPrefix(string memory baseURI) public onlyGovernance {\r\n        _setBaseURI(baseURI);\r\n    }\r\n\r\n    /**\r\n     * @dev Function to mint tokens.\r\n     * @param to The address that will receive the minted token.\r\n     * @param tokenId The token id to mint.\r\n     * @return A boolean that indicates if the operation was successful.\r\n     */\r\n    function mint(address to, uint256 tokenId) external returns (bool) {\r\n        require(_minters[msg.sender], \"!minter\");\r\n        _mint(to, tokenId);\r\n        _setTokenURI(tokenId, CitizenUtil.uintToString(tokenId));\r\n        return true;\r\n    }\r\n\r\n    /**\r\n     * @dev Function to safely mint tokens.\r\n     * @param to The address that will receive the minted token.\r\n     * @param tokenId The token id to mint.\r\n     * @return A boolean that indicates if the operation was successful.\r\n     */\r\n    function safeMint(address to, uint256 tokenId) public returns (bool) {\r\n        require(_minters[msg.sender], \"!minter\");\r\n        _safeMint(to, tokenId);\r\n        _setTokenURI(tokenId, CitizenUtil.uintToString(tokenId));\r\n        return true;\r\n    }\r\n\r\n    /**\r\n     * @dev Function to safely mint tokens.\r\n     * @param to The address that will receive the minted token.\r\n     * @param tokenId The token id to mint.\r\n     * @param _data bytes data to send along with a safe transfer check.\r\n     * @return A boolean that indicates if the operation was successful.\r\n     */\r\n    function safeMint(\r\n        address to,\r\n        uint256 tokenId,\r\n        bytes memory _data\r\n    ) public returns (bool) {\r\n        require(_minters[msg.sender], \"!minter\");\r\n        _safeMint(to, tokenId, _data);\r\n        _setTokenURI(tokenId, CitizenUtil.uintToString(tokenId));\r\n        return true;\r\n    }\r\n\r\n    function addMinter(address minter) public onlyGovernance {\r\n        _minters[minter] = true;\r\n    }\r\n\r\n    function removeMinter(address minter) public onlyGovernance {\r\n        _minters[minter] = false;\r\n    }\r\n\r\n    /**\r\n     * @dev Burns a specific ERC721 token.\r\n     * @param tokenId uint256 id of the ERC721 token to be burned.\r\n     */\r\n    function burn(uint256 tokenId) external {\r\n        //solhint-disable-next-line max-line-length\r\n        require(_minters[msg.sender], \"!minter\");\r\n        require(\r\n            _isApprovedOrOwner(_msgSender(), tokenId),\r\n            \"caller is not owner nor approved\"\r\n        );\r\n        _burn(tokenId);\r\n    }\r\n\r\n    /**\r\n     * @dev Gets the list of token IDs of the requested owner.\r\n     * @param owner address owning the tokens\r\n     * @return uint256[] List of token IDs owned by the requested address\r\n     */\r\n    function tokensOfOwner(address owner)\r\n        public\r\n        view\r\n        returns (uint256[] memory)\r\n    {\r\n        require(owner != address(0), \"invalid owner\");\r\n        uint256 length = balanceOf(owner);\r\n        uint256[] memory tokens = new uint256[](length);\r\n        for (uint256 i = 0; i < length; i++) {\r\n            tokens[i] = tokenOfOwnerByIndex(owner, i);\r\n        }\r\n        return tokens;\r\n    }\r\n\r\n    function exists(uint256 tokenId) external view returns (bool) {\r\n        return _exists(tokenId);\r\n    }\r\n}\r\n",
  "sourcePath": "F:\\citizen\\depoly\\santafeapp\\src\\contracts\\nft\\BlindBox.sol",
  "compiler": {
    "name": "solc",
    "version": "0.7.4+commit.3f05b770.Emscripten.clang"
  },
  "schemaVersion": "3.4.2",
  "updatedAt": "2021-09-13T16:36:46.695Z",
  "devdoc": {
    "kind": "dev",
    "methods": {
      "approve(address,uint256)": {
        "details": "See {IERC721-approve}."
      },
      "balanceOf(address)": {
        "details": "See {IERC721-balanceOf}."
      },
      "baseURI()": {
        "details": "Returns the base URI set via {_setBaseURI}. This will be automatically added as a prefix in {tokenURI} to each token's URI, or to the token ID if no specific URI is set for that token ID."
      },
      "burn(uint256)": {
        "details": "Burns a specific ERC721 token.",
        "params": {
          "tokenId": "uint256 id of the ERC721 token to be burned."
        }
      },
      "getApproved(uint256)": {
        "details": "See {IERC721-getApproved}."
      },
      "isApprovedForAll(address,address)": {
        "details": "See {IERC721-isApprovedForAll}."
      },
      "mint(address,uint256)": {
        "details": "Function to mint tokens.",
        "params": {
          "to": "The address that will receive the minted token.",
          "tokenId": "The token id to mint."
        },
        "returns": {
          "_0": "A boolean that indicates if the operation was successful."
        }
      },
      "name()": {
        "details": "See {IERC721Metadata-name}."
      },
      "ownerOf(uint256)": {
        "details": "See {IERC721-ownerOf}."
      },
      "safeMint(address,uint256)": {
        "details": "Function to safely mint tokens.",
        "params": {
          "to": "The address that will receive the minted token.",
          "tokenId": "The token id to mint."
        },
        "returns": {
          "_0": "A boolean that indicates if the operation was successful."
        }
      },
      "safeMint(address,uint256,bytes)": {
        "details": "Function to safely mint tokens.",
        "params": {
          "_data": "bytes data to send along with a safe transfer check.",
          "to": "The address that will receive the minted token.",
          "tokenId": "The token id to mint."
        },
        "returns": {
          "_0": "A boolean that indicates if the operation was successful."
        }
      },
      "safeTransferFrom(address,address,uint256)": {
        "details": "See {IERC721-safeTransferFrom}."
      },
      "safeTransferFrom(address,address,uint256,bytes)": {
        "details": "See {IERC721-safeTransferFrom}."
      },
      "setApprovalForAll(address,bool)": {
        "details": "See {IERC721-setApprovalForAll}."
      },
      "supportsInterface(bytes4)": {
        "details": "See {IERC165-supportsInterface}. Time complexity O(1), guaranteed to always use less than 30 000 gas."
      },
      "symbol()": {
        "details": "See {IERC721Metadata-symbol}."
      },
      "tokenByIndex(uint256)": {
        "details": "See {IERC721Enumerable-tokenByIndex}."
      },
      "tokenOfOwnerByIndex(address,uint256)": {
        "details": "See {IERC721Enumerable-tokenOfOwnerByIndex}."
      },
      "tokenURI(uint256)": {
        "details": "See {IERC721Metadata-tokenURI}."
      },
      "tokensOfOwner(address)": {
        "details": "Gets the list of token IDs of the requested owner.",
        "params": {
          "owner": "address owning the tokens"
        },
        "returns": {
          "_0": "uint256[] List of token IDs owned by the requested address"
        }
      },
      "totalSupply()": {
        "details": "See {IERC721Enumerable-totalSupply}."
      },
      "transferFrom(address,address,uint256)": {
        "details": "See {IERC721-transferFrom}."
      }
    },
    "version": 1
  },
  "userdoc": {
    "kind": "user",
    "methods": {},
    "version": 1
  }
}