{
  "contractName": "Cifi_Token",
  "abi": [
    {
      "inputs": [],
      "stateMutability": "nonpayable",
      "type": "constructor"
    },
    {
      "anonymous": false,
      "inputs": [
        {
          "indexed": true,
          "internalType": "address",
          "name": "owner",
          "type": "address"
        },
        {
          "indexed": true,
          "internalType": "address",
          "name": "spender",
          "type": "address"
        },
        {
          "indexed": false,
          "internalType": "uint256",
          "name": "value",
          "type": "uint256"
        }
      ],
      "name": "Approval",
      "type": "event"
    },
    {
      "anonymous": false,
      "inputs": [
        {
          "indexed": false,
          "internalType": "address",
          "name": "account",
          "type": "address"
        }
      ],
      "name": "Paused",
      "type": "event"
    },
    {
      "anonymous": false,
      "inputs": [
        {
          "indexed": true,
          "internalType": "bytes32",
          "name": "role",
          "type": "bytes32"
        },
        {
          "indexed": true,
          "internalType": "bytes32",
          "name": "previousAdminRole",
          "type": "bytes32"
        },
        {
          "indexed": true,
          "internalType": "bytes32",
          "name": "newAdminRole",
          "type": "bytes32"
        }
      ],
      "name": "RoleAdminChanged",
      "type": "event"
    },
    {
      "anonymous": false,
      "inputs": [
        {
          "indexed": true,
          "internalType": "bytes32",
          "name": "role",
          "type": "bytes32"
        },
        {
          "indexed": true,
          "internalType": "address",
          "name": "account",
          "type": "address"
        },
        {
          "indexed": true,
          "internalType": "address",
          "name": "sender",
          "type": "address"
        }
      ],
      "name": "RoleGranted",
      "type": "event"
    },
    {
      "anonymous": false,
      "inputs": [
        {
          "indexed": true,
          "internalType": "bytes32",
          "name": "role",
          "type": "bytes32"
        },
        {
          "indexed": true,
          "internalType": "address",
          "name": "account",
          "type": "address"
        },
        {
          "indexed": true,
          "internalType": "address",
          "name": "sender",
          "type": "address"
        }
      ],
      "name": "RoleRevoked",
      "type": "event"
    },
    {
      "anonymous": false,
      "inputs": [
        {
          "indexed": true,
          "internalType": "address",
          "name": "from",
          "type": "address"
        },
        {
          "indexed": true,
          "internalType": "address",
          "name": "to",
          "type": "address"
        },
        {
          "indexed": false,
          "internalType": "uint256",
          "name": "value",
          "type": "uint256"
        }
      ],
      "name": "Transfer",
      "type": "event"
    },
    {
      "anonymous": false,
      "inputs": [
        {
          "indexed": false,
          "internalType": "address",
          "name": "account",
          "type": "address"
        }
      ],
      "name": "Unpaused",
      "type": "event"
    },
    {
      "inputs": [],
      "name": "DEFAULT_ADMIN_ROLE",
      "outputs": [
        {
          "internalType": "bytes32",
          "name": "",
          "type": "bytes32"
        }
      ],
      "stateMutability": "view",
      "type": "function"
    },
    {
      "inputs": [
        {
          "internalType": "address",
          "name": "owner",
          "type": "address"
        },
        {
          "internalType": "address",
          "name": "spender",
          "type": "address"
        }
      ],
      "name": "allowance",
      "outputs": [
        {
          "internalType": "uint256",
          "name": "",
          "type": "uint256"
        }
      ],
      "stateMutability": "view",
      "type": "function"
    },
    {
      "inputs": [
        {
          "internalType": "address",
          "name": "spender",
          "type": "address"
        },
        {
          "internalType": "uint256",
          "name": "amount",
          "type": "uint256"
        }
      ],
      "name": "approve",
      "outputs": [
        {
          "internalType": "bool",
          "name": "",
          "type": "bool"
        }
      ],
      "stateMutability": "nonpayable",
      "type": "function"
    },
    {
      "inputs": [
        {
          "internalType": "address",
          "name": "account",
          "type": "address"
        }
      ],
      "name": "balanceOf",
      "outputs": [
        {
          "internalType": "uint256",
          "name": "",
          "type": "uint256"
        }
      ],
      "stateMutability": "view",
      "type": "function"
    },
    {
      "inputs": [
        {
          "internalType": "uint256",
          "name": "amount",
          "type": "uint256"
        }
      ],
      "name": "burn",
      "outputs": [],
      "stateMutability": "nonpayable",
      "type": "function"
    },
    {
      "inputs": [
        {
          "internalType": "address",
          "name": "account",
          "type": "address"
        },
        {
          "internalType": "uint256",
          "name": "amount",
          "type": "uint256"
        }
      ],
      "name": "burnFrom",
      "outputs": [],
      "stateMutability": "nonpayable",
      "type": "function"
    },
    {
      "inputs": [],
      "name": "decimals",
      "outputs": [
        {
          "internalType": "uint8",
          "name": "",
          "type": "uint8"
        }
      ],
      "stateMutability": "view",
      "type": "function"
    },
    {
      "inputs": [
        {
          "internalType": "address",
          "name": "spender",
          "type": "address"
        },
        {
          "internalType": "uint256",
          "name": "subtractedValue",
          "type": "uint256"
        }
      ],
      "name": "decreaseAllowance",
      "outputs": [
        {
          "internalType": "bool",
          "name": "",
          "type": "bool"
        }
      ],
      "stateMutability": "nonpayable",
      "type": "function"
    },
    {
      "inputs": [
        {
          "internalType": "bytes32",
          "name": "role",
          "type": "bytes32"
        }
      ],
      "name": "getRoleAdmin",
      "outputs": [
        {
          "internalType": "bytes32",
          "name": "",
          "type": "bytes32"
        }
      ],
      "stateMutability": "view",
      "type": "function"
    },
    {
      "inputs": [
        {
          "internalType": "bytes32",
          "name": "role",
          "type": "bytes32"
        },
        {
          "internalType": "uint256",
          "name": "index",
          "type": "uint256"
        }
      ],
      "name": "getRoleMember",
      "outputs": [
        {
          "internalType": "address",
          "name": "",
          "type": "address"
        }
      ],
      "stateMutability": "view",
      "type": "function"
    },
    {
      "inputs": [
        {
          "internalType": "bytes32",
          "name": "role",
          "type": "bytes32"
        }
      ],
      "name": "getRoleMemberCount",
      "outputs": [
        {
          "internalType": "uint256",
          "name": "",
          "type": "uint256"
        }
      ],
      "stateMutability": "view",
      "type": "function"
    },
    {
      "inputs": [
        {
          "internalType": "bytes32",
          "name": "role",
          "type": "bytes32"
        },
        {
          "internalType": "address",
          "name": "account",
          "type": "address"
        }
      ],
      "name": "grantRole",
      "outputs": [],
      "stateMutability": "nonpayable",
      "type": "function"
    },
    {
      "inputs": [
        {
          "internalType": "bytes32",
          "name": "role",
          "type": "bytes32"
        },
        {
          "internalType": "address",
          "name": "account",
          "type": "address"
        }
      ],
      "name": "hasRole",
      "outputs": [
        {
          "internalType": "bool",
          "name": "",
          "type": "bool"
        }
      ],
      "stateMutability": "view",
      "type": "function"
    },
    {
      "inputs": [
        {
          "internalType": "address",
          "name": "spender",
          "type": "address"
        },
        {
          "internalType": "uint256",
          "name": "addedValue",
          "type": "uint256"
        }
      ],
      "name": "increaseAllowance",
      "outputs": [
        {
          "internalType": "bool",
          "name": "",
          "type": "bool"
        }
      ],
      "stateMutability": "nonpayable",
      "type": "function"
    },
    {
      "inputs": [],
      "name": "name",
      "outputs": [
        {
          "internalType": "string",
          "name": "",
          "type": "string"
        }
      ],
      "stateMutability": "view",
      "type": "function"
    },
    {
      "inputs": [],
      "name": "paused",
      "outputs": [
        {
          "internalType": "bool",
          "name": "",
          "type": "bool"
        }
      ],
      "stateMutability": "view",
      "type": "function"
    },
    {
      "inputs": [
        {
          "internalType": "bytes32",
          "name": "role",
          "type": "bytes32"
        },
        {
          "internalType": "address",
          "name": "account",
          "type": "address"
        }
      ],
      "name": "renounceRole",
      "outputs": [],
      "stateMutability": "nonpayable",
      "type": "function"
    },
    {
      "inputs": [
        {
          "internalType": "bytes32",
          "name": "role",
          "type": "bytes32"
        },
        {
          "internalType": "address",
          "name": "account",
          "type": "address"
        }
      ],
      "name": "revokeRole",
      "outputs": [],
      "stateMutability": "nonpayable",
      "type": "function"
    },
    {
      "inputs": [],
      "name": "symbol",
      "outputs": [
        {
          "internalType": "string",
          "name": "",
          "type": "string"
        }
      ],
      "stateMutability": "view",
      "type": "function"
    },
    {
      "inputs": [],
      "name": "totalSupply",
      "outputs": [
        {
          "internalType": "uint256",
          "name": "",
          "type": "uint256"
        }
      ],
      "stateMutability": "view",
      "type": "function"
    },
    {
      "inputs": [
        {
          "internalType": "address",
          "name": "newOwner",
          "type": "address"
        }
      ],
      "name": "transferOwnership",
      "outputs": [],
      "stateMutability": "nonpayable",
      "type": "function"
    },
    {
      "inputs": [
        {
          "internalType": "address",
          "name": "_to",
          "type": "address"
        },
        {
          "internalType": "uint256",
          "name": "_amount",
          "type": "uint256"
        }
      ],
      "name": "mint",
      "outputs": [],
      "stateMutability": "nonpayable",
      "type": "function"
    },
    {
      "inputs": [
        {
          "internalType": "address",
          "name": "recipient",
          "type": "address"
        },
        {
          "internalType": "uint256",
          "name": "amount",
          "type": "uint256"
        }
      ],
      "name": "transfer",
      "outputs": [
        {
          "internalType": "bool",
          "name": "",
          "type": "bool"
        }
      ],
      "stateMutability": "nonpayable",
      "type": "function"
    },
    {
      "inputs": [
        {
          "internalType": "address",
          "name": "sender",
          "type": "address"
        },
        {
          "internalType": "address",
          "name": "recipient",
          "type": "address"
        },
        {
          "internalType": "uint256",
          "name": "amount",
          "type": "uint256"
        }
      ],
      "name": "transferFrom",
      "outputs": [
        {
          "internalType": "bool",
          "name": "",
          "type": "bool"
        }
      ],
      "stateMutability": "nonpayable",
      "type": "function"
    },
    {
      "inputs": [],
      "name": "pause",
      "outputs": [],
      "stateMutability": "nonpayable",
      "type": "function"
    },
    {
      "inputs": [],
      "name": "unpause",
      "outputs": [],
      "stateMutability": "nonpayable",
      "type": "function"
    }
  ],
  "bytecode": "0x60806040526969e10de76676d08000006008553480156200001f57600080fd5b50604080518082018252600f81526e636974697a656e2066696e616e636560881b6020808301918252835180850190945260048452634349464960e01b9084015281519192916200007391600391620001ce565b50805162000089906004906020840190620001ce565b50506005805460ff1990811660121790915560078054909116905550620000b2600033620000b8565b6200027a565b620000c48282620000c8565b5050565b6000828152600660209081526040909120620000ef91839062000c1c62000143821b17901c565b15620000c457620000ff62000163565b6001600160a01b0316816001600160a01b0316837f2f8788117e7eff1d82e926ec794901d17c78024a50270940304540a733656f0d60405160405180910390a45050565b60006200015a836001600160a01b03841662000167565b90505b92915050565b3390565b6000620001758383620001b6565b620001ad575081546001818101845560008481526020808220909301849055845484825282860190935260409020919091556200015d565b5060006200015d565b60009081526001919091016020526040902054151590565b828054600181600116156101000203166002900490600052602060002090601f01602090048101928262000206576000855562000251565b82601f106200022157805160ff191683800117855562000251565b8280016001018555821562000251579182015b828111156200025157825182559160200191906001019062000234565b506200025f92915062000263565b5090565b5b808211156200025f576000815560010162000264565b611856806200028a6000396000f3fe608060405234801561001057600080fd5b506004361061018e5760003560e01c806370a08231116100de578063a217fddf11610097578063ca15c87311610071578063ca15c873146104e7578063d547741f14610504578063dd62ed3e14610530578063f2fde38b1461055e5761018e565b8063a217fddf14610487578063a457c2d71461048f578063a9059cbb146104bb5761018e565b806370a08231146103ba57806379cc6790146103e05780638456cb591461040c5780639010d07c1461041457806391d148541461045357806395d89b411461047f5761018e565b8063313ce5671161014b5780633f4ba83a116101255780633f4ba83a1461036157806340c10f191461036957806342966c68146103955780635c975abb146103b25761018e565b8063313ce567146102eb57806336568abe1461030957806339509351146103355761018e565b806306fdde0314610193578063095ea7b31461021057806318160ddd1461025057806323b872dd1461026a578063248a9ca3146102a05780632f2ff15d146102bd575b600080fd5b61019b610584565b6040805160208082528351818301528351919283929083019185019080838360005b838110156101d55781810151838201526020016101bd565b50505050905090810190601f1680156102025780820380516001836020036101000a031916815260200191505b509250505060405180910390f35b61023c6004803603604081101561022657600080fd5b506001600160a01b03813516906020013561061a565b604080519115158252519081900360200190f35b610258610638565b60408051918252519081900360200190f35b61023c6004803603606081101561028057600080fd5b506001600160a01b0381358116916020810135909116906040013561063e565b610258600480360360208110156102b657600080fd5b50356106a3565b6102e9600480360360408110156102d357600080fd5b50803590602001356001600160a01b03166106b8565b005b6102f3610724565b6040805160ff9092168252519081900360200190f35b6102e96004803603604081101561031f57600080fd5b50803590602001356001600160a01b031661072d565b61023c6004803603604081101561034b57600080fd5b506001600160a01b03813516906020013561078e565b6102e96107e1565b6102e96004803603604081101561037f57600080fd5b506001600160a01b038135169060200135610830565b6102e9600480360360208110156103ab57600080fd5b503561092c565b61023c610940565b610258600480360360208110156103d057600080fd5b50356001600160a01b0316610949565b6102e9600480360360408110156103f657600080fd5b506001600160a01b038135169060200135610964565b6102e96109be565b6104376004803603604081101561042a57600080fd5b5080359060200135610a0b565b604080516001600160a01b039092168252519081900360200190f35b61023c6004803603604081101561046957600080fd5b50803590602001356001600160a01b0316610a2a565b61019b610a42565b610258610aa3565b61023c600480360360408110156104a557600080fd5b506001600160a01b038135169060200135610aa8565b61023c600480360360408110156104d157600080fd5b506001600160a01b038135169060200135610b10565b610258600480360360208110156104fd57600080fd5b5035610b26565b6102e96004803603604081101561051a57600080fd5b50803590602001356001600160a01b0316610b3d565b6102586004803603604081101561054657600080fd5b506001600160a01b0381358116916020013516610b96565b6102e96004803603602081101561057457600080fd5b50356001600160a01b0316610bc1565b60038054604080516020601f60026000196101006001881615020190951694909404938401819004810282018101909252828152606093909290918301828280156106105780601f106105e557610100808354040283529160200191610610565b820191906000526020600020905b8154815290600101906020018083116105f357829003601f168201915b5050505050905090565b600061062e610627610c31565b8484610c35565b5060015b92915050565b60025490565b6000610648610940565b1561068d576040805162461bcd60e51b815260206004820152601060248201526f14185d5cd8589b194e881c185d5cd95960821b604482015290519081900360640190fd5b610698848484610d21565b506001949350505050565b60009081526006602052604090206002015490565b6000828152600660205260409020600201546106db906106d6610c31565b610a2a565b6107165760405162461bcd60e51b815260040180806020018281038252602f81526020018061164e602f913960400191505060405180910390fd5b6107208282610d99565b5050565b60055460ff1690565b610735610c31565b6001600160a01b0316816001600160a01b0316146107845760405162461bcd60e51b815260040180806020018281038252602f8152602001806117f2602f913960400191505060405180910390fd5b6107208282610e02565b600061062e61079b610c31565b846107dc85600160006107ac610c31565b6001600160a01b03908116825260208083019390935260409182016000908120918c168152925290205490610e6b565b610c35565b6107ec600033610a2a565b610826576040805162461bcd60e51b815260206004820152600660248201526510b0b236b4b760d11b604482015290519081900360640190fd5b61082e610ec5565b565b61083b600033610a2a565b610875576040805162461bcd60e51b815260206004820152600660248201526510b0b236b4b760d11b604482015290519081900360640190fd5b61087d610940565b156108c2576040805162461bcd60e51b815260206004820152601060248201526f14185d5cd8589b194e881c185d5cd95960821b604482015290519081900360640190fd5b6008546108d7826108d1610638565b90610e6b565b1115610922576040805162461bcd60e51b815260206004820152601560248201527413585e081b5a5b9d18589b1948195e18d959591959605a1b604482015290519081900360640190fd5b6107208282610f65565b61093d610937610c31565b82611055565b50565b60075460ff1690565b6001600160a01b031660009081526020819052604090205490565b600061099b8260405180606001604052806024815260200161173f602491396109948661098f610c31565b610b96565b9190611151565b90506109af836109a9610c31565b83610c35565b6109b98383611055565b505050565b6109c9600033610a2a565b610a03576040805162461bcd60e51b815260206004820152600660248201526510b0b236b4b760d11b604482015290519081900360640190fd5b61082e6111e8565b6000828152600660205260408120610a23908361126b565b9392505050565b6000828152600660205260408120610a239083611277565b60048054604080516020601f60026000196101006001881615020190951694909404938401819004810282018101909252828152606093909290918301828280156106105780601f106105e557610100808354040283529160200191610610565b600081565b600061062e610ab5610c31565b846107dc856040518060600160405280602581526020016117cd6025913960016000610adf610c31565b6001600160a01b03908116825260208083019390935260409182016000908120918d16815292529020549190611151565b6000610b1c838361128c565b5060019392505050565b6000818152600660205260408120610632906112a0565b600082815260066020526040902060020154610b5b906106d6610c31565b6107845760405162461bcd60e51b81526004018080602001828103825260308152602001806116e76030913960400191505060405180910390fd5b6001600160a01b03918216600090815260016020908152604080832093909416825291909152205490565b610bcc600033610a2a565b610c06576040805162461bcd60e51b815260206004820152600660248201526510b0b236b4b760d11b604482015290519081900360640190fd5b610c11600033610b3d565b61093d6000826106b8565b6000610a23836001600160a01b0384166112ab565b3390565b6001600160a01b038316610c7a5760405162461bcd60e51b81526004018080602001828103825260248152602001806117a96024913960400191505060405180910390fd5b6001600160a01b038216610cbf5760405162461bcd60e51b815260040180806020018281038252602281526020018061169f6022913960400191505060405180910390fd5b6001600160a01b03808416600081815260016020908152604080832094871680845294825291829020859055815185815291517f8c5be1e5ebec7d5bd14f71427d1e84f3dd0314c0f7b2291e5b200ac8c7c3b9259281900390910190a3505050565b6000610d2e8484846112f5565b610b1c84610d3a610c31565b6107dc85604051806060016040528060288152602001611717602891396001600160a01b038a16600090815260016020526040812090610d78610c31565b6001600160a01b031681526020810191909152604001600020549190611151565b6000828152600660205260409020610db19082610c1c565b1561072057610dbe610c31565b6001600160a01b0316816001600160a01b0316837f2f8788117e7eff1d82e926ec794901d17c78024a50270940304540a733656f0d60405160405180910390a45050565b6000828152600660205260409020610e1a9082611450565b1561072057610e27610c31565b6001600160a01b0316816001600160a01b0316837ff6391f5c32d9c69d2a47ea670b442974b53935d1edc7fd64eb21e047a839171b60405160405180910390a45050565b600082820183811015610a23576040805162461bcd60e51b815260206004820152601b60248201527f536166654d6174683a206164646974696f6e206f766572666c6f770000000000604482015290519081900360640190fd5b610ecd610940565b610f15576040805162461bcd60e51b815260206004820152601460248201527314185d5cd8589b194e881b9bdd081c185d5cd95960621b604482015290519081900360640190fd5b6007805460ff191690557f5db9ee0a495bf2e6ff9c91a7834c1ba4fdd244a5e8aa4e537bd38aeae4b073aa610f48610c31565b604080516001600160a01b039092168252519081900360200190a1565b6001600160a01b038216610fc0576040805162461bcd60e51b815260206004820152601f60248201527f45524332303a206d696e7420746f20746865207a65726f206164647265737300604482015290519081900360640190fd5b610fcc600083836109b9565b600254610fd99082610e6b565b6002556001600160a01b038216600090815260208190526040902054610fff9082610e6b565b6001600160a01b0383166000818152602081815260408083209490945583518581529351929391927fddf252ad1be2c89b69c2b068fc378daa952ba7f163c4a11628f55a4df523b3ef9281900390910190a35050565b6001600160a01b03821661109a5760405162461bcd60e51b81526004018080602001828103825260218152602001806117636021913960400191505060405180910390fd5b6110a6826000836109b9565b6110e38160405180606001604052806022815260200161167d602291396001600160a01b0385166000908152602081905260409020549190611151565b6001600160a01b0383166000908152602081905260409020556002546111099082611465565b6002556040805182815290516000916001600160a01b038516917fddf252ad1be2c89b69c2b068fc378daa952ba7f163c4a11628f55a4df523b3ef9181900360200190a35050565b600081848411156111e05760405162461bcd60e51b81526004018080602001828103825283818151815260200191508051906020019080838360005b838110156111a557818101518382015260200161118d565b50505050905090810190601f1680156111d25780820380516001836020036101000a031916815260200191505b509250505060405180910390fd5b505050900390565b6111f0610940565b15611235576040805162461bcd60e51b815260206004820152601060248201526f14185d5cd8589b194e881c185d5cd95960821b604482015290519081900360640190fd5b6007805460ff191660011790557f62e78cea01bee320cd4e420270b5ea74000d11b0c9f74754ebdbfc544b05a258610f48610c31565b6000610a2383836114c2565b6000610a23836001600160a01b038416611526565b600061062e611299610c31565b84846112f5565b60006106328261153e565b60006112b78383611526565b6112ed57508154600181810184556000848152602080822090930184905584548482528286019093526040902091909155610632565b506000610632565b6001600160a01b03831661133a5760405162461bcd60e51b81526004018080602001828103825260258152602001806117846025913960400191505060405180910390fd5b6001600160a01b03821661137f5760405162461bcd60e51b815260040180806020018281038252602381526020018061162b6023913960400191505060405180910390fd5b61138a8383836109b9565b6113c7816040518060600160405280602681526020016116c1602691396001600160a01b0386166000908152602081905260409020549190611151565b6001600160a01b0380851660009081526020819052604080822093909355908416815220546113f69082610e6b565b6001600160a01b038084166000818152602081815260409182902094909455805185815290519193928716927fddf252ad1be2c89b69c2b068fc378daa952ba7f163c4a11628f55a4df523b3ef92918290030190a3505050565b6000610a23836001600160a01b038416611542565b6000828211156114bc576040805162461bcd60e51b815260206004820152601e60248201527f536166654d6174683a207375627472616374696f6e206f766572666c6f770000604482015290519081900360640190fd5b50900390565b815460009082106115045760405162461bcd60e51b81526004018080602001828103825260228152602001806116096022913960400191505060405180910390fd5b82600001828154811061151357fe5b9060005260206000200154905092915050565b60009081526001919091016020526040902054151590565b5490565b600081815260018301602052604081205480156115fe578354600019808301919081019060009087908390811061157557fe5b906000526020600020015490508087600001848154811061159257fe5b6000918252602080832090910192909255828152600189810190925260409020908401905586548790806115c257fe5b60019003818190600052602060002001600090559055866001016000878152602001908152602001600020600090556001945050505050610632565b600091505061063256fe456e756d657261626c655365743a20696e646578206f7574206f6620626f756e647345524332303a207472616e7366657220746f20746865207a65726f2061646472657373416363657373436f6e74726f6c3a2073656e646572206d75737420626520616e2061646d696e20746f206772616e7445524332303a206275726e20616d6f756e7420657863656564732062616c616e636545524332303a20617070726f766520746f20746865207a65726f206164647265737345524332303a207472616e7366657220616d6f756e7420657863656564732062616c616e6365416363657373436f6e74726f6c3a2073656e646572206d75737420626520616e2061646d696e20746f207265766f6b6545524332303a207472616e7366657220616d6f756e74206578636565647320616c6c6f77616e636545524332303a206275726e20616d6f756e74206578636565647320616c6c6f77616e636545524332303a206275726e2066726f6d20746865207a65726f206164647265737345524332303a207472616e736665722066726f6d20746865207a65726f206164647265737345524332303a20617070726f76652066726f6d20746865207a65726f206164647265737345524332303a2064656372656173656420616c6c6f77616e63652062656c6f77207a65726f416363657373436f6e74726f6c3a2063616e206f6e6c792072656e6f756e636520726f6c657320666f722073656c66a26469706673582212207f2f53fe0dcf3a2196d7a233865eb6ccc4fb49dc4c38e57e3b1ce90a7408f2ca64736f6c63430007040033",
  "immutableReferences": {},
  "source": "// SPDX-License-Identifier: MIT\r\npragma solidity ^0.7.4;\r\n\r\nimport \"@openzeppelin/contracts/token/ERC20/ERC20.sol\";\r\nimport \"@openzeppelin/contracts/token/ERC20/ERC20Burnable.sol\";\r\nimport \"@openzeppelin/contracts/utils/Pausable.sol\";\r\nimport \"@openzeppelin/contracts/access/AccessControl.sol\";\r\nimport \"@openzeppelin/contracts/math/SafeMath.sol\";\r\n\r\ncontract Cifi_Token is ERC20, AccessControl, ERC20Burnable, Pausable {\r\n    using SafeMath for uint256;\r\n\r\n    uint256 internal _maxAmountMintable = 500_000e18;\r\n\r\n    constructor() ERC20(\"citizen finance\", \"CIFI\") {\r\n        _setupRole(DEFAULT_ADMIN_ROLE, msg.sender);\r\n    }\r\n\r\n    modifier onlyAdminRole() {\r\n        require(hasRole(DEFAULT_ADMIN_ROLE, msg.sender), \"!admin\");\r\n        _;\r\n    }\r\n\r\n    function transferOwnership(address newOwner) public onlyAdminRole {\r\n        revokeRole(DEFAULT_ADMIN_ROLE, msg.sender);\r\n        grantRole(DEFAULT_ADMIN_ROLE, newOwner);\r\n    }\r\n\r\n    function mint(address _to, uint256 _amount)\r\n        public\r\n        onlyAdminRole\r\n        whenNotPaused\r\n    {\r\n        require(\r\n            ERC20.totalSupply().add(_amount) <= _maxAmountMintable,\r\n            \"Max mintable exceeded\"\r\n        );\r\n        super._mint(_to, _amount);\r\n    }\r\n\r\n    function transfer(address recipient, uint256 amount)\r\n        public\r\n        virtual\r\n        override\r\n        returns (bool)\r\n    {\r\n        super.transfer(recipient, amount);\r\n        return true;\r\n    }\r\n\r\n    function transferFrom(\r\n        address sender,\r\n        address recipient,\r\n        uint256 amount\r\n    ) public virtual override whenNotPaused returns (bool) {\r\n        super.transferFrom(sender, recipient, amount);\r\n        return true;\r\n    }\r\n\r\n    function pause() external onlyAdminRole {\r\n        super._pause();\r\n    }\r\n\r\n    function unpause() external onlyAdminRole {\r\n        super._unpause();\r\n    }\r\n}\r\n",
  "sourcePath": "F:\\citizen\\depoly\\santafeapp\\src\\contracts\\Cifi_Token.sol",
  "compiler": {
    "name": "solc",
    "version": "0.7.4+commit.3f05b770.Emscripten.clang"
  },
  "schemaVersion": "3.4.2",
  "updatedAt": "2021-09-13T16:39:10.005Z",
  "networkType": "ethereum",
  "devdoc": {
    "kind": "dev",
    "methods": {
      "allowance(address,address)": {
        "details": "See {IERC20-allowance}."
      },
      "approve(address,uint256)": {
        "details": "See {IERC20-approve}. Requirements: - `spender` cannot be the zero address."
      },
      "balanceOf(address)": {
        "details": "See {IERC20-balanceOf}."
      },
      "burn(uint256)": {
        "details": "Destroys `amount` tokens from the caller. See {ERC20-_burn}."
      },
      "burnFrom(address,uint256)": {
        "details": "Destroys `amount` tokens from `account`, deducting from the caller's allowance. See {ERC20-_burn} and {ERC20-allowance}. Requirements: - the caller must have allowance for ``accounts``'s tokens of at least `amount`."
      },
      "decimals()": {
        "details": "Returns the number of decimals used to get its user representation. For example, if `decimals` equals `2`, a balance of `505` tokens should be displayed to a user as `5,05` (`505 / 10 ** 2`). Tokens usually opt for a value of 18, imitating the relationship between Ether and Wei. This is the value {ERC20} uses, unless {_setupDecimals} is called. NOTE: This information is only used for _display_ purposes: it in no way affects any of the arithmetic of the contract, including {IERC20-balanceOf} and {IERC20-transfer}."
      },
      "decreaseAllowance(address,uint256)": {
        "details": "Atomically decreases the allowance granted to `spender` by the caller. This is an alternative to {approve} that can be used as a mitigation for problems described in {IERC20-approve}. Emits an {Approval} event indicating the updated allowance. Requirements: - `spender` cannot be the zero address. - `spender` must have allowance for the caller of at least `subtractedValue`."
      },
      "getRoleAdmin(bytes32)": {
        "details": "Returns the admin role that controls `role`. See {grantRole} and {revokeRole}. To change a role's admin, use {_setRoleAdmin}."
      },
      "getRoleMember(bytes32,uint256)": {
        "details": "Returns one of the accounts that have `role`. `index` must be a value between 0 and {getRoleMemberCount}, non-inclusive. Role bearers are not sorted in any particular way, and their ordering may change at any point. WARNING: When using {getRoleMember} and {getRoleMemberCount}, make sure you perform all queries on the same block. See the following https://forum.openzeppelin.com/t/iterating-over-elements-on-enumerableset-in-openzeppelin-contracts/2296[forum post] for more information."
      },
      "getRoleMemberCount(bytes32)": {
        "details": "Returns the number of accounts that have `role`. Can be used together with {getRoleMember} to enumerate all bearers of a role."
      },
      "grantRole(bytes32,address)": {
        "details": "Grants `role` to `account`. If `account` had not been already granted `role`, emits a {RoleGranted} event. Requirements: - the caller must have ``role``'s admin role."
      },
      "hasRole(bytes32,address)": {
        "details": "Returns `true` if `account` has been granted `role`."
      },
      "increaseAllowance(address,uint256)": {
        "details": "Atomically increases the allowance granted to `spender` by the caller. This is an alternative to {approve} that can be used as a mitigation for problems described in {IERC20-approve}. Emits an {Approval} event indicating the updated allowance. Requirements: - `spender` cannot be the zero address."
      },
      "name()": {
        "details": "Returns the name of the token."
      },
      "paused()": {
        "details": "Returns true if the contract is paused, and false otherwise."
      },
      "renounceRole(bytes32,address)": {
        "details": "Revokes `role` from the calling account. Roles are often managed via {grantRole} and {revokeRole}: this function's purpose is to provide a mechanism for accounts to lose their privileges if they are compromised (such as when a trusted device is misplaced). If the calling account had been granted `role`, emits a {RoleRevoked} event. Requirements: - the caller must be `account`."
      },
      "revokeRole(bytes32,address)": {
        "details": "Revokes `role` from `account`. If `account` had been granted `role`, emits a {RoleRevoked} event. Requirements: - the caller must have ``role``'s admin role."
      },
      "symbol()": {
        "details": "Returns the symbol of the token, usually a shorter version of the name."
      },
      "totalSupply()": {
        "details": "See {IERC20-totalSupply}."
      },
      "transfer(address,uint256)": {
        "details": "See {IERC20-transfer}. Requirements: - `recipient` cannot be the zero address. - the caller must have a balance of at least `amount`."
      },
      "transferFrom(address,address,uint256)": {
        "details": "See {IERC20-transferFrom}. Emits an {Approval} event indicating the updated allowance. This is not required by the EIP. See the note at the beginning of {ERC20}. Requirements: - `sender` and `recipient` cannot be the zero address. - `sender` must have a balance of at least `amount`. - the caller must have allowance for ``sender``'s tokens of at least `amount`."
      }
    },
    "version": 1
  },
  "userdoc": {
    "kind": "user",
    "methods": {},
    "version": 1
  }
}