{
  "contractName": "Governance",
  "abi": [
    {
      "inputs": [],
      "stateMutability": "nonpayable",
      "type": "constructor"
    },
    {
      "anonymous": false,
      "inputs": [
        {
          "indexed": true,
          "internalType": "address",
          "name": "previousOwner",
          "type": "address"
        },
        {
          "indexed": true,
          "internalType": "address",
          "name": "newOwner",
          "type": "address"
        }
      ],
      "name": "GovernanceTransferred",
      "type": "event"
    },
    {
      "inputs": [],
      "name": "_governance",
      "outputs": [
        {
          "internalType": "address",
          "name": "",
          "type": "address"
        }
      ],
      "stateMutability": "view",
      "type": "function"
    },
    {
      "inputs": [
        {
          "internalType": "address",
          "name": "governance",
          "type": "address"
        }
      ],
      "name": "setGovernance",
      "outputs": [],
      "stateMutability": "nonpayable",
      "type": "function"
    }
  ],
  "bytecode": "0x608060405234801561001057600080fd5b50600080546001600160a01b031916321790556101d2806100326000396000f3fe608060405234801561001057600080fd5b50600436106100365760003560e01c80631c2f3e3d1461003b578063ab033ea91461005f575b600080fd5b610043610087565b604080516001600160a01b039092168252519081900360200190f35b6100856004803603602081101561007557600080fd5b50356001600160a01b0316610096565b005b6000546001600160a01b031681565b6000546001600160a01b031633146100e6576040805162461bcd60e51b815260206004820152600e60248201526d6e6f7420676f7665726e616e636560901b604482015290519081900360640190fd5b6001600160a01b038116610141576040805162461bcd60e51b815260206004820152601f60248201527f6e657720676f7665726e616e636520746865207a65726f206164647265737300604482015290519081900360640190fd5b600080546040516001600160a01b03808516939216917f5f56bee8cffbe9a78652a74a60705edede02af10b0bbb888ca44b79a0d42ce8091a3600080546001600160a01b0319166001600160a01b039290921691909117905556fea26469706673582212202de32a77be78afe4dc38ba46f3b69a09ea5bafdc7cf0f2f66df7031b44e26b5164736f6c63430007040033",
  "immutableReferences": {},
  "source": "// SPDX-License-Identifier: MIT\r\npragma solidity >=0.4.22 <0.8.4;\r\n\r\ncontract Governance {\r\n\r\n    address public _governance;\r\n\r\n    constructor() {\r\n        _governance = tx.origin;\r\n    }\r\n\r\n    event GovernanceTransferred(address indexed previousOwner, address indexed newOwner);\r\n\r\n    modifier onlyGovernance {\r\n        require(msg.sender == _governance, \"not governance\");\r\n        _;\r\n    }\r\n\r\n    function setGovernance(address governance)  public  onlyGovernance\r\n    {\r\n        require(governance != address(0), \"new governance the zero address\");\r\n        emit GovernanceTransferred(_governance, governance);\r\n        _governance = governance;\r\n    }\r\n\r\n\r\n}",
  "sourcePath": "F:\\citizen\\depoly\\santafeapp\\src\\contracts\\library\\Governance.sol",
  "compiler": {
    "name": "solc",
    "version": "0.7.4+commit.3f05b770.Emscripten.clang"
  },
  "schemaVersion": "3.4.2",
  "updatedAt": "2021-09-13T16:36:46.692Z",
  "devdoc": {
    "kind": "dev",
    "methods": {},
    "version": 1
  },
  "userdoc": {
    "kind": "user",
    "methods": {},
    "version": 1
  }
}