{
  "contractName": "NftFactory",
  "abi": [
    {
      "inputs": [
        {
          "internalType": "address",
          "name": "cifi",
          "type": "address"
        },
        {
          "internalType": "address",
          "name": "nft",
          "type": "address"
        }
      ],
      "stateMutability": "nonpayable",
      "type": "constructor"
    },
    {
      "anonymous": false,
      "inputs": [
        {
          "indexed": true,
          "internalType": "address",
          "name": "previousOwner",
          "type": "address"
        },
        {
          "indexed": true,
          "internalType": "address",
          "name": "newOwner",
          "type": "address"
        }
      ],
      "name": "GovernanceTransferred",
      "type": "event"
    },
    {
      "anonymous": false,
      "inputs": [
        {
          "indexed": true,
          "internalType": "uint256",
          "name": "id",
          "type": "uint256"
        },
        {
          "indexed": false,
          "internalType": "address",
          "name": "author",
          "type": "address"
        }
      ],
      "name": "NFTAdded",
      "type": "event"
    },
    {
      "inputs": [],
      "name": "_cifi",
      "outputs": [
        {
          "internalType": "contract ICifi_Token",
          "name": "",
          "type": "address"
        }
      ],
      "stateMutability": "view",
      "type": "function"
    },
    {
      "inputs": [
        {
          "internalType": "address",
          "name": "",
          "type": "address"
        }
      ],
      "name": "_claimMembers",
      "outputs": [
        {
          "internalType": "bool",
          "name": "",
          "type": "bool"
        }
      ],
      "stateMutability": "view",
      "type": "function"
    },
    {
      "inputs": [],
      "name": "_governance",
      "outputs": [
        {
          "internalType": "address",
          "name": "",
          "type": "address"
        }
      ],
      "stateMutability": "view",
      "type": "function"
    },
    {
      "inputs": [],
      "name": "_maxClass",
      "outputs": [
        {
          "internalType": "uint256",
          "name": "",
          "type": "uint256"
        }
      ],
      "stateMutability": "view",
      "type": "function"
    },
    {
      "inputs": [],
      "name": "_maxClassLong",
      "outputs": [
        {
          "internalType": "uint256",
          "name": "",
          "type": "uint256"
        }
      ],
      "stateMutability": "view",
      "type": "function"
    },
    {
      "inputs": [
        {
          "internalType": "address",
          "name": "",
          "type": "address"
        }
      ],
      "name": "_minters",
      "outputs": [
        {
          "internalType": "bool",
          "name": "",
          "type": "bool"
        }
      ],
      "stateMutability": "view",
      "type": "function"
    },
    {
      "inputs": [],
      "name": "_nft",
      "outputs": [
        {
          "internalType": "contract INftAsset",
          "name": "",
          "type": "address"
        }
      ],
      "stateMutability": "view",
      "type": "function"
    },
    {
      "inputs": [],
      "name": "_nftId",
      "outputs": [
        {
          "internalType": "uint256",
          "name": "",
          "type": "uint256"
        }
      ],
      "stateMutability": "view",
      "type": "function"
    },
    {
      "inputs": [
        {
          "internalType": "address",
          "name": "governance",
          "type": "address"
        }
      ],
      "name": "setGovernance",
      "outputs": [],
      "stateMutability": "nonpayable",
      "type": "function"
    },
    {
      "inputs": [
        {
          "internalType": "address",
          "name": "minter",
          "type": "address"
        }
      ],
      "name": "addMinter",
      "outputs": [],
      "stateMutability": "nonpayable",
      "type": "function"
    },
    {
      "inputs": [
        {
          "internalType": "address",
          "name": "minter",
          "type": "address"
        }
      ],
      "name": "removeMinter",
      "outputs": [],
      "stateMutability": "nonpayable",
      "type": "function"
    },
    {
      "inputs": [
        {
          "internalType": "address",
          "name": "cifi",
          "type": "address"
        }
      ],
      "name": "setCifiContract",
      "outputs": [],
      "stateMutability": "nonpayable",
      "type": "function"
    },
    {
      "inputs": [
        {
          "internalType": "address",
          "name": "nft",
          "type": "address"
        }
      ],
      "name": "setNftContract",
      "outputs": [],
      "stateMutability": "nonpayable",
      "type": "function"
    },
    {
      "inputs": [],
      "name": "balance",
      "outputs": [
        {
          "internalType": "uint256",
          "name": "",
          "type": "uint256"
        }
      ],
      "stateMutability": "view",
      "type": "function"
    },
    {
      "inputs": [],
      "name": "tokens",
      "outputs": [
        {
          "internalType": "uint256[]",
          "name": "",
          "type": "uint256[]"
        }
      ],
      "stateMutability": "view",
      "type": "function"
    },
    {
      "inputs": [],
      "name": "mint",
      "outputs": [
        {
          "internalType": "uint256",
          "name": "",
          "type": "uint256"
        }
      ],
      "stateMutability": "nonpayable",
      "type": "function"
    },
    {
      "inputs": [],
      "name": "hasClaim",
      "outputs": [
        {
          "internalType": "bool",
          "name": "",
          "type": "bool"
        }
      ],
      "stateMutability": "view",
      "type": "function"
    },
    {
      "inputs": [],
      "name": "claim",
      "outputs": [
        {
          "internalType": "uint256",
          "name": "",
          "type": "uint256"
        }
      ],
      "stateMutability": "nonpayable",
      "type": "function"
    }
  ],
  "bytecode": "0x60806040526000600355600480546001600160a01b031990811690915560058054909116905560068055600a60075534801561003a57600080fd5b50604051610a73380380610a738339818101604052604081101561005d57600080fd5b508051602090910151600080546001600160a01b03199081163217909155600480546001600160a01b03948516908316179055600580549390921692169190911790556109c4806100af6000396000f3fe608060405234801561001057600080fd5b50600436106101165760003560e01c80634e71d92d116100a25780639d63848a116100715780639d63848a1461025d578063ab033ea9146102b5578063b69ef8a8146102db578063c81d56be146102e3578063d9d0b8141461030957610116565b80634e71d92d1461020157806352f5ad771461020957806398300e181461022f578063983b2d561461023757610116565b80633575597d116100e95780633575597d146101895780633b07d04c146101c35780633e2c3a5a146101cb5780633efbf91c146101d35780633f84561f146101db57610116565b80631249c58b1461011b57806312c05835146101355780631c2f3e3d146101595780633092afd514610161575b600080fd5b610123610311565b60408051918252519081900360200190f35b61013d6103da565b604080516001600160a01b039092168252519081900360200190f35b61013d6103e9565b6101876004803603602081101561017757600080fd5b50356001600160a01b03166103f8565b005b6101af6004803603602081101561019f57600080fd5b50356001600160a01b0316610469565b604080519115158252519081900360200190f35b61012361047e565b6101af610484565b61012361049a565b610187600480360360208110156101f157600080fd5b50356001600160a01b03166104a0565b610123610512565b6101876004803603602081101561021f57600080fd5b50356001600160a01b03166105e0565b61013d610652565b6101876004803603602081101561024d57600080fd5b50356001600160a01b0316610661565b6102656106d8565b60408051602080825283518183015283519192839290830191858101910280838360005b838110156102a1578181015183820152602001610289565b505050509050019250505060405180910390f35b610187600480360360208110156102cb57600080fd5b50356001600160a01b03166107f1565b6101236108f7565b6101af600480360360208110156102f957600080fd5b50356001600160a01b0316610973565b610123610988565b6003805460010190819055600554604080516340c10f1960e01b81523360048201526024810193909352516000926001600160a01b03909216916340c10f1991604480830192602092919082900301818787803b15801561037157600080fd5b505af1158015610385573d6000803e3d6000fd5b505050506040513d602081101561039b57600080fd5b50506003546040805133815290517fbfbd6eaa32590f39923570e3a50c82ac962fc5cfdc5adf2511b078618ebaf1269181900360200190a25060035490565b6004546001600160a01b031681565b6000546001600160a01b031681565b6000546001600160a01b03163314610448576040805162461bcd60e51b815260206004820152600e60248201526d6e6f7420676f7665726e616e636560901b604482015290519081900360640190fd5b6001600160a01b03166000908152600160205260409020805460ff19169055565b60016020526000908152604090205460ff1681565b60075481565b3360009081526002602052604090205460ff1690565b60035481565b6000546001600160a01b031633146104f0576040805162461bcd60e51b815260206004820152600e60248201526d6e6f7420676f7665726e616e636560901b604482015290519081900360640190fd5b600480546001600160a01b0319166001600160a01b0392909216919091179055565b3360009081526002602052604081205460ff1615610563576040805162461bcd60e51b815260206004820152600960248201526868617320636c61696d60b81b604482015290519081900360640190fd5b336000818152600260209081526040808320805460ff19166001908117909155600380549091019081905560055482516340c10f1960e01b81526004810196909652602486019190915290516001600160a01b0391909116936340c10f199360448083019493928390030190829087803b15801561037157600080fd5b6000546001600160a01b03163314610630576040805162461bcd60e51b815260206004820152600e60248201526d6e6f7420676f7665726e616e636560901b604482015290519081900360640190fd5b600580546001600160a01b0319166001600160a01b0392909216919091179055565b6005546001600160a01b031681565b6000546001600160a01b031633146106b1576040805162461bcd60e51b815260206004820152600e60248201526d6e6f7420676f7665726e616e636560901b604482015290519081900360640190fd5b6001600160a01b03166000908152600160208190526040909120805460ff19169091179055565b60055460408051632118854760e21b815233600482015290516060926001600160a01b031691638462151c916024808301926000929190829003018186803b15801561072357600080fd5b505afa158015610737573d6000803e3d6000fd5b505050506040513d6000823e601f3d908101601f19168201604052602081101561076057600080fd5b810190808051604051939291908464010000000082111561078057600080fd5b90830190602082018581111561079557600080fd5b82518660208202830111640100000000821117156107b257600080fd5b82525081516020918201928201910280838360005b838110156107df5781810151838201526020016107c7565b50505050905001604052505050905090565b6000546001600160a01b03163314610841576040805162461bcd60e51b815260206004820152600e60248201526d6e6f7420676f7665726e616e636560901b604482015290519081900360640190fd5b6001600160a01b03811661089c576040805162461bcd60e51b815260206004820152601f60248201527f6e657720676f7665726e616e636520746865207a65726f206164647265737300604482015290519081900360640190fd5b600080546040516001600160a01b03808516939216917f5f56bee8cffbe9a78652a74a60705edede02af10b0bbb888ca44b79a0d42ce8091a3600080546001600160a01b0319166001600160a01b0392909216919091179055565b600554604080516370a0823160e01b815233600482015290516000926001600160a01b0316916370a08231916024808301926020929190829003018186803b15801561094257600080fd5b505afa158015610956573d6000803e3d6000fd5b505050506040513d602081101561096c57600080fd5b5051905090565b60026020526000908152604090205460ff1681565b6006548156fea2646970667358221220db0e12b56836b5226d9056254b343b19147d2c3f66398dc0e2e1db20b7351e5464736f6c63430007040033",
  "immutableReferences": {},
  "source": "// SPDX-License-Identifier: MIT\r\npragma solidity ^0.7.4;\r\n\r\nimport \"@openzeppelin/contracts/math/SafeMath.sol\";\r\nimport \"@openzeppelin/contracts/token/ERC721/IERC721.sol\";\r\nimport \"@openzeppelin/contracts/utils/Address.sol\";\r\n\r\nimport \"../library/Governance.sol\";\r\nimport \"../interface/INftAsset.sol\";\r\nimport \"../interface/ICifi_Token.sol\";\r\n\r\ncontract NftFactory is Governance {\r\n    using Address for address;\r\n    using SafeMath for uint256;\r\n\r\n    event NFTAdded(uint256 indexed id, address author);\r\n\r\n    // for minters\r\n    mapping(address => bool) public _minters;\r\n    mapping(address => bool) public _claimMembers;\r\n\r\n    uint256 public _nftId = 0;\r\n\r\n    ICifi_Token public _cifi = ICifi_Token(0x0);\r\n    INftAsset public _nft = INftAsset(0x0);\r\n\r\n    uint256 public _maxClass = 6;\r\n    uint256 public _maxClassLong = 10;\r\n\r\n    constructor(address cifi, address nft) {\r\n        _cifi = ICifi_Token(cifi);\r\n        _nft = INftAsset(nft);\r\n    }\r\n\r\n    /**\r\n     * @dev for set min burn time\r\n     */\r\n\r\n    function addMinter(address minter) public onlyGovernance {\r\n        _minters[minter] = true;\r\n    }\r\n\r\n    function removeMinter(address minter) public onlyGovernance {\r\n        _minters[minter] = false;\r\n    }\r\n\r\n    /**\r\n     * @dev set cifi contract address\r\n     */\r\n    function setCifiContract(address cifi) public onlyGovernance {\r\n        _cifi = ICifi_Token(cifi);\r\n    }\r\n\r\n    function setNftContract(address nft) public onlyGovernance {\r\n        _nft = INftAsset(nft);\r\n    }\r\n\r\n    function balance() public view returns (uint256) {\r\n        return _nft.balanceOf(msg.sender);\r\n    }\r\n\r\n    function tokens() public view returns (uint256[] memory) {\r\n        return _nft.tokensOfOwner(msg.sender);\r\n    }\r\n\r\n    function mint() public returns (uint256) {\r\n        _nftId++;\r\n        _nft.mint(msg.sender, _nftId);\r\n        emit NFTAdded(_nftId, msg.sender);\r\n        return _nftId;\r\n    }\r\n\r\n    function hasClaim() public view returns (bool) {\r\n        return _claimMembers[msg.sender];\r\n    }\r\n\r\n    function claim() public returns (uint256) {\r\n        require(_claimMembers[msg.sender] == false, \"has claim\");\r\n\r\n        _claimMembers[msg.sender] = true;\r\n        _nftId++;\r\n        _nft.mint(msg.sender, _nftId);\r\n        emit NFTAdded(_nftId, msg.sender);\r\n        return _nftId;\r\n    }\r\n}\r\n",
  "sourcePath": "F:\\citizen\\depoly\\santafeapp\\src\\contracts\\nft\\NftFactory.sol",
  "compiler": {
    "name": "solc",
    "version": "0.7.4+commit.3f05b770.Emscripten.clang"
  },
  "schemaVersion": "3.4.2",
  "updatedAt": "2021-09-13T16:36:46.716Z",
  "devdoc": {
    "kind": "dev",
    "methods": {
      "addMinter(address)": {
        "details": "for set min burn time"
      },
      "setCifiContract(address)": {
        "details": "set cifi contract address"
      }
    },
    "version": 1
  },
  "userdoc": {
    "kind": "user",
    "methods": {},
    "version": 1
  }
}