{
  "contractName": "NftStaking",
  "abi": [
    {
      "inputs": [
        {
          "internalType": "address",
          "name": "cifi",
          "type": "address"
        },
        {
          "internalType": "address",
          "name": "nftAsset",
          "type": "address"
        }
      ],
      "stateMutability": "nonpayable",
      "type": "constructor"
    },
    {
      "anonymous": false,
      "inputs": [
        {
          "indexed": true,
          "internalType": "address",
          "name": "previousOwner",
          "type": "address"
        },
        {
          "indexed": true,
          "internalType": "address",
          "name": "newOwner",
          "type": "address"
        }
      ],
      "name": "GovernanceTransferred",
      "type": "event"
    },
    {
      "anonymous": false,
      "inputs": [
        {
          "indexed": false,
          "internalType": "address",
          "name": "operator",
          "type": "address"
        },
        {
          "indexed": false,
          "internalType": "address",
          "name": "from",
          "type": "address"
        },
        {
          "indexed": false,
          "internalType": "uint256",
          "name": "tokenId",
          "type": "uint256"
        },
        {
          "indexed": false,
          "internalType": "bytes",
          "name": "data",
          "type": "bytes"
        }
      ],
      "name": "NFTReceived",
      "type": "event"
    },
    {
      "anonymous": false,
      "inputs": [
        {
          "indexed": false,
          "internalType": "uint256",
          "name": "reward",
          "type": "uint256"
        }
      ],
      "name": "RewardAdded",
      "type": "event"
    },
    {
      "anonymous": false,
      "inputs": [
        {
          "indexed": true,
          "internalType": "address",
          "name": "user",
          "type": "address"
        },
        {
          "indexed": false,
          "internalType": "uint256",
          "name": "reward",
          "type": "uint256"
        }
      ],
      "name": "RewardPaid",
      "type": "event"
    },
    {
      "anonymous": false,
      "inputs": [
        {
          "indexed": true,
          "internalType": "address",
          "name": "user",
          "type": "address"
        },
        {
          "indexed": false,
          "internalType": "uint256",
          "name": "amount",
          "type": "uint256"
        }
      ],
      "name": "StakedNFT",
      "type": "event"
    },
    {
      "anonymous": false,
      "inputs": [
        {
          "indexed": true,
          "internalType": "address",
          "name": "user",
          "type": "address"
        },
        {
          "indexed": false,
          "internalType": "uint256",
          "name": "amount",
          "type": "uint256"
        }
      ],
      "name": "WithdrawnNFT",
      "type": "event"
    },
    {
      "inputs": [],
      "name": "DURATION",
      "outputs": [
        {
          "internalType": "uint256",
          "name": "",
          "type": "uint256"
        }
      ],
      "stateMutability": "view",
      "type": "function",
      "constant": true
    },
    {
      "inputs": [],
      "name": "_LiquidityRate",
      "outputs": [
        {
          "internalType": "uint256",
          "name": "",
          "type": "uint256"
        }
      ],
      "stateMutability": "view",
      "type": "function",
      "constant": true
    },
    {
      "inputs": [],
      "name": "_baseRate",
      "outputs": [
        {
          "internalType": "uint256",
          "name": "",
          "type": "uint256"
        }
      ],
      "stateMutability": "view",
      "type": "function",
      "constant": true
    },
    {
      "inputs": [],
      "name": "_cifi",
      "outputs": [
        {
          "internalType": "contract ICifi_Token",
          "name": "",
          "type": "address"
        }
      ],
      "stateMutability": "view",
      "type": "function",
      "constant": true
    },
    {
      "inputs": [],
      "name": "_cifiPool",
      "outputs": [
        {
          "internalType": "address",
          "name": "",
          "type": "address"
        }
      ],
      "stateMutability": "view",
      "type": "function",
      "constant": true
    },
    {
      "inputs": [],
      "name": "_dividendPool",
      "outputs": [
        {
          "internalType": "address",
          "name": "",
          "type": "address"
        }
      ],
      "stateMutability": "view",
      "type": "function",
      "constant": true
    },
    {
      "inputs": [
        {
          "internalType": "address",
          "name": "",
          "type": "address"
        }
      ],
      "name": "_faceValues",
      "outputs": [
        {
          "internalType": "uint256",
          "name": "",
          "type": "uint256"
        }
      ],
      "stateMutability": "view",
      "type": "function",
      "constant": true
    },
    {
      "inputs": [],
      "name": "_fixRateBase",
      "outputs": [
        {
          "internalType": "uint256",
          "name": "",
          "type": "uint256"
        }
      ],
      "stateMutability": "view",
      "type": "function",
      "constant": true
    },
    {
      "inputs": [],
      "name": "_governance",
      "outputs": [
        {
          "internalType": "address",
          "name": "",
          "type": "address"
        }
      ],
      "stateMutability": "view",
      "type": "function",
      "constant": true
    },
    {
      "inputs": [],
      "name": "_hasStart",
      "outputs": [
        {
          "internalType": "bool",
          "name": "",
          "type": "bool"
        }
      ],
      "stateMutability": "view",
      "type": "function",
      "constant": true
    },
    {
      "inputs": [],
      "name": "_initReward",
      "outputs": [
        {
          "internalType": "uint256",
          "name": "",
          "type": "uint256"
        }
      ],
      "stateMutability": "view",
      "type": "function",
      "constant": true
    },
    {
      "inputs": [
        {
          "internalType": "address",
          "name": "",
          "type": "address"
        }
      ],
      "name": "_lastStakedTime",
      "outputs": [
        {
          "internalType": "uint256",
          "name": "",
          "type": "uint256"
        }
      ],
      "stateMutability": "view",
      "type": "function",
      "constant": true
    },
    {
      "inputs": [],
      "name": "_lastUpdateTime",
      "outputs": [
        {
          "internalType": "uint256",
          "name": "",
          "type": "uint256"
        }
      ],
      "stateMutability": "view",
      "type": "function",
      "constant": true
    },
    {
      "inputs": [],
      "name": "_maxStakedCifi",
      "outputs": [
        {
          "internalType": "uint256",
          "name": "",
          "type": "uint256"
        }
      ],
      "stateMutability": "view",
      "type": "function",
      "constant": true
    },
    {
      "inputs": [],
      "name": "_nftAsset",
      "outputs": [
        {
          "internalType": "contract INftAsset",
          "name": "",
          "type": "address"
        }
      ],
      "stateMutability": "view",
      "type": "function",
      "constant": true
    },
    {
      "inputs": [
        {
          "internalType": "uint256",
          "name": "",
          "type": "uint256"
        }
      ],
      "name": "_nftMapIndex",
      "outputs": [
        {
          "internalType": "uint256",
          "name": "",
          "type": "uint256"
        }
      ],
      "stateMutability": "view",
      "type": "function",
      "constant": true
    },
    {
      "inputs": [],
      "name": "_penaltyRate",
      "outputs": [
        {
          "internalType": "uint256",
          "name": "",
          "type": "uint256"
        }
      ],
      "stateMutability": "view",
      "type": "function",
      "constant": true
    },
    {
      "inputs": [],
      "name": "_periodFinish",
      "outputs": [
        {
          "internalType": "uint256",
          "name": "",
          "type": "uint256"
        }
      ],
      "stateMutability": "view",
      "type": "function",
      "constant": true
    },
    {
      "inputs": [
        {
          "internalType": "address",
          "name": "",
          "type": "address"
        }
      ],
      "name": "_powaBalances",
      "outputs": [
        {
          "internalType": "uint256",
          "name": "",
          "type": "uint256"
        }
      ],
      "stateMutability": "view",
      "type": "function",
      "constant": true
    },
    {
      "inputs": [
        {
          "internalType": "uint256",
          "name": "",
          "type": "uint256"
        }
      ],
      "name": "_powas",
      "outputs": [
        {
          "internalType": "uint256",
          "name": "",
          "type": "uint256"
        }
      ],
      "stateMutability": "view",
      "type": "function",
      "constant": true
    },
    {
      "inputs": [],
      "name": "_punishTime",
      "outputs": [
        {
          "internalType": "uint256",
          "name": "",
          "type": "uint256"
        }
      ],
      "stateMutability": "view",
      "type": "function",
      "constant": true
    },
    {
      "inputs": [],
      "name": "_rewardPerTokenStored",
      "outputs": [
        {
          "internalType": "uint256",
          "name": "",
          "type": "uint256"
        }
      ],
      "stateMutability": "view",
      "type": "function",
      "constant": true
    },
    {
      "inputs": [],
      "name": "_rewardRate",
      "outputs": [
        {
          "internalType": "uint256",
          "name": "",
          "type": "uint256"
        }
      ],
      "stateMutability": "view",
      "type": "function",
      "constant": true
    },
    {
      "inputs": [
        {
          "internalType": "address",
          "name": "",
          "type": "address"
        }
      ],
      "name": "_rewards",
      "outputs": [
        {
          "internalType": "uint256",
          "name": "",
          "type": "uint256"
        }
      ],
      "stateMutability": "view",
      "type": "function",
      "constant": true
    },
    {
      "inputs": [
        {
          "internalType": "uint256",
          "name": "",
          "type": "uint256"
        }
      ],
      "name": "_stakeBalances",
      "outputs": [
        {
          "internalType": "uint256",
          "name": "",
          "type": "uint256"
        }
      ],
      "stateMutability": "view",
      "type": "function",
      "constant": true
    },
    {
      "inputs": [],
      "name": "_stakingPowaBase",
      "outputs": [
        {
          "internalType": "uint256",
          "name": "",
          "type": "uint256"
        }
      ],
      "stateMutability": "view",
      "type": "function",
      "constant": true
    },
    {
      "inputs": [],
      "name": "_startTime",
      "outputs": [
        {
          "internalType": "uint256",
          "name": "",
          "type": "uint256"
        }
      ],
      "stateMutability": "view",
      "type": "function",
      "constant": true
    },
    {
      "inputs": [],
      "name": "_teamRewardRate",
      "outputs": [
        {
          "internalType": "uint256",
          "name": "",
          "type": "uint256"
        }
      ],
      "stateMutability": "view",
      "type": "function",
      "constant": true
    },
    {
      "inputs": [],
      "name": "_teamWallet",
      "outputs": [
        {
          "internalType": "address",
          "name": "",
          "type": "address"
        }
      ],
      "stateMutability": "view",
      "type": "function",
      "constant": true
    },
    {
      "inputs": [
        {
          "internalType": "address",
          "name": "",
          "type": "address"
        },
        {
          "internalType": "uint256",
          "name": "",
          "type": "uint256"
        }
      ],
      "name": "_tokensOfUser",
      "outputs": [
        {
          "internalType": "uint256",
          "name": "",
          "type": "uint256"
        }
      ],
      "stateMutability": "view",
      "type": "function",
      "constant": true
    },
    {
      "inputs": [],
      "name": "_totalBalance",
      "outputs": [
        {
          "internalType": "uint256",
          "name": "",
          "type": "uint256"
        }
      ],
      "stateMutability": "view",
      "type": "function",
      "constant": true
    },
    {
      "inputs": [],
      "name": "_totalPowa",
      "outputs": [
        {
          "internalType": "uint256",
          "name": "",
          "type": "uint256"
        }
      ],
      "stateMutability": "view",
      "type": "function",
      "constant": true
    },
    {
      "inputs": [
        {
          "internalType": "address",
          "name": "",
          "type": "address"
        }
      ],
      "name": "_userRewardPerTokenPaid",
      "outputs": [
        {
          "internalType": "uint256",
          "name": "",
          "type": "uint256"
        }
      ],
      "stateMutability": "view",
      "type": "function",
      "constant": true
    },
    {
      "inputs": [
        {
          "internalType": "address",
          "name": "governance",
          "type": "address"
        }
      ],
      "name": "setGovernance",
      "outputs": [],
      "stateMutability": "nonpayable",
      "type": "function"
    },
    {
      "inputs": [
        {
          "internalType": "uint256",
          "name": "amount",
          "type": "uint256"
        }
      ],
      "name": "setMaxStakedCifi",
      "outputs": [],
      "stateMutability": "nonpayable",
      "type": "function"
    },
    {
      "inputs": [
        {
          "internalType": "contract ICifi_Token",
          "name": "token",
          "type": "address"
        },
        {
          "internalType": "uint256",
          "name": "amount",
          "type": "uint256"
        }
      ],
      "name": "seize",
      "outputs": [],
      "stateMutability": "nonpayable",
      "type": "function"
    },
    {
      "inputs": [
        {
          "internalType": "contract IERC721",
          "name": "token",
          "type": "address"
        },
        {
          "internalType": "uint256",
          "name": "tokenId",
          "type": "uint256"
        }
      ],
      "name": "seizeErc721",
      "outputs": [],
      "stateMutability": "nonpayable",
      "type": "function"
    },
    {
      "inputs": [],
      "name": "lastTimeRewardApplicable",
      "outputs": [
        {
          "internalType": "uint256",
          "name": "",
          "type": "uint256"
        }
      ],
      "stateMutability": "view",
      "type": "function",
      "constant": true
    },
    {
      "inputs": [],
      "name": "rewardPerToken",
      "outputs": [
        {
          "internalType": "uint256",
          "name": "",
          "type": "uint256"
        }
      ],
      "stateMutability": "view",
      "type": "function",
      "constant": true
    },
    {
      "inputs": [
        {
          "internalType": "address",
          "name": "account",
          "type": "address"
        }
      ],
      "name": "earned",
      "outputs": [
        {
          "internalType": "uint256",
          "name": "",
          "type": "uint256"
        }
      ],
      "stateMutability": "view",
      "type": "function",
      "constant": true
    },
    {
      "inputs": [
        {
          "internalType": "uint256",
          "name": "class",
          "type": "uint256"
        },
        {
          "internalType": "uint256",
          "name": "stakingPowa",
          "type": "uint256"
        }
      ],
      "name": "getMiningPowa",
      "outputs": [
        {
          "internalType": "uint256",
          "name": "",
          "type": "uint256"
        }
      ],
      "stateMutability": "pure",
      "type": "function",
      "constant": true
    },
    {
      "inputs": [
        {
          "internalType": "uint256",
          "name": "stakingPowa",
          "type": "uint256"
        }
      ],
      "name": "getClass",
      "outputs": [
        {
          "internalType": "uint256",
          "name": "",
          "type": "uint256"
        }
      ],
      "stateMutability": "view",
      "type": "function",
      "constant": true
    },
    {
      "inputs": [
        {
          "internalType": "uint256",
          "name": "nftId",
          "type": "uint256"
        },
        {
          "internalType": "uint256",
          "name": "stakingPowa",
          "type": "uint256"
        },
        {
          "internalType": "uint256",
          "name": "face_value",
          "type": "uint256"
        }
      ],
      "name": "stakeNFT",
      "outputs": [],
      "stateMutability": "nonpayable",
      "type": "function"
    },
    {
      "inputs": [
        {
          "internalType": "address",
          "name": "operator",
          "type": "address"
        },
        {
          "internalType": "address",
          "name": "from",
          "type": "address"
        },
        {
          "internalType": "uint256",
          "name": "tokenId",
          "type": "uint256"
        },
        {
          "internalType": "bytes",
          "name": "data",
          "type": "bytes"
        }
      ],
      "name": "onERC721Received",
      "outputs": [
        {
          "internalType": "bytes4",
          "name": "",
          "type": "bytes4"
        }
      ],
      "stateMutability": "nonpayable",
      "type": "function"
    },
    {
      "inputs": [
        {
          "internalType": "uint256",
          "name": "nftId",
          "type": "uint256"
        }
      ],
      "name": "withdrawNFT",
      "outputs": [],
      "stateMutability": "nonpayable",
      "type": "function"
    },
    {
      "inputs": [],
      "name": "withdraw",
      "outputs": [],
      "stateMutability": "nonpayable",
      "type": "function"
    },
    {
      "inputs": [
        {
          "internalType": "address",
          "name": "account",
          "type": "address"
        }
      ],
      "name": "getNftIds",
      "outputs": [
        {
          "internalType": "uint256[]",
          "name": "nftIds",
          "type": "uint256[]"
        }
      ],
      "stateMutability": "view",
      "type": "function",
      "constant": true
    },
    {
      "inputs": [],
      "name": "exit",
      "outputs": [],
      "stateMutability": "nonpayable",
      "type": "function"
    },
    {
      "inputs": [],
      "name": "getReward",
      "outputs": [],
      "stateMutability": "nonpayable",
      "type": "function"
    },
    {
      "inputs": [],
      "name": "getRemainTime",
      "outputs": [
        {
          "internalType": "uint256",
          "name": "",
          "type": "uint256"
        }
      ],
      "stateMutability": "view",
      "type": "function",
      "constant": true
    },
    {
      "inputs": [],
      "name": "startNFTReward",
      "outputs": [],
      "stateMutability": "nonpayable",
      "type": "function"
    },
    {
      "inputs": [
        {
          "internalType": "uint256",
          "name": "teamRewardRate",
          "type": "uint256"
        }
      ],
      "name": "setTeamRewardRate",
      "outputs": [],
      "stateMutability": "nonpayable",
      "type": "function"
    },
    {
      "inputs": [
        {
          "internalType": "uint256",
          "name": "dividendRate",
          "type": "uint256"
        }
      ],
      "name": "setDividenRate",
      "outputs": [],
      "stateMutability": "nonpayable",
      "type": "function"
    },
    {
      "inputs": [
        {
          "internalType": "uint256",
          "name": "penaltyRate",
          "type": "uint256"
        }
      ],
      "name": "setPenaltyRate",
      "outputs": [],
      "stateMutability": "nonpayable",
      "type": "function"
    },
    {
      "inputs": [
        {
          "internalType": "address",
          "name": "teamWallet",
          "type": "address"
        }
      ],
      "name": "setTeamWallet",
      "outputs": [],
      "stateMutability": "nonpayable",
      "type": "function"
    },
    {
      "inputs": [
        {
          "internalType": "address",
          "name": "dividendPool",
          "type": "address"
        }
      ],
      "name": "setDividenPool",
      "outputs": [],
      "stateMutability": "nonpayable",
      "type": "function"
    },
    {
      "inputs": [
        {
          "internalType": "address",
          "name": "cifiPool",
          "type": "address"
        }
      ],
      "name": "setCifiPool",
      "outputs": [],
      "stateMutability": "nonpayable",
      "type": "function"
    },
    {
      "inputs": [],
      "name": "totalPowa",
      "outputs": [
        {
          "internalType": "uint256",
          "name": "",
          "type": "uint256"
        }
      ],
      "stateMutability": "view",
      "type": "function",
      "constant": true
    },
    {
      "inputs": [
        {
          "internalType": "address",
          "name": "account",
          "type": "address"
        }
      ],
      "name": "balanceOf",
      "outputs": [
        {
          "internalType": "uint256",
          "name": "",
          "type": "uint256"
        }
      ],
      "stateMutability": "view",
      "type": "function",
      "constant": true
    },
    {
      "inputs": [
        {
          "internalType": "uint256",
          "name": "punishTime",
          "type": "uint256"
        }
      ],
      "name": "setWithDrawPunishTime",
      "outputs": [],
      "stateMutability": "nonpayable",
      "type": "function"
    }
  ],
  "bytecode": "0x6080604052600180546001600160a01b031990811690915560028054821690556003805482169055600480548216905560058054909116905565010d7a6a76006006556301e133804201600755600060088190556009556101f4600c819055600d819055600e55612710600f81905562093a806010556014805460ff191690556015819055601655680ad78ebc5ac6200000601d553480156100a057600080fd5b50604051612958380380612958833981810160405260408110156100c357600080fd5b508051602090910151600080546001600160a01b03199081163217909155600180546001600160a01b039485169083161790556002805493909216928116929092179055600380548216339081179091556004805483168217905560058054909216179055612821806101376000396000f3fe608060405234801561001057600080fd5b50600436106103a35760003560e01c806368fd25cd116101e9578063c459aa3b1161010f578063eb9253c0116100ad578063fc2615d51161007c578063fc2615d514610989578063fdd0499f14610991578063ff0123ef146109b4578063ffd832c1146109d1576103a3565b8063eb9253c014610930578063ed6525c41461095c578063efd8b78214610964578063fa1acb5c14610981576103a3565b8063dc099301116100e9578063dc099301146108e7578063e45a98dd14610904578063e70391ab14610920578063e9fad8ee14610928576103a3565b8063c459aa3b1461083d578063cd3daf9d14610869578063d060a67c14610871576103a3565b80638e26b01e116101875780639f3fbd2b116101565780639f3fbd2b146107c9578063a1bab447146107d1578063a7211ff8146107ee578063ab033ea914610817576103a3565b80638e26b01e1461077f578063927b26b9146107875780639a6b25a31461078f5780639dec91fe146107ac576103a3565b80637d6dfb7e116101c35780637d6dfb7e1461074157806380faa57d1461076757806388d7dfd71461076f578063893ff63914610777576103a3565b806368fd25cd1461070b5780636adafab51461071357806370a082311461071b576103a3565b806324c5f05e116102ce5780633d18b9121161026c57806356728e9d1161023b57806356728e9d146106735780635bc6466f14610699578063630ff776146106bf57806365d82b8a146106e5576103a3565b80633d18b9121461060b5780633f4e379814610613578063512d62df1461063957806353393e3514610656576103a3565b80633718e907116102a85780633718e907146105eb57806337e294d5146105f35780633a485c23146105fb5780633ccfd60b14610603576103a3565b806324c5f05e146105af578063252f7b49146105db57806335e213ea146105e3576103a3565b8063150b7a02116103465780631be05289116103155780631be05289146105715780631c2f3e3d146105795780631db17bbc1461058157806323343e6814610589576103a3565b8063150b7a02146104585780631525ff7d1461053b5780631580db911461056157806319e3e6ea14610569576103a3565b80631075642411610382578063107564241461041c578063121544b91461042457806312c058351461042c5780631407c66414610450576103a3565b80628cc262146103a8578063023245d7146103e05780630ba86f05146103ff575b600080fd5b6103ce600480360360208110156103be57600080fd5b50356001600160a01b03166109d9565b60408051918252519081900360200190f35b6103fd600480360360208110156103f657600080fd5b5035610a49565b005b6103fd6004803603602081101561041557600080fd5b5035610ef8565b6103fd610f4d565b6103ce611093565b610434611099565b604080516001600160a01b039092168252519081900360200190f35b6103ce6110a8565b61051e6004803603608081101561046e57600080fd5b6001600160a01b038235811692602081013590911691604082013591908101906080810160608201356401000000008111156104a957600080fd5b8201836020820111156104bb57600080fd5b803590602001918460018302840111640100000000831117156104dd57600080fd5b91908080601f0160208091040260200160405190810160405280939291908181526020018383808284376000920191909152509295506110ae945050505050565b604080516001600160e01b03199092168252519081900360200190f35b6103fd6004803603602081101561055157600080fd5b50356001600160a01b03166111b1565b6103ce611223565b6103ce611229565b6103ce61122f565b610434611236565b6103ce611245565b6103ce6004803603602081101561059f57600080fd5b50356001600160a01b031661124b565b6103fd600480360360408110156105c557600080fd5b506001600160a01b03813516906020013561125d565b6103ce61131e565b610434611324565b610434611333565b610434611342565b6103ce611351565b6103fd611357565b6103fd61149a565b6103ce6004803603602081101561062957600080fd5b50356001600160a01b0316611750565b6103ce6004803603602081101561064f57600080fd5b5035611762565b6103fd6004803603602081101561066c57600080fd5b50356118e8565b6103ce6004803603602081101561068957600080fd5b50356001600160a01b031661193d565b6103fd600480360360208110156106af57600080fd5b50356001600160a01b031661194f565b6103fd600480360360208110156106d557600080fd5b50356001600160a01b03166119c1565b6103ce600480360360208110156106fb57600080fd5b50356001600160a01b0316611a33565b6103ce611a45565b6103ce611a4b565b6103ce6004803603602081101561073157600080fd5b50356001600160a01b0316611a51565b6103ce6004803603602081101561075757600080fd5b50356001600160a01b0316611a6c565b6103ce611a7e565b610434611a92565b6103ce611aa1565b6103ce611aa7565b6103ce611aad565b6103fd600480360360208110156107a557600080fd5b5035611ab3565b6103ce600480360360208110156107c257600080fd5b5035611b08565b6103ce611b1a565b6103fd600480360360208110156107e757600080fd5b5035611b20565b6103fd6004803603606081101561080457600080fd5b5080359060208101359060400135611b75565b6103fd6004803603602081101561082d57600080fd5b50356001600160a01b0316611eb8565b6103ce6004803603604081101561085357600080fd5b506001600160a01b038135169060200135611fbe565b6103ce611fef565b6108976004803603602081101561088757600080fd5b50356001600160a01b031661203d565b60408051602080825283518183015283519192839290830191858101910280838360005b838110156108d35781810151838201526020016108bb565b505050509050019250505060405180910390f35b6103ce600480360360208110156108fd57600080fd5b50356120a9565b61090c6120bb565b604080519115158252519081900360200190f35b6103ce6120c4565b6103fd6120ca565b6103fd6004803603604081101561094657600080fd5b506001600160a01b0381351690602001356120dc565b6103ce6121ff565b6103fd6004803603602081101561097a57600080fd5b5035612205565b6103ce61225a565b6103ce612260565b6103ce600480360360408110156109a757600080fd5b508035906020013561227d565b6103ce600480360360208110156109ca57600080fd5b50356123f0565b6103ce612402565b6001600160a01b0381166000908152601260209081526040808320546011909252822054610a419190610a3b90670de0b6b3a764000090610a3590610a2690610a20611fef565b90612408565b610a2f88611a51565b90612465565b906124c5565b9061252c565b90505b919050565b33610a52611fef565b600b55610a5d611a7e565b600a556001600160a01b03811615610aa457610a78816109d9565b6001600160a01b038216600090815260126020908152604080832093909355600b546011909152919020555b6008544210610b0457610ac86064610a35603260065461246590919063ffffffff16565b6006819055600955610add426203f48061252c565b60085560065460408051918252516000805160206127ab8339815191529181900360200190a15b60145460ff161515600114610b4e576040805162461bcd60e51b815260206004820152600b60248201526a1b9bdd081cdd185c9d195960aa1b604482015290519081900360640190fd5b6007544211610b90576040805162461bcd60e51b81526020600482015260096024820152681b9bdd081cdd185c9d60ba1b604482015290519081900360640190fd5b60008211610bd7576040805162461bcd60e51b815260206004820152600f60248201526e3a34329037333a24b21032b93937b960891b604482015290519081900360640190fd5b336000908152601e6020908152604091829020805483518184028101840190945280845260609392830182828015610c2e57602002820191906000526020600020905b815481526020019060010190808311610c1a575b5050506000868152601f602052604090205483519394509286925084915083908110610c5657fe5b602002602001015114610ca2576040805162461bcd60e51b815260206004820152600f60248201526e3737ba1037333a24b21037bbb732b960891b604482015290519081900360640190fd5b6060600183510367ffffffffffffffff81118015610cbf57600080fd5b50604051908082528060200260200182016040528015610ce9578160200160208202803683370190505b5090506000805b8451811015610d795786858281518110610d0657fe5b602002602001015114610d715781601f6000878481518110610d2457fe5b6020026020010151815260200190815260200160002081905550848181518110610d4a57fe5b6020026020010151838380600101945081518110610d6457fe5b6020026020010181815250505b600101610cf0565b50336000908152601e602090815260409091208351610d9a9285019061274a565b50600086815260196020908152604080832054338452601890925290912054610dc39082612408565b33600090815260186020526040902055601754610de09082612408565b6017556000878152601a6020908152604080832054338452601c90925290912054610e0b9082612408565b336000908152601c6020526040902055601b54610e289082612408565b601b5560025460408051632142170760e11b8152306004820152336024820152604481018b905290516001600160a01b03909216916342842e0e9160648082019260009290919082900301818387803b158015610e8457600080fd5b505af1158015610e98573d6000803e3d6000fd5b5050506000898152601a60209081526040808320839055601982528083209290925581518b815291513393507f6f5ff198710d7a701fdb597ef28b78d66041e6d096918b8ccb5c6b8ef02da79f9281900390910190a25050505050505050565b6000546001600160a01b03163314610f48576040805162461bcd60e51b815260206004820152600e60248201526d6e6f7420676f7665726e616e636560901b604482015290519081900360640190fd5b600c55565b6000546001600160a01b03163314610f9d576040805162461bcd60e51b815260206004820152600e60248201526d6e6f7420676f7665726e616e636560901b604482015290519081900360640190fd5b6000610fa7611fef565b600b55610fb2611a7e565b600a556001600160a01b03811615610ff957610fcd816109d9565b6001600160a01b038216600090815260126020908152604080832093909355600b546011909152919020555b60145460ff161561103f576040805162461bcd60e51b815260206004820152600b60248201526a1a185cc81cdd185c9d195960aa1b604482015290519081900360640190fd5b6014805460ff19166001179055426007819055600654600955600a81905561106a906203f48061252c565b60085560065460408051918252516000805160206127ab8339815191529181900360200190a150565b600b5481565b6001546001600160a01b031681565b60085481565b60145460009060ff166110c3575060006111a9565b7f1d823cdc8f0514a95b53538df2d2f3deaf98d1c534c6e750daa593173c27f8f08585858560405180856001600160a01b03168152602001846001600160a01b0316815260200183815260200180602001828103825283818151815260200191508051906020019080838360005b83811015611149578181015183820152602001611131565b50505050905090810190601f1680156111765780820380516001836020036101000a031916815260200191505b509550505050505060405180910390a1507f150b7a023d4804d13e8c85fb27262cb750cf6ba9f9dd3bb30d90f482ceeb4b1f5b949350505050565b6000546001600160a01b03163314611201576040805162461bcd60e51b815260206004820152600e60248201526d6e6f7420676f7665726e616e636560901b604482015290519081900360640190fd5b600380546001600160a01b0319166001600160a01b0392909216919091179055565b60165481565b600e5481565b6203f48081565b6000546001600160a01b031681565b600d5481565b60186020526000908152604090205481565b6002546001600160a01b03838116911614156112ac576040805162461bcd60e51b81526020600482015260096024820152686e6674207374616b6560b81b604482015290519081900360640190fd5b6000805460408051632142170760e11b81523060048201526001600160a01b039283166024820152604481018590529051918516926342842e0e9260648084019382900301818387803b15801561130257600080fd5b505af1158015611316573d6000803e3d6000fd5b505050505050565b601b5481565b6005546001600160a01b031681565b6004546001600160a01b031681565b6003546001600160a01b031681565b60155481565b60145460ff1615156001146113a1576040805162461bcd60e51b815260206004820152600b60248201526a1b9bdd081cdd185c9d195960aa1b604482015290519081900360640190fd5b60075442116113e3576040805162461bcd60e51b81526020600482015260096024820152681b9bdd081cdd185c9d60ba1b604482015290519081900360640190fd5b336000908152601e602090815260409182902080548351818402810184019094528084526060939283018282801561143a57602002820191906000526020600020905b815481526020019060010190808311611426575b5050505050905060005b81518160ff161015611496576000828260ff168151811061146157fe5b6020026020010151111561148e5761148e828260ff168151811061148157fe5b6020026020010151610a49565b600101611444565b5050565b336114a3611fef565b600b556114ae611a7e565b600a556001600160a01b038116156114f5576114c9816109d9565b6001600160a01b038216600090815260126020908152604080832093909355600b546011909152919020555b6008544210611555576115196064610a35603260065461246590919063ffffffff16565b600681905560095561152e426203f48061252c565b60085560065460408051918252516000805160206127ab8339815191529181900360200190a15b60145460ff16151560011461159f576040805162461bcd60e51b815260206004820152600b60248201526a1b9bdd081cdd185c9d195960aa1b604482015290519081900360640190fd5b60075442116115e1576040805162461bcd60e51b81526020600482015260096024820152681b9bdd081cdd185c9d60ba1b604482015290519081900360640190fd5b60006115ec336109d9565b9050801561149657336000908152601260205260408120819055600f54600c5461161c9190610a35908590612465565b905061162781612586565b60006116338383612408565b6010543360009081526013602052604081205492935091014210156116705761166d600f54610a35600e548561246590919063ffffffff16565b90505b801561168c5761167f81612586565b6116898282612408565b91505b8115611713576001546040805163a9059cbb60e01b81523360048201526024810185905290516001600160a01b039092169163a9059cbb916044808201926020929091908290030181600087803b1580156116e657600080fd5b505af11580156116fa573d6000803e3d6000fd5b505050506040513d602081101561171057600080fd5b50505b60408051838152905133917fe2403640ba68fed3a2f88b7557551d1993f84b99bb10ff833f0cf8db0c5e0486919081900360200190a25050505050565b601c6020526000908152604090205481565b60006117816107d0610a356103e860165461246590919063ffffffff16565b82101561179057506001610a44565b816117ae6107d0610a356103e860165461246590919063ffffffff16565b111580156117d757506117d46107d0610a3561064060165461246590919063ffffffff16565b82105b156117e457506002610a44565b816118026107d0610a3561064060165461246590919063ffffffff16565b1115801561182b57506118286107d0610a3561070860165461246590919063ffffffff16565b82105b1561183857506003610a44565b816118566107d0610a3561070860165461246590919063ffffffff16565b1115801561187f575061187c6107d0610a356107bc60165461246590919063ffffffff16565b82105b1561188c57506004610a44565b816118aa6107d0610a356107bc60165461246590919063ffffffff16565b111580156118d357506118d06107d0610a356107cb60165461246590919063ffffffff16565b82105b156118e057506005610a44565b506006610a44565b6000546001600160a01b03163314611938576040805162461bcd60e51b815260206004820152600e60248201526d6e6f7420676f7665726e616e636560901b604482015290519081900360640190fd5b601d55565b60136020526000908152604090205481565b6000546001600160a01b0316331461199f576040805162461bcd60e51b815260206004820152600e60248201526d6e6f7420676f7665726e616e636560901b604482015290519081900360640190fd5b600580546001600160a01b0319166001600160a01b0392909216919091179055565b6000546001600160a01b03163314611a11576040805162461bcd60e51b815260206004820152600e60248201526d6e6f7420676f7665726e616e636560901b604482015290519081900360640190fd5b600480546001600160a01b0319166001600160a01b0392909216919091179055565b60116020526000908152604090205481565b60095481565b600a5481565b6001600160a01b031660009081526018602052604090205490565b60126020526000908152604090205481565b6000611a8c42600854612734565b90505b90565b6002546001600160a01b031681565b60175490565b601d5481565b600f5481565b6000546001600160a01b03163314611b03576040805162461bcd60e51b815260206004820152600e60248201526d6e6f7420676f7665726e616e636560901b604482015290519081900360640190fd5b601055565b601f6020526000908152604090205481565b60105481565b6000546001600160a01b03163314611b70576040805162461bcd60e51b815260206004820152600e60248201526d6e6f7420676f7665726e616e636560901b604482015290519081900360640190fd5b600e55565b33611b7e611fef565b600b55611b89611a7e565b600a556001600160a01b03811615611bd057611ba4816109d9565b6001600160a01b038216600090815260126020908152604080832093909355600b546011909152919020555b6008544210611c3057611bf46064610a35603260065461246590919063ffffffff16565b6006819055600955611c09426203f48061252c565b60085560065460408051918252516000805160206127ab8339815191529181900360200190a15b60145460ff161515600114611c7a576040805162461bcd60e51b815260206004820152600b60248201526a1b9bdd081cdd185c9d195960aa1b604482015290519081900360640190fd5b6007544211611cbc576040805162461bcd60e51b81526020600482015260096024820152681b9bdd081cdd185c9d60ba1b604482015290519081900360640190fd5b336000908152601e602090815260408083208054600181018255818552838520018890558054888552601f9093529083206000199092019091559080611d0186611762565b9050611d0d818761227d565b336000908152601c6020526040812054601d5492945091611d2e838961252c565b1115611d4657601d54611d419083612408565b611d48565b865b90508015611df457601554600090611d6490610a358785612465565b336000908152601c6020526040902054909150611d81908361252c565b336000908152601c6020908152604080832093909355601890522054611da7908261252c565b336000908152601860209081526040808320939093558c8252601a81528282208590556019905220819055601b54611ddf908361252c565b601b55601754611def908261252c565b601755505b60025460408051632142170760e11b8152336004820152306024820152604481018c905290516001600160a01b03909216916342842e0e9160648082019260009290919082900301818387803b158015611e4d57600080fd5b505af1158015611e61573d6000803e3d6000fd5b50503360008181526013602090815260409182902042905581518e815291519294507fa3a2f4924c244b65a4ecb0f6c615dc546a3510483f569d676ae4485f759d98d79350908290030190a2505050505050505050565b6000546001600160a01b03163314611f08576040805162461bcd60e51b815260206004820152600e60248201526d6e6f7420676f7665726e616e636560901b604482015290519081900360640190fd5b6001600160a01b038116611f63576040805162461bcd60e51b815260206004820152601f60248201527f6e657720676f7665726e616e636520746865207a65726f206164647265737300604482015290519081900360640190fd5b600080546040516001600160a01b03808516939216917f5f56bee8cffbe9a78652a74a60705edede02af10b0bbb888ca44b79a0d42ce8091a3600080546001600160a01b0319166001600160a01b0392909216919091179055565b601e6020528160005260406000208181548110611fda57600080fd5b90600052602060002001600091509150505481565b6000611ff9611aa1565b6120065750600b54611a8f565b611a8c612034612014611aa1565b610a35670de0b6b3a7640000610a2f600954610a2f600a54610a20611a7e565b600b549061252c565b6001600160a01b0381166000908152601e602090815260409182902080548351818402810184019094528084526060939283018282801561209d57602002820191906000526020600020905b815481526020019060010190808311612089575b50505050509050919050565b601a6020526000908152604090205481565b60145460ff1681565b60175481565b6120d2611357565b6120da61149a565b565b6000546001600160a01b0316331461212c576040805162461bcd60e51b815260206004820152600e60248201526d6e6f7420676f7665726e616e636560901b604482015290519081900360640190fd5b6001546001600160a01b0383811691161415612178576040805162461bcd60e51b81526020600482015260066024820152651c995dd85c9960d21b604482015290519081900360640190fd5b600080546040805163a9059cbb60e01b81526001600160a01b0392831660048201526024810185905290519185169263a9059cbb926044808401936020939083900390910190829087803b1580156121cf57600080fd5b505af11580156121e3573d6000803e3d6000fd5b505050506040513d60208110156121f957600080fd5b50505050565b600c5481565b6000546001600160a01b03163314612255576040805162461bcd60e51b815260206004820152600e60248201526d6e6f7420676f7665726e616e636560901b604482015290519081900360640190fd5b600d55565b60075481565b6000600854421061227357506000611a8f565b4260085403905090565b6000808311801561228e5750600783105b6122d2576040805162461bcd60e51b815260206004820152601060248201526f746865206e6674206e6f74204369666960801b604482015290519081900360640190fd5b600083600114156122fb57506113886127108302046122f381612af861252c565b9150506123ea565b836002141561232d57610bb861231384611388612408565b612710028161231e57fe5b0490506122f381612ee061252c565b836003141561235f576103e861234584611f40612408565b612710028161235057fe5b0490506122f3816132c861252c565b83600414156123915761038461237784612328612408565b613a98028161238257fe5b0490506122f3816136b061252c565b83600514156123c257604b6123a8846126ac612408565b613a9802816123b357fe5b0490506122f381613a9861252c565b60196123d0846126f7612408565b613a9802816123db57fe5b0490506122f38161465061252c565b92915050565b60196020526000908152604090205481565b60065481565b60008282111561245f576040805162461bcd60e51b815260206004820152601e60248201527f536166654d6174683a207375627472616374696f6e206f766572666c6f770000604482015290519081900360640190fd5b50900390565b600082612474575060006123ea565b8282028284828161248157fe5b04146124be5760405162461bcd60e51b81526004018080602001828103825260218152602001806127cb6021913960400191505060405180910390fd5b9392505050565b600080821161251b576040805162461bcd60e51b815260206004820152601a60248201527f536166654d6174683a206469766973696f6e206279207a65726f000000000000604482015290519081900360640190fd5b81838161252457fe5b049392505050565b6000828201838110156124be576040805162461bcd60e51b815260206004820152601b60248201527f536166654d6174683a206164646974696f6e206f766572666c6f770000000000604482015290519081900360640190fd5b600081116125cc576040805162461bcd60e51b815260206004820152600e60248201526d1a5b9d985b1a5908185b5bdd5b9d60921b604482015290519081900360640190fd5b60006125e9600c54610a35600d548561246590919063ffffffff16565b9050801561267857600154600480546040805163a9059cbb60e01b81526001600160a01b0392831693810193909352602483018590525192169163a9059cbb916044808201926020929091908290030181600087803b15801561264b57600080fd5b505af115801561265f573d6000803e3d6000fd5b505050506040513d602081101561267557600080fd5b50505b60006126a1600c54610a3561269a600d54600c5461240890919063ffffffff16565b8690612465565b9050801561272f576001546003546040805163a9059cbb60e01b81526001600160a01b039283166004820152602481018590529051919092169163a9059cbb9160448083019260209291908290030181600087803b15801561270257600080fd5b505af1158015612716573d6000803e3d6000fd5b505050506040513d602081101561272c57600080fd5b50505b505050565b600081831061274357816124be565b5090919050565b828054828255906000526020600020908101928215612785579160200282015b8281111561278557825182559160200191906001019061276a565b50612791929150612795565b5090565b5b80821115612791576000815560010161279656fede88a922e0d3b88b24e9623efeb464919c6bf9f66857a65e2bfcf2ce87a9433d536166654d6174683a206d756c7469706c69636174696f6e206f766572666c6f77a2646970667358221220a3bb1b5d379535f8b2d60772daf1b55feca9887df5e330ddc8be2bef7db7354264736f6c63430007040033",
  "immutableReferences": {},
  "source": "// SPDX-License-Identifier: MIT\r\npragma solidity ^0.7.4;\r\n\r\nimport \"@openzeppelin/contracts/math/Math.sol\";\r\nimport \"@openzeppelin/contracts/math/SafeMath.sol\";\r\nimport \"@openzeppelin/contracts/token/ERC721/IERC721.sol\";\r\n\r\nimport \"../library/Governance.sol\";\r\nimport \"../interface/IPool.sol\";\r\nimport \"../interface/ICifi_Token.sol\";\r\nimport \"../interface/INftAsset.sol\";\r\n\r\ncontract NftStaking is IPool, Governance {\r\n    using SafeMath for uint256;\r\n\r\n    ICifi_Token public _cifi = ICifi_Token(0x0);\r\n    INftAsset public _nftAsset = INftAsset(0x0);\r\n    address public _teamWallet = address(0x0);\r\n    address public _dividendPool = address(0x0);\r\n    address public _cifiPool = address(0x0);\r\n\r\n    uint256 public constant DURATION =  3 days; // 28 days;\r\n    uint256 public _initReward = 11574 * 1e8; //0.1 per day //173611 * 1e10; // 150 per day;\r\n    uint256 public _startTime = block.timestamp + 365 days;\r\n    uint256 public _periodFinish = 0;\r\n    uint256 public _rewardRate = 0;\r\n    uint256 public _lastUpdateTime;\r\n    uint256 public _rewardPerTokenStored;\r\n\r\n    uint256 public _teamRewardRate = 500;\r\n    uint256 public _LiquidityRate = 500; //400;\r\n    uint256 public _penaltyRate = 500;\r\n    uint256 public _baseRate = 10000;\r\n    uint256 public _punishTime = 7 days;\r\n\r\n    mapping(address => uint256) public _userRewardPerTokenPaid;\r\n    mapping(address => uint256) public _rewards;\r\n    mapping(address => uint256) public _lastStakedTime;\r\n\r\n    bool public _hasStart = false;\r\n    uint256 public _fixRateBase = 10000;\r\n\r\n    uint256 public _stakingPowaBase = 10000;\r\n    uint256 public _totalPowa;\r\n\r\n    mapping(address => uint256) public _powaBalances;\r\n    mapping(uint256 => uint256) public _powas;\r\n    mapping(uint256 => uint256) public _stakeBalances;\r\n\r\n    uint256 public _totalBalance;\r\n    mapping(address => uint256) public _faceValues;\r\n    uint256 public _maxStakedCifi = 200 * 1e18;\r\n\r\n    mapping(address => uint256[]) public _tokensOfUser;\r\n    mapping(uint256 => uint256) public _nftMapIndex;\r\n\r\n    event RewardAdded(uint256 reward);\r\n    event StakedNFT(address indexed user, uint256 amount);\r\n    event WithdrawnNFT(address indexed user, uint256 amount);\r\n    event RewardPaid(address indexed user, uint256 reward);\r\n    event NFTReceived(\r\n        address operator,\r\n        address from,\r\n        uint256 tokenId,\r\n        bytes data\r\n    );\r\n\r\n    constructor(\r\n        address cifi,\r\n        address nftAsset /*, address nftFactory*/\r\n    ) {\r\n        _cifi = ICifi_Token(cifi);\r\n        _nftAsset = INftAsset(nftAsset);\r\n        _teamWallet = msg.sender;\r\n        _dividendPool = msg.sender;\r\n        _cifiPool = msg.sender;\r\n    }\r\n\r\n    modifier updateReward(address account) {\r\n        _rewardPerTokenStored = rewardPerToken();\r\n        _lastUpdateTime = lastTimeRewardApplicable();\r\n        if (account != address(0)) {\r\n            _rewards[account] = earned(account);\r\n            _userRewardPerTokenPaid[account] = _rewardPerTokenStored;\r\n        }\r\n        _;\r\n    }\r\n\r\n    function setMaxStakedCifi(uint256 amount) external onlyGovernance {\r\n        _maxStakedCifi = amount;\r\n    }\r\n\r\n    /* Fee collection for any other token */\r\n    function seize(ICifi_Token token, uint256 amount) external onlyGovernance {\r\n        require(token != _cifi, \"reward\");\r\n        token.transfer(_governance, amount);\r\n    }\r\n\r\n    /* Fee collection for any other token */\r\n    function seizeErc721(IERC721 token, uint256 tokenId) external {\r\n        require(token != _nftAsset, \"nft stake\");\r\n        token.safeTransferFrom(address(this), _governance, tokenId);\r\n    }\r\n\r\n    function lastTimeRewardApplicable() public view returns (uint256) {\r\n        return Math.min(block.timestamp, _periodFinish);\r\n    }\r\n\r\n    function rewardPerToken() public view returns (uint256) {\r\n        if (totalPowa() == 0) {\r\n            return _rewardPerTokenStored;\r\n        }\r\n        return\r\n            _rewardPerTokenStored.add(\r\n                lastTimeRewardApplicable()\r\n                    .sub(_lastUpdateTime)\r\n                    .mul(_rewardRate)\r\n                    .mul(1e18)\r\n                    .div(totalPowa())\r\n            );\r\n    }\r\n\r\n    function earned(address account) public view returns (uint256) {\r\n        return\r\n            balanceOf(account)\r\n                .mul(rewardPerToken().sub(_userRewardPerTokenPaid[account]))\r\n                .div(1e18)\r\n                .add(_rewards[account]);\r\n    }\r\n\r\n    //the class is a number between 1-6\r\n    //the stakingPowa is a number between 1-10000\r\n    /*\r\n    1   stakingPowa\t1.1+ 1*stakingPowa/5000\r\n    2\tstakingPowa\t1.2+ 1*(stakingPowa-5000)/3000\r\n    3\tstakingPowa\t1.3+ 1*(stakingPowa-8000/1000\r\n    4\tstakingPowa\t1.4+ 1.5*(stakingPowa-9000)/900\r\n    5\tstakingPowa\t1.5+ 1.5*(stakingPowa-9900)/75\r\n    6\tstakingPowa\t1.6+ 1.5*(stakingPowa-9975)/25\r\n    */\r\n\r\n    function getMiningPowa(uint256 class, uint256 stakingPowa)\r\n        public\r\n        pure\r\n        returns (uint256)\r\n    {\r\n        require(class > 0 && class < 7, \"the nft not Cifi\");\r\n\r\n        uint256 unfold = 0;\r\n\r\n        if (class == 1) {\r\n            unfold = (stakingPowa * 10000) / 5000;\r\n            return unfold.add(11000);\r\n        } else if (class == 2) {\r\n            unfold = (stakingPowa.sub(5000) * 10000) / 3000;\r\n            return unfold.add(12000);\r\n        } else if (class == 3) {\r\n            unfold = (stakingPowa.sub(8000) * 10000) / 1000;\r\n            return unfold.add(13000);\r\n        } else if (class == 4) {\r\n            unfold = (stakingPowa.sub(9000) * 15000) / 900;\r\n            return unfold.add(14000);\r\n        } else if (class == 5) {\r\n            unfold = (stakingPowa.sub(9900) * 15000) / 75;\r\n            return unfold.add(15000);\r\n        } else {\r\n            unfold = (stakingPowa.sub(9975) * 15000) / 25;\r\n            return unfold.add(18000);\r\n        }\r\n    }\r\n\r\n    function getClass(uint256 stakingPowa) public view returns (uint256) {\r\n        if (stakingPowa < _stakingPowaBase.mul(1000).div(2000)) {\r\n            return 1;\r\n        } else if (\r\n            _stakingPowaBase.mul(1000).div(2000) <= stakingPowa &&\r\n            stakingPowa < _stakingPowaBase.mul(1600).div(2000)\r\n        ) {\r\n            return 2;\r\n        } else if (\r\n            _stakingPowaBase.mul(1600).div(2000) <= stakingPowa &&\r\n            stakingPowa < _stakingPowaBase.mul(1800).div(2000)\r\n        ) {\r\n            return 3;\r\n        } else if (\r\n            _stakingPowaBase.mul(1800).div(2000) <= stakingPowa &&\r\n            stakingPowa < _stakingPowaBase.mul(1980).div(2000)\r\n        ) {\r\n            return 4;\r\n        } else if (\r\n            _stakingPowaBase.mul(1980).div(2000) <= stakingPowa &&\r\n            stakingPowa < _stakingPowaBase.mul(1995).div(2000)\r\n        ) {\r\n            return 5;\r\n        } else {\r\n            return 6;\r\n        }\r\n    }\r\n\r\n    function getRarity(uint256 class) internal pure returns (uint256 rarity) {\r\n        if (class == 1) {\r\n            rarity = 5000;\r\n        } else if (class == 2) {\r\n            rarity = 3000;\r\n        } else if (class == 3) {\r\n            rarity = 1000;\r\n        } else if (class == 4) {\r\n            rarity = 900;\r\n        } else if (class == 5) {\r\n            rarity = 75;\r\n        } else {\r\n            rarity = 25;\r\n        }\r\n    }\r\n\r\n    // stake NFT\r\n    function stakeNFT(\r\n        uint256 nftId,\r\n        uint256 stakingPowa,\r\n        uint256 face_value\r\n    ) public updateReward(msg.sender) checkHalve checkStart {\r\n        uint256[] storage nftIds = _tokensOfUser[msg.sender];\r\n\r\n        nftIds.push(nftId);\r\n        _nftMapIndex[nftId] = nftIds.length - 1;\r\n\r\n        uint256 miningPowa;\r\n        uint256 class;\r\n        class = getClass(stakingPowa);\r\n        miningPowa = getMiningPowa(class, stakingPowa);\r\n\r\n        uint256 stakedface_value = _faceValues[msg.sender];\r\n        uint256 stakingface_value = stakedface_value.add(face_value) <=\r\n            _maxStakedCifi\r\n            ? face_value\r\n            : _maxStakedCifi.sub(stakedface_value);\r\n\r\n        if (stakingface_value > 0) {\r\n            uint256 stake_powa = miningPowa.mul(stakingface_value).div(\r\n                _fixRateBase\r\n            );\r\n            _faceValues[msg.sender] = _faceValues[msg.sender].add(\r\n                stakingface_value\r\n            );\r\n\r\n            _powaBalances[msg.sender] = _powaBalances[msg.sender].add(\r\n                stake_powa\r\n            );\r\n\r\n            _stakeBalances[nftId] = stakingface_value;\r\n            _powas[nftId] = stake_powa;\r\n\r\n            _totalBalance = _totalBalance.add(stakingface_value);\r\n            _totalPowa = _totalPowa.add(stake_powa);\r\n        }\r\n\r\n        _nftAsset.safeTransferFrom(msg.sender, address(this), nftId);\r\n\r\n        _lastStakedTime[msg.sender] = block.timestamp;\r\n        emit StakedNFT(msg.sender, nftId);\r\n    }\r\n\r\n    function onERC721Received(\r\n        address operator,\r\n        address from,\r\n        uint256 tokenId,\r\n        bytes memory data\r\n    ) public returns (bytes4) {\r\n        if (_hasStart == false) {\r\n            return 0;\r\n        }\r\n\r\n        emit NFTReceived(operator, from, tokenId, data);\r\n        return\r\n            bytes4(\r\n                keccak256(\"onERC721Received(address,address,uint256,bytes)\")\r\n            );\r\n    }\r\n\r\n    function withdrawNFT(uint256 nftId)\r\n        public\r\n        updateReward(msg.sender)\r\n        checkHalve\r\n        checkStart\r\n    {\r\n        require(nftId > 0, \"the nftId error\");\r\n\r\n        uint256[] memory nftIds = _tokensOfUser[msg.sender];\r\n        uint256 nftIndex = _nftMapIndex[nftId];\r\n\r\n        require(nftIds[nftIndex] == nftId, \"not nftId owner\");\r\n\r\n        uint256[] memory newIds = new uint256[](nftIds.length - 1);\r\n        uint256 j = 0;\r\n        for (uint256 i = 0; i < nftIds.length; i++) {\r\n            if (nftIds[i] != nftId) {\r\n                _nftMapIndex[nftIds[i]] = j;\r\n                newIds[j++] = (nftIds[i]);\r\n            }\r\n        }\r\n        _tokensOfUser[msg.sender] = newIds;\r\n\r\n        uint256 stake_powa = _powas[nftId];\r\n        _powaBalances[msg.sender] = _powaBalances[msg.sender].sub(stake_powa);\r\n        _totalPowa = _totalPowa.sub(stake_powa);\r\n\r\n        uint256 stakeBalance = _stakeBalances[nftId];\r\n        _faceValues[msg.sender] = _faceValues[msg.sender].sub(stakeBalance);\r\n        _totalBalance = _totalBalance.sub(stakeBalance);\r\n\r\n        _nftAsset.safeTransferFrom(address(this), msg.sender, nftId);\r\n\r\n        _stakeBalances[nftId] = 0;\r\n        _powas[nftId] = 0;\r\n\r\n        emit WithdrawnNFT(msg.sender, nftId);\r\n    }\r\n\r\n    function withdraw() public checkStart {\r\n        uint256[] memory nftIds = _tokensOfUser[msg.sender];\r\n        for (uint8 index = 0; index < nftIds.length; index++) {\r\n            if (nftIds[index] > 0) {\r\n                withdrawNFT(nftIds[index]);\r\n            }\r\n        }\r\n    }\r\n\r\n    function getNftIds(address account)\r\n        public\r\n        view\r\n        returns (uint256[] memory nftIds)\r\n    {\r\n        nftIds = _tokensOfUser[account];\r\n    }\r\n\r\n    function exit() external {\r\n        withdraw();\r\n        getReward();\r\n    }\r\n\r\n    function divideDeduction(uint256 amount) internal {\r\n        require(amount > 0, \"invalid amount\");\r\n        uint256 dividendReward = amount.mul(_LiquidityRate).div(_teamRewardRate);\r\n        if (dividendReward > 0) {\r\n            _cifi.transfer(_dividendPool, dividendReward);\r\n        }\r\n        uint256 teamReward = amount.mul(_teamRewardRate.sub(_LiquidityRate)).div(\r\n            _teamRewardRate\r\n        );\r\n        if (teamReward > 0) {\r\n            _cifi.transfer(_teamWallet, teamReward);\r\n        }\r\n    }\r\n\r\n    function getReward() public updateReward(msg.sender) checkHalve checkStart {\r\n        uint256 reward = earned(msg.sender);\r\n        if (reward > 0) {\r\n            _rewards[msg.sender] = 0;\r\n\r\n            uint256 harvestReward = reward.mul(_teamRewardRate).div(_baseRate);\r\n            divideDeduction(harvestReward);\r\n            uint256 leftReward = reward.sub(harvestReward);\r\n            uint256 penaltyReward = 0;\r\n\r\n            //withdraw time check\r\n\r\n            if (block.timestamp < (_lastStakedTime[msg.sender] + _punishTime)) {\r\n                penaltyReward = leftReward.mul(_penaltyRate).div(_baseRate);\r\n            }\r\n            if (penaltyReward > 0) {\r\n                divideDeduction(penaltyReward);\r\n                leftReward = leftReward.sub(penaltyReward);\r\n            }\r\n\r\n            if (leftReward > 0) {\r\n                _cifi.transfer(msg.sender, leftReward);\r\n            }\r\n\r\n            emit RewardPaid(msg.sender, leftReward);\r\n        }\r\n    }\r\n\r\n    modifier checkHalve() {\r\n        if (block.timestamp >= _periodFinish) {\r\n            _initReward = _initReward.mul(50).div(100);\r\n\r\n            // _cifi.transferFrom(_cifiPool, address(this), _initReward);\r\n\r\n            _rewardRate = _initReward;\r\n            _periodFinish = block.timestamp.add(DURATION);\r\n            emit RewardAdded(_initReward);\r\n        }\r\n        _;\r\n    }\r\n\r\n    modifier checkStart() {\r\n        require(_hasStart == true, \"not started\");\r\n        require(block.timestamp > _startTime, \"not start\");\r\n        _;\r\n    }\r\n\r\n    function getRemainTime() public view returns (uint256) {\r\n        if (block.timestamp >= _periodFinish) {\r\n            return 0;\r\n        }\r\n        return _periodFinish - block.timestamp;\r\n    }\r\n\r\n    // set fix time to start reward\r\n    function startNFTReward() external onlyGovernance updateReward(address(0)) {\r\n        require(_hasStart == false, \"has started\");\r\n        _hasStart = true;\r\n\r\n        _startTime = block.timestamp;\r\n\r\n        _rewardRate = _initReward;\r\n        // _cifi.transferFrom(_cifiPool, address(this), _initReward);\r\n\r\n        _lastUpdateTime = _startTime;\r\n        _periodFinish = _startTime.add(DURATION);\r\n\r\n        emit RewardAdded(_initReward);\r\n    }\r\n\r\n    function setTeamRewardRate(uint256 teamRewardRate) public onlyGovernance {\r\n        _teamRewardRate = teamRewardRate;\r\n    }\r\n\r\n    function setDividenRate(uint256 dividendRate) public onlyGovernance {\r\n        _LiquidityRate = dividendRate;\r\n    }\r\n\r\n    function setPenaltyRate(uint256 penaltyRate) public onlyGovernance {\r\n        _penaltyRate = penaltyRate;\r\n    }\r\n\r\n    function setTeamWallet(address teamWallet) public onlyGovernance {\r\n        _teamWallet = teamWallet;\r\n    }\r\n\r\n    function setDividenPool(address dividendPool) public onlyGovernance {\r\n        _dividendPool = dividendPool;\r\n    }\r\n\r\n    function setCifiPool(address cifiPool) public onlyGovernance {\r\n        _cifiPool = cifiPool;\r\n    }\r\n    function totalPowa() public view override returns (uint256) {\r\n        return _totalPowa;\r\n    }\r\n\r\n    function balanceOf(address account) public view override returns (uint256) {\r\n        return _powaBalances[account];\r\n    }\r\n\r\n    function setWithDrawPunishTime(uint256 punishTime) public onlyGovernance {\r\n        _punishTime = punishTime;\r\n    }\r\n}\r\n",
  "sourcePath": "F:\\citizen\\depoly\\santafeapp\\src\\contracts\\reward\\NftStaking.sol",
  "compiler": {
    "name": "solc",
    "version": "0.7.4+commit.3f05b770.Emscripten.clang"
  },
  "schemaVersion": "3.4.2",
  "updatedAt": "2021-09-24T09:02:50.867Z",
  "networkType": "ethereum",
  "devdoc": {
    "kind": "dev",
    "methods": {},
    "version": 1
  },
  "userdoc": {
    "kind": "user",
    "methods": {},
    "version": 1
  }
}