{
  "contractName": "SantaFactory2V2",
  "abi": [
    {
      "inputs": [
        {
          "internalType": "address",
          "name": "cifi",
          "type": "address"
        },
        {
          "internalType": "address",
          "name": "vrfCoordinator",
          "type": "address"
        },
        {
          "internalType": "address",
          "name": "linkToken",
          "type": "address"
        },
        {
          "internalType": "bytes32",
          "name": "linkKeyHash",
          "type": "bytes32"
        },
        {
          "internalType": "uint256",
          "name": "linkFee",
          "type": "uint256"
        }
      ],
      "stateMutability": "nonpayable",
      "type": "constructor"
    },
    {
      "anonymous": false,
      "inputs": [
        {
          "indexed": true,
          "internalType": "address",
          "name": "previousOwner",
          "type": "address"
        },
        {
          "indexed": true,
          "internalType": "address",
          "name": "newOwner",
          "type": "address"
        }
      ],
      "name": "GovernanceTransferred",
      "type": "event"
    },
    {
      "anonymous": false,
      "inputs": [
        {
          "indexed": false,
          "internalType": "string",
          "name": "name",
          "type": "string"
        },
        {
          "indexed": false,
          "internalType": "string",
          "name": "symbol",
          "type": "string"
        },
        {
          "indexed": false,
          "internalType": "address",
          "name": "acceptedToken",
          "type": "address"
        },
        {
          "indexed": false,
          "internalType": "address",
          "name": "santa",
          "type": "address"
        },
        {
          "indexed": false,
          "internalType": "uint256",
          "name": "maxCount",
          "type": "uint256"
        }
      ],
      "name": "SantaV2Created",
      "type": "event"
    },
    {
      "anonymous": false,
      "inputs": [
        {
          "indexed": false,
          "internalType": "address",
          "name": "santa",
          "type": "address"
        },
        {
          "indexed": true,
          "internalType": "uint256",
          "name": "id",
          "type": "uint256"
        },
        {
          "indexed": false,
          "internalType": "address",
          "name": "author",
          "type": "address"
        },
        {
          "indexed": false,
          "internalType": "uint256",
          "name": "face_value",
          "type": "uint256"
        }
      ],
      "name": "SantaV2NFTAdded",
      "type": "event"
    },
    {
      "inputs": [],
      "name": "_feeAccount",
      "outputs": [
        {
          "internalType": "address",
          "name": "",
          "type": "address"
        }
      ],
      "stateMutability": "view",
      "type": "function"
    },
    {
      "inputs": [],
      "name": "_feeAmount",
      "outputs": [
        {
          "internalType": "uint256",
          "name": "",
          "type": "uint256"
        }
      ],
      "stateMutability": "view",
      "type": "function"
    },
    {
      "inputs": [],
      "name": "_governance",
      "outputs": [
        {
          "internalType": "address",
          "name": "",
          "type": "address"
        }
      ],
      "stateMutability": "view",
      "type": "function"
    },
    {
      "inputs": [
        {
          "internalType": "uint256",
          "name": "",
          "type": "uint256"
        }
      ],
      "name": "_names",
      "outputs": [
        {
          "internalType": "string",
          "name": "",
          "type": "string"
        }
      ],
      "stateMutability": "view",
      "type": "function"
    },
    {
      "inputs": [
        {
          "internalType": "address",
          "name": "",
          "type": "address"
        },
        {
          "internalType": "uint256",
          "name": "",
          "type": "uint256"
        }
      ],
      "name": "_santas",
      "outputs": [
        {
          "internalType": "address",
          "name": "santa",
          "type": "address"
        },
        {
          "internalType": "uint256",
          "name": "id",
          "type": "uint256"
        },
        {
          "internalType": "uint256",
          "name": "face_value",
          "type": "uint256"
        },
        {
          "internalType": "uint256",
          "name": "createdTime",
          "type": "uint256"
        }
      ],
      "stateMutability": "view",
      "type": "function"
    },
    {
      "inputs": [
        {
          "internalType": "bytes32",
          "name": "requestId",
          "type": "bytes32"
        },
        {
          "internalType": "uint256",
          "name": "randomness",
          "type": "uint256"
        }
      ],
      "name": "rawFulfillRandomness",
      "outputs": [],
      "stateMutability": "nonpayable",
      "type": "function"
    },
    {
      "inputs": [
        {
          "internalType": "bytes32",
          "name": "",
          "type": "bytes32"
        }
      ],
      "name": "requestIdToFaceValue",
      "outputs": [
        {
          "internalType": "uint256",
          "name": "",
          "type": "uint256"
        }
      ],
      "stateMutability": "view",
      "type": "function"
    },
    {
      "inputs": [
        {
          "internalType": "bytes32",
          "name": "",
          "type": "bytes32"
        }
      ],
      "name": "requestIdToMinter",
      "outputs": [
        {
          "internalType": "address",
          "name": "",
          "type": "address"
        }
      ],
      "stateMutability": "view",
      "type": "function"
    },
    {
      "inputs": [
        {
          "internalType": "bytes32",
          "name": "",
          "type": "bytes32"
        }
      ],
      "name": "requestIdToSanta",
      "outputs": [
        {
          "internalType": "address",
          "name": "",
          "type": "address"
        }
      ],
      "stateMutability": "view",
      "type": "function"
    },
    {
      "inputs": [
        {
          "internalType": "address",
          "name": "governance",
          "type": "address"
        }
      ],
      "name": "setGovernance",
      "outputs": [],
      "stateMutability": "nonpayable",
      "type": "function"
    },
    {
      "inputs": [
        {
          "internalType": "string",
          "name": "name",
          "type": "string"
        },
        {
          "internalType": "string",
          "name": "symbol",
          "type": "string"
        },
        {
          "internalType": "string",
          "name": "baseURI",
          "type": "string"
        },
        {
          "internalType": "address",
          "name": "acceptedToken",
          "type": "address"
        },
        {
          "internalType": "uint256",
          "name": "maxNftCount",
          "type": "uint256"
        }
      ],
      "name": "createSanta",
      "outputs": [
        {
          "internalType": "address",
          "name": "",
          "type": "address"
        }
      ],
      "stateMutability": "nonpayable",
      "type": "function"
    },
    {
      "inputs": [],
      "name": "getContractNames",
      "outputs": [
        {
          "internalType": "string[]",
          "name": "",
          "type": "string[]"
        }
      ],
      "stateMutability": "view",
      "type": "function"
    },
    {
      "inputs": [
        {
          "internalType": "string",
          "name": "name",
          "type": "string"
        }
      ],
      "name": "getContractData",
      "outputs": [
        {
          "internalType": "address",
          "name": "acceptedToken",
          "type": "address"
        },
        {
          "internalType": "uint256",
          "name": "maxCount",
          "type": "uint256"
        },
        {
          "internalType": "address",
          "name": "santa",
          "type": "address"
        }
      ],
      "stateMutability": "view",
      "type": "function"
    },
    {
      "inputs": [
        {
          "internalType": "address",
          "name": "santa",
          "type": "address"
        },
        {
          "internalType": "uint256",
          "name": "tokenId",
          "type": "uint256"
        }
      ],
      "name": "getFaceValue",
      "outputs": [
        {
          "internalType": "uint256",
          "name": "",
          "type": "uint256"
        }
      ],
      "stateMutability": "view",
      "type": "function"
    },
    {
      "inputs": [
        {
          "internalType": "address",
          "name": "cifi",
          "type": "address"
        }
      ],
      "name": "setCifiContract",
      "outputs": [],
      "stateMutability": "nonpayable",
      "type": "function"
    },
    {
      "inputs": [
        {
          "internalType": "address",
          "name": "newFeeAccount",
          "type": "address"
        }
      ],
      "name": "ChangeFeeAccount",
      "outputs": [
        {
          "internalType": "bool",
          "name": "",
          "type": "bool"
        }
      ],
      "stateMutability": "nonpayable",
      "type": "function"
    },
    {
      "inputs": [
        {
          "internalType": "uint256",
          "name": "newFeeAmount",
          "type": "uint256"
        }
      ],
      "name": "ChangeFeeAmount",
      "outputs": [
        {
          "internalType": "bool",
          "name": "",
          "type": "bool"
        }
      ],
      "stateMutability": "nonpayable",
      "type": "function"
    },
    {
      "inputs": [
        {
          "internalType": "address",
          "name": "santa",
          "type": "address"
        },
        {
          "internalType": "uint256",
          "name": "face_value",
          "type": "uint256"
        }
      ],
      "name": "mint",
      "outputs": [
        {
          "internalType": "bytes32",
          "name": "",
          "type": "bytes32"
        }
      ],
      "stateMutability": "nonpayable",
      "type": "function"
    },
    {
      "inputs": [
        {
          "internalType": "address",
          "name": "santa",
          "type": "address"
        },
        {
          "internalType": "uint256",
          "name": "tokenId",
          "type": "uint256"
        }
      ],
      "name": "retrieveToken",
      "outputs": [
        {
          "internalType": "bool",
          "name": "",
          "type": "bool"
        }
      ],
      "stateMutability": "nonpayable",
      "type": "function"
    },
    {
      "inputs": [
        {
          "internalType": "address",
          "name": "santa",
          "type": "address"
        },
        {
          "internalType": "uint256",
          "name": "tokenId",
          "type": "uint256"
        }
      ],
      "name": "burn",
      "outputs": [
        {
          "internalType": "bool",
          "name": "",
          "type": "bool"
        }
      ],
      "stateMutability": "nonpayable",
      "type": "function"
    },
    {
      "inputs": [
        {
          "internalType": "address",
          "name": "",
          "type": "address"
        },
        {
          "internalType": "address",
          "name": "",
          "type": "address"
        },
        {
          "internalType": "uint256",
          "name": "",
          "type": "uint256"
        },
        {
          "internalType": "bytes",
          "name": "",
          "type": "bytes"
        }
      ],
      "name": "onERC721Received",
      "outputs": [
        {
          "internalType": "bytes4",
          "name": "",
          "type": "bytes4"
        }
      ],
      "stateMutability": "nonpayable",
      "type": "function"
    }
  ],
  "bytecode": "0x60c06040526000600660006101000a81548173ffffffffffffffffffffffffffffffffffffffff021916908373ffffffffffffffffffffffffffffffffffffffff1602179055506000600760006101000a81548173ffffffffffffffffffffffffffffffffffffffff021916908373ffffffffffffffffffffffffffffffffffffffff160217905550600060085560006009556000600a55348015620000a457600080fd5b5060405162008e5c38038062008e5c8339818101604052810190620000ca91906200026b565b8383326000806101000a81548173ffffffffffffffffffffffffffffffffffffffff021916908373ffffffffffffffffffffffffffffffffffffffff1602179055508173ffffffffffffffffffffffffffffffffffffffff1660a08173ffffffffffffffffffffffffffffffffffffffff1660601b815250508073ffffffffffffffffffffffffffffffffffffffff1660808173ffffffffffffffffffffffffffffffffffffffff1660601b81525050505084600660006101000a81548173ffffffffffffffffffffffffffffffffffffffff021916908373ffffffffffffffffffffffffffffffffffffffff16021790555033600760006101000a81548173ffffffffffffffffffffffffffffffffffffffff021916908373ffffffffffffffffffffffffffffffffffffffff160217905550670de0b6b3a76400006008819055508060098190555081600a81905550505050505062000383565b600081519050620002378162000335565b92915050565b6000815190506200024e816200034f565b92915050565b600081519050620002658162000369565b92915050565b600080600080600060a086880312156200028457600080fd5b6000620002948882890162000226565b9550506020620002a78882890162000226565b9450506040620002ba8882890162000226565b9350506060620002cd888289016200023d565b9250506080620002e08882890162000254565b9150509295509295909350565b6000620002fa826200030b565b9050919050565b6000819050919050565b600073ffffffffffffffffffffffffffffffffffffffff82169050919050565b6000819050919050565b6200034081620002ed565b81146200034c57600080fd5b50565b6200035a8162000301565b81146200036657600080fd5b50565b62000374816200032b565b81146200038057600080fd5b50565b60805160601c60a05160601c618aa5620003b7600039806118495280612867525080610be6528061282b5250618aa56000f3fe60806040523480156200001157600080fd5b5060043610620001545760003560e01c806394985ddd11620000c9578063ca62a0991162000087578063ca62a0991462000407578063d8b917dc1462000429578063dd146bb4146200045f578063e6952b5f1462000495578063ee9e756e14620004cb578063ffc5dd5f14620005015762000154565b806394985ddd14620003255780639dc29fac1462000345578063a617e758146200037b578063ab033ea914620003b1578063c548e76114620003d15762000154565b806340c10f19116200011757806340c10f1914620002295780635963bc01146200025f5780635a9e497d14620002975780635c511fe214620002b95780637cf4141214620002ef5762000154565b8063150b7a0214620001595780631c2f3e3d146200018f57806325c5aa0614620001b157806337df1e9d14620001e75780633f84561f1462000209575b600080fd5b62000177600480360381019062000171919062003356565b6200053a565b60405162000186919062003eb0565b60405180910390f35b620001996200054e565b604051620001a8919062003cba565b60405180910390f35b620001cf6004803603810190620001c99190620035c7565b62000572565b604051620001de919062003ecd565b60405180910390f35b620001f162000633565b60405162000200919062003e52565b60405180910390f35b620002276004803603810190620002219190620032fe565b62000722565b005b620002476004803603810190620002419190620033db565b62000828565b60405162000256919062003e93565b60405180910390f35b6200027d6004803603810190620002779190620034b5565b62000ff2565b6040516200028e9392919062003dc8565b60405180910390f35b620002a162001178565b604051620002b091906200418a565b60405180910390f35b620002d76004803603810190620002d19190620033db565b6200117e565b604051620002e6919062003e76565b60405180910390f35b6200030d600480360381019062000307919062003448565b62001814565b6040516200031c919062003cba565b60405180910390f35b6200034360048036038101906200033d919062003474565b62001847565b005b6200036360048036038101906200035d9190620033db565b62001919565b60405162000372919062003e76565b60405180910390f35b620003996004803603810190620003939190620033db565b62001e04565b604051620003a891906200418a565b60405180910390f35b620003cf6004803603810190620003c99190620032fe565b62001eef565b005b620003ef6004803603810190620003e99190620032fe565b62002112565b604051620003fe919062003e76565b60405180910390f35b6200041162002221565b60405162000420919062003cba565b60405180910390f35b620004476004803603810190620004419190620034fa565b62002247565b60405162000456919062003cba565b60405180910390f35b6200047d600480360381019062000477919062003448565b620026aa565b6040516200048c919062003cba565b60405180910390f35b620004b36004803603810190620004ad919062003448565b620026dd565b604051620004c291906200418a565b60405180910390f35b620004e96004803603810190620004e39190620035c7565b620026f5565b604051620004f8919062003e76565b60405180910390f35b6200051f6004803603810190620005199190620033db565b620027ca565b60405162000531949392919062003e05565b60405180910390f35b600063150b7a0260e01b9050949350505050565b60008054906101000a900473ffffffffffffffffffffffffffffffffffffffff1681565b600381815481106200058357600080fd5b906000526020600020016000915090508054600181600116156101000203166002900480601f0160208091040260200160405190810160405280929190818152602001828054600181600116156101000203166002900480156200062b5780601f10620005ff576101008083540402835291602001916200062b565b820191906000526020600020905b8154815290600101906020018083116200060d57829003601f168201915b505050505081565b60606003805480602002602001604051908101604052809291908181526020016000905b8282101562000719578382906000526020600020018054600181600116156101000203166002900480601f016020809104026020016040519081016040528092919081815260200182805460018160011615610100020316600290048015620007045780601f10620006d85761010080835404028352916020019162000704565b820191906000526020600020905b815481529060010190602001808311620006e657829003601f168201915b50505050508152602001906001019062000657565b50505050905090565b60008054906101000a900473ffffffffffffffffffffffffffffffffffffffff1673ffffffffffffffffffffffffffffffffffffffff163373ffffffffffffffffffffffffffffffffffffffff1614620007e4576040517f08c379a000000000000000000000000000000000000000000000000000000000815260040180806020018281038252600e8152602001807f6e6f7420676f7665726e616e636500000000000000000000000000000000000081525060200191505060405180910390fd5b80600660006101000a81548173ffffffffffffffffffffffffffffffffffffffff021916908373ffffffffffffffffffffffffffffffffffffffff16021790555050565b6000620008346200306d565b600460008573ffffffffffffffffffffffffffffffffffffffff1673ffffffffffffffffffffffffffffffffffffffff1681526020019081526020016000206040518060600160405290816000820160009054906101000a900473ffffffffffffffffffffffffffffffffffffffff1673ffffffffffffffffffffffffffffffffffffffff1673ffffffffffffffffffffffffffffffffffffffff168152602001600182015481526020016002820160009054906101000a900473ffffffffffffffffffffffffffffffffffffffff1673ffffffffffffffffffffffffffffffffffffffff1673ffffffffffffffffffffffffffffffffffffffff16815250509050600083116200097c576040517f08c379a0000000000000000000000000000000000000000000000000000000008152600401620009739062004014565b60405180910390fd5b600073ffffffffffffffffffffffffffffffffffffffff16816040015173ffffffffffffffffffffffffffffffffffffffff1614158015620009ed57508373ffffffffffffffffffffffffffffffffffffffff16816040015173ffffffffffffffffffffffffffffffffffffffff16145b62000a2f576040517f08c379a000000000000000000000000000000000000000000000000000000000815260040162000a26906200409c565b60405180910390fd5b82816000015173ffffffffffffffffffffffffffffffffffffffff1663dd62ed3e33306040518363ffffffff1660e01b815260040162000a7192919062003cf4565b60206040518083038186803b15801562000a8a57600080fd5b505afa15801562000a9f573d6000803e3d6000fd5b505050506040513d601f19601f8201168201806040525081019062000ac59190620035f3565b101562000b09576040517f08c379a000000000000000000000000000000000000000000000000000000000815260040162000b009062003ff2565b60405180910390fd5b82816000015173ffffffffffffffffffffffffffffffffffffffff166370a08231336040518263ffffffff1660e01b815260040162000b49919062003cd7565b60206040518083038186803b15801562000b6257600080fd5b505afa15801562000b77573d6000803e3d6000fd5b505050506040513d601f19601f8201168201806040525081019062000b9d9190620035f3565b101562000be1576040517f08c379a000000000000000000000000000000000000000000000000000000000815260040162000bd8906200407a565b60405180910390fd5b6009547f000000000000000000000000000000000000000000000000000000000000000073ffffffffffffffffffffffffffffffffffffffff166370a08231306040518263ffffffff1660e01b815260040162000c3f919062003cba565b60206040518083038186803b15801562000c5857600080fd5b505afa15801562000c6d573d6000803e3d6000fd5b505050506040513d601f19601f8201168201806040525081019062000c939190620035f3565b101562000cd7576040517f08c379a000000000000000000000000000000000000000000000000000000000815260040162000cce9062004168565b60405180910390fd5b80602001518473ffffffffffffffffffffffffffffffffffffffff166318160ddd6040518163ffffffff1660e01b815260040160206040518083038186803b15801562000d2357600080fd5b505afa15801562000d38573d6000803e3d6000fd5b505050506040513d601f19601f8201168201806040525081019062000d5e9190620035f3565b1062000da1576040517f08c379a000000000000000000000000000000000000000000000000000000000815260040162000d989062004124565b60405180910390fd5b600660009054906101000a900473ffffffffffffffffffffffffffffffffffffffff1673ffffffffffffffffffffffffffffffffffffffff166323b872dd33600760009054906101000a900473ffffffffffffffffffffffffffffffffffffffff166008546040518463ffffffff1660e01b815260040162000e269392919062003d21565b602060405180830381600087803b15801562000e4157600080fd5b505af115801562000e56573d6000803e3d6000fd5b505050506040513d601f19601f8201168201806040525081019062000e7c91906200341c565b50806000015173ffffffffffffffffffffffffffffffffffffffff166323b872dd3330866040518463ffffffff1660e01b815260040162000ec09392919062003d21565b602060405180830381600087803b15801562000edb57600080fd5b505af115801562000ef0573d6000803e3d6000fd5b505050506040513d601f19601f8201168201806040525081019062000f1691906200341c565b50600062000f29600a5460095462002827565b905033600b600083815260200190815260200160002060006101000a81548173ffffffffffffffffffffffffffffffffffffffff021916908373ffffffffffffffffffffffffffffffffffffffff16021790555084600c600083815260200190815260200160002060006101000a81548173ffffffffffffffffffffffffffffffffffffffff021916908373ffffffffffffffffffffffffffffffffffffffff16021790555083600d600083815260200190815260200160002081905550809250505092915050565b6000806000620010016200306d565b60028560405162001013919062003ca1565b90815260200160405180910390206040518060600160405290816000820160009054906101000a900473ffffffffffffffffffffffffffffffffffffffff1673ffffffffffffffffffffffffffffffffffffffff1673ffffffffffffffffffffffffffffffffffffffff168152602001600182015481526020016002820160009054906101000a900473ffffffffffffffffffffffffffffffffffffffff1673ffffffffffffffffffffffffffffffffffffffff1673ffffffffffffffffffffffffffffffffffffffff16815250509050600073ffffffffffffffffffffffffffffffffffffffff16816040015173ffffffffffffffffffffffffffffffffffffffff1614156200115b576040517f08c379a00000000000000000000000000000000000000000000000000000000081526004016200115290620040e0565b60405180910390fd5b806000015193508060200151925080604001519150509193909250565b60085481565b60008073ffffffffffffffffffffffffffffffffffffffff168373ffffffffffffffffffffffffffffffffffffffff161415620011f2576040517f08c379a0000000000000000000000000000000000000000000000000000000008152600401620011e99062004146565b60405180910390fd5b620011fc620030ba565b600560008573ffffffffffffffffffffffffffffffffffffffff1673ffffffffffffffffffffffffffffffffffffffff16815260200190815260200160002060008481526020019081526020016000206040518060800160405290816000820160009054906101000a900473ffffffffffffffffffffffffffffffffffffffff1673ffffffffffffffffffffffffffffffffffffffff1673ffffffffffffffffffffffffffffffffffffffff16815260200160018201548152602001600282015481526020016003820154815250509050620012d76200306d565b600460008673ffffffffffffffffffffffffffffffffffffffff1673ffffffffffffffffffffffffffffffffffffffff1681526020019081526020016000206040518060600160405290816000820160009054906101000a900473ffffffffffffffffffffffffffffffffffffffff1673ffffffffffffffffffffffffffffffffffffffff1673ffffffffffffffffffffffffffffffffffffffff168152602001600182015481526020016002820160009054906101000a900473ffffffffffffffffffffffffffffffffffffffff1673ffffffffffffffffffffffffffffffffffffffff1673ffffffffffffffffffffffffffffffffffffffff16815250509050600082602001511162001423576040517f08c379a00000000000000000000000000000000000000000000000000000000081526004016200141a9062003fd0565b60405180910390fd5b8473ffffffffffffffffffffffffffffffffffffffff16816040015173ffffffffffffffffffffffffffffffffffffffff161462001498576040517f08c379a00000000000000000000000000000000000000000000000000000000081526004016200148f9062004102565b60405180910390fd5b8473ffffffffffffffffffffffffffffffffffffffff16826000015173ffffffffffffffffffffffffffffffffffffffff16146200150d576040517f08c379a0000000000000000000000000000000000000000000000000000000008152600401620015049062004102565b60405180910390fd5b3373ffffffffffffffffffffffffffffffffffffffff168573ffffffffffffffffffffffffffffffffffffffff16636352211e866040518263ffffffff1660e01b81526004016200155f91906200418a565b60206040518083038186803b1580156200157857600080fd5b505afa1580156200158d573d6000803e3d6000fd5b505050506040513d601f19601f82011682018060405250810190620015b391906200332a565b73ffffffffffffffffffffffffffffffffffffffff16146200160c576040517f08c379a0000000000000000000000000000000000000000000000000000000008152600401620016039062003fae565b60405180910390fd5b60008260400151106200180857806000015173ffffffffffffffffffffffffffffffffffffffff1663a9059cbb8673ffffffffffffffffffffffffffffffffffffffff16636352211e876040518263ffffffff1660e01b81526004016200167491906200418a565b60206040518083038186803b1580156200168d57600080fd5b505afa158015620016a2573d6000803e3d6000fd5b505050506040513d601f19601f82011682018060405250810190620016c891906200332a565b84604001516040518363ffffffff1660e01b8152600401620016ec92919062003d9b565b602060405180830381600087803b1580156200170757600080fd5b505af11580156200171c573d6000803e3d6000fd5b505050506040513d601f19601f820116820180604052508101906200174291906200341c565b50600082604001818152505081600560008773ffffffffffffffffffffffffffffffffffffffff1673ffffffffffffffffffffffffffffffffffffffff168152602001908152602001600020600086815260200190815260200160002060008201518160000160006101000a81548173ffffffffffffffffffffffffffffffffffffffff021916908373ffffffffffffffffffffffffffffffffffffffff1602179055506020820151816001015560408201518160020155606082015181600301559050505b60019250505092915050565b600c6020528060005260406000206000915054906101000a900473ffffffffffffffffffffffffffffffffffffffff1681565b7f000000000000000000000000000000000000000000000000000000000000000073ffffffffffffffffffffffffffffffffffffffff163373ffffffffffffffffffffffffffffffffffffffff161462001909576040517f08c379a000000000000000000000000000000000000000000000000000000000815260040180806020018281038252601f8152602001807f4f6e6c7920565246436f6f7264696e61746f722063616e2066756c66696c6c0081525060200191505060405180910390fd5b62001915828262002a2b565b5050565b600062001925620030ba565b600560008573ffffffffffffffffffffffffffffffffffffffff1673ffffffffffffffffffffffffffffffffffffffff16815260200190815260200160002060008481526020019081526020016000206040518060800160405290816000820160009054906101000a900473ffffffffffffffffffffffffffffffffffffffff1673ffffffffffffffffffffffffffffffffffffffff1673ffffffffffffffffffffffffffffffffffffffff1681526020016001820154815260200160028201548152602001600382015481525050905062001a006200306d565b600460008673ffffffffffffffffffffffffffffffffffffffff1673ffffffffffffffffffffffffffffffffffffffff1681526020019081526020016000206040518060600160405290816000820160009054906101000a900473ffffffffffffffffffffffffffffffffffffffff1673ffffffffffffffffffffffffffffffffffffffff1673ffffffffffffffffffffffffffffffffffffffff168152602001600182015481526020016002820160009054906101000a900473ffffffffffffffffffffffffffffffffffffffff1673ffffffffffffffffffffffffffffffffffffffff1673ffffffffffffffffffffffffffffffffffffffff16815250509050600082602001511162001b4c576040517f08c379a000000000000000000000000000000000000000000000000000000000815260040162001b439062004058565b60405180910390fd5b8473ffffffffffffffffffffffffffffffffffffffff166342842e0e3330876040518463ffffffff1660e01b815260040162001b8b9392919062003d21565b600060405180830381600087803b15801562001ba657600080fd5b505af115801562001bbb573d6000803e3d6000fd5b50505050600082604001511062001cf757806000015173ffffffffffffffffffffffffffffffffffffffff1663a9059cbb8673ffffffffffffffffffffffffffffffffffffffff16636352211e876040518263ffffffff1660e01b815260040162001c2791906200418a565b60206040518083038186803b15801562001c4057600080fd5b505afa15801562001c55573d6000803e3d6000fd5b505050506040513d601f19601f8201168201806040525081019062001c7b91906200332a565b84604001516040518363ffffffff1660e01b815260040162001c9f92919062003d9b565b602060405180830381600087803b15801562001cba57600080fd5b505af115801562001ccf573d6000803e3d6000fd5b505050506040513d601f19601f8201168201806040525081019062001cf591906200341c565b505b8473ffffffffffffffffffffffffffffffffffffffff166342966c68856040518263ffffffff1660e01b815260040162001d3291906200418a565b600060405180830381600087803b15801562001d4d57600080fd5b505af115801562001d62573d6000803e3d6000fd5b50505050600560008673ffffffffffffffffffffffffffffffffffffffff1673ffffffffffffffffffffffffffffffffffffffff1681526020019081526020016000206000858152602001908152602001600020600080820160006101000a81549073ffffffffffffffffffffffffffffffffffffffff0219169055600182016000905560028201600090556003820160009055505060019250505092915050565b600062001e10620030ba565b600560008573ffffffffffffffffffffffffffffffffffffffff1673ffffffffffffffffffffffffffffffffffffffff16815260200190815260200160002060008481526020019081526020016000206040518060800160405290816000820160009054906101000a900473ffffffffffffffffffffffffffffffffffffffff1673ffffffffffffffffffffffffffffffffffffffff1673ffffffffffffffffffffffffffffffffffffffff16815260200160018201548152602001600282015481526020016003820154815250509050806040015191505092915050565b60008054906101000a900473ffffffffffffffffffffffffffffffffffffffff1673ffffffffffffffffffffffffffffffffffffffff163373ffffffffffffffffffffffffffffffffffffffff161462001fb1576040517f08c379a000000000000000000000000000000000000000000000000000000000815260040180806020018281038252600e8152602001807f6e6f7420676f7665726e616e636500000000000000000000000000000000000081525060200191505060405180910390fd5b600073ffffffffffffffffffffffffffffffffffffffff168173ffffffffffffffffffffffffffffffffffffffff16141562002055576040517f08c379a000000000000000000000000000000000000000000000000000000000815260040180806020018281038252601f8152602001807f6e657720676f7665726e616e636520746865207a65726f20616464726573730081525060200191505060405180910390fd5b8073ffffffffffffffffffffffffffffffffffffffff1660008054906101000a900473ffffffffffffffffffffffffffffffffffffffff1673ffffffffffffffffffffffffffffffffffffffff167f5f56bee8cffbe9a78652a74a60705edede02af10b0bbb888ca44b79a0d42ce8060405160405180910390a3806000806101000a81548173ffffffffffffffffffffffffffffffffffffffff021916908373ffffffffffffffffffffffffffffffffffffffff16021790555050565b60008060009054906101000a900473ffffffffffffffffffffffffffffffffffffffff1673ffffffffffffffffffffffffffffffffffffffff163373ffffffffffffffffffffffffffffffffffffffff1614620021d7576040517f08c379a000000000000000000000000000000000000000000000000000000000815260040180806020018281038252600e8152602001807f6e6f7420676f7665726e616e636500000000000000000000000000000000000081525060200191505060405180910390fd5b81600760006101000a81548173ffffffffffffffffffffffffffffffffffffffff021916908373ffffffffffffffffffffffffffffffffffffffff16021790555060019050919050565b600760009054906101000a900473ffffffffffffffffffffffffffffffffffffffff1681565b60008060009054906101000a900473ffffffffffffffffffffffffffffffffffffffff1673ffffffffffffffffffffffffffffffffffffffff163373ffffffffffffffffffffffffffffffffffffffff16146200230c576040517f08c379a000000000000000000000000000000000000000000000000000000000815260040180806020018281038252600e8152602001807f6e6f7420676f7665726e616e636500000000000000000000000000000000000081525060200191505060405180910390fd5b600073ffffffffffffffffffffffffffffffffffffffff1660028760405162002336919062003ca1565b908152602001604051809103902060020160009054906101000a900473ffffffffffffffffffffffffffffffffffffffff1673ffffffffffffffffffffffffffffffffffffffff1614620023c1576040517f08c379a0000000000000000000000000000000000000000000000000000000008152600401620023b89062004036565b60405180910390fd5b6000868686604051620023d490620030f8565b620023e29392919062003f5c565b604051809103906000f080158015620023ff573d6000803e3d6000fd5b5090506200240c6200306d565b84816000019073ffffffffffffffffffffffffffffffffffffffff16908173ffffffffffffffffffffffffffffffffffffffff16815250508381602001818152505081816040019073ffffffffffffffffffffffffffffffffffffffff16908173ffffffffffffffffffffffffffffffffffffffff16815250508060028960405162002499919062003ca1565b908152602001604051809103902060008201518160000160006101000a81548173ffffffffffffffffffffffffffffffffffffffff021916908373ffffffffffffffffffffffffffffffffffffffff1602179055506020820151816001015560408201518160020160006101000a81548173ffffffffffffffffffffffffffffffffffffffff021916908373ffffffffffffffffffffffffffffffffffffffff16021790555090505080600460008473ffffffffffffffffffffffffffffffffffffffff1673ffffffffffffffffffffffffffffffffffffffff16815260200190815260200160002060008201518160000160006101000a81548173ffffffffffffffffffffffffffffffffffffffff021916908373ffffffffffffffffffffffffffffffffffffffff1602179055506020820151816001015560408201518160020160006101000a81548173ffffffffffffffffffffffffffffffffffffffff021916908373ffffffffffffffffffffffffffffffffffffffff1602179055509050506003889080600181540180825580915050600190039060005260206000200160009091909190915090805190602001906200265a92919062003106565b507f2b53144c1159387a7239772a690be6c6cae795e95a739c4c5f1e9f7523ff1b2c88888785886040516200269495949392919062003ef1565b60405180910390a1819250505095945050505050565b600b6020528060005260406000206000915054906101000a900473ffffffffffffffffffffffffffffffffffffffff1681565b600d6020528060005260406000206000915090505481565b60008060009054906101000a900473ffffffffffffffffffffffffffffffffffffffff1673ffffffffffffffffffffffffffffffffffffffff163373ffffffffffffffffffffffffffffffffffffffff1614620027ba576040517f08c379a000000000000000000000000000000000000000000000000000000000815260040180806020018281038252600e8152602001807f6e6f7420676f7665726e616e636500000000000000000000000000000000000081525060200191505060405180910390fd5b8160088190555060019050919050565b6005602052816000526040600020602052806000526040600020600091509150508060000160009054906101000a900473ffffffffffffffffffffffffffffffffffffffff16908060010154908060020154908060030154905084565b60007f000000000000000000000000000000000000000000000000000000000000000073ffffffffffffffffffffffffffffffffffffffff16634000aea07f00000000000000000000000000000000000000000000000000000000000000008486600060405160200180838152602001828152602001925050506040516020818303038152906040526040518463ffffffff1660e01b8152600401808473ffffffffffffffffffffffffffffffffffffffff16815260200183815260200180602001828103825283818151815260200191508051906020019080838360005b838110156200292357808201518184015260208101905062002906565b50505050905090810190601f168015620029515780820380516001836020036101000a031916815260200191505b50945050505050602060405180830381600087803b1580156200297357600080fd5b505af115801562002988573d6000803e3d6000fd5b505050506040513d60208110156200299f57600080fd5b8101908080519060200190929190505050506000620029d584600030600160008981526020019081526020016000205462002f47565b9050620029ff60018060008781526020019081526020016000205462002fab90919063ffffffff16565b600160008681526020019081526020016000208190555062002a22848262003034565b91505092915050565b6000600c600084815260200190815260200160002060009054906101000a900473ffffffffffffffffffffffffffffffffffffffff16905062002a6d6200306d565b600460008373ffffffffffffffffffffffffffffffffffffffff1673ffffffffffffffffffffffffffffffffffffffff1681526020019081526020016000206040518060600160405290816000820160009054906101000a900473ffffffffffffffffffffffffffffffffffffffff1673ffffffffffffffffffffffffffffffffffffffff1673ffffffffffffffffffffffffffffffffffffffff168152602001600182015481526020016002820160009054906101000a900473ffffffffffffffffffffffffffffffffffffffff1673ffffffffffffffffffffffffffffffffffffffff1673ffffffffffffffffffffffffffffffffffffffff1681525050905080602001518273ffffffffffffffffffffffffffffffffffffffff166318160ddd6040518163ffffffff1660e01b815260040160206040518083038186803b15801562002bbb57600080fd5b505afa15801562002bd0573d6000803e3d6000fd5b505050506040513d601f19601f8201168201806040525081019062002bf69190620035f3565b1062002c39576040517f08c379a000000000000000000000000000000000000000000000000000000000815260040162002c3090620040be565b60405180910390fd5b6000600b600086815260200190815260200160002060009054906101000a900473ffffffffffffffffffffffffffffffffffffffff169050600060018360200151868162002c8357fe5b060190505b8373ffffffffffffffffffffffffffffffffffffffff16634f558e79826040518263ffffffff1660e01b815260040162002cc391906200418a565b60206040518083038186803b15801562002cdc57600080fd5b505afa15801562002cf1573d6000803e3d6000fd5b505050506040513d601f19601f8201168201806040525081019062002d1791906200341c565b1562002d3a5760018360200151600183018162002d3057fe5b0601905062002c88565b6000600d60008881526020019081526020016000205490508473ffffffffffffffffffffffffffffffffffffffff166340c10f1984846040518363ffffffff1660e01b815260040162002d8f92919062003d9b565b602060405180830381600087803b15801562002daa57600080fd5b505af115801562002dbf573d6000803e3d6000fd5b505050506040513d601f19601f8201168201806040525081019062002de591906200341c565b5062002df0620030ba565b85816000019073ffffffffffffffffffffffffffffffffffffffff16908173ffffffffffffffffffffffffffffffffffffffff168152505082816020018181525050818160400181815250504281606001818152505080600560008873ffffffffffffffffffffffffffffffffffffffff1673ffffffffffffffffffffffffffffffffffffffff168152602001908152602001600020600085815260200190815260200160002060008201518160000160006101000a81548173ffffffffffffffffffffffffffffffffffffffff021916908373ffffffffffffffffffffffffffffffffffffffff160217905550602082015181600101556040820151816002015560608201518160030155905050827ff027418bc693254808d8393d12468606300d4485cceb6d566cd0c942d0712eb487868560405162002f359392919062003d5e565b60405180910390a25050505050505050565b600084848484604051602001808581526020018481526020018373ffffffffffffffffffffffffffffffffffffffff1681526020018281526020019450505050506040516020818303038152906040528051906020012060001c9050949350505050565b6000808284019050838110156200302a576040517f08c379a000000000000000000000000000000000000000000000000000000000815260040180806020018281038252601b8152602001807f536166654d6174683a206164646974696f6e206f766572666c6f77000000000081525060200191505060405180910390fd5b8091505092915050565b60008282604051602001808381526020018281526020019250505060405160208183030381529060405280519060200120905092915050565b6040518060600160405280600073ffffffffffffffffffffffffffffffffffffffff16815260200160008152602001600073ffffffffffffffffffffffffffffffffffffffff1681525090565b6040518060800160405280600073ffffffffffffffffffffffffffffffffffffffff1681526020016000815260200160008152602001600081525090565b614641806200442f83390190565b828054600181600116156101000203166002900490600052602060002090601f0160209004810192826200313e57600085556200318a565b82601f106200315957805160ff19168380011785556200318a565b828001600101855582156200318a579182015b82811115620031895782518255916020019190600101906200316c565b5b5090506200319991906200319d565b5090565b5b80821115620031b85760008160009055506001016200319e565b5090565b600081359050620031cd81620043c6565b92915050565b600081519050620031e481620043c6565b92915050565b600081519050620031fb81620043e0565b92915050565b6000813590506200321281620043fa565b92915050565b600082601f8301126200322a57600080fd5b8135620032416200323b82620041db565b620041a7565b915080825260208301602083018583830111156200325e57600080fd5b6200326b8382846200436e565b50505092915050565b600082601f8301126200328657600080fd5b81356200329d62003297826200420e565b620041a7565b91508082526020830160208301858383011115620032ba57600080fd5b620032c78382846200436e565b50505092915050565b600081359050620032e18162004414565b92915050565b600081519050620032f88162004414565b92915050565b6000602082840312156200331157600080fd5b60006200332184828501620031bc565b91505092915050565b6000602082840312156200333d57600080fd5b60006200334d84828501620031d3565b91505092915050565b600080600080608085870312156200336d57600080fd5b60006200337d87828801620031bc565b94505060206200339087828801620031bc565b9350506040620033a387828801620032d0565b925050606085013567ffffffffffffffff811115620033c157600080fd5b620033cf8782880162003218565b91505092959194509250565b60008060408385031215620033ef57600080fd5b6000620033ff85828601620031bc565b92505060206200341285828601620032d0565b9150509250929050565b6000602082840312156200342f57600080fd5b60006200343f84828501620031ea565b91505092915050565b6000602082840312156200345b57600080fd5b60006200346b8482850162003201565b91505092915050565b600080604083850312156200348857600080fd5b6000620034988582860162003201565b9250506020620034ab85828601620032d0565b9150509250929050565b600060208284031215620034c857600080fd5b600082013567ffffffffffffffff811115620034e357600080fd5b620034f18482850162003274565b91505092915050565b600080600080600060a086880312156200351357600080fd5b600086013567ffffffffffffffff8111156200352e57600080fd5b6200353c8882890162003274565b955050602086013567ffffffffffffffff8111156200355a57600080fd5b620035688882890162003274565b945050604086013567ffffffffffffffff8111156200358657600080fd5b620035948882890162003274565b9350506060620035a788828901620031bc565b9250506080620035ba88828901620032d0565b9150509295509295909350565b600060208284031215620035da57600080fd5b6000620035ea84828501620032d0565b91505092915050565b6000602082840312156200360657600080fd5b60006200361684828501620032e7565b91505092915050565b60006200362d83836200370b565b905092915050565b620036408162004332565b82525050565b6200365181620042b2565b82525050565b6000620036648262004251565b62003670818562004274565b935083602082028501620036848562004241565b8060005b85811015620036c65784840389528151620036a485826200361f565b9450620036b18362004267565b925060208a0199505060018101905062003688565b50829750879550505050505092915050565b620036e381620042c6565b82525050565b620036f481620042d2565b82525050565b6200370581620042dc565b82525050565b600062003718826200425c565b62003724818562004285565b9350620037368185602086016200437d565b6200374181620043b5565b840191505092915050565b600062003759826200425c565b62003765818562004296565b9350620037778185602086016200437d565b6200378281620043b5565b840191505092915050565b60006200379a826200425c565b620037a68185620042a7565b9350620037b88185602086016200437d565b80840191505092915050565b6000620037d3601d8362004296565b91507f53616e7461466163746f727956323a20496e76616c6964206f776e65720000006000830152602082019050919050565b60006200381560198362004296565b91507f53616e7461466163746f727956323a206e6f74206578697374000000000000006000830152602082019050919050565b60006200385760328362004296565b91507f53616e7461466163746f72793256323a20416c6c6f776e6365206973206c657360008301527f73207468616e20666163655f76616c75652100000000000000000000000000006020830152604082019050919050565b6000620038bf60348362004296565b91507f53616e7461466163746f72793256323a20666163655f76616c75652073686f7560008301527f6c6420626520677261746572207468616e2030210000000000000000000000006020830152604082019050919050565b60006200392760198362004296565b91507f546865206e616d652077617320616c72656164792075736564000000000000006000830152602082019050919050565b60006200396960098362004296565b91507f6e6f7420657869737400000000000000000000000000000000000000000000006000830152602082019050919050565b6000620039ab60368362004296565b91507f53616e7461466163746f72793256323a20596f75722062616c616e636520697360008301527f206c657373207468616e20666163652076616c756521000000000000000000006020830152604082019050919050565b600062003a1360248362004296565b91507f53616e7461466163746f72793256323a20496e76616c6964204e66742061646460008301527f72657373000000000000000000000000000000000000000000000000000000006020830152604082019050919050565b600062003a7b60218362004296565b91507f546f74616c20746f6b656e73207765726520616c7265616479206d696e74656460008301527f21000000000000000000000000000000000000000000000000000000000000006020830152604082019050919050565b600062003ae3601d8362004296565b91507f53616e7461466163746f72793256323a20496e76616c6964206e616d650000006000830152602082019050919050565b600062003b2560258362004296565b91507f53616e7461466163746f727956323a20496e76616c69642053616e746120416460008301527f64726573730000000000000000000000000000000000000000000000000000006020830152604082019050919050565b600062003b8d60328362004296565b91507f53616e7461466163746f72793256323a20546f74616c20746f6b656e7320776560008301527f726520616c7265616479206d696e7465642100000000000000000000000000006020830152604082019050919050565b600062003bf5601b8362004296565b91507f53616e7461466163746f727956323a20212030206164647265737300000000006000830152602082019050919050565b600062003c37603c8362004296565b91507f53616e7461466163746f72793256323a204e6f7420656e6f756768204c494e4b60008301527f202d2066696c6c20636f6e7472616374207769746820666175636574000000006020830152604082019050919050565b62003c9b8162004328565b82525050565b600062003caf82846200378d565b915081905092915050565b600060208201905062003cd1600083018462003646565b92915050565b600060208201905062003cee600083018462003635565b92915050565b600060408201905062003d0b600083018562003635565b62003d1a602083018462003646565b9392505050565b600060608201905062003d38600083018662003635565b62003d47602083018562003646565b62003d56604083018462003c90565b949350505050565b600060608201905062003d75600083018662003646565b62003d84602083018562003646565b62003d93604083018462003c90565b949350505050565b600060408201905062003db2600083018562003646565b62003dc1602083018462003c90565b9392505050565b600060608201905062003ddf600083018662003646565b62003dee602083018562003c90565b62003dfd604083018462003646565b949350505050565b600060808201905062003e1c600083018762003646565b62003e2b602083018662003c90565b62003e3a604083018562003c90565b62003e49606083018462003c90565b95945050505050565b6000602082019050818103600083015262003e6e818462003657565b905092915050565b600060208201905062003e8d6000830184620036d8565b92915050565b600060208201905062003eaa6000830184620036e9565b92915050565b600060208201905062003ec76000830184620036fa565b92915050565b6000602082019050818103600083015262003ee981846200374c565b905092915050565b600060a082019050818103600083015262003f0d81886200374c565b9050818103602083015262003f2381876200374c565b905062003f34604083018662003646565b62003f43606083018562003646565b62003f52608083018462003c90565b9695505050505050565b6000606082019050818103600083015262003f7881866200374c565b9050818103602083015262003f8e81856200374c565b9050818103604083015262003fa481846200374c565b9050949350505050565b6000602082019050818103600083015262003fc981620037c4565b9050919050565b6000602082019050818103600083015262003feb8162003806565b9050919050565b600060208201905081810360008301526200400d8162003848565b9050919050565b600060208201905081810360008301526200402f81620038b0565b9050919050565b60006020820190508181036000830152620040518162003918565b9050919050565b6000602082019050818103600083015262004073816200395a565b9050919050565b6000602082019050818103600083015262004095816200399c565b9050919050565b60006020820190508181036000830152620040b78162003a04565b9050919050565b60006020820190508181036000830152620040d98162003a6c565b9050919050565b60006020820190508181036000830152620040fb8162003ad4565b9050919050565b600060208201905081810360008301526200411d8162003b16565b9050919050565b600060208201905081810360008301526200413f8162003b7e565b9050919050565b60006020820190508181036000830152620041618162003be6565b9050919050565b60006020820190508181036000830152620041838162003c28565b9050919050565b6000602082019050620041a1600083018462003c90565b92915050565b6000604051905081810181811067ffffffffffffffff82111715620041d157620041d0620043b3565b5b8060405250919050565b600067ffffffffffffffff821115620041f957620041f8620043b3565b5b601f19601f8301169050602081019050919050565b600067ffffffffffffffff8211156200422c576200422b620043b3565b5b601f19601f8301169050602081019050919050565b6000819050602082019050919050565b600081519050919050565b600081519050919050565b6000602082019050919050565b600082825260208201905092915050565b600082825260208201905092915050565b600082825260208201905092915050565b600081905092915050565b6000620042bf8262004308565b9050919050565b60008115159050919050565b6000819050919050565b60007fffffffff0000000000000000000000000000000000000000000000000000000082169050919050565b600073ffffffffffffffffffffffffffffffffffffffff82169050919050565b6000819050919050565b60006200433f8262004346565b9050919050565b600062004353826200435a565b9050919050565b6000620043678262004308565b9050919050565b82818337600083830152505050565b60005b838110156200439d57808201518184015260208101905062004380565b83811115620043ad576000848401525b50505050565bfe5b6000601f19601f8301169050919050565b620043d181620042b2565b8114620043dd57600080fd5b50565b620043eb81620042c6565b8114620043f757600080fd5b50565b6200440581620042d2565b81146200441157600080fd5b50565b6200441f8162004328565b81146200442b57600080fd5b5056fe60806040523480156200001157600080fd5b506040516200464138038062004641833981810160405260608110156200003757600080fd5b81019080805160405193929190846401000000008211156200005857600080fd5b838201915060208201858111156200006f57600080fd5b82518660018202830111640100000000821117156200008d57600080fd5b8083526020830192505050908051906020019080838360005b83811015620000c3578082015181840152602081019050620000a6565b50505050905090810190601f168015620000f15780820380516001836020036101000a031916815260200191505b50604052602001805160405193929190846401000000008211156200011557600080fd5b838201915060208201858111156200012c57600080fd5b82518660018202830111640100000000821117156200014a57600080fd5b8083526020830192505050908051906020019080838360005b838110156200018057808201518184015260208101905062000163565b50505050905090810190601f168015620001ae5780820380516001836020036101000a031916815260200191505b5060405260200180516040519392919084640100000000821115620001d257600080fd5b83820191506020820185811115620001e957600080fd5b82518660018202830111640100000000821117156200020757600080fd5b8083526020830192505050908051906020019080838360005b838110156200023d57808201518184015260208101905062000220565b50505050905090810190601f1680156200026b5780820380516001836020036101000a031916815260200191505b5060405250505082826200028c6301ffc9a760e01b6200036360201b60201c565b8160069080519060200190620002a492919062000488565b508060079080519060200190620002bd92919062000488565b50620002d66380ac58cd60e01b6200036360201b60201c565b620002ee635b5e139f60e01b6200036360201b60201c565b6200030663780e9d6360e01b6200036360201b60201c565b505032600a60006101000a81548173ffffffffffffffffffffffffffffffffffffffff021916908373ffffffffffffffffffffffffffffffffffffffff1602179055506200035a816200046c60201b60201c565b5050506200053e565b63ffffffff60e01b817bffffffffffffffffffffffffffffffffffffffffffffffffffffffff1916141562000400576040517f08c379a000000000000000000000000000000000000000000000000000000000815260040180806020018281038252601c8152602001807f4552433136353a20696e76616c696420696e746572666163652069640000000081525060200191505060405180910390fd5b6001600080837bffffffffffffffffffffffffffffffffffffffffffffffffffffffff19167bffffffffffffffffffffffffffffffffffffffffffffffffffffffff1916815260200190815260200160002060006101000a81548160ff02191690831515021790555050565b80600990805190602001906200048492919062000488565b5050565b828054600181600116156101000203166002900490600052602060002090601f016020900481019282620004c057600085556200050c565b82601f10620004db57805160ff19168380011785556200050c565b828001600101855582156200050c579182015b828111156200050b578251825591602001919060010190620004ee565b5b5090506200051b91906200051f565b5090565b5b808211156200053a57600081600090555060010162000520565b5090565b6140f3806200054e6000396000f3fe608060405234801561001057600080fd5b50600436106101cf5760003560e01c80634f6ccce71161010457806395d89b41116100a2578063ab033ea911610071578063ab033ea914610ba3578063b88d4fde14610be7578063c87b56dd14610cec578063e985e9c514610d93576101cf565b806395d89b4114610a28578063983b2d5614610aab578063a144819414610aef578063a22cb46514610b53576101cf565b80636c0360eb116100de5780636c0360eb146107b957806370a082311461083c5780638462151c146108945780638832e6e31461092d576101cf565b80634f6ccce7146106645780636352211e146106a65780636bff2c24146106fe576101cf565b80632f745c591161017157806340c10f191161014b57806340c10f191461052057806342842e0e1461058457806342966c68146105f25780634f558e7914610620576101cf565b80632f745c59146104205780633092afd5146104825780633575597d146104c6576101cf565b8063095ea7b3116101ad578063095ea7b31461031257806318160ddd146103605780631c2f3e3d1461037e57806323b872dd146103b2576101cf565b806301ffc9a7146101d457806306fdde0314610237578063081812fc146102ba575b600080fd5b61021f600480360360208110156101ea57600080fd5b8101908080357bffffffffffffffffffffffffffffffffffffffffffffffffffffffff19169060200190929190505050610e0d565b60405180821515815260200191505060405180910390f35b61023f610e74565b6040518080602001828103825283818151815260200191508051906020019080838360005b8381101561027f578082015181840152602081019050610264565b50505050905090810190601f1680156102ac5780820380516001836020036101000a031916815260200191505b509250505060405180910390f35b6102e6600480360360208110156102d057600080fd5b8101908080359060200190929190505050610f16565b604051808273ffffffffffffffffffffffffffffffffffffffff16815260200191505060405180910390f35b61035e6004803603604081101561032857600080fd5b81019080803573ffffffffffffffffffffffffffffffffffffffff16906020019092919080359060200190929190505050610fb1565b005b6103686110f5565b6040518082815260200191505060405180910390f35b610386611106565b604051808273ffffffffffffffffffffffffffffffffffffffff16815260200191505060405180910390f35b61041e600480360360608110156103c857600080fd5b81019080803573ffffffffffffffffffffffffffffffffffffffff169060200190929190803573ffffffffffffffffffffffffffffffffffffffff1690602001909291908035906020019092919050505061112c565b005b61046c6004803603604081101561043657600080fd5b81019080803573ffffffffffffffffffffffffffffffffffffffff169060200190929190803590602001909291905050506111a2565b6040518082815260200191505060405180910390f35b6104c46004803603602081101561049857600080fd5b81019080803573ffffffffffffffffffffffffffffffffffffffff1690602001909291905050506111fd565b005b610508600480360360208110156104dc57600080fd5b81019080803573ffffffffffffffffffffffffffffffffffffffff16906020019092919050505061131b565b60405180821515815260200191505060405180910390f35b61056c6004803603604081101561053657600080fd5b81019080803573ffffffffffffffffffffffffffffffffffffffff1690602001909291908035906020019092919050505061133b565b60405180821515815260200191505060405180910390f35b6105f06004803603606081101561059a57600080fd5b81019080803573ffffffffffffffffffffffffffffffffffffffff169060200190929190803573ffffffffffffffffffffffffffffffffffffffff1690602001909291908035906020019092919050505061147a565b005b61061e6004803603602081101561060857600080fd5b810190808035906020019092919050505061149a565b005b61064c6004803603602081101561063657600080fd5b8101908080359060200190929190505050611640565b60405180821515815260200191505060405180910390f35b6106906004803603602081101561067a57600080fd5b8101908080359060200190929190505050611652565b6040518082815260200191505060405180910390f35b6106d2600480360360208110156106bc57600080fd5b8101908080359060200190929190505050611675565b604051808273ffffffffffffffffffffffffffffffffffffffff16815260200191505060405180910390f35b6107b76004803603602081101561071457600080fd5b810190808035906020019064010000000081111561073157600080fd5b82018360208201111561074357600080fd5b8035906020019184600183028401116401000000008311171561076557600080fd5b91908080601f016020809104026020016040519081016040528093929190818152602001838380828437600081840152601f19601f8201169050808301925050505050505091929192905050506116ac565b005b6107c161177b565b6040518080602001828103825283818151815260200191508051906020019080838360005b838110156108015780820151818401526020810190506107e6565b50505050905090810190601f16801561082e5780820380516001836020036101000a031916815260200191505b509250505060405180910390f35b61087e6004803603602081101561085257600080fd5b81019080803573ffffffffffffffffffffffffffffffffffffffff16906020019092919050505061181d565b6040518082815260200191505060405180910390f35b6108d6600480360360208110156108aa57600080fd5b81019080803573ffffffffffffffffffffffffffffffffffffffff1690602001909291905050506118f2565b6040518080602001828103825283818151815260200191508051906020019060200280838360005b838110156109195780820151818401526020810190506108fe565b505050509050019250505060405180910390f35b610a106004803603606081101561094357600080fd5b81019080803573ffffffffffffffffffffffffffffffffffffffff169060200190929190803590602001909291908035906020019064010000000081111561098a57600080fd5b82018360208201111561099c57600080fd5b803590602001918460018302840111640100000000831117156109be57600080fd5b91908080601f016020809104026020016040519081016040528093929190818152602001838380828437600081840152601f19601f820116905080830192505050505050509192919290505050611a34565b60405180821515815260200191505060405180910390f35b610a30611b75565b6040518080602001828103825283818151815260200191508051906020019080838360005b83811015610a70578082015181840152602081019050610a55565b50505050905090810190601f168015610a9d5780820380516001836020036101000a031916815260200191505b509250505060405180910390f35b610aed60048036036020811015610ac157600080fd5b81019080803573ffffffffffffffffffffffffffffffffffffffff169060200190929190505050611c17565b005b610b3b60048036036040811015610b0557600080fd5b81019080803573ffffffffffffffffffffffffffffffffffffffff16906020019092919080359060200190929190505050611d35565b60405180821515815260200191505060405180910390f35b610ba160048036036040811015610b6957600080fd5b81019080803573ffffffffffffffffffffffffffffffffffffffff169060200190929190803515159060200190929190505050611e74565b005b610be560048036036020811015610bb957600080fd5b81019080803573ffffffffffffffffffffffffffffffffffffffff16906020019092919050505061202a565b005b610cea60048036036080811015610bfd57600080fd5b81019080803573ffffffffffffffffffffffffffffffffffffffff169060200190929190803573ffffffffffffffffffffffffffffffffffffffff1690602001909291908035906020019092919080359060200190640100000000811115610c6457600080fd5b820183602082011115610c7657600080fd5b80359060200191846001830284011164010000000083111715610c9857600080fd5b91908080601f016020809104026020016040519081016040528093929190818152602001838380828437600081840152601f19601f820116905080830192505050505050509192919290505050612250565b005b610d1860048036036020811015610d0257600080fd5b81019080803590602001909291905050506122c8565b6040518080602001828103825283818151815260200191508051906020019080838360005b83811015610d58578082015181840152602081019050610d3d565b50505050905090810190601f168015610d855780820380516001836020036101000a031916815260200191505b509250505060405180910390f35b610df560048036036040811015610da957600080fd5b81019080803573ffffffffffffffffffffffffffffffffffffffff169060200190929190803573ffffffffffffffffffffffffffffffffffffffff169060200190929190505050612599565b60405180821515815260200191505060405180910390f35b6000806000837bffffffffffffffffffffffffffffffffffffffffffffffffffffffff19167bffffffffffffffffffffffffffffffffffffffffffffffffffffffff1916815260200190815260200160002060009054906101000a900460ff169050919050565b606060068054600181600116156101000203166002900480601f016020809104026020016040519081016040528092919081815260200182805460018160011615610100020316600290048015610f0c5780601f10610ee157610100808354040283529160200191610f0c565b820191906000526020600020905b815481529060010190602001808311610eef57829003601f168201915b5050505050905090565b6000610f218261262d565b610f76576040517f08c379a000000000000000000000000000000000000000000000000000000000815260040180806020018281038252602c815260200180613fbc602c913960400191505060405180910390fd5b6004600083815260200190815260200160002060009054906101000a900473ffffffffffffffffffffffffffffffffffffffff169050919050565b6000610fbc82611675565b90508073ffffffffffffffffffffffffffffffffffffffff168373ffffffffffffffffffffffffffffffffffffffff161415611043576040517f08c379a000000000000000000000000000000000000000000000000000000000815260040180806020018281038252602181526020018061406c6021913960400191505060405180910390fd5b8073ffffffffffffffffffffffffffffffffffffffff1661106261264a565b73ffffffffffffffffffffffffffffffffffffffff16148061109157506110908161108b61264a565b612599565b5b6110e6576040517f08c379a0000000000000000000000000000000000000000000000000000000008152600401808060200182810382526038815260200180613f0f6038913960400191505060405180910390fd5b6110f08383612652565b505050565b6000611101600261270b565b905090565b600a60009054906101000a900473ffffffffffffffffffffffffffffffffffffffff1681565b61113d61113761264a565b82612720565b611192576040517f08c379a000000000000000000000000000000000000000000000000000000000815260040180806020018281038252603181526020018061408d6031913960400191505060405180910390fd5b61119d838383612814565b505050565b60006111f582600160008673ffffffffffffffffffffffffffffffffffffffff1673ffffffffffffffffffffffffffffffffffffffff168152602001908152602001600020612a5790919063ffffffff16565b905092915050565b600a60009054906101000a900473ffffffffffffffffffffffffffffffffffffffff1673ffffffffffffffffffffffffffffffffffffffff163373ffffffffffffffffffffffffffffffffffffffff16146112c0576040517f08c379a000000000000000000000000000000000000000000000000000000000815260040180806020018281038252600e8152602001807f6e6f7420676f7665726e616e636500000000000000000000000000000000000081525060200191505060405180910390fd5b6000600b60008373ffffffffffffffffffffffffffffffffffffffff1673ffffffffffffffffffffffffffffffffffffffff16815260200190815260200160002060006101000a81548160ff02191690831515021790555050565b600b6020528060005260406000206000915054906101000a900460ff1681565b6000600b60003373ffffffffffffffffffffffffffffffffffffffff1673ffffffffffffffffffffffffffffffffffffffff16815260200190815260200160002060009054906101000a900460ff16806113e257503373ffffffffffffffffffffffffffffffffffffffff16600a60009054906101000a900473ffffffffffffffffffffffffffffffffffffffff1673ffffffffffffffffffffffffffffffffffffffff16145b611454576040517f08c379a00000000000000000000000000000000000000000000000000000000081526004018080602001828103825260078152602001807f216d696e7465720000000000000000000000000000000000000000000000000081525060200191505060405180910390fd5b61145e8383612a71565b6114708261146b84612c65565b612da9565b6001905092915050565b61149583838360405180602001604052806000815250612250565b505050565b600b60003373ffffffffffffffffffffffffffffffffffffffff1673ffffffffffffffffffffffffffffffffffffffff16815260200190815260200160002060009054906101000a900460ff168061153f57503373ffffffffffffffffffffffffffffffffffffffff16600a60009054906101000a900473ffffffffffffffffffffffffffffffffffffffff1673ffffffffffffffffffffffffffffffffffffffff16145b6115b1576040517f08c379a00000000000000000000000000000000000000000000000000000000081526004018080602001828103825260078152602001807f216d696e7465720000000000000000000000000000000000000000000000000081525060200191505060405180910390fd5b6115c26115bc61264a565b82612720565b611634576040517f08c379a00000000000000000000000000000000000000000000000000000000081526004018080602001828103825260208152602001807f63616c6c6572206973206e6f74206f776e6572206e6f7220617070726f76656481525060200191505060405180910390fd5b61163d81612e33565b50565b600061164b8261262d565b9050919050565b600080611669836002612f6d90919063ffffffff16565b50905080915050919050565b60006116a582604051806060016040528060298152602001613f71602991396002612f999092919063ffffffff16565b9050919050565b600a60009054906101000a900473ffffffffffffffffffffffffffffffffffffffff1673ffffffffffffffffffffffffffffffffffffffff163373ffffffffffffffffffffffffffffffffffffffff161461176f576040517f08c379a000000000000000000000000000000000000000000000000000000000815260040180806020018281038252600e8152602001807f6e6f7420676f7665726e616e636500000000000000000000000000000000000081525060200191505060405180910390fd5b61177881612fb8565b50565b606060098054600181600116156101000203166002900480601f0160208091040260200160405190810160405280929190818152602001828054600181600116156101000203166002900480156118135780601f106117e857610100808354040283529160200191611813565b820191906000526020600020905b8154815290600101906020018083116117f657829003601f168201915b5050505050905090565b60008073ffffffffffffffffffffffffffffffffffffffff168273ffffffffffffffffffffffffffffffffffffffff1614156118a4576040517f08c379a000000000000000000000000000000000000000000000000000000000815260040180806020018281038252602a815260200180613f47602a913960400191505060405180910390fd5b6118eb600160008473ffffffffffffffffffffffffffffffffffffffff1673ffffffffffffffffffffffffffffffffffffffff168152602001908152602001600020612fd2565b9050919050565b6060600073ffffffffffffffffffffffffffffffffffffffff168273ffffffffffffffffffffffffffffffffffffffff161415611997576040517f08c379a000000000000000000000000000000000000000000000000000000000815260040180806020018281038252600d8152602001807f696e76616c6964206f776e65720000000000000000000000000000000000000081525060200191505060405180910390fd5b60006119a28361181d565b905060608167ffffffffffffffff811180156119bd57600080fd5b506040519080825280602002602001820160405280156119ec5781602001602082028036833780820191505090505b50905060005b82811015611a2957611a0485826111a2565b828281518110611a1057fe5b60200260200101818152505080806001019150506119f2565b508092505050919050565b6000600b60003373ffffffffffffffffffffffffffffffffffffffff1673ffffffffffffffffffffffffffffffffffffffff16815260200190815260200160002060009054906101000a900460ff1680611adb57503373ffffffffffffffffffffffffffffffffffffffff16600a60009054906101000a900473ffffffffffffffffffffffffffffffffffffffff1673ffffffffffffffffffffffffffffffffffffffff16145b611b4d576040517f08c379a00000000000000000000000000000000000000000000000000000000081526004018080602001828103825260078152602001807f216d696e7465720000000000000000000000000000000000000000000000000081525060200191505060405180910390fd5b611b58848484612fe7565b611b6a83611b6585612c65565b612da9565b600190509392505050565b606060078054600181600116156101000203166002900480601f016020809104026020016040519081016040528092919081815260200182805460018160011615610100020316600290048015611c0d5780601f10611be257610100808354040283529160200191611c0d565b820191906000526020600020905b815481529060010190602001808311611bf057829003601f168201915b5050505050905090565b600a60009054906101000a900473ffffffffffffffffffffffffffffffffffffffff1673ffffffffffffffffffffffffffffffffffffffff163373ffffffffffffffffffffffffffffffffffffffff1614611cda576040517f08c379a000000000000000000000000000000000000000000000000000000000815260040180806020018281038252600e8152602001807f6e6f7420676f7665726e616e636500000000000000000000000000000000000081525060200191505060405180910390fd5b6001600b60008373ffffffffffffffffffffffffffffffffffffffff1673ffffffffffffffffffffffffffffffffffffffff16815260200190815260200160002060006101000a81548160ff02191690831515021790555050565b6000600b60003373ffffffffffffffffffffffffffffffffffffffff1673ffffffffffffffffffffffffffffffffffffffff16815260200190815260200160002060009054906101000a900460ff1680611ddc57503373ffffffffffffffffffffffffffffffffffffffff16600a60009054906101000a900473ffffffffffffffffffffffffffffffffffffffff1673ffffffffffffffffffffffffffffffffffffffff16145b611e4e576040517f08c379a00000000000000000000000000000000000000000000000000000000081526004018080602001828103825260078152602001807f216d696e7465720000000000000000000000000000000000000000000000000081525060200191505060405180910390fd5b611e588383613058565b611e6a82611e6584612c65565b612da9565b6001905092915050565b611e7c61264a565b73ffffffffffffffffffffffffffffffffffffffff168273ffffffffffffffffffffffffffffffffffffffff161415611f1d576040517f08c379a00000000000000000000000000000000000000000000000000000000081526004018080602001828103825260198152602001807f4552433732313a20617070726f766520746f2063616c6c65720000000000000081525060200191505060405180910390fd5b8060056000611f2a61264a565b73ffffffffffffffffffffffffffffffffffffffff1673ffffffffffffffffffffffffffffffffffffffff16815260200190815260200160002060008473ffffffffffffffffffffffffffffffffffffffff1673ffffffffffffffffffffffffffffffffffffffff16815260200190815260200160002060006101000a81548160ff0219169083151502179055508173ffffffffffffffffffffffffffffffffffffffff16611fd761264a565b73ffffffffffffffffffffffffffffffffffffffff167f17307eab39ab6107e8899845ad3d59bd9653f200f220920489ca2b5937696c318360405180821515815260200191505060405180910390a35050565b600a60009054906101000a900473ffffffffffffffffffffffffffffffffffffffff1673ffffffffffffffffffffffffffffffffffffffff163373ffffffffffffffffffffffffffffffffffffffff16146120ed576040517f08c379a000000000000000000000000000000000000000000000000000000000815260040180806020018281038252600e8152602001807f6e6f7420676f7665726e616e636500000000000000000000000000000000000081525060200191505060405180910390fd5b600073ffffffffffffffffffffffffffffffffffffffff168173ffffffffffffffffffffffffffffffffffffffff161415612190576040517f08c379a000000000000000000000000000000000000000000000000000000000815260040180806020018281038252601f8152602001807f6e657720676f7665726e616e636520746865207a65726f20616464726573730081525060200191505060405180910390fd5b8073ffffffffffffffffffffffffffffffffffffffff16600a60009054906101000a900473ffffffffffffffffffffffffffffffffffffffff1673ffffffffffffffffffffffffffffffffffffffff167f5f56bee8cffbe9a78652a74a60705edede02af10b0bbb888ca44b79a0d42ce8060405160405180910390a380600a60006101000a81548173ffffffffffffffffffffffffffffffffffffffff021916908373ffffffffffffffffffffffffffffffffffffffff16021790555050565b61226161225b61264a565b83612720565b6122b6576040517f08c379a000000000000000000000000000000000000000000000000000000000815260040180806020018281038252603181526020018061408d6031913960400191505060405180910390fd5b6122c284848484613076565b50505050565b60606122d38261262d565b612328576040517f08c379a000000000000000000000000000000000000000000000000000000000815260040180806020018281038252602f81526020018061403d602f913960400191505060405180910390fd5b6060600860008481526020019081526020016000208054600181600116156101000203166002900480601f0160208091040260200160405190810160405280929190818152602001828054600181600116156101000203166002900480156123d15780601f106123a6576101008083540402835291602001916123d1565b820191906000526020600020905b8154815290600101906020018083116123b457829003601f168201915b5050505050905060606123e261177b565b90506000815114156123f8578192505050612594565b6000825111156124c95780826040516020018083805190602001908083835b6020831061243a5780518252602082019150602081019050602083039250612417565b6001836020036101000a03801982511681845116808217855250505050505090500182805190602001908083835b6020831061248b5780518252602082019150602081019050602083039250612468565b6001836020036101000a0380198251168184511680821785525050505050509050019250505060405160208183030381529060405292505050612594565b806124d3856130e8565b6040516020018083805190602001908083835b6020831061250957805182526020820191506020810190506020830392506124e6565b6001836020036101000a03801982511681845116808217855250505050505090500182805190602001908083835b6020831061255a5780518252602082019150602081019050602083039250612537565b6001836020036101000a03801982511681845116808217855250505050505090500192505050604051602081830303815290604052925050505b919050565b6000600560008473ffffffffffffffffffffffffffffffffffffffff1673ffffffffffffffffffffffffffffffffffffffff16815260200190815260200160002060008373ffffffffffffffffffffffffffffffffffffffff1673ffffffffffffffffffffffffffffffffffffffff16815260200190815260200160002060009054906101000a900460ff16905092915050565b600061264382600261322f90919063ffffffff16565b9050919050565b600033905090565b816004600083815260200190815260200160002060006101000a81548173ffffffffffffffffffffffffffffffffffffffff021916908373ffffffffffffffffffffffffffffffffffffffff160217905550808273ffffffffffffffffffffffffffffffffffffffff166126c583611675565b73ffffffffffffffffffffffffffffffffffffffff167f8c5be1e5ebec7d5bd14f71427d1e84f3dd0314c0f7b2291e5b200ac8c7c3b92560405160405180910390a45050565b600061271982600001613249565b9050919050565b600061272b8261262d565b612780576040517f08c379a000000000000000000000000000000000000000000000000000000000815260040180806020018281038252602c815260200180613ee3602c913960400191505060405180910390fd5b600061278b83611675565b90508073ffffffffffffffffffffffffffffffffffffffff168473ffffffffffffffffffffffffffffffffffffffff1614806127fa57508373ffffffffffffffffffffffffffffffffffffffff166127e284610f16565b73ffffffffffffffffffffffffffffffffffffffff16145b8061280b575061280a8185612599565b5b91505092915050565b8273ffffffffffffffffffffffffffffffffffffffff1661283482611675565b73ffffffffffffffffffffffffffffffffffffffff16146128a0576040517f08c379a00000000000000000000000000000000000000000000000000000000081526004018080602001828103825260298152602001806140146029913960400191505060405180910390fd5b600073ffffffffffffffffffffffffffffffffffffffff168273ffffffffffffffffffffffffffffffffffffffff161415612926576040517f08c379a0000000000000000000000000000000000000000000000000000000008152600401808060200182810382526024815260200180613e996024913960400191505060405180910390fd5b61293183838361325a565b61293c600082612652565b61298d81600160008673ffffffffffffffffffffffffffffffffffffffff1673ffffffffffffffffffffffffffffffffffffffff16815260200190815260200160002061325f90919063ffffffff16565b506129df81600160008573ffffffffffffffffffffffffffffffffffffffff1673ffffffffffffffffffffffffffffffffffffffff16815260200190815260200160002061327990919063ffffffff16565b506129f6818360026132939092919063ffffffff16565b50808273ffffffffffffffffffffffffffffffffffffffff168473ffffffffffffffffffffffffffffffffffffffff167fddf252ad1be2c89b69c2b068fc378daa952ba7f163c4a11628f55a4df523b3ef60405160405180910390a4505050565b6000612a6683600001836132c8565b60001c905092915050565b600073ffffffffffffffffffffffffffffffffffffffff168273ffffffffffffffffffffffffffffffffffffffff161415612b14576040517f08c379a00000000000000000000000000000000000000000000000000000000081526004018080602001828103825260208152602001807f4552433732313a206d696e7420746f20746865207a65726f206164647265737381525060200191505060405180910390fd5b612b1d8161262d565b15612b90576040517f08c379a000000000000000000000000000000000000000000000000000000000815260040180806020018281038252601c8152602001807f4552433732313a20746f6b656e20616c7265616479206d696e7465640000000081525060200191505060405180910390fd5b612b9c6000838361325a565b612bed81600160008573ffffffffffffffffffffffffffffffffffffffff1673ffffffffffffffffffffffffffffffffffffffff16815260200190815260200160002061327990919063ffffffff16565b50612c04818360026132939092919063ffffffff16565b50808273ffffffffffffffffffffffffffffffffffffffff16600073ffffffffffffffffffffffffffffffffffffffff167fddf252ad1be2c89b69c2b068fc378daa952ba7f163c4a11628f55a4df523b3ef60405160405180910390a45050565b60606000821415612cad576040518060400160405280600181526020017f30000000000000000000000000000000000000000000000000000000000000008152509050612da4565b600082905060005b60008214612cd7578080600101915050600a8281612ccf57fe5b049150612cb5565b60608167ffffffffffffffff81118015612cf057600080fd5b506040519080825280601f01601f191660200182016040528015612d235781602001600182028036833780820191505090505b50905060006001830390505b60008614612d9c57600a8681612d4157fe5b0660300160f81b82828060019003935081518110612d5b57fe5b60200101907effffffffffffffffffffffffffffffffffffffffffffffffffffffffffffff1916908160001a905350600a8681612d9457fe5b049550612d2f565b819450505050505b919050565b612db28261262d565b612e07576040517f08c379a000000000000000000000000000000000000000000000000000000000815260040180806020018281038252602c815260200180613fe8602c913960400191505060405180910390fd5b80600860008481526020019081526020016000209080519060200190612e2e929190613d51565b505050565b6000612e3e82611675565b9050612e4c8160008461325a565b612e57600083612652565b60006008600084815260200190815260200160002080546001816001161561010002031660029004905014612ea657600860008381526020019081526020016000206000612ea59190613ddf565b5b612ef782600160008473ffffffffffffffffffffffffffffffffffffffff1673ffffffffffffffffffffffffffffffffffffffff16815260200190815260200160002061325f90919063ffffffff16565b50612f0c82600261334b90919063ffffffff16565b5081600073ffffffffffffffffffffffffffffffffffffffff168273ffffffffffffffffffffffffffffffffffffffff167fddf252ad1be2c89b69c2b068fc378daa952ba7f163c4a11628f55a4df523b3ef60405160405180910390a45050565b600080600080612f808660000186613365565b915091508160001c8160001c9350935050509250929050565b6000612fac846000018460001b846133fe565b60001c90509392505050565b8060099080519060200190612fce929190613d51565b5050565b6000612fe0826000016134f4565b9050919050565b612ff18383612a71565b612ffe6000848484613505565b613053576040517f08c379a0000000000000000000000000000000000000000000000000000000008152600401808060200182810382526032815260200180613e676032913960400191505060405180910390fd5b505050565b613072828260405180602001604052806000815250612fe7565b5050565b613081848484612814565b61308d84848484613505565b6130e2576040517f08c379a0000000000000000000000000000000000000000000000000000000008152600401808060200182810382526032815260200180613e676032913960400191505060405180910390fd5b50505050565b60606000821415613130576040518060400160405280600181526020017f3000000000000000000000000000000000000000000000000000000000000000815250905061322a565b600082905060005b6000821461315a578080600101915050600a828161315257fe5b049150613138565b60608167ffffffffffffffff8111801561317357600080fd5b506040519080825280601f01601f1916602001820160405280156131a65781602001600182028036833780820191505090505b50905060006001830390508593505b6000841461322257600a84816131c757fe5b0660300160f81b828280600190039350815181106131e157fe5b60200101907effffffffffffffffffffffffffffffffffffffffffffffffffffffffffffff1916908160001a905350600a848161321a57fe5b0493506131b5565b819450505050505b919050565b6000613241836000018360001b61371e565b905092915050565b600081600001805490509050919050565b505050565b6000613271836000018360001b613741565b905092915050565b600061328b836000018360001b613829565b905092915050565b60006132bf846000018460001b8473ffffffffffffffffffffffffffffffffffffffff1660001b613899565b90509392505050565b600081836000018054905011613329576040517f08c379a0000000000000000000000000000000000000000000000000000000008152600401808060200182810382526022815260200180613e456022913960400191505060405180910390fd5b82600001828154811061333857fe5b9060005260206000200154905092915050565b600061335d836000018360001b613975565b905092915050565b600080828460000180549050116133c7576040517f08c379a0000000000000000000000000000000000000000000000000000000008152600401808060200182810382526022815260200180613f9a6022913960400191505060405180910390fd5b60008460000184815481106133d857fe5b906000526020600020906002020190508060000154816001015492509250509250929050565b600080846001016000858152602001908152602001600020549050600081141583906134c5576040517f08c379a00000000000000000000000000000000000000000000000000000000081526004018080602001828103825283818151815260200191508051906020019080838360005b8381101561348a57808201518184015260208101905061346f565b50505050905090810190601f1680156134b75780820380516001836020036101000a031916815260200191505b509250505060405180910390fd5b508460000160018203815481106134d857fe5b9060005260206000209060020201600101549150509392505050565b600081600001805490509050919050565b60006135268473ffffffffffffffffffffffffffffffffffffffff16613a8e565b6135335760019050613716565b606061369d63150b7a0260e01b61354861264a565b888787604051602401808573ffffffffffffffffffffffffffffffffffffffff1681526020018473ffffffffffffffffffffffffffffffffffffffff16815260200183815260200180602001828103825283818151815260200191508051906020019080838360005b838110156135cc5780820151818401526020810190506135b1565b50505050905090810190601f1680156135f95780820380516001836020036101000a031916815260200191505b5095505050505050604051602081830303815290604052907bffffffffffffffffffffffffffffffffffffffffffffffffffffffff19166020820180517bffffffffffffffffffffffffffffffffffffffffffffffffffffffff8381831617835250505050604051806060016040528060328152602001613e67603291398773ffffffffffffffffffffffffffffffffffffffff16613aa19092919063ffffffff16565b905060008180602001905160208110156136b657600080fd5b8101908080519060200190929190505050905063150b7a0260e01b7bffffffffffffffffffffffffffffffffffffffffffffffffffffffff1916817bffffffffffffffffffffffffffffffffffffffffffffffffffffffff191614925050505b949350505050565b600080836001016000848152602001908152602001600020541415905092915050565b6000808360010160008481526020019081526020016000205490506000811461381d576000600182039050600060018660000180549050039050600086600001828154811061378c57fe5b90600052602060002001549050808760000184815481106137a957fe5b90600052602060002001819055506001830187600101600083815260200190815260200160002081905550866000018054806137e157fe5b60019003818190600052602060002001600090559055866001016000878152602001908152602001600020600090556001945050505050613823565b60009150505b92915050565b60006138358383613ab9565b61388e578260000182908060018154018082558091505060019003906000526020600020016000909190919091505582600001805490508360010160008481526020019081526020016000208190555060019050613893565b600090505b92915050565b60008084600101600085815260200190815260200160002054905060008114156139405784600001604051806040016040528086815260200185815250908060018154018082558091505060019003906000526020600020906002020160009091909190915060008201518160000155602082015181600101555050846000018054905085600101600086815260200190815260200160002081905550600191505061396e565b8285600001600183038154811061395357fe5b90600052602060002090600202016001018190555060009150505b9392505050565b60008083600101600084815260200190815260200160002054905060008114613a8257600060018203905060006001866000018054905003905060008660000182815481106139c057fe5b90600052602060002090600202019050808760000184815481106139e057fe5b9060005260206000209060020201600082015481600001556001820154816001015590505060018301876001016000836000015481526020019081526020016000208190555086600001805480613a3357fe5b6001900381819060005260206000209060020201600080820160009055600182016000905550509055866001016000878152602001908152602001600020600090556001945050505050613a88565b60009150505b92915050565b600080823b905060008111915050919050565b6060613ab08484600085613adc565b90509392505050565b600080836001016000848152602001908152602001600020541415905092915050565b606082471015613b37576040517f08c379a0000000000000000000000000000000000000000000000000000000008152600401808060200182810382526026815260200180613ebd6026913960400191505060405180910390fd5b613b4085613a8e565b613bb2576040517f08c379a000000000000000000000000000000000000000000000000000000000815260040180806020018281038252601d8152602001807f416464726573733a2063616c6c20746f206e6f6e2d636f6e747261637400000081525060200191505060405180910390fd5b600060608673ffffffffffffffffffffffffffffffffffffffff1685876040518082805190602001908083835b60208310613c025780518252602082019150602081019050602083039250613bdf565b6001836020036101000a03801982511681845116808217855250505050505090500191505060006040518083038185875af1925050503d8060008114613c64576040519150601f19603f3d011682016040523d82523d6000602084013e613c69565b606091505b5091509150613c79828286613c85565b92505050949350505050565b60608315613c9557829050613d4a565b600083511115613ca85782518084602001fd5b816040517f08c379a00000000000000000000000000000000000000000000000000000000081526004018080602001828103825283818151815260200191508051906020019080838360005b83811015613d0f578082015181840152602081019050613cf4565b50505050905090810190601f168015613d3c5780820380516001836020036101000a031916815260200191505b509250505060405180910390fd5b9392505050565b828054600181600116156101000203166002900490600052602060002090601f016020900481019282613d875760008555613dce565b82601f10613da057805160ff1916838001178555613dce565b82800160010185558215613dce579182015b82811115613dcd578251825591602001919060010190613db2565b5b509050613ddb9190613e27565b5090565b50805460018160011615610100020316600290046000825580601f10613e055750613e24565b601f016020900490600052602060002090810190613e239190613e27565b5b50565b5b80821115613e40576000816000905550600101613e28565b509056fe456e756d657261626c655365743a20696e646578206f7574206f6620626f756e64734552433732313a207472616e7366657220746f206e6f6e20455243373231526563656976657220696d706c656d656e7465724552433732313a207472616e7366657220746f20746865207a65726f2061646472657373416464726573733a20696e73756666696369656e742062616c616e636520666f722063616c6c4552433732313a206f70657261746f7220717565727920666f72206e6f6e6578697374656e7420746f6b656e4552433732313a20617070726f76652063616c6c6572206973206e6f74206f776e6572206e6f7220617070726f76656420666f7220616c6c4552433732313a2062616c616e636520717565727920666f7220746865207a65726f20616464726573734552433732313a206f776e657220717565727920666f72206e6f6e6578697374656e7420746f6b656e456e756d657261626c654d61703a20696e646578206f7574206f6620626f756e64734552433732313a20617070726f76656420717565727920666f72206e6f6e6578697374656e7420746f6b656e4552433732314d657461646174613a2055524920736574206f66206e6f6e6578697374656e7420746f6b656e4552433732313a207472616e73666572206f6620746f6b656e2074686174206973206e6f74206f776e4552433732314d657461646174613a2055524920717565727920666f72206e6f6e6578697374656e7420746f6b656e4552433732313a20617070726f76616c20746f2063757272656e74206f776e65724552433732313a207472616e736665722063616c6c6572206973206e6f74206f776e6572206e6f7220617070726f766564a26469706673582212208eb236fb88628c0749457d320df0312b0aab4c9f4d81f3ec8646ac52aea3b44864736f6c63430007040033a2646970667358221220d17710bf812188c54dd4aca8724fbfed4afac26bfb3de18643350df1880151e264736f6c63430007040033",
  "immutableReferences": {
    "7275": [
      {
        "length": 32,
        "start": 3046
      },
      {
        "length": 32,
        "start": 10283
      }
    ],
    "7277": [
      {
        "length": 32,
        "start": 6217
      },
      {
        "length": 32,
        "start": 10343
      }
    ]
  },
  "source": "// SPDX-License-Identifier: MIT\r\npragma solidity ^0.7.4;\r\npragma experimental ABIEncoderV2;\r\n\r\nimport \"@openzeppelin/contracts/math/SafeMath.sol\";\r\nimport \"@openzeppelin/contracts/token/ERC721/IERC721.sol\";\r\nimport \"@openzeppelin/contracts/token/ERC721/IERC721Receiver.sol\";\r\nimport \"@openzeppelin/contracts/utils/Address.sol\";\r\nimport \"@openzeppelin/contracts/token/ERC20/ERC20.sol\";\r\nimport \"@chainlink/contracts/src/v0.7/VRFConsumerBase.sol\";\r\nimport \"../library/Governance.sol\";\r\nimport \"../interface/INftAsset.sol\";\r\nimport \"./SantaV2.sol\";\r\n\r\ncontract SantaFactory2V2 is Governance, VRFConsumerBase, IERC721Receiver {\r\n    using Address for address;\r\n    using SafeMath for uint256;\r\n    struct SantaV2Data {\r\n        address santa;\r\n        uint256 id;\r\n        uint256 face_value;\r\n        uint256 createdTime;\r\n    }\r\n    struct SantaContractData {\r\n        ERC20 acceptedToken;\r\n        uint256 maxCount;\r\n        address santa;\r\n    }\r\n    event SantaV2NFTAdded(\r\n        address santa,\r\n        uint256 indexed id,\r\n        address author,\r\n        uint256 face_value\r\n    );\r\n    event SantaV2Created(\r\n        string name,\r\n        string symbol,\r\n        address acceptedToken,\r\n        address santa,\r\n        uint256 maxCount\r\n    );\r\n\r\n    mapping(string => SantaContractData) _nameToContractData;\r\n    string[] public _names;\r\n    mapping(address => SantaContractData) _addressToContractData;\r\n    mapping(address => mapping(uint256 => SantaV2Data)) public _santas;\r\n    ERC20 _cifiTokenContract = ERC20(0x0);\r\n\r\n    address public _feeAccount = address(0x0000000000000000000000);\r\n    uint256 public _feeAmount = 0;\r\n\r\n    uint256 _linkFee = 0;\r\n    bytes32 _linkKeyHash = bytes32(\"\");\r\n    mapping(bytes32 => address) public requestIdToMinter;\r\n    mapping(bytes32 => address) public requestIdToSanta;\r\n    mapping(bytes32 => uint256) public requestIdToFaceValue;\r\n\r\n    constructor(\r\n        address cifi,\r\n        address vrfCoordinator,\r\n        address linkToken,\r\n        bytes32 linkKeyHash,\r\n        uint256 linkFee\r\n    ) VRFConsumerBase(vrfCoordinator, linkToken) {\r\n        _cifiTokenContract = ERC20(cifi);\r\n        _feeAccount = msg.sender;\r\n        _feeAmount = 1 * (10**18);\r\n        _linkFee = linkFee;\r\n        _linkKeyHash = linkKeyHash;\r\n    }\r\n\r\n    function createSanta(\r\n        string memory name,\r\n        string memory symbol,\r\n        string memory baseURI,\r\n        address acceptedToken,\r\n        uint256 maxNftCount\r\n    ) public onlyGovernance returns (address) {\r\n        require(\r\n            _nameToContractData[name].santa == address(0),\r\n            \"The name was already used\"\r\n        );\r\n        SantaV2 santa = new SantaV2(name, symbol, baseURI);\r\n        SantaContractData memory contractData;\r\n        contractData.acceptedToken = ERC20(acceptedToken);\r\n        contractData.maxCount = maxNftCount;\r\n        contractData.santa = address(santa);\r\n        _nameToContractData[name] = contractData;\r\n        _addressToContractData[address(santa)] = contractData;\r\n        _names.push(name);\r\n        emit SantaV2Created(\r\n            name,\r\n            symbol,\r\n            acceptedToken,\r\n            address(santa),\r\n            maxNftCount\r\n        );\r\n        return address(santa);\r\n    }\r\n\r\n    function getContractNames() public view returns (string[] memory) {\r\n        return _names;\r\n    }\r\n\r\n    function getContractData(string memory name)\r\n        public\r\n        view\r\n        returns (\r\n            address acceptedToken,\r\n            uint256 maxCount,\r\n            address santa\r\n        )\r\n    {\r\n        SantaContractData memory contractData = _nameToContractData[name];\r\n        require(\r\n            contractData.santa != address(0),\r\n            \"SantaFactory2V2: Invalid name\"\r\n        );\r\n        acceptedToken = address(contractData.acceptedToken);\r\n        maxCount = contractData.maxCount;\r\n        santa = contractData.santa;\r\n    }\r\n\r\n    function getFaceValue(address santa, uint256 tokenId)\r\n        public\r\n        view\r\n        returns (uint256)\r\n    {\r\n        SantaV2Data memory santa_data = _santas[santa][tokenId];\r\n        return santa_data.face_value;\r\n    }\r\n\r\n    /**\r\n     * @dev set cifi contract address\r\n     */\r\n    function setCifiContract(address cifi) public onlyGovernance {\r\n        _cifiTokenContract = ERC20(cifi);\r\n    }\r\n\r\n    function ChangeFeeAccount(address newFeeAccount)\r\n        public\r\n        onlyGovernance\r\n        returns (bool)\r\n    {\r\n        _feeAccount = newFeeAccount;\r\n        return true;\r\n    }\r\n\r\n    function ChangeFeeAmount(uint256 newFeeAmount)\r\n        public\r\n        onlyGovernance\r\n        returns (bool)\r\n    {\r\n        _feeAmount = newFeeAmount;\r\n        return true;\r\n    }\r\n\r\n    function mint(address santa, uint256 face_value) public returns (bytes32) {\r\n        SantaContractData memory contractData = _addressToContractData[santa];\r\n        require(\r\n            face_value > 0,\r\n            \"SantaFactory2V2: face_value should be grater than 0!\"\r\n        );\r\n        require(\r\n            contractData.santa != address(0) && contractData.santa == santa,\r\n            \"SantaFactory2V2: Invalid Nft address\"\r\n        );\r\n        require(\r\n            contractData.acceptedToken.allowance(msg.sender, address(this)) >=\r\n                face_value,\r\n            \"SantaFactory2V2: Allownce is less than face_value!\"\r\n        );\r\n\r\n        require(\r\n            contractData.acceptedToken.balanceOf(msg.sender) >= face_value,\r\n            \"SantaFactory2V2: Your balance is less than face value!\"\r\n        );\r\n\r\n        require(\r\n            LINK.balanceOf(address(this)) >= _linkFee,\r\n            \"SantaFactory2V2: Not enough LINK - fill contract with faucet\"\r\n        );\r\n        require(\r\n            SantaV2(santa).totalSupply() < contractData.maxCount,\r\n            \"SantaFactory2V2: Total tokens were already minted!\"\r\n        );\r\n        _cifiTokenContract.transferFrom(msg.sender, _feeAccount, _feeAmount);\r\n        contractData.acceptedToken.transferFrom(\r\n            msg.sender,\r\n            address(this),\r\n            face_value\r\n        );\r\n        bytes32 requestId = requestRandomness(_linkKeyHash, _linkFee);\r\n        requestIdToMinter[requestId] = msg.sender;\r\n        requestIdToSanta[requestId] = santa;\r\n        requestIdToFaceValue[requestId] = face_value;\r\n        return requestId;\r\n    }\r\n\r\n    function fulfillRandomness(bytes32 requestId, uint256 randomness)\r\n        internal\r\n        override\r\n    {\r\n        address santa = requestIdToSanta[requestId];\r\n        SantaContractData memory contractData = _addressToContractData[santa];\r\n        require(\r\n            SantaV2(santa).totalSupply() < contractData.maxCount,\r\n            \"Total tokens were already minted!\"\r\n        );\r\n        address minter = requestIdToMinter[requestId];\r\n        uint256 nftID = (randomness % contractData.maxCount) + 1;\r\n\r\n        while (SantaV2(santa).exists(nftID)) {\r\n            nftID = ((nftID + 1) % contractData.maxCount) + 1;\r\n        }\r\n        uint256 face_value = requestIdToFaceValue[requestId];\r\n\r\n        SantaV2(santa).mint(minter, nftID);\r\n\r\n        SantaV2Data memory santa_data;\r\n        santa_data.santa = santa;\r\n        santa_data.id = nftID;\r\n        santa_data.face_value = face_value;\r\n        santa_data.createdTime = block.timestamp;\r\n        _santas[santa][nftID] = santa_data;\r\n        emit SantaV2NFTAdded(santa, nftID, minter, face_value);\r\n    }\r\n\r\n    function retrieveToken(address santa, uint256 tokenId)\r\n        external\r\n        returns (bool)\r\n    {\r\n        require(santa != address(0), \"SantaFactoryV2: ! 0 address\");\r\n        SantaV2Data memory santa_data = _santas[santa][tokenId];\r\n        SantaContractData memory contractData = _addressToContractData[santa];\r\n        require(santa_data.id > 0, \"SantaFactoryV2: not exist\");\r\n        require(\r\n            contractData.santa == santa,\r\n            \"SantaFactoryV2: Invalid Santa Address\"\r\n        );\r\n        require(\r\n            santa_data.santa == santa,\r\n            \"SantaFactoryV2: Invalid Santa Address\"\r\n        );\r\n        require(\r\n            SantaV2(santa).ownerOf(tokenId) == msg.sender,\r\n            \"SantaFactoryV2: Invalid owner\"\r\n        );\r\n        if (santa_data.face_value >= 0) {\r\n            contractData.acceptedToken.transfer(\r\n                SantaV2(santa).ownerOf(tokenId),\r\n                santa_data.face_value\r\n            );\r\n            santa_data.face_value = 0;\r\n            _santas[santa][tokenId] = santa_data;\r\n        }\r\n        return true;\r\n    }\r\n\r\n    function burn(address santa, uint256 tokenId) external returns (bool) {\r\n        SantaV2Data memory santa_data = _santas[santa][tokenId];\r\n        SantaContractData memory contractData = _addressToContractData[santa];\r\n        require(santa_data.id > 0, \"not exist\");\r\n\r\n        SantaV2(santa).safeTransferFrom(msg.sender, address(this), tokenId);\r\n        if (santa_data.face_value >= 0) {\r\n            contractData.acceptedToken.transfer(\r\n                SantaV2(santa).ownerOf(tokenId),\r\n                santa_data.face_value\r\n            );\r\n        }\r\n\r\n        SantaV2(santa).burn(tokenId);\r\n        delete _santas[santa][tokenId];\r\n        return true;\r\n    }\r\n\r\n    function onERC721Received(\r\n        address,\r\n        address,\r\n        uint256,\r\n        bytes memory\r\n    ) public virtual override returns (bytes4) {\r\n        return this.onERC721Received.selector;\r\n    }\r\n}\r\n",
  "sourcePath": "F:/MyWork/LianHe/Citizen/NFT_Staking/src/contracts/nft/SantaFactory2V2.sol",
  "compiler": {
    "name": "solc",
    "version": "0.7.4+commit.3f05b770.Emscripten.clang"
  },
  "schemaVersion": "3.4.1",
  "updatedAt": "2021-07-27T17:48:51.843Z",
  "networkType": "ethereum",
  "devdoc": {
    "kind": "dev",
    "methods": {
      "setCifiContract(address)": {
        "details": "set cifi contract address"
      }
    },
    "version": 1
  },
  "userdoc": {
    "kind": "user",
    "methods": {},
    "version": 1
  }
}