{
  "contractName": "SantaFactoryV2",
  "abi": [
    {
      "inputs": [
        {
          "internalType": "address",
          "name": "cifi",
          "type": "address"
        },
        {
          "internalType": "address",
          "name": "santaV2",
          "type": "address"
        },
        {
          "internalType": "uint256",
          "name": "maxNftCount",
          "type": "uint256"
        },
        {
          "internalType": "address",
          "name": "vrfCoordinator",
          "type": "address"
        },
        {
          "internalType": "address",
          "name": "linkToken",
          "type": "address"
        },
        {
          "internalType": "bytes32",
          "name": "linkKeyHash",
          "type": "bytes32"
        },
        {
          "internalType": "uint256",
          "name": "linkFee",
          "type": "uint256"
        }
      ],
      "stateMutability": "nonpayable",
      "type": "constructor"
    },
    {
      "anonymous": false,
      "inputs": [
        {
          "indexed": true,
          "internalType": "address",
          "name": "previousOwner",
          "type": "address"
        },
        {
          "indexed": true,
          "internalType": "address",
          "name": "newOwner",
          "type": "address"
        }
      ],
      "name": "GovernanceTransferred",
      "type": "event"
    },
    {
      "anonymous": false,
      "inputs": [
        {
          "indexed": true,
          "internalType": "uint256",
          "name": "id",
          "type": "uint256"
        },
        {
          "indexed": false,
          "internalType": "address",
          "name": "author",
          "type": "address"
        },
        {
          "indexed": false,
          "internalType": "uint256",
          "name": "face_value",
          "type": "uint256"
        }
      ],
      "name": "SantaV2NFTAdded",
      "type": "event"
    },
    {
      "inputs": [
        {
          "internalType": "address",
          "name": "",
          "type": "address"
        }
      ],
      "name": "_claimMembers",
      "outputs": [
        {
          "internalType": "bool",
          "name": "",
          "type": "bool"
        }
      ],
      "stateMutability": "view",
      "type": "function"
    },
    {
      "inputs": [],
      "name": "_governance",
      "outputs": [
        {
          "internalType": "address",
          "name": "",
          "type": "address"
        }
      ],
      "stateMutability": "view",
      "type": "function"
    },
    {
      "inputs": [
        {
          "internalType": "address",
          "name": "",
          "type": "address"
        }
      ],
      "name": "_lastMintedNFTId",
      "outputs": [
        {
          "internalType": "uint256",
          "name": "",
          "type": "uint256"
        }
      ],
      "stateMutability": "view",
      "type": "function"
    },
    {
      "inputs": [
        {
          "internalType": "address",
          "name": "",
          "type": "address"
        }
      ],
      "name": "_minters",
      "outputs": [
        {
          "internalType": "bool",
          "name": "",
          "type": "bool"
        }
      ],
      "stateMutability": "view",
      "type": "function"
    },
    {
      "inputs": [
        {
          "internalType": "address",
          "name": "",
          "type": "address"
        }
      ],
      "name": "_mintingStatus",
      "outputs": [
        {
          "internalType": "bool",
          "name": "",
          "type": "bool"
        }
      ],
      "stateMutability": "view",
      "type": "function"
    },
    {
      "inputs": [],
      "name": "_santa",
      "outputs": [
        {
          "internalType": "contract SantaV2",
          "name": "",
          "type": "address"
        }
      ],
      "stateMutability": "view",
      "type": "function"
    },
    {
      "inputs": [
        {
          "internalType": "uint256",
          "name": "",
          "type": "uint256"
        }
      ],
      "name": "_santas",
      "outputs": [
        {
          "internalType": "uint256",
          "name": "id",
          "type": "uint256"
        },
        {
          "internalType": "uint256",
          "name": "face_value",
          "type": "uint256"
        },
        {
          "internalType": "uint256",
          "name": "createdTime",
          "type": "uint256"
        }
      ],
      "stateMutability": "view",
      "type": "function"
    },
    {
      "inputs": [],
      "name": "_stakingPowaBase",
      "outputs": [
        {
          "internalType": "uint256",
          "name": "",
          "type": "uint256"
        }
      ],
      "stateMutability": "view",
      "type": "function"
    },
    {
      "inputs": [
        {
          "internalType": "bytes32",
          "name": "requestId",
          "type": "bytes32"
        },
        {
          "internalType": "uint256",
          "name": "randomness",
          "type": "uint256"
        }
      ],
      "name": "rawFulfillRandomness",
      "outputs": [],
      "stateMutability": "nonpayable",
      "type": "function"
    },
    {
      "inputs": [
        {
          "internalType": "bytes32",
          "name": "",
          "type": "bytes32"
        }
      ],
      "name": "requestIdToAddress",
      "outputs": [
        {
          "internalType": "address",
          "name": "",
          "type": "address"
        }
      ],
      "stateMutability": "view",
      "type": "function"
    },
    {
      "inputs": [
        {
          "internalType": "bytes32",
          "name": "",
          "type": "bytes32"
        }
      ],
      "name": "requestIdToFaceValue",
      "outputs": [
        {
          "internalType": "uint256",
          "name": "",
          "type": "uint256"
        }
      ],
      "stateMutability": "view",
      "type": "function"
    },
    {
      "inputs": [
        {
          "internalType": "address",
          "name": "governance",
          "type": "address"
        }
      ],
      "name": "setGovernance",
      "outputs": [],
      "stateMutability": "nonpayable",
      "type": "function"
    },
    {
      "inputs": [
        {
          "internalType": "address",
          "name": "minter",
          "type": "address"
        }
      ],
      "name": "addMinter",
      "outputs": [],
      "stateMutability": "nonpayable",
      "type": "function"
    },
    {
      "inputs": [
        {
          "internalType": "address",
          "name": "minter",
          "type": "address"
        }
      ],
      "name": "removeMinter",
      "outputs": [],
      "stateMutability": "nonpayable",
      "type": "function"
    },
    {
      "inputs": [
        {
          "internalType": "uint256",
          "name": "tokenId",
          "type": "uint256"
        }
      ],
      "name": "getFaceValue",
      "outputs": [
        {
          "internalType": "uint256",
          "name": "",
          "type": "uint256"
        }
      ],
      "stateMutability": "view",
      "type": "function"
    },
    {
      "inputs": [
        {
          "internalType": "address",
          "name": "cifi",
          "type": "address"
        }
      ],
      "name": "setCifiContract",
      "outputs": [],
      "stateMutability": "nonpayable",
      "type": "function"
    },
    {
      "inputs": [
        {
          "internalType": "uint256",
          "name": "face_value",
          "type": "uint256"
        }
      ],
      "name": "mint",
      "outputs": [
        {
          "internalType": "bytes32",
          "name": "",
          "type": "bytes32"
        }
      ],
      "stateMutability": "nonpayable",
      "type": "function"
    },
    {
      "inputs": [],
      "name": "getLastClaimedNFTId",
      "outputs": [
        {
          "internalType": "uint256",
          "name": "",
          "type": "uint256"
        }
      ],
      "stateMutability": "view",
      "type": "function"
    },
    {
      "inputs": [
        {
          "internalType": "bool",
          "name": "statusValue",
          "type": "bool"
        }
      ],
      "name": "setMintingStatus",
      "outputs": [
        {
          "internalType": "bool",
          "name": "",
          "type": "bool"
        }
      ],
      "stateMutability": "nonpayable",
      "type": "function"
    },
    {
      "inputs": [],
      "name": "getMintingStatus",
      "outputs": [
        {
          "internalType": "bool",
          "name": "",
          "type": "bool"
        }
      ],
      "stateMutability": "view",
      "type": "function"
    },
    {
      "inputs": [
        {
          "internalType": "uint256",
          "name": "stakingPowa",
          "type": "uint256"
        }
      ],
      "name": "getClass",
      "outputs": [
        {
          "internalType": "uint256",
          "name": "",
          "type": "uint256"
        }
      ],
      "stateMutability": "view",
      "type": "function"
    },
    {
      "inputs": [
        {
          "internalType": "uint256",
          "name": "tokenId",
          "type": "uint256"
        }
      ],
      "name": "retrieveToken",
      "outputs": [
        {
          "internalType": "bool",
          "name": "",
          "type": "bool"
        }
      ],
      "stateMutability": "nonpayable",
      "type": "function"
    },
    {
      "inputs": [
        {
          "internalType": "uint256",
          "name": "tokenId",
          "type": "uint256"
        }
      ],
      "name": "burn",
      "outputs": [
        {
          "internalType": "bool",
          "name": "",
          "type": "bool"
        }
      ],
      "stateMutability": "nonpayable",
      "type": "function"
    },
    {
      "inputs": [
        {
          "internalType": "address",
          "name": "",
          "type": "address"
        },
        {
          "internalType": "address",
          "name": "",
          "type": "address"
        },
        {
          "internalType": "uint256",
          "name": "",
          "type": "uint256"
        },
        {
          "internalType": "bytes",
          "name": "",
          "type": "bytes"
        }
      ],
      "name": "onERC721Received",
      "outputs": [
        {
          "internalType": "bytes4",
          "name": "",
          "type": "bytes4"
        }
      ],
      "stateMutability": "nonpayable",
      "type": "function"
    }
  ],
  "bytecode": "0x60c060405261271060025560006006819055600780546001600160a01b03199081169091556008805490911690556009819055600a5534801561004157600080fd5b50604051611c69380380611c69833981810160405260e081101561006457600080fd5b5080516020820151604083015160608085015160808087015160a08089015160c090990151600080546001600160a01b031990811632179091556001600160601b031995871b86169092529190941b9092169052600780546001600160a01b0396871690841617905560069290925560088054949093169316929092179055600955600a5560805160601c60a05160601c611b4d61011c60003980610d5f52806117d152508061103852806117a25250611b4d6000f3fe608060405234801561001057600080fd5b50600436106101585760003560e01c806394985ddd116100c3578063bc64beee1161007c578063bc64beee14610479578063c81d56be14610496578063d697e916146104bc578063e6952b5f146104f7578063ea38fec514610514578063eee699cb1461051c57610158565b806394985ddd146103bf57806395a47652146103e2578063983b2d56146103ea578063a0712d6814610410578063a47b252a1461042d578063ab033ea91461045357610158565b80633f84561f116101155780633f84561f1461030657806342966c681461032c578063512d62df1461034957806351a56893146103665780635542f680146103835780637420aa36146103a057610158565b8063150b7a021461015d5780631580db91146102405780631ab1358a1461025a5780631c2f3e3d146102805780633092afd5146102a45780633575597d146102cc575b600080fd5b6102236004803603608081101561017357600080fd5b6001600160a01b038235811692602081013590911691604082013591908101906080810160608201356401000000008111156101ae57600080fd5b8201836020820111156101c057600080fd5b803590602001918460018302840111640100000000831117156101e257600080fd5b91908080601f016020809104026020016040519081016040528093929190818152602001838380828437600092019190915250929550610524945050505050565b604080516001600160e01b03199092168252519081900360200190f35b610248610534565b60408051918252519081900360200190f35b6102486004803603602081101561027057600080fd5b50356001600160a01b031661053a565b61028861054c565b604080516001600160a01b039092168252519081900360200190f35b6102ca600480360360208110156102ba57600080fd5b50356001600160a01b031661055b565b005b6102f2600480360360208110156102e257600080fd5b50356001600160a01b03166105cc565b604080519115158252519081900360200190f35b6102ca6004803603602081101561031c57600080fd5b50356001600160a01b03166105e1565b6102f26004803603602081101561034257600080fd5b5035610653565b6102486004803603602081101561035f57600080fd5b50356108d2565b6102486004803603602081101561037c57600080fd5b5035610a5e565b6102f26004803603602081101561039957600080fd5b5035610aa2565b6102f2600480360360208110156103b657600080fd5b50351515610d36565b6102ca600480360360408110156103d557600080fd5b5080359060200135610d54565b6102f2610ddf565b6102ca6004803603602081101561040057600080fd5b50356001600160a01b0316610df5565b6102486004803603602081101561042657600080fd5b5035610e69565b6102f26004803603602081101561044357600080fd5b50356001600160a01b0316611281565b6102ca6004803603602081101561046957600080fd5b50356001600160a01b0316611296565b6102886004803603602081101561048f57600080fd5b503561139c565b6102f2600480360360208110156104ac57600080fd5b50356001600160a01b03166113b7565b6104d9600480360360208110156104d257600080fd5b50356113cc565b60408051938452602084019290925282820152519081900360600190f35b6102486004803603602081101561050d57600080fd5b50356113ed565b6102886113ff565b61024861140e565b630a85bd0160e11b949350505050565b60025481565b600d6020526000908152604090205481565b6000546001600160a01b031681565b6000546001600160a01b031633146105ab576040805162461bcd60e51b815260206004820152600e60248201526d6e6f7420676f7665726e616e636560901b604482015290519081900360640190fd5b6001600160a01b03166000908152600360205260409020805460ff19169055565b60036020526000908152604090205460ff1681565b6000546001600160a01b03163314610631576040805162461bcd60e51b815260206004820152600e60248201526d6e6f7420676f7665726e616e636560901b604482015290519081900360640190fd5b600780546001600160a01b0319166001600160a01b0392909216919091179055565b600061065d611a20565b5060008281526005602090815260409182902082516060810184528154808252600183015493820193909352600290910154928101929092526106d3576040805162461bcd60e51b81526020600482015260096024820152681b9bdd08195e1a5cdd60ba1b604482015290519081900360640190fd5b60085460408051632142170760e11b81523360048201523060248201526044810186905290516001600160a01b03909216916342842e0e9160648082019260009290919082900301818387803b15801561072c57600080fd5b505af1158015610740573d6000803e3d6000fd5b50505050600754600854604080516331a9108f60e11b81526004810187905290516001600160a01b039384169363a9059cbb931691636352211e916024808301926020929190829003018186803b15801561079a57600080fd5b505afa1580156107ae573d6000803e3d6000fd5b505050506040513d60208110156107c457600080fd5b5051602084810151604080516001600160e01b031960e087901b1681526001600160a01b0390941660048501526024840191909152516044808401938290030181600087803b15801561081657600080fd5b505af115801561082a573d6000803e3d6000fd5b505050506040513d602081101561084057600080fd5b505060085460408051630852cd8d60e31b81526004810186905290516001600160a01b03909216916342966c689160248082019260009290919082900301818387803b15801561088f57600080fd5b505af11580156108a3573d6000803e3d6000fd5b50505060008481526005602052604081208181556001808201839055600290910191909155925050505b919050565b60006108f76103e86108f16101f460025461142190919063ffffffff16565b90611483565b821015610906575060016108cd565b816109246103e86108f16101f460025461142190919063ffffffff16565b1115801561094d575061094a6103e86108f161032060025461142190919063ffffffff16565b82105b1561095a575060026108cd565b816109786103e86108f161032060025461142190919063ffffffff16565b111580156109a1575061099e6103e86108f161038460025461142190919063ffffffff16565b82105b156109ae575060036108cd565b816109cc6103e86108f161038460025461142190919063ffffffff16565b111580156109f557506109f26103e86108f16103d460025461142190919063ffffffff16565b82105b15610a02575060046108cd565b81610a206103e86108f16103d460025461142190919063ffffffff16565b11158015610a495750610a466103e86108f16103e660025461142190919063ffffffff16565b82105b15610a56575060056108cd565b5060066108cd565b6000610a68611a20565b5050600090815260056020908152604091829020825160608101845281548152600182015492810183905260029091015492019190915290565b6000610aac611a20565b506000828152600560209081526040918290208251606081018452815480825260018301549382019390935260029091015492810192909252610b36576040805162461bcd60e51b815260206004820152601960248201527f53616e7461466163746f727956323a206e6f7420657869737400000000000000604482015290519081900360640190fd5b600854604080516331a9108f60e11b815260048101869052905133926001600160a01b031691636352211e916024808301926020929190829003018186803b158015610b8157600080fd5b505afa158015610b95573d6000803e3d6000fd5b505050506040513d6020811015610bab57600080fd5b50516001600160a01b031614610c08576040805162461bcd60e51b815260206004820152601d60248201527f53616e7461466163746f727956323a20496e76616c6964206f776e6572000000604482015290519081900360640190fd5b600754600854604080516331a9108f60e11b81526004810187905290516001600160a01b039384169363a9059cbb931691636352211e916024808301926020929190829003018186803b158015610c5e57600080fd5b505afa158015610c72573d6000803e3d6000fd5b505050506040513d6020811015610c8857600080fd5b5051602084810151604080516001600160e01b031960e087901b1681526001600160a01b0390941660048501526024840191909152516044808401938290030181600087803b158015610cda57600080fd5b505af1158015610cee573d6000803e3d6000fd5b505050506040513d6020811015610d0457600080fd5b505060006020828101828152948252600590526040908190208251815593516001850155015160029092019190915590565b336000908152600e60205260409020805460ff191682151517905590565b336001600160a01b037f00000000000000000000000000000000000000000000000000000000000000001614610dd1576040805162461bcd60e51b815260206004820152601f60248201527f4f6e6c7920565246436f6f7264696e61746f722063616e2066756c66696c6c00604482015290519081900360640190fd5b610ddb82826114ea565b5050565b336000908152600e602052604090205460ff1690565b6000546001600160a01b03163314610e45576040805162461bcd60e51b815260206004820152600e60248201526d6e6f7420676f7665726e616e636560901b604482015290519081900360640190fd5b6001600160a01b03166000908152600360205260409020805460ff19166001179055565b6000808211610ea95760405162461bcd60e51b8152600401808060200182810382526023815260200180611af56023913960400191505060405180910390fd5b60075460408051636eb1769f60e11b8152336004820152306024820152905184926001600160a01b03169163dd62ed3e916044808301926020929190829003018186803b158015610ef957600080fd5b505afa158015610f0d573d6000803e3d6000fd5b505050506040513d6020811015610f2357600080fd5b50511015610f625760405162461bcd60e51b8152600401808060200182810382526021815260200180611a6d6021913960400191505060405180910390fd5b600754604080516370a0823160e01b8152336004820152905184926001600160a01b0316916370a08231916024808301926020929190829003018186803b158015610fac57600080fd5b505afa158015610fc0573d6000803e3d6000fd5b505050506040513d6020811015610fd657600080fd5b505110156110155760405162461bcd60e51b8152600401808060200182810382526025815260200180611a8e6025913960400191505060405180910390fd5b600954604080516370a0823160e01b815230600482015290516001600160a01b037f000000000000000000000000000000000000000000000000000000000000000016916370a08231916024808301926020929190829003018186803b15801561107e57600080fd5b505afa158015611092573d6000803e3d6000fd5b505050506040513d60208110156110a857600080fd5b505110156110e75760405162461bcd60e51b815260040180806020018281038252602b815260200180611a42602b913960400191505060405180910390fd5b600654600860009054906101000a90046001600160a01b03166001600160a01b03166318160ddd6040518163ffffffff1660e01b815260040160206040518083038186803b15801561113857600080fd5b505afa15801561114c573d6000803e3d6000fd5b505050506040513d602081101561116257600080fd5b5051106111a05760405162461bcd60e51b8152600401808060200182810382526021815260200180611ab36021913960400191505060405180910390fd5b600754604080516323b872dd60e01b81523360048201523060248201526044810185905290516001600160a01b03909216916323b872dd916064808201926020929091908290030181600087803b1580156111fa57600080fd5b505af115801561120e573d6000803e3d6000fd5b505050506040513d602081101561122457600080fd5b5050600a546009546000916112389161179e565b336000818152600e60209081526040808320805460ff19166001179055848352600b825280832080546001600160a01b031916909417909355600c905220849055915050919050565b600e6020526000908152604090205460ff1681565b6000546001600160a01b031633146112e6576040805162461bcd60e51b815260206004820152600e60248201526d6e6f7420676f7665726e616e636560901b604482015290519081900360640190fd5b6001600160a01b038116611341576040805162461bcd60e51b815260206004820152601f60248201527f6e657720676f7665726e616e636520746865207a65726f206164647265737300604482015290519081900360640190fd5b600080546040516001600160a01b03808516939216917f5f56bee8cffbe9a78652a74a60705edede02af10b0bbb888ca44b79a0d42ce8091a3600080546001600160a01b0319166001600160a01b0392909216919091179055565b600b602052600090815260409020546001600160a01b031681565b60046020526000908152604090205460ff1681565b60056020526000908152604090208054600182015460029092015490919083565b600c6020526000908152604090205481565b6008546001600160a01b031681565b336000908152600d602052604090205490565b6000826114305750600061147d565b8282028284828161143d57fe5b041461147a5760405162461bcd60e51b8152600401808060200182810382526021815260200180611ad46021913960400191505060405180910390fd5b90505b92915050565b60008082116114d9576040805162461bcd60e51b815260206004820152601a60248201527f536166654d6174683a206469766973696f6e206279207a65726f000000000000604482015290519081900360640190fd5b8183816114e257fe5b049392505050565b600654600860009054906101000a90046001600160a01b03166001600160a01b03166318160ddd6040518163ffffffff1660e01b815260040160206040518083038186803b15801561153b57600080fd5b505afa15801561154f573d6000803e3d6000fd5b505050506040513d602081101561156557600080fd5b5051106115a35760405162461bcd60e51b8152600401808060200182810382526021815260200180611ab36021913960400191505060405180910390fd5b6000828152600b60205260408120546006546001600160a01b03909116919083816115ca57fe5b0660010190505b60085460408051634f558e7960e01b81526004810184905290516001600160a01b0390921691634f558e7991602480820192602092909190829003018186803b15801561161d57600080fd5b505afa158015611631573d6000803e3d6000fd5b505050506040513d602081101561164757600080fd5b50511561166757600654816001018161165c57fe5b0660010190506115d1565b6000848152600c602090815260408083205460085482516340c10f1960e01b81526001600160a01b038881166004830152602482018890529351929593909116936340c10f199360448084019492938390030190829087803b1580156116cc57600080fd5b505af11580156116e0573d6000803e3d6000fd5b505050506040513d60208110156116f657600080fd5b506117019050611a20565b8281526020808201838152426040808501918252600087815260058552818120865181559351600185015591516002909301929092556001600160a01b038716808252600d8452828220879055600e845290829020805460ff191690558151908152918201849052805185927f70c0d43ffd5a7c050ea5410b4cf8694226561b7fbee070f431f3e3e214d55b8392908290030190a2505050505050565b60007f00000000000000000000000000000000000000000000000000000000000000006001600160a01b0316634000aea07f00000000000000000000000000000000000000000000000000000000000000008486600060405160200180838152602001828152602001925050506040516020818303038152906040526040518463ffffffff1660e01b815260040180846001600160a01b0316815260200183815260200180602001828103825283818151815260200191508051906020019080838360005b8381101561187b578181015183820152602001611863565b50505050905090810190601f1680156118a85780820380516001836020036101000a031916815260200191505b50945050505050602060405180830381600087803b1580156118c957600080fd5b505af11580156118dd573d6000803e3d6000fd5b505050506040513d60208110156118f357600080fd5b505060008381526001602052604081205461191390859083903090611953565b600085815260016020819052604090912054919250611932919061199a565b60008581526001602052604090205561194b84826119f4565b949350505050565b60408051602080820196909652808201949094526001600160a01b039290921660608401526080808401919091528151808403909101815260a09092019052805191012090565b60008282018381101561147a576040805162461bcd60e51b815260206004820152601b60248201527f536166654d6174683a206164646974696f6e206f766572666c6f770000000000604482015290519081900360640190fd5b604080516020808201949094528082019290925280518083038201815260609092019052805191012090565b6040518060600160405280600081526020016000815260200160008152509056fe4e6f7420656e6f756768204c494e4b202d2066696c6c20636f6e7472616374207769746820666175636574416c6c6f776e6365206973206c657373207468616e20666163655f76616c756521596f75722062616c616e6365206973206c657373207468616e20666163652076616c756521546f74616c20746f6b656e73207765726520616c7265616479206d696e74656421536166654d6174683a206d756c7469706c69636174696f6e206f766572666c6f77666163655f76616c75652073686f756c6420626520677261746572207468616e203021a264697066735822122037d5c971980ed036d741039b5395248699382635e50793cd6a299b5969f5dc0764736f6c63430007040033",
  "immutableReferences": {
    "77": [
      {
        "length": 32,
        "start": 4152
      },
      {
        "length": 32,
        "start": 6050
      }
    ],
    "79": [
      {
        "length": 32,
        "start": 3423
      },
      {
        "length": 32,
        "start": 6097
      }
    ]
  },
  "source": "// SPDX-License-Identifier: MIT\r\npragma solidity ^0.7.4;\r\n\r\nimport \"@openzeppelin/contracts/math/SafeMath.sol\";\r\nimport \"@openzeppelin/contracts/token/ERC721/IERC721.sol\";\r\nimport \"@openzeppelin/contracts/token/ERC721/IERC721Receiver.sol\";\r\nimport \"@openzeppelin/contracts/utils/Address.sol\";\r\nimport \"@openzeppelin/contracts/token/ERC20/ERC20.sol\";\r\nimport \"@chainlink/contracts/src/v0.7/VRFConsumerBase.sol\";\r\nimport \"../library/Governance.sol\";\r\nimport \"../interface/INftAsset.sol\";\r\nimport \"./SantaV2.sol\";\r\n\r\ncontract SantaFactoryV2 is Governance, VRFConsumerBase, IERC721Receiver {\r\n    using Address for address;\r\n    using SafeMath for uint256;\r\n    struct SantaV2Data {\r\n        uint256 id;\r\n        uint256 face_value;\r\n        uint256 createdTime;\r\n    }\r\n    event SantaV2NFTAdded(\r\n        uint256 indexed id,\r\n        address author,\r\n        uint256 face_value\r\n    );\r\n    uint256 public _stakingPowaBase = 10000;\r\n    // for minters\r\n    mapping(address => bool) public _minters;\r\n    mapping(address => bool) public _claimMembers;\r\n    mapping(uint256 => SantaV2Data) public _santas;\r\n\r\n    uint256 _maxNftCount = 0;\r\n    ERC20 _cifiTokenContract = ERC20(0x0);\r\n    SantaV2 public _santa = SantaV2(0x0);\r\n\r\n    uint256 _linkFee = 0;\r\n    bytes32 _linkKeyHash = bytes32(\"\");\r\n    mapping(bytes32 => address) public requestIdToAddress;\r\n    mapping(bytes32 => uint256) public requestIdToFaceValue;\r\n    \r\n    mapping(address => uint256) public _lastMintedNFTId;\r\n    mapping(address => bool) public _mintingStatus;\r\n\r\n\r\n    constructor(\r\n        address cifi,\r\n        address santaV2,\r\n        uint256 maxNftCount,\r\n        address vrfCoordinator,\r\n        address linkToken,\r\n        bytes32 linkKeyHash,\r\n        uint256 linkFee\r\n    ) VRFConsumerBase(vrfCoordinator, linkToken) {\r\n        _cifiTokenContract = ERC20(cifi);\r\n        _maxNftCount = maxNftCount;\r\n        _santa = SantaV2(santaV2);\r\n        // _santa = new SantaV2(\r\n        //     \"Citien Finance\",\r\n        //     \"sNFT2\",\r\n        //     \"https://api.santafeapp.io/test-asset/\"\r\n        // );\r\n        _linkFee = linkFee;\r\n        _linkKeyHash = linkKeyHash;\r\n    }\r\n\r\n    /**\r\n     * @dev for set min burn time\r\n     */\r\n\r\n    function addMinter(address minter) public onlyGovernance {\r\n        _minters[minter] = true;\r\n    }\r\n\r\n    function removeMinter(address minter) public onlyGovernance {\r\n        _minters[minter] = false;\r\n    }\r\n\r\n    function getFaceValue(uint256 tokenId) public view returns (uint256) {\r\n        SantaV2Data memory santa_data = _santas[tokenId];\r\n        return santa_data.face_value;\r\n    }\r\n\r\n    /**\r\n     * @dev set cifi contract address\r\n     */\r\n    function setCifiContract(address cifi) public onlyGovernance {\r\n        _cifiTokenContract = ERC20(cifi);\r\n    }\r\n\r\n    function mint(uint256 face_value) public returns (bytes32) {\r\n        require(face_value > 0, \"face_value should be grater than 0!\");\r\n        require(\r\n            _cifiTokenContract.allowance(msg.sender, address(this)) >=\r\n                face_value,\r\n            \"Allownce is less than face_value!\"\r\n        );\r\n\r\n        require(\r\n            _cifiTokenContract.balanceOf(msg.sender) >= face_value,\r\n            \"Your balance is less than face value!\"\r\n        );\r\n\r\n        require(\r\n            LINK.balanceOf(address(this)) >= _linkFee,\r\n            \"Not enough LINK - fill contract with faucet\"\r\n        );\r\n        require(\r\n            _santa.totalSupply() < _maxNftCount,\r\n            \"Total tokens were already minted!\"\r\n        );\r\n        _cifiTokenContract.transferFrom(msg.sender, address(this), face_value);\r\n        bytes32 requestId = requestRandomness(_linkKeyHash, _linkFee);\r\n        _mintingStatus[msg.sender] = true;\r\n        requestIdToAddress[requestId] = msg.sender;\r\n        requestIdToFaceValue[requestId] = face_value;\r\n        return requestId;\r\n    }\r\n\r\n    function fulfillRandomness(bytes32 requestId, uint256 randomness)\r\n        internal\r\n        override\r\n    {\r\n        require(\r\n            _santa.totalSupply() < _maxNftCount,\r\n            \"Total tokens were already minted!\"\r\n        );\r\n        address requestAddress = requestIdToAddress[requestId];\r\n        uint256 nftID = (randomness % _maxNftCount) + 1;\r\n\r\n        while (_santa.exists(nftID)) {\r\n            nftID = ((nftID + 1) % _maxNftCount) + 1;\r\n        }\r\n        uint256 face_value = requestIdToFaceValue[requestId];\r\n\r\n        _santa.mint(requestAddress, nftID);\r\n\r\n        SantaV2Data memory santa_data;\r\n        santa_data.id = nftID;\r\n        santa_data.face_value = face_value;\r\n        santa_data.createdTime = block.timestamp;\r\n        _santas[nftID] = santa_data;\r\n        _lastMintedNFTId[requestAddress] = nftID;\r\n        _mintingStatus[requestAddress] = false;\r\n        emit SantaV2NFTAdded(nftID, requestAddress, face_value);\r\n    }\r\n\r\n    function getLastClaimedNFTId()\r\n    public view returns (uint256)\r\n    {\r\n        return _lastMintedNFTId[msg.sender];\r\n    }\r\n\r\n    function setMintingStatus(bool statusValue)\r\n    public\r\n    returns (bool)\r\n    {\r\n        _mintingStatus[msg.sender] = statusValue;\r\n        return statusValue;\r\n    }\r\n\r\n    function getMintingStatus()\r\n    public \r\n    view\r\n    returns (bool)\r\n    {\r\n        return _mintingStatus[msg.sender];\r\n    }\r\n\r\n    function getClass(uint256 stakingPowa) public view returns (uint256) {\r\n        if (stakingPowa < _stakingPowaBase.mul(500).div(1000)) {\r\n            return 1;\r\n        } else if (\r\n            _stakingPowaBase.mul(500).div(1000) <= stakingPowa &&\r\n            stakingPowa < _stakingPowaBase.mul(800).div(1000)\r\n        ) {\r\n            return 2;\r\n        } else if (\r\n            _stakingPowaBase.mul(800).div(1000) <= stakingPowa &&\r\n            stakingPowa < _stakingPowaBase.mul(900).div(1000)\r\n        ) {\r\n            return 3;\r\n        } else if (\r\n            _stakingPowaBase.mul(900).div(1000) <= stakingPowa &&\r\n            stakingPowa < _stakingPowaBase.mul(980).div(1000)\r\n        ) {\r\n            return 4;\r\n        } else if (\r\n            _stakingPowaBase.mul(980).div(1000) <= stakingPowa &&\r\n            stakingPowa < _stakingPowaBase.mul(998).div(1000)\r\n        ) {\r\n            return 5;\r\n        } else {\r\n            return 6;\r\n        }\r\n    }\r\n\r\n    function retrieveToken(uint256 tokenId) external returns (bool) {\r\n        SantaV2Data memory santa_data = _santas[tokenId];\r\n        require(santa_data.id > 0, \"SantaFactoryV2: not exist\");\r\n        require(\r\n            _santa.ownerOf(tokenId) == msg.sender,\r\n            \"SantaFactoryV2: Invalid owner\"\r\n        );\r\n        if (santa_data.face_value >= 0) {\r\n            _cifiTokenContract.transfer(\r\n                _santa.ownerOf(tokenId),\r\n                santa_data.face_value\r\n            );\r\n            santa_data.face_value = 0;\r\n            _santas[tokenId] = santa_data;\r\n        }\r\n    }\r\n\r\n    function burn(uint256 tokenId) external returns (bool) {\r\n        SantaV2Data memory santa_data = _santas[tokenId];\r\n        require(santa_data.id > 0, \"not exist\");\r\n\r\n        _santa.safeTransferFrom(msg.sender, address(this), tokenId);\r\n        if (santa_data.face_value >= 0) {\r\n            _cifiTokenContract.transfer(\r\n                _santa.ownerOf(tokenId),\r\n                santa_data.face_value\r\n            );\r\n        }\r\n        _santa.burn(tokenId);\r\n        delete _santas[tokenId];\r\n        return true;\r\n    }\r\n\r\n    function onERC721Received(\r\n        address,\r\n        address,\r\n        uint256,\r\n        bytes memory\r\n    ) public virtual override returns (bytes4) {\r\n        return this.onERC721Received.selector;\r\n    }\r\n}\r\n",
  "sourcePath": "F:\\citizen\\depoly\\santafeapp\\src\\contracts\\nft\\SantaFactoryV2.sol",
  "compiler": {
    "name": "solc",
    "version": "0.7.4+commit.3f05b770.Emscripten.clang"
  },
  "schemaVersion": "3.4.2",
  "updatedAt": "2021-09-13T16:37:01.312Z",
  "networkType": "ethereum",
  "devdoc": {
    "kind": "dev",
    "methods": {
      "addMinter(address)": {
        "details": "for set min burn time"
      },
      "setCifiContract(address)": {
        "details": "set cifi contract address"
      }
    },
    "version": 1
  },
  "userdoc": {
    "kind": "user",
    "methods": {},
    "version": 1
  }
}