{
  "contractName": "SwapCifiMetalands",
  "abi": [
    {
      "inputs": [
        {
          "internalType": "address",
          "name": "_cifi",
          "type": "address"
        },
        {
          "internalType": "address",
          "name": "_metalands",
          "type": "address"
        }
      ],
      "stateMutability": "nonpayable",
      "type": "constructor"
    },
    {
      "anonymous": false,
      "inputs": [
        {
          "indexed": true,
          "internalType": "address",
          "name": "sender",
          "type": "address"
        },
        {
          "indexed": false,
          "internalType": "uint256",
          "name": "amount",
          "type": "uint256"
        },
        {
          "indexed": false,
          "internalType": "uint256",
          "name": "ratio",
          "type": "uint256"
        }
      ],
      "name": "Swap",
      "type": "event"
    },
    {
      "anonymous": false,
      "inputs": [
        {
          "indexed": true,
          "internalType": "address",
          "name": "sender",
          "type": "address"
        },
        {
          "indexed": false,
          "internalType": "uint256",
          "name": "amount",
          "type": "uint256"
        }
      ],
      "name": "Withdraw",
      "type": "event"
    },
    {
      "inputs": [],
      "name": "admin",
      "outputs": [
        {
          "internalType": "address",
          "name": "",
          "type": "address"
        }
      ],
      "stateMutability": "view",
      "type": "function",
      "constant": true
    },
    {
      "inputs": [],
      "name": "cifi",
      "outputs": [
        {
          "internalType": "address",
          "name": "",
          "type": "address"
        }
      ],
      "stateMutability": "view",
      "type": "function",
      "constant": true
    },
    {
      "inputs": [],
      "name": "metalands",
      "outputs": [
        {
          "internalType": "address",
          "name": "",
          "type": "address"
        }
      ],
      "stateMutability": "view",
      "type": "function",
      "constant": true
    },
    {
      "inputs": [],
      "name": "ratio",
      "outputs": [
        {
          "internalType": "uint256",
          "name": "",
          "type": "uint256"
        }
      ],
      "stateMutability": "view",
      "type": "function",
      "constant": true
    },
    {
      "inputs": [
        {
          "internalType": "uint256",
          "name": "amount",
          "type": "uint256"
        }
      ],
      "name": "swap",
      "outputs": [],
      "stateMutability": "nonpayable",
      "type": "function"
    },
    {
      "inputs": [
        {
          "internalType": "uint256",
          "name": "amount",
          "type": "uint256"
        }
      ],
      "name": "withdraw",
      "outputs": [],
      "stateMutability": "nonpayable",
      "type": "function"
    }
  ],
  "bytecode": "0x6101006040526103e860e052600160005534801561001c57600080fd5b506040516109f23803806109f28339818101604052604081101561003f57600080fd5b5080516020909101516001600160601b0319606092831b811660805290821b1660a05233901b60c05260805160601c60a05160601c60c05160601c60e05161091a6100d860003980610307528061038752806103ed52806105a652806105e252508061015352806106845250806101c852806102a152806104315280610581528061066052508061051d528061063c525061091a6000f3fe608060405234801561001057600080fd5b50600436106100625760003560e01c80632e1a7d4d1461006757806371ca337d1461008657806394b918de146100a0578063cb902541146100bd578063d1739d79146100e1578063f851a440146100e9575b600080fd5b6100846004803603602081101561007d57600080fd5b50356100f1565b005b61008e610305565b60408051918252519081900360200190f35b610084600480360360208110156100b657600080fd5b5035610329565b6100c561063a565b604080516001600160a01b039092168252519081900360200190f35b6100c561065e565b6100c5610682565b600054600114610144576040805162461bcd60e51b815260206004820152601960248201527814ddd85c10da599a53595d185b185b991cce881313d0d2d151603a1b604482015290519081900360640190fd5b60008055336001600160a01b037f000000000000000000000000000000000000000000000000000000000000000016146101c5576040805162461bcd60e51b815260206004820152601960248201527f53776170436966694d6574616c616e64733a202161646d696e00000000000000604482015290519081900360640190fd5b807f00000000000000000000000000000000000000000000000000000000000000006001600160a01b03166370a08231306040518263ffffffff1660e01b815260040180826001600160a01b0316815260200191505060206040518083038186803b15801561023357600080fd5b505afa158015610247573d6000803e3d6000fd5b505050506040513d602081101561025d57600080fd5b5051101561029c5760405162461bcd60e51b81526004018080602001828103825260248152602001806108c16024913960400191505060405180910390fd5b6102c77f000000000000000000000000000000000000000000000000000000000000000033836106a6565b60408051828152905133917f884edad9ce6fa2440d8a54cc123490eb96d2768479d49ff9c7366125a9424364919081900360200190a2506001600055565b7f000000000000000000000000000000000000000000000000000000000000000081565b60005460011461037c576040805162461bcd60e51b815260206004820152601960248201527814ddd85c10da599a53595d185b185b991cce881313d0d2d151603a1b604482015290519081900360640190fd5b60008080556103ab827f00000000000000000000000000000000000000000000000000000000000000006107fa565b116103e75760405162461bcd60e51b815260040180806020018281038252602181526020018061085d6021913960400191505060405180910390fd5b610411817f00000000000000000000000000000000000000000000000000000000000000006107fa565b604080516370a0823160e01b815230600482015290516001600160a01b037f000000000000000000000000000000000000000000000000000000000000000016916370a08231916024808301926020929190829003018186803b15801561047757600080fd5b505afa15801561048b573d6000803e3d6000fd5b505050506040513d60208110156104a157600080fd5b505110156104f6576040805162461bcd60e51b815260206004820152601b60248201527f53776170436966694d6574616c616e64733a204f766572666c6f770000000000604482015290519081900360640190fd5b6040805163079cc67960e41b81523360048201526024810183905290516001600160a01b037f000000000000000000000000000000000000000000000000000000000000000016916379cc679091604480830192600092919082900301818387803b15801561056457600080fd5b505af1158015610578573d6000803e3d6000fd5b505050506105d97f0000000000000000000000000000000000000000000000000000000000000000336105d47f0000000000000000000000000000000000000000000000000000000000000000856107fa90919063ffffffff16565b6106a6565b604080518281527f00000000000000000000000000000000000000000000000000000000000000006020820152815133927f77f92a1b6a1a11de8ca49515ad4c1fad45632dd3442167d74b90b304a3c7a758928290030190a2506001600055565b7f000000000000000000000000000000000000000000000000000000000000000081565b7f000000000000000000000000000000000000000000000000000000000000000081565b7f000000000000000000000000000000000000000000000000000000000000000081565b604080516001600160a01b038481166024830152604480830185905283518084039091018152606490920183526020820180516001600160e01b031663a9059cbb60e01b178152925182516000946060949389169392918291908083835b602083106107235780518252601f199092019160209182019101610704565b6001836020036101000a0380198251168184511680821785525050505050509050019150506000604051808303816000865af19150503d8060008114610785576040519150601f19603f3d011682016040523d82523d6000602084013e61078a565b606091505b50915091508180156107b85750805115806107b857508080602001905160208110156107b557600080fd5b50515b6107f35760405162461bcd60e51b815260040180806020018281038252602281526020018061089f6022913960400191505060405180910390fd5b5050505050565b60008261080957506000610856565b8282028284828161081657fe5b04146108535760405162461bcd60e51b815260040180806020018281038252602181526020018061087e6021913960400191505060405180910390fd5b90505b9291505056fe53776170436966694d6574616c616e64733a20496e76616c696420616d6f756e74536166654d6174683a206d756c7469706c69636174696f6e206f766572666c6f7753776170436966694d6574616c616e64733a205452414e534645525f4641494c454453776170436966694d6574616c616e64733a2057697468647261772d4f766572666c6f77a264697066735822122099c7db03ff22ad2b538c8d8f9c4132421b6219c4fed8f522740a07aa5af2fc5a64736f6c63430007040033",
  "immutableReferences": {
    "1060": [
      {
        "length": 32,
        "start": 1309
      },
      {
        "length": 32,
        "start": 1596
      }
    ],
    "1062": [
      {
        "length": 32,
        "start": 456
      },
      {
        "length": 32,
        "start": 673
      },
      {
        "length": 32,
        "start": 1073
      },
      {
        "length": 32,
        "start": 1409
      },
      {
        "length": 32,
        "start": 1632
      }
    ],
    "1064": [
      {
        "length": 32,
        "start": 339
      },
      {
        "length": 32,
        "start": 1668
      }
    ],
    "1067": [
      {
        "length": 32,
        "start": 775
      },
      {
        "length": 32,
        "start": 903
      },
      {
        "length": 32,
        "start": 1005
      },
      {
        "length": 32,
        "start": 1446
      },
      {
        "length": 32,
        "start": 1506
      }
    ]
  },
  "source": "// SPDX-License-Identifier: MIT\r\npragma solidity ^0.7.4;\r\n\r\nimport \"@openzeppelin/contracts/math/SafeMath.sol\";\r\nimport \"@openzeppelin/contracts/token/ERC20/ERC20.sol\";\r\nimport \"@openzeppelin/contracts/token/ERC20/ERC20Burnable.sol\";\r\n\r\ncontract SwapCifiMetalands {\r\n    using SafeMath for uint256;\r\n\r\n    address public immutable cifi;\r\n    address public immutable metalands;\r\n    address public immutable admin;\r\n    uint public immutable ratio = 1000;\r\n\r\n    uint256 private unlocked = 1;\r\n\r\n    event Swap(address indexed sender, uint256 amount, uint256 ratio);\r\n    event Withdraw(address indexed sender, uint256 amount);\r\n\r\n    constructor (address _cifi, address _metalands) {\r\n        cifi = _cifi;\r\n        metalands = _metalands;\r\n        admin = msg.sender;\r\n    }\r\n\r\n    modifier lock() { \r\n        require(unlocked == 1, \"SwapCifiMetalands: LOCKED\");\r\n        unlocked = 0;\r\n        _;\r\n        unlocked = 1;\r\n    }\r\n\r\n    function safeTransfer(address token, address to, uint value) internal {\r\n        // bytes4(keccak256(bytes('transfer(address,uint256)')));\r\n        (bool success, bytes memory data) = token.call(abi.encodeWithSelector(0xa9059cbb, to, value));\r\n        require(success && (data.length == 0 || abi.decode(data, (bool))), 'SwapCifiMetalands: TRANSFER_FAILED');\r\n    }\r\n\r\n    function safeTransferFrom(address token, address from, address to, uint value) internal {\r\n        // bytes4(keccak256(bytes('transferFrom(address,address,uint256)')));\r\n        (bool success, bytes memory data) = token.call(abi.encodeWithSelector(0x23b872dd, from, to, value));\r\n        require(success && (data.length == 0 || abi.decode(data, (bool))), 'SwapCifiMetalands: TRANSFER_FROM_FAILED');\r\n    }\r\n\r\n    function swap(uint amount) external lock {\r\n        require(amount.mul(ratio) > 0, \"SwapCifiMetalands: Invalid amount\");\r\n        require(ERC20(metalands).balanceOf(address(this)) >= amount.mul(ratio), \"SwapCifiMetalands: Overflow\");\r\n        ERC20Burnable(cifi).burnFrom(msg.sender, amount);\r\n        // safeTransferFrom(cifi, msg.sender, admin, amount);\r\n        safeTransfer(metalands, msg.sender, amount.mul(ratio));\r\n        emit Swap(msg.sender, amount, ratio);\r\n    }\r\n\r\n    function withdraw(uint amount) external lock {\r\n        require(msg.sender == admin, \"SwapCifiMetalands: !admin\");\r\n        require(ERC20(metalands).balanceOf(address(this)) >= amount, \"SwapCifiMetalands: Withdraw-Overflow\");\r\n        safeTransfer(metalands, msg.sender, amount);\r\n        emit Withdraw(msg.sender, amount);\r\n    }\r\n}",
  "sourcePath": "E:\\swap_cifi_metalands\\contracts\\SwapCifiMetalands.sol",
  "compiler": {
    "name": "solc",
    "version": "0.7.4+commit.3f05b770.Emscripten.clang"
  },
  "schemaVersion": "3.4.3",
  "updatedAt": "2021-11-11T21:24:37.149Z",
  "networkType": "ethereum",
  "devdoc": {
    "kind": "dev",
    "methods": {},
    "version": 1
  },
  "userdoc": {
    "kind": "user",
    "methods": {},
    "version": 1
  }
}