{
  "contractName": "CifiStaking",
  "abi": [
    {
      "inputs": [
        {
          "internalType": "address",
          "name": "_cifiToken",
          "type": "address"
        }
      ],
      "stateMutability": "nonpayable",
      "type": "constructor"
    },
    {
      "anonymous": false,
      "inputs": [
        {
          "indexed": true,
          "internalType": "address",
          "name": "user",
          "type": "address"
        },
        {
          "indexed": false,
          "internalType": "uint256",
          "name": "amount",
          "type": "uint256"
        }
      ],
      "name": "Deposit",
      "type": "event"
    },
    {
      "anonymous": false,
      "inputs": [
        {
          "indexed": true,
          "internalType": "address",
          "name": "user",
          "type": "address"
        },
        {
          "indexed": false,
          "internalType": "uint256",
          "name": "amount",
          "type": "uint256"
        }
      ],
      "name": "Reward",
      "type": "event"
    },
    {
      "anonymous": false,
      "inputs": [
        {
          "indexed": true,
          "internalType": "address",
          "name": "user",
          "type": "address"
        },
        {
          "indexed": false,
          "internalType": "uint256",
          "name": "amount",
          "type": "uint256"
        }
      ],
      "name": "Withdraw",
      "type": "event"
    },
    {
      "inputs": [],
      "name": "adminAddress",
      "outputs": [
        {
          "internalType": "address",
          "name": "",
          "type": "address"
        }
      ],
      "stateMutability": "view",
      "type": "function"
    },
    {
      "inputs": [],
      "name": "cifiToken",
      "outputs": [
        {
          "internalType": "address",
          "name": "",
          "type": "address"
        }
      ],
      "stateMutability": "view",
      "type": "function"
    },
    {
      "inputs": [],
      "name": "lockedTime",
      "outputs": [
        {
          "internalType": "uint256",
          "name": "",
          "type": "uint256"
        }
      ],
      "stateMutability": "view",
      "type": "function"
    },
    {
      "inputs": [],
      "name": "rewardPerSec",
      "outputs": [
        {
          "internalType": "uint256",
          "name": "",
          "type": "uint256"
        }
      ],
      "stateMutability": "view",
      "type": "function"
    },
    {
      "inputs": [
        {
          "internalType": "address",
          "name": "",
          "type": "address"
        }
      ],
      "name": "userInfo",
      "outputs": [
        {
          "internalType": "uint256",
          "name": "amount",
          "type": "uint256"
        },
        {
          "internalType": "uint256",
          "name": "rewarded",
          "type": "uint256"
        },
        {
          "internalType": "uint256",
          "name": "rewardDebt",
          "type": "uint256"
        },
        {
          "internalType": "uint256",
          "name": "lastCalculatedTimeStamp",
          "type": "uint256"
        },
        {
          "internalType": "uint256",
          "name": "lastDepositTimeStamp",
          "type": "uint256"
        }
      ],
      "stateMutability": "view",
      "type": "function"
    },
    {
      "inputs": [
        {
          "internalType": "uint256",
          "name": "",
          "type": "uint256"
        }
      ],
      "name": "userList",
      "outputs": [
        {
          "internalType": "address",
          "name": "",
          "type": "address"
        }
      ],
      "stateMutability": "view",
      "type": "function"
    },
    {
      "inputs": [
        {
          "internalType": "address",
          "name": "_adminAddress",
          "type": "address"
        }
      ],
      "name": "setAdmin",
      "outputs": [],
      "stateMutability": "nonpayable",
      "type": "function"
    },
    {
      "inputs": [
        {
          "internalType": "uint256",
          "name": "amount",
          "type": "uint256"
        }
      ],
      "name": "deposit",
      "outputs": [],
      "stateMutability": "nonpayable",
      "type": "function"
    },
    {
      "inputs": [],
      "name": "withdraw",
      "outputs": [],
      "stateMutability": "nonpayable",
      "type": "function"
    },
    {
      "inputs": [],
      "name": "reward",
      "outputs": [],
      "stateMutability": "nonpayable",
      "type": "function"
    }
  ],
  "bytecode": "0x60806040526602e0dbeb167b0060045562093a80600755600160085534801561002757600080fd5b50604051610d16380380610d168339818101604052602081101561004a57600080fd5b5051600380546001600160a01b03199081163317909155600280546001600160a01b039093169290911691909117905560008055610c898061008d6000396000f3fe608060405234801561001057600080fd5b506004361061009e5760003560e01c80639f4216e8116100665780639f4216e814610146578063a8b382051461017f578063b6b55f2514610187578063e97921a5146101a4578063fc6f9468146101ac5761009e565b80631959a002146100a3578063228cb733146100f45780633ccfd60b146100fe5780634f41e95d14610106578063704b6c0214610120575b600080fd5b6100c9600480360360208110156100b957600080fd5b50356001600160a01b03166101b4565b6040805195865260208601949094528484019290925260608401526080830152519081900360a00190f35b6100fc6101e3565b005b6100fc610325565b61010e610532565b60408051918252519081900360200190f35b6100fc6004803603602081101561013657600080fd5b50356001600160a01b0316610538565b6101636004803603602081101561015c57600080fd5b50356105a5565b604080516001600160a01b039092168252519081900360200190f35b61010e6105cc565b6100fc6004803603602081101561019d57600080fd5b50356105d2565b61016361079c565b6101636107ab565b600560205260009081526040902080546001820154600283015460038401546004909401549293919290919085565b600854600114610230576040805162461bcd60e51b815260206004820152601360248201527210da599a54dd185ada5b99ce881313d0d2d151606a1b604482015290519081900360640190fd5b6000600881905533815260056020526040902061024b6107ba565b6002810154806102a2576040805162461bcd60e51b815260206004820152601860248201527f6e6f7420656e6f7567682072657761726420616d6f756e740000000000000000604482015290519081900360640190fd5b4260075483600401540110156102bc57600a600982020490505b600182018054820190556000600280840191909155546102e6906001600160a01b03163383610860565b60408051828152905133917f619caafabdd75649b302ba8419e48cccf64f37f1983ac4727cfb38b57703ffc9919081900360200190a250506001600855565b600854600114610372576040805162461bcd60e51b815260206004820152601360248201527210da599a54dd185ada5b99ce881313d0d2d151606a1b604482015290519081900360640190fd5b6000600881905533815260056020526040902060048101546103ca576040805162461bcd60e51b815260206004820152600c60248201526b34b73b30b634b2103ab9b2b960a11b604482015290519081900360640190fd5b805461040a576040805162461bcd60e51b815260206004820152600a6024820152691b9bdd081cdd185ad95960b21b604482015290519081900360640190fd5b426007548260040154011061045f576040805162461bcd60e51b81526020600482015260166024820152753cb7ba9030b9329034b7103637b1b5b2b22a34b6b29760511b604482015290519081900360640190fd5b6104676107ba565b80546000808355805482900381556002830180549190556007546004840154429101101561049957600a600982020490505b600183018054820190556002546104bc906001600160a01b031633848401610860565b60408051838152905133917f884edad9ce6fa2440d8a54cc123490eb96d2768479d49ff9c7366125a9424364919081900360200190a260408051828152905133917f619caafabdd75649b302ba8419e48cccf64f37f1983ac4727cfb38b57703ffc9919081900360200190a25050600160085550565b60045481565b6003546001600160a01b03163314610583576040805162461bcd60e51b81526020600482015260096024820152683737ba1020b236b4b760b91b604482015290519081900360640190fd5b600380546001600160a01b0319166001600160a01b0392909216919091179055565b600681815481106105b257fe5b6000918252602090912001546001600160a01b0316905081565b60075481565b60085460011461061f576040805162461bcd60e51b815260206004820152601360248201527210da599a54dd185ada5b99ce881313d0d2d151606a1b604482015290519081900360640190fd5b600060085580610667576040805162461bcd60e51b815260206004820152600e60248201526d1a5b9d985a5b1908185b5bdd5b9d60921b604482015290519081900360640190fd5b60025461067f906001600160a01b03163330846109ca565b336000908152600560205260408120906001905b6006548110156106dc57336001600160a01b0316600682815481106106b457fe5b6000918252602090912001546001600160a01b031614156106d457600091505b600101610693565b506106e56107ba565b801561074757600680546001818101835560009283527ff652222313e28459528d920b65115c16c04f3efc82aaedc97be59f3f377c0d3f90910180546001600160a01b0319163317905584845583018190556002830155426004830155610754565b8154830182554260048301555b600080548401905560408051848152905133917fe1fffcc4923d04b559f4d29a8bfc6cda04eb5b0d3c460751c2402c5c5cc9109c919081900360200190a25050600160085550565b6002546001600160a01b031681565b6003546001600160a01b031681565b60005b60065481101561085d57600060056000600684815481106107da57fe5b60009182526020808320909101546001600160a01b03168352820192909252604001812081548154600454600384015493955042949361082892916108229182908890610b27565b90610b7d565b8161082f57fe5b049050610849818460020154610be090919063ffffffff16565b6002840155506003909101556001016107bd565b50565b604080516001600160a01b038481166024830152604480830185905283518084039091018152606490920183526020820180516001600160e01b031663a9059cbb60e01b178152925182516000946060949389169392918291908083835b602083106108dd5780518252601f1990920191602091820191016108be565b6001836020036101000a0380198251168184511680821785525050505050509050019150506000604051808303816000865af19150503d806000811461093f576040519150601f19603f3d011682016040523d82523d6000602084013e610944565b606091505b5091509150818015610972575080511580610972575080806020019051602081101561096f57600080fd5b50515b6109c3576040805162461bcd60e51b815260206004820152601f60248201527f5472616e7366657248656c7065723a205452414e534645525f4641494c454400604482015290519081900360640190fd5b5050505050565b604080516001600160a01b0385811660248301528481166044830152606480830185905283518084039091018152608490920183526020820180516001600160e01b03166323b872dd60e01b17815292518251600094606094938a169392918291908083835b60208310610a4f5780518252601f199092019160209182019101610a30565b6001836020036101000a0380198251168184511680821785525050505050509050019150506000604051808303816000865af19150503d8060008114610ab1576040519150601f19603f3d011682016040523d82523d6000602084013e610ab6565b606091505b5091509150818015610ae4575080511580610ae45750808060200190516020811015610ae157600080fd5b50515b610b1f5760405162461bcd60e51b8152600401808060200182810382526024815260200180610c306024913960400191505060405180910390fd5b505050505050565b80820382811115610b77576040805162461bcd60e51b815260206004820152601560248201527464732d6d6174682d7375622d756e646572666c6f7760581b604482015290519081900360640190fd5b92915050565b6000811580610b9857505080820282828281610b9557fe5b04145b610b77576040805162461bcd60e51b815260206004820152601460248201527364732d6d6174682d6d756c2d6f766572666c6f7760601b604482015290519081900360640190fd5b80820182811015610b77576040805162461bcd60e51b815260206004820152601460248201527364732d6d6174682d6164642d6f766572666c6f7760601b604482015290519081900360640190fdfe5472616e7366657248656c7065723a205452414e534645525f46524f4d5f4641494c4544a2646970667358221220626db5aafbd504a08a395191c7d5c0ee5f42943a73c00461635135c786bb4fab64736f6c634300060c0033",
  "immutableReferences": {},
  "source": "// SPDX-License-Identifier: MIT\r\n\r\npragma solidity =0.6.12;\r\nimport './libraries/Math.sol';\r\nimport \"./libraries/SafeMath.sol\";\r\nimport './libraries/TransferHelper.sol';\r\nimport './interfaces/IERC20.sol';\r\n\r\ncontract CifiStaking {\r\n    using SafeMath  for uint;\r\n\r\n    struct UserInfo {\r\n        uint256 amount;\r\n        uint256 rewarded;\r\n        uint256 rewardDebt;\r\n        uint256 lastCalculatedTimeStamp;\r\n        uint256 lastDepositTimeStamp;\r\n    }\r\n\r\n    // pool info\r\n    uint256 totalAmount;\r\n    uint256 lastRewardTimeStamp;\r\n    address public cifiToken;\r\n    address public adminAddress;\r\n    // CIFI tokens created per Sec.\r\n    uint256 public rewardPerSec = 810185100000000; // 70 CIFI per day\r\n    \r\n    // Info of each user that stakes LP tokens.\r\n    mapping (address => UserInfo) public userInfo;\r\n    address[] public userList;\r\n    uint256 public lockedTime = 7 * 24 * 3600; // 7days\r\n    uint private unlocked = 1;\r\n\r\n    event Deposit(address indexed user, uint256 amount);\r\n    event Withdraw(address indexed user, uint256 amount);\r\n    event Reward(address indexed user, uint256 amount);\r\n\r\n    modifier lock() {\r\n        require(unlocked == 1, 'CifiStaking: LOCKED');\r\n        unlocked = 0;\r\n        _;\r\n        unlocked = 1;\r\n    }\r\n\r\n    constructor(address _cifiToken) public {\r\n        adminAddress = msg.sender;\r\n        cifiToken = _cifiToken;\r\n        totalAmount = 0;\r\n    }\r\n\r\n    function setAdmin(address _adminAddress) public {\r\n        require(adminAddress == msg.sender, \"not Admin\");\r\n        adminAddress = _adminAddress;\r\n    }\r\n\r\n    function updatePool() internal {\r\n        for (uint i = 0; i < userList.length; i++) {\r\n            UserInfo storage user = userInfo[userList[i]];\r\n            uint256 lastTimeStamp = block.timestamp;\r\n            uint256 accDebt = lastTimeStamp.sub(user.lastCalculatedTimeStamp).mul(rewardPerSec).mul(user.amount) / totalAmount;\r\n            user.rewardDebt = user.rewardDebt.add(accDebt);\r\n            user.lastCalculatedTimeStamp = lastTimeStamp;\r\n        }\r\n    }\r\n    function deposit(uint256 amount) public lock {\r\n        require(amount > 0, \"invaild amount\");\r\n        TransferHelper.safeTransferFrom(cifiToken, msg.sender, address(this), amount);\r\n        UserInfo storage user = userInfo[msg.sender];\r\n        bool isFirst = true;\r\n        for (uint i = 0; i < userList.length; i++) {\r\n            if (userList[i] == msg.sender) {\r\n                isFirst = false;\r\n            }\r\n        }\r\n        updatePool();\r\n        if (isFirst) {\r\n            userList.push(msg.sender);\r\n            user.amount = amount;\r\n            user.rewarded = 0;\r\n            user.rewardDebt = 0;\r\n            user.lastDepositTimeStamp = block.timestamp;            \r\n        } else {\r\n            user.amount = user.amount + amount;\r\n            user.lastDepositTimeStamp = block.timestamp;\r\n        }\r\n        totalAmount = totalAmount + amount;\r\n        emit Deposit(msg.sender, amount);\r\n    }\r\n\r\n    function withdraw() public lock {\r\n        UserInfo storage user = userInfo[msg.sender];\r\n        require(user.lastDepositTimeStamp > 0, \"invalid user\");\r\n        require(user.amount > 0, \"not staked\");\r\n        require(user.lastDepositTimeStamp + lockedTime < block.timestamp, \"you are in lockedTime.\");\r\n        updatePool();\r\n        uint256 withdrawAmount = user.amount;\r\n        user.amount = 0;\r\n        totalAmount = totalAmount - withdrawAmount;\r\n        uint256 rewardAmount = user.rewardDebt;\r\n        user.rewardDebt = 0;\r\n        if (user.lastDepositTimeStamp + lockedTime < block.timestamp) {\r\n            rewardAmount = rewardAmount * 9 / 10;\r\n        }\r\n        user.rewarded = user.rewarded + rewardAmount;\r\n        TransferHelper.safeTransfer(cifiToken, msg.sender, withdrawAmount + rewardAmount);\r\n        emit Withdraw(msg.sender, withdrawAmount);\r\n        emit Reward(msg.sender, rewardAmount);\r\n    }\r\n\r\n    function reward() public lock {\r\n        UserInfo storage user = userInfo[msg.sender];\r\n        updatePool();\r\n        uint256 rewardAmount = user.rewardDebt;\r\n        require(rewardAmount > 0, \"not enough reward amount\");\r\n        if (user.lastDepositTimeStamp + lockedTime < block.timestamp) {\r\n            rewardAmount = rewardAmount * 9 / 10;\r\n        }\r\n        \r\n        user.rewarded = user.rewarded + rewardAmount;\r\n        user.rewardDebt = 0;\r\n        TransferHelper.safeTransfer(cifiToken, msg.sender, rewardAmount);\r\n        emit Reward(msg.sender, rewardAmount);\r\n    }\r\n}",
  "sourcePath": "F:\\cifi_works\\smart_contract\\swaps\\famososwap\\contracts\\CifiStaking.sol",
  "compiler": {
    "name": "solc",
    "version": "0.6.12+commit.27d51765.Emscripten.clang"
  },
  "schemaVersion": "3.4.3",
  "updatedAt": "2022-01-07T14:36:12.532Z",
  "devdoc": {
    "kind": "dev",
    "methods": {},
    "version": 1
  },
  "userdoc": {
    "kind": "user",
    "methods": {},
    "version": 1
  }
}