{
  "contractName": "FamosoFactory",
  "abi": [
    {
      "inputs": [
        {
          "internalType": "address",
          "name": "_feeToSetter",
          "type": "address"
        }
      ],
      "stateMutability": "nonpayable",
      "type": "constructor"
    },
    {
      "anonymous": false,
      "inputs": [
        {
          "indexed": true,
          "internalType": "address",
          "name": "token0",
          "type": "address"
        },
        {
          "indexed": true,
          "internalType": "address",
          "name": "token1",
          "type": "address"
        },
        {
          "indexed": false,
          "internalType": "address",
          "name": "pair",
          "type": "address"
        },
        {
          "indexed": false,
          "internalType": "uint256",
          "name": "",
          "type": "uint256"
        }
      ],
      "name": "PairCreated",
      "type": "event"
    },
    {
      "inputs": [
        {
          "internalType": "uint256",
          "name": "",
          "type": "uint256"
        }
      ],
      "name": "allPairs",
      "outputs": [
        {
          "internalType": "address",
          "name": "",
          "type": "address"
        }
      ],
      "stateMutability": "view",
      "type": "function"
    },
    {
      "inputs": [],
      "name": "feeTo",
      "outputs": [
        {
          "internalType": "address",
          "name": "",
          "type": "address"
        }
      ],
      "stateMutability": "view",
      "type": "function"
    },
    {
      "inputs": [],
      "name": "feeToSetter",
      "outputs": [
        {
          "internalType": "address",
          "name": "",
          "type": "address"
        }
      ],
      "stateMutability": "view",
      "type": "function"
    },
    {
      "inputs": [
        {
          "internalType": "address",
          "name": "",
          "type": "address"
        },
        {
          "internalType": "address",
          "name": "",
          "type": "address"
        }
      ],
      "name": "getPair",
      "outputs": [
        {
          "internalType": "address",
          "name": "",
          "type": "address"
        }
      ],
      "stateMutability": "view",
      "type": "function"
    },
    {
      "inputs": [],
      "name": "migrator",
      "outputs": [
        {
          "internalType": "address",
          "name": "",
          "type": "address"
        }
      ],
      "stateMutability": "view",
      "type": "function"
    },
    {
      "inputs": [],
      "name": "allPairsLength",
      "outputs": [
        {
          "internalType": "uint256",
          "name": "",
          "type": "uint256"
        }
      ],
      "stateMutability": "view",
      "type": "function"
    },
    {
      "inputs": [],
      "name": "pairCodeHash",
      "outputs": [
        {
          "internalType": "bytes32",
          "name": "",
          "type": "bytes32"
        }
      ],
      "stateMutability": "pure",
      "type": "function"
    },
    {
      "inputs": [
        {
          "internalType": "address",
          "name": "tokenA",
          "type": "address"
        },
        {
          "internalType": "address",
          "name": "tokenB",
          "type": "address"
        }
      ],
      "name": "createPair",
      "outputs": [
        {
          "internalType": "address",
          "name": "pair",
          "type": "address"
        }
      ],
      "stateMutability": "nonpayable",
      "type": "function"
    },
    {
      "inputs": [
        {
          "internalType": "address",
          "name": "_feeTo",
          "type": "address"
        }
      ],
      "name": "setFeeTo",
      "outputs": [],
      "stateMutability": "nonpayable",
      "type": "function"
    },
    {
      "inputs": [
        {
          "internalType": "address",
          "name": "_migrator",
          "type": "address"
        }
      ],
      "name": "setMigrator",
      "outputs": [],
      "stateMutability": "nonpayable",
      "type": "function"
    },
    {
      "inputs": [
        {
          "internalType": "address",
          "name": "_feeToSetter",
          "type": "address"
        }
      ],
      "name": "setFeeToSetter",
      "outputs": [],
      "stateMutability": "nonpayable",
      "type": "function"
    }
  ],
  "bytecode": "0x608060405234801561001057600080fd5b50604051612c2a380380612c2a8339818101604052602081101561003357600080fd5b5051600180546001600160a01b0319166001600160a01b03909216919091179055612bc7806100636000396000f3fe608060405234801561001057600080fd5b50600436106100a95760003560e01c80637cd07e47116100715780637cd07e47146101395780639aab924814610141578063a2e74af614610149578063c9c653961461016f578063e6a439051461019d578063f46901ed146101cb576100a9565b8063017e7e58146100ae578063094b7415146100d25780631e3dd18b146100da57806323cf3118146100f7578063574f2ba31461011f575b600080fd5b6100b66101f1565b604080516001600160a01b039092168252519081900360200190f35b6100b6610200565b6100b6600480360360208110156100f057600080fd5b503561020f565b61011d6004803603602081101561010d57600080fd5b50356001600160a01b0316610236565b005b6101276102ab565b60408051918252519081900360200190f35b6100b66102b1565b6101276102c0565b61011d6004803603602081101561015f57600080fd5b50356001600160a01b03166102f2565b6100b66004803603604081101561018557600080fd5b506001600160a01b0381358116916020013516610367565b6100b6600480360360408110156101b357600080fd5b506001600160a01b0381358116916020013516610686565b61011d600480360360208110156101e157600080fd5b50356001600160a01b03166106ac565b6000546001600160a01b031681565b6001546001600160a01b031681565b6004818154811061021c57fe5b6000918252602090912001546001600160a01b0316905081565b6001546001600160a01b03163314610289576040805162461bcd60e51b81526020600482015260116024820152702330b6b7b9b79d102327a92124a22222a760791b604482015290519081900360640190fd5b600280546001600160a01b0319166001600160a01b0392909216919091179055565b60045490565b6002546001600160a01b031681565b6000604051806020016102d290610721565b6020820181038252601f19601f8201166040525080519060200120905090565b6001546001600160a01b03163314610345576040805162461bcd60e51b81526020600482015260116024820152702330b6b7b9b79d102327a92124a22222a760791b604482015290519081900360640190fd5b600180546001600160a01b0319166001600160a01b0392909216919091179055565b6000816001600160a01b0316836001600160a01b031614156103d0576040805162461bcd60e51b815260206004820152601b60248201527f46616d6f736f3a204944454e544943414c5f4144445245535345530000000000604482015290519081900360640190fd5b600080836001600160a01b0316856001600160a01b0316106103f35783856103f6565b84845b90925090506001600160a01b03821661044d576040805162461bcd60e51b815260206004820152601460248201527346616d6f736f3a205a45524f5f4144445245535360601b604482015290519081900360640190fd5b6001600160a01b038281166000908152600360209081526040808320858516845290915290205416156104bd576040805162461bcd60e51b815260206004820152601360248201527246616d6f736f3a20504149525f45584953545360681b604482015290519081900360640190fd5b6060604051806020016104cf90610721565b6020820181038252601f19601f8201166040525090506000838360405160200180836001600160a01b031660601b8152601401826001600160a01b031660601b815260140192505050604051602081830303815290604052805190602001209050808251602084016000f59450846001600160a01b031663485cc95585856040518363ffffffff1660e01b815260040180836001600160a01b03168152602001826001600160a01b0316815260200192505050600060405180830381600087803b15801561059c57600080fd5b505af11580156105b0573d6000803e3d6000fd5b505050506001600160a01b0384811660008181526003602081815260408084208987168086529083528185208054978d166001600160a01b031998891681179091559383528185208686528352818520805488168517905560048054600181018255958190527f8a35acfbc15ff81a39ae7d344fd709f28e8600b4aa8c65c6b64bfe7fe36bd19b90950180549097168417909655925483519283529082015281517f0d3648bd0f6ba80134a33ba9275ac585d9d315f0ad8355cddefde31afa28d0e9929181900390910190a35050505092915050565b60036020908152600092835260408084209091529082529020546001600160a01b031681565b6001546001600160a01b031633146106ff576040805162461bcd60e51b81526020600482015260116024820152702330b6b7b9b79d102327a92124a22222a760791b604482015290519081900360640190fd5b600080546001600160a01b0319166001600160a01b0392909216919091179055565b6124638061072f8339019056fe60806040526001600c5534801561001557600080fd5b50604080518082018252601381527f46616d6f736f53776170204c5020546f6b656e000000000000000000000000006020918201528151808301835260018152603160f81b9082015281517f8b73c3c69bb8fe3d512ecc4cf759cc79239f7b179b0ffacaa9a75d522b39400f818301527fea3b7e967f438613a26acd0a549210721078051820468e3ea0f0d215eb8999be818401527fc89efdaa54c0f20c7adf612882df0950f5a951637e0307cdcb4c672f298b8bc660608201524660808201523060a0808301919091528351808303909101815260c09091019092528151910120600355600580546001600160a01b031916331790556123488061011b6000396000f3fe608060405234801561001057600080fd5b50600436106101a95760003560e01c80636a627842116100f9578063ba9a7a5611610097578063d21220a711610071578063d21220a714610534578063d505accf1461053c578063dd62ed3e1461058d578063fff6cae9146105bb576101a9565b8063ba9a7a56146104fe578063bc25cf7714610506578063c45a01551461052c576101a9565b80637ecebe00116100d35780637ecebe001461046557806389afcb441461048b57806395d89b41146104ca578063a9059cbb146104d2576101a9565b80636a6278421461041157806370a08231146104375780637464fc3d1461045d576101a9565b806323b872dd116101665780633644e515116101405780633644e515146103cb578063485cc955146103d35780635909c0d5146104015780635a3d549314610409576101a9565b806323b872dd1461036f57806330adf81f146103a5578063313ce567146103ad576101a9565b8063022c0d9f146101ae57806306fdde031461023c5780630902f1ac146102b9578063095ea7b3146102f15780630dfe16811461033157806318160ddd14610355575b600080fd5b61023a600480360360808110156101c457600080fd5b8135916020810135916001600160a01b0360408301351691908101906080810160608201356401000000008111156101fb57600080fd5b82018360208201111561020d57600080fd5b8035906020019184600183028401116401000000008311171561022f57600080fd5b5090925090506105c3565b005b610244610ad8565b6040805160208082528351818301528351919283929083019185019080838360005b8381101561027e578181015183820152602001610266565b50505050905090810190601f1680156102ab5780820380516001836020036101000a031916815260200191505b509250505060405180910390f35b6102c1610b07565b604080516001600160701b03948516815292909316602083015263ffffffff168183015290519081900360600190f35b61031d6004803603604081101561030757600080fd5b506001600160a01b038135169060200135610b31565b604080519115158252519081900360200190f35b610339610b48565b604080516001600160a01b039092168252519081900360200190f35b61035d610b57565b60408051918252519081900360200190f35b61031d6004803603606081101561038557600080fd5b506001600160a01b03813581169160208101359091169060400135610b5d565b61035d610bf1565b6103b5610c15565b6040805160ff9092168252519081900360200190f35b61035d610c1a565b61023a600480360360408110156103e957600080fd5b506001600160a01b0381358116916020013516610c20565b61035d610ca1565b61035d610ca7565b61035d6004803603602081101561042757600080fd5b50356001600160a01b0316610cad565b61035d6004803603602081101561044d57600080fd5b50356001600160a01b0316611126565b61035d611138565b61035d6004803603602081101561047b57600080fd5b50356001600160a01b031661113e565b6104b1600480360360208110156104a157600080fd5b50356001600160a01b0316611150565b6040805192835260208301919091528051918290030190f35b6102446114e1565b61031d600480360360408110156104e857600080fd5b506001600160a01b038135169060200135611505565b61035d611512565b61023a6004803603602081101561051c57600080fd5b50356001600160a01b0316611518565b610339611687565b610339611696565b61023a600480360360e081101561055257600080fd5b506001600160a01b03813581169160208101359091169060408101359060608101359060ff6080820135169060a08101359060c001356116a5565b61035d600480360360408110156105a357600080fd5b506001600160a01b03813581169160200135166118a4565b61023a6118c1565b600c5460011461060b576040805162461bcd60e51b815260206004820152600e60248201526d11985b5bdcdbce881313d0d2d15160921b604482015290519081900360640190fd5b6000600c558415158061061e5750600084115b6106595760405162461bcd60e51b81526004018080602001828103825260228152602001806122cc6022913960400191505060405180910390fd5b600080610664610b07565b5091509150816001600160701b0316871080156106895750806001600160701b031686105b6106da576040805162461bcd60e51b815260206004820152601e60248201527f46616d6f736f3a20494e53554646494349454e545f4c49515549444954590000604482015290519081900360640190fd5b60065460075460009182916001600160a01b039182169190811690891682148015906107185750806001600160a01b0316896001600160a01b031614155b61075e576040805162461bcd60e51b815260206004820152601260248201527146616d6f736f3a20494e56414c49445f544f60701b604482015290519081900360640190fd5b8a1561076f5761076f828a8d611a20565b891561078057610780818a8c611a20565b861561083257886001600160a01b0316639b56f82f338d8d8c8c6040518663ffffffff1660e01b815260040180866001600160a01b03168152602001858152602001848152602001806020018281038252848482818152602001925080828437600081840152601f19601f8201169050808301925050509650505050505050600060405180830381600087803b15801561081957600080fd5b505af115801561082d573d6000803e3d6000fd5b505050505b604080516370a0823160e01b815230600482015290516001600160a01b038416916370a08231916024808301926020929190829003018186803b15801561087857600080fd5b505afa15801561088c573d6000803e3d6000fd5b505050506040513d60208110156108a257600080fd5b5051604080516370a0823160e01b815230600482015290519195506001600160a01b038316916370a0823191602480820192602092909190829003018186803b1580156108ee57600080fd5b505afa158015610902573d6000803e3d6000fd5b505050506040513d602081101561091857600080fd5b5051925060009150506001600160701b0385168a9003831161093b57600061094a565b89856001600160701b03160383035b9050600089856001600160701b0316038311610967576000610976565b89856001600160701b03160383035b905060008211806109875750600081115b6109c25760405162461bcd60e51b81526004018080602001828103825260218152602001806122ab6021913960400191505060405180910390fd5b60006109e46109d2846003611bba565b6109de876103e8611bba565b90611c1d565b905060006109f66109d2846003611bba565b9050610a1b620f4240610a156001600160701b038b8116908b16611bba565b90611bba565b610a258383611bba565b1015610a64576040805162461bcd60e51b815260206004820152600960248201526846616d6f736f3a204b60b81b604482015290519081900360640190fd5b5050610a7284848888611c6d565b60408051838152602081018390528082018d9052606081018c905290516001600160a01b038b169133917fd78ad95fa46c994b6551d0da85fc275fe613ce37657fb8d5e3d130840159d8229181900360800190a350506001600c55505050505050505050565b604051806040016040528060138152602001722330b6b7b9b7a9bbb0b8102628102a37b5b2b760691b81525081565b6008546001600160701b0380821692600160701b830490911691600160e01b900463ffffffff1690565b6000610b3e338484611e29565b5060015b92915050565b6006546001600160a01b031681565b60005481565b6001600160a01b038316600090815260026020908152604080832033845290915281205460001914610bdc576001600160a01b0384166000908152600260209081526040808320338452909152902054610bb79083611c1d565b6001600160a01b03851660009081526002602090815260408083203384529091529020555b610be7848484611e8b565b5060019392505050565b7f6e71edae12b1b97f4d1f60370fef10105fa2faae0126114a169c64845d6126c981565b601281565b60035481565b6005546001600160a01b03163314610c73576040805162461bcd60e51b81526020600482015260116024820152702330b6b7b9b79d102327a92124a22222a760791b604482015290519081900360640190fd5b600680546001600160a01b039384166001600160a01b03199182161790915560078054929093169116179055565b60095481565b600a5481565b6000600c54600114610cf7576040805162461bcd60e51b815260206004820152600e60248201526d11985b5bdcdbce881313d0d2d15160921b604482015290519081900360640190fd5b6000600c81905580610d07610b07565b50600654604080516370a0823160e01b815230600482015290519395509193506000926001600160a01b03909116916370a08231916024808301926020929190829003018186803b158015610d5b57600080fd5b505afa158015610d6f573d6000803e3d6000fd5b505050506040513d6020811015610d8557600080fd5b5051600754604080516370a0823160e01b815230600482015290519293506000926001600160a01b03909216916370a0823191602480820192602092909190829003018186803b158015610dd857600080fd5b505afa158015610dec573d6000803e3d6000fd5b505050506040513d6020811015610e0257600080fd5b505190506000610e1b836001600160701b038716611c1d565b90506000610e32836001600160701b038716611c1d565b90506000610e408787611f39565b600054909150806110175760055460408051637cd07e4760e01b815290516000926001600160a01b031691637cd07e47916004808301926020929190829003018186803b158015610e9057600080fd5b505afa158015610ea4573d6000803e3d6000fd5b505050506040513d6020811015610eba57600080fd5b50519050336001600160a01b0382161415610f9557806001600160a01b03166340dc0e376040518163ffffffff1660e01b815260040160206040518083038186803b158015610f0857600080fd5b505afa158015610f1c573d6000803e3d6000fd5b505050506040513d6020811015610f3257600080fd5b505199508915801590610f4757506000198a14155b610f90576040805162461bcd60e51b81526020600482015260156024820152744261642064657369726564206c697175696469747960581b604482015290519081900360640190fd5b611011565b6001600160a01b03811615610fea576040805162461bcd60e51b815260206004820152601660248201527526bab9ba103737ba103430bb329036b4b3b930ba37b960511b604482015290519081900360640190fd5b6110026103e86109de610ffd8888611bba565b612079565b995061101160006103e86120cb565b5061105a565b6110576001600160701b03891661102e8684611bba565b8161103557fe5b046001600160701b03891661104a8685611bba565b8161105157fe5b04612155565b98505b600089116110995760405162461bcd60e51b81526004018080602001828103825260258152602001806122866025913960400191505060405180910390fd5b6110a38a8a6120cb565b6110af86868a8a611c6d565b81156110d9576008546110d5906001600160701b0380821691600160701b900416611bba565b600b555b6040805185815260208101859052815133927f4c209b5fc8ad50758f13e2e1088ba56a560dff690a1c6fef26394f4c03821c4f928290030190a250506001600c5550949695505050505050565b60016020526000908152604090205481565b600b5481565b60046020526000908152604090205481565b600080600c5460011461119b576040805162461bcd60e51b815260206004820152600e60248201526d11985b5bdcdbce881313d0d2d15160921b604482015290519081900360640190fd5b6000600c819055806111ab610b07565b50600654600754604080516370a0823160e01b815230600482015290519496509294506001600160a01b039182169391169160009184916370a08231916024808301926020929190829003018186803b15801561120757600080fd5b505afa15801561121b573d6000803e3d6000fd5b505050506040513d602081101561123157600080fd5b5051604080516370a0823160e01b815230600482015290519192506000916001600160a01b038516916370a08231916024808301926020929190829003018186803b15801561127f57600080fd5b505afa158015611293573d6000803e3d6000fd5b505050506040513d60208110156112a957600080fd5b5051306000908152600160205260408120549192506112c88888611f39565b600054909150806112d98487611bba565b816112e057fe5b049a50806112ee8486611bba565b816112f557fe5b04995060008b118015611308575060008a115b6113435760405162461bcd60e51b81526004018080602001828103825260258152602001806122ee6025913960400191505060405180910390fd5b61134d308461216d565b611358878d8d611a20565b611363868d8c611a20565b604080516370a0823160e01b815230600482015290516001600160a01b038916916370a08231916024808301926020929190829003018186803b1580156113a957600080fd5b505afa1580156113bd573d6000803e3d6000fd5b505050506040513d60208110156113d357600080fd5b5051604080516370a0823160e01b815230600482015290519196506001600160a01b038816916370a0823191602480820192602092909190829003018186803b15801561141f57600080fd5b505afa158015611433573d6000803e3d6000fd5b505050506040513d602081101561144957600080fd5b5051935061145985858b8b611c6d565b81156114835760085461147f906001600160701b0380821691600160701b900416611bba565b600b555b604080518c8152602081018c905281516001600160a01b038f169233927fdccd412f0b1252819cb1fd330b93224ca42612892bb3f4f789976e6d81936496929081900390910190a35050505050505050506001600c81905550915091565b60405180604001604052806008815260200167046616d6f736f4c560c41b81525081565b6000610b3e338484611e8b565b6103e881565b600c54600114611560576040805162461bcd60e51b815260206004820152600e60248201526d11985b5bdcdbce881313d0d2d15160921b604482015290519081900360640190fd5b6000600c55600654600754600854604080516370a0823160e01b815230600482015290516001600160a01b0394851694909316926116099285928792611604926001600160701b03169185916370a0823191602480820192602092909190829003018186803b1580156115d257600080fd5b505afa1580156115e6573d6000803e3d6000fd5b505050506040513d60208110156115fc57600080fd5b505190611c1d565b611a20565b61167d81846116046008600e9054906101000a90046001600160701b03166001600160701b0316856001600160a01b03166370a08231306040518263ffffffff1660e01b815260040180826001600160a01b0316815260200191505060206040518083038186803b1580156115d257600080fd5b50506001600c5550565b6005546001600160a01b031681565b6007546001600160a01b031681565b428410156116ec576040805162461bcd60e51b815260206004820152600f60248201526e11985b5bdcdbce8811561412549151608a1b604482015290519081900360640190fd5b6003546001600160a01b0380891660008181526004602090815260408083208054600180820190925582517f6e71edae12b1b97f4d1f60370fef10105fa2faae0126114a169c64845d6126c98186015280840196909652958d166060860152608085018c905260a085019590955260c08085018b90528151808603909101815260e08501825280519083012061190160f01b6101008601526101028501969096526101228085019690965280518085039096018652610142840180825286519683019690962095839052610162840180825286905260ff89166101828501526101a284018890526101c28401879052519193926101e280820193601f1981019281900390910190855afa158015611807573d6000803e3d6000fd5b5050604051601f1901519150506001600160a01b0381161580159061183d5750886001600160a01b0316816001600160a01b0316145b61188e576040805162461bcd60e51b815260206004820152601960248201527f46616d6f736f3a20494e56414c49445f5349474e415455524500000000000000604482015290519081900360640190fd5b611899898989611e29565b505050505050505050565b600260209081526000928352604080842090915290825290205481565b600c54600114611909576040805162461bcd60e51b815260206004820152600e60248201526d11985b5bdcdbce881313d0d2d15160921b604482015290519081900360640190fd5b6000600c55600654604080516370a0823160e01b81523060048201529051611a19926001600160a01b0316916370a08231916024808301926020929190829003018186803b15801561195a57600080fd5b505afa15801561196e573d6000803e3d6000fd5b505050506040513d602081101561198457600080fd5b5051600754604080516370a0823160e01b815230600482015290516001600160a01b03909216916370a0823191602480820192602092909190829003018186803b1580156119d157600080fd5b505afa1580156119e5573d6000803e3d6000fd5b505050506040513d60208110156119fb57600080fd5b50516008546001600160701b0380821691600160701b900416611c6d565b6001600c55565b604080518082018252601981527f7472616e7366657228616464726573732c75696e74323536290000000000000060209182015281516001600160a01b0385811660248301526044808301869052845180840390910181526064909201845291810180516001600160e01b031663a9059cbb60e01b1781529251815160009460609489169392918291908083835b60208310611acd5780518252601f199092019160209182019101611aae565b6001836020036101000a0380198251168184511680821785525050505050509050019150506000604051808303816000865af19150503d8060008114611b2f576040519150601f19603f3d011682016040523d82523d6000602084013e611b34565b606091505b5091509150818015611b62575080511580611b625750808060200190516020811015611b5f57600080fd5b50515b611bb3576040805162461bcd60e51b815260206004820152601760248201527f46616d6f736f3a205452414e534645525f4641494c4544000000000000000000604482015290519081900360640190fd5b5050505050565b6000811580611bd557505080820282828281611bd257fe5b04145b610b42576040805162461bcd60e51b815260206004820152601460248201527364732d6d6174682d6d756c2d6f766572666c6f7760601b604482015290519081900360640190fd5b80820382811115610b42576040805162461bcd60e51b815260206004820152601560248201527464732d6d6174682d7375622d756e646572666c6f7760581b604482015290519081900360640190fd5b6001600160701b038411801590611c8b57506001600160701b038311155b611ccf576040805162461bcd60e51b815260206004820152601060248201526f46616d6f736f3a204f564552464c4f5760801b604482015290519081900360640190fd5b60085463ffffffff42811691600160e01b90048116820390811615801590611cff57506001600160701b03841615155b8015611d1357506001600160701b03831615155b15611d7e578063ffffffff16611d3b85611d2c866121ff565b6001600160e01b031690612211565b600980546001600160e01b03929092169290920201905563ffffffff8116611d6684611d2c876121ff565b600a80546001600160e01b0392909216929092020190555b600880546dffffffffffffffffffffffffffff19166001600160701b03888116919091176dffffffffffffffffffffffffffff60701b1916600160701b8883168102919091176001600160e01b0316600160e01b63ffffffff871602179283905560408051848416815291909304909116602082015281517f1c411e9a96e071241c2f21f7726b17ae89e3cab4c78be50e062b03a9fffbbad1929181900390910190a1505050505050565b6001600160a01b03808416600081815260026020908152604080832094871680845294825291829020859055815185815291517f8c5be1e5ebec7d5bd14f71427d1e84f3dd0314c0f7b2291e5b200ac8c7c3b9259281900390910190a3505050565b6001600160a01b038316600090815260016020526040902054611eae9082611c1d565b6001600160a01b038085166000908152600160205260408082209390935590841681522054611edd9082612236565b6001600160a01b0380841660008181526001602090815260409182902094909455805185815290519193928716927fddf252ad1be2c89b69c2b068fc378daa952ba7f163c4a11628f55a4df523b3ef92918290030190a3505050565b600080600560009054906101000a90046001600160a01b03166001600160a01b031663017e7e586040518163ffffffff1660e01b815260040160206040518083038186803b158015611f8a57600080fd5b505afa158015611f9e573d6000803e3d6000fd5b505050506040513d6020811015611fb457600080fd5b5051600b546001600160a01b038216158015945091925090612065578015612060576000611ff1610ffd6001600160701b03888116908816611bba565b90506000611ffe83612079565b90508082111561205d5760006120206120178484611c1d565b60005490611bba565b9050600061203983612033866005611bba565b90612236565b9050600081838161204657fe5b04905080156120595761205987826120cb565b5050505b50505b612071565b8015612071576000600b555b505092915050565b600060038211156120bc575080600160028204015b818110156120b6578091506002818285816120a557fe5b0401816120ae57fe5b04905061208e565b506120c6565b81156120c6575060015b919050565b6000546120d89082612236565b60009081556001600160a01b0383168152600160205260409020546120fd9082612236565b6001600160a01b03831660008181526001602090815260408083209490945583518581529351929391927fddf252ad1be2c89b69c2b068fc378daa952ba7f163c4a11628f55a4df523b3ef9281900390910190a35050565b60008183106121645781612166565b825b9392505050565b6001600160a01b0382166000908152600160205260409020546121909082611c1d565b6001600160a01b038316600090815260016020526040812091909155546121b79082611c1d565b60009081556040805183815290516001600160a01b038516917fddf252ad1be2c89b69c2b068fc378daa952ba7f163c4a11628f55a4df523b3ef919081900360200190a35050565b6001600160701b0316600160701b0290565b60006001600160701b0382166001600160e01b0384168161222e57fe5b049392505050565b80820182811015610b42576040805162461bcd60e51b815260206004820152601460248201527364732d6d6174682d6164642d6f766572666c6f7760601b604482015290519081900360640190fdfe46616d6f736f3a20494e53554646494349454e545f4c49515549444954595f4d494e54454446616d6f736f3a20494e53554646494349454e545f494e5055545f414d4f554e5446616d6f736f3a20494e53554646494349454e545f4f55545055545f414d4f554e5446616d6f736f3a20494e53554646494349454e545f4c49515549444954595f4255524e4544a26469706673582212201961dc60fdf98a819734cd9d6801e4efd117f31107465b8770ccd77d697d896164736f6c634300060c0033a26469706673582212204f596626dbf107fa07d19c00b3a3589360ce9dba465aa0f01cc391eeaf96243664736f6c634300060c0033",
  "immutableReferences": {},
  "source": "// SPDX-License-Identifier: MIT\r\npragma solidity =0.6.12;\r\n\r\nimport './interfaces/IFamosoFactory.sol';\r\nimport './FamosoPair.sol';\r\n\r\ncontract FamosoFactory is IFamosoFactory {\r\n    address public override feeTo;\r\n    address public override feeToSetter;\r\n    address public override migrator;\r\n\r\n    mapping(address => mapping(address => address)) public override getPair;\r\n    address[] public override allPairs;\r\n\r\n    event PairCreated(address indexed token0, address indexed token1, address pair, uint);\r\n\r\n    constructor(address _feeToSetter) public {\r\n        feeToSetter = _feeToSetter;\r\n    }\r\n\r\n    function allPairsLength() external override view returns (uint) {\r\n        return allPairs.length;\r\n    }\r\n\r\n    function pairCodeHash() external pure returns (bytes32) {\r\n        return keccak256(type(FamosoPair).creationCode);\r\n    }\r\n\r\n    function createPair(address tokenA, address tokenB) external override returns (address pair) {\r\n        require(tokenA != tokenB, 'Famoso: IDENTICAL_ADDRESSES');\r\n        (address token0, address token1) = tokenA < tokenB ? (tokenA, tokenB) : (tokenB, tokenA);\r\n        require(token0 != address(0), 'Famoso: ZERO_ADDRESS');\r\n        require(getPair[token0][token1] == address(0), 'Famoso: PAIR_EXISTS'); // single check is sufficient\r\n        bytes memory bytecode = type(FamosoPair).creationCode;\r\n        bytes32 salt = keccak256(abi.encodePacked(token0, token1));\r\n        assembly {\r\n            pair := create2(0, add(bytecode, 32), mload(bytecode), salt)\r\n        }\r\n        FamosoPair(pair).initialize(token0, token1);\r\n        getPair[token0][token1] = pair;\r\n        getPair[token1][token0] = pair; // populate mapping in the reverse direction\r\n        allPairs.push(pair);\r\n        emit PairCreated(token0, token1, pair, allPairs.length);\r\n    }\r\n\r\n    function setFeeTo(address _feeTo) external override {\r\n        require(msg.sender == feeToSetter, 'Famoso: FORBIDDEN');\r\n        feeTo = _feeTo;\r\n    }\r\n\r\n    function setMigrator(address _migrator) external override {\r\n        require(msg.sender == feeToSetter, 'Famoso: FORBIDDEN');\r\n        migrator = _migrator;\r\n    }\r\n\r\n    function setFeeToSetter(address _feeToSetter) external override {\r\n        require(msg.sender == feeToSetter, 'Famoso: FORBIDDEN');\r\n        feeToSetter = _feeToSetter;\r\n    }\r\n\r\n}\r\n",
  "sourcePath": "F:\\cifi_works\\smart_contract\\swaps\\famososwap\\contracts\\FamosoFactory.sol",
  "compiler": {
    "name": "solc",
    "version": "0.6.12+commit.27d51765.Emscripten.clang"
  },
  "schemaVersion": "3.4.3",
  "updatedAt": "2021-12-21T18:16:04.467Z",
  "devdoc": {
    "kind": "dev",
    "methods": {},
    "version": 1
  },
  "userdoc": {
    "kind": "user",
    "methods": {},
    "version": 1
  }
}