{
  "contractName": "FamosoStaking",
  "abi": [
    {
      "inputs": [
        {
          "internalType": "address",
          "name": "_lpToken",
          "type": "address"
        },
        {
          "internalType": "address",
          "name": "_rewardToken",
          "type": "address"
        },
        {
          "internalType": "uint256",
          "name": "_rewardPerSec",
          "type": "uint256"
        }
      ],
      "stateMutability": "nonpayable",
      "type": "constructor"
    },
    {
      "anonymous": false,
      "inputs": [
        {
          "indexed": true,
          "internalType": "address",
          "name": "user",
          "type": "address"
        },
        {
          "indexed": false,
          "internalType": "uint256",
          "name": "amount",
          "type": "uint256"
        }
      ],
      "name": "Deposit",
      "type": "event"
    },
    {
      "anonymous": false,
      "inputs": [
        {
          "indexed": true,
          "internalType": "address",
          "name": "user",
          "type": "address"
        },
        {
          "indexed": false,
          "internalType": "uint256",
          "name": "amount",
          "type": "uint256"
        }
      ],
      "name": "Reward",
      "type": "event"
    },
    {
      "anonymous": false,
      "inputs": [
        {
          "indexed": true,
          "internalType": "address",
          "name": "user",
          "type": "address"
        },
        {
          "indexed": false,
          "internalType": "uint256",
          "name": "amount",
          "type": "uint256"
        }
      ],
      "name": "Withdraw",
      "type": "event"
    },
    {
      "inputs": [],
      "name": "adminAddress",
      "outputs": [
        {
          "internalType": "address",
          "name": "",
          "type": "address"
        }
      ],
      "stateMutability": "view",
      "type": "function",
      "constant": true
    },
    {
      "inputs": [],
      "name": "lockedTime",
      "outputs": [
        {
          "internalType": "uint256",
          "name": "",
          "type": "uint256"
        }
      ],
      "stateMutability": "view",
      "type": "function",
      "constant": true
    },
    {
      "inputs": [],
      "name": "rewardPerSec",
      "outputs": [
        {
          "internalType": "uint256",
          "name": "",
          "type": "uint256"
        }
      ],
      "stateMutability": "view",
      "type": "function",
      "constant": true
    },
    {
      "inputs": [],
      "name": "rewardToken",
      "outputs": [
        {
          "internalType": "address",
          "name": "",
          "type": "address"
        }
      ],
      "stateMutability": "view",
      "type": "function",
      "constant": true
    },
    {
      "inputs": [
        {
          "internalType": "address",
          "name": "",
          "type": "address"
        }
      ],
      "name": "userInfo",
      "outputs": [
        {
          "internalType": "uint256",
          "name": "amount",
          "type": "uint256"
        },
        {
          "internalType": "uint256",
          "name": "rewarded",
          "type": "uint256"
        },
        {
          "internalType": "uint256",
          "name": "rewardDebt",
          "type": "uint256"
        },
        {
          "internalType": "uint256",
          "name": "lastCalculatedTimeStamp",
          "type": "uint256"
        },
        {
          "internalType": "uint256",
          "name": "lastDepositTimeStamp",
          "type": "uint256"
        }
      ],
      "stateMutability": "view",
      "type": "function",
      "constant": true
    },
    {
      "inputs": [
        {
          "internalType": "uint256",
          "name": "",
          "type": "uint256"
        }
      ],
      "name": "userList",
      "outputs": [
        {
          "internalType": "address",
          "name": "",
          "type": "address"
        }
      ],
      "stateMutability": "view",
      "type": "function",
      "constant": true
    },
    {
      "inputs": [
        {
          "internalType": "address",
          "name": "_adminAddress",
          "type": "address"
        }
      ],
      "name": "setAdmin",
      "outputs": [],
      "stateMutability": "nonpayable",
      "type": "function"
    },
    {
      "inputs": [
        {
          "internalType": "uint256",
          "name": "amount",
          "type": "uint256"
        }
      ],
      "name": "deposit",
      "outputs": [],
      "stateMutability": "nonpayable",
      "type": "function"
    },
    {
      "inputs": [],
      "name": "withdraw",
      "outputs": [],
      "stateMutability": "nonpayable",
      "type": "function"
    },
    {
      "inputs": [],
      "name": "reward",
      "outputs": [],
      "stateMutability": "nonpayable",
      "type": "function"
    }
  ],
  "bytecode": "0x608060405262127500600855600160095534801561001c57600080fd5b50604051610c2a380380610c2a8339818101604052606081101561003f57600080fd5b508051602082015160409092015160048054336001600160a01b0319918216179091556000805482166001600160a01b039485161781556003805490921693909416929092179091556005556001819055610b8a9081906100a090396000f3fe608060405234801561001057600080fd5b506004361061009e5760003560e01c80639f4216e8116100665780639f4216e814610146578063a8b382051461017f578063b6b55f2514610187578063f7c618c1146101a4578063fc6f9468146101ac5761009e565b80631959a002146100a3578063228cb733146100f45780633ccfd60b146100fe5780634f41e95d14610106578063704b6c0214610120575b600080fd5b6100c9600480360360208110156100b957600080fd5b50356001600160a01b03166101b4565b6040805195865260208601949094528484019290925260608401526080830152519081900360a00190f35b6100fc6101e3565b005b6100fc610304565b61010e6104be565b60408051918252519081900360200190f35b6100fc6004803603602081101561013657600080fd5b50356001600160a01b03166104c4565b6101636004803603602081101561015c57600080fd5b5035610531565b604080516001600160a01b039092168252519081900360200190f35b61010e610558565b6100fc6004803603602081101561019d57600080fd5b503561055e565b610163610723565b610163610732565b600660205260009081526040902080546001820154600283015460038401546004909401549293919290919085565b60095460011461022b576040805162461bcd60e51b815260206004820152600e60248201526d11985b5bdcdbce881313d0d2d15160921b604482015290519081900360640190fd5b60006009819055338152600660205260409020610246610741565b60028101548061029d576040805162461bcd60e51b815260206004820152601860248201527f6e6f7420656e6f7567682072657761726420616d6f756e740000000000000000604482015290519081900360640190fd5b60018201805482019055600060028301556003546102c5906001600160a01b031633836107c4565b60408051828152905133917f619caafabdd75649b302ba8419e48cccf64f37f1983ac4727cfb38b57703ffc9919081900360200190a250506001600955565b60095460011461034c576040805162461bcd60e51b815260206004820152600e60248201526d11985b5bdcdbce881313d0d2d15160921b604482015290519081900360640190fd5b6000600981905533815260066020526040902060048101546103a4576040805162461bcd60e51b815260206004820152600c60248201526b34b73b30b634b2103ab9b2b960a11b604482015290519081900360640190fd5b80546103e4576040805162461bcd60e51b815260206004820152600a6024820152691b9bdd081cdd185ad95960b21b604482015290519081900360640190fd5b4260085482600401540110610439576040805162461bcd60e51b81526020600482015260166024820152753cb7ba9030b9329034b7103637b1b5b2b22a34b6b29760511b604482015290519081900360640190fd5b610441610741565b600054815461045b916001600160a01b03169033906107c4565b8054600180549190910381556000808355600283018054928401805490930190925590819055604080519182525133917f884edad9ce6fa2440d8a54cc123490eb96d2768479d49ff9c7366125a9424364919081900360200190a2506001600955565b60055481565b6004546001600160a01b0316331461050f576040805162461bcd60e51b81526020600482015260096024820152683737ba1020b236b4b760b91b604482015290519081900360640190fd5b600480546001600160a01b0319166001600160a01b0392909216919091179055565b6007818154811061053e57fe5b6000918252602090912001546001600160a01b0316905081565b60085481565b6009546001146105a6576040805162461bcd60e51b815260206004820152600e60248201526d11985b5bdcdbce881313d0d2d15160921b604482015290519081900360640190fd5b6000600955806105ee576040805162461bcd60e51b815260206004820152600e60248201526d1a5b9d985a5b1908185b5bdd5b9d60921b604482015290519081900360640190fd5b600054610606906001600160a01b031633308461092e565b336000908152600660205260408120906001905b60075481101561066357336001600160a01b03166007828154811061063b57fe5b6000918252602090912001546001600160a01b0316141561065b57600091505b60010161061a565b5061066c610741565b80156106ce57600780546001818101835560009283527fa66cc928b5edb82af9bd49922954155ab7b0942694bea4ce44661d9a8736c68890910180546001600160a01b03191633179055848455830181905560028301554260048301556106db565b8154830182554260048301555b600180548401905560408051848152905133917fe1fffcc4923d04b559f4d29a8bfc6cda04eb5b0d3c460751c2402c5c5cc9109c919081900360200190a25050600160095550565b6003546001600160a01b031681565b6004546001600160a01b031681565b60005b6007548110156107c1576000600660006007848154811061076157fe5b60009182526020808320909101546001600160a01b031683528201929092526040018120600381015490925042919061079b908390610a8b565b60028401549091506107ad9082610ae1565b600284015550600390910155600101610744565b50565b604080516001600160a01b038481166024830152604480830185905283518084039091018152606490920183526020820180516001600160e01b031663a9059cbb60e01b178152925182516000946060949389169392918291908083835b602083106108415780518252601f199092019160209182019101610822565b6001836020036101000a0380198251168184511680821785525050505050509050019150506000604051808303816000865af19150503d80600081146108a3576040519150601f19603f3d011682016040523d82523d6000602084013e6108a8565b606091505b50915091508180156108d65750805115806108d657508080602001905160208110156108d357600080fd5b50515b610927576040805162461bcd60e51b815260206004820152601f60248201527f5472616e7366657248656c7065723a205452414e534645525f4641494c454400604482015290519081900360640190fd5b5050505050565b604080516001600160a01b0385811660248301528481166044830152606480830185905283518084039091018152608490920183526020820180516001600160e01b03166323b872dd60e01b17815292518251600094606094938a169392918291908083835b602083106109b35780518252601f199092019160209182019101610994565b6001836020036101000a0380198251168184511680821785525050505050509050019150506000604051808303816000865af19150503d8060008114610a15576040519150601f19603f3d011682016040523d82523d6000602084013e610a1a565b606091505b5091509150818015610a48575080511580610a485750808060200190516020811015610a4557600080fd5b50515b610a835760405162461bcd60e51b8152600401808060200182810382526024815260200180610b316024913960400191505060405180910390fd5b505050505050565b80820382811115610adb576040805162461bcd60e51b815260206004820152601560248201527464732d6d6174682d7375622d756e646572666c6f7760581b604482015290519081900360640190fd5b92915050565b80820182811015610adb576040805162461bcd60e51b815260206004820152601460248201527364732d6d6174682d6164642d6f766572666c6f7760601b604482015290519081900360640190fdfe5472616e7366657248656c7065723a205452414e534645525f46524f4d5f4641494c4544a26469706673582212204b510526df267c77178cd5f6604e3773178b091e9a87d6a280fe76e3100e89da64736f6c634300060c0033",
  "immutableReferences": {},
  "source": "// SPDX-License-Identifier: MIT\r\n\r\npragma solidity =0.6.12;\r\nimport './libraries/Math.sol';\r\nimport \"./libraries/SafeMath.sol\";\r\nimport './libraries/UQ112x112.sol';\r\nimport './libraries/TransferHelper.sol';\r\nimport './interfaces/IERC20.sol';\r\n\r\ncontract FamosoStaking {\r\n    using SafeMath  for uint;\r\n    using UQ112x112 for uint224;\r\n\r\n    struct UserInfo {\r\n        uint256 amount;\r\n        uint256 rewarded;\r\n        uint256 rewardDebt;\r\n        uint256 lastCalculatedTimeStamp;\r\n        uint256 lastDepositTimeStamp;\r\n    }\r\n\r\n    // pool info\r\n    address lpToken;\r\n    uint256 totalAmount;\r\n    uint256 lastRewardTimeStamp;\r\n\r\n    address public rewardToken;\r\n    address public adminAddress;\r\n    // CIFI tokens created per Sec.\r\n    uint256 public rewardPerSec;\r\n    \r\n    // Info of each user that stakes LP tokens.\r\n    mapping (address => UserInfo) public userInfo;\r\n    address[] public userList;\r\n    uint256 public lockedTime = 14 * 24 * 3600; // 14days\r\n    uint private unlocked = 1;\r\n\r\n    event Deposit(address indexed user, uint256 amount);\r\n    event Withdraw(address indexed user, uint256 amount);\r\n    event Reward(address indexed user, uint256 amount);\r\n\r\n    modifier lock() {\r\n        require(unlocked == 1, 'Famoso: LOCKED');\r\n        unlocked = 0;\r\n        _;\r\n        unlocked = 1;\r\n    }\r\n\r\n    constructor(\r\n        address _lpToken,\r\n        address _rewardToken,\r\n        uint256 _rewardPerSec\r\n    ) public {\r\n        adminAddress = msg.sender;\r\n        lpToken = _lpToken;\r\n        rewardToken = _rewardToken;\r\n        rewardPerSec = _rewardPerSec;\r\n        totalAmount = 0;\r\n    }\r\n\r\n    function setAdmin(address _adminAddress) public {\r\n        require(adminAddress == msg.sender, \"not Admin\");\r\n        adminAddress = _adminAddress;\r\n    }\r\n\r\n    function updatePool() internal {\r\n        for (uint i = 0; i < userList.length; i++) {\r\n            UserInfo storage user = userInfo[userList[i]];\r\n            uint256 lastTimeStamp = block.timestamp;\r\n            uint256 accDebt = lastTimeStamp.sub(user.lastCalculatedTimeStamp); //.mul(rewardPerSec).mul(user.amount).uqdiv(totalAmount);\r\n            user.rewardDebt = user.rewardDebt.add(accDebt);\r\n            user.lastCalculatedTimeStamp = lastTimeStamp;\r\n        }\r\n    }\r\n    function deposit(uint256 amount) public lock {\r\n        require(amount > 0, \"invaild amount\");\r\n        TransferHelper.safeTransferFrom(lpToken, msg.sender, address(this), amount);\r\n        UserInfo storage user = userInfo[msg.sender];\r\n        bool isFirst = true;\r\n        for (uint i = 0; i < userList.length; i++) {\r\n            if (userList[i] == msg.sender) {\r\n                isFirst = false;\r\n            }\r\n        }\r\n        updatePool();\r\n        if (isFirst) {\r\n            userList.push(msg.sender);\r\n            user.amount = amount;\r\n            user.rewarded = 0;\r\n            user.rewardDebt = 0;\r\n            user.lastDepositTimeStamp = block.timestamp;            \r\n        } else {\r\n            user.amount = user.amount + amount;\r\n            user.lastDepositTimeStamp = block.timestamp;\r\n        }\r\n        totalAmount = totalAmount + amount;\r\n        emit Deposit(msg.sender, amount);\r\n    }\r\n\r\n    function withdraw() public lock {\r\n        UserInfo storage user = userInfo[msg.sender];\r\n        require(user.lastDepositTimeStamp > 0, \"invalid user\");\r\n        require(user.amount > 0, \"not staked\");\r\n        require(user.lastDepositTimeStamp + lockedTime < block.timestamp, \"you are in lockedTime.\");\r\n        updatePool();\r\n        TransferHelper.safeTransfer(lpToken, msg.sender, user.amount);\r\n        totalAmount = totalAmount - user.amount;\r\n        user.amount = 0;\r\n        user.rewarded = user.rewarded + user.rewardDebt;\r\n        user.rewardDebt = 0;\r\n        emit Withdraw(msg.sender, user.amount);\r\n    }\r\n\r\n    function reward() public lock {\r\n        UserInfo storage user = userInfo[msg.sender];\r\n        updatePool();\r\n        uint amount = user.rewardDebt;\r\n        require(amount > 0, \"not enough reward amount\");\r\n        user.rewarded = user.rewarded + amount;\r\n        user.rewardDebt = 0;\r\n        TransferHelper.safeTransfer(rewardToken, msg.sender, amount);\r\n        emit Reward(msg.sender, amount);\r\n    }\r\n}",
  "sourcePath": "F:\\cifi_works\\smart_contract\\swaps\\famososwap\\contracts\\FamosoStaking.sol",
  "compiler": {
    "name": "solc",
    "version": "0.6.12+commit.27d51765.Emscripten.clang"
  },
  "schemaVersion": "3.4.3",
  "updatedAt": "2021-12-21T18:17:58.420Z",
  "networkType": "ethereum",
  "devdoc": {
    "kind": "dev",
    "methods": {},
    "version": 1
  },
  "userdoc": {
    "kind": "user",
    "methods": {},
    "version": 1
  }
}