{
  "contractName": "FamosoRouter",
  "abi": [
    {
      "inputs": [
        {
          "internalType": "address",
          "name": "_factory",
          "type": "address"
        },
        {
          "internalType": "address",
          "name": "_WETH",
          "type": "address"
        }
      ],
      "stateMutability": "nonpayable",
      "type": "constructor"
    },
    {
      "inputs": [],
      "name": "WETH",
      "outputs": [
        {
          "internalType": "address",
          "name": "",
          "type": "address"
        }
      ],
      "stateMutability": "view",
      "type": "function"
    },
    {
      "inputs": [],
      "name": "factory",
      "outputs": [
        {
          "internalType": "address",
          "name": "",
          "type": "address"
        }
      ],
      "stateMutability": "view",
      "type": "function"
    },
    {
      "inputs": [],
      "name": "fblist",
      "outputs": [
        {
          "internalType": "address",
          "name": "",
          "type": "address"
        }
      ],
      "stateMutability": "view",
      "type": "function"
    },
    {
      "stateMutability": "payable",
      "type": "receive"
    },
    {
      "inputs": [
        {
          "internalType": "address",
          "name": "tokenA",
          "type": "address"
        },
        {
          "internalType": "address",
          "name": "tokenB",
          "type": "address"
        },
        {
          "internalType": "uint256",
          "name": "amountADesired",
          "type": "uint256"
        },
        {
          "internalType": "uint256",
          "name": "amountBDesired",
          "type": "uint256"
        },
        {
          "internalType": "uint256",
          "name": "amountAMin",
          "type": "uint256"
        },
        {
          "internalType": "uint256",
          "name": "amountBMin",
          "type": "uint256"
        },
        {
          "internalType": "address",
          "name": "to",
          "type": "address"
        },
        {
          "internalType": "uint256",
          "name": "deadline",
          "type": "uint256"
        }
      ],
      "name": "addLiquidity",
      "outputs": [
        {
          "internalType": "uint256",
          "name": "amountA",
          "type": "uint256"
        },
        {
          "internalType": "uint256",
          "name": "amountB",
          "type": "uint256"
        },
        {
          "internalType": "uint256",
          "name": "liquidity",
          "type": "uint256"
        }
      ],
      "stateMutability": "nonpayable",
      "type": "function"
    },
    {
      "inputs": [
        {
          "internalType": "address",
          "name": "token",
          "type": "address"
        },
        {
          "internalType": "uint256",
          "name": "amountTokenDesired",
          "type": "uint256"
        },
        {
          "internalType": "uint256",
          "name": "amountTokenMin",
          "type": "uint256"
        },
        {
          "internalType": "uint256",
          "name": "amountETHMin",
          "type": "uint256"
        },
        {
          "internalType": "address",
          "name": "to",
          "type": "address"
        },
        {
          "internalType": "uint256",
          "name": "deadline",
          "type": "uint256"
        }
      ],
      "name": "addLiquidityETH",
      "outputs": [
        {
          "internalType": "uint256",
          "name": "amountToken",
          "type": "uint256"
        },
        {
          "internalType": "uint256",
          "name": "amountETH",
          "type": "uint256"
        },
        {
          "internalType": "uint256",
          "name": "liquidity",
          "type": "uint256"
        }
      ],
      "stateMutability": "payable",
      "type": "function"
    },
    {
      "inputs": [
        {
          "internalType": "address",
          "name": "tokenA",
          "type": "address"
        },
        {
          "internalType": "address",
          "name": "tokenB",
          "type": "address"
        },
        {
          "internalType": "uint256",
          "name": "liquidity",
          "type": "uint256"
        },
        {
          "internalType": "uint256",
          "name": "amountAMin",
          "type": "uint256"
        },
        {
          "internalType": "uint256",
          "name": "amountBMin",
          "type": "uint256"
        },
        {
          "internalType": "address",
          "name": "to",
          "type": "address"
        },
        {
          "internalType": "uint256",
          "name": "deadline",
          "type": "uint256"
        }
      ],
      "name": "removeLiquidity",
      "outputs": [
        {
          "internalType": "uint256",
          "name": "amountA",
          "type": "uint256"
        },
        {
          "internalType": "uint256",
          "name": "amountB",
          "type": "uint256"
        }
      ],
      "stateMutability": "nonpayable",
      "type": "function"
    },
    {
      "inputs": [
        {
          "internalType": "address",
          "name": "token",
          "type": "address"
        },
        {
          "internalType": "uint256",
          "name": "liquidity",
          "type": "uint256"
        },
        {
          "internalType": "uint256",
          "name": "amountTokenMin",
          "type": "uint256"
        },
        {
          "internalType": "uint256",
          "name": "amountETHMin",
          "type": "uint256"
        },
        {
          "internalType": "address",
          "name": "to",
          "type": "address"
        },
        {
          "internalType": "uint256",
          "name": "deadline",
          "type": "uint256"
        }
      ],
      "name": "removeLiquidityETH",
      "outputs": [
        {
          "internalType": "uint256",
          "name": "amountToken",
          "type": "uint256"
        },
        {
          "internalType": "uint256",
          "name": "amountETH",
          "type": "uint256"
        }
      ],
      "stateMutability": "nonpayable",
      "type": "function"
    },
    {
      "inputs": [
        {
          "internalType": "address",
          "name": "tokenA",
          "type": "address"
        },
        {
          "internalType": "address",
          "name": "tokenB",
          "type": "address"
        },
        {
          "internalType": "uint256",
          "name": "liquidity",
          "type": "uint256"
        },
        {
          "internalType": "uint256",
          "name": "amountAMin",
          "type": "uint256"
        },
        {
          "internalType": "uint256",
          "name": "amountBMin",
          "type": "uint256"
        },
        {
          "internalType": "address",
          "name": "to",
          "type": "address"
        },
        {
          "internalType": "uint256",
          "name": "deadline",
          "type": "uint256"
        },
        {
          "internalType": "bool",
          "name": "approveMax",
          "type": "bool"
        },
        {
          "internalType": "uint8",
          "name": "v",
          "type": "uint8"
        },
        {
          "internalType": "bytes32",
          "name": "r",
          "type": "bytes32"
        },
        {
          "internalType": "bytes32",
          "name": "s",
          "type": "bytes32"
        }
      ],
      "name": "removeLiquidityWithPermit",
      "outputs": [
        {
          "internalType": "uint256",
          "name": "amountA",
          "type": "uint256"
        },
        {
          "internalType": "uint256",
          "name": "amountB",
          "type": "uint256"
        }
      ],
      "stateMutability": "nonpayable",
      "type": "function"
    },
    {
      "inputs": [
        {
          "internalType": "address",
          "name": "token",
          "type": "address"
        },
        {
          "internalType": "uint256",
          "name": "liquidity",
          "type": "uint256"
        },
        {
          "internalType": "uint256",
          "name": "amountTokenMin",
          "type": "uint256"
        },
        {
          "internalType": "uint256",
          "name": "amountETHMin",
          "type": "uint256"
        },
        {
          "internalType": "address",
          "name": "to",
          "type": "address"
        },
        {
          "internalType": "uint256",
          "name": "deadline",
          "type": "uint256"
        },
        {
          "internalType": "bool",
          "name": "approveMax",
          "type": "bool"
        },
        {
          "internalType": "uint8",
          "name": "v",
          "type": "uint8"
        },
        {
          "internalType": "bytes32",
          "name": "r",
          "type": "bytes32"
        },
        {
          "internalType": "bytes32",
          "name": "s",
          "type": "bytes32"
        }
      ],
      "name": "removeLiquidityETHWithPermit",
      "outputs": [
        {
          "internalType": "uint256",
          "name": "amountToken",
          "type": "uint256"
        },
        {
          "internalType": "uint256",
          "name": "amountETH",
          "type": "uint256"
        }
      ],
      "stateMutability": "nonpayable",
      "type": "function"
    },
    {
      "inputs": [
        {
          "internalType": "address",
          "name": "token",
          "type": "address"
        },
        {
          "internalType": "uint256",
          "name": "liquidity",
          "type": "uint256"
        },
        {
          "internalType": "uint256",
          "name": "amountTokenMin",
          "type": "uint256"
        },
        {
          "internalType": "uint256",
          "name": "amountETHMin",
          "type": "uint256"
        },
        {
          "internalType": "address",
          "name": "to",
          "type": "address"
        },
        {
          "internalType": "uint256",
          "name": "deadline",
          "type": "uint256"
        }
      ],
      "name": "removeLiquidityETHSupportingFeeOnTransferTokens",
      "outputs": [
        {
          "internalType": "uint256",
          "name": "amountETH",
          "type": "uint256"
        }
      ],
      "stateMutability": "nonpayable",
      "type": "function"
    },
    {
      "inputs": [
        {
          "internalType": "address",
          "name": "token",
          "type": "address"
        },
        {
          "internalType": "uint256",
          "name": "liquidity",
          "type": "uint256"
        },
        {
          "internalType": "uint256",
          "name": "amountTokenMin",
          "type": "uint256"
        },
        {
          "internalType": "uint256",
          "name": "amountETHMin",
          "type": "uint256"
        },
        {
          "internalType": "address",
          "name": "to",
          "type": "address"
        },
        {
          "internalType": "uint256",
          "name": "deadline",
          "type": "uint256"
        },
        {
          "internalType": "bool",
          "name": "approveMax",
          "type": "bool"
        },
        {
          "internalType": "uint8",
          "name": "v",
          "type": "uint8"
        },
        {
          "internalType": "bytes32",
          "name": "r",
          "type": "bytes32"
        },
        {
          "internalType": "bytes32",
          "name": "s",
          "type": "bytes32"
        }
      ],
      "name": "removeLiquidityETHWithPermitSupportingFeeOnTransferTokens",
      "outputs": [
        {
          "internalType": "uint256",
          "name": "amountETH",
          "type": "uint256"
        }
      ],
      "stateMutability": "nonpayable",
      "type": "function"
    },
    {
      "inputs": [
        {
          "internalType": "uint256",
          "name": "amountIn",
          "type": "uint256"
        },
        {
          "internalType": "uint256",
          "name": "amountOutMin",
          "type": "uint256"
        },
        {
          "internalType": "address[]",
          "name": "path",
          "type": "address[]"
        },
        {
          "internalType": "address",
          "name": "to",
          "type": "address"
        },
        {
          "internalType": "uint256",
          "name": "deadline",
          "type": "uint256"
        }
      ],
      "name": "swapExactTokensForTokens",
      "outputs": [
        {
          "internalType": "uint256[]",
          "name": "amounts",
          "type": "uint256[]"
        }
      ],
      "stateMutability": "nonpayable",
      "type": "function"
    },
    {
      "inputs": [
        {
          "internalType": "uint256",
          "name": "amountOut",
          "type": "uint256"
        },
        {
          "internalType": "uint256",
          "name": "amountInMax",
          "type": "uint256"
        },
        {
          "internalType": "address[]",
          "name": "path",
          "type": "address[]"
        },
        {
          "internalType": "address",
          "name": "to",
          "type": "address"
        },
        {
          "internalType": "uint256",
          "name": "deadline",
          "type": "uint256"
        }
      ],
      "name": "swapTokensForExactTokens",
      "outputs": [
        {
          "internalType": "uint256[]",
          "name": "amounts",
          "type": "uint256[]"
        }
      ],
      "stateMutability": "nonpayable",
      "type": "function"
    },
    {
      "inputs": [
        {
          "internalType": "uint256",
          "name": "amountOutMin",
          "type": "uint256"
        },
        {
          "internalType": "address[]",
          "name": "path",
          "type": "address[]"
        },
        {
          "internalType": "address",
          "name": "to",
          "type": "address"
        },
        {
          "internalType": "uint256",
          "name": "deadline",
          "type": "uint256"
        }
      ],
      "name": "swapExactETHForTokens",
      "outputs": [
        {
          "internalType": "uint256[]",
          "name": "amounts",
          "type": "uint256[]"
        }
      ],
      "stateMutability": "payable",
      "type": "function"
    },
    {
      "inputs": [
        {
          "internalType": "uint256",
          "name": "amountOut",
          "type": "uint256"
        },
        {
          "internalType": "uint256",
          "name": "amountInMax",
          "type": "uint256"
        },
        {
          "internalType": "address[]",
          "name": "path",
          "type": "address[]"
        },
        {
          "internalType": "address",
          "name": "to",
          "type": "address"
        },
        {
          "internalType": "uint256",
          "name": "deadline",
          "type": "uint256"
        }
      ],
      "name": "swapTokensForExactETH",
      "outputs": [
        {
          "internalType": "uint256[]",
          "name": "amounts",
          "type": "uint256[]"
        }
      ],
      "stateMutability": "nonpayable",
      "type": "function"
    },
    {
      "inputs": [
        {
          "internalType": "uint256",
          "name": "amountIn",
          "type": "uint256"
        },
        {
          "internalType": "uint256",
          "name": "amountOutMin",
          "type": "uint256"
        },
        {
          "internalType": "address[]",
          "name": "path",
          "type": "address[]"
        },
        {
          "internalType": "address",
          "name": "to",
          "type": "address"
        },
        {
          "internalType": "uint256",
          "name": "deadline",
          "type": "uint256"
        }
      ],
      "name": "swapExactTokensForETH",
      "outputs": [
        {
          "internalType": "uint256[]",
          "name": "amounts",
          "type": "uint256[]"
        }
      ],
      "stateMutability": "nonpayable",
      "type": "function"
    },
    {
      "inputs": [
        {
          "internalType": "uint256",
          "name": "amountOut",
          "type": "uint256"
        },
        {
          "internalType": "address[]",
          "name": "path",
          "type": "address[]"
        },
        {
          "internalType": "address",
          "name": "to",
          "type": "address"
        },
        {
          "internalType": "uint256",
          "name": "deadline",
          "type": "uint256"
        }
      ],
      "name": "swapETHForExactTokens",
      "outputs": [
        {
          "internalType": "uint256[]",
          "name": "amounts",
          "type": "uint256[]"
        }
      ],
      "stateMutability": "payable",
      "type": "function"
    },
    {
      "inputs": [
        {
          "internalType": "uint256",
          "name": "amountIn",
          "type": "uint256"
        },
        {
          "internalType": "uint256",
          "name": "amountOutMin",
          "type": "uint256"
        },
        {
          "internalType": "address[]",
          "name": "path",
          "type": "address[]"
        },
        {
          "internalType": "address",
          "name": "to",
          "type": "address"
        },
        {
          "internalType": "uint256",
          "name": "deadline",
          "type": "uint256"
        }
      ],
      "name": "swapExactTokensForTokensSupportingFeeOnTransferTokens",
      "outputs": [],
      "stateMutability": "nonpayable",
      "type": "function"
    },
    {
      "inputs": [
        {
          "internalType": "uint256",
          "name": "amountOutMin",
          "type": "uint256"
        },
        {
          "internalType": "address[]",
          "name": "path",
          "type": "address[]"
        },
        {
          "internalType": "address",
          "name": "to",
          "type": "address"
        },
        {
          "internalType": "uint256",
          "name": "deadline",
          "type": "uint256"
        }
      ],
      "name": "swapExactETHForTokensSupportingFeeOnTransferTokens",
      "outputs": [],
      "stateMutability": "payable",
      "type": "function"
    },
    {
      "inputs": [
        {
          "internalType": "uint256",
          "name": "amountIn",
          "type": "uint256"
        },
        {
          "internalType": "uint256",
          "name": "amountOutMin",
          "type": "uint256"
        },
        {
          "internalType": "address[]",
          "name": "path",
          "type": "address[]"
        },
        {
          "internalType": "address",
          "name": "to",
          "type": "address"
        },
        {
          "internalType": "uint256",
          "name": "deadline",
          "type": "uint256"
        }
      ],
      "name": "swapExactTokensForETHSupportingFeeOnTransferTokens",
      "outputs": [],
      "stateMutability": "nonpayable",
      "type": "function"
    },
    {
      "inputs": [
        {
          "internalType": "uint256",
          "name": "amountA",
          "type": "uint256"
        },
        {
          "internalType": "uint256",
          "name": "reserveA",
          "type": "uint256"
        },
        {
          "internalType": "uint256",
          "name": "reserveB",
          "type": "uint256"
        }
      ],
      "name": "quote",
      "outputs": [
        {
          "internalType": "uint256",
          "name": "amountB",
          "type": "uint256"
        }
      ],
      "stateMutability": "pure",
      "type": "function"
    },
    {
      "inputs": [
        {
          "internalType": "uint256",
          "name": "amountIn",
          "type": "uint256"
        },
        {
          "internalType": "uint256",
          "name": "reserveIn",
          "type": "uint256"
        },
        {
          "internalType": "uint256",
          "name": "reserveOut",
          "type": "uint256"
        }
      ],
      "name": "getAmountOut",
      "outputs": [
        {
          "internalType": "uint256",
          "name": "amountOut",
          "type": "uint256"
        }
      ],
      "stateMutability": "pure",
      "type": "function"
    },
    {
      "inputs": [
        {
          "internalType": "uint256",
          "name": "amountOut",
          "type": "uint256"
        },
        {
          "internalType": "uint256",
          "name": "reserveIn",
          "type": "uint256"
        },
        {
          "internalType": "uint256",
          "name": "reserveOut",
          "type": "uint256"
        }
      ],
      "name": "getAmountIn",
      "outputs": [
        {
          "internalType": "uint256",
          "name": "amountIn",
          "type": "uint256"
        }
      ],
      "stateMutability": "pure",
      "type": "function"
    },
    {
      "inputs": [
        {
          "internalType": "uint256",
          "name": "amountIn",
          "type": "uint256"
        },
        {
          "internalType": "address[]",
          "name": "path",
          "type": "address[]"
        }
      ],
      "name": "getAmountsOut",
      "outputs": [
        {
          "internalType": "uint256[]",
          "name": "amounts",
          "type": "uint256[]"
        }
      ],
      "stateMutability": "view",
      "type": "function"
    },
    {
      "inputs": [
        {
          "internalType": "uint256",
          "name": "amountOut",
          "type": "uint256"
        },
        {
          "internalType": "address[]",
          "name": "path",
          "type": "address[]"
        }
      ],
      "name": "getAmountsIn",
      "outputs": [
        {
          "internalType": "uint256[]",
          "name": "amounts",
          "type": "uint256[]"
        }
      ],
      "stateMutability": "view",
      "type": "function"
    }
  ],
  "bytecode": "0x60c0604052600080546001600160a01b031916733254009f679290f4ad5e2c1c81707671e31f09f917905534801561003657600080fd5b506040516200549a3803806200549a8339818101604052604081101561005b57600080fd5b5080516020909101516001600160601b0319606092831b8116608052911b1660a05260805160601c60a05160601c6152ef620001ab6000398061017a5280610dc95280610e045280610fb052806111ce5280611774528061198f5280611ea85280611f83528061205d52806121e0528061232652806123ae528061269f52806127cf52806128835280612a045280612a995280612b0d5280613157528061353a528061359052806135c45280613638528061387b52806139be5280613a4652508061103e52806111155280611294528061137f528061156f5280611802528061196d5280611b92528061227352806123e052806125ef5280612b3f5280612e32528061302a528061305352806131355280613366528061356e528061390e5280613a7852806143b352806143f6528061478552806148fb5280614cec5280614da55280614e5852506152ef6000f3fe60806040526004361061016a5760003560e01c80638803dbee116100d1578063c45a01551161008a578063e41486da11610064578063e41486da14610b68578063e8e3370014610b7d578063f305d71914610bfd578063fb3bdb4114610c43576101a3565b8063c45a015514610a2b578063d06ca61f14610a40578063ded9382a14610af5576101a3565b80638803dbee146107fa578063ad5c464814610890578063ad615dec146108c1578063af2979eb146108f7578063b6f9de951461094a578063baa2abde146109ce576101a3565b80634a25d94a116101235780634a25d94a1461050b5780635b0d5984146105a15780635c11d79514610614578063791ac947146106aa5780637ff36ab51461074057806385f8c259146107c4576101a3565b806302751cec146101a8578063054d50d41461021457806318cbafe51461025c5780631f00ca74146103425780632195995c146103f757806338ed173914610475576101a3565b366101a357336001600160a01b037f000000000000000000000000000000000000000000000000000000000000000016146101a157fe5b005b600080fd5b3480156101b457600080fd5b506101fb600480360360c08110156101cb57600080fd5b506001600160a01b0381358116916020810135916040820135916060810135916080820135169060a00135610cc7565b6040805192835260208301919091528051918290030190f35b34801561022057600080fd5b5061024a6004803603606081101561023757600080fd5b5080359060208101359060400135610e96565b60408051918252519081900360200190f35b34801561026857600080fd5b506102f2600480360360a081101561027f57600080fd5b813591602081013591810190606081016040820135600160201b8111156102a557600080fd5b8201836020820111156102b757600080fd5b803590602001918460208302840111600160201b831117156102d857600080fd5b91935091506001600160a01b038135169060200135610eab565b60408051602080825283518183015283519192839290830191858101910280838360005b8381101561032e578181015183820152602001610316565b505050509050019250505060405180910390f35b34801561034e57600080fd5b506102f26004803603604081101561036557600080fd5b81359190810190604081016020820135600160201b81111561038657600080fd5b82018360208201111561039857600080fd5b803590602001918460208302840111600160201b831117156103b957600080fd5b91908080602002602001604051908101604052809392919081815260200183836020028082843760009201919091525092955061128d945050505050565b34801561040357600080fd5b506101fb600480360361016081101561041b57600080fd5b506001600160a01b038135811691602081013582169160408201359160608101359160808201359160a08101359091169060c08101359060e081013515159060ff61010082013516906101208101359061014001356112c3565b34801561048157600080fd5b506102f2600480360360a081101561049857600080fd5b813591602081013591810190606081016040820135600160201b8111156104be57600080fd5b8201836020820111156104d057600080fd5b803590602001918460208302840111600160201b831117156104f157600080fd5b91935091506001600160a01b03813516906020013561146f565b34801561051757600080fd5b506102f2600480360360a081101561052e57600080fd5b813591602081013591810190606081016040820135600160201b81111561055457600080fd5b82018360208201111561056657600080fd5b803590602001918460208302840111600160201b8311171561058757600080fd5b91935091506001600160a01b03813516906020013561166f565b3480156105ad57600080fd5b5061024a60048036036101408110156105c557600080fd5b506001600160a01b0381358116916020810135916040820135916060810135916080820135169060a08101359060c081013515159060ff60e082013516906101008101359061012001356118b0565b34801561062057600080fd5b506101a1600480360360a081101561063757600080fd5b813591602081013591810190606081016040820135600160201b81111561065d57600080fd5b82018360208201111561066f57600080fd5b803590602001918460208302840111600160201b8311171561069057600080fd5b91935091506001600160a01b038135169060200135611a73565b3480156106b657600080fd5b506101a1600480360360a08110156106cd57600080fd5b813591602081013591810190606081016040820135600160201b8111156106f357600080fd5b82018360208201111561070557600080fd5b803590602001918460208302840111600160201b8311171561072657600080fd5b91935091506001600160a01b038135169060200135611da5565b6102f26004803603608081101561075657600080fd5b81359190810190604081016020820135600160201b81111561077757600080fd5b82018360208201111561078957600080fd5b803590602001918460208302840111600160201b831117156107aa57600080fd5b91935091506001600160a01b0381351690602001356120e3565b3480156107d057600080fd5b5061024a600480360360608110156107e757600080fd5b50803590602081013590604001356124e2565b34801561080657600080fd5b506102f2600480360360a081101561081d57600080fd5b813591602081013591810190606081016040820135600160201b81111561084357600080fd5b82018360208201111561085557600080fd5b803590602001918460208302840111600160201b8311171561087657600080fd5b91935091506001600160a01b0381351690602001356124ef565b34801561089c57600080fd5b506108a561269d565b604080516001600160a01b039092168252519081900360200190f35b3480156108cd57600080fd5b5061024a600480360360608110156108e457600080fd5b50803590602081013590604001356126c1565b34801561090357600080fd5b5061024a600480360360c081101561091a57600080fd5b506001600160a01b0381358116916020810135916040820135916060810135916080820135169060a001356126ce565b6101a16004803603608081101561096057600080fd5b81359190810190604081016020820135600160201b81111561098157600080fd5b82018360208201111561099357600080fd5b803590602001918460208302840111600160201b831117156109b457600080fd5b91935091506001600160a01b038135169060200135612909565b3480156109da57600080fd5b506101fb600480360360e08110156109f157600080fd5b506001600160a01b038135811691602081013582169160408201359160608101359160808201359160a08101359091169060c00135612d2f565b348015610a3757600080fd5b506108a5613028565b348015610a4c57600080fd5b506102f260048036036040811015610a6357600080fd5b81359190810190604081016020820135600160201b811115610a8457600080fd5b820183602082011115610a9657600080fd5b803590602001918460208302840111600160201b83111715610ab757600080fd5b91908080602002602001604051908101604052809392919081815260200183836020028082843760009201919091525092955061304c945050505050565b348015610b0157600080fd5b506101fb6004803603610140811015610b1957600080fd5b506001600160a01b0381358116916020810135916040820135916060810135916080820135169060a08101359060c081013515159060ff60e08201351690610100810135906101200135613079565b348015610b7457600080fd5b506108a561323f565b348015610b8957600080fd5b50610bdf6004803603610100811015610ba157600080fd5b506001600160a01b038135811691602081013582169160408201359160608101359160808201359160a08101359160c0820135169060e0013561324e565b60408051938452602084019290925282820152519081900360600190f35b610bdf600480360360c0811015610c1357600080fd5b506001600160a01b0381358116916020810135916040820135916060810135916080820135169060a00135613436565b6102f260048036036080811015610c5957600080fd5b81359190810190604081016020820135600160201b811115610c7a57600080fd5b820183602082011115610c8c57600080fd5b803590602001918460208302840111600160201b83111715610cad57600080fd5b91935091506001600160a01b03813516906020013561377e565b6000808242811015610d0e576040805162461bcd60e51b81526020600482015260156024820152600080516020615199833981519152604482015290519081900360640190fd5b6000546040805163e78c96ed60e01b815233600482015290516001600160a01b039092169163e78c96ed91602480820192602092909190829003018186803b158015610d5957600080fd5b505afa158015610d6d573d6000803e3d6000fd5b505050506040513d6020811015610d8357600080fd5b505115610dc3576040805162461bcd60e51b8152602060048201526009602482015268125b8811909b1a5cdd60ba1b604482015290519081900360640190fd5b610df2897f00000000000000000000000000000000000000000000000000000000000000008a8a8a308a612d2f565b9093509150610e02898685613bac565b7f00000000000000000000000000000000000000000000000000000000000000006001600160a01b0316632e1a7d4d836040518263ffffffff1660e01b815260040180828152602001915050600060405180830381600087803b158015610e6857600080fd5b505af1158015610e7c573d6000803e3d6000fd5b50505050610e8a8583613d16565b50965096945050505050565b6000610ea3848484613e0e565b949350505050565b60608142811015610ef1576040805162461bcd60e51b81526020600482015260156024820152600080516020615199833981519152604482015290519081900360640190fd5b6000546040805163e78c96ed60e01b815233600482015290516001600160a01b039092169163e78c96ed91602480820192602092909190829003018186803b158015610f3c57600080fd5b505afa158015610f50573d6000803e3d6000fd5b505050506040513d6020811015610f6657600080fd5b505115610fa6576040805162461bcd60e51b8152602060048201526009602482015268125b8811909b1a5cdd60ba1b604482015290519081900360640190fd5b6001600160a01b037f00000000000000000000000000000000000000000000000000000000000000001686866000198101818110610fe057fe5b905060200201356001600160a01b03166001600160a01b031614611039576040805162461bcd60e51b815260206004820152601a6024820152600080516020615155833981519152604482015290519081900360640190fd5b6110977f000000000000000000000000000000000000000000000000000000000000000089888880806020026020016040519081016040528093929190818152602001838360200280828437600092019190915250613ee692505050565b915086826001845103815181106110aa57fe5b602002602001015110156110ef5760405162461bcd60e51b81526004018080602001828103825260288152602001806152016028913960400191505060405180910390fd5b61118d868660008181106110ff57fe5b905060200201356001600160a01b0316336111737f00000000000000000000000000000000000000000000000000000000000000008a8a600081811061114157fe5b905060200201356001600160a01b03168b8b600181811061115e57fe5b905060200201356001600160a01b0316614032565b8560008151811061118057fe5b60200260200101516140f2565b6111cc8287878080602002602001604051908101604052809392919081815260200183836020028082843760009201919091525030925061424f915050565b7f00000000000000000000000000000000000000000000000000000000000000006001600160a01b0316632e1a7d4d8360018551038151811061120b57fe5b60200260200101516040518263ffffffff1660e01b815260040180828152602001915050600060405180830381600087803b15801561124957600080fd5b505af115801561125d573d6000803e3d6000fd5b50505050611282848360018551038151811061127557fe5b6020026020010151613d16565b509695505050505050565b60606112ba7f00000000000000000000000000000000000000000000000000000000000000008484614541565b90505b92915050565b600080546040805163e78c96ed60e01b8152336004820152905183926001600160a01b03169163e78c96ed916024808301926020929190829003018186803b15801561130e57600080fd5b505afa158015611322573d6000803e3d6000fd5b505050506040513d602081101561133857600080fd5b505115611378576040805162461bcd60e51b8152602060048201526009602482015268125b8811909b1a5cdd60ba1b604482015290519081900360640190fd5b60006113a57f00000000000000000000000000000000000000000000000000000000000000008f8f614032565b90506000876113b4578c6113b8565b6000195b6040805163d505accf60e01b815233600482015230602482015260448101839052606481018c905260ff8a16608482015260a4810189905260c4810188905290519192506001600160a01b0384169163d505accf9160e48082019260009290919082900301818387803b15801561142e57600080fd5b505af1158015611442573d6000803e3d6000fd5b505050506114558f8f8f8f8f8f8f612d2f565b809450819550505050509b509b9950505050505050505050565b606081428110156114b5576040805162461bcd60e51b81526020600482015260156024820152600080516020615199833981519152604482015290519081900360640190fd5b6000546040805163e78c96ed60e01b815233600482015290516001600160a01b039092169163e78c96ed91602480820192602092909190829003018186803b15801561150057600080fd5b505afa158015611514573d6000803e3d6000fd5b505050506040513d602081101561152a57600080fd5b50511561156a576040805162461bcd60e51b8152602060048201526009602482015268125b8811909b1a5cdd60ba1b604482015290519081900360640190fd5b6115c87f000000000000000000000000000000000000000000000000000000000000000089888880806020026020016040519081016040528093929190818152602001838360200280828437600092019190915250613ee692505050565b915086826001845103815181106115db57fe5b602002602001015110156116205760405162461bcd60e51b81526004018080602001828103825260288152602001806152016028913960400191505060405180910390fd5b611630868660008181106110ff57fe5b6112828287878080602002602001604051908101604052809392919081815260200183836020028082843760009201919091525089925061424f915050565b606081428110156116b5576040805162461bcd60e51b81526020600482015260156024820152600080516020615199833981519152604482015290519081900360640190fd5b6000546040805163e78c96ed60e01b815233600482015290516001600160a01b039092169163e78c96ed91602480820192602092909190829003018186803b15801561170057600080fd5b505afa158015611714573d6000803e3d6000fd5b505050506040513d602081101561172a57600080fd5b50511561176a576040805162461bcd60e51b8152602060048201526009602482015268125b8811909b1a5cdd60ba1b604482015290519081900360640190fd5b6001600160a01b037f000000000000000000000000000000000000000000000000000000000000000016868660001981018181106117a457fe5b905060200201356001600160a01b03166001600160a01b0316146117fd576040805162461bcd60e51b815260206004820152601a6024820152600080516020615155833981519152604482015290519081900360640190fd5b61185b7f00000000000000000000000000000000000000000000000000000000000000008988888080602002602001604051908101604052809392919081815260200183836020028082843760009201919091525061454192505050565b9150868260008151811061186b57fe5b602002602001015111156110ef5760405162461bcd60e51b81526004018080602001828103825260248152602001806151756024913960400191505060405180910390fd5b600080546040805163e78c96ed60e01b815233600482015290516001600160a01b039092169163e78c96ed91602480820192602092909190829003018186803b1580156118fc57600080fd5b505afa158015611910573d6000803e3d6000fd5b505050506040513d602081101561192657600080fd5b505115611966576040805162461bcd60e51b8152602060048201526009602482015268125b8811909b1a5cdd60ba1b604482015290519081900360640190fd5b60006119b37f00000000000000000000000000000000000000000000000000000000000000008d7f0000000000000000000000000000000000000000000000000000000000000000614032565b90506000866119c2578b6119c6565b6000195b6040805163d505accf60e01b815233600482015230602482015260448101839052606481018b905260ff8916608482015260a4810188905260c4810187905290519192506001600160a01b0384169163d505accf9160e48082019260009290919082900301818387803b158015611a3c57600080fd5b505af1158015611a50573d6000803e3d6000fd5b50505050611a628d8d8d8d8d8d6126ce565b9d9c50505050505050505050505050565b8042811015611ab7576040805162461bcd60e51b81526020600482015260156024820152600080516020615199833981519152604482015290519081900360640190fd5b6000546040805163e78c96ed60e01b815233600482015290516001600160a01b039092169163e78c96ed91602480820192602092909190829003018186803b158015611b0257600080fd5b505afa158015611b16573d6000803e3d6000fd5b505050506040513d6020811015611b2c57600080fd5b505115611b6c576040805162461bcd60e51b8152602060048201526009602482015268125b8811909b1a5cdd60ba1b604482015290519081900360640190fd5b611be185856000818110611b7c57fe5b905060200201356001600160a01b031633611bdb7f000000000000000000000000000000000000000000000000000000000000000089896000818110611bbe57fe5b905060200201356001600160a01b03168a8a600181811061115e57fe5b8a6140f2565b600085856000198101818110611bf357fe5b905060200201356001600160a01b03166001600160a01b03166370a08231856040518263ffffffff1660e01b815260040180826001600160a01b0316815260200191505060206040518083038186803b158015611c4f57600080fd5b505afa158015611c63573d6000803e3d6000fd5b505050506040513d6020811015611c7957600080fd5b50516040805160208881028281018201909352888252929350611cbb929091899189918291850190849080828437600092019190915250889250614679915050565b86611d5e8288886000198101818110611cd057fe5b905060200201356001600160a01b03166001600160a01b03166370a08231886040518263ffffffff1660e01b815260040180826001600160a01b0316815260200191505060206040518083038186803b158015611d2c57600080fd5b505afa158015611d40573d6000803e3d6000fd5b505050506040513d6020811015611d5657600080fd5b505190614a30565b1015611d9b5760405162461bcd60e51b81526004018080602001828103825260288152602001806152016028913960400191505060405180910390fd5b5050505050505050565b8042811015611de9576040805162461bcd60e51b81526020600482015260156024820152600080516020615199833981519152604482015290519081900360640190fd5b6000546040805163e78c96ed60e01b815233600482015290516001600160a01b039092169163e78c96ed91602480820192602092909190829003018186803b158015611e3457600080fd5b505afa158015611e48573d6000803e3d6000fd5b505050506040513d6020811015611e5e57600080fd5b505115611e9e576040805162461bcd60e51b8152602060048201526009602482015268125b8811909b1a5cdd60ba1b604482015290519081900360640190fd5b6001600160a01b037f00000000000000000000000000000000000000000000000000000000000000001685856000198101818110611ed857fe5b905060200201356001600160a01b03166001600160a01b031614611f31576040805162461bcd60e51b815260206004820152601a6024820152600080516020615155833981519152604482015290519081900360640190fd5b611f4185856000818110611b7c57fe5b611f7f858580806020026020016040519081016040528093929190818152602001838360200280828437600092019190915250309250614679915050565b60007f00000000000000000000000000000000000000000000000000000000000000006001600160a01b03166370a08231306040518263ffffffff1660e01b815260040180826001600160a01b0316815260200191505060206040518083038186803b158015611fee57600080fd5b505afa158015612002573d6000803e3d6000fd5b505050506040513d602081101561201857600080fd5b505190508681101561205b5760405162461bcd60e51b81526004018080602001828103825260288152602001806152016028913960400191505060405180910390fd5b7f00000000000000000000000000000000000000000000000000000000000000006001600160a01b0316632e1a7d4d826040518263ffffffff1660e01b815260040180828152602001915050600060405180830381600087803b1580156120c157600080fd5b505af11580156120d5573d6000803e3d6000fd5b50505050611d9b8482613d16565b60608142811015612129576040805162461bcd60e51b81526020600482015260156024820152600080516020615199833981519152604482015290519081900360640190fd5b6000546040805163e78c96ed60e01b815233600482015290516001600160a01b039092169163e78c96ed91602480820192602092909190829003018186803b15801561217457600080fd5b505afa158015612188573d6000803e3d6000fd5b505050506040513d602081101561219e57600080fd5b5051156121de576040805162461bcd60e51b8152602060048201526009602482015268125b8811909b1a5cdd60ba1b604482015290519081900360640190fd5b7f00000000000000000000000000000000000000000000000000000000000000006001600160a01b03168686600081811061221557fe5b905060200201356001600160a01b03166001600160a01b03161461226e576040805162461bcd60e51b815260206004820152601a6024820152600080516020615155833981519152604482015290519081900360640190fd5b6122cc7f000000000000000000000000000000000000000000000000000000000000000034888880806020026020016040519081016040528093929190818152602001838360200280828437600092019190915250613ee692505050565b915086826001845103815181106122df57fe5b602002602001015110156123245760405162461bcd60e51b81526004018080602001828103825260288152602001806152016028913960400191505060405180910390fd5b7f00000000000000000000000000000000000000000000000000000000000000006001600160a01b031663d0e30db08360008151811061236057fe5b60200260200101516040518263ffffffff1660e01b81526004016000604051808303818588803b15801561239357600080fd5b505af11580156123a7573d6000803e3d6000fd5b50505050507f00000000000000000000000000000000000000000000000000000000000000006001600160a01b031663a9059cbb61240c7f000000000000000000000000000000000000000000000000000000000000000089896000818110611bbe57fe5b8460008151811061241957fe5b60200260200101516040518363ffffffff1660e01b815260040180836001600160a01b0316815260200182815260200192505050602060405180830381600087803b15801561246757600080fd5b505af115801561247b573d6000803e3d6000fd5b505050506040513d602081101561249157600080fd5b505161249957fe5b6124d88287878080602002602001604051908101604052809392919081815260200183836020028082843760009201919091525089925061424f915050565b5095945050505050565b6000610ea3848484614a80565b60608142811015612535576040805162461bcd60e51b81526020600482015260156024820152600080516020615199833981519152604482015290519081900360640190fd5b6000546040805163e78c96ed60e01b815233600482015290516001600160a01b039092169163e78c96ed91602480820192602092909190829003018186803b15801561258057600080fd5b505afa158015612594573d6000803e3d6000fd5b505050506040513d60208110156125aa57600080fd5b5051156125ea576040805162461bcd60e51b8152602060048201526009602482015268125b8811909b1a5cdd60ba1b604482015290519081900360640190fd5b6126487f00000000000000000000000000000000000000000000000000000000000000008988888080602002602001604051908101604052809392919081815260200183836020028082843760009201919091525061454192505050565b9150868260008151811061265857fe5b602002602001015111156116205760405162461bcd60e51b81526004018080602001828103825260248152602001806151756024913960400191505060405180910390fd5b7f000000000000000000000000000000000000000000000000000000000000000081565b6000610ea3848484614b58565b60008142811015612714576040805162461bcd60e51b81526020600482015260156024820152600080516020615199833981519152604482015290519081900360640190fd5b6000546040805163e78c96ed60e01b815233600482015290516001600160a01b039092169163e78c96ed91602480820192602092909190829003018186803b15801561275f57600080fd5b505afa158015612773573d6000803e3d6000fd5b505050506040513d602081101561278957600080fd5b5051156127c9576040805162461bcd60e51b8152602060048201526009602482015268125b8811909b1a5cdd60ba1b604482015290519081900360640190fd5b6127f8887f00000000000000000000000000000000000000000000000000000000000000008989893089612d2f565b90508092505061288188858a6001600160a01b03166370a08231306040518263ffffffff1660e01b815260040180826001600160a01b0316815260200191505060206040518083038186803b15801561285057600080fd5b505afa158015612864573d6000803e3d6000fd5b505050506040513d602081101561287a57600080fd5b5051613bac565b7f00000000000000000000000000000000000000000000000000000000000000006001600160a01b0316632e1a7d4d836040518263ffffffff1660e01b815260040180828152602001915050600060405180830381600087803b1580156128e757600080fd5b505af11580156128fb573d6000803e3d6000fd5b505050506112828483613d16565b804281101561294d576040805162461bcd60e51b81526020600482015260156024820152600080516020615199833981519152604482015290519081900360640190fd5b6000546040805163e78c96ed60e01b815233600482015290516001600160a01b039092169163e78c96ed91602480820192602092909190829003018186803b15801561299857600080fd5b505afa1580156129ac573d6000803e3d6000fd5b505050506040513d60208110156129c257600080fd5b505115612a02576040805162461bcd60e51b8152602060048201526009602482015268125b8811909b1a5cdd60ba1b604482015290519081900360640190fd5b7f00000000000000000000000000000000000000000000000000000000000000006001600160a01b031685856000818110612a3957fe5b905060200201356001600160a01b03166001600160a01b031614612a92576040805162461bcd60e51b815260206004820152601a6024820152600080516020615155833981519152604482015290519081900360640190fd5b60003490507f00000000000000000000000000000000000000000000000000000000000000006001600160a01b031663d0e30db0826040518263ffffffff1660e01b81526004016000604051808303818588803b158015612af257600080fd5b505af1158015612b06573d6000803e3d6000fd5b50505050507f00000000000000000000000000000000000000000000000000000000000000006001600160a01b031663a9059cbb612b6b7f000000000000000000000000000000000000000000000000000000000000000089896000818110611bbe57fe5b836040518363ffffffff1660e01b815260040180836001600160a01b0316815260200182815260200192505050602060405180830381600087803b158015612bb257600080fd5b505af1158015612bc6573d6000803e3d6000fd5b505050506040513d6020811015612bdc57600080fd5b5051612be457fe5b600086866000198101818110612bf657fe5b905060200201356001600160a01b03166001600160a01b03166370a08231866040518263ffffffff1660e01b815260040180826001600160a01b0316815260200191505060206040518083038186803b158015612c5257600080fd5b505afa158015612c66573d6000803e3d6000fd5b505050506040513d6020811015612c7c57600080fd5b50516040805160208981028281018201909352898252929350612cbe9290918a918a918291850190849080828437600092019190915250899250614679915050565b87611d5e8289896000198101818110612cd357fe5b905060200201356001600160a01b03166001600160a01b03166370a08231896040518263ffffffff1660e01b815260040180826001600160a01b0316815260200191505060206040518083038186803b158015611d2c57600080fd5b6000808242811015612d76576040805162461bcd60e51b81526020600482015260156024820152600080516020615199833981519152604482015290519081900360640190fd5b6000546040805163e78c96ed60e01b815233600482015290516001600160a01b039092169163e78c96ed91602480820192602092909190829003018186803b158015612dc157600080fd5b505afa158015612dd5573d6000803e3d6000fd5b505050506040513d6020811015612deb57600080fd5b505115612e2b576040805162461bcd60e51b8152602060048201526009602482015268125b8811909b1a5cdd60ba1b604482015290519081900360640190fd5b6000612e587f00000000000000000000000000000000000000000000000000000000000000008c8c614032565b604080516323b872dd60e01b81523360048201526001600160a01b03831660248201819052604482018d9052915192935090916323b872dd916064808201926020929091908290030181600087803b158015612eb357600080fd5b505af1158015612ec7573d6000803e3d6000fd5b505050506040513d6020811015612edd57600080fd5b50506040805163226bf2d160e21b81526001600160a01b03888116600483015282516000938493928616926389afcb44926024808301939282900301818787803b158015612f2a57600080fd5b505af1158015612f3e573d6000803e3d6000fd5b505050506040513d6040811015612f5457600080fd5b50805160209091015190925090506000612f6e8e8e614bfe565b509050806001600160a01b03168e6001600160a01b031614612f91578183612f94565b82825b90975095508a871015612fd85760405162461bcd60e51b81526004018080602001828103825260238152602001806151326023913960400191505060405180910390fd5b898610156130175760405162461bcd60e51b81526004018080602001828103825260238152602001806151de6023913960400191505060405180910390fd5b505050505097509795505050505050565b7f000000000000000000000000000000000000000000000000000000000000000081565b60606112ba7f00000000000000000000000000000000000000000000000000000000000000008484613ee6565b600080546040805163e78c96ed60e01b8152336004820152905183926001600160a01b03169163e78c96ed916024808301926020929190829003018186803b1580156130c457600080fd5b505afa1580156130d8573d6000803e3d6000fd5b505050506040513d60208110156130ee57600080fd5b50511561312e576040805162461bcd60e51b8152602060048201526009602482015268125b8811909b1a5cdd60ba1b604482015290519081900360640190fd5b600061317b7f00000000000000000000000000000000000000000000000000000000000000008e7f0000000000000000000000000000000000000000000000000000000000000000614032565b905060008761318a578c61318e565b6000195b6040805163d505accf60e01b815233600482015230602482015260448101839052606481018c905260ff8a16608482015260a4810189905260c4810188905290519192506001600160a01b0384169163d505accf9160e48082019260009290919082900301818387803b15801561320457600080fd5b505af1158015613218573d6000803e3d6000fd5b5050505061322a8e8e8e8e8e8e610cc7565b909f909e509c50505050505050505050505050565b6000546001600160a01b031681565b60008060008342811015613297576040805162461bcd60e51b81526020600482015260156024820152600080516020615199833981519152604482015290519081900360640190fd5b6000546040805163e78c96ed60e01b815233600482015290516001600160a01b039092169163e78c96ed91602480820192602092909190829003018186803b1580156132e257600080fd5b505afa1580156132f6573d6000803e3d6000fd5b505050506040513d602081101561330c57600080fd5b50511561334c576040805162461bcd60e51b8152602060048201526009602482015268125b8811909b1a5cdd60ba1b604482015290519081900360640190fd5b61335a8c8c8c8c8c8c614cdc565b9094509250600061338c7f00000000000000000000000000000000000000000000000000000000000000008e8e614032565b905061339a8d3383886140f2565b6133a68c3383876140f2565b806001600160a01b0316636a627842886040518263ffffffff1660e01b815260040180826001600160a01b03168152602001915050602060405180830381600087803b1580156133f557600080fd5b505af1158015613409573d6000803e3d6000fd5b505050506040513d602081101561341f57600080fd5b5051949d939c50939a509198505050505050505050565b6000806000834281101561347f576040805162461bcd60e51b81526020600482015260156024820152600080516020615199833981519152604482015290519081900360640190fd5b6000546040805163e78c96ed60e01b815233600482015290516001600160a01b039092169163e78c96ed91602480820192602092909190829003018186803b1580156134ca57600080fd5b505afa1580156134de573d6000803e3d6000fd5b505050506040513d60208110156134f457600080fd5b505115613534576040805162461bcd60e51b8152602060048201526009602482015268125b8811909b1a5cdd60ba1b604482015290519081900360640190fd5b6135628a7f00000000000000000000000000000000000000000000000000000000000000008b348c8c614cdc565b909450925060006135b47f00000000000000000000000000000000000000000000000000000000000000008c7f0000000000000000000000000000000000000000000000000000000000000000614032565b90506135c28b3383886140f2565b7f00000000000000000000000000000000000000000000000000000000000000006001600160a01b031663d0e30db0856040518263ffffffff1660e01b81526004016000604051808303818588803b15801561361d57600080fd5b505af1158015613631573d6000803e3d6000fd5b50505050507f00000000000000000000000000000000000000000000000000000000000000006001600160a01b031663a9059cbb82866040518363ffffffff1660e01b815260040180836001600160a01b0316815260200182815260200192505050602060405180830381600087803b1580156136ad57600080fd5b505af11580156136c1573d6000803e3d6000fd5b505050506040513d60208110156136d757600080fd5b50516136df57fe5b806001600160a01b0316636a627842886040518263ffffffff1660e01b815260040180826001600160a01b03168152602001915050602060405180830381600087803b15801561372e57600080fd5b505af1158015613742573d6000803e3d6000fd5b505050506040513d602081101561375857600080fd5b50519250348410156137705761377033853403613d16565b505096509650969350505050565b606081428110156137c4576040805162461bcd60e51b81526020600482015260156024820152600080516020615199833981519152604482015290519081900360640190fd5b6000546040805163e78c96ed60e01b815233600482015290516001600160a01b039092169163e78c96ed91602480820192602092909190829003018186803b15801561380f57600080fd5b505afa158015613823573d6000803e3d6000fd5b505050506040513d602081101561383957600080fd5b505115613879576040805162461bcd60e51b8152602060048201526009602482015268125b8811909b1a5cdd60ba1b604482015290519081900360640190fd5b7f00000000000000000000000000000000000000000000000000000000000000006001600160a01b0316868660008181106138b057fe5b905060200201356001600160a01b03166001600160a01b031614613909576040805162461bcd60e51b815260206004820152601a6024820152600080516020615155833981519152604482015290519081900360640190fd5b6139677f00000000000000000000000000000000000000000000000000000000000000008888888080602002602001604051908101604052809392919081815260200183836020028082843760009201919091525061454192505050565b9150348260008151811061397757fe5b602002602001015111156139bc5760405162461bcd60e51b81526004018080602001828103825260248152602001806151756024913960400191505060405180910390fd5b7f00000000000000000000000000000000000000000000000000000000000000006001600160a01b031663d0e30db0836000815181106139f857fe5b60200260200101516040518263ffffffff1660e01b81526004016000604051808303818588803b158015613a2b57600080fd5b505af1158015613a3f573d6000803e3d6000fd5b50505050507f00000000000000000000000000000000000000000000000000000000000000006001600160a01b031663a9059cbb613aa47f000000000000000000000000000000000000000000000000000000000000000089896000818110611bbe57fe5b84600081518110613ab157fe5b60200260200101516040518363ffffffff1660e01b815260040180836001600160a01b0316815260200182815260200192505050602060405180830381600087803b158015613aff57600080fd5b505af1158015613b13573d6000803e3d6000fd5b505050506040513d6020811015613b2957600080fd5b5051613b3157fe5b613b708287878080602002602001604051908101604052809392919081815260200183836020028082843760009201919091525089925061424f915050565b81600081518110613b7d57fe5b60200260200101513411156124d8576124d83383600081518110613b9d57fe5b60200260200101513403613d16565b604080516001600160a01b038481166024830152604480830185905283518084039091018152606490920183526020820180516001600160e01b031663a9059cbb60e01b178152925182516000946060949389169392918291908083835b60208310613c295780518252601f199092019160209182019101613c0a565b6001836020036101000a0380198251168184511680821785525050505050509050019150506000604051808303816000865af19150503d8060008114613c8b576040519150601f19603f3d011682016040523d82523d6000602084013e613c90565b606091505b5091509150818015613cbe575080511580613cbe5750808060200190516020811015613cbb57600080fd5b50515b613d0f576040805162461bcd60e51b815260206004820152601f60248201527f5472616e7366657248656c7065723a205452414e534645525f4641494c454400604482015290519081900360640190fd5b5050505050565b604080516000808252602082019092526001600160a01b0384169083906040518082805190602001908083835b60208310613d625780518252601f199092019160209182019101613d43565b6001836020036101000a03801982511681845116808217855250505050505090500191505060006040518083038185875af1925050503d8060008114613dc4576040519150601f19603f3d011682016040523d82523d6000602084013e613dc9565b606091505b5050905080613e095760405162461bcd60e51b81526004018080602001828103825260238152602001806152296023913960400191505060405180910390fd5b505050565b6000808411613e4e5760405162461bcd60e51b81526004018080602001828103825260288152602001806152926028913960400191505060405180910390fd5b600083118015613e5e5750600082115b613e995760405162461bcd60e51b81526004018080602001828103825260258152602001806151b96025913960400191505060405180910390fd5b6000613ea7856103e5614f6d565b90506000613eb58285614f6d565b90506000613ecf83613ec9886103e8614f6d565b90614fd0565b9050808281613eda57fe5b04979650505050505050565b6060600282511015613f3f576040805162461bcd60e51b815260206004820152601b60248201527f46616d6f736f4c6962726172793a20494e56414c49445f504154480000000000604482015290519081900360640190fd5b815167ffffffffffffffff81118015613f5757600080fd5b50604051908082528060200260200182016040528015613f81578160200160208202803683370190505b5090508281600081518110613f9257fe5b60200260200101818152505060005b600183510381101561402a57600080613fe487868581518110613fc057fe5b6020026020010151878660010181518110613fd757fe5b602002602001015161501f565b91509150614006848481518110613ff757fe5b60200260200101518383613e0e565b84846001018151811061401557fe5b60209081029190910101525050600101613fa1565b509392505050565b60008060006140418585614bfe565b604080516bffffffffffffffffffffffff19606094851b811660208084019190915293851b81166034830152825160288184030181526048830184528051908501206001600160f81b031960688401529a90941b9093166069840152607d8301989098527ffb65dfa097df316008a140555a81f0cb846c518ec15bf3b737da1cbf3c013f18609d808401919091528851808403909101815260bd909201909752805196019590952095945050505050565b604080516001600160a01b0385811660248301528481166044830152606480830185905283518084039091018152608490920183526020820180516001600160e01b03166323b872dd60e01b17815292518251600094606094938a169392918291908083835b602083106141775780518252601f199092019160209182019101614158565b6001836020036101000a0380198251168184511680821785525050505050509050019150506000604051808303816000865af19150503d80600081146141d9576040519150601f19603f3d011682016040523d82523d6000602084013e6141de565b606091505b509150915081801561420c57508051158061420c575080806020019051602081101561420957600080fd5b50515b6142475760405162461bcd60e51b815260040180806020018281038252602481526020018061524c6024913960400191505060405180910390fd5b505050505050565b6000546040805163e78c96ed60e01b815233600482015290516001600160a01b039092169163e78c96ed91602480820192602092909190829003018186803b15801561429a57600080fd5b505afa1580156142ae573d6000803e3d6000fd5b505050506040513d60208110156142c457600080fd5b505115614304576040805162461bcd60e51b8152602060048201526009602482015268125b8811909b1a5cdd60ba1b604482015290519081900360640190fd5b60005b600183510381101561453b5760008084838151811061432257fe5b602002602001015185846001018151811061433957fe5b60200260200101519150915060006143518383614bfe565b509050600087856001018151811061436557fe5b60200260200101519050600080836001600160a01b0316866001600160a01b03161461439357826000614397565b6000835b91509150600060028a510388106143ae57886143ef565b6143ef7f0000000000000000000000000000000000000000000000000000000000000000878c8b600201815181106143e257fe5b6020026020010151614032565b905061441c7f00000000000000000000000000000000000000000000000000000000000000008888614032565b6001600160a01b031663022c0d9f84848460006040519080825280601f01601f191660200182016040528015614459576020820181803683370190505b506040518563ffffffff1660e01b815260040180858152602001848152602001836001600160a01b0316815260200180602001828103825283818151815260200191508051906020019080838360005b838110156144c15781810151838201526020016144a9565b50505050905090810190601f1680156144ee5780820380516001836020036101000a031916815260200191505b5095505050505050600060405180830381600087803b15801561451057600080fd5b505af1158015614524573d6000803e3d6000fd5b505060019099019850614307975050505050505050565b50505050565b606060028251101561459a576040805162461bcd60e51b815260206004820152601b60248201527f46616d6f736f4c6962726172793a20494e56414c49445f504154480000000000604482015290519081900360640190fd5b815167ffffffffffffffff811180156145b257600080fd5b506040519080825280602002602001820160405280156145dc578160200160208202803683370190505b50905082816001835103815181106145f057fe5b60209081029190910101528151600019015b801561402a576000806146328786600186038151811061461e57fe5b6020026020010151878681518110613fd757fe5b9150915061465484848151811061464557fe5b60200260200101518383614a80565b84600185038151811061466357fe5b6020908102919091010152505060001901614602565b6000546040805163e78c96ed60e01b815233600482015290516001600160a01b039092169163e78c96ed91602480820192602092909190829003018186803b1580156146c457600080fd5b505afa1580156146d8573d6000803e3d6000fd5b505050506040513d60208110156146ee57600080fd5b50511561472e576040805162461bcd60e51b8152602060048201526009602482015268125b8811909b1a5cdd60ba1b604482015290519081900360640190fd5b60005b6001835103811015613e095760008084838151811061474c57fe5b602002602001015185846001018151811061476357fe5b602002602001015191509150600061477b8383614bfe565b50905060006147ab7f00000000000000000000000000000000000000000000000000000000000000008585614032565b9050600080600080846001600160a01b0316630902f1ac6040518163ffffffff1660e01b815260040160606040518083038186803b1580156147ec57600080fd5b505afa158015614800573d6000803e3d6000fd5b505050506040513d606081101561481657600080fd5b5080516020909101516001600160701b0391821693501690506000806001600160a01b038a81169089161461484c57828461484f565b83835b915091506148a4828b6001600160a01b03166370a082318a6040518263ffffffff1660e01b815260040180826001600160a01b0316815260200191505060206040518083038186803b158015611d2c57600080fd5b95506148b1868383613e0e565b945050505050600080856001600160a01b0316886001600160a01b0316146148db578260006148df565b6000835b91509150600060028c51038a106148f6578a61492a565b61492a7f0000000000000000000000000000000000000000000000000000000000000000898e8d600201815181106143e257fe5b604080516000808252602082019283905263022c0d9f60e01b835260248201878152604483018790526001600160a01b038086166064850152608060848501908152845160a48601819052969750908c169563022c0d9f958a958a958a9591949193919260c486019290918190849084905b838110156149b457818101518382015260200161499c565b50505050905090810190601f1680156149e15780820380516001836020036101000a031916815260200191505b5095505050505050600060405180830381600087803b158015614a0357600080fd5b505af1158015614a17573d6000803e3d6000fd5b50506001909b019a506147319950505050505050505050565b808203828111156112bd576040805162461bcd60e51b815260206004820152601560248201527464732d6d6174682d7375622d756e646572666c6f7760581b604482015290519081900360640190fd5b6000808411614ac05760405162461bcd60e51b81526004018080602001828103825260298152602001806150e76029913960400191505060405180910390fd5b600083118015614ad05750600082115b614b0b5760405162461bcd60e51b81526004018080602001828103825260258152602001806151b96025913960400191505060405180910390fd5b6000614b236103e8614b1d8688614f6d565b90614f6d565b90506000614b376103e5614b1d8689614a30565b9050614b4e6001828481614b4757fe5b0490614fd0565b9695505050505050565b6000808411614b985760405162461bcd60e51b81526004018080602001828103825260228152602001806152706022913960400191505060405180910390fd5b600083118015614ba85750600082115b614be35760405162461bcd60e51b81526004018080602001828103825260258152602001806151b96025913960400191505060405180910390fd5b82614bee8584614f6d565b81614bf557fe5b04949350505050565b600080826001600160a01b0316846001600160a01b03161415614c525760405162461bcd60e51b81526004018080602001828103825260228152602001806151106022913960400191505060405180910390fd5b826001600160a01b0316846001600160a01b031610614c72578284614c75565b83835b90925090506001600160a01b038216614cd5576040805162461bcd60e51b815260206004820152601b60248201527f46616d6f736f4c6962726172793a205a45524f5f414444524553530000000000604482015290519081900360640190fd5b9250929050565b60008060006001600160a01b03167f00000000000000000000000000000000000000000000000000000000000000006001600160a01b031663e6a439058a8a6040518363ffffffff1660e01b815260040180836001600160a01b03168152602001826001600160a01b031681526020019250505060206040518083038186803b158015614d6857600080fd5b505afa158015614d7c573d6000803e3d6000fd5b505050506040513d6020811015614d9257600080fd5b50516001600160a01b03161415614e50577f00000000000000000000000000000000000000000000000000000000000000006001600160a01b031663c9c6539689896040518363ffffffff1660e01b815260040180836001600160a01b03168152602001826001600160a01b0316815260200192505050602060405180830381600087803b158015614e2357600080fd5b505af1158015614e37573d6000803e3d6000fd5b505050506040513d6020811015614e4d57600080fd5b50505b600080614e7e7f00000000000000000000000000000000000000000000000000000000000000008b8b61501f565b91509150816000148015614e90575080155b15614ea057879350869250614f60565b6000614ead898484614b58565b9050878111614f005785811015614ef55760405162461bcd60e51b81526004018080602001828103825260238152602001806151de6023913960400191505060405180910390fd5b889450925082614f5e565b6000614f0d898486614b58565b905089811115614f1957fe5b87811015614f585760405162461bcd60e51b81526004018080602001828103825260238152602001806151326023913960400191505060405180910390fd5b94508793505b505b5050965096945050505050565b6000811580614f8857505080820282828281614f8557fe5b04145b6112bd576040805162461bcd60e51b815260206004820152601460248201527364732d6d6174682d6d756c2d6f766572666c6f7760601b604482015290519081900360640190fd5b808201828110156112bd576040805162461bcd60e51b815260206004820152601460248201527364732d6d6174682d6164642d6f766572666c6f7760601b604482015290519081900360640190fd5b600080600061502e8585614bfe565b50905060008061503f888888614032565b6001600160a01b0316630902f1ac6040518163ffffffff1660e01b815260040160606040518083038186803b15801561507757600080fd5b505afa15801561508b573d6000803e3d6000fd5b505050506040513d60608110156150a157600080fd5b5080516020909101516001600160701b0391821693501690506001600160a01b03878116908416146150d45780826150d7565b81815b9099909850965050505050505056fe46616d6f736f4c6962726172793a20494e53554646494349454e545f4f55545055545f414d4f554e5446616d6f736f4c6962726172793a204944454e544943414c5f41444452455353455346616d6f736f526f757465723a20494e53554646494349454e545f415f414d4f554e5446616d6f736f526f757465723a20494e56414c49445f5041544800000000000046616d6f736f526f757465723a204558434553534956455f494e5055545f414d4f554e5446616d6f736f526f757465723a2045585049524544000000000000000000000046616d6f736f4c6962726172793a20494e53554646494349454e545f4c495155494449545946616d6f736f526f757465723a20494e53554646494349454e545f425f414d4f554e5446616d6f736f526f757465723a20494e53554646494349454e545f4f55545055545f414d4f554e545472616e7366657248656c7065723a204554485f5452414e534645525f4641494c45445472616e7366657248656c7065723a205452414e534645525f46524f4d5f4641494c454446616d6f736f4c6962726172793a20494e53554646494349454e545f414d4f554e5446616d6f736f4c6962726172793a20494e53554646494349454e545f494e5055545f414d4f554e54a2646970667358221220653a1f399863a796aed7162af79b4b0257435a6fd05d2a1d6c266a76c3edb62b64736f6c634300060c0033",
  "immutableReferences": {
    "1967": [
      {
        "length": 32,
        "start": 4158
      },
      {
        "length": 32,
        "start": 4373
      },
      {
        "length": 32,
        "start": 4756
      },
      {
        "length": 32,
        "start": 4991
      },
      {
        "length": 32,
        "start": 5487
      },
      {
        "length": 32,
        "start": 6146
      },
      {
        "length": 32,
        "start": 6509
      },
      {
        "length": 32,
        "start": 7058
      },
      {
        "length": 32,
        "start": 8819
      },
      {
        "length": 32,
        "start": 9184
      },
      {
        "length": 32,
        "start": 9711
      },
      {
        "length": 32,
        "start": 11071
      },
      {
        "length": 32,
        "start": 11826
      },
      {
        "length": 32,
        "start": 12330
      },
      {
        "length": 32,
        "start": 12371
      },
      {
        "length": 32,
        "start": 12597
      },
      {
        "length": 32,
        "start": 13158
      },
      {
        "length": 32,
        "start": 13678
      },
      {
        "length": 32,
        "start": 14606
      },
      {
        "length": 32,
        "start": 14968
      },
      {
        "length": 32,
        "start": 17331
      },
      {
        "length": 32,
        "start": 17398
      },
      {
        "length": 32,
        "start": 18309
      },
      {
        "length": 32,
        "start": 18683
      },
      {
        "length": 32,
        "start": 19692
      },
      {
        "length": 32,
        "start": 19877
      },
      {
        "length": 32,
        "start": 20056
      }
    ],
    "1970": [
      {
        "length": 32,
        "start": 378
      },
      {
        "length": 32,
        "start": 3529
      },
      {
        "length": 32,
        "start": 3588
      },
      {
        "length": 32,
        "start": 4016
      },
      {
        "length": 32,
        "start": 4558
      },
      {
        "length": 32,
        "start": 6004
      },
      {
        "length": 32,
        "start": 6543
      },
      {
        "length": 32,
        "start": 7848
      },
      {
        "length": 32,
        "start": 8067
      },
      {
        "length": 32,
        "start": 8285
      },
      {
        "length": 32,
        "start": 8672
      },
      {
        "length": 32,
        "start": 8998
      },
      {
        "length": 32,
        "start": 9134
      },
      {
        "length": 32,
        "start": 9887
      },
      {
        "length": 32,
        "start": 10191
      },
      {
        "length": 32,
        "start": 10371
      },
      {
        "length": 32,
        "start": 10756
      },
      {
        "length": 32,
        "start": 10905
      },
      {
        "length": 32,
        "start": 11021
      },
      {
        "length": 32,
        "start": 12631
      },
      {
        "length": 32,
        "start": 13626
      },
      {
        "length": 32,
        "start": 13712
      },
      {
        "length": 32,
        "start": 13764
      },
      {
        "length": 32,
        "start": 13880
      },
      {
        "length": 32,
        "start": 14459
      },
      {
        "length": 32,
        "start": 14782
      },
      {
        "length": 32,
        "start": 14918
      }
    ]
  },
  "source": "// SPDX-License-Identifier: MIT\r\n\r\npragma solidity =0.6.12;\r\n\r\nimport './libraries/FamosoLibrary.sol';\r\nimport './libraries/SafeMath.sol';\r\nimport './libraries/TransferHelper.sol';\r\nimport './interfaces/IFamosoRouter.sol';\r\nimport './interfaces/IFamosoFactory.sol';\r\nimport './interfaces/IERC20.sol';\r\nimport './interfaces/IWETH.sol';\r\nimport \"./FBlist.sol\";\r\n\r\ncontract FamosoRouter is IFamosoRouter {\r\n    using SafeMath for uint;\r\n\r\n    address public immutable override factory;\r\n    address public immutable override WETH;\r\n    address public fblist = address(0x3254009f679290f4aD5E2C1c81707671e31f09f9);\r\n\r\n    modifier ensure(uint deadline) {\r\n        require(deadline >= block.timestamp, 'FamosoRouter: EXPIRED');\r\n        _;\r\n    }\r\n\r\n    constructor(address _factory, address _WETH) public {\r\n        factory = _factory;\r\n        WETH = _WETH;\r\n    }\r\n\r\n    receive() external payable {\r\n        assert(msg.sender == WETH); // only accept ETH via fallback from the WETH contract\r\n    }\r\n\r\n    // **** ADD LIQUIDITY ****\r\n    function _addLiquidity(\r\n        address tokenA,\r\n        address tokenB,\r\n        uint amountADesired,\r\n        uint amountBDesired,\r\n        uint amountAMin,\r\n        uint amountBMin\r\n    ) internal virtual returns (uint amountA, uint amountB) {        \r\n        // create the pair if it doesn't exist yet\r\n        if (IFamosoFactory(factory).getPair(tokenA, tokenB) == address(0)) {\r\n            IFamosoFactory(factory).createPair(tokenA, tokenB);\r\n        }\r\n        (uint reserveA, uint reserveB) = FamosoLibrary.getReserves(factory, tokenA, tokenB);\r\n        if (reserveA == 0 && reserveB == 0) {\r\n            (amountA, amountB) = (amountADesired, amountBDesired);\r\n        } else {\r\n            uint amountBOptimal = FamosoLibrary.quote(amountADesired, reserveA, reserveB);\r\n            if (amountBOptimal <= amountBDesired) {\r\n                require(amountBOptimal >= amountBMin, 'FamosoRouter: INSUFFICIENT_B_AMOUNT');\r\n                (amountA, amountB) = (amountADesired, amountBOptimal);\r\n            } else {\r\n                uint amountAOptimal = FamosoLibrary.quote(amountBDesired, reserveB, reserveA);\r\n                assert(amountAOptimal <= amountADesired);\r\n                require(amountAOptimal >= amountAMin, 'FamosoRouter: INSUFFICIENT_A_AMOUNT');\r\n                (amountA, amountB) = (amountAOptimal, amountBDesired);\r\n            }\r\n        }\r\n    }\r\n    function addLiquidity(\r\n        address tokenA,\r\n        address tokenB,\r\n        uint amountADesired,\r\n        uint amountBDesired,\r\n        uint amountAMin,\r\n        uint amountBMin,\r\n        address to,\r\n        uint deadline\r\n    ) external virtual override ensure(deadline) returns (uint amountA, uint amountB, uint liquidity) {\r\n        require(FBlist(fblist).inlist(msg.sender) == 0, \"In FBlist\");\r\n        (amountA, amountB) = _addLiquidity(tokenA, tokenB, amountADesired, amountBDesired, amountAMin, amountBMin);\r\n        address pair = FamosoLibrary.pairFor(factory, tokenA, tokenB);\r\n        TransferHelper.safeTransferFrom(tokenA, msg.sender, pair, amountA);\r\n        TransferHelper.safeTransferFrom(tokenB, msg.sender, pair, amountB);\r\n        liquidity = IFamosoPair(pair).mint(to);\r\n    }\r\n    function addLiquidityETH(\r\n        address token,\r\n        uint amountTokenDesired,\r\n        uint amountTokenMin,\r\n        uint amountETHMin,\r\n        address to,\r\n        uint deadline\r\n    ) external virtual override payable ensure(deadline) returns (uint amountToken, uint amountETH, uint liquidity) {\r\n        require(FBlist(fblist).inlist(msg.sender) == 0, \"In FBlist\");\r\n        (amountToken, amountETH) = _addLiquidity(\r\n            token,\r\n            WETH,\r\n            amountTokenDesired,\r\n            msg.value,\r\n            amountTokenMin,\r\n            amountETHMin\r\n        );\r\n        address pair = FamosoLibrary.pairFor(factory, token, WETH);\r\n        TransferHelper.safeTransferFrom(token, msg.sender, pair, amountToken);\r\n        IWETH(WETH).deposit{value: amountETH}();\r\n        assert(IWETH(WETH).transfer(pair, amountETH));\r\n        liquidity = IFamosoPair(pair).mint(to);\r\n        // refund dust eth, if any\r\n        if (msg.value > amountETH) TransferHelper.safeTransferETH(msg.sender, msg.value - amountETH);\r\n    }\r\n\r\n    // **** REMOVE LIQUIDITY ****\r\n    function removeLiquidity(\r\n        address tokenA,\r\n        address tokenB,\r\n        uint liquidity,\r\n        uint amountAMin,\r\n        uint amountBMin,\r\n        address to,\r\n        uint deadline\r\n    ) public virtual override ensure(deadline) returns (uint amountA, uint amountB) {\r\n        require(FBlist(fblist).inlist(msg.sender) == 0, \"In FBlist\");\r\n        address pair = FamosoLibrary.pairFor(factory, tokenA, tokenB);\r\n        IFamosoPair(pair).transferFrom(msg.sender, pair, liquidity); // send liquidity to pair\r\n        (uint amount0, uint amount1) = IFamosoPair(pair).burn(to);\r\n        (address token0,) = FamosoLibrary.sortTokens(tokenA, tokenB);\r\n        (amountA, amountB) = tokenA == token0 ? (amount0, amount1) : (amount1, amount0);\r\n        require(amountA >= amountAMin, 'FamosoRouter: INSUFFICIENT_A_AMOUNT');\r\n        require(amountB >= amountBMin, 'FamosoRouter: INSUFFICIENT_B_AMOUNT');\r\n    }\r\n    function removeLiquidityETH(\r\n        address token,\r\n        uint liquidity,\r\n        uint amountTokenMin,\r\n        uint amountETHMin,\r\n        address to,\r\n        uint deadline\r\n    ) public virtual override ensure(deadline) returns (uint amountToken, uint amountETH) {\r\n        require(FBlist(fblist).inlist(msg.sender) == 0, \"In FBlist\");\r\n        (amountToken, amountETH) = removeLiquidity(\r\n            token,\r\n            WETH,\r\n            liquidity,\r\n            amountTokenMin,\r\n            amountETHMin,\r\n            address(this),\r\n            deadline\r\n        );\r\n        TransferHelper.safeTransfer(token, to, amountToken);\r\n        IWETH(WETH).withdraw(amountETH);\r\n        TransferHelper.safeTransferETH(to, amountETH);\r\n    }\r\n    function removeLiquidityWithPermit(\r\n        address tokenA,\r\n        address tokenB,\r\n        uint liquidity,\r\n        uint amountAMin,\r\n        uint amountBMin,\r\n        address to,\r\n        uint deadline,\r\n        bool approveMax, uint8 v, bytes32 r, bytes32 s\r\n    ) external virtual override returns (uint amountA, uint amountB) {\r\n        require(FBlist(fblist).inlist(msg.sender) == 0, \"In FBlist\");\r\n        address pair = FamosoLibrary.pairFor(factory, tokenA, tokenB);\r\n        uint value = approveMax ? uint(-1) : liquidity;\r\n        IFamosoPair(pair).permit(msg.sender, address(this), value, deadline, v, r, s);\r\n        (amountA, amountB) = removeLiquidity(tokenA, tokenB, liquidity, amountAMin, amountBMin, to, deadline);\r\n    }\r\n    function removeLiquidityETHWithPermit(\r\n        address token,\r\n        uint liquidity,\r\n        uint amountTokenMin,\r\n        uint amountETHMin,\r\n        address to,\r\n        uint deadline,\r\n        bool approveMax, uint8 v, bytes32 r, bytes32 s\r\n    ) external virtual override returns (uint amountToken, uint amountETH) {\r\n        require(FBlist(fblist).inlist(msg.sender) == 0, \"In FBlist\");\r\n        address pair = FamosoLibrary.pairFor(factory, token, WETH);\r\n        uint value = approveMax ? uint(-1) : liquidity;\r\n        IFamosoPair(pair).permit(msg.sender, address(this), value, deadline, v, r, s);\r\n        (amountToken, amountETH) = removeLiquidityETH(token, liquidity, amountTokenMin, amountETHMin, to, deadline);\r\n    }\r\n\r\n    // **** REMOVE LIQUIDITY (supporting fee-on-transfer tokens) ****\r\n    function removeLiquidityETHSupportingFeeOnTransferTokens(\r\n        address token,\r\n        uint liquidity,\r\n        uint amountTokenMin,\r\n        uint amountETHMin,\r\n        address to,\r\n        uint deadline\r\n    ) public virtual override ensure(deadline) returns (uint amountETH) {\r\n        require(FBlist(fblist).inlist(msg.sender) == 0, \"In FBlist\");\r\n        (, amountETH) = removeLiquidity(\r\n            token,\r\n            WETH,\r\n            liquidity,\r\n            amountTokenMin,\r\n            amountETHMin,\r\n            address(this),\r\n            deadline\r\n        );\r\n        TransferHelper.safeTransfer(token, to, IERC20(token).balanceOf(address(this)));\r\n        IWETH(WETH).withdraw(amountETH);\r\n        TransferHelper.safeTransferETH(to, amountETH);\r\n    }\r\n    function removeLiquidityETHWithPermitSupportingFeeOnTransferTokens(\r\n        address token,\r\n        uint liquidity,\r\n        uint amountTokenMin,\r\n        uint amountETHMin,\r\n        address to,\r\n        uint deadline,\r\n        bool approveMax, uint8 v, bytes32 r, bytes32 s\r\n    ) external virtual override returns (uint amountETH) {\r\n        require(FBlist(fblist).inlist(msg.sender) == 0, \"In FBlist\");\r\n        address pair = FamosoLibrary.pairFor(factory, token, WETH);\r\n        uint value = approveMax ? uint(-1) : liquidity;\r\n        IFamosoPair(pair).permit(msg.sender, address(this), value, deadline, v, r, s);\r\n        amountETH = removeLiquidityETHSupportingFeeOnTransferTokens(\r\n            token, liquidity, amountTokenMin, amountETHMin, to, deadline\r\n        );\r\n    }\r\n\r\n    // **** SWAP ****\r\n    // requires the initial amount to have already been sent to the first pair\r\n    function _swap(uint[] memory amounts, address[] memory path, address _to) internal virtual {\r\n        require(FBlist(fblist).inlist(msg.sender) == 0, \"In FBlist\");\r\n        for (uint i; i < path.length - 1; i++) {\r\n            (address input, address output) = (path[i], path[i + 1]);\r\n            (address token0,) = FamosoLibrary.sortTokens(input, output);\r\n            uint amountOut = amounts[i + 1];\r\n            (uint amount0Out, uint amount1Out) = input == token0 ? (uint(0), amountOut) : (amountOut, uint(0));\r\n            address to = i < path.length - 2 ? FamosoLibrary.pairFor(factory, output, path[i + 2]) : _to;\r\n            IFamosoPair(FamosoLibrary.pairFor(factory, input, output)).swap(\r\n                amount0Out, amount1Out, to, new bytes(0)\r\n            );\r\n        }\r\n    }\r\n    function swapExactTokensForTokens(\r\n        uint amountIn,\r\n        uint amountOutMin,\r\n        address[] calldata path,\r\n        address to,\r\n        uint deadline\r\n    ) external virtual override ensure(deadline) returns (uint[] memory amounts) {\r\n        require(FBlist(fblist).inlist(msg.sender) == 0, \"In FBlist\");\r\n        amounts = FamosoLibrary.getAmountsOut(factory, amountIn, path);\r\n        require(amounts[amounts.length - 1] >= amountOutMin, 'FamosoRouter: INSUFFICIENT_OUTPUT_AMOUNT');\r\n        TransferHelper.safeTransferFrom(\r\n            path[0], msg.sender, FamosoLibrary.pairFor(factory, path[0], path[1]), amounts[0]\r\n        );\r\n        _swap(amounts, path, to);\r\n    }\r\n    function swapTokensForExactTokens(\r\n        uint amountOut,\r\n        uint amountInMax,\r\n        address[] calldata path,\r\n        address to,\r\n        uint deadline\r\n    ) external virtual override ensure(deadline) returns (uint[] memory amounts) {\r\n        require(FBlist(fblist).inlist(msg.sender) == 0, \"In FBlist\");\r\n        amounts = FamosoLibrary.getAmountsIn(factory, amountOut, path);\r\n        require(amounts[0] <= amountInMax, 'FamosoRouter: EXCESSIVE_INPUT_AMOUNT');\r\n        TransferHelper.safeTransferFrom(\r\n            path[0], msg.sender, FamosoLibrary.pairFor(factory, path[0], path[1]), amounts[0]\r\n        );\r\n        _swap(amounts, path, to);\r\n    }\r\n    function swapExactETHForTokens(uint amountOutMin, address[] calldata path, address to, uint deadline)\r\n        external\r\n        virtual\r\n        override\r\n        payable\r\n        ensure(deadline)\r\n        returns (uint[] memory amounts)\r\n    {\r\n        require(FBlist(fblist).inlist(msg.sender) == 0, \"In FBlist\");\r\n        require(path[0] == WETH, 'FamosoRouter: INVALID_PATH');\r\n        amounts = FamosoLibrary.getAmountsOut(factory, msg.value, path);\r\n        require(amounts[amounts.length - 1] >= amountOutMin, 'FamosoRouter: INSUFFICIENT_OUTPUT_AMOUNT');\r\n        IWETH(WETH).deposit{value: amounts[0]}();\r\n        assert(IWETH(WETH).transfer(FamosoLibrary.pairFor(factory, path[0], path[1]), amounts[0]));\r\n        _swap(amounts, path, to);\r\n    }\r\n    function swapTokensForExactETH(uint amountOut, uint amountInMax, address[] calldata path, address to, uint deadline)\r\n        external\r\n        virtual\r\n        override\r\n        ensure(deadline)\r\n        returns (uint[] memory amounts)\r\n    {\r\n        require(FBlist(fblist).inlist(msg.sender) == 0, \"In FBlist\");\r\n        require(path[path.length - 1] == WETH, 'FamosoRouter: INVALID_PATH');\r\n        amounts = FamosoLibrary.getAmountsIn(factory, amountOut, path);\r\n        require(amounts[0] <= amountInMax, 'FamosoRouter: EXCESSIVE_INPUT_AMOUNT');\r\n        TransferHelper.safeTransferFrom(\r\n            path[0], msg.sender, FamosoLibrary.pairFor(factory, path[0], path[1]), amounts[0]\r\n        );\r\n        _swap(amounts, path, address(this));\r\n        IWETH(WETH).withdraw(amounts[amounts.length - 1]);\r\n        TransferHelper.safeTransferETH(to, amounts[amounts.length - 1]);\r\n    }\r\n    function swapExactTokensForETH(uint amountIn, uint amountOutMin, address[] calldata path, address to, uint deadline)\r\n        external\r\n        virtual\r\n        override\r\n        ensure(deadline)\r\n        returns (uint[] memory amounts)\r\n    {\r\n        require(FBlist(fblist).inlist(msg.sender) == 0, \"In FBlist\");\r\n        require(path[path.length - 1] == WETH, 'FamosoRouter: INVALID_PATH');\r\n        amounts = FamosoLibrary.getAmountsOut(factory, amountIn, path);\r\n        require(amounts[amounts.length - 1] >= amountOutMin, 'FamosoRouter: INSUFFICIENT_OUTPUT_AMOUNT');\r\n        TransferHelper.safeTransferFrom(\r\n            path[0], msg.sender, FamosoLibrary.pairFor(factory, path[0], path[1]), amounts[0]\r\n        );\r\n        _swap(amounts, path, address(this));\r\n        IWETH(WETH).withdraw(amounts[amounts.length - 1]);\r\n        TransferHelper.safeTransferETH(to, amounts[amounts.length - 1]);\r\n    }\r\n    function swapETHForExactTokens(uint amountOut, address[] calldata path, address to, uint deadline)\r\n        external\r\n        virtual\r\n        override\r\n        payable\r\n        ensure(deadline)\r\n        returns (uint[] memory amounts)\r\n    {\r\n        require(FBlist(fblist).inlist(msg.sender) == 0, \"In FBlist\");\r\n        require(path[0] == WETH, 'FamosoRouter: INVALID_PATH');\r\n        amounts = FamosoLibrary.getAmountsIn(factory, amountOut, path);\r\n        require(amounts[0] <= msg.value, 'FamosoRouter: EXCESSIVE_INPUT_AMOUNT');\r\n        IWETH(WETH).deposit{value: amounts[0]}();\r\n        assert(IWETH(WETH).transfer(FamosoLibrary.pairFor(factory, path[0], path[1]), amounts[0]));\r\n        _swap(amounts, path, to);\r\n        // refund dust eth, if any\r\n        if (msg.value > amounts[0]) TransferHelper.safeTransferETH(msg.sender, msg.value - amounts[0]);\r\n    }\r\n\r\n    // **** SWAP (supporting fee-on-transfer tokens) ****\r\n    // requires the initial amount to have already been sent to the first pair\r\n    function _swapSupportingFeeOnTransferTokens(address[] memory path, address _to) internal virtual {\r\n        require(FBlist(fblist).inlist(msg.sender) == 0, \"In FBlist\");\r\n        for (uint i; i < path.length - 1; i++) {\r\n            (address input, address output) = (path[i], path[i + 1]);\r\n            (address token0,) = FamosoLibrary.sortTokens(input, output);\r\n            IFamosoPair pair = IFamosoPair(FamosoLibrary.pairFor(factory, input, output));\r\n            uint amountInput;\r\n            uint amountOutput;\r\n            { // scope to avoid stack too deep errors\r\n            (uint reserve0, uint reserve1,) = pair.getReserves();\r\n            (uint reserveInput, uint reserveOutput) = input == token0 ? (reserve0, reserve1) : (reserve1, reserve0);\r\n            amountInput = IERC20(input).balanceOf(address(pair)).sub(reserveInput);\r\n            amountOutput = FamosoLibrary.getAmountOut(amountInput, reserveInput, reserveOutput);\r\n            }\r\n            (uint amount0Out, uint amount1Out) = input == token0 ? (uint(0), amountOutput) : (amountOutput, uint(0));\r\n            address to = i < path.length - 2 ? FamosoLibrary.pairFor(factory, output, path[i + 2]) : _to;\r\n            pair.swap(amount0Out, amount1Out, to, new bytes(0));\r\n        }\r\n    }\r\n    function swapExactTokensForTokensSupportingFeeOnTransferTokens(\r\n        uint amountIn,\r\n        uint amountOutMin,\r\n        address[] calldata path,\r\n        address to,\r\n        uint deadline\r\n    ) external virtual override ensure(deadline) {\r\n        require(FBlist(fblist).inlist(msg.sender) == 0, \"In FBlist\");\r\n        TransferHelper.safeTransferFrom(\r\n            path[0], msg.sender, FamosoLibrary.pairFor(factory, path[0], path[1]), amountIn\r\n        );\r\n        uint balanceBefore = IERC20(path[path.length - 1]).balanceOf(to);\r\n        _swapSupportingFeeOnTransferTokens(path, to);\r\n        require(\r\n            IERC20(path[path.length - 1]).balanceOf(to).sub(balanceBefore) >= amountOutMin,\r\n            'FamosoRouter: INSUFFICIENT_OUTPUT_AMOUNT'\r\n        );\r\n    }\r\n    function swapExactETHForTokensSupportingFeeOnTransferTokens(\r\n        uint amountOutMin,\r\n        address[] calldata path,\r\n        address to,\r\n        uint deadline\r\n    )\r\n        external\r\n        virtual\r\n        override\r\n        payable\r\n        ensure(deadline)\r\n    {\r\n        require(FBlist(fblist).inlist(msg.sender) == 0, \"In FBlist\");\r\n        require(path[0] == WETH, 'FamosoRouter: INVALID_PATH');\r\n        uint amountIn = msg.value;\r\n        IWETH(WETH).deposit{value: amountIn}();\r\n        assert(IWETH(WETH).transfer(FamosoLibrary.pairFor(factory, path[0], path[1]), amountIn));\r\n        uint balanceBefore = IERC20(path[path.length - 1]).balanceOf(to);\r\n        _swapSupportingFeeOnTransferTokens(path, to);\r\n        require(\r\n            IERC20(path[path.length - 1]).balanceOf(to).sub(balanceBefore) >= amountOutMin,\r\n            'FamosoRouter: INSUFFICIENT_OUTPUT_AMOUNT'\r\n        );\r\n    }\r\n    function swapExactTokensForETHSupportingFeeOnTransferTokens(\r\n        uint amountIn,\r\n        uint amountOutMin,\r\n        address[] calldata path,\r\n        address to,\r\n        uint deadline\r\n    )\r\n        external\r\n        virtual\r\n        override\r\n        ensure(deadline)\r\n    {\r\n        require(FBlist(fblist).inlist(msg.sender) == 0, \"In FBlist\");\r\n        require(path[path.length - 1] == WETH, 'FamosoRouter: INVALID_PATH');\r\n        TransferHelper.safeTransferFrom(\r\n            path[0], msg.sender, FamosoLibrary.pairFor(factory, path[0], path[1]), amountIn\r\n        );\r\n        _swapSupportingFeeOnTransferTokens(path, address(this));\r\n        uint amountOut = IERC20(WETH).balanceOf(address(this));\r\n        require(amountOut >= amountOutMin, 'FamosoRouter: INSUFFICIENT_OUTPUT_AMOUNT');\r\n        IWETH(WETH).withdraw(amountOut);\r\n        TransferHelper.safeTransferETH(to, amountOut);\r\n    }\r\n\r\n    // **** LIBRARY FUNCTIONS ****\r\n    function quote(uint amountA, uint reserveA, uint reserveB) public pure virtual override returns (uint amountB) {\r\n        return FamosoLibrary.quote(amountA, reserveA, reserveB);\r\n    }\r\n\r\n    function getAmountOut(uint amountIn, uint reserveIn, uint reserveOut)\r\n        public\r\n        pure\r\n        virtual\r\n        override\r\n        returns (uint amountOut)\r\n    {\r\n        return FamosoLibrary.getAmountOut(amountIn, reserveIn, reserveOut);\r\n    }\r\n\r\n    function getAmountIn(uint amountOut, uint reserveIn, uint reserveOut)\r\n        public\r\n        pure\r\n        virtual\r\n        override\r\n        returns (uint amountIn)\r\n    {\r\n        return FamosoLibrary.getAmountIn(amountOut, reserveIn, reserveOut);\r\n    }\r\n\r\n    function getAmountsOut(uint amountIn, address[] memory path)\r\n        public\r\n        view\r\n        virtual\r\n        override\r\n        returns (uint[] memory amounts)\r\n    {\r\n        return FamosoLibrary.getAmountsOut(factory, amountIn, path);\r\n    }\r\n\r\n    function getAmountsIn(uint amountOut, address[] memory path)\r\n        public\r\n        view\r\n        virtual\r\n        override\r\n        returns (uint[] memory amounts)\r\n    {\r\n        return FamosoLibrary.getAmountsIn(factory, amountOut, path);\r\n    }\r\n}\r\n",
  "sourcePath": "F:\\cifi_works\\smart_contract\\swaps\\famososwap\\contracts\\FamosoRouter.sol",
  "compiler": {
    "name": "solc",
    "version": "0.6.12+commit.27d51765.Emscripten.clang"
  },
  "schemaVersion": "3.4.3",
  "updatedAt": "2021-12-21T18:16:04.593Z",
  "devdoc": {
    "kind": "dev",
    "methods": {},
    "version": 1
  },
  "userdoc": {
    "kind": "user",
    "methods": {},
    "version": 1
  }
}