{
  "contractName": "FBlist",
  "abi": [
    {
      "inputs": [],
      "stateMutability": "nonpayable",
      "type": "constructor"
    },
    {
      "inputs": [],
      "name": "admin",
      "outputs": [
        {
          "internalType": "address",
          "name": "",
          "type": "address"
        }
      ],
      "stateMutability": "view",
      "type": "function"
    },
    {
      "inputs": [
        {
          "internalType": "uint256",
          "name": "",
          "type": "uint256"
        }
      ],
      "name": "list",
      "outputs": [
        {
          "internalType": "address",
          "name": "",
          "type": "address"
        }
      ],
      "stateMutability": "view",
      "type": "function"
    },
    {
      "inputs": [
        {
          "internalType": "address",
          "name": "addr",
          "type": "address"
        }
      ],
      "name": "addlist",
      "outputs": [],
      "stateMutability": "nonpayable",
      "type": "function"
    },
    {
      "inputs": [],
      "name": "getlist",
      "outputs": [
        {
          "internalType": "address[]",
          "name": "",
          "type": "address[]"
        }
      ],
      "stateMutability": "view",
      "type": "function"
    },
    {
      "inputs": [
        {
          "internalType": "address",
          "name": "addr",
          "type": "address"
        }
      ],
      "name": "removelist",
      "outputs": [],
      "stateMutability": "nonpayable",
      "type": "function"
    },
    {
      "inputs": [],
      "name": "getCountList",
      "outputs": [
        {
          "internalType": "uint256",
          "name": "",
          "type": "uint256"
        }
      ],
      "stateMutability": "view",
      "type": "function"
    },
    {
      "inputs": [
        {
          "internalType": "address",
          "name": "addr",
          "type": "address"
        }
      ],
      "name": "inlist",
      "outputs": [
        {
          "internalType": "uint256",
          "name": "",
          "type": "uint256"
        }
      ],
      "stateMutability": "view",
      "type": "function"
    },
    {
      "inputs": [
        {
          "internalType": "address",
          "name": "addr",
          "type": "address"
        }
      ],
      "name": "setAdmin",
      "outputs": [],
      "stateMutability": "nonpayable",
      "type": "function"
    }
  ],
  "bytecode": "0x608060405234801561001057600080fd5b50600080546001600160a01b0319163317905561056c806100326000396000f3fe608060405234801561001057600080fd5b50600436106100885760003560e01c806380c9419e1161005b57806380c9419e1461014d578063b7ad582f14610186578063e78c96ed146101ac578063f851a440146101d257610088565b806312f887e81461008d57806342381ed8146100b557806347dc424e146100cf578063704b6c0214610127575b600080fd5b6100b3600480360360208110156100a357600080fd5b50356001600160a01b03166101da565b005b6100bd610273565b60408051918252519081900360200190f35b6100d7610279565b60408051602080825283518183015283519192839290830191858101910280838360005b838110156101135781810151838201526020016100fb565b505050509050019250505060405180910390f35b6100b36004803603602081101561013d57600080fd5b50356001600160a01b03166102db565b61016a6004803603602081101561016357600080fd5b5035610345565b604080516001600160a01b039092168252519081900360200190f35b6100b36004803603602081101561019c57600080fd5b50356001600160a01b031661036c565b6100bd600480360360208110156101c257600080fd5b50356001600160a01b03166104b7565b61016a610527565b6000546001600160a01b03163314610222576040805162461bcd60e51b815260206004820152600660248201526510b0b236b4b760d11b604482015290519081900360640190fd5b6001805480820182556000919091527fb10e2d527612073b26eecdfd717e6a320cf44b4afac2b0732d9fcbe2b7fa0cf60180546001600160a01b0319166001600160a01b0392909216919091179055565b60015490565b606060018054806020026020016040519081016040528092919081815260200182805480156102d157602002820191906000526020600020905b81546001600160a01b031681526001909101906020018083116102b3575b5050505050905090565b6000546001600160a01b03163314610323576040805162461bcd60e51b815260206004820152600660248201526510b0b236b4b760d11b604482015290519081900360640190fd5b600080546001600160a01b0319166001600160a01b0392909216919091179055565b6001818154811061035257fe5b6000918252602090912001546001600160a01b0316905081565b6000546001600160a01b031633146103b4576040805162461bcd60e51b815260206004820152600660248201526510b0b236b4b760d11b604482015290519081900360640190fd5b60015460005b60015481101561040257826001600160a01b0316600182815481106103db57fe5b6000918252602090912001546001600160a01b031614156103fa578091505b6001016103ba565b5060015481101561048657805b60015460001901811015610484576001816001018154811061042d57fe5b600091825260209091200154600180546001600160a01b03909216918390811061045357fe5b600091825260209091200180546001600160a01b0319166001600160a01b039290921691909117905560010161040f565b505b600180548061049157fe5b600082815260209020810160001990810180546001600160a01b03191690550190555050565b600154600090815b60015481101561050757836001600160a01b0316600182815481106104e057fe5b6000918252602090912001546001600160a01b031614156104ff578091505b6001016104bf565b5060015481101561051c576001915050610522565b60009150505b919050565b6000546001600160a01b03168156fea2646970667358221220a1b5cac2882ec3ebde95c153f28aabd1fd2bb4b06546399d1bd78e060e50dffa64736f6c634300060c0033",
  "immutableReferences": {},
  "source": "// SPDX-License-Identifier: MIT\r\npragma solidity =0.6.12;\r\n\r\ncontract FBlist {\r\n    address public admin;\r\n    address[] public list;\r\n    constructor() public {\r\n        admin = msg.sender;\r\n    }\r\n\r\n    function addlist(address addr) external {\r\n        require(msg.sender == admin, \"!admin\");\r\n        list.push(addr);\r\n    }\r\n\r\n    function getlist()public view returns( address  [] memory){\r\n        return list;\r\n    }\r\n\r\n    function removelist(address addr) external {\r\n        require(msg.sender == admin, \"!admin\");\r\n        uint p = list.length;\r\n        for (uint i = 0; i < list.length; i++) {\r\n            if (list[i] == addr) {\r\n                p = i;\r\n            }\r\n        }\r\n        if (p < list.length) {\r\n            for (uint i = p; i < list.length - 1; i++) {\r\n                list[i] = list[i + 1];\r\n            }\r\n        }\r\n        list.pop();\r\n    }\r\n\r\n    function getCountList() external view returns(uint) {\r\n        return list.length;\r\n    }\r\n\r\n    function inlist(address addr) external view returns(uint){\r\n        uint p = list.length;\r\n        for (uint i = 0; i < list.length; i++) {\r\n            if (list[i] == addr) {\r\n                p = i;\r\n            }\r\n        }\r\n        if (p < list.length) {\r\n            return 1;\r\n        }\r\n        return 0;\r\n    }\r\n\r\n    function setAdmin(address addr) public {\r\n        require(msg.sender == admin, \"!admin\");\r\n        admin = addr;\r\n    }\r\n}",
  "sourcePath": "F:\\cifi_works\\smart_contract\\swaps\\famososwap\\contracts\\FBlist.sol",
  "compiler": {
    "name": "solc",
    "version": "0.6.12+commit.27d51765.Emscripten.clang"
  },
  "schemaVersion": "3.4.3",
  "updatedAt": "2021-12-21T18:16:04.443Z",
  "devdoc": {
    "kind": "dev",
    "methods": {},
    "version": 1
  },
  "userdoc": {
    "kind": "user",
    "methods": {},
    "version": 1
  }
}