{
  "contractName": "NftAsset",
  "abi": [
    {
      "inputs": [],
      "stateMutability": "nonpayable",
      "type": "constructor"
    },
    {
      "anonymous": false,
      "inputs": [
        {
          "indexed": true,
          "internalType": "address",
          "name": "owner",
          "type": "address"
        },
        {
          "indexed": true,
          "internalType": "address",
          "name": "approved",
          "type": "address"
        },
        {
          "indexed": true,
          "internalType": "uint256",
          "name": "tokenId",
          "type": "uint256"
        }
      ],
      "name": "Approval",
      "type": "event"
    },
    {
      "anonymous": false,
      "inputs": [
        {
          "indexed": true,
          "internalType": "address",
          "name": "owner",
          "type": "address"
        },
        {
          "indexed": true,
          "internalType": "address",
          "name": "operator",
          "type": "address"
        },
        {
          "indexed": false,
          "internalType": "bool",
          "name": "approved",
          "type": "bool"
        }
      ],
      "name": "ApprovalForAll",
      "type": "event"
    },
    {
      "anonymous": false,
      "inputs": [
        {
          "indexed": true,
          "internalType": "address",
          "name": "previousOwner",
          "type": "address"
        },
        {
          "indexed": true,
          "internalType": "address",
          "name": "newOwner",
          "type": "address"
        }
      ],
      "name": "GovernanceTransferred",
      "type": "event"
    },
    {
      "anonymous": false,
      "inputs": [
        {
          "indexed": true,
          "internalType": "address",
          "name": "from",
          "type": "address"
        },
        {
          "indexed": true,
          "internalType": "address",
          "name": "to",
          "type": "address"
        },
        {
          "indexed": true,
          "internalType": "uint256",
          "name": "tokenId",
          "type": "uint256"
        }
      ],
      "name": "Transfer",
      "type": "event"
    },
    {
      "inputs": [],
      "name": "_governance",
      "outputs": [
        {
          "internalType": "address",
          "name": "",
          "type": "address"
        }
      ],
      "stateMutability": "view",
      "type": "function"
    },
    {
      "inputs": [
        {
          "internalType": "address",
          "name": "",
          "type": "address"
        }
      ],
      "name": "_minters",
      "outputs": [
        {
          "internalType": "bool",
          "name": "",
          "type": "bool"
        }
      ],
      "stateMutability": "view",
      "type": "function"
    },
    {
      "inputs": [
        {
          "internalType": "address",
          "name": "to",
          "type": "address"
        },
        {
          "internalType": "uint256",
          "name": "tokenId",
          "type": "uint256"
        }
      ],
      "name": "approve",
      "outputs": [],
      "stateMutability": "nonpayable",
      "type": "function"
    },
    {
      "inputs": [
        {
          "internalType": "address",
          "name": "owner",
          "type": "address"
        }
      ],
      "name": "balanceOf",
      "outputs": [
        {
          "internalType": "uint256",
          "name": "",
          "type": "uint256"
        }
      ],
      "stateMutability": "view",
      "type": "function"
    },
    {
      "inputs": [],
      "name": "baseURI",
      "outputs": [
        {
          "internalType": "string",
          "name": "",
          "type": "string"
        }
      ],
      "stateMutability": "view",
      "type": "function"
    },
    {
      "inputs": [
        {
          "internalType": "uint256",
          "name": "tokenId",
          "type": "uint256"
        }
      ],
      "name": "getApproved",
      "outputs": [
        {
          "internalType": "address",
          "name": "",
          "type": "address"
        }
      ],
      "stateMutability": "view",
      "type": "function"
    },
    {
      "inputs": [
        {
          "internalType": "address",
          "name": "owner",
          "type": "address"
        },
        {
          "internalType": "address",
          "name": "operator",
          "type": "address"
        }
      ],
      "name": "isApprovedForAll",
      "outputs": [
        {
          "internalType": "bool",
          "name": "",
          "type": "bool"
        }
      ],
      "stateMutability": "view",
      "type": "function"
    },
    {
      "inputs": [],
      "name": "name",
      "outputs": [
        {
          "internalType": "string",
          "name": "",
          "type": "string"
        }
      ],
      "stateMutability": "view",
      "type": "function"
    },
    {
      "inputs": [
        {
          "internalType": "uint256",
          "name": "tokenId",
          "type": "uint256"
        }
      ],
      "name": "ownerOf",
      "outputs": [
        {
          "internalType": "address",
          "name": "",
          "type": "address"
        }
      ],
      "stateMutability": "view",
      "type": "function"
    },
    {
      "inputs": [
        {
          "internalType": "address",
          "name": "from",
          "type": "address"
        },
        {
          "internalType": "address",
          "name": "to",
          "type": "address"
        },
        {
          "internalType": "uint256",
          "name": "tokenId",
          "type": "uint256"
        }
      ],
      "name": "safeTransferFrom",
      "outputs": [],
      "stateMutability": "nonpayable",
      "type": "function"
    },
    {
      "inputs": [
        {
          "internalType": "address",
          "name": "from",
          "type": "address"
        },
        {
          "internalType": "address",
          "name": "to",
          "type": "address"
        },
        {
          "internalType": "uint256",
          "name": "tokenId",
          "type": "uint256"
        },
        {
          "internalType": "bytes",
          "name": "_data",
          "type": "bytes"
        }
      ],
      "name": "safeTransferFrom",
      "outputs": [],
      "stateMutability": "nonpayable",
      "type": "function"
    },
    {
      "inputs": [
        {
          "internalType": "address",
          "name": "operator",
          "type": "address"
        },
        {
          "internalType": "bool",
          "name": "approved",
          "type": "bool"
        }
      ],
      "name": "setApprovalForAll",
      "outputs": [],
      "stateMutability": "nonpayable",
      "type": "function"
    },
    {
      "inputs": [
        {
          "internalType": "address",
          "name": "governance",
          "type": "address"
        }
      ],
      "name": "setGovernance",
      "outputs": [],
      "stateMutability": "nonpayable",
      "type": "function"
    },
    {
      "inputs": [
        {
          "internalType": "bytes4",
          "name": "interfaceId",
          "type": "bytes4"
        }
      ],
      "name": "supportsInterface",
      "outputs": [
        {
          "internalType": "bool",
          "name": "",
          "type": "bool"
        }
      ],
      "stateMutability": "view",
      "type": "function"
    },
    {
      "inputs": [],
      "name": "symbol",
      "outputs": [
        {
          "internalType": "string",
          "name": "",
          "type": "string"
        }
      ],
      "stateMutability": "view",
      "type": "function"
    },
    {
      "inputs": [
        {
          "internalType": "uint256",
          "name": "index",
          "type": "uint256"
        }
      ],
      "name": "tokenByIndex",
      "outputs": [
        {
          "internalType": "uint256",
          "name": "",
          "type": "uint256"
        }
      ],
      "stateMutability": "view",
      "type": "function"
    },
    {
      "inputs": [
        {
          "internalType": "address",
          "name": "owner",
          "type": "address"
        },
        {
          "internalType": "uint256",
          "name": "index",
          "type": "uint256"
        }
      ],
      "name": "tokenOfOwnerByIndex",
      "outputs": [
        {
          "internalType": "uint256",
          "name": "",
          "type": "uint256"
        }
      ],
      "stateMutability": "view",
      "type": "function"
    },
    {
      "inputs": [
        {
          "internalType": "uint256",
          "name": "tokenId",
          "type": "uint256"
        }
      ],
      "name": "tokenURI",
      "outputs": [
        {
          "internalType": "string",
          "name": "",
          "type": "string"
        }
      ],
      "stateMutability": "view",
      "type": "function"
    },
    {
      "inputs": [],
      "name": "totalSupply",
      "outputs": [
        {
          "internalType": "uint256",
          "name": "",
          "type": "uint256"
        }
      ],
      "stateMutability": "view",
      "type": "function"
    },
    {
      "inputs": [
        {
          "internalType": "address",
          "name": "from",
          "type": "address"
        },
        {
          "internalType": "address",
          "name": "to",
          "type": "address"
        },
        {
          "internalType": "uint256",
          "name": "tokenId",
          "type": "uint256"
        }
      ],
      "name": "transferFrom",
      "outputs": [],
      "stateMutability": "nonpayable",
      "type": "function"
    },
    {
      "inputs": [
        {
          "internalType": "string",
          "name": "baseURI",
          "type": "string"
        }
      ],
      "name": "setURIPrefix",
      "outputs": [],
      "stateMutability": "nonpayable",
      "type": "function"
    },
    {
      "inputs": [
        {
          "internalType": "address",
          "name": "to",
          "type": "address"
        },
        {
          "internalType": "uint256",
          "name": "tokenId",
          "type": "uint256"
        }
      ],
      "name": "mint",
      "outputs": [
        {
          "internalType": "bool",
          "name": "",
          "type": "bool"
        }
      ],
      "stateMutability": "nonpayable",
      "type": "function"
    },
    {
      "inputs": [
        {
          "internalType": "address",
          "name": "to",
          "type": "address"
        },
        {
          "internalType": "uint256",
          "name": "tokenId",
          "type": "uint256"
        },
        {
          "internalType": "bytes",
          "name": "_data",
          "type": "bytes"
        }
      ],
      "name": "safeMint",
      "outputs": [
        {
          "internalType": "bool",
          "name": "",
          "type": "bool"
        }
      ],
      "stateMutability": "nonpayable",
      "type": "function"
    },
    {
      "inputs": [
        {
          "internalType": "address",
          "name": "to",
          "type": "address"
        },
        {
          "internalType": "uint256",
          "name": "tokenId",
          "type": "uint256"
        }
      ],
      "name": "safeMint",
      "outputs": [
        {
          "internalType": "bool",
          "name": "",
          "type": "bool"
        }
      ],
      "stateMutability": "nonpayable",
      "type": "function"
    },
    {
      "inputs": [
        {
          "internalType": "address",
          "name": "minter",
          "type": "address"
        }
      ],
      "name": "addMinter",
      "outputs": [],
      "stateMutability": "nonpayable",
      "type": "function"
    },
    {
      "inputs": [
        {
          "internalType": "address",
          "name": "minter",
          "type": "address"
        }
      ],
      "name": "removeMinter",
      "outputs": [],
      "stateMutability": "nonpayable",
      "type": "function"
    },
    {
      "inputs": [
        {
          "internalType": "uint256",
          "name": "tokenId",
          "type": "uint256"
        }
      ],
      "name": "burn",
      "outputs": [],
      "stateMutability": "nonpayable",
      "type": "function"
    },
    {
      "inputs": [
        {
          "internalType": "address",
          "name": "owner",
          "type": "address"
        }
      ],
      "name": "tokensOfOwner",
      "outputs": [
        {
          "internalType": "uint256[]",
          "name": "",
          "type": "uint256[]"
        }
      ],
      "stateMutability": "view",
      "type": "function"
    }
  ],
  "bytecode": "0x60806040523480156200001157600080fd5b50604080518082018252600f81526e636974697a656e2066696e616e636560881b602080830191909152825180840190935260058352641054d4d15560da1b9083015290620000676301ffc9a760e01b62000122565b81516200007c906006906020850190620001c0565b50805162000092906007906020840190620001c0565b50620000a56380ac58cd60e01b62000122565b620000b7635b5e139f60e01b62000122565b620000c963780e9d6360e01b62000122565b5050600a80546001600160a01b0319163217905560408051808201909152601c81527f68747470733a2f2f6170692e6172767273652e636f2f61737365742f0000000060208201526200011c90620001a7565b6200026c565b6001600160e01b0319808216141562000182576040805162461bcd60e51b815260206004820152601c60248201527f4552433136353a20696e76616c696420696e7465726661636520696400000000604482015290519081900360640190fd5b6001600160e01b0319166000908152602081905260409020805460ff19166001179055565b8051620001bc906009906020840190620001c0565b5050565b828054600181600116156101000203166002900490600052602060002090601f016020900481019282620001f8576000855562000243565b82601f106200021357805160ff191683800117855562000243565b8280016001018555821562000243579182015b828111156200024357825182559160200191906001019062000226565b506200025192915062000255565b5090565b5b8082111562000251576000815560010162000256565b6127fa806200027c6000396000f3fe608060405234801561001057600080fd5b50600436106101c45760003560e01c80636352211e116100f9578063983b2d5611610097578063ab033ea911610071578063ab033ea9146106fe578063b88d4fde14610724578063c87b56dd146107ea578063e985e9c514610807576101c4565b8063983b2d561461067e578063a1448194146106a4578063a22cb465146106d0576101c4565b806370a08231116100d357806370a082311461051f5780638462151c146105455780638832e6e3146105bb57806395d89b4114610676576101c4565b80636352211e146104545780636bff2c24146104715780636c0360eb14610517576101c4565b80632f745c591161016657806340c10f191161014057806340c10f19146103b857806342842e0e146103e457806342966c681461041a5780634f6ccce714610437576101c4565b80632f745c59146103405780633092afd51461036c5780633575597d14610392576101c4565b8063095ea7b3116101a2578063095ea7b3146102ba57806318160ddd146102e85780631c2f3e3d1461030257806323b872dd1461030a576101c4565b806301ffc9a7146101c957806306fdde0314610204578063081812fc14610281575b600080fd5b6101f0600480360360208110156101df57600080fd5b50356001600160e01b031916610835565b604080519115158252519081900360200190f35b61020c610858565b6040805160208082528351818301528351919283929083019185019080838360005b8381101561024657818101518382015260200161022e565b50505050905090810190601f1680156102735780820380516001836020036101000a031916815260200191505b509250505060405180910390f35b61029e6004803603602081101561029757600080fd5b50356108ee565b604080516001600160a01b039092168252519081900360200190f35b6102e6600480360360408110156102d057600080fd5b506001600160a01b038135169060200135610950565b005b6102f0610a2b565b60408051918252519081900360200190f35b61029e610a3c565b6102e66004803603606081101561032057600080fd5b506001600160a01b03813581169160208101359091169060400135610a4b565b6102f06004803603604081101561035657600080fd5b506001600160a01b038135169060200135610aa2565b6102e66004803603602081101561038257600080fd5b50356001600160a01b0316610acd565b6101f0600480360360208110156103a857600080fd5b50356001600160a01b0316610b3e565b6101f0600480360360408110156103ce57600080fd5b506001600160a01b038135169060200135610b53565b6102e6600480360360608110156103fa57600080fd5b506001600160a01b03813581169160208101359091169060400135610bc6565b6102e66004803603602081101561043057600080fd5b5035610be1565b6102f06004803603602081101561044d57600080fd5b5035610c97565b61029e6004803603602081101561046a57600080fd5b5035610cad565b6102e66004803603602081101561048757600080fd5b8101906020810181356401000000008111156104a257600080fd5b8201836020820111156104b457600080fd5b803590602001918460018302840111640100000000831117156104d657600080fd5b91908080601f016020809104026020016040519081016040528093929190818152602001838380828437600092019190915250929550610cd5945050505050565b61020c610d2e565b6102f06004803603602081101561053557600080fd5b50356001600160a01b0316610d8f565b61056b6004803603602081101561055b57600080fd5b50356001600160a01b0316610df7565b60408051602080825283518183015283519192839290830191858101910280838360005b838110156105a757818101518382015260200161058f565b505050509050019250505060405180910390f35b6101f0600480360360608110156105d157600080fd5b6001600160a01b038235169160208101359181019060608101604082013564010000000081111561060157600080fd5b82018360208201111561061357600080fd5b8035906020019184600183028401116401000000008311171561063557600080fd5b91908080601f016020809104026020016040519081016040528093929190818152602001838380828437600092019190915250929550610ecb945050505050565b61020c610f3c565b6102e66004803603602081101561069457600080fd5b50356001600160a01b0316610f9d565b6101f0600480360360408110156106ba57600080fd5b506001600160a01b038135169060200135611011565b6102e6600480360360408110156106e657600080fd5b506001600160a01b0381351690602001351515611069565b6102e66004803603602081101561071457600080fd5b50356001600160a01b031661116e565b6102e66004803603608081101561073a57600080fd5b6001600160a01b0382358116926020810135909116916040820135919081019060808101606082013564010000000081111561077557600080fd5b82018360208201111561078757600080fd5b803590602001918460018302840111640100000000831117156107a957600080fd5b91908080601f016020809104026020016040519081016040528093929190818152602001838380828437600092019190915250929550611275945050505050565b61020c6004803603602081101561080057600080fd5b50356112d3565b6101f06004803603604081101561081d57600080fd5b506001600160a01b0381358116916020013516611556565b6001600160e01b0319811660009081526020819052604090205460ff165b919050565b60068054604080516020601f60026000196101006001881615020190951694909404938401819004810282018101909252828152606093909290918301828280156108e45780601f106108b9576101008083540402835291602001916108e4565b820191906000526020600020905b8154815290600101906020018083116108c757829003601f168201915b5050505050905090565b60006108f982611584565b6109345760405162461bcd60e51b815260040180806020018281038252602c8152602001806126c3602c913960400191505060405180910390fd5b506000908152600460205260409020546001600160a01b031690565b600061095b82610cad565b9050806001600160a01b0316836001600160a01b031614156109ae5760405162461bcd60e51b81526004018080602001828103825260218152602001806127736021913960400191505060405180910390fd5b806001600160a01b03166109c0611591565b6001600160a01b031614806109e157506109e1816109dc611591565b611556565b610a1c5760405162461bcd60e51b81526004018080602001828103825260388152602001806126166038913960400191505060405180910390fd5b610a268383611595565b505050565b6000610a376002611603565b905090565b600a546001600160a01b031681565b610a5c610a56611591565b8261160e565b610a975760405162461bcd60e51b81526004018080602001828103825260318152602001806127946031913960400191505060405180910390fd5b610a268383836116b2565b6001600160a01b0382166000908152600160205260408120610ac490836117fe565b90505b92915050565b600a546001600160a01b03163314610b1d576040805162461bcd60e51b815260206004820152600e60248201526d6e6f7420676f7665726e616e636560901b604482015290519081900360640190fd5b6001600160a01b03166000908152600b60205260409020805460ff19169055565b600b6020526000908152604090205460ff1681565b336000908152600b602052604081205460ff16610ba1576040805162461bcd60e51b815260206004820152600760248201526610b6b4b73a32b960c91b604482015290519081900360640190fd5b610bab838361180a565b610bbd82610bb884611938565b611a10565b50600192915050565b610a2683838360405180602001604052806000815250611275565b336000908152600b602052604090205460ff16610c2f576040805162461bcd60e51b815260206004820152600760248201526610b6b4b73a32b960c91b604482015290519081900360640190fd5b610c3a610a56611591565b610c8b576040805162461bcd60e51b815260206004820181905260248201527f63616c6c6572206973206e6f74206f776e6572206e6f7220617070726f766564604482015290519081900360640190fd5b610c9481611a73565b50565b600080610ca5600284611b40565b509392505050565b6000610ac7826040518060600160405280602981526020016126786029913960029190611b5c565b600a546001600160a01b03163314610d25576040805162461bcd60e51b815260206004820152600e60248201526d6e6f7420676f7665726e616e636560901b604482015290519081900360640190fd5b610c9481611b69565b60098054604080516020601f60026000196101006001881615020190951694909404938401819004810282018101909252828152606093909290918301828280156108e45780601f106108b9576101008083540402835291602001916108e4565b60006001600160a01b038216610dd65760405162461bcd60e51b815260040180806020018281038252602a81526020018061264e602a913960400191505060405180910390fd5b6001600160a01b0382166000908152600160205260409020610ac790611603565b60606001600160a01b038216610e44576040805162461bcd60e51b815260206004820152600d60248201526c34b73b30b634b21037bbb732b960991b604482015290519081900360640190fd5b6000610e4f83610d8f565b905060608167ffffffffffffffff81118015610e6a57600080fd5b50604051908082528060200260200182016040528015610e94578160200160208202803683370190505b50905060005b82811015610ca557610eac8582610aa2565b828281518110610eb857fe5b6020908102919091010152600101610e9a565b336000908152600b602052604081205460ff16610f19576040805162461bcd60e51b815260206004820152600760248201526610b6b4b73a32b960c91b604482015290519081900360640190fd5b610f24848484611b80565b610f3183610bb885611938565b5060015b9392505050565b60078054604080516020601f60026000196101006001881615020190951694909404938401819004810282018101909252828152606093909290918301828280156108e45780601f106108b9576101008083540402835291602001916108e4565b600a546001600160a01b03163314610fed576040805162461bcd60e51b815260206004820152600e60248201526d6e6f7420676f7665726e616e636560901b604482015290519081900360640190fd5b6001600160a01b03166000908152600b60205260409020805460ff19166001179055565b336000908152600b602052604081205460ff1661105f576040805162461bcd60e51b815260206004820152600760248201526610b6b4b73a32b960c91b604482015290519081900360640190fd5b610bab8383611bd2565b611071611591565b6001600160a01b0316826001600160a01b031614156110d7576040805162461bcd60e51b815260206004820152601960248201527f4552433732313a20617070726f766520746f2063616c6c657200000000000000604482015290519081900360640190fd5b80600560006110e4611591565b6001600160a01b03908116825260208083019390935260409182016000908120918716808252919093529120805460ff191692151592909217909155611128611591565b6001600160a01b03167f17307eab39ab6107e8899845ad3d59bd9653f200f220920489ca2b5937696c318360405180821515815260200191505060405180910390a35050565b600a546001600160a01b031633146111be576040805162461bcd60e51b815260206004820152600e60248201526d6e6f7420676f7665726e616e636560901b604482015290519081900360640190fd5b6001600160a01b038116611219576040805162461bcd60e51b815260206004820152601f60248201527f6e657720676f7665726e616e636520746865207a65726f206164647265737300604482015290519081900360640190fd5b600a546040516001600160a01b038084169216907f5f56bee8cffbe9a78652a74a60705edede02af10b0bbb888ca44b79a0d42ce8090600090a3600a80546001600160a01b0319166001600160a01b0392909216919091179055565b611286611280611591565b8361160e565b6112c15760405162461bcd60e51b81526004018080602001828103825260318152602001806127946031913960400191505060405180910390fd5b6112cd84848484611bec565b50505050565b60606112de82611584565b6113195760405162461bcd60e51b815260040180806020018281038252602f815260200180612744602f913960400191505060405180910390fd5b60008281526008602090815260409182902080548351601f60026000196101006001861615020190931692909204918201849004840281018401909452808452606093928301828280156113ae5780601f10611383576101008083540402835291602001916113ae565b820191906000526020600020905b81548152906001019060200180831161139157829003601f168201915b5050505050905060606113bf610d2e565b90508051600014156113d357509050610853565b8151156114945780826040516020018083805190602001908083835b6020831061140e5780518252601f1990920191602091820191016113ef565b51815160209384036101000a600019018019909216911617905285519190930192850191508083835b602083106114565780518252601f199092019160209182019101611437565b6001836020036101000a0380198251168184511680821785525050505050509050019250505060405160208183030381529060405292505050610853565b8061149e85611c3e565b6040516020018083805190602001908083835b602083106114d05780518252601f1990920191602091820191016114b1565b51815160209384036101000a600019018019909216911617905285519190930192850191508083835b602083106115185780518252601f1990920191602091820191016114f9565b6001836020036101000a0380198251168184511680821785525050505050509050019250505060405160208183030381529060405292505050919050565b6001600160a01b03918216600090815260056020908152604080832093909416825291909152205460ff1690565b6000610ac7600283611d10565b3390565b600081815260046020526040902080546001600160a01b0319166001600160a01b03841690811790915581906115ca82610cad565b6001600160a01b03167f8c5be1e5ebec7d5bd14f71427d1e84f3dd0314c0f7b2291e5b200ac8c7c3b92560405160405180910390a45050565b6000610ac782611d1c565b600061161982611584565b6116545760405162461bcd60e51b815260040180806020018281038252602c8152602001806125ea602c913960400191505060405180910390fd5b600061165f83610cad565b9050806001600160a01b0316846001600160a01b0316148061169a5750836001600160a01b031661168f846108ee565b6001600160a01b0316145b806116aa57506116aa8185611556565b949350505050565b826001600160a01b03166116c582610cad565b6001600160a01b03161461170a5760405162461bcd60e51b815260040180806020018281038252602981526020018061271b6029913960400191505060405180910390fd5b6001600160a01b03821661174f5760405162461bcd60e51b81526004018080602001828103825260248152602001806125c66024913960400191505060405180910390fd5b61175a838383610a26565b611765600082611595565b6001600160a01b03831660009081526001602052604090206117879082611d20565b506001600160a01b03821660009081526001602052604090206117aa9082611d2c565b506117b760028284611d38565b5080826001600160a01b0316846001600160a01b03167fddf252ad1be2c89b69c2b068fc378daa952ba7f163c4a11628f55a4df523b3ef60405160405180910390a4505050565b6000610ac48383611d4e565b6001600160a01b038216611865576040805162461bcd60e51b815260206004820181905260248201527f4552433732313a206d696e7420746f20746865207a65726f2061646472657373604482015290519081900360640190fd5b61186e81611584565b156118c0576040805162461bcd60e51b815260206004820152601c60248201527f4552433732313a20746f6b656e20616c7265616479206d696e74656400000000604482015290519081900360640190fd5b6118cc60008383610a26565b6001600160a01b03821660009081526001602052604090206118ee9082611d2c565b506118fb60028284611d38565b5060405181906001600160a01b038416906000907fddf252ad1be2c89b69c2b068fc378daa952ba7f163c4a11628f55a4df523b3ef908290a45050565b60608161195d57506040805180820190915260018152600360fc1b6020820152610853565b8160005b811561197557600101600a82049150611961565b60608167ffffffffffffffff8111801561198e57600080fd5b506040519080825280601f01601f1916602001820160405280156119b9576020820181803683370190505b50905060001982015b8515611a0757600a860660300160f81b828280600190039350815181106119e557fe5b60200101906001600160f81b031916908160001a905350600a860495506119c2565b50949350505050565b611a1982611584565b611a545760405162461bcd60e51b815260040180806020018281038252602c8152602001806126ef602c913960400191505060405180910390fd5b60008281526008602090815260409091208251610a2692840190612490565b6000611a7e82610cad565b9050611a8c81600084610a26565b611a97600083611595565b6000828152600860205260409020546002600019610100600184161502019091160415611ad5576000828152600860205260408120611ad59161251c565b6001600160a01b0381166000908152600160205260409020611af79083611d20565b50611b03600283611db2565b5060405182906000906001600160a01b038416907fddf252ad1be2c89b69c2b068fc378daa952ba7f163c4a11628f55a4df523b3ef908390a45050565b6000808080611b4f8686611dbe565b9097909650945050505050565b60006116aa848484611e39565b8051611b7c906009906020840190612490565b5050565b611b8a838361180a565b611b976000848484611f03565b610a265760405162461bcd60e51b81526004018080602001828103825260328152602001806125946032913960400191505060405180910390fd5b611b7c828260405180602001604052806000815250611b80565b611bf78484846116b2565b611c0384848484611f03565b6112cd5760405162461bcd60e51b81526004018080602001828103825260328152602001806125946032913960400191505060405180910390fd5b606081611c6357506040805180820190915260018152600360fc1b6020820152610853565b8160005b8115611c7b57600101600a82049150611c67565b60608167ffffffffffffffff81118015611c9457600080fd5b506040519080825280601f01601f191660200182016040528015611cbf576020820181803683370190505b50859350905060001982015b8315611a0757600a840660300160f81b82828060019003935081518110611cee57fe5b60200101906001600160f81b031916908160001a905350600a84049350611ccb565b6000610ac4838361206b565b5490565b6000610ac48383612083565b6000610ac48383612149565b60006116aa84846001600160a01b038516612193565b81546000908210611d905760405162461bcd60e51b81526004018080602001828103825260228152602001806125726022913960400191505060405180910390fd5b826000018281548110611d9f57fe5b9060005260206000200154905092915050565b6000610ac4838361222a565b815460009081908310611e025760405162461bcd60e51b81526004018080602001828103825260228152602001806126a16022913960400191505060405180910390fd5b6000846000018481548110611e1357fe5b906000526020600020906002020190508060000154816001015492509250509250929050565b60008281526001840160205260408120548281611ed45760405162461bcd60e51b81526004018080602001828103825283818151815260200191508051906020019080838360005b83811015611e99578181015183820152602001611e81565b50505050905090810190601f168015611ec65780820380516001836020036101000a031916815260200191505b509250505060405180910390fd5b50846000016001820381548110611ee757fe5b9060005260206000209060020201600101549150509392505050565b6000611f17846001600160a01b03166122fe565b611f23575060016116aa565b6060612031630a85bd0160e11b611f38611591565b88878760405160240180856001600160a01b03168152602001846001600160a01b0316815260200183815260200180602001828103825283818151815260200191508051906020019080838360005b83811015611f9f578181015183820152602001611f87565b50505050905090810190601f168015611fcc5780820380516001836020036101000a031916815260200191505b5095505050505050604051602081830303815290604052906001600160e01b0319166020820180516001600160e01b038381831617835250505050604051806060016040528060328152602001612594603291396001600160a01b0388169190612304565b9050600081806020019051602081101561204a57600080fd5b50516001600160e01b031916630a85bd0160e11b1492505050949350505050565b60009081526001919091016020526040902054151590565b6000818152600183016020526040812054801561213f57835460001980830191908101906000908790839081106120b657fe5b90600052602060002001549050808760000184815481106120d357fe5b60009182526020808320909101929092558281526001898101909252604090209084019055865487908061210357fe5b60019003818190600052602060002001600090559055866001016000878152602001908152602001600020600090556001945050505050610ac7565b6000915050610ac7565b6000612155838361206b565b61218b57508154600181810184556000848152602080822090930184905584548482528286019093526040902091909155610ac7565b506000610ac7565b6000828152600184016020526040812054806121f8575050604080518082018252838152602080820184815286546001818101895560008981528481209551600290930290950191825591519082015586548684528188019092529290912055610f35565b8285600001600183038154811061220b57fe5b9060005260206000209060020201600101819055506000915050610f35565b6000818152600183016020526040812054801561213f578354600019808301919081019060009087908390811061225d57fe5b906000526020600020906002020190508087600001848154811061227d57fe5b6000918252602080832084546002909302019182556001938401549184019190915583548252898301905260409020908401905586548790806122bc57fe5b6000828152602080822060026000199094019384020182815560019081018390559290935588815289820190925260408220919091559450610ac79350505050565b3b151590565b60606116aa848460008585612318856122fe565b612369576040805162461bcd60e51b815260206004820152601d60248201527f416464726573733a2063616c6c20746f206e6f6e2d636f6e7472616374000000604482015290519081900360640190fd5b60006060866001600160a01b031685876040518082805190602001908083835b602083106123a85780518252601f199092019160209182019101612389565b6001836020036101000a03801982511681845116808217855250505050505090500191505060006040518083038185875af1925050503d806000811461240a576040519150601f19603f3d011682016040523d82523d6000602084013e61240f565b606091505b509150915061241f82828661242a565b979650505050505050565b60608315612439575081610f35565b8251156124495782518084602001fd5b60405162461bcd60e51b8152602060048201818152845160248401528451859391928392604401919085019080838360008315611e99578181015183820152602001611e81565b828054600181600116156101000203166002900490600052602060002090601f0160209004810192826124c6576000855561250c565b82601f106124df57805160ff191683800117855561250c565b8280016001018555821561250c579182015b8281111561250c5782518255916020019190600101906124f1565b5061251892915061255c565b5090565b50805460018160011615610100020316600290046000825580601f106125425750610c94565b601f016020900490600052602060002090810190610c9491905b5b80821115612518576000815560010161255d56fe456e756d657261626c655365743a20696e646578206f7574206f6620626f756e64734552433732313a207472616e7366657220746f206e6f6e20455243373231526563656976657220696d706c656d656e7465724552433732313a207472616e7366657220746f20746865207a65726f20616464726573734552433732313a206f70657261746f7220717565727920666f72206e6f6e6578697374656e7420746f6b656e4552433732313a20617070726f76652063616c6c6572206973206e6f74206f776e6572206e6f7220617070726f76656420666f7220616c6c4552433732313a2062616c616e636520717565727920666f7220746865207a65726f20616464726573734552433732313a206f776e657220717565727920666f72206e6f6e6578697374656e7420746f6b656e456e756d657261626c654d61703a20696e646578206f7574206f6620626f756e64734552433732313a20617070726f76656420717565727920666f72206e6f6e6578697374656e7420746f6b656e4552433732314d657461646174613a2055524920736574206f66206e6f6e6578697374656e7420746f6b656e4552433732313a207472616e73666572206f6620746f6b656e2074686174206973206e6f74206f776e4552433732314d657461646174613a2055524920717565727920666f72206e6f6e6578697374656e7420746f6b656e4552433732313a20617070726f76616c20746f2063757272656e74206f776e65724552433732313a207472616e736665722063616c6c6572206973206e6f74206f776e6572206e6f7220617070726f766564a26469706673582212207c82bf8fbb70ce375a1ddc11f9a03a16d10058f0fd0489fd965b8c6e83e74dca64736f6c63430007040033",
  "immutableReferences": {},
  "source": "// SPDX-License-Identifier: MIT\r\npragma solidity ^0.7.4;\r\n\r\nimport \"@openzeppelin/contracts/token/ERC721/ERC721.sol\";\r\n\r\nimport \"../library/Governance.sol\";\r\nimport \"../library/CitizenUtil.sol\";\r\n\r\ncontract NftAsset is ERC721, Governance {\r\n    // for minters\r\n    mapping(address => bool) public _minters;\r\n\r\n    constructor() ERC721(\"citizen finance\", \"ASSET\") {\r\n        _setBaseURI(\"https://api.arvrse.co/asset/\");\r\n    }\r\n\r\n    function setURIPrefix(string memory baseURI) public onlyGovernance {\r\n        _setBaseURI(baseURI);\r\n    }\r\n\r\n    /**\r\n     * @dev Function to mint tokens.\r\n     * @param to The address that will receive the minted token.\r\n     * @param tokenId The token id to mint.\r\n     * @return A boolean that indicates if the operation was successful.\r\n     */\r\n    function mint(address to, uint256 tokenId) external returns (bool) {\r\n        require(_minters[msg.sender], \"!minter\");\r\n        _mint(to, tokenId);\r\n        _setTokenURI(tokenId, CitizenUtil.uintToString(tokenId));\r\n        return true;\r\n    }\r\n\r\n    /**\r\n     * @dev Function to safely mint tokens.\r\n     * @param to The address that will receive the minted token.\r\n     * @param tokenId The token id to mint.\r\n     * @return A boolean that indicates if the operation was successful.\r\n     */\r\n    function safeMint(address to, uint256 tokenId) public returns (bool) {\r\n        require(_minters[msg.sender], \"!minter\");\r\n        _safeMint(to, tokenId);\r\n        _setTokenURI(tokenId, CitizenUtil.uintToString(tokenId));\r\n        return true;\r\n    }\r\n\r\n    /**\r\n     * @dev Function to safely mint tokens.\r\n     * @param to The address that will receive the minted token.\r\n     * @param tokenId The token id to mint.\r\n     * @param _data bytes data to send along with a safe transfer check.\r\n     * @return A boolean that indicates if the operation was successful.\r\n     */\r\n    function safeMint(\r\n        address to,\r\n        uint256 tokenId,\r\n        bytes memory _data\r\n    ) public returns (bool) {\r\n        require(_minters[msg.sender], \"!minter\");\r\n        _safeMint(to, tokenId, _data);\r\n        _setTokenURI(tokenId, CitizenUtil.uintToString(tokenId));\r\n        return true;\r\n    }\r\n\r\n    function addMinter(address minter) public onlyGovernance {\r\n        _minters[minter] = true;\r\n    }\r\n\r\n    function removeMinter(address minter) public onlyGovernance {\r\n        _minters[minter] = false;\r\n    }\r\n\r\n    /**\r\n     * @dev Burns a specific ERC721 token.\r\n     * @param tokenId uint256 id of the ERC721 token to be burned.\r\n     */\r\n    function burn(uint256 tokenId) external {\r\n        //solhint-disable-next-line max-line-length\r\n        require(_minters[msg.sender], \"!minter\");\r\n        require(\r\n            _isApprovedOrOwner(_msgSender(), tokenId),\r\n            \"caller is not owner nor approved\"\r\n        );\r\n        _burn(tokenId);\r\n    }\r\n\r\n    /**\r\n     * @dev Gets the list of token IDs of the requested owner.\r\n     * @param owner address owning the tokens\r\n     * @return uint256[] List of token IDs owned by the requested address\r\n     */\r\n    function tokensOfOwner(address owner)\r\n        public\r\n        view\r\n        returns (uint256[] memory)\r\n    {\r\n        require(owner != address(0), \"invalid owner\");\r\n        uint256 length = balanceOf(owner);\r\n        uint256[] memory tokens = new uint256[](length);\r\n        for (uint256 i = 0; i < length; i++) {\r\n            tokens[i] = tokenOfOwnerByIndex(owner, i);\r\n        }\r\n        return tokens;\r\n    }\r\n}\r\n",
  "sourcePath": "F:\\citizen\\santafeapp\\src\\contracts\\nft\\NftAsset.sol",
  "compiler": {
    "name": "solc",
    "version": "0.7.4+commit.3f05b770.Emscripten.clang"
  },
  "schemaVersion": "3.4.2",
  "updatedAt": "2021-08-16T15:36:25.682Z",
  "devdoc": {
    "kind": "dev",
    "methods": {
      "approve(address,uint256)": {
        "details": "See {IERC721-approve}."
      },
      "balanceOf(address)": {
        "details": "See {IERC721-balanceOf}."
      },
      "baseURI()": {
        "details": "Returns the base URI set via {_setBaseURI}. This will be automatically added as a prefix in {tokenURI} to each token's URI, or to the token ID if no specific URI is set for that token ID."
      },
      "burn(uint256)": {
        "details": "Burns a specific ERC721 token.",
        "params": {
          "tokenId": "uint256 id of the ERC721 token to be burned."
        }
      },
      "getApproved(uint256)": {
        "details": "See {IERC721-getApproved}."
      },
      "isApprovedForAll(address,address)": {
        "details": "See {IERC721-isApprovedForAll}."
      },
      "mint(address,uint256)": {
        "details": "Function to mint tokens.",
        "params": {
          "to": "The address that will receive the minted token.",
          "tokenId": "The token id to mint."
        },
        "returns": {
          "_0": "A boolean that indicates if the operation was successful."
        }
      },
      "name()": {
        "details": "See {IERC721Metadata-name}."
      },
      "ownerOf(uint256)": {
        "details": "See {IERC721-ownerOf}."
      },
      "safeMint(address,uint256)": {
        "details": "Function to safely mint tokens.",
        "params": {
          "to": "The address that will receive the minted token.",
          "tokenId": "The token id to mint."
        },
        "returns": {
          "_0": "A boolean that indicates if the operation was successful."
        }
      },
      "safeMint(address,uint256,bytes)": {
        "details": "Function to safely mint tokens.",
        "params": {
          "_data": "bytes data to send along with a safe transfer check.",
          "to": "The address that will receive the minted token.",
          "tokenId": "The token id to mint."
        },
        "returns": {
          "_0": "A boolean that indicates if the operation was successful."
        }
      },
      "safeTransferFrom(address,address,uint256)": {
        "details": "See {IERC721-safeTransferFrom}."
      },
      "safeTransferFrom(address,address,uint256,bytes)": {
        "details": "See {IERC721-safeTransferFrom}."
      },
      "setApprovalForAll(address,bool)": {
        "details": "See {IERC721-setApprovalForAll}."
      },
      "supportsInterface(bytes4)": {
        "details": "See {IERC165-supportsInterface}. Time complexity O(1), guaranteed to always use less than 30 000 gas."
      },
      "symbol()": {
        "details": "See {IERC721Metadata-symbol}."
      },
      "tokenByIndex(uint256)": {
        "details": "See {IERC721Enumerable-tokenByIndex}."
      },
      "tokenOfOwnerByIndex(address,uint256)": {
        "details": "See {IERC721Enumerable-tokenOfOwnerByIndex}."
      },
      "tokenURI(uint256)": {
        "details": "See {IERC721Metadata-tokenURI}."
      },
      "tokensOfOwner(address)": {
        "details": "Gets the list of token IDs of the requested owner.",
        "params": {
          "owner": "address owning the tokens"
        },
        "returns": {
          "_0": "uint256[] List of token IDs owned by the requested address"
        }
      },
      "totalSupply()": {
        "details": "See {IERC721Enumerable-totalSupply}."
      },
      "transferFrom(address,address,uint256)": {
        "details": "See {IERC721-transferFrom}."
      }
    },
    "version": 1
  },
  "userdoc": {
    "kind": "user",
    "methods": {},
    "version": 1
  }
}