{
  "contractName": "NftStakingV2",
  "abi": [
    {
      "inputs": [
        {
          "internalType": "address",
          "name": "cifi",
          "type": "address"
        },
        {
          "internalType": "address",
          "name": "nftAsset",
          "type": "address"
        },
        {
          "internalType": "address",
          "name": "nftFactory",
          "type": "address"
        }
      ],
      "stateMutability": "nonpayable",
      "type": "constructor"
    },
    {
      "anonymous": false,
      "inputs": [
        {
          "indexed": true,
          "internalType": "address",
          "name": "previousOwner",
          "type": "address"
        },
        {
          "indexed": true,
          "internalType": "address",
          "name": "newOwner",
          "type": "address"
        }
      ],
      "name": "GovernanceTransferred",
      "type": "event"
    },
    {
      "anonymous": false,
      "inputs": [
        {
          "indexed": false,
          "internalType": "address",
          "name": "operator",
          "type": "address"
        },
        {
          "indexed": false,
          "internalType": "address",
          "name": "from",
          "type": "address"
        },
        {
          "indexed": false,
          "internalType": "uint256",
          "name": "tokenId",
          "type": "uint256"
        },
        {
          "indexed": false,
          "internalType": "bytes",
          "name": "data",
          "type": "bytes"
        }
      ],
      "name": "NFTReceived",
      "type": "event"
    },
    {
      "anonymous": false,
      "inputs": [
        {
          "indexed": false,
          "internalType": "uint256",
          "name": "reward",
          "type": "uint256"
        }
      ],
      "name": "RewardAdded",
      "type": "event"
    },
    {
      "anonymous": false,
      "inputs": [
        {
          "indexed": true,
          "internalType": "address",
          "name": "user",
          "type": "address"
        },
        {
          "indexed": false,
          "internalType": "uint256",
          "name": "reward",
          "type": "uint256"
        }
      ],
      "name": "RewardPaid",
      "type": "event"
    },
    {
      "anonymous": false,
      "inputs": [
        {
          "indexed": true,
          "internalType": "address",
          "name": "user",
          "type": "address"
        },
        {
          "indexed": false,
          "internalType": "uint256",
          "name": "amount",
          "type": "uint256"
        }
      ],
      "name": "StakedNFT",
      "type": "event"
    },
    {
      "anonymous": false,
      "inputs": [
        {
          "indexed": true,
          "internalType": "address",
          "name": "user",
          "type": "address"
        },
        {
          "indexed": false,
          "internalType": "uint256",
          "name": "amount",
          "type": "uint256"
        }
      ],
      "name": "WithdrawnNFT",
      "type": "event"
    },
    {
      "inputs": [],
      "name": "_baseRate",
      "outputs": [
        {
          "internalType": "uint256",
          "name": "",
          "type": "uint256"
        }
      ],
      "stateMutability": "view",
      "type": "function",
      "constant": true
    },
    {
      "inputs": [],
      "name": "_cifi",
      "outputs": [
        {
          "internalType": "contract ICifi_Token",
          "name": "",
          "type": "address"
        }
      ],
      "stateMutability": "view",
      "type": "function",
      "constant": true
    },
    {
      "inputs": [
        {
          "internalType": "address",
          "name": "",
          "type": "address"
        }
      ],
      "name": "_faceValues",
      "outputs": [
        {
          "internalType": "uint256",
          "name": "",
          "type": "uint256"
        }
      ],
      "stateMutability": "view",
      "type": "function",
      "constant": true
    },
    {
      "inputs": [],
      "name": "_fixRateBase",
      "outputs": [
        {
          "internalType": "uint256",
          "name": "",
          "type": "uint256"
        }
      ],
      "stateMutability": "view",
      "type": "function",
      "constant": true
    },
    {
      "inputs": [],
      "name": "_governance",
      "outputs": [
        {
          "internalType": "address",
          "name": "",
          "type": "address"
        }
      ],
      "stateMutability": "view",
      "type": "function",
      "constant": true
    },
    {
      "inputs": [],
      "name": "_hasStart",
      "outputs": [
        {
          "internalType": "bool",
          "name": "",
          "type": "bool"
        }
      ],
      "stateMutability": "view",
      "type": "function",
      "constant": true
    },
    {
      "inputs": [],
      "name": "_initReward",
      "outputs": [
        {
          "internalType": "uint256",
          "name": "",
          "type": "uint256"
        }
      ],
      "stateMutability": "view",
      "type": "function",
      "constant": true
    },
    {
      "inputs": [
        {
          "internalType": "address",
          "name": "",
          "type": "address"
        }
      ],
      "name": "_lastStakedTime",
      "outputs": [
        {
          "internalType": "uint256",
          "name": "",
          "type": "uint256"
        }
      ],
      "stateMutability": "view",
      "type": "function",
      "constant": true
    },
    {
      "inputs": [],
      "name": "_lastUpdateTime",
      "outputs": [
        {
          "internalType": "uint256",
          "name": "",
          "type": "uint256"
        }
      ],
      "stateMutability": "view",
      "type": "function",
      "constant": true
    },
    {
      "inputs": [],
      "name": "_maxStakedCifi",
      "outputs": [
        {
          "internalType": "uint256",
          "name": "",
          "type": "uint256"
        }
      ],
      "stateMutability": "view",
      "type": "function",
      "constant": true
    },
    {
      "inputs": [],
      "name": "_nftAsset",
      "outputs": [
        {
          "internalType": "contract INftAsset",
          "name": "",
          "type": "address"
        }
      ],
      "stateMutability": "view",
      "type": "function",
      "constant": true
    },
    {
      "inputs": [],
      "name": "_nftFactory",
      "outputs": [
        {
          "internalType": "contract INftFactory",
          "name": "",
          "type": "address"
        }
      ],
      "stateMutability": "view",
      "type": "function",
      "constant": true
    },
    {
      "inputs": [
        {
          "internalType": "uint256",
          "name": "",
          "type": "uint256"
        }
      ],
      "name": "_nftMapIndex",
      "outputs": [
        {
          "internalType": "uint256",
          "name": "",
          "type": "uint256"
        }
      ],
      "stateMutability": "view",
      "type": "function",
      "constant": true
    },
    {
      "inputs": [],
      "name": "_penaltyRate",
      "outputs": [
        {
          "internalType": "uint256",
          "name": "",
          "type": "uint256"
        }
      ],
      "stateMutability": "view",
      "type": "function",
      "constant": true
    },
    {
      "inputs": [
        {
          "internalType": "address",
          "name": "",
          "type": "address"
        }
      ],
      "name": "_powaBalances",
      "outputs": [
        {
          "internalType": "uint256",
          "name": "",
          "type": "uint256"
        }
      ],
      "stateMutability": "view",
      "type": "function",
      "constant": true
    },
    {
      "inputs": [
        {
          "internalType": "uint256",
          "name": "",
          "type": "uint256"
        }
      ],
      "name": "_powas",
      "outputs": [
        {
          "internalType": "uint256",
          "name": "",
          "type": "uint256"
        }
      ],
      "stateMutability": "view",
      "type": "function",
      "constant": true
    },
    {
      "inputs": [],
      "name": "_punishTime",
      "outputs": [
        {
          "internalType": "uint256",
          "name": "",
          "type": "uint256"
        }
      ],
      "stateMutability": "view",
      "type": "function",
      "constant": true
    },
    {
      "inputs": [],
      "name": "_rewardPerTokenStored",
      "outputs": [
        {
          "internalType": "uint256",
          "name": "",
          "type": "uint256"
        }
      ],
      "stateMutability": "view",
      "type": "function",
      "constant": true
    },
    {
      "inputs": [],
      "name": "_rewardRate",
      "outputs": [
        {
          "internalType": "uint256",
          "name": "",
          "type": "uint256"
        }
      ],
      "stateMutability": "view",
      "type": "function",
      "constant": true
    },
    {
      "inputs": [
        {
          "internalType": "address",
          "name": "",
          "type": "address"
        }
      ],
      "name": "_rewards",
      "outputs": [
        {
          "internalType": "uint256",
          "name": "",
          "type": "uint256"
        }
      ],
      "stateMutability": "view",
      "type": "function",
      "constant": true
    },
    {
      "inputs": [
        {
          "internalType": "uint256",
          "name": "",
          "type": "uint256"
        }
      ],
      "name": "_stakeBalances",
      "outputs": [
        {
          "internalType": "uint256",
          "name": "",
          "type": "uint256"
        }
      ],
      "stateMutability": "view",
      "type": "function",
      "constant": true
    },
    {
      "inputs": [],
      "name": "_stakingPowaBase",
      "outputs": [
        {
          "internalType": "uint256",
          "name": "",
          "type": "uint256"
        }
      ],
      "stateMutability": "view",
      "type": "function",
      "constant": true
    },
    {
      "inputs": [],
      "name": "_startTime",
      "outputs": [
        {
          "internalType": "uint256",
          "name": "",
          "type": "uint256"
        }
      ],
      "stateMutability": "view",
      "type": "function",
      "constant": true
    },
    {
      "inputs": [
        {
          "internalType": "address",
          "name": "",
          "type": "address"
        },
        {
          "internalType": "uint256",
          "name": "",
          "type": "uint256"
        }
      ],
      "name": "_tokensOfUser",
      "outputs": [
        {
          "internalType": "uint256",
          "name": "",
          "type": "uint256"
        }
      ],
      "stateMutability": "view",
      "type": "function",
      "constant": true
    },
    {
      "inputs": [],
      "name": "_totalBalance",
      "outputs": [
        {
          "internalType": "uint256",
          "name": "",
          "type": "uint256"
        }
      ],
      "stateMutability": "view",
      "type": "function",
      "constant": true
    },
    {
      "inputs": [],
      "name": "_totalPowa",
      "outputs": [
        {
          "internalType": "uint256",
          "name": "",
          "type": "uint256"
        }
      ],
      "stateMutability": "view",
      "type": "function",
      "constant": true
    },
    {
      "inputs": [
        {
          "internalType": "address",
          "name": "",
          "type": "address"
        }
      ],
      "name": "_userRewardPerTokenPaid",
      "outputs": [
        {
          "internalType": "uint256",
          "name": "",
          "type": "uint256"
        }
      ],
      "stateMutability": "view",
      "type": "function",
      "constant": true
    },
    {
      "inputs": [
        {
          "internalType": "address",
          "name": "governance",
          "type": "address"
        }
      ],
      "name": "setGovernance",
      "outputs": [],
      "stateMutability": "nonpayable",
      "type": "function"
    },
    {
      "inputs": [
        {
          "internalType": "uint256",
          "name": "amount",
          "type": "uint256"
        }
      ],
      "name": "setMaxStakedCifi",
      "outputs": [],
      "stateMutability": "nonpayable",
      "type": "function"
    },
    {
      "inputs": [
        {
          "internalType": "contract ICifi_Token",
          "name": "token",
          "type": "address"
        },
        {
          "internalType": "uint256",
          "name": "amount",
          "type": "uint256"
        }
      ],
      "name": "seize",
      "outputs": [],
      "stateMutability": "nonpayable",
      "type": "function"
    },
    {
      "inputs": [
        {
          "internalType": "contract IERC721",
          "name": "token",
          "type": "address"
        },
        {
          "internalType": "uint256",
          "name": "tokenId",
          "type": "uint256"
        }
      ],
      "name": "seizeErc721",
      "outputs": [],
      "stateMutability": "nonpayable",
      "type": "function"
    },
    {
      "inputs": [],
      "name": "rewardPerToken",
      "outputs": [
        {
          "internalType": "uint256",
          "name": "",
          "type": "uint256"
        }
      ],
      "stateMutability": "view",
      "type": "function",
      "constant": true
    },
    {
      "inputs": [
        {
          "internalType": "address",
          "name": "account",
          "type": "address"
        }
      ],
      "name": "earned",
      "outputs": [
        {
          "internalType": "uint256",
          "name": "",
          "type": "uint256"
        }
      ],
      "stateMutability": "view",
      "type": "function",
      "constant": true
    },
    {
      "inputs": [
        {
          "internalType": "uint256",
          "name": "class",
          "type": "uint256"
        },
        {
          "internalType": "uint256",
          "name": "stakingPowa",
          "type": "uint256"
        }
      ],
      "name": "getMiningPowa",
      "outputs": [
        {
          "internalType": "uint256",
          "name": "",
          "type": "uint256"
        }
      ],
      "stateMutability": "pure",
      "type": "function",
      "constant": true
    },
    {
      "inputs": [
        {
          "internalType": "uint256",
          "name": "stakingPowa",
          "type": "uint256"
        }
      ],
      "name": "getClass",
      "outputs": [
        {
          "internalType": "uint256",
          "name": "",
          "type": "uint256"
        }
      ],
      "stateMutability": "view",
      "type": "function",
      "constant": true
    },
    {
      "inputs": [
        {
          "internalType": "uint256",
          "name": "nftId",
          "type": "uint256"
        },
        {
          "internalType": "uint256",
          "name": "stakingPowa",
          "type": "uint256"
        }
      ],
      "name": "stakeNFT",
      "outputs": [],
      "stateMutability": "nonpayable",
      "type": "function"
    },
    {
      "inputs": [
        {
          "internalType": "address",
          "name": "operator",
          "type": "address"
        },
        {
          "internalType": "address",
          "name": "from",
          "type": "address"
        },
        {
          "internalType": "uint256",
          "name": "tokenId",
          "type": "uint256"
        },
        {
          "internalType": "bytes",
          "name": "data",
          "type": "bytes"
        }
      ],
      "name": "onERC721Received",
      "outputs": [
        {
          "internalType": "bytes4",
          "name": "",
          "type": "bytes4"
        }
      ],
      "stateMutability": "nonpayable",
      "type": "function"
    },
    {
      "inputs": [
        {
          "internalType": "uint256",
          "name": "nftId",
          "type": "uint256"
        }
      ],
      "name": "withdrawNFT",
      "outputs": [],
      "stateMutability": "nonpayable",
      "type": "function"
    },
    {
      "inputs": [],
      "name": "withdraw",
      "outputs": [],
      "stateMutability": "nonpayable",
      "type": "function"
    },
    {
      "inputs": [
        {
          "internalType": "address",
          "name": "account",
          "type": "address"
        }
      ],
      "name": "getNftIds",
      "outputs": [
        {
          "internalType": "uint256[]",
          "name": "nftIds",
          "type": "uint256[]"
        }
      ],
      "stateMutability": "view",
      "type": "function",
      "constant": true
    },
    {
      "inputs": [],
      "name": "exit",
      "outputs": [],
      "stateMutability": "nonpayable",
      "type": "function"
    },
    {
      "inputs": [],
      "name": "getReward",
      "outputs": [],
      "stateMutability": "nonpayable",
      "type": "function"
    },
    {
      "inputs": [],
      "name": "startNFTReward",
      "outputs": [],
      "stateMutability": "nonpayable",
      "type": "function"
    },
    {
      "inputs": [
        {
          "internalType": "uint256",
          "name": "penaltyRate",
          "type": "uint256"
        }
      ],
      "name": "setPenaltyRate",
      "outputs": [],
      "stateMutability": "nonpayable",
      "type": "function"
    },
    {
      "inputs": [],
      "name": "totalPowa",
      "outputs": [
        {
          "internalType": "uint256",
          "name": "",
          "type": "uint256"
        }
      ],
      "stateMutability": "view",
      "type": "function",
      "constant": true
    },
    {
      "inputs": [
        {
          "internalType": "address",
          "name": "account",
          "type": "address"
        }
      ],
      "name": "balanceOf",
      "outputs": [
        {
          "internalType": "uint256",
          "name": "",
          "type": "uint256"
        }
      ],
      "stateMutability": "view",
      "type": "function",
      "constant": true
    },
    {
      "inputs": [
        {
          "internalType": "uint256",
          "name": "punishTime",
          "type": "uint256"
        }
      ],
      "name": "setWithDrawPunishTime",
      "outputs": [],
      "stateMutability": "nonpayable",
      "type": "function"
    }
  ],
  "bytecode": "0x6080604052600180546001600160a01b03199081169091556002805482169055600380549091169055682086ac3510526000006004556301e13380420160055560006006556101f4600955612710600a81905562093a80600b55600f805460ff191690556010819055601155681b1ae4d6e2ef50000060185534801561008457600080fd5b50604051612264380380612264833981810160405260608110156100a757600080fd5b5080516020820151604090920151600080546001600160a01b03199081163217909155600180546001600160a01b0394851690831617905560028054948416948216949094179093556003805492909116919092161790556121568061010e6000396000f3fe608060405234801561001057600080fd5b50600436106102945760003560e01c806370a0823111610167578063c47b5b77116100ce578063e9fad8ee11610087578063e9fad8ee14610754578063eb9253c01461075c578063fa1acb5c14610788578063fdd0499f14610790578063ff0123ef146107b3578063ffd832c1146107d057610294565b8063c47b5b771461068d578063cd3daf9d14610695578063d060a67c1461069d578063dc09930114610713578063e45a98dd14610730578063e70391ab1461074c57610294565b80639a6b25a3116101205780639a6b25a3146105dc5780639dec91fe146105f95780639f3fbd2b14610616578063a1bab4471461061e578063ab033ea91461063b578063c459aa3b1461066157610294565b806370a08231146105705780637d6dfb7e1461059657806388d7dfd7146105bc578063893ff639146105c45780638e26b01e146105cc578063927b26b9146105d457610294565b8063252f7b491161020b57806351cecc80116101c457806351cecc80146104d457806353393e35146104f757806356728e9d1461051457806365d82b8a1461053a57806368fd25cd146105605780636adafab51461056857610294565b8063252f7b49146104715780633a485c23146104795780633ccfd60b146104815780633d18b912146104895780633f4e379814610491578063512d62df146104b757610294565b8063150b7a021161025d578063150b7a02146103245780631580db911461040757806319e3e6ea1461040f5780631c2f3e3d1461041757806323343e681461041f57806324c5f05e1461044557610294565b80628cc26214610299578063023245d7146102d157806310756424146102f0578063121544b9146102f857806312c0583514610300575b600080fd5b6102bf600480360360208110156102af57600080fd5b50356001600160a01b03166107d8565b60408051918252519081900360200190f35b6102ee600480360360208110156102e757600080fd5b5035610848565b005b6102ee610c90565b6102bf610e43565b610308610e49565b604080516001600160a01b039092168252519081900360200190f35b6103ea6004803603608081101561033a57600080fd5b6001600160a01b0382358116926020810135909116916040820135919081019060808101606082013564010000000081111561037557600080fd5b82018360208201111561038757600080fd5b803590602001918460018302840111640100000000831117156103a957600080fd5b91908080601f016020809104026020016040519081016040528093929190818152602001838380828437600092019190915250929550610e58945050505050565b604080516001600160e01b03199092168252519081900360200190f35b6102bf610f5b565b6102bf610f61565b610308610f67565b6102bf6004803603602081101561043557600080fd5b50356001600160a01b0316610f76565b6102ee6004803603604081101561045b57600080fd5b506001600160a01b038135169060200135610f88565b6102bf611049565b6102bf61104f565b6102ee611055565b6102ee611198565b6102bf600480360360208110156104a757600080fd5b50356001600160a01b03166113a6565b6102bf600480360360208110156104cd57600080fd5b50356113b8565b6102ee600480360360408110156104ea57600080fd5b508035906020013561153e565b6102ee6004803603602081101561050d57600080fd5b5035611897565b6102bf6004803603602081101561052a57600080fd5b50356001600160a01b03166118ec565b6102bf6004803603602081101561055057600080fd5b50356001600160a01b03166118fe565b6102bf611910565b6102bf611916565b6102bf6004803603602081101561058657600080fd5b50356001600160a01b031661191c565b6102bf600480360360208110156105ac57600080fd5b50356001600160a01b0316611937565b610308611949565b6102bf611958565b6102bf61195f565b6102bf611965565b6102ee600480360360208110156105f257600080fd5b503561196b565b6102bf6004803603602081101561060f57600080fd5b50356119c0565b6102bf6119d2565b6102ee6004803603602081101561063457600080fd5b50356119d8565b6102ee6004803603602081101561065157600080fd5b50356001600160a01b0316611a2d565b6102bf6004803603604081101561067757600080fd5b506001600160a01b038135169060200135611b33565b610308611b64565b6102bf611b73565b6106c3600480360360208110156106b357600080fd5b50356001600160a01b0316611bcd565b60408051602080825283518183015283519192839290830191858101910280838360005b838110156106ff5781810151838201526020016106e7565b505050509050019250505060405180910390f35b6102bf6004803603602081101561072957600080fd5b5035611c39565b610738611c4b565b604080519115158252519081900360200190f35b6102bf611c54565b6102ee611c5a565b6102ee6004803603604081101561077257600080fd5b506001600160a01b038135169060200135611c6c565b6102bf611d8f565b6102bf600480360360408110156107a657600080fd5b5080359060200135611d95565b6102bf600480360360208110156107c957600080fd5b5035611f09565b6102bf611f1b565b6001600160a01b0381166000908152600d6020908152604080832054600c909252822054610840919061083a90670de0b6b3a764000090610834906108259061081f611b73565b90611f21565b61082e8861191c565b90611f7e565b90611fde565b90612045565b90505b919050565b33610851611b73565b600855426007556001600160a01b0381161561089c57610870816107d8565b6001600160a01b0382166000908152600d6020908152604080832093909355600854600c909152919020555b600f5460ff1615156001146108e6576040805162461bcd60e51b815260206004820152600b60248201526a1b9bdd081cdd185c9d195960aa1b604482015290519081900360640190fd5b6005544211610928576040805162461bcd60e51b81526020600482015260096024820152681b9bdd081cdd185c9d60ba1b604482015290519081900360640190fd5b6000821161096f576040805162461bcd60e51b815260206004820152600f60248201526e3a34329037333a24b21032b93937b960891b604482015290519081900360640190fd5b336000908152601960209081526040918290208054835181840281018401909452808452606093928301828280156109c657602002820191906000526020600020905b8154815260200190600101908083116109b2575b5050506000868152601a6020526040902054835193945092869250849150839081106109ee57fe5b602002602001015114610a3a576040805162461bcd60e51b815260206004820152600f60248201526e3737ba1037333a24b21037bbb732b960891b604482015290519081900360640190fd5b6060600183510367ffffffffffffffff81118015610a5757600080fd5b50604051908082528060200260200182016040528015610a81578160200160208202803683370190505b5090506000805b8451811015610b115786858281518110610a9e57fe5b602002602001015114610b095781601a6000878481518110610abc57fe5b6020026020010151815260200190815260200160002081905550848181518110610ae257fe5b6020026020010151838380600101945081518110610afc57fe5b6020026020010181815250505b600101610a88565b503360009081526019602090815260409091208351610b329285019061209f565b50600086815260146020908152604080832054338452601390925290912054610b5b9082611f21565b33600090815260136020526040902055601254610b789082611f21565b601255600087815260156020908152604080832054338452601790925290912054610ba39082611f21565b33600090815260176020526040902055601654610bc09082611f21565b60165560025460408051632142170760e11b8152306004820152336024820152604481018b905290516001600160a01b03909216916342842e0e9160648082019260009290919082900301818387803b158015610c1c57600080fd5b505af1158015610c30573d6000803e3d6000fd5b5050506000898152601560209081526040808320839055601482528083209290925581518b815291513393507f6f5ff198710d7a701fdb597ef28b78d66041e6d096918b8ccb5c6b8ef02da79f9281900390910190a25050505050505050565b6000546001600160a01b03163314610ce0576040805162461bcd60e51b815260206004820152600e60248201526d6e6f7420676f7665726e616e636560901b604482015290519081900360640190fd5b6000610cea611b73565b600855426007556001600160a01b03811615610d3557610d09816107d8565b6001600160a01b0382166000908152600d6020908152604080832093909355600854600c909152919020555b600f5460ff1615610d7b576040805162461bcd60e51b815260206004820152600b60248201526a1a185cc81cdd185c9d195960aa1b604482015290519081900360640190fd5b600f805460ff19166001908117909155426005556004805460068190559154604080516340c10f1960e01b81523093810193909352602483019390935291516001600160a01b03909216916340c10f199160448082019260009290919082900301818387803b158015610ded57600080fd5b505af1158015610e01573d6000803e3d6000fd5b5050600554600755505060045460408051918252517fde88a922e0d3b88b24e9623efeb464919c6bf9f66857a65e2bfcf2ce87a9433d9181900360200190a150565b60085481565b6001546001600160a01b031681565b600f5460009060ff16610e6d57506000610f53565b7f1d823cdc8f0514a95b53538df2d2f3deaf98d1c534c6e750daa593173c27f8f08585858560405180856001600160a01b03168152602001846001600160a01b0316815260200183815260200180602001828103825283818151815260200191508051906020019080838360005b83811015610ef3578181015183820152602001610edb565b50505050905090810190601f168015610f205780820380516001836020036101000a031916815260200191505b509550505050505060405180910390a1507f150b7a023d4804d13e8c85fb27262cb750cf6ba9f9dd3bb30d90f482ceeb4b1f5b949350505050565b60115481565b60095481565b6000546001600160a01b031681565b60136020526000908152604090205481565b6002546001600160a01b0383811691161415610fd7576040805162461bcd60e51b81526020600482015260096024820152686e6674207374616b6560b81b604482015290519081900360640190fd5b6000805460408051632142170760e11b81523060048201526001600160a01b039283166024820152604481018590529051918516926342842e0e9260648084019382900301818387803b15801561102d57600080fd5b505af1158015611041573d6000803e3d6000fd5b505050505050565b60165481565b60105481565b600f5460ff16151560011461109f576040805162461bcd60e51b815260206004820152600b60248201526a1b9bdd081cdd185c9d195960aa1b604482015290519081900360640190fd5b60055442116110e1576040805162461bcd60e51b81526020600482015260096024820152681b9bdd081cdd185c9d60ba1b604482015290519081900360640190fd5b3360009081526019602090815260409182902080548351818402810184019094528084526060939283018282801561113857602002820191906000526020600020905b815481526020019060010190808311611124575b5050505050905060005b81518160ff161015611194576000828260ff168151811061115f57fe5b6020026020010151111561118c5761118c828260ff168151811061117f57fe5b6020026020010151610848565b600101611142565b5050565b336111a1611b73565b600855426007556001600160a01b038116156111ec576111c0816107d8565b6001600160a01b0382166000908152600d6020908152604080832093909355600854600c909152919020555b600f5460ff161515600114611236576040805162461bcd60e51b815260206004820152600b60248201526a1b9bdd081cdd185c9d195960aa1b604482015290519081900360640190fd5b6005544211611278576040805162461bcd60e51b81526020600482015260096024820152681b9bdd081cdd185c9d60ba1b604482015290519081900360640190fd5b6000611283336107d8565b9050801561119457336000908152600d60209081526040808320839055600b54600e909252822054014210156112d1576112ce600a5461083460095485611f7e90919063ffffffff16565b90505b80156112e4576112e18282611f21565b91505b811561136b576001546040805163a9059cbb60e01b81523360048201526024810185905290516001600160a01b039092169163a9059cbb916044808201926020929091908290030181600087803b15801561133e57600080fd5b505af1158015611352573d6000803e3d6000fd5b505050506040513d602081101561136857600080fd5b50505b60408051838152905133917fe2403640ba68fed3a2f88b7557551d1993f84b99bb10ff833f0cf8db0c5e0486919081900360200190a2505050565b60176020526000908152604090205481565b60006113d76103e86108346101f4601154611f7e90919063ffffffff16565b8210156113e657506001610843565b816114046103e86108346101f4601154611f7e90919063ffffffff16565b1115801561142d575061142a6103e8610834610320601154611f7e90919063ffffffff16565b82105b1561143a57506002610843565b816114586103e8610834610320601154611f7e90919063ffffffff16565b11158015611481575061147e6103e8610834610384601154611f7e90919063ffffffff16565b82105b1561148e57506003610843565b816114ac6103e8610834610384601154611f7e90919063ffffffff16565b111580156114d557506114d26103e86108346103d4601154611f7e90919063ffffffff16565b82105b156114e257506004610843565b816115006103e86108346103d4601154611f7e90919063ffffffff16565b1115801561152957506115266103e86108346103e6601154611f7e90919063ffffffff16565b82105b1561153657506005610843565b506006610843565b33611547611b73565b600855426007556001600160a01b0381161561159257611566816107d8565b6001600160a01b0382166000908152600d6020908152604080832093909355600854600c909152919020555b600f5460ff1615156001146115dc576040805162461bcd60e51b815260206004820152600b60248201526a1b9bdd081cdd185c9d195960aa1b604482015290519081900360640190fd5b600554421161161e576040805162461bcd60e51b81526020600482015260096024820152681b9bdd081cdd185c9d60ba1b604482015290519081900360640190fd5b33600090815260196020908152604080832060035482516351a5689360e01b81526004810189905292519194936001600160a01b03909116926351a568939260248083019392829003018186803b15801561167857600080fd5b505afa15801561168c573d6000803e3d6000fd5b505050506040513d60208110156116a257600080fd5b50518254600181018455600084815260208082209092018890558454888252601a90925260408120600019909201909155909150806116e0866113b8565b90506116ec8187611d95565b336000908152601760205260408120546018549294509161170d8387612045565b1115611725576018546117209083611f21565b611727565b845b905080156117d357601054600090611743906108348785611f7e565b336000908152601760205260409020549091506117609083612045565b336000908152601760209081526040808320939093556013905220546117869082612045565b336000908152601360209081526040808320939093558c82526015815282822085905560149052208190556016546117be9083612045565b6016556012546117ce9082612045565b601255505b60025460408051632142170760e11b8152336004820152306024820152604481018c905290516001600160a01b03909216916342842e0e9160648082019260009290919082900301818387803b15801561182c57600080fd5b505af1158015611840573d6000803e3d6000fd5b5050336000818152600e602090815260409182902042905581518e815291519294507fa3a2f4924c244b65a4ecb0f6c615dc546a3510483f569d676ae4485f759d98d79350908290030190a2505050505050505050565b6000546001600160a01b031633146118e7576040805162461bcd60e51b815260206004820152600e60248201526d6e6f7420676f7665726e616e636560901b604482015290519081900360640190fd5b601855565b600e6020526000908152604090205481565b600c6020526000908152604090205481565b60065481565b60075481565b6001600160a01b031660009081526013602052604090205490565b600d6020526000908152604090205481565b6002546001600160a01b031681565b6012545b90565b60185481565b600a5481565b6000546001600160a01b031633146119bb576040805162461bcd60e51b815260206004820152600e60248201526d6e6f7420676f7665726e616e636560901b604482015290519081900360640190fd5b600b55565b601a6020526000908152604090205481565b600b5481565b6000546001600160a01b03163314611a28576040805162461bcd60e51b815260206004820152600e60248201526d6e6f7420676f7665726e616e636560901b604482015290519081900360640190fd5b600955565b6000546001600160a01b03163314611a7d576040805162461bcd60e51b815260206004820152600e60248201526d6e6f7420676f7665726e616e636560901b604482015290519081900360640190fd5b6001600160a01b038116611ad8576040805162461bcd60e51b815260206004820152601f60248201527f6e657720676f7665726e616e636520746865207a65726f206164647265737300604482015290519081900360640190fd5b600080546040516001600160a01b03808516939216917f5f56bee8cffbe9a78652a74a60705edede02af10b0bbb888ca44b79a0d42ce8091a3600080546001600160a01b0319166001600160a01b0392909216919091179055565b60196020528160005260406000208181548110611b4f57600080fd5b90600052602060002001600091509150505481565b6003546001600160a01b031681565b6000611b7d611958565b611b8a575060085461195c565b611bc8611bbf611b98611958565b610834670de0b6b3a764000061082e60065461082e60075442611f2190919063ffffffff16565b60085490612045565b905090565b6001600160a01b038116600090815260196020908152604091829020805483518184028101840190945280845260609392830182828015611c2d57602002820191906000526020600020905b815481526020019060010190808311611c19575b50505050509050919050565b60156020526000908152604090205481565b600f5460ff1681565b60125481565b611c62611055565b611c6a611198565b565b6000546001600160a01b03163314611cbc576040805162461bcd60e51b815260206004820152600e60248201526d6e6f7420676f7665726e616e636560901b604482015290519081900360640190fd5b6001546001600160a01b0383811691161415611d08576040805162461bcd60e51b81526020600482015260066024820152651c995dd85c9960d21b604482015290519081900360640190fd5b600080546040805163a9059cbb60e01b81526001600160a01b0392831660048201526024810185905290519185169263a9059cbb926044808401936020939083900390910190829087803b158015611d5f57600080fd5b505af1158015611d73573d6000803e3d6000fd5b505050506040513d6020811015611d8957600080fd5b50505050565b60055481565b60008083118015611da65750600783105b611dea576040805162461bcd60e51b815260206004820152601060248201526f746865206e6674206e6f74204369666960801b604482015290519081900360640190fd5b60008360011415611e135750611388612710830204611e0b81612af8612045565b915050611f03565b8360021415611e4557610bb8611e2b84611388611f21565b6127100281611e3657fe5b049050611e0b81612ee0612045565b8360031415611e77576107d0611e5d84611f40611f21565b6127100281611e6857fe5b049050611e0b816132c8612045565b8360041415611ea9576103e8611e8f84612328611f21565b613a980281611e9a57fe5b049050611e0b816136b0612045565b8360051415611edb576101f4611ec184612648611f21565b613a980281611ecc57fe5b049050611e0b81613a98612045565b6064611ee9846126fc611f21565b613a980281611ef457fe5b049050611e0b81613e80612045565b92915050565b60146020526000908152604090205481565b60045481565b600082821115611f78576040805162461bcd60e51b815260206004820152601e60248201527f536166654d6174683a207375627472616374696f6e206f766572666c6f770000604482015290519081900360640190fd5b50900390565b600082611f8d57506000611f03565b82820282848281611f9a57fe5b0414611fd75760405162461bcd60e51b81526004018080602001828103825260218152602001806121006021913960400191505060405180910390fd5b9392505050565b6000808211612034576040805162461bcd60e51b815260206004820152601a60248201527f536166654d6174683a206469766973696f6e206279207a65726f000000000000604482015290519081900360640190fd5b81838161203d57fe5b049392505050565b600082820183811015611fd7576040805162461bcd60e51b815260206004820152601b60248201527f536166654d6174683a206164646974696f6e206f766572666c6f770000000000604482015290519081900360640190fd5b8280548282559060005260206000209081019282156120da579160200282015b828111156120da5782518255916020019190600101906120bf565b506120e69291506120ea565b5090565b5b808211156120e657600081556001016120eb56fe536166654d6174683a206d756c7469706c69636174696f6e206f766572666c6f77a2646970667358221220f2176853d2bcf4704c28bd853d4ca24fd5393932a1bab1ec1d596e55582025de64736f6c63430007040033",
  "immutableReferences": {},
  "source": "// SPDX-License-Identifier: MIT\r\npragma solidity ^0.7.4;\r\n\r\nimport \"@openzeppelin/contracts/math/Math.sol\";\r\nimport \"@openzeppelin/contracts/math/SafeMath.sol\";\r\nimport \"@openzeppelin/contracts/token/ERC721/IERC721.sol\";\r\n\r\nimport \"../library/Governance.sol\";\r\nimport \"../interface/IPool.sol\";\r\nimport \"../interface/ICifi_Token.sol\";\r\nimport \"../interface/INftAsset.sol\";\r\nimport \"../interface/INftFactory.sol\";\r\n\r\ncontract NftStakingV2 is IPool, Governance {\r\n    using SafeMath for uint256;\r\n\r\n    ICifi_Token public _cifi = ICifi_Token(0x0);\r\n    INftAsset public _nftAsset = INftAsset(0x0);\r\n    INftFactory public _nftFactory = INftFactory(0x0);\r\n    uint256 public _initReward = 600 * 1e18;\r\n    uint256 public _startTime = block.timestamp + 365 days;\r\n    uint256 public _rewardRate = 0;\r\n    uint256 public _lastUpdateTime;\r\n    uint256 public _rewardPerTokenStored;\r\n\r\n    uint256 public _penaltyRate = 500;\r\n    uint256 public _baseRate = 10000;\r\n    uint256 public _punishTime =7 days;\r\n\r\n    mapping(address => uint256) public _userRewardPerTokenPaid;\r\n    mapping(address => uint256) public _rewards;\r\n    mapping(address => uint256) public _lastStakedTime;\r\n\r\n    bool public _hasStart = false;\r\n    uint256 public _fixRateBase = 10000;\r\n\r\n    uint256 public _stakingPowaBase = 10000;\r\n    uint256 public _totalPowa;\r\n\r\n    mapping(address => uint256) public _powaBalances;\r\n    mapping(uint256 => uint256) public _powas;\r\n    mapping(uint256 => uint256) public _stakeBalances;\r\n\r\n    uint256 public _totalBalance;\r\n    mapping(address => uint256) public _faceValues;\r\n    uint256 public _maxStakedCifi = 500 * 1e18;\r\n\r\n    mapping(address => uint256[]) public _tokensOfUser;\r\n    mapping(uint256 => uint256) public _nftMapIndex;\r\n\r\n    event RewardAdded(uint256 reward);\r\n    event StakedNFT(address indexed user, uint256 amount);\r\n    event WithdrawnNFT(address indexed user, uint256 amount);\r\n    event RewardPaid(address indexed user, uint256 reward);\r\n    event NFTReceived(\r\n        address operator,\r\n        address from,\r\n        uint256 tokenId,\r\n        bytes data\r\n    );\r\n\r\n    constructor(\r\n        address cifi,\r\n        address nftAsset,\r\n        address nftFactory\r\n    ) {\r\n        _cifi = ICifi_Token(cifi);\r\n        _nftAsset = INftAsset(nftAsset);\r\n        _nftFactory = INftFactory(nftFactory);\r\n    }\r\n\r\n    modifier updateReward(address account) {\r\n        _rewardPerTokenStored = rewardPerToken();\r\n        _lastUpdateTime = block.timestamp;\r\n        if (account != address(0)) {\r\n            _rewards[account] = earned(account);\r\n            _userRewardPerTokenPaid[account] = _rewardPerTokenStored;\r\n        }\r\n        _;\r\n    }\r\n\r\n    function setMaxStakedCifi(uint256 amount) external onlyGovernance {\r\n        _maxStakedCifi = amount;\r\n    }\r\n\r\n    /* Fee collection for any other token */\r\n    function seize(ICifi_Token token, uint256 amount) external onlyGovernance {\r\n        require(token != _cifi, \"reward\");\r\n        token.transfer(_governance, amount);\r\n    }\r\n\r\n    /* Fee collection for any other token */\r\n    function seizeErc721(IERC721 token, uint256 tokenId) external {\r\n        require(token != _nftAsset, \"nft stake\");\r\n        token.safeTransferFrom(address(this), _governance, tokenId);\r\n    }\r\n\r\n    function rewardPerToken() public view returns (uint256) {\r\n        if (totalPowa() == 0) {\r\n            return _rewardPerTokenStored;\r\n        }\r\n        return\r\n            _rewardPerTokenStored.add(\r\n                block\r\n                    .timestamp\r\n                    .sub(_lastUpdateTime)\r\n                    .mul(_rewardRate)\r\n                    .mul(1e18)\r\n                    .div(totalPowa())\r\n            );\r\n    }\r\n\r\n    function earned(address account) public view returns (uint256) {\r\n        return\r\n            balanceOf(account)\r\n                .mul(rewardPerToken().sub(_userRewardPerTokenPaid[account]))\r\n                .div(1e18)\r\n                .add(_rewards[account]);\r\n    }\r\n\r\n    //the class is a number between 1-6\r\n    //the stakingPowa is a number between 1-10000\r\n    /*\r\n    1   stakingPowa\t1.1+ 1*stakingPowa/5000\r\n    2\tstakingPowa\t1.2+ 1*(stakingPowa-5000)/3000\r\n    3\tstakingPowa\t1.3+ 1*(stakingPowa-8000/2000\r\n    4\tstakingPowa\t1.4+ 1.5*(stakingPowa-9000)/1000\r\n    5\tstakingPowa\t1.5+ 1.5*(stakingPowa-9800)/500\r\n    6\tstakingPowa\t1.6+ 1.5*(stakingPowa-9980)/100\r\n    */\r\n\r\n    function getMiningPowa(uint256 class, uint256 stakingPowa)\r\n        public\r\n        pure\r\n        returns (uint256)\r\n    {\r\n        require(class > 0 && class < 7, \"the nft not Cifi\");\r\n\r\n        uint256 unfold = 0;\r\n\r\n        if (class == 1) {\r\n            unfold = (stakingPowa * 10000) / 5000;\r\n            return unfold.add(11000);\r\n        } else if (class == 2) {\r\n            unfold = (stakingPowa.sub(5000) * 10000) / 3000;\r\n            return unfold.add(12000);\r\n        } else if (class == 3) {\r\n            unfold = (stakingPowa.sub(8000) * 10000) / 2000;\r\n            return unfold.add(13000);\r\n        } else if (class == 4) {\r\n            unfold = (stakingPowa.sub(9000) * 15000) / 1000;\r\n            return unfold.add(14000);\r\n        } else if (class == 5) {\r\n            unfold = (stakingPowa.sub(9800) * 15000) / 500;\r\n            return unfold.add(15000);\r\n        } else {\r\n            unfold = (stakingPowa.sub(9980) * 15000) / 100;\r\n            return unfold.add(16000);\r\n        }\r\n    }\r\n\r\n    function getClass(uint256 stakingPowa) public view returns (uint256) {\r\n        if (stakingPowa < _stakingPowaBase.mul(500).div(1000)) {\r\n            return 1;\r\n        } else if (\r\n            _stakingPowaBase.mul(500).div(1000) <= stakingPowa &&\r\n            stakingPowa < _stakingPowaBase.mul(800).div(1000)\r\n        ) {\r\n            return 2;\r\n        } else if (\r\n            _stakingPowaBase.mul(800).div(1000) <= stakingPowa &&\r\n            stakingPowa < _stakingPowaBase.mul(900).div(1000)\r\n        ) {\r\n            return 3;\r\n        } else if (\r\n            _stakingPowaBase.mul(900).div(1000) <= stakingPowa &&\r\n            stakingPowa < _stakingPowaBase.mul(980).div(1000)\r\n        ) {\r\n            return 4;\r\n        } else if (\r\n            _stakingPowaBase.mul(980).div(1000) <= stakingPowa &&\r\n            stakingPowa < _stakingPowaBase.mul(998).div(1000)\r\n        ) {\r\n            return 5;\r\n        } else {\r\n            return 6;\r\n        }\r\n    }\r\n\r\n    function getRarity(uint256 class) internal pure returns (uint256 rarity) {\r\n        if (class == 1) {\r\n            rarity = 5000;\r\n        } else if (class == 2) {\r\n            rarity = 3000;\r\n        } else if (class == 3) {\r\n            rarity = 2000;\r\n        } else if (class == 4) {\r\n            rarity = 1000;\r\n        } else if (class == 5) {\r\n            rarity = 500;\r\n        } else {\r\n            rarity = 100;\r\n        }\r\n    }\r\n\r\n    // stake NFT\r\n    function stakeNFT(uint256 nftId, uint256 stakingPowa)\r\n        public\r\n        updateReward(msg.sender)\r\n        checkStart\r\n    {\r\n        uint256[] storage nftIds = _tokensOfUser[msg.sender];\r\n        uint256 face_value = _nftFactory.getFaceValue(nftId);\r\n        nftIds.push(nftId);\r\n        _nftMapIndex[nftId] = nftIds.length - 1;\r\n\r\n        uint256 miningPowa;\r\n        uint256 class;\r\n        class = getClass(stakingPowa);\r\n        miningPowa = getMiningPowa(class, stakingPowa);\r\n\r\n        uint256 stakedface_value = _faceValues[msg.sender];\r\n        uint256 stakingface_value = stakedface_value.add(face_value) <=\r\n            _maxStakedCifi\r\n            ? face_value\r\n            : _maxStakedCifi.sub(stakedface_value);\r\n\r\n        if (stakingface_value > 0) {\r\n            uint256 stake_powa = miningPowa.mul(stakingface_value).div(\r\n                _fixRateBase\r\n            );\r\n            _faceValues[msg.sender] = _faceValues[msg.sender].add(\r\n                stakingface_value\r\n            );\r\n\r\n            _powaBalances[msg.sender] = _powaBalances[msg.sender].add(\r\n                stake_powa\r\n            );\r\n\r\n            _stakeBalances[nftId] = stakingface_value;\r\n            _powas[nftId] = stake_powa;\r\n\r\n            _totalBalance = _totalBalance.add(stakingface_value);\r\n            _totalPowa = _totalPowa.add(stake_powa);\r\n        }\r\n\r\n        _nftAsset.safeTransferFrom(msg.sender, address(this), nftId);\r\n\r\n        _lastStakedTime[msg.sender] = block.timestamp;\r\n        emit StakedNFT(msg.sender, nftId);\r\n    }\r\n\r\n    function onERC721Received(\r\n        address operator,\r\n        address from,\r\n        uint256 tokenId,\r\n        bytes memory data\r\n    ) public returns (bytes4) {\r\n        if (_hasStart == false) {\r\n            return 0;\r\n        }\r\n\r\n        emit NFTReceived(operator, from, tokenId, data);\r\n        return\r\n            bytes4(\r\n                keccak256(\"onERC721Received(address,address,uint256,bytes)\")\r\n            );\r\n    }\r\n\r\n    function withdrawNFT(uint256 nftId)\r\n        public\r\n        updateReward(msg.sender)\r\n        checkStart\r\n    {\r\n        require(nftId > 0, \"the nftId error\");\r\n\r\n        uint256[] memory nftIds = _tokensOfUser[msg.sender];\r\n        uint256 nftIndex = _nftMapIndex[nftId];\r\n\r\n        require(nftIds[nftIndex] == nftId, \"not nftId owner\");\r\n\r\n        uint256[] memory newIds = new uint256[](nftIds.length - 1);\r\n        uint256 j = 0;\r\n        for (uint256 i = 0; i < nftIds.length; i++) {\r\n            if (nftIds[i] != nftId) {\r\n                _nftMapIndex[nftIds[i]] = j;\r\n                newIds[j++] = (nftIds[i]);\r\n            }\r\n        }\r\n        _tokensOfUser[msg.sender] = newIds;\r\n\r\n        uint256 stake_powa = _powas[nftId];\r\n        _powaBalances[msg.sender] = _powaBalances[msg.sender].sub(stake_powa);\r\n        _totalPowa = _totalPowa.sub(stake_powa);\r\n\r\n        uint256 stakeBalance = _stakeBalances[nftId];\r\n        _faceValues[msg.sender] = _faceValues[msg.sender].sub(stakeBalance);\r\n        _totalBalance = _totalBalance.sub(stakeBalance);\r\n\r\n        _nftAsset.safeTransferFrom(address(this), msg.sender, nftId);\r\n\r\n        _stakeBalances[nftId] = 0;\r\n        _powas[nftId] = 0;\r\n\r\n        emit WithdrawnNFT(msg.sender, nftId);\r\n    }\r\n\r\n    function withdraw() public checkStart {\r\n        uint256[] memory nftIds = _tokensOfUser[msg.sender];\r\n        for (uint8 index = 0; index < nftIds.length; index++) {\r\n            if (nftIds[index] > 0) {\r\n                withdrawNFT(nftIds[index]);\r\n            }\r\n        }\r\n    }\r\n\r\n    function getNftIds(address account)\r\n        public\r\n        view\r\n        returns (uint256[] memory nftIds)\r\n    {\r\n        nftIds = _tokensOfUser[account];\r\n    }\r\n\r\n    function exit() external {\r\n        withdraw();\r\n        getReward();\r\n    }\r\n\r\n    function getReward() public updateReward(msg.sender) checkStart {\r\n        uint256 reward = earned(msg.sender);\r\n        if (reward > 0) {\r\n            _rewards[msg.sender] = 0;\r\n\r\n            uint256 penaltyReward = 0;\r\n\r\n            //withdraw time check\r\n\r\n            if (block.timestamp < (_lastStakedTime[msg.sender] + _punishTime)) {\r\n                penaltyReward = reward.mul(_penaltyRate).div(_baseRate);\r\n            }\r\n            if (penaltyReward > 0) {\r\n                reward = reward.sub(penaltyReward);\r\n            }\r\n\r\n            if (reward > 0) {\r\n                _cifi.transfer(msg.sender, reward);\r\n            }\r\n\r\n            emit RewardPaid(msg.sender, reward);\r\n        }\r\n    }\r\n\r\n    modifier checkStart() {\r\n        require(_hasStart == true, \"not started\");\r\n        require(block.timestamp > _startTime, \"not start\");\r\n        _;\r\n    }\r\n\r\n    // set fix time to start reward\r\n    function startNFTReward() external onlyGovernance updateReward(address(0)) {\r\n        require(_hasStart == false, \"has started\");\r\n        _hasStart = true;\r\n\r\n        _startTime = block.timestamp;\r\n\r\n        _rewardRate = _initReward;\r\n        _cifi.mint(address(this), _initReward);\r\n\r\n        _lastUpdateTime = _startTime;\r\n\r\n        emit RewardAdded(_initReward);\r\n    }\r\n\r\n    function setPenaltyRate(uint256 penaltyRate) public onlyGovernance {\r\n        _penaltyRate = penaltyRate;\r\n    }\r\n\r\n    function totalPowa() public view override returns (uint256) {\r\n        return _totalPowa;\r\n    }\r\n\r\n    function balanceOf(address account) public view override returns (uint256) {\r\n        return _powaBalances[account];\r\n    }\r\n\r\n    function setWithDrawPunishTime(uint256 punishTime) public onlyGovernance {\r\n        _punishTime = punishTime;\r\n    }\r\n}\r\n",
  "sourcePath": "F:\\citizen\\santafeapp\\src\\contracts\\reward\\NftStakingV2.sol",
  "compiler": {
    "name": "solc",
    "version": "0.7.4+commit.3f05b770.Emscripten.clang"
  },
  "schemaVersion": "3.4.2",
  "updatedAt": "2021-08-16T15:39:51.092Z",
  "networkType": "ethereum",
  "devdoc": {
    "kind": "dev",
    "methods": {},
    "version": 1
  },
  "userdoc": {
    "kind": "user",
    "methods": {},
    "version": 1
  }
}