{
  "contractName": "NftStaking",
  "abi": [
    {
      "inputs": [
        {
          "internalType": "address",
          "name": "cifi",
          "type": "address"
        },
        {
          "internalType": "address",
          "name": "nftAsset",
          "type": "address"
        }
      ],
      "stateMutability": "nonpayable",
      "type": "constructor"
    },
    {
      "anonymous": false,
      "inputs": [
        {
          "indexed": true,
          "internalType": "address",
          "name": "previousOwner",
          "type": "address"
        },
        {
          "indexed": true,
          "internalType": "address",
          "name": "newOwner",
          "type": "address"
        }
      ],
      "name": "GovernanceTransferred",
      "type": "event"
    },
    {
      "anonymous": false,
      "inputs": [
        {
          "indexed": false,
          "internalType": "address",
          "name": "operator",
          "type": "address"
        },
        {
          "indexed": false,
          "internalType": "address",
          "name": "from",
          "type": "address"
        },
        {
          "indexed": false,
          "internalType": "uint256",
          "name": "tokenId",
          "type": "uint256"
        },
        {
          "indexed": false,
          "internalType": "bytes",
          "name": "data",
          "type": "bytes"
        }
      ],
      "name": "NFTReceived",
      "type": "event"
    },
    {
      "anonymous": false,
      "inputs": [
        {
          "indexed": false,
          "internalType": "uint256",
          "name": "reward",
          "type": "uint256"
        }
      ],
      "name": "RewardAdded",
      "type": "event"
    },
    {
      "anonymous": false,
      "inputs": [
        {
          "indexed": true,
          "internalType": "address",
          "name": "user",
          "type": "address"
        },
        {
          "indexed": false,
          "internalType": "uint256",
          "name": "reward",
          "type": "uint256"
        }
      ],
      "name": "RewardPaid",
      "type": "event"
    },
    {
      "anonymous": false,
      "inputs": [
        {
          "indexed": true,
          "internalType": "address",
          "name": "user",
          "type": "address"
        },
        {
          "indexed": false,
          "internalType": "uint256",
          "name": "amount",
          "type": "uint256"
        }
      ],
      "name": "StakedNFT",
      "type": "event"
    },
    {
      "anonymous": false,
      "inputs": [
        {
          "indexed": true,
          "internalType": "address",
          "name": "user",
          "type": "address"
        },
        {
          "indexed": false,
          "internalType": "uint256",
          "name": "amount",
          "type": "uint256"
        }
      ],
      "name": "WithdrawnNFT",
      "type": "event"
    },
    {
      "inputs": [],
      "name": "DURATION",
      "outputs": [
        {
          "internalType": "uint256",
          "name": "",
          "type": "uint256"
        }
      ],
      "stateMutability": "view",
      "type": "function"
    },
    {
      "inputs": [],
      "name": "_baseRate",
      "outputs": [
        {
          "internalType": "uint256",
          "name": "",
          "type": "uint256"
        }
      ],
      "stateMutability": "view",
      "type": "function"
    },
    {
      "inputs": [],
      "name": "_cifi",
      "outputs": [
        {
          "internalType": "contract ICifi_Token",
          "name": "",
          "type": "address"
        }
      ],
      "stateMutability": "view",
      "type": "function"
    },
    {
      "inputs": [],
      "name": "_dividendPool",
      "outputs": [
        {
          "internalType": "address",
          "name": "",
          "type": "address"
        }
      ],
      "stateMutability": "view",
      "type": "function"
    },
    {
      "inputs": [],
      "name": "_dividendRate",
      "outputs": [
        {
          "internalType": "uint256",
          "name": "",
          "type": "uint256"
        }
      ],
      "stateMutability": "view",
      "type": "function"
    },
    {
      "inputs": [
        {
          "internalType": "address",
          "name": "",
          "type": "address"
        }
      ],
      "name": "_faceValues",
      "outputs": [
        {
          "internalType": "uint256",
          "name": "",
          "type": "uint256"
        }
      ],
      "stateMutability": "view",
      "type": "function"
    },
    {
      "inputs": [],
      "name": "_fixRateBase",
      "outputs": [
        {
          "internalType": "uint256",
          "name": "",
          "type": "uint256"
        }
      ],
      "stateMutability": "view",
      "type": "function"
    },
    {
      "inputs": [],
      "name": "_governance",
      "outputs": [
        {
          "internalType": "address",
          "name": "",
          "type": "address"
        }
      ],
      "stateMutability": "view",
      "type": "function"
    },
    {
      "inputs": [],
      "name": "_hasStart",
      "outputs": [
        {
          "internalType": "bool",
          "name": "",
          "type": "bool"
        }
      ],
      "stateMutability": "view",
      "type": "function"
    },
    {
      "inputs": [],
      "name": "_initReward",
      "outputs": [
        {
          "internalType": "uint256",
          "name": "",
          "type": "uint256"
        }
      ],
      "stateMutability": "view",
      "type": "function"
    },
    {
      "inputs": [
        {
          "internalType": "address",
          "name": "",
          "type": "address"
        }
      ],
      "name": "_lastStakedTime",
      "outputs": [
        {
          "internalType": "uint256",
          "name": "",
          "type": "uint256"
        }
      ],
      "stateMutability": "view",
      "type": "function"
    },
    {
      "inputs": [],
      "name": "_lastUpdateTime",
      "outputs": [
        {
          "internalType": "uint256",
          "name": "",
          "type": "uint256"
        }
      ],
      "stateMutability": "view",
      "type": "function"
    },
    {
      "inputs": [],
      "name": "_maxStakedCifi",
      "outputs": [
        {
          "internalType": "uint256",
          "name": "",
          "type": "uint256"
        }
      ],
      "stateMutability": "view",
      "type": "function"
    },
    {
      "inputs": [],
      "name": "_nftAsset",
      "outputs": [
        {
          "internalType": "contract INftAsset",
          "name": "",
          "type": "address"
        }
      ],
      "stateMutability": "view",
      "type": "function"
    },
    {
      "inputs": [
        {
          "internalType": "uint256",
          "name": "",
          "type": "uint256"
        }
      ],
      "name": "_nftMapIndex",
      "outputs": [
        {
          "internalType": "uint256",
          "name": "",
          "type": "uint256"
        }
      ],
      "stateMutability": "view",
      "type": "function"
    },
    {
      "inputs": [],
      "name": "_penaltyRate",
      "outputs": [
        {
          "internalType": "uint256",
          "name": "",
          "type": "uint256"
        }
      ],
      "stateMutability": "view",
      "type": "function"
    },
    {
      "inputs": [],
      "name": "_periodFinish",
      "outputs": [
        {
          "internalType": "uint256",
          "name": "",
          "type": "uint256"
        }
      ],
      "stateMutability": "view",
      "type": "function"
    },
    {
      "inputs": [
        {
          "internalType": "address",
          "name": "",
          "type": "address"
        }
      ],
      "name": "_powaBalances",
      "outputs": [
        {
          "internalType": "uint256",
          "name": "",
          "type": "uint256"
        }
      ],
      "stateMutability": "view",
      "type": "function"
    },
    {
      "inputs": [
        {
          "internalType": "uint256",
          "name": "",
          "type": "uint256"
        }
      ],
      "name": "_powas",
      "outputs": [
        {
          "internalType": "uint256",
          "name": "",
          "type": "uint256"
        }
      ],
      "stateMutability": "view",
      "type": "function"
    },
    {
      "inputs": [],
      "name": "_punishTime",
      "outputs": [
        {
          "internalType": "uint256",
          "name": "",
          "type": "uint256"
        }
      ],
      "stateMutability": "view",
      "type": "function"
    },
    {
      "inputs": [],
      "name": "_rewardPerTokenStored",
      "outputs": [
        {
          "internalType": "uint256",
          "name": "",
          "type": "uint256"
        }
      ],
      "stateMutability": "view",
      "type": "function"
    },
    {
      "inputs": [],
      "name": "_rewardRate",
      "outputs": [
        {
          "internalType": "uint256",
          "name": "",
          "type": "uint256"
        }
      ],
      "stateMutability": "view",
      "type": "function"
    },
    {
      "inputs": [
        {
          "internalType": "address",
          "name": "",
          "type": "address"
        }
      ],
      "name": "_rewards",
      "outputs": [
        {
          "internalType": "uint256",
          "name": "",
          "type": "uint256"
        }
      ],
      "stateMutability": "view",
      "type": "function"
    },
    {
      "inputs": [
        {
          "internalType": "uint256",
          "name": "",
          "type": "uint256"
        }
      ],
      "name": "_stakeBalances",
      "outputs": [
        {
          "internalType": "uint256",
          "name": "",
          "type": "uint256"
        }
      ],
      "stateMutability": "view",
      "type": "function"
    },
    {
      "inputs": [],
      "name": "_stakingPowaBase",
      "outputs": [
        {
          "internalType": "uint256",
          "name": "",
          "type": "uint256"
        }
      ],
      "stateMutability": "view",
      "type": "function"
    },
    {
      "inputs": [],
      "name": "_startTime",
      "outputs": [
        {
          "internalType": "uint256",
          "name": "",
          "type": "uint256"
        }
      ],
      "stateMutability": "view",
      "type": "function"
    },
    {
      "inputs": [],
      "name": "_teamRewardRate",
      "outputs": [
        {
          "internalType": "uint256",
          "name": "",
          "type": "uint256"
        }
      ],
      "stateMutability": "view",
      "type": "function"
    },
    {
      "inputs": [],
      "name": "_teamWallet",
      "outputs": [
        {
          "internalType": "address",
          "name": "",
          "type": "address"
        }
      ],
      "stateMutability": "view",
      "type": "function"
    },
    {
      "inputs": [
        {
          "internalType": "address",
          "name": "",
          "type": "address"
        },
        {
          "internalType": "uint256",
          "name": "",
          "type": "uint256"
        }
      ],
      "name": "_tokensOfUser",
      "outputs": [
        {
          "internalType": "uint256",
          "name": "",
          "type": "uint256"
        }
      ],
      "stateMutability": "view",
      "type": "function"
    },
    {
      "inputs": [],
      "name": "_totalBalance",
      "outputs": [
        {
          "internalType": "uint256",
          "name": "",
          "type": "uint256"
        }
      ],
      "stateMutability": "view",
      "type": "function"
    },
    {
      "inputs": [],
      "name": "_totalPowa",
      "outputs": [
        {
          "internalType": "uint256",
          "name": "",
          "type": "uint256"
        }
      ],
      "stateMutability": "view",
      "type": "function"
    },
    {
      "inputs": [
        {
          "internalType": "address",
          "name": "",
          "type": "address"
        }
      ],
      "name": "_userRewardPerTokenPaid",
      "outputs": [
        {
          "internalType": "uint256",
          "name": "",
          "type": "uint256"
        }
      ],
      "stateMutability": "view",
      "type": "function"
    },
    {
      "inputs": [
        {
          "internalType": "address",
          "name": "governance",
          "type": "address"
        }
      ],
      "name": "setGovernance",
      "outputs": [],
      "stateMutability": "nonpayable",
      "type": "function"
    },
    {
      "inputs": [
        {
          "internalType": "uint256",
          "name": "amount",
          "type": "uint256"
        }
      ],
      "name": "setMaxStakedCifi",
      "outputs": [],
      "stateMutability": "nonpayable",
      "type": "function"
    },
    {
      "inputs": [
        {
          "internalType": "contract ICifi_Token",
          "name": "token",
          "type": "address"
        },
        {
          "internalType": "uint256",
          "name": "amount",
          "type": "uint256"
        }
      ],
      "name": "seize",
      "outputs": [],
      "stateMutability": "nonpayable",
      "type": "function"
    },
    {
      "inputs": [
        {
          "internalType": "contract IERC721",
          "name": "token",
          "type": "address"
        },
        {
          "internalType": "uint256",
          "name": "tokenId",
          "type": "uint256"
        }
      ],
      "name": "seizeErc721",
      "outputs": [],
      "stateMutability": "nonpayable",
      "type": "function"
    },
    {
      "inputs": [],
      "name": "lastTimeRewardApplicable",
      "outputs": [
        {
          "internalType": "uint256",
          "name": "",
          "type": "uint256"
        }
      ],
      "stateMutability": "view",
      "type": "function"
    },
    {
      "inputs": [],
      "name": "rewardPerToken",
      "outputs": [
        {
          "internalType": "uint256",
          "name": "",
          "type": "uint256"
        }
      ],
      "stateMutability": "view",
      "type": "function"
    },
    {
      "inputs": [
        {
          "internalType": "address",
          "name": "account",
          "type": "address"
        }
      ],
      "name": "earned",
      "outputs": [
        {
          "internalType": "uint256",
          "name": "",
          "type": "uint256"
        }
      ],
      "stateMutability": "view",
      "type": "function"
    },
    {
      "inputs": [
        {
          "internalType": "uint256",
          "name": "class",
          "type": "uint256"
        },
        {
          "internalType": "uint256",
          "name": "stakingPowa",
          "type": "uint256"
        }
      ],
      "name": "getMiningPowa",
      "outputs": [
        {
          "internalType": "uint256",
          "name": "",
          "type": "uint256"
        }
      ],
      "stateMutability": "pure",
      "type": "function"
    },
    {
      "inputs": [
        {
          "internalType": "uint256",
          "name": "stakingPowa",
          "type": "uint256"
        }
      ],
      "name": "getClass",
      "outputs": [
        {
          "internalType": "uint256",
          "name": "",
          "type": "uint256"
        }
      ],
      "stateMutability": "view",
      "type": "function"
    },
    {
      "inputs": [
        {
          "internalType": "uint256",
          "name": "nftId",
          "type": "uint256"
        },
        {
          "internalType": "uint256",
          "name": "stakingPowa",
          "type": "uint256"
        },
        {
          "internalType": "uint256",
          "name": "face_value",
          "type": "uint256"
        }
      ],
      "name": "stakeNFT",
      "outputs": [],
      "stateMutability": "nonpayable",
      "type": "function"
    },
    {
      "inputs": [
        {
          "internalType": "address",
          "name": "operator",
          "type": "address"
        },
        {
          "internalType": "address",
          "name": "from",
          "type": "address"
        },
        {
          "internalType": "uint256",
          "name": "tokenId",
          "type": "uint256"
        },
        {
          "internalType": "bytes",
          "name": "data",
          "type": "bytes"
        }
      ],
      "name": "onERC721Received",
      "outputs": [
        {
          "internalType": "bytes4",
          "name": "",
          "type": "bytes4"
        }
      ],
      "stateMutability": "nonpayable",
      "type": "function"
    },
    {
      "inputs": [
        {
          "internalType": "uint256",
          "name": "nftId",
          "type": "uint256"
        }
      ],
      "name": "withdrawNFT",
      "outputs": [],
      "stateMutability": "nonpayable",
      "type": "function"
    },
    {
      "inputs": [],
      "name": "withdraw",
      "outputs": [],
      "stateMutability": "nonpayable",
      "type": "function"
    },
    {
      "inputs": [
        {
          "internalType": "address",
          "name": "account",
          "type": "address"
        }
      ],
      "name": "getNftIds",
      "outputs": [
        {
          "internalType": "uint256[]",
          "name": "nftIds",
          "type": "uint256[]"
        }
      ],
      "stateMutability": "view",
      "type": "function"
    },
    {
      "inputs": [],
      "name": "exit",
      "outputs": [],
      "stateMutability": "nonpayable",
      "type": "function"
    },
    {
      "inputs": [],
      "name": "getReward",
      "outputs": [],
      "stateMutability": "nonpayable",
      "type": "function"
    },
    {
      "inputs": [],
      "name": "getRemainTime",
      "outputs": [
        {
          "internalType": "uint256",
          "name": "",
          "type": "uint256"
        }
      ],
      "stateMutability": "view",
      "type": "function"
    },
    {
      "inputs": [],
      "name": "startNFTReward",
      "outputs": [],
      "stateMutability": "nonpayable",
      "type": "function"
    },
    {
      "inputs": [
        {
          "internalType": "uint256",
          "name": "teamRewardRate",
          "type": "uint256"
        }
      ],
      "name": "setTeamRewardRate",
      "outputs": [],
      "stateMutability": "nonpayable",
      "type": "function"
    },
    {
      "inputs": [
        {
          "internalType": "uint256",
          "name": "dividendRate",
          "type": "uint256"
        }
      ],
      "name": "setDividenRate",
      "outputs": [],
      "stateMutability": "nonpayable",
      "type": "function"
    },
    {
      "inputs": [
        {
          "internalType": "uint256",
          "name": "penaltyRate",
          "type": "uint256"
        }
      ],
      "name": "setPenaltyRate",
      "outputs": [],
      "stateMutability": "nonpayable",
      "type": "function"
    },
    {
      "inputs": [
        {
          "internalType": "address",
          "name": "teamWallet",
          "type": "address"
        }
      ],
      "name": "setTeamWallet",
      "outputs": [],
      "stateMutability": "nonpayable",
      "type": "function"
    },
    {
      "inputs": [
        {
          "internalType": "address",
          "name": "dividendPool",
          "type": "address"
        }
      ],
      "name": "setDividenPool",
      "outputs": [],
      "stateMutability": "nonpayable",
      "type": "function"
    },
    {
      "inputs": [],
      "name": "totalPowa",
      "outputs": [
        {
          "internalType": "uint256",
          "name": "",
          "type": "uint256"
        }
      ],
      "stateMutability": "view",
      "type": "function"
    },
    {
      "inputs": [
        {
          "internalType": "address",
          "name": "account",
          "type": "address"
        }
      ],
      "name": "balanceOf",
      "outputs": [
        {
          "internalType": "uint256",
          "name": "",
          "type": "uint256"
        }
      ],
      "stateMutability": "view",
      "type": "function"
    },
    {
      "inputs": [
        {
          "internalType": "uint256",
          "name": "punishTime",
          "type": "uint256"
        }
      ],
      "name": "setWithDrawPunishTime",
      "outputs": [],
      "stateMutability": "nonpayable",
      "type": "function"
    }
  ],
  "bytecode": "0x6080604052600180546001600160a01b031990811690915560028054821690556003805482169055600480549091169055660c55f737ae98006005556301e133804201600655600060078190556008556101f4600b819055600c819055600d55612710600e81905562093a80600f556013805460ff191690556014819055601555680ad78ebc5ac6200000601c5534801561009957600080fd5b50604051612a3c380380612a3c833981810160405260408110156100bc57600080fd5b508051602090910151600080546001600160a01b03199081163217909155600180546001600160a01b0394851690831617905560028054939092169281169290921790556003805482163390811790915560048054909216179055612916806101266000396000f3fe608060405234801561001057600080fd5b506004361061038d5760003560e01c806370a08231116101de578063c459aa3b1161010f578063eb9253c0116100ad578063fc2615d51161007c578063fc2615d514610945578063fdd0499f1461094d578063ff0123ef14610970578063ffd832c11461098d5761038d565b8063eb9253c0146108ec578063ed6525c414610918578063efd8b78214610920578063fa1acb5c1461093d5761038d565b8063dc099301116100e9578063dc099301146108a3578063e45a98dd146108c0578063e70391ab146108dc578063e9fad8ee146108e45761038d565b8063c459aa3b146107f9578063cd3daf9d14610825578063d060a67c1461082d5761038d565b80639a6b25a31161017c578063a1bab44711610156578063a1bab44714610785578063a7211ff8146107a2578063ab033ea9146107cb578063c157f2be146107f15761038d565b80639a6b25a3146107435780639dec91fe146107605780639f3fbd2b1461077d5761038d565b806388d7dfd7116101b857806388d7dfd714610723578063893ff6391461072b5780638e26b01e14610733578063927b26b91461073b5761038d565b806370a08231146106cf5780637d6dfb7e146106f557806380faa57d1461071b5761038d565b806324c5f05e116102c35780633f4e379811610261578063630ff77611610230578063630ff7761461067357806365d82b8a1461069957806368fd25cd146106bf5780636adafab5146106c75761038d565b80633f4e3798146105ed578063512d62df1461061357806353393e351461063057806356728e9d1461064d5761038d565b806337e294d51161029d57806337e294d5146105cd5780633a485c23146105d55780633ccfd60b146105dd5780633d18b912146105e55761038d565b806324c5f05e14610591578063252f7b49146105bd5780633718e907146105c55761038d565b8063150b7a021161033057806319e3e6ea1161030a57806319e3e6ea146105535780631be052891461055b5780631c2f3e3d1461056357806323343e681461056b5761038d565b8063150b7a02146104425780631525ff7d146105255780631580db911461054b5761038d565b8063107564241161036c5780631075642414610406578063121544b91461040e57806312c05835146104165780631407c6641461043a5761038d565b80628cc26214610392578063023245d7146103ca5780630ba86f05146103e9575b600080fd5b6103b8600480360360208110156103a857600080fd5b50356001600160a01b0316610995565b60408051918252519081900360200190f35b6103e7600480360360208110156103e057600080fd5b5035610a05565b005b6103e7600480360360208110156103ff57600080fd5b5035610f22565b6103e7610f77565b6103b861112d565b61041e611133565b604080516001600160a01b039092168252519081900360200190f35b6103b8611142565b6105086004803603608081101561045857600080fd5b6001600160a01b0382358116926020810135909116916040820135919081019060808101606082013564010000000081111561049357600080fd5b8201836020820111156104a557600080fd5b803590602001918460018302840111640100000000831117156104c757600080fd5b91908080601f016020809104026020016040519081016040528093929190818152602001838380828437600092019190915250929550611148945050505050565b604080516001600160e01b03199092168252519081900360200190f35b6103e76004803603602081101561053b57600080fd5b50356001600160a01b031661124b565b6103b86112bd565b6103b86112c3565b6103b86112c9565b61041e6112d0565b6103b86004803603602081101561058157600080fd5b50356001600160a01b03166112df565b6103e7600480360360408110156105a757600080fd5b506001600160a01b0381351690602001356112f1565b6103b86113b2565b61041e6113b8565b61041e6113c7565b6103b86113d6565b6103e76113dc565b6103e761151f565b6103b86004803603602081101561060357600080fd5b50356001600160a01b0316611843565b6103b86004803603602081101561062957600080fd5b5035611855565b6103e76004803603602081101561064657600080fd5b50356119db565b6103b86004803603602081101561066357600080fd5b50356001600160a01b0316611a30565b6103e76004803603602081101561068957600080fd5b50356001600160a01b0316611a42565b6103b8600480360360208110156106af57600080fd5b50356001600160a01b0316611ab4565b6103b8611ac6565b6103b8611acc565b6103b8600480360360208110156106e557600080fd5b50356001600160a01b0316611ad2565b6103b86004803603602081101561070b57600080fd5b50356001600160a01b0316611aed565b6103b8611aff565b61041e611b13565b6103b8611b22565b6103b8611b28565b6103b8611b2e565b6103e76004803603602081101561075957600080fd5b5035611b34565b6103b86004803603602081101561077657600080fd5b5035611b89565b6103b8611b9b565b6103e76004803603602081101561079b57600080fd5b5035611ba1565b6103e7600480360360608110156107b857600080fd5b5080359060208101359060400135611bf6565b6103e7600480360360208110156107e157600080fd5b50356001600160a01b0316611fa7565b6103b86120ad565b6103b86004803603604081101561080f57600080fd5b506001600160a01b0381351690602001356120b3565b6103b86120e4565b6108536004803603602081101561084357600080fd5b50356001600160a01b0316612132565b60408051602080825283518183015283519192839290830191858101910280838360005b8381101561088f578181015183820152602001610877565b505050509050019250505060405180910390f35b6103b8600480360360208110156108b957600080fd5b503561219e565b6108c86121b0565b604080519115158252519081900360200190f35b6103b86121b9565b6103e76121bf565b6103e76004803603604081101561090257600080fd5b506001600160a01b0381351690602001356121d1565b6103b86122f4565b6103e76004803603602081101561093657600080fd5b50356122fa565b6103b861234f565b6103b8612355565b6103b86004803603604081101561096357600080fd5b5080359060200135612372565b6103b86004803603602081101561098657600080fd5b50356124e5565b6103b86124f7565b6001600160a01b03811660009081526011602090815260408083205460109092528220546109fd91906109f790670de0b6b3a7640000906109f1906109e2906109dc6120e4565b906124fd565b6109eb88611ad2565b9061255a565b906125ba565b90612621565b90505b919050565b33610a0e6120e4565b600a55610a19611aff565b6009556001600160a01b03811615610a6057610a3481610995565b6001600160a01b038216600090815260116020908152604080832093909355600a546010909152919020555b6007544210610b2e57610a8460646109f1603260055461255a90919063ffffffff16565b6005819055600154604080516340c10f1960e01b81523060048201526024810193909352516001600160a01b03909116916340c10f1991604480830192600092919082900301818387803b158015610adb57600080fd5b505af1158015610aef573d6000803e3d6000fd5b505060055460085550610b079050426203f480612621565b60075560055460408051918252516000805160206128a08339815191529181900360200190a15b60135460ff161515600114610b78576040805162461bcd60e51b815260206004820152600b60248201526a1b9bdd081cdd185c9d195960aa1b604482015290519081900360640190fd5b6006544211610bba576040805162461bcd60e51b81526020600482015260096024820152681b9bdd081cdd185c9d60ba1b604482015290519081900360640190fd5b60008211610c01576040805162461bcd60e51b815260206004820152600f60248201526e3a34329037333a24b21032b93937b960891b604482015290519081900360640190fd5b336000908152601d6020908152604091829020805483518184028101840190945280845260609392830182828015610c5857602002820191906000526020600020905b815481526020019060010190808311610c44575b5050506000868152601e602052604090205483519394509286925084915083908110610c8057fe5b602002602001015114610ccc576040805162461bcd60e51b815260206004820152600f60248201526e3737ba1037333a24b21037bbb732b960891b604482015290519081900360640190fd5b6060600183510367ffffffffffffffff81118015610ce957600080fd5b50604051908082528060200260200182016040528015610d13578160200160208202803683370190505b5090506000805b8451811015610da35786858281518110610d3057fe5b602002602001015114610d9b5781601e6000878481518110610d4e57fe5b6020026020010151815260200190815260200160002081905550848181518110610d7457fe5b6020026020010151838380600101945081518110610d8e57fe5b6020026020010181815250505b600101610d1a565b50336000908152601d602090815260409091208351610dc49285019061283f565b50600086815260186020908152604080832054338452601790925290912054610ded90826124fd565b33600090815260176020526040902055601654610e0a90826124fd565b601655600087815260196020908152604080832054338452601b90925290912054610e3590826124fd565b336000908152601b6020526040902055601a54610e5290826124fd565b601a5560025460408051632142170760e11b8152306004820152336024820152604481018b905290516001600160a01b03909216916342842e0e9160648082019260009290919082900301818387803b158015610eae57600080fd5b505af1158015610ec2573d6000803e3d6000fd5b5050506000898152601960209081526040808320839055601882528083209290925581518b815291513393507f6f5ff198710d7a701fdb597ef28b78d66041e6d096918b8ccb5c6b8ef02da79f9281900390910190a25050505050505050565b6000546001600160a01b03163314610f72576040805162461bcd60e51b815260206004820152600e60248201526d6e6f7420676f7665726e616e636560901b604482015290519081900360640190fd5b600b55565b6000546001600160a01b03163314610fc7576040805162461bcd60e51b815260206004820152600e60248201526d6e6f7420676f7665726e616e636560901b604482015290519081900360640190fd5b6000610fd16120e4565b600a55610fdc611aff565b6009556001600160a01b0381161561102357610ff781610995565b6001600160a01b038216600090815260116020908152604080832093909355600a546010909152919020555b60135460ff1615611069576040805162461bcd60e51b815260206004820152600b60248201526a1a185cc81cdd185c9d195960aa1b604482015290519081900360640190fd5b6013805460ff191660019081179091554260065560055460088190559054604080516340c10f1960e01b81523060048201526024810193909352516001600160a01b03909116916340c10f1991604480830192600092919082900301818387803b1580156110d657600080fd5b505af11580156110ea573d6000803e3d6000fd5b50506006546009819055611104925090506203f480612621565b60075560055460408051918252516000805160206128a08339815191529181900360200190a150565b600a5481565b6001546001600160a01b031681565b60075481565b60135460009060ff1661115d57506000611243565b7f1d823cdc8f0514a95b53538df2d2f3deaf98d1c534c6e750daa593173c27f8f08585858560405180856001600160a01b03168152602001846001600160a01b0316815260200183815260200180602001828103825283818151815260200191508051906020019080838360005b838110156111e35781810151838201526020016111cb565b50505050905090810190601f1680156112105780820380516001836020036101000a031916815260200191505b509550505050505060405180910390a1507f150b7a023d4804d13e8c85fb27262cb750cf6ba9f9dd3bb30d90f482ceeb4b1f5b949350505050565b6000546001600160a01b0316331461129b576040805162461bcd60e51b815260206004820152600e60248201526d6e6f7420676f7665726e616e636560901b604482015290519081900360640190fd5b600380546001600160a01b0319166001600160a01b0392909216919091179055565b60155481565b600d5481565b6203f48081565b6000546001600160a01b031681565b60176020526000908152604090205481565b6002546001600160a01b0383811691161415611340576040805162461bcd60e51b81526020600482015260096024820152686e6674207374616b6560b81b604482015290519081900360640190fd5b6000805460408051632142170760e11b81523060048201526001600160a01b039283166024820152604481018590529051918516926342842e0e9260648084019382900301818387803b15801561139657600080fd5b505af11580156113aa573d6000803e3d6000fd5b505050505050565b601a5481565b6004546001600160a01b031681565b6003546001600160a01b031681565b60145481565b60135460ff161515600114611426576040805162461bcd60e51b815260206004820152600b60248201526a1b9bdd081cdd185c9d195960aa1b604482015290519081900360640190fd5b6006544211611468576040805162461bcd60e51b81526020600482015260096024820152681b9bdd081cdd185c9d60ba1b604482015290519081900360640190fd5b336000908152601d60209081526040918290208054835181840281018401909452808452606093928301828280156114bf57602002820191906000526020600020905b8154815260200190600101908083116114ab575b5050505050905060005b81518160ff16101561151b576000828260ff16815181106114e657fe5b6020026020010151111561151357611513828260ff168151811061150657fe5b6020026020010151610a05565b6001016114c9565b5050565b336115286120e4565b600a55611533611aff565b6009556001600160a01b0381161561157a5761154e81610995565b6001600160a01b038216600090815260116020908152604080832093909355600a546010909152919020555b60075442106116485761159e60646109f1603260055461255a90919063ffffffff16565b6005819055600154604080516340c10f1960e01b81523060048201526024810193909352516001600160a01b03909116916340c10f1991604480830192600092919082900301818387803b1580156115f557600080fd5b505af1158015611609573d6000803e3d6000fd5b5050600554600855506116219050426203f480612621565b60075560055460408051918252516000805160206128a08339815191529181900360200190a15b60135460ff161515600114611692576040805162461bcd60e51b815260206004820152600b60248201526a1b9bdd081cdd185c9d195960aa1b604482015290519081900360640190fd5b60065442116116d4576040805162461bcd60e51b81526020600482015260096024820152681b9bdd081cdd185c9d60ba1b604482015290519081900360640190fd5b60006116df33610995565b9050801561151b57336000908152601160205260408120819055600e54600b5461170f91906109f190859061255a565b905061171a8161267b565b600061172683836124fd565b600f5433600090815260126020526040812054929350910142101561176357611760600e546109f1600d548561255a90919063ffffffff16565b90505b801561177f576117728161267b565b61177c82826124fd565b91505b8115611806576001546040805163a9059cbb60e01b81523360048201526024810185905290516001600160a01b039092169163a9059cbb916044808201926020929091908290030181600087803b1580156117d957600080fd5b505af11580156117ed573d6000803e3d6000fd5b505050506040513d602081101561180357600080fd5b50505b60408051838152905133917fe2403640ba68fed3a2f88b7557551d1993f84b99bb10ff833f0cf8db0c5e0486919081900360200190a25050505050565b601b6020526000908152604090205481565b60006118746107d06109f16103e860155461255a90919063ffffffff16565b82101561188357506001610a00565b816118a16107d06109f16103e860155461255a90919063ffffffff16565b111580156118ca57506118c76107d06109f161064060155461255a90919063ffffffff16565b82105b156118d757506002610a00565b816118f56107d06109f161064060155461255a90919063ffffffff16565b1115801561191e575061191b6107d06109f161070860155461255a90919063ffffffff16565b82105b1561192b57506003610a00565b816119496107d06109f161070860155461255a90919063ffffffff16565b11158015611972575061196f6107d06109f16107bc60155461255a90919063ffffffff16565b82105b1561197f57506004610a00565b8161199d6107d06109f16107bc60155461255a90919063ffffffff16565b111580156119c657506119c36107d06109f16107cb60155461255a90919063ffffffff16565b82105b156119d357506005610a00565b506006610a00565b6000546001600160a01b03163314611a2b576040805162461bcd60e51b815260206004820152600e60248201526d6e6f7420676f7665726e616e636560901b604482015290519081900360640190fd5b601c55565b60126020526000908152604090205481565b6000546001600160a01b03163314611a92576040805162461bcd60e51b815260206004820152600e60248201526d6e6f7420676f7665726e616e636560901b604482015290519081900360640190fd5b600480546001600160a01b0319166001600160a01b0392909216919091179055565b60106020526000908152604090205481565b60085481565b60095481565b6001600160a01b031660009081526017602052604090205490565b60116020526000908152604090205481565b6000611b0d42600754612829565b90505b90565b6002546001600160a01b031681565b60165490565b601c5481565b600e5481565b6000546001600160a01b03163314611b84576040805162461bcd60e51b815260206004820152600e60248201526d6e6f7420676f7665726e616e636560901b604482015290519081900360640190fd5b600f55565b601e6020526000908152604090205481565b600f5481565b6000546001600160a01b03163314611bf1576040805162461bcd60e51b815260206004820152600e60248201526d6e6f7420676f7665726e616e636560901b604482015290519081900360640190fd5b600d55565b33611bff6120e4565b600a55611c0a611aff565b6009556001600160a01b03811615611c5157611c2581610995565b6001600160a01b038216600090815260116020908152604080832093909355600a546010909152919020555b6007544210611d1f57611c7560646109f1603260055461255a90919063ffffffff16565b6005819055600154604080516340c10f1960e01b81523060048201526024810193909352516001600160a01b03909116916340c10f1991604480830192600092919082900301818387803b158015611ccc57600080fd5b505af1158015611ce0573d6000803e3d6000fd5b505060055460085550611cf89050426203f480612621565b60075560055460408051918252516000805160206128a08339815191529181900360200190a15b60135460ff161515600114611d69576040805162461bcd60e51b815260206004820152600b60248201526a1b9bdd081cdd185c9d195960aa1b604482015290519081900360640190fd5b6006544211611dab576040805162461bcd60e51b81526020600482015260096024820152681b9bdd081cdd185c9d60ba1b604482015290519081900360640190fd5b336000908152601d602090815260408083208054600181018255818552838520018890558054888552601e9093529083206000199092019091559080611df086611855565b9050611dfc8187612372565b336000908152601b6020526040812054601c5492945091611e1d8389612621565b1115611e3557601c54611e3090836124fd565b611e37565b865b90508015611ee357601454600090611e53906109f1878561255a565b336000908152601b6020526040902054909150611e709083612621565b336000908152601b6020908152604080832093909355601790522054611e969082612621565b336000908152601760209081526040808320939093558c8252601981528282208590556018905220819055601a54611ece9083612621565b601a55601654611ede9082612621565b601655505b60025460408051632142170760e11b8152336004820152306024820152604481018c905290516001600160a01b03909216916342842e0e9160648082019260009290919082900301818387803b158015611f3c57600080fd5b505af1158015611f50573d6000803e3d6000fd5b50503360008181526012602090815260409182902042905581518e815291519294507fa3a2f4924c244b65a4ecb0f6c615dc546a3510483f569d676ae4485f759d98d79350908290030190a2505050505050505050565b6000546001600160a01b03163314611ff7576040805162461bcd60e51b815260206004820152600e60248201526d6e6f7420676f7665726e616e636560901b604482015290519081900360640190fd5b6001600160a01b038116612052576040805162461bcd60e51b815260206004820152601f60248201527f6e657720676f7665726e616e636520746865207a65726f206164647265737300604482015290519081900360640190fd5b600080546040516001600160a01b03808516939216917f5f56bee8cffbe9a78652a74a60705edede02af10b0bbb888ca44b79a0d42ce8091a3600080546001600160a01b0319166001600160a01b0392909216919091179055565b600c5481565b601d60205281600052604060002081815481106120cf57600080fd5b90600052602060002001600091509150505481565b60006120ee611b22565b6120fb5750600a54611b10565b611b0d612129612109611b22565b6109f1670de0b6b3a76400006109eb6008546109eb6009546109dc611aff565b600a5490612621565b6001600160a01b0381166000908152601d602090815260409182902080548351818402810184019094528084526060939283018282801561219257602002820191906000526020600020905b81548152602001906001019080831161217e575b50505050509050919050565b60196020526000908152604090205481565b60135460ff1681565b60165481565b6121c76113dc565b6121cf61151f565b565b6000546001600160a01b03163314612221576040805162461bcd60e51b815260206004820152600e60248201526d6e6f7420676f7665726e616e636560901b604482015290519081900360640190fd5b6001546001600160a01b038381169116141561226d576040805162461bcd60e51b81526020600482015260066024820152651c995dd85c9960d21b604482015290519081900360640190fd5b600080546040805163a9059cbb60e01b81526001600160a01b0392831660048201526024810185905290519185169263a9059cbb926044808401936020939083900390910190829087803b1580156122c457600080fd5b505af11580156122d8573d6000803e3d6000fd5b505050506040513d60208110156122ee57600080fd5b50505050565b600b5481565b6000546001600160a01b0316331461234a576040805162461bcd60e51b815260206004820152600e60248201526d6e6f7420676f7665726e616e636560901b604482015290519081900360640190fd5b600c55565b60065481565b6000600754421061236857506000611b10565b4260075403905090565b600080831180156123835750600783105b6123c7576040805162461bcd60e51b815260206004820152601060248201526f746865206e6674206e6f74204369666960801b604482015290519081900360640190fd5b600083600114156123f057506113886127108302046123e881612af8612621565b9150506124df565b836002141561242257610bb8612408846113886124fd565b612710028161241357fe5b0490506123e881612ee0612621565b8360031415612454576103e861243a84611f406124fd565b612710028161244557fe5b0490506123e8816132c8612621565b83600414156124865761038461246c846123286124fd565b613a98028161247757fe5b0490506123e8816136b0612621565b83600514156124b757604b61249d846126ac6124fd565b613a9802816124a857fe5b0490506123e881613a98612621565b60196124c5846126f76124fd565b613a9802816124d057fe5b0490506123e881614650612621565b92915050565b60186020526000908152604090205481565b60055481565b600082821115612554576040805162461bcd60e51b815260206004820152601e60248201527f536166654d6174683a207375627472616374696f6e206f766572666c6f770000604482015290519081900360640190fd5b50900390565b600082612569575060006124df565b8282028284828161257657fe5b04146125b35760405162461bcd60e51b81526004018080602001828103825260218152602001806128c06021913960400191505060405180910390fd5b9392505050565b6000808211612610576040805162461bcd60e51b815260206004820152601a60248201527f536166654d6174683a206469766973696f6e206279207a65726f000000000000604482015290519081900360640190fd5b81838161261957fe5b049392505050565b6000828201838110156125b3576040805162461bcd60e51b815260206004820152601b60248201527f536166654d6174683a206164646974696f6e206f766572666c6f770000000000604482015290519081900360640190fd5b600081116126c1576040805162461bcd60e51b815260206004820152600e60248201526d1a5b9d985b1a5908185b5bdd5b9d60921b604482015290519081900360640190fd5b60006126de600b546109f1600c548561255a90919063ffffffff16565b9050801561276d57600154600480546040805163a9059cbb60e01b81526001600160a01b0392831693810193909352602483018590525192169163a9059cbb916044808201926020929091908290030181600087803b15801561274057600080fd5b505af1158015612754573d6000803e3d6000fd5b505050506040513d602081101561276a57600080fd5b50505b6000612796600b546109f161278f600c54600b546124fd90919063ffffffff16565b869061255a565b90508015612824576001546003546040805163a9059cbb60e01b81526001600160a01b039283166004820152602481018590529051919092169163a9059cbb9160448083019260209291908290030181600087803b1580156127f757600080fd5b505af115801561280b573d6000803e3d6000fd5b505050506040513d602081101561282157600080fd5b50505b505050565b600081831061283857816125b3565b5090919050565b82805482825590600052602060002090810192821561287a579160200282015b8281111561287a57825182559160200191906001019061285f565b5061288692915061288a565b5090565b5b80821115612886576000815560010161288b56fede88a922e0d3b88b24e9623efeb464919c6bf9f66857a65e2bfcf2ce87a9433d536166654d6174683a206d756c7469706c69636174696f6e206f766572666c6f77a264697066735822122099c79d3bcaaf28fa3a834341b1afb476b89cb4bd272104c64484cc5811a31f4864736f6c63430007040033",
  "immutableReferences": {},
  "source": "// SPDX-License-Identifier: MIT\r\npragma solidity ^0.7.4;\r\n\r\nimport \"@openzeppelin/contracts/math/Math.sol\";\r\nimport \"@openzeppelin/contracts/math/SafeMath.sol\";\r\nimport \"@openzeppelin/contracts/token/ERC721/IERC721.sol\";\r\n\r\nimport \"../library/Governance.sol\";\r\nimport \"../interface/IPool.sol\";\r\nimport \"../interface/ICifi_Token.sol\";\r\nimport \"../interface/INftAsset.sol\";\r\n\r\ncontract NftStaking is IPool, Governance {\r\n    using SafeMath for uint256;\r\n\r\n    ICifi_Token public _cifi = ICifi_Token(0x0);\r\n    INftAsset public _nftAsset = INftAsset(0x0);\r\n    address public _teamWallet = address(0x0);\r\n    address public _dividendPool = address(0x0);\r\n\r\n    uint256 public constant DURATION =  3 days; // 28 days;\r\n    uint256 public _initReward = 347222 * 1e10; // 600 * 1e18;\r\n    uint256 public _startTime = block.timestamp + 365 days;\r\n    uint256 public _periodFinish = 0;\r\n    uint256 public _rewardRate = 0;\r\n    uint256 public _lastUpdateTime;\r\n    uint256 public _rewardPerTokenStored;\r\n\r\n    uint256 public _teamRewardRate = 500;\r\n    uint256 public _dividendRate = 500; //400;\r\n    uint256 public _penaltyRate = 500;\r\n    uint256 public _baseRate = 10000;\r\n    uint256 public _punishTime = 7 days;\r\n\r\n    mapping(address => uint256) public _userRewardPerTokenPaid;\r\n    mapping(address => uint256) public _rewards;\r\n    mapping(address => uint256) public _lastStakedTime;\r\n\r\n    bool public _hasStart = false;\r\n    uint256 public _fixRateBase = 10000;\r\n\r\n    uint256 public _stakingPowaBase = 10000;\r\n    uint256 public _totalPowa;\r\n\r\n    mapping(address => uint256) public _powaBalances;\r\n    mapping(uint256 => uint256) public _powas;\r\n    mapping(uint256 => uint256) public _stakeBalances;\r\n\r\n    uint256 public _totalBalance;\r\n    mapping(address => uint256) public _faceValues;\r\n    uint256 public _maxStakedCifi = 200 * 1e18;\r\n\r\n    mapping(address => uint256[]) public _tokensOfUser;\r\n    mapping(uint256 => uint256) public _nftMapIndex;\r\n\r\n    event RewardAdded(uint256 reward);\r\n    event StakedNFT(address indexed user, uint256 amount);\r\n    event WithdrawnNFT(address indexed user, uint256 amount);\r\n    event RewardPaid(address indexed user, uint256 reward);\r\n    event NFTReceived(\r\n        address operator,\r\n        address from,\r\n        uint256 tokenId,\r\n        bytes data\r\n    );\r\n\r\n    constructor(\r\n        address cifi,\r\n        address nftAsset /*, address nftFactory*/\r\n    ) {\r\n        _cifi = ICifi_Token(cifi);\r\n        _nftAsset = INftAsset(nftAsset);\r\n        _teamWallet = msg.sender;\r\n        _dividendPool = msg.sender;\r\n    }\r\n\r\n    modifier updateReward(address account) {\r\n        _rewardPerTokenStored = rewardPerToken();\r\n        _lastUpdateTime = lastTimeRewardApplicable();\r\n        if (account != address(0)) {\r\n            _rewards[account] = earned(account);\r\n            _userRewardPerTokenPaid[account] = _rewardPerTokenStored;\r\n        }\r\n        _;\r\n    }\r\n\r\n    function setMaxStakedCifi(uint256 amount) external onlyGovernance {\r\n        _maxStakedCifi = amount;\r\n    }\r\n\r\n    /* Fee collection for any other token */\r\n    function seize(ICifi_Token token, uint256 amount) external onlyGovernance {\r\n        require(token != _cifi, \"reward\");\r\n        token.transfer(_governance, amount);\r\n    }\r\n\r\n    /* Fee collection for any other token */\r\n    function seizeErc721(IERC721 token, uint256 tokenId) external {\r\n        require(token != _nftAsset, \"nft stake\");\r\n        token.safeTransferFrom(address(this), _governance, tokenId);\r\n    }\r\n\r\n    function lastTimeRewardApplicable() public view returns (uint256) {\r\n        return Math.min(block.timestamp, _periodFinish);\r\n    }\r\n\r\n    function rewardPerToken() public view returns (uint256) {\r\n        if (totalPowa() == 0) {\r\n            return _rewardPerTokenStored;\r\n        }\r\n        return\r\n            _rewardPerTokenStored.add(\r\n                lastTimeRewardApplicable()\r\n                    .sub(_lastUpdateTime)\r\n                    .mul(_rewardRate)\r\n                    .mul(1e18)\r\n                    .div(totalPowa())\r\n            );\r\n    }\r\n\r\n    function earned(address account) public view returns (uint256) {\r\n        return\r\n            balanceOf(account)\r\n                .mul(rewardPerToken().sub(_userRewardPerTokenPaid[account]))\r\n                .div(1e18)\r\n                .add(_rewards[account]);\r\n    }\r\n\r\n    //the class is a number between 1-6\r\n    //the stakingPowa is a number between 1-10000\r\n    /*\r\n    1   stakingPowa\t1.1+ 1*stakingPowa/5000\r\n    2\tstakingPowa\t1.2+ 1*(stakingPowa-5000)/3000\r\n    3\tstakingPowa\t1.3+ 1*(stakingPowa-8000/1000\r\n    4\tstakingPowa\t1.4+ 1.5*(stakingPowa-9000)/900\r\n    5\tstakingPowa\t1.5+ 1.5*(stakingPowa-9900)/75\r\n    6\tstakingPowa\t1.6+ 1.5*(stakingPowa-9975)/25\r\n    */\r\n\r\n    function getMiningPowa(uint256 class, uint256 stakingPowa)\r\n        public\r\n        pure\r\n        returns (uint256)\r\n    {\r\n        require(class > 0 && class < 7, \"the nft not Cifi\");\r\n\r\n        uint256 unfold = 0;\r\n\r\n        if (class == 1) {\r\n            unfold = (stakingPowa * 10000) / 5000;\r\n            return unfold.add(11000);\r\n        } else if (class == 2) {\r\n            unfold = (stakingPowa.sub(5000) * 10000) / 3000;\r\n            return unfold.add(12000);\r\n        } else if (class == 3) {\r\n            unfold = (stakingPowa.sub(8000) * 10000) / 1000;\r\n            return unfold.add(13000);\r\n        } else if (class == 4) {\r\n            unfold = (stakingPowa.sub(9000) * 15000) / 900;\r\n            return unfold.add(14000);\r\n        } else if (class == 5) {\r\n            unfold = (stakingPowa.sub(9900) * 15000) / 75;\r\n            return unfold.add(15000);\r\n        } else {\r\n            unfold = (stakingPowa.sub(9975) * 15000) / 25;\r\n            return unfold.add(18000);\r\n        }\r\n    }\r\n\r\n    function getClass(uint256 stakingPowa) public view returns (uint256) {\r\n        if (stakingPowa < _stakingPowaBase.mul(1000).div(2000)) {\r\n            return 1;\r\n        } else if (\r\n            _stakingPowaBase.mul(1000).div(2000) <= stakingPowa &&\r\n            stakingPowa < _stakingPowaBase.mul(1600).div(2000)\r\n        ) {\r\n            return 2;\r\n        } else if (\r\n            _stakingPowaBase.mul(1600).div(2000) <= stakingPowa &&\r\n            stakingPowa < _stakingPowaBase.mul(1800).div(2000)\r\n        ) {\r\n            return 3;\r\n        } else if (\r\n            _stakingPowaBase.mul(1800).div(2000) <= stakingPowa &&\r\n            stakingPowa < _stakingPowaBase.mul(1980).div(2000)\r\n        ) {\r\n            return 4;\r\n        } else if (\r\n            _stakingPowaBase.mul(1980).div(2000) <= stakingPowa &&\r\n            stakingPowa < _stakingPowaBase.mul(1995).div(2000)\r\n        ) {\r\n            return 5;\r\n        } else {\r\n            return 6;\r\n        }\r\n    }\r\n\r\n    function getRarity(uint256 class) internal pure returns (uint256 rarity) {\r\n        if (class == 1) {\r\n            rarity = 5000;\r\n        } else if (class == 2) {\r\n            rarity = 3000;\r\n        } else if (class == 3) {\r\n            rarity = 1000;\r\n        } else if (class == 4) {\r\n            rarity = 900;\r\n        } else if (class == 5) {\r\n            rarity = 75;\r\n        } else {\r\n            rarity = 25;\r\n        }\r\n    }\r\n\r\n    // stake NFT\r\n    function stakeNFT(\r\n        uint256 nftId,\r\n        uint256 stakingPowa,\r\n        uint256 face_value\r\n    ) public updateReward(msg.sender) checkHalve checkStart {\r\n        uint256[] storage nftIds = _tokensOfUser[msg.sender];\r\n\r\n        nftIds.push(nftId);\r\n        _nftMapIndex[nftId] = nftIds.length - 1;\r\n\r\n        uint256 miningPowa;\r\n        uint256 class;\r\n        class = getClass(stakingPowa);\r\n        miningPowa = getMiningPowa(class, stakingPowa);\r\n\r\n        uint256 stakedface_value = _faceValues[msg.sender];\r\n        uint256 stakingface_value = stakedface_value.add(face_value) <=\r\n            _maxStakedCifi\r\n            ? face_value\r\n            : _maxStakedCifi.sub(stakedface_value);\r\n\r\n        if (stakingface_value > 0) {\r\n            uint256 stake_powa = miningPowa.mul(stakingface_value).div(\r\n                _fixRateBase\r\n            );\r\n            _faceValues[msg.sender] = _faceValues[msg.sender].add(\r\n                stakingface_value\r\n            );\r\n\r\n            _powaBalances[msg.sender] = _powaBalances[msg.sender].add(\r\n                stake_powa\r\n            );\r\n\r\n            _stakeBalances[nftId] = stakingface_value;\r\n            _powas[nftId] = stake_powa;\r\n\r\n            _totalBalance = _totalBalance.add(stakingface_value);\r\n            _totalPowa = _totalPowa.add(stake_powa);\r\n        }\r\n\r\n        _nftAsset.safeTransferFrom(msg.sender, address(this), nftId);\r\n\r\n        _lastStakedTime[msg.sender] = block.timestamp;\r\n        emit StakedNFT(msg.sender, nftId);\r\n    }\r\n\r\n    function onERC721Received(\r\n        address operator,\r\n        address from,\r\n        uint256 tokenId,\r\n        bytes memory data\r\n    ) public returns (bytes4) {\r\n        if (_hasStart == false) {\r\n            return 0;\r\n        }\r\n\r\n        emit NFTReceived(operator, from, tokenId, data);\r\n        return\r\n            bytes4(\r\n                keccak256(\"onERC721Received(address,address,uint256,bytes)\")\r\n            );\r\n    }\r\n\r\n    function withdrawNFT(uint256 nftId)\r\n        public\r\n        updateReward(msg.sender)\r\n        checkHalve\r\n        checkStart\r\n    {\r\n        require(nftId > 0, \"the nftId error\");\r\n\r\n        uint256[] memory nftIds = _tokensOfUser[msg.sender];\r\n        uint256 nftIndex = _nftMapIndex[nftId];\r\n\r\n        require(nftIds[nftIndex] == nftId, \"not nftId owner\");\r\n\r\n        uint256[] memory newIds = new uint256[](nftIds.length - 1);\r\n        uint256 j = 0;\r\n        for (uint256 i = 0; i < nftIds.length; i++) {\r\n            if (nftIds[i] != nftId) {\r\n                _nftMapIndex[nftIds[i]] = j;\r\n                newIds[j++] = (nftIds[i]);\r\n            }\r\n        }\r\n        _tokensOfUser[msg.sender] = newIds;\r\n\r\n        uint256 stake_powa = _powas[nftId];\r\n        _powaBalances[msg.sender] = _powaBalances[msg.sender].sub(stake_powa);\r\n        _totalPowa = _totalPowa.sub(stake_powa);\r\n\r\n        uint256 stakeBalance = _stakeBalances[nftId];\r\n        _faceValues[msg.sender] = _faceValues[msg.sender].sub(stakeBalance);\r\n        _totalBalance = _totalBalance.sub(stakeBalance);\r\n\r\n        _nftAsset.safeTransferFrom(address(this), msg.sender, nftId);\r\n\r\n        _stakeBalances[nftId] = 0;\r\n        _powas[nftId] = 0;\r\n\r\n        emit WithdrawnNFT(msg.sender, nftId);\r\n    }\r\n\r\n    function withdraw() public checkStart {\r\n        uint256[] memory nftIds = _tokensOfUser[msg.sender];\r\n        for (uint8 index = 0; index < nftIds.length; index++) {\r\n            if (nftIds[index] > 0) {\r\n                withdrawNFT(nftIds[index]);\r\n            }\r\n        }\r\n    }\r\n\r\n    function getNftIds(address account)\r\n        public\r\n        view\r\n        returns (uint256[] memory nftIds)\r\n    {\r\n        nftIds = _tokensOfUser[account];\r\n    }\r\n\r\n    function exit() external {\r\n        withdraw();\r\n        getReward();\r\n    }\r\n\r\n    function divideDeduction(uint256 amount) internal {\r\n        require(amount > 0, \"invalid amount\");\r\n        uint256 dividendReward = amount.mul(_dividendRate).div(_teamRewardRate);\r\n        if (dividendReward > 0) {\r\n            _cifi.transfer(_dividendPool, dividendReward);\r\n        }\r\n        uint256 teamReward = amount.mul(_teamRewardRate.sub(_dividendRate)).div(\r\n            _teamRewardRate\r\n        );\r\n        if (teamReward > 0) {\r\n            _cifi.transfer(_teamWallet, teamReward);\r\n        }\r\n    }\r\n\r\n    function getReward() public updateReward(msg.sender) checkHalve checkStart {\r\n        uint256 reward = earned(msg.sender);\r\n        if (reward > 0) {\r\n            _rewards[msg.sender] = 0;\r\n\r\n            uint256 harvestReward = reward.mul(_teamRewardRate).div(_baseRate);\r\n            divideDeduction(harvestReward);\r\n            uint256 leftReward = reward.sub(harvestReward);\r\n            uint256 penaltyReward = 0;\r\n\r\n            //withdraw time check\r\n\r\n            if (block.timestamp < (_lastStakedTime[msg.sender] + _punishTime)) {\r\n                penaltyReward = leftReward.mul(_penaltyRate).div(_baseRate);\r\n            }\r\n            if (penaltyReward > 0) {\r\n                divideDeduction(penaltyReward);\r\n                leftReward = leftReward.sub(penaltyReward);\r\n            }\r\n\r\n            if (leftReward > 0) {\r\n                _cifi.transfer(msg.sender, leftReward);\r\n            }\r\n\r\n            emit RewardPaid(msg.sender, leftReward);\r\n        }\r\n    }\r\n\r\n    modifier checkHalve() {\r\n        if (block.timestamp >= _periodFinish) {\r\n            _initReward = _initReward.mul(50).div(100);\r\n\r\n            _cifi.mint(address(this), _initReward);\r\n\r\n            _rewardRate = _initReward;\r\n            _periodFinish = block.timestamp.add(DURATION);\r\n            emit RewardAdded(_initReward);\r\n        }\r\n        _;\r\n    }\r\n\r\n    modifier checkStart() {\r\n        require(_hasStart == true, \"not started\");\r\n        require(block.timestamp > _startTime, \"not start\");\r\n        _;\r\n    }\r\n\r\n    function getRemainTime() public view returns (uint256) {\r\n        if (block.timestamp >= _periodFinish) {\r\n            return 0;\r\n        }\r\n        return _periodFinish - block.timestamp;\r\n    }\r\n\r\n    // set fix time to start reward\r\n    function startNFTReward() external onlyGovernance updateReward(address(0)) {\r\n        require(_hasStart == false, \"has started\");\r\n        _hasStart = true;\r\n\r\n        _startTime = block.timestamp;\r\n\r\n        _rewardRate = _initReward;\r\n        _cifi.mint(address(this), _initReward);\r\n\r\n        _lastUpdateTime = _startTime;\r\n        _periodFinish = _startTime.add(DURATION);\r\n\r\n        emit RewardAdded(_initReward);\r\n    }\r\n\r\n    function setTeamRewardRate(uint256 teamRewardRate) public onlyGovernance {\r\n        _teamRewardRate = teamRewardRate;\r\n    }\r\n\r\n    function setDividenRate(uint256 dividendRate) public onlyGovernance {\r\n        _dividendRate = dividendRate;\r\n    }\r\n\r\n    function setPenaltyRate(uint256 penaltyRate) public onlyGovernance {\r\n        _penaltyRate = penaltyRate;\r\n    }\r\n\r\n    function setTeamWallet(address teamWallet) public onlyGovernance {\r\n        _teamWallet = teamWallet;\r\n    }\r\n\r\n    function setDividenPool(address dividendPool) public onlyGovernance {\r\n        _dividendPool = dividendPool;\r\n    }\r\n\r\n    function totalPowa() public view override returns (uint256) {\r\n        return _totalPowa;\r\n    }\r\n\r\n    function balanceOf(address account) public view override returns (uint256) {\r\n        return _powaBalances[account];\r\n    }\r\n\r\n    function setWithDrawPunishTime(uint256 punishTime) public onlyGovernance {\r\n        _punishTime = punishTime;\r\n    }\r\n}\r\n",
  "sourcePath": "F:\\citizen\\santafeapp\\src\\contracts\\reward\\NftStaking.sol",
  "compiler": {
    "name": "solc",
    "version": "0.7.4+commit.3f05b770.Emscripten.clang"
  },
  "schemaVersion": "3.4.2",
  "updatedAt": "2021-08-16T15:39:51.066Z",
  "networkType": "ethereum",
  "devdoc": {
    "kind": "dev",
    "methods": {},
    "version": 1
  },
  "userdoc": {
    "kind": "user",
    "methods": {},
    "version": 1
  }
}