{
  "contractName": "SantaFactoryV3",
  "abi": [
    {
      "inputs": [
        {
          "internalType": "address",
          "name": "cifi",
          "type": "address"
        },
        {
          "internalType": "address",
          "name": "vrfCoordinator",
          "type": "address"
        },
        {
          "internalType": "address",
          "name": "linkToken",
          "type": "address"
        },
        {
          "internalType": "bytes32",
          "name": "linkKeyHash",
          "type": "bytes32"
        },
        {
          "internalType": "uint256",
          "name": "linkFee",
          "type": "uint256"
        }
      ],
      "stateMutability": "nonpayable",
      "type": "constructor"
    },
    {
      "anonymous": false,
      "inputs": [
        {
          "indexed": true,
          "internalType": "address",
          "name": "previousOwner",
          "type": "address"
        },
        {
          "indexed": true,
          "internalType": "address",
          "name": "newOwner",
          "type": "address"
        }
      ],
      "name": "GovernanceTransferred",
      "type": "event"
    },
    {
      "anonymous": false,
      "inputs": [
        {
          "indexed": false,
          "internalType": "string",
          "name": "name",
          "type": "string"
        },
        {
          "indexed": false,
          "internalType": "string",
          "name": "symbol",
          "type": "string"
        },
        {
          "indexed": false,
          "internalType": "address",
          "name": "acceptedToken",
          "type": "address"
        },
        {
          "indexed": false,
          "internalType": "address",
          "name": "santa",
          "type": "address"
        },
        {
          "indexed": false,
          "internalType": "uint256",
          "name": "maxCount",
          "type": "uint256"
        }
      ],
      "name": "SantaV2Created",
      "type": "event"
    },
    {
      "anonymous": false,
      "inputs": [
        {
          "indexed": false,
          "internalType": "address",
          "name": "santa",
          "type": "address"
        },
        {
          "indexed": true,
          "internalType": "uint256",
          "name": "id",
          "type": "uint256"
        },
        {
          "indexed": false,
          "internalType": "address",
          "name": "author",
          "type": "address"
        },
        {
          "indexed": false,
          "internalType": "uint256",
          "name": "face_value",
          "type": "uint256"
        }
      ],
      "name": "SantaV2NFTAdded",
      "type": "event"
    },
    {
      "inputs": [],
      "name": "_feeAccount",
      "outputs": [
        {
          "internalType": "address",
          "name": "",
          "type": "address"
        }
      ],
      "stateMutability": "view",
      "type": "function"
    },
    {
      "inputs": [],
      "name": "_feeAmount",
      "outputs": [
        {
          "internalType": "uint256",
          "name": "",
          "type": "uint256"
        }
      ],
      "stateMutability": "view",
      "type": "function"
    },
    {
      "inputs": [],
      "name": "_governance",
      "outputs": [
        {
          "internalType": "address",
          "name": "",
          "type": "address"
        }
      ],
      "stateMutability": "view",
      "type": "function"
    },
    {
      "inputs": [
        {
          "internalType": "address",
          "name": "",
          "type": "address"
        }
      ],
      "name": "_lastMintedNFTId",
      "outputs": [
        {
          "internalType": "uint256",
          "name": "",
          "type": "uint256"
        }
      ],
      "stateMutability": "view",
      "type": "function"
    },
    {
      "inputs": [
        {
          "internalType": "address",
          "name": "",
          "type": "address"
        }
      ],
      "name": "_lastMintedNFTSantaAddress",
      "outputs": [
        {
          "internalType": "address",
          "name": "",
          "type": "address"
        }
      ],
      "stateMutability": "view",
      "type": "function"
    },
    {
      "inputs": [
        {
          "internalType": "address",
          "name": "",
          "type": "address"
        }
      ],
      "name": "_mintingStatus",
      "outputs": [
        {
          "internalType": "bool",
          "name": "",
          "type": "bool"
        }
      ],
      "stateMutability": "view",
      "type": "function"
    },
    {
      "inputs": [
        {
          "internalType": "uint256",
          "name": "",
          "type": "uint256"
        }
      ],
      "name": "_names",
      "outputs": [
        {
          "internalType": "string",
          "name": "",
          "type": "string"
        }
      ],
      "stateMutability": "view",
      "type": "function"
    },
    {
      "inputs": [
        {
          "internalType": "address",
          "name": "",
          "type": "address"
        },
        {
          "internalType": "uint256",
          "name": "",
          "type": "uint256"
        }
      ],
      "name": "_santas",
      "outputs": [
        {
          "internalType": "address",
          "name": "santa",
          "type": "address"
        },
        {
          "internalType": "uint256",
          "name": "id",
          "type": "uint256"
        },
        {
          "internalType": "uint256",
          "name": "face_value",
          "type": "uint256"
        },
        {
          "internalType": "uint256",
          "name": "createdTime",
          "type": "uint256"
        }
      ],
      "stateMutability": "view",
      "type": "function"
    },
    {
      "inputs": [
        {
          "internalType": "bytes32",
          "name": "requestId",
          "type": "bytes32"
        },
        {
          "internalType": "uint256",
          "name": "randomness",
          "type": "uint256"
        }
      ],
      "name": "rawFulfillRandomness",
      "outputs": [],
      "stateMutability": "nonpayable",
      "type": "function"
    },
    {
      "inputs": [
        {
          "internalType": "bytes32",
          "name": "",
          "type": "bytes32"
        }
      ],
      "name": "requestIdToFaceValue",
      "outputs": [
        {
          "internalType": "uint256",
          "name": "",
          "type": "uint256"
        }
      ],
      "stateMutability": "view",
      "type": "function"
    },
    {
      "inputs": [
        {
          "internalType": "bytes32",
          "name": "",
          "type": "bytes32"
        }
      ],
      "name": "requestIdToMinter",
      "outputs": [
        {
          "internalType": "address",
          "name": "",
          "type": "address"
        }
      ],
      "stateMutability": "view",
      "type": "function"
    },
    {
      "inputs": [
        {
          "internalType": "bytes32",
          "name": "",
          "type": "bytes32"
        }
      ],
      "name": "requestIdToSanta",
      "outputs": [
        {
          "internalType": "address",
          "name": "",
          "type": "address"
        }
      ],
      "stateMutability": "view",
      "type": "function"
    },
    {
      "inputs": [
        {
          "internalType": "address",
          "name": "governance",
          "type": "address"
        }
      ],
      "name": "setGovernance",
      "outputs": [],
      "stateMutability": "nonpayable",
      "type": "function"
    },
    {
      "inputs": [
        {
          "internalType": "string",
          "name": "name",
          "type": "string"
        },
        {
          "internalType": "string",
          "name": "symbol",
          "type": "string"
        },
        {
          "internalType": "string",
          "name": "baseURI",
          "type": "string"
        },
        {
          "internalType": "address",
          "name": "acceptedToken",
          "type": "address"
        },
        {
          "internalType": "uint256",
          "name": "maxNftCount",
          "type": "uint256"
        }
      ],
      "name": "createSanta",
      "outputs": [
        {
          "internalType": "address",
          "name": "",
          "type": "address"
        }
      ],
      "stateMutability": "nonpayable",
      "type": "function"
    },
    {
      "inputs": [],
      "name": "getLastMintedNFTId",
      "outputs": [
        {
          "internalType": "uint256",
          "name": "",
          "type": "uint256"
        }
      ],
      "stateMutability": "view",
      "type": "function"
    },
    {
      "inputs": [],
      "name": "getLastMintedNFTSantaAddress",
      "outputs": [
        {
          "internalType": "address",
          "name": "",
          "type": "address"
        }
      ],
      "stateMutability": "view",
      "type": "function"
    },
    {
      "inputs": [],
      "name": "getContractCount",
      "outputs": [
        {
          "internalType": "uint256",
          "name": "",
          "type": "uint256"
        }
      ],
      "stateMutability": "view",
      "type": "function"
    },
    {
      "inputs": [
        {
          "internalType": "uint256",
          "name": "id",
          "type": "uint256"
        }
      ],
      "name": "getContractNames",
      "outputs": [
        {
          "internalType": "string",
          "name": "",
          "type": "string"
        }
      ],
      "stateMutability": "view",
      "type": "function"
    },
    {
      "inputs": [
        {
          "internalType": "string",
          "name": "name",
          "type": "string"
        }
      ],
      "name": "getContractData",
      "outputs": [
        {
          "internalType": "address",
          "name": "acceptedToken",
          "type": "address"
        },
        {
          "internalType": "uint256",
          "name": "maxCount",
          "type": "uint256"
        },
        {
          "internalType": "address",
          "name": "santa",
          "type": "address"
        }
      ],
      "stateMutability": "view",
      "type": "function"
    },
    {
      "inputs": [
        {
          "internalType": "address",
          "name": "santa",
          "type": "address"
        },
        {
          "internalType": "uint256",
          "name": "tokenId",
          "type": "uint256"
        }
      ],
      "name": "getFaceValue",
      "outputs": [
        {
          "internalType": "uint256",
          "name": "",
          "type": "uint256"
        }
      ],
      "stateMutability": "view",
      "type": "function"
    },
    {
      "inputs": [
        {
          "internalType": "bool",
          "name": "statusValue",
          "type": "bool"
        }
      ],
      "name": "setMintingStatus",
      "outputs": [
        {
          "internalType": "bool",
          "name": "",
          "type": "bool"
        }
      ],
      "stateMutability": "nonpayable",
      "type": "function"
    },
    {
      "inputs": [],
      "name": "getMintingStatus",
      "outputs": [
        {
          "internalType": "bool",
          "name": "",
          "type": "bool"
        }
      ],
      "stateMutability": "view",
      "type": "function"
    },
    {
      "inputs": [
        {
          "internalType": "address",
          "name": "cifi",
          "type": "address"
        }
      ],
      "name": "setCifiContract",
      "outputs": [],
      "stateMutability": "nonpayable",
      "type": "function"
    },
    {
      "inputs": [
        {
          "internalType": "address",
          "name": "newFeeAccount",
          "type": "address"
        }
      ],
      "name": "ChangeFeeAccount",
      "outputs": [
        {
          "internalType": "bool",
          "name": "",
          "type": "bool"
        }
      ],
      "stateMutability": "nonpayable",
      "type": "function"
    },
    {
      "inputs": [
        {
          "internalType": "uint256",
          "name": "newFeeAmount",
          "type": "uint256"
        }
      ],
      "name": "ChangeFeeAmount",
      "outputs": [
        {
          "internalType": "bool",
          "name": "",
          "type": "bool"
        }
      ],
      "stateMutability": "nonpayable",
      "type": "function"
    },
    {
      "inputs": [
        {
          "internalType": "address",
          "name": "santa",
          "type": "address"
        },
        {
          "internalType": "uint256",
          "name": "face_value",
          "type": "uint256"
        }
      ],
      "name": "mint",
      "outputs": [
        {
          "internalType": "bytes32",
          "name": "",
          "type": "bytes32"
        }
      ],
      "stateMutability": "nonpayable",
      "type": "function"
    },
    {
      "inputs": [
        {
          "internalType": "address",
          "name": "santa",
          "type": "address"
        },
        {
          "internalType": "uint256",
          "name": "tokenId",
          "type": "uint256"
        }
      ],
      "name": "retrieveToken",
      "outputs": [
        {
          "internalType": "bool",
          "name": "",
          "type": "bool"
        }
      ],
      "stateMutability": "nonpayable",
      "type": "function"
    },
    {
      "inputs": [
        {
          "internalType": "address",
          "name": "santa",
          "type": "address"
        },
        {
          "internalType": "uint256",
          "name": "tokenId",
          "type": "uint256"
        }
      ],
      "name": "burn",
      "outputs": [
        {
          "internalType": "bool",
          "name": "",
          "type": "bool"
        }
      ],
      "stateMutability": "nonpayable",
      "type": "function"
    },
    {
      "inputs": [
        {
          "internalType": "address",
          "name": "",
          "type": "address"
        },
        {
          "internalType": "address",
          "name": "",
          "type": "address"
        },
        {
          "internalType": "uint256",
          "name": "",
          "type": "uint256"
        },
        {
          "internalType": "bytes",
          "name": "",
          "type": "bytes"
        }
      ],
      "name": "onERC721Received",
      "outputs": [
        {
          "internalType": "bytes4",
          "name": "",
          "type": "bytes4"
        }
      ],
      "stateMutability": "nonpayable",
      "type": "function"
    }
  ],
  "bytecode": "0x60c0604052600980546001600160a01b0319908116909155600a805490911690556000600b819055600c819055600d5534801561003b57600080fd5b50604051615924380380615924833981810160405260a081101561005e57600080fd5b50805160208201516040830151606080850151608095860151600080546001600160a01b0319908116321782556001600160601b031987861b811660a0529486901b909416909752600980546001600160a01b03978816908516179055600a80549093163317909255670de0b6b3a7640000600b55600c91909155600d5582169291169061581b9061010990398061170652806122f5525080610e4652806122c6525061581b6000f3fe60806040523480156200001157600080fd5b5060043610620001fc5760003560e01c80639399869d116200011d578063b0fd8ea111620000b1578063dd146bb4116200007b578063dd146bb414620008e1578063e6952b5f1462000901578063ee9e756e1462000921578063ffc5dd5f146200094157620001fc565b8063b0fd8ea114620006bd578063c548e76114620006e6578063ca62a099146200070f578063d8b917dc146200071957620001fc565b80639dc29fac11620000f35780639dc29fac146200060d578063a47b252a146200063c578063a617e7581462000665578063ab033ea9146200069457620001fc565b80639399869d14620005d357806394985ddd14620005dd57806395a47652146200060357620001fc565b806340c10f1911620001955780635c511fe2116200016b5780635c511fe214620005445780637420aa3614620005875780637cf4141214620005a957806380a7e0cd14620005c957620001fc565b806340c10f1914620004365780635963bc0114620004655780635a9e497d146200053a57620001fc565b806325c5aa0611620001d757806325c5aa0614620003495780633d6134cb14620003e15780633e47b4a014620003eb5780633f84561f146200040b57620001fc565b8063150b7a0214620002015780631ab1358a14620002e85780631c2f3e3d1462000323575b600080fd5b620002cb600480360360808110156200021957600080fd5b6001600160a01b03823581169260208101359091169160408201359190810190608081016060820135600160201b8111156200025457600080fd5b8201836020820111156200026757600080fd5b803590602001918460018302840111600160201b831117156200028957600080fd5b91908080601f016020809104026020016040519081016040528093929190818152602001838380828437600092019190915250929550620009a0945050505050565b604080516001600160e01b03199092168252519081900360200190f35b62000311600480360360208110156200030057600080fd5b50356001600160a01b0316620009b0565b60408051918252519081900360200190f35b6200032d620009c2565b604080516001600160a01b039092168252519081900360200190f35b62000369600480360360208110156200036157600080fd5b5035620009d1565b6040805160208082528351818301528351919283929083019185019080838360005b83811015620003a55781810151838201526020016200038b565b50505050905090810190601f168015620003d35780820380516001836020036101000a031916815260200191505b509250505060405180910390f35b6200031162000a7f565b62000369600480360360208110156200040357600080fd5b503562000a92565b62000434600480360360208110156200042357600080fd5b50356001600160a01b031662000b40565b005b62000311600480360360408110156200044e57600080fd5b506001600160a01b03813516906020013562000bb3565b6200050f600480360360208110156200047d57600080fd5b810190602081018135600160201b8111156200049857600080fd5b820183602082011115620004ab57600080fd5b803590602001918460018302840111600160201b83111715620004cd57600080fd5b91908080601f0160208091040260200160405190810160405280939291908181526020018383808284376000920191909152509295506200113a945050505050565b604080516001600160a01b039485168152602081019390935292168183015290519081900360600190f35b6200031162001248565b62000573600480360360408110156200055c57600080fd5b506001600160a01b0381351690602001356200124e565b604080519115158252519081900360200190f35b62000573600480360360208110156200059f57600080fd5b50351515620016a0565b6200032d60048036036020811015620005c157600080fd5b5035620016be565b6200032d620016d9565b62000311620016f5565b6200043460048036036040811015620005f557600080fd5b5080359060200135620016fb565b6200057362001789565b62000573600480360360408110156200062557600080fd5b506001600160a01b0381351690602001356200179f565b62000573600480360360208110156200065457600080fd5b50356001600160a01b031662001ab7565b62000311600480360360408110156200067d57600080fd5b506001600160a01b03813516906020013562001acc565b6200043460048036036020811015620006ac57600080fd5b50356001600160a01b031662001b36565b6200032d60048036036020811015620006d557600080fd5b50356001600160a01b031662001c3e565b6200057360048036036020811015620006fe57600080fd5b50356001600160a01b031662001c59565b6200032d62001cd0565b6200032d600480360360a08110156200073157600080fd5b810190602081018135600160201b8111156200074c57600080fd5b8201836020820111156200075f57600080fd5b803590602001918460018302840111600160201b831117156200078157600080fd5b91908080601f0160208091040260200160405190810160405280939291908181526020018383808284376000920191909152509295949360208101935035915050600160201b811115620007d457600080fd5b820183602082011115620007e757600080fd5b803590602001918460018302840111600160201b831117156200080957600080fd5b91908080601f0160208091040260200160405190810160405280939291908181526020018383808284376000920191909152509295949360208101935035915050600160201b8111156200085c57600080fd5b8201836020820111156200086f57600080fd5b803590602001918460018302840111600160201b831117156200089157600080fd5b91908080601f016020809104026020016040519081016040528093929190818152602001838380828437600092019190915250929550506001600160a01b03833516935050506020013562001cdf565b6200032d60048036036020811015620008f957600080fd5b5035620021fe565b62000311600480360360208110156200091957600080fd5b503562002219565b62000573600480360360208110156200093957600080fd5b50356200222b565b62000970600480360360408110156200095957600080fd5b506001600160a01b03813516906020013562002286565b604080516001600160a01b0390951685526020850193909352838301919091526060830152519081900360800190f35b630a85bd0160e11b949350505050565b60026020526000908152604090205481565b6000546001600160a01b031681565b60068181548110620009e257600080fd5b600091825260209182902001805460408051601f600260001961010060018716150201909416939093049283018590048502810185019091528181529350909183018282801562000a775780601f1062000a4b5761010080835404028352916020019162000a77565b820191906000526020600020905b81548152906001019060200180831162000a5957829003601f168201915b505050505081565b3360009081526002602052604090205490565b60606006828154811062000aa257fe5b600091825260209182902001805460408051601f600260001961010060018716150201909416939093049283018590048502810185019091528181529283018282801562000b345780601f1062000b085761010080835404028352916020019162000b34565b820191906000526020600020905b81548152906001019060200180831162000b1657829003601f168201915b50505050509050919050565b6000546001600160a01b0316331462000b91576040805162461bcd60e51b815260206004820152600e60248201526d6e6f7420676f7665726e616e636560901b604482015290519081900360640190fd5b600980546001600160a01b0319166001600160a01b0392909216919091179055565b600062000bbf6200289f565b506001600160a01b03808416600090815260076020908152604091829020825160608101845281548516815260018201549281019290925260020154909216908201528262000c405760405162461bcd60e51b81526004018080602001828103825260338152602001806200578e6033913960400191505060405180910390fd5b60408101516001600160a01b03161580159062000c725750836001600160a01b031681604001516001600160a01b0316145b62000caf5760405162461bcd60e51b8152600401808060200182810382526023815260200180620056776023913960400191505060405180910390fd5b805160408051636eb1769f60e11b8152336004820152306024820152905185926001600160a01b03169163dd62ed3e916044808301926020929190829003018186803b15801562000cff57600080fd5b505afa15801562000d14573d6000803e3d6000fd5b505050506040513d602081101562000d2b57600080fd5b5051101562000d6c5760405162461bcd60e51b81526004018080602001828103825260328152602001806200569a6032913960400191505060405180910390fd5b8051604080516370a0823160e01b8152336004820152905185926001600160a01b0316916370a08231916024808301926020929190829003018186803b15801562000db657600080fd5b505afa15801562000dcb573d6000803e3d6000fd5b505050506040513d602081101562000de257600080fd5b5051101562000e235760405162461bcd60e51b8152600401808060200182810382526035815260200180620056fd6035913960400191505060405180910390fd5b600c54604080516370a0823160e01b815230600482015290516001600160a01b037f000000000000000000000000000000000000000000000000000000000000000016916370a08231916024808301926020929190829003018186803b15801562000e8d57600080fd5b505afa15801562000ea2573d6000803e3d6000fd5b505050506040513d602081101562000eb957600080fd5b5051101562000efa5760405162461bcd60e51b815260040180806020018281038252603b81526020018062005732603b913960400191505060405180910390fd5b8060200151846001600160a01b03166318160ddd6040518163ffffffff1660e01b815260040160206040518083038186803b15801562000f3957600080fd5b505afa15801562000f4e573d6000803e3d6000fd5b505050506040513d602081101562000f6557600080fd5b50511062000fa55760405162461bcd60e51b8152600401808060200182810382526031815260200180620056cc6031913960400191505060405180910390fd5b600954600a54600b54604080516323b872dd60e01b81523360048201526001600160a01b03938416602482015260448101929092525191909216916323b872dd9160648083019260209291908290030181600087803b1580156200100857600080fd5b505af11580156200101d573d6000803e3d6000fd5b505050506040513d60208110156200103457600080fd5b50508051604080516323b872dd60e01b81523360048201523060248201526044810186905290516001600160a01b03909216916323b872dd916064808201926020929091908290030181600087803b1580156200109057600080fd5b505af1158015620010a5573d6000803e3d6000fd5b505050506040513d6020811015620010bc57600080fd5b5050600d54600c54600091620010d291620022c2565b336000818152600460209081526040808320805460ff19166001179055848352600e825280832080546001600160a01b03199081169095179055600f825280832080546001600160a01b038c1695169490941790935560109052208590559250505092915050565b6000806000620011496200289f565b6005856040518082805190602001908083835b602083106200117d5780518252601f1990920191602091820191016200115c565b51815160209384036101000a600019018019909216911617905292019485525060408051948590038201852060608601825280546001600160a01b039081168752600182015493870193909352600201549091169084018190529293506200122f915050576040805162461bcd60e51b815260206004820152601c60248201527f53616e7461466163746f727956333a20496e76616c6964206e616d6500000000604482015290519081900360640190fd5b8051602082015160409092015190969195509350915050565b600b5481565b60006001600160a01b038316620012ac576040805162461bcd60e51b815260206004820152601b60248201527f53616e7461466163746f727956323a2021203020616464726573730000000000604482015290519081900360640190fd5b620012b6620028bf565b506001600160a01b038084166000908152600860209081526040808320868452825291829020825160808101845281549094168452600181015491840191909152600281015491830191909152600301546060820152620013166200289f565b506001600160a01b03808516600090815260076020908152604091829020825160608101845281548516815260018201548184015260029091015490931691830191909152820151620013b0576040805162461bcd60e51b815260206004820152601960248201527f53616e7461466163746f727956323a206e6f7420657869737400000000000000604482015290519081900360640190fd5b846001600160a01b031681604001516001600160a01b031614620014065760405162461bcd60e51b8152600401808060200182810382526025815260200180620057c16025913960400191505060405180910390fd5b846001600160a01b031682600001516001600160a01b0316146200145c5760405162461bcd60e51b8152600401808060200182810382526025815260200180620057c16025913960400191505060405180910390fd5b336001600160a01b0316856001600160a01b0316636352211e866040518263ffffffff1660e01b81526004018082815260200191505060206040518083038186803b158015620014ab57600080fd5b505afa158015620014c0573d6000803e3d6000fd5b505050506040513d6020811015620014d757600080fd5b50516001600160a01b03161462001535576040805162461bcd60e51b815260206004820152601d60248201527f53616e7461466163746f727956323a20496e76616c6964206f776e6572000000604482015290519081900360640190fd5b80600001516001600160a01b031663a9059cbb866001600160a01b0316636352211e876040518263ffffffff1660e01b81526004018082815260200191505060206040518083038186803b1580156200158d57600080fd5b505afa158015620015a2573d6000803e3d6000fd5b505050506040513d6020811015620015b957600080fd5b505160408086015181516001600160e01b031960e086901b1681526001600160a01b03909316600484015260248301525160448083019260209291908290030181600087803b1580156200160c57600080fd5b505af115801562001621573d6000803e3d6000fd5b505050506040513d60208110156200163857600080fd5b5050600060408381018281526001600160a01b039788168352600860209081528284209784529687529120835181546001600160a01b031916971696909617865593820151600180870191909155935160028601555060600151600390930192909255919050565b336000908152600460205260409020805460ff191682151517905590565b600f602052600090815260409020546001600160a01b031681565b336000908152600360205260409020546001600160a01b031690565b60065490565b336001600160a01b037f0000000000000000000000000000000000000000000000000000000000000000161462001779576040805162461bcd60e51b815260206004820152601f60248201527f4f6e6c7920565246436f6f7264696e61746f722063616e2066756c66696c6c00604482015290519081900360640190fd5b62001785828262002483565b5050565b3360009081526004602052604090205460ff1690565b6000620017ab620028bf565b506001600160a01b0380841660009081526008602090815260408083208684528252918290208251608081018452815490941684526001810154918401919091526002810154918301919091526003015460608201526200180b6200289f565b506001600160a01b0380851660009081526007602090815260409182902082516060810184528154851681526001820154818401526002909101549093169183019190915282015162001891576040805162461bcd60e51b81526020600482015260096024820152681b9bdd08195e1a5cdd60ba1b604482015290519081900360640190fd5b60408051632142170760e11b81523360048201523060248201526044810186905290516001600160a01b038716916342842e0e91606480830192600092919082900301818387803b158015620018e657600080fd5b505af1158015620018fb573d6000803e3d6000fd5b5050505080600001516001600160a01b031663a9059cbb866001600160a01b0316636352211e876040518263ffffffff1660e01b81526004018082815260200191505060206040518083038186803b1580156200195757600080fd5b505afa1580156200196c573d6000803e3d6000fd5b505050506040513d60208110156200198357600080fd5b505160408086015181516001600160e01b031960e086901b1681526001600160a01b03909316600484015260248301525160448083019260209291908290030181600087803b158015620019d657600080fd5b505af1158015620019eb573d6000803e3d6000fd5b505050506040513d602081101562001a0257600080fd5b5050846001600160a01b03166342966c68856040518263ffffffff1660e01b815260040180828152602001915050600060405180830381600087803b15801562001a4b57600080fd5b505af115801562001a60573d6000803e3d6000fd5b5050506001600160a01b0386166000908152600860209081526040808320888452909152812080546001600160a01b0319168155600180820183905560028201839055600390910191909155935050505092915050565b60046020526000908152604090205460ff1681565b600062001ad8620028bf565b50506001600160a01b0391821660009081526008602090815260408083209383529281529082902082516080810184528154909416845260018101549184019190915260028101549183018290526003015460609092019190915290565b6000546001600160a01b0316331462001b87576040805162461bcd60e51b815260206004820152600e60248201526d6e6f7420676f7665726e616e636560901b604482015290519081900360640190fd5b6001600160a01b03811662001be3576040805162461bcd60e51b815260206004820152601f60248201527f6e657720676f7665726e616e636520746865207a65726f206164647265737300604482015290519081900360640190fd5b600080546040516001600160a01b03808516939216917f5f56bee8cffbe9a78652a74a60705edede02af10b0bbb888ca44b79a0d42ce8091a3600080546001600160a01b0319166001600160a01b0392909216919091179055565b6003602052600090815260409020546001600160a01b031681565b600080546001600160a01b0316331462001cab576040805162461bcd60e51b815260206004820152600e60248201526d6e6f7420676f7665726e616e636560901b604482015290519081900360640190fd5b50600a80546001600160a01b0383166001600160a01b03199091161790556001919050565b600a546001600160a01b031681565b600080546001600160a01b0316331462001d31576040805162461bcd60e51b815260206004820152600e60248201526d6e6f7420676f7665726e616e636560901b604482015290519081900360640190fd5b60006001600160a01b03166005876040518082805190602001908083835b6020831062001d705780518252601f19909201916020918201910162001d4f565b51815160209384036101000a60001901801990921691161790529201948552506040519384900301909220600201546001600160a01b031692909214915062001e029050576040805162461bcd60e51b815260206004820152601960248201527f546865206e616d652077617320616c7265616479207573656400000000000000604482015290519081900360640190fd5b600086868660405162001e1590620028f0565b80806020018060200180602001848103845287818151815260200191508051906020019080838360005b8381101562001e5957818101518382015260200162001e3f565b50505050905090810190601f16801562001e875780820380516001836020036101000a031916815260200191505b50848103835286518152865160209182019188019080838360005b8381101562001ebc57818101518382015260200162001ea2565b50505050905090810190601f16801562001eea5780820380516001836020036101000a031916815260200191505b50848103825285518152855160209182019187019080838360005b8381101562001f1f57818101518382015260200162001f05565b50505050905090810190601f16801562001f4d5780820380516001836020036101000a031916815260200191505b509650505050505050604051809103906000f08015801562001f73573d6000803e3d6000fd5b50905062001f806200289f565b6001600160a01b038086168252602080830186905290831660408084019190915251895183926005928c9290918291908401908083835b6020831062001fd85780518252601f19909201916020918201910162001fb7565b51815160209384036101000a600019018019909216911617905292019485525060408051948590038201909420855181546001600160a01b03199081166001600160a01b0392831617835587840151600180850191909155978701516002938401805483169184169190911790558982166000908152600785528781208a51815484169085161781558a860151818b0155978a0151979093018054909116969091169590951790945560068054958601815590935250508951620020c2927ff652222313e28459528d920b65115c16c04f3efc82aaedc97be59f3f377c0d3f01918b0190620028fe565b507f2b53144c1159387a7239772a690be6c6cae795e95a739c4c5f1e9f7523ff1b2c8888878588604051808060200180602001866001600160a01b03168152602001856001600160a01b03168152602001848152602001838103835288818151815260200191508051906020019080838360005b838110156200215057818101518382015260200162002136565b50505050905090810190601f1680156200217e5780820380516001836020036101000a031916815260200191505b50838103825287518152875160209182019189019080838360005b83811015620021b357818101518382015260200162002199565b50505050905090810190601f168015620021e15780820380516001836020036101000a031916815260200191505b5097505050505050505060405180910390a1509695505050505050565b600e602052600090815260409020546001600160a01b031681565b60106020526000908152604090205481565b600080546001600160a01b031633146200227d576040805162461bcd60e51b815260206004820152600e60248201526d6e6f7420676f7665726e616e636560901b604482015290519081900360640190fd5b50600b55600190565b600860209081526000928352604080842090915290825290208054600182015460028301546003909301546001600160a01b0390921692909184565b60007f00000000000000000000000000000000000000000000000000000000000000006001600160a01b0316634000aea07f00000000000000000000000000000000000000000000000000000000000000008486600060405160200180838152602001828152602001925050506040516020818303038152906040526040518463ffffffff1660e01b815260040180846001600160a01b0316815260200183815260200180602001828103825283818151815260200191508051906020019080838360005b83811015620023a157818101518382015260200162002387565b50505050905090810190601f168015620023cf5780820380516001836020036101000a031916815260200191505b50945050505050602060405180830381600087803b158015620023f157600080fd5b505af115801562002406573d6000803e3d6000fd5b505050506040513d60208110156200241d57600080fd5b50506000838152600160205260408120546200243f90859083903090620027ca565b60008581526001602081905260409091205491925062002460919062002811565b6000858152600160205260409020556200247b848262002873565b949350505050565b6000828152600f60205260409020546001600160a01b0316620024a56200289f565b506001600160a01b03808216600081815260076020908152604091829020825160608101845281548616815260018201548184018190526002909201549095168584015282516318160ddd60e01b815292519093926318160ddd926004808301939192829003018186803b1580156200251d57600080fd5b505afa15801562002532573d6000803e3d6000fd5b505050506040513d60208110156200254957600080fd5b505110620025895760405162461bcd60e51b81526004018080602001828103825260218152602001806200576d6021913960400191505060405180910390fd5b6000848152600e60209081526040822054908301516001600160a01b0390911691908581620025b457fe5b0660010190505b836001600160a01b0316634f558e79826040518263ffffffff1660e01b81526004018082815260200191505060206040518083038186803b1580156200260057600080fd5b505afa15801562002615573d6000803e3d6000fd5b505050506040513d60208110156200262c57600080fd5b5051156200265157826020015181600101816200264557fe5b066001019050620025bb565b60008681526010602090815260408083205481516340c10f1960e01b81526001600160a01b0387811660048301526024820187905292519194928916936340c10f199360448084019492938390030190829087803b158015620026b357600080fd5b505af1158015620026c8573d6000803e3d6000fd5b505050506040513d6020811015620026df57600080fd5b50620026ec9050620028bf565b6001600160a01b03808716808352602080840186815260408086018781524260608089019182526000878152600887528481208c825287528481208a518154908b166001600160a01b03199182161782559651600182015593516002808601919091559251600394850155978c168089529186528388208b9055918552828720805490941686179093556004845294819020805460ff191690558051938452918301528181018590525185927ff027418bc693254808d8393d12468606300d4485cceb6d566cd0c942d0712eb4928290030190a25050505050505050565b60408051602080820196909652808201949094526001600160a01b039290921660608401526080808401919091528151808403909101815260a09092019052805191012090565b6000828201838110156200286c576040805162461bcd60e51b815260206004820152601b60248201527f536166654d6174683a206164646974696f6e206f766572666c6f770000000000604482015290519081900360640190fd5b9392505050565b604080516020808201949094528082019290925280518083038201815260609092019052805191012090565b604080516060810182526000808252602082018190529181019190915290565b604051806080016040528060006001600160a01b031681526020016000815260200160008152602001600081525090565b612ccc80620029ab83390190565b828054600181600116156101000203166002900490600052602060002090601f01602090048101928262002936576000855562002981565b82601f106200295157805160ff191683800117855562002981565b8280016001018555821562002981579182015b828111156200298157825182559160200191906001019062002964565b506200298f92915062002993565b5090565b5b808211156200298f57600081556001016200299456fe60806040523480156200001157600080fd5b5060405162002ccc38038062002ccc833981810160405260608110156200003757600080fd5b81019080805160405193929190846401000000008211156200005857600080fd5b9083019060208201858111156200006e57600080fd5b82516401000000008111828201881017156200008957600080fd5b82525081516020918201929091019080838360005b83811015620000b85781810151838201526020016200009e565b50505050905090810190601f168015620000e65780820380516001836020036101000a031916815260200191505b50604052602001805160405193929190846401000000008211156200010a57600080fd5b9083019060208201858111156200012057600080fd5b82516401000000008111828201881017156200013b57600080fd5b82525081516020918201929091019080838360005b838110156200016a57818101518382015260200162000150565b50505050905090810190601f168015620001985780820380516001836020036101000a031916815260200191505b5060405260200180516040519392919084640100000000821115620001bc57600080fd5b908301906020820185811115620001d257600080fd5b8251640100000000811182820188101715620001ed57600080fd5b82525081516020918201929091019080838360005b838110156200021c57818101518382015260200162000202565b50505050905090810190601f1680156200024a5780820380516001836020036101000a031916815260200191505b5060405250849150839050620002676301ffc9a760e01b620002f1565b81516200027c9060069060208501906200038f565b508051620002929060079060208401906200038f565b50620002a56380ac58cd60e01b620002f1565b620002b7635b5e139f60e01b620002f1565b620002c963780e9d6360e01b620002f1565b5050600a80546001600160a01b03191632179055620002e88162000376565b5050506200043b565b6001600160e01b0319808216141562000351576040805162461bcd60e51b815260206004820152601c60248201527f4552433136353a20696e76616c696420696e7465726661636520696400000000604482015290519081900360640190fd5b6001600160e01b0319166000908152602081905260409020805460ff19166001179055565b80516200038b9060099060208401906200038f565b5050565b828054600181600116156101000203166002900490600052602060002090601f016020900481019282620003c7576000855562000412565b82601f10620003e257805160ff191683800117855562000412565b8280016001018555821562000412579182015b8281111562000412578251825591602001919060010190620003f5565b506200042092915062000424565b5090565b5b8082111562000420576000815560010162000425565b612881806200044b6000396000f3fe608060405234801561001057600080fd5b50600436106101cf5760003560e01c80634f6ccce71161010457806395d89b41116100a2578063ab033ea911610071578063ab033ea914610726578063b88d4fde1461074c578063c87b56dd14610812578063e985e9c51461082f576101cf565b806395d89b411461069e578063983b2d56146106a6578063a1448194146106cc578063a22cb465146106f8576101cf565b80636c0360eb116100de5780636c0360eb1461053f57806370a08231146105475780638462151c1461056d5780638832e6e3146105e3576101cf565b80634f6ccce71461045f5780636352211e1461047c5780636bff2c2414610499576101cf565b80632f745c591161017157806340c10f191161014b57806340c10f19146103c357806342842e0e146103ef57806342966c68146104255780634f558e7914610442576101cf565b80632f745c591461034b5780633092afd5146103775780633575597d1461039d576101cf565b8063095ea7b3116101ad578063095ea7b3146102c557806318160ddd146102f35780631c2f3e3d1461030d57806323b872dd14610315576101cf565b806301ffc9a7146101d457806306fdde031461020f578063081812fc1461028c575b600080fd5b6101fb600480360360208110156101ea57600080fd5b50356001600160e01b03191661085d565b604080519115158252519081900360200190f35b610217610880565b6040805160208082528351818301528351919283929083019185019080838360005b83811015610251578181015183820152602001610239565b50505050905090810190601f16801561027e5780820380516001836020036101000a031916815260200191505b509250505060405180910390f35b6102a9600480360360208110156102a257600080fd5b5035610916565b604080516001600160a01b039092168252519081900360200190f35b6102f1600480360360408110156102db57600080fd5b506001600160a01b038135169060200135610978565b005b6102fb610a53565b60408051918252519081900360200190f35b6102a9610a64565b6102f16004803603606081101561032b57600080fd5b506001600160a01b03813581169160208101359091169060400135610a73565b6102fb6004803603604081101561036157600080fd5b506001600160a01b038135169060200135610aca565b6102f16004803603602081101561038d57600080fd5b50356001600160a01b0316610af5565b6101fb600480360360208110156103b357600080fd5b50356001600160a01b0316610b66565b6101fb600480360360408110156103d957600080fd5b506001600160a01b038135169060200135610b7b565b6102f16004803603606081101561040557600080fd5b506001600160a01b03813581169160208101359091169060400135610c03565b6102f16004803603602081101561043b57600080fd5b5035610c1e565b6101fb6004803603602081101561045857600080fd5b5035610ce9565b6102fb6004803603602081101561047557600080fd5b5035610cf4565b6102a96004803603602081101561049257600080fd5b5035610d0a565b6102f1600480360360208110156104af57600080fd5b8101906020810181356401000000008111156104ca57600080fd5b8201836020820111156104dc57600080fd5b803590602001918460018302840111640100000000831117156104fe57600080fd5b91908080601f016020809104026020016040519081016040528093929190818152602001838380828437600092019190915250929550610d32945050505050565b610217610d8b565b6102fb6004803603602081101561055d57600080fd5b50356001600160a01b0316610dec565b6105936004803603602081101561058357600080fd5b50356001600160a01b0316610e54565b60408051602080825283518183015283519192839290830191858101910280838360005b838110156105cf5781810151838201526020016105b7565b505050509050019250505060405180910390f35b6101fb600480360360608110156105f957600080fd5b6001600160a01b038235169160208101359181019060608101604082013564010000000081111561062957600080fd5b82018360208201111561063b57600080fd5b8035906020019184600183028401116401000000008311171561065d57600080fd5b91908080601f016020809104026020016040519081016040528093929190818152602001838380828437600092019190915250929550610f28945050505050565b610217610fae565b6102f1600480360360208110156106bc57600080fd5b50356001600160a01b031661100f565b6101fb600480360360408110156106e257600080fd5b506001600160a01b038135169060200135611083565b6102f16004803603604081101561070e57600080fd5b506001600160a01b03813516906020013515156110f0565b6102f16004803603602081101561073c57600080fd5b50356001600160a01b03166111f5565b6102f16004803603608081101561076257600080fd5b6001600160a01b0382358116926020810135909116916040820135919081019060808101606082013564010000000081111561079d57600080fd5b8201836020820111156107af57600080fd5b803590602001918460018302840111640100000000831117156107d157600080fd5b91908080601f0160208091040260200160405190810160405280939291908181526020018383808284376000920191909152509295506112fc945050505050565b6102176004803603602081101561082857600080fd5b503561135a565b6101fb6004803603604081101561084557600080fd5b506001600160a01b03813581169160200135166115dd565b6001600160e01b0319811660009081526020819052604090205460ff165b919050565b60068054604080516020601f600260001961010060018816150201909516949094049384018190048102820181019092528281526060939092909183018282801561090c5780601f106108e15761010080835404028352916020019161090c565b820191906000526020600020905b8154815290600101906020018083116108ef57829003601f168201915b5050505050905090565b60006109218261160b565b61095c5760405162461bcd60e51b815260040180806020018281038252602c81526020018061274a602c913960400191505060405180910390fd5b506000908152600460205260409020546001600160a01b031690565b600061098382610d0a565b9050806001600160a01b0316836001600160a01b031614156109d65760405162461bcd60e51b81526004018080602001828103825260218152602001806127fa6021913960400191505060405180910390fd5b806001600160a01b03166109e8611618565b6001600160a01b03161480610a095750610a0981610a04611618565b6115dd565b610a445760405162461bcd60e51b815260040180806020018281038252603881526020018061269d6038913960400191505060405180910390fd5b610a4e838361161c565b505050565b6000610a5f600261168a565b905090565b600a546001600160a01b031681565b610a84610a7e611618565b82611695565b610abf5760405162461bcd60e51b815260040180806020018281038252603181526020018061281b6031913960400191505060405180910390fd5b610a4e838383611739565b6001600160a01b0382166000908152600160205260408120610aec9083611885565b90505b92915050565b600a546001600160a01b03163314610b45576040805162461bcd60e51b815260206004820152600e60248201526d6e6f7420676f7665726e616e636560901b604482015290519081900360640190fd5b6001600160a01b03166000908152600b60205260409020805460ff19169055565b600b6020526000908152604090205460ff1681565b336000908152600b602052604081205460ff1680610ba35750600a546001600160a01b031633145b610bde576040805162461bcd60e51b815260206004820152600760248201526610b6b4b73a32b960c91b604482015290519081900360640190fd5b610be88383611891565b610bfa82610bf5846119bf565b611a97565b50600192915050565b610a4e838383604051806020016040528060008152506112fc565b336000908152600b602052604090205460ff1680610c465750600a546001600160a01b031633145b610c81576040805162461bcd60e51b815260206004820152600760248201526610b6b4b73a32b960c91b604482015290519081900360640190fd5b610c8c610a7e611618565b610cdd576040805162461bcd60e51b815260206004820181905260248201527f63616c6c6572206973206e6f74206f776e6572206e6f7220617070726f766564604482015290519081900360640190fd5b610ce681611afa565b50565b6000610aef8261160b565b600080610d02600284611bc7565b509392505050565b6000610aef826040518060600160405280602981526020016126ff6029913960029190611be3565b600a546001600160a01b03163314610d82576040805162461bcd60e51b815260206004820152600e60248201526d6e6f7420676f7665726e616e636560901b604482015290519081900360640190fd5b610ce681611bf0565b60098054604080516020601f600260001961010060018816150201909516949094049384018190048102820181019092528281526060939092909183018282801561090c5780601f106108e15761010080835404028352916020019161090c565b60006001600160a01b038216610e335760405162461bcd60e51b815260040180806020018281038252602a8152602001806126d5602a913960400191505060405180910390fd5b6001600160a01b0382166000908152600160205260409020610aef9061168a565b60606001600160a01b038216610ea1576040805162461bcd60e51b815260206004820152600d60248201526c34b73b30b634b21037bbb732b960991b604482015290519081900360640190fd5b6000610eac83610dec565b905060608167ffffffffffffffff81118015610ec757600080fd5b50604051908082528060200260200182016040528015610ef1578160200160208202803683370190505b50905060005b82811015610d0257610f098582610aca565b828281518110610f1557fe5b6020908102919091010152600101610ef7565b336000908152600b602052604081205460ff1680610f505750600a546001600160a01b031633145b610f8b576040805162461bcd60e51b815260206004820152600760248201526610b6b4b73a32b960c91b604482015290519081900360640190fd5b610f96848484611c07565b610fa383610bf5856119bf565b5060015b9392505050565b60078054604080516020601f600260001961010060018816150201909516949094049384018190048102820181019092528281526060939092909183018282801561090c5780601f106108e15761010080835404028352916020019161090c565b600a546001600160a01b0316331461105f576040805162461bcd60e51b815260206004820152600e60248201526d6e6f7420676f7665726e616e636560901b604482015290519081900360640190fd5b6001600160a01b03166000908152600b60205260409020805460ff19166001179055565b336000908152600b602052604081205460ff16806110ab5750600a546001600160a01b031633145b6110e6576040805162461bcd60e51b815260206004820152600760248201526610b6b4b73a32b960c91b604482015290519081900360640190fd5b610be88383611c59565b6110f8611618565b6001600160a01b0316826001600160a01b0316141561115e576040805162461bcd60e51b815260206004820152601960248201527f4552433732313a20617070726f766520746f2063616c6c657200000000000000604482015290519081900360640190fd5b806005600061116b611618565b6001600160a01b03908116825260208083019390935260409182016000908120918716808252919093529120805460ff1916921515929092179091556111af611618565b6001600160a01b03167f17307eab39ab6107e8899845ad3d59bd9653f200f220920489ca2b5937696c318360405180821515815260200191505060405180910390a35050565b600a546001600160a01b03163314611245576040805162461bcd60e51b815260206004820152600e60248201526d6e6f7420676f7665726e616e636560901b604482015290519081900360640190fd5b6001600160a01b0381166112a0576040805162461bcd60e51b815260206004820152601f60248201527f6e657720676f7665726e616e636520746865207a65726f206164647265737300604482015290519081900360640190fd5b600a546040516001600160a01b038084169216907f5f56bee8cffbe9a78652a74a60705edede02af10b0bbb888ca44b79a0d42ce8090600090a3600a80546001600160a01b0319166001600160a01b0392909216919091179055565b61130d611307611618565b83611695565b6113485760405162461bcd60e51b815260040180806020018281038252603181526020018061281b6031913960400191505060405180910390fd5b61135484848484611c73565b50505050565b60606113658261160b565b6113a05760405162461bcd60e51b815260040180806020018281038252602f8152602001806127cb602f913960400191505060405180910390fd5b60008281526008602090815260409182902080548351601f60026000196101006001861615020190931692909204918201849004840281018401909452808452606093928301828280156114355780601f1061140a57610100808354040283529160200191611435565b820191906000526020600020905b81548152906001019060200180831161141857829003601f168201915b505050505090506060611446610d8b565b905080516000141561145a5750905061087b565b81511561151b5780826040516020018083805190602001908083835b602083106114955780518252601f199092019160209182019101611476565b51815160209384036101000a600019018019909216911617905285519190930192850191508083835b602083106114dd5780518252601f1990920191602091820191016114be565b6001836020036101000a038019825116818451168082178552505050505050905001925050506040516020818303038152906040529250505061087b565b8061152585611cc5565b6040516020018083805190602001908083835b602083106115575780518252601f199092019160209182019101611538565b51815160209384036101000a600019018019909216911617905285519190930192850191508083835b6020831061159f5780518252601f199092019160209182019101611580565b6001836020036101000a0380198251168184511680821785525050505050509050019250505060405160208183030381529060405292505050919050565b6001600160a01b03918216600090815260056020908152604080832093909416825291909152205460ff1690565b6000610aef600283611d97565b3390565b600081815260046020526040902080546001600160a01b0319166001600160a01b038416908117909155819061165182610d0a565b6001600160a01b03167f8c5be1e5ebec7d5bd14f71427d1e84f3dd0314c0f7b2291e5b200ac8c7c3b92560405160405180910390a45050565b6000610aef82611da3565b60006116a08261160b565b6116db5760405162461bcd60e51b815260040180806020018281038252602c815260200180612671602c913960400191505060405180910390fd5b60006116e683610d0a565b9050806001600160a01b0316846001600160a01b031614806117215750836001600160a01b031661171684610916565b6001600160a01b0316145b80611731575061173181856115dd565b949350505050565b826001600160a01b031661174c82610d0a565b6001600160a01b0316146117915760405162461bcd60e51b81526004018080602001828103825260298152602001806127a26029913960400191505060405180910390fd5b6001600160a01b0382166117d65760405162461bcd60e51b815260040180806020018281038252602481526020018061264d6024913960400191505060405180910390fd5b6117e1838383610a4e565b6117ec60008261161c565b6001600160a01b038316600090815260016020526040902061180e9082611da7565b506001600160a01b03821660009081526001602052604090206118319082611db3565b5061183e60028284611dbf565b5080826001600160a01b0316846001600160a01b03167fddf252ad1be2c89b69c2b068fc378daa952ba7f163c4a11628f55a4df523b3ef60405160405180910390a4505050565b6000610aec8383611dd5565b6001600160a01b0382166118ec576040805162461bcd60e51b815260206004820181905260248201527f4552433732313a206d696e7420746f20746865207a65726f2061646472657373604482015290519081900360640190fd5b6118f58161160b565b15611947576040805162461bcd60e51b815260206004820152601c60248201527f4552433732313a20746f6b656e20616c7265616479206d696e74656400000000604482015290519081900360640190fd5b61195360008383610a4e565b6001600160a01b03821660009081526001602052604090206119759082611db3565b5061198260028284611dbf565b5060405181906001600160a01b038416906000907fddf252ad1be2c89b69c2b068fc378daa952ba7f163c4a11628f55a4df523b3ef908290a45050565b6060816119e457506040805180820190915260018152600360fc1b602082015261087b565b8160005b81156119fc57600101600a820491506119e8565b60608167ffffffffffffffff81118015611a1557600080fd5b506040519080825280601f01601f191660200182016040528015611a40576020820181803683370190505b50905060001982015b8515611a8e57600a860660300160f81b82828060019003935081518110611a6c57fe5b60200101906001600160f81b031916908160001a905350600a86049550611a49565b50949350505050565b611aa08261160b565b611adb5760405162461bcd60e51b815260040180806020018281038252602c815260200180612776602c913960400191505060405180910390fd5b60008281526008602090815260409091208251610a4e92840190612517565b6000611b0582610d0a565b9050611b1381600084610a4e565b611b1e60008361161c565b6000828152600860205260409020546002600019610100600184161502019091160415611b5c576000828152600860205260408120611b5c916125a3565b6001600160a01b0381166000908152600160205260409020611b7e9083611da7565b50611b8a600283611e39565b5060405182906000906001600160a01b038416907fddf252ad1be2c89b69c2b068fc378daa952ba7f163c4a11628f55a4df523b3ef908390a45050565b6000808080611bd68686611e45565b9097909650945050505050565b6000611731848484611ec0565b8051611c03906009906020840190612517565b5050565b611c118383611891565b611c1e6000848484611f8a565b610a4e5760405162461bcd60e51b815260040180806020018281038252603281526020018061261b6032913960400191505060405180910390fd5b611c03828260405180602001604052806000815250611c07565b611c7e848484611739565b611c8a84848484611f8a565b6113545760405162461bcd60e51b815260040180806020018281038252603281526020018061261b6032913960400191505060405180910390fd5b606081611cea57506040805180820190915260018152600360fc1b602082015261087b565b8160005b8115611d0257600101600a82049150611cee565b60608167ffffffffffffffff81118015611d1b57600080fd5b506040519080825280601f01601f191660200182016040528015611d46576020820181803683370190505b50859350905060001982015b8315611a8e57600a840660300160f81b82828060019003935081518110611d7557fe5b60200101906001600160f81b031916908160001a905350600a84049350611d52565b6000610aec83836120f2565b5490565b6000610aec838361210a565b6000610aec83836121d0565b600061173184846001600160a01b03851661221a565b81546000908210611e175760405162461bcd60e51b81526004018080602001828103825260228152602001806125f96022913960400191505060405180910390fd5b826000018281548110611e2657fe5b9060005260206000200154905092915050565b6000610aec83836122b1565b815460009081908310611e895760405162461bcd60e51b81526004018080602001828103825260228152602001806127286022913960400191505060405180910390fd5b6000846000018481548110611e9a57fe5b906000526020600020906002020190508060000154816001015492509250509250929050565b60008281526001840160205260408120548281611f5b5760405162461bcd60e51b81526004018080602001828103825283818151815260200191508051906020019080838360005b83811015611f20578181015183820152602001611f08565b50505050905090810190601f168015611f4d5780820380516001836020036101000a031916815260200191505b509250505060405180910390fd5b50846000016001820381548110611f6e57fe5b9060005260206000209060020201600101549150509392505050565b6000611f9e846001600160a01b0316612385565b611faa57506001611731565b60606120b8630a85bd0160e11b611fbf611618565b88878760405160240180856001600160a01b03168152602001846001600160a01b0316815260200183815260200180602001828103825283818151815260200191508051906020019080838360005b8381101561202657818101518382015260200161200e565b50505050905090810190601f1680156120535780820380516001836020036101000a031916815260200191505b5095505050505050604051602081830303815290604052906001600160e01b0319166020820180516001600160e01b03838183161783525050505060405180606001604052806032815260200161261b603291396001600160a01b038816919061238b565b905060008180602001905160208110156120d157600080fd5b50516001600160e01b031916630a85bd0160e11b1492505050949350505050565b60009081526001919091016020526040902054151590565b600081815260018301602052604081205480156121c6578354600019808301919081019060009087908390811061213d57fe5b906000526020600020015490508087600001848154811061215a57fe5b60009182526020808320909101929092558281526001898101909252604090209084019055865487908061218a57fe5b60019003818190600052602060002001600090559055866001016000878152602001908152602001600020600090556001945050505050610aef565b6000915050610aef565b60006121dc83836120f2565b61221257508154600181810184556000848152602080822090930184905584548482528286019093526040902091909155610aef565b506000610aef565b60008281526001840160205260408120548061227f575050604080518082018252838152602080820184815286546001818101895560008981528481209551600290930290950191825591519082015586548684528188019092529290912055610fa7565b8285600001600183038154811061229257fe5b9060005260206000209060020201600101819055506000915050610fa7565b600081815260018301602052604081205480156121c657835460001980830191908101906000908790839081106122e457fe5b906000526020600020906002020190508087600001848154811061230457fe5b60009182526020808320845460029093020191825560019384015491840191909155835482528983019052604090209084019055865487908061234357fe5b6000828152602080822060026000199094019384020182815560019081018390559290935588815289820190925260408220919091559450610aef9350505050565b3b151590565b606061173184846000858561239f85612385565b6123f0576040805162461bcd60e51b815260206004820152601d60248201527f416464726573733a2063616c6c20746f206e6f6e2d636f6e7472616374000000604482015290519081900360640190fd5b60006060866001600160a01b031685876040518082805190602001908083835b6020831061242f5780518252601f199092019160209182019101612410565b6001836020036101000a03801982511681845116808217855250505050505090500191505060006040518083038185875af1925050503d8060008114612491576040519150601f19603f3d011682016040523d82523d6000602084013e612496565b606091505b50915091506124a68282866124b1565b979650505050505050565b606083156124c0575081610fa7565b8251156124d05782518084602001fd5b60405162461bcd60e51b8152602060048201818152845160248401528451859391928392604401919085019080838360008315611f20578181015183820152602001611f08565b828054600181600116156101000203166002900490600052602060002090601f01602090048101928261254d5760008555612593565b82601f1061256657805160ff1916838001178555612593565b82800160010185558215612593579182015b82811115612593578251825591602001919060010190612578565b5061259f9291506125e3565b5090565b50805460018160011615610100020316600290046000825580601f106125c95750610ce6565b601f016020900490600052602060002090810190610ce691905b5b8082111561259f57600081556001016125e456fe456e756d657261626c655365743a20696e646578206f7574206f6620626f756e64734552433732313a207472616e7366657220746f206e6f6e20455243373231526563656976657220696d706c656d656e7465724552433732313a207472616e7366657220746f20746865207a65726f20616464726573734552433732313a206f70657261746f7220717565727920666f72206e6f6e6578697374656e7420746f6b656e4552433732313a20617070726f76652063616c6c6572206973206e6f74206f776e6572206e6f7220617070726f76656420666f7220616c6c4552433732313a2062616c616e636520717565727920666f7220746865207a65726f20616464726573734552433732313a206f776e657220717565727920666f72206e6f6e6578697374656e7420746f6b656e456e756d657261626c654d61703a20696e646578206f7574206f6620626f756e64734552433732313a20617070726f76656420717565727920666f72206e6f6e6578697374656e7420746f6b656e4552433732314d657461646174613a2055524920736574206f66206e6f6e6578697374656e7420746f6b656e4552433732313a207472616e73666572206f6620746f6b656e2074686174206973206e6f74206f776e4552433732314d657461646174613a2055524920717565727920666f72206e6f6e6578697374656e7420746f6b656e4552433732313a20617070726f76616c20746f2063757272656e74206f776e65724552433732313a207472616e736665722063616c6c6572206973206e6f74206f776e6572206e6f7220617070726f766564a2646970667358221220936ad26f56125355e25bad91b1f26e73ee5ee327b2c47fc0e0581ed6664415e564736f6c6343000704003353616e7461466163746f727956333a20496e76616c6964204e6674206164647265737353616e7461466163746f72793256323a20416c6c6f776e6365206973206c657373207468616e20666163655f76616c75652153616e7461466163746f727956333a20546f74616c20746f6b656e73207765726520616c7265616479206d696e7465642153616e7461466163746f727956333a20596f75722062616c616e6365206973206c657373207468616e20666163652076616c75652153616e7461466163746f727956333a204e6f7420656e6f756768204c494e4b202d2066696c6c20636f6e7472616374207769746820666175636574546f74616c20746f6b656e73207765726520616c7265616479206d696e7465642153616e7461466163746f727956333a20666163655f76616c75652073686f756c6420626520677261746572207468616e20302153616e7461466163746f727956323a20496e76616c69642053616e74612041646472657373a264697066735822122036c199cf726bf5a9f3587d295d75500a706fcd0fff621c08303a5a256272954e64736f6c63430007040033",
  "immutableReferences": {
    "77": [
      {
        "length": 32,
        "start": 3654
      },
      {
        "length": 32,
        "start": 8902
      }
    ],
    "79": [
      {
        "length": 32,
        "start": 5894
      },
      {
        "length": 32,
        "start": 8949
      }
    ]
  },
  "source": "// SPDX-License-Identifier: MIT\r\npragma solidity ^0.7.4;\r\n\r\nimport \"@openzeppelin/contracts/math/SafeMath.sol\";\r\nimport \"@openzeppelin/contracts/token/ERC721/IERC721.sol\";\r\nimport \"@openzeppelin/contracts/token/ERC721/IERC721Receiver.sol\";\r\nimport \"@openzeppelin/contracts/utils/Address.sol\";\r\nimport \"@openzeppelin/contracts/token/ERC20/ERC20.sol\";\r\nimport \"@chainlink/contracts/src/v0.7/VRFConsumerBase.sol\";\r\nimport \"../library/Governance.sol\";\r\nimport \"../interface/INftAsset.sol\";\r\nimport \"./SantaV2.sol\";\r\n\r\ncontract SantaFactoryV3 is Governance, VRFConsumerBase, IERC721Receiver {\r\n    using Address for address;\r\n    using SafeMath for uint256;\r\n    struct SantaV2Data {\r\n        address santa;\r\n        uint256 id;\r\n        uint256 face_value;\r\n        uint256 createdTime;\r\n    }\r\n    struct SantaContractData {\r\n        ERC20 acceptedToken;\r\n        uint256 maxCount;\r\n        address santa;\r\n    }\r\n    event SantaV2NFTAdded(\r\n        address santa,\r\n        uint256 indexed id,\r\n        address author,\r\n        uint256 face_value\r\n    );\r\n    event SantaV2Created(\r\n        string name,\r\n        string symbol,\r\n        address acceptedToken,\r\n        address santa,\r\n        uint256 maxCount\r\n    );\r\n\r\n    mapping(address => uint256) public _lastMintedNFTId;\r\n    mapping(address => address) public _lastMintedNFTSantaAddress;\r\n    mapping(address => bool) public _mintingStatus;\r\n\r\n    mapping(string => SantaContractData) _nameToContractData;\r\n    string[] public _names;\r\n    mapping(address => SantaContractData) _addressToContractData;\r\n    mapping(address => mapping(uint256 => SantaV2Data)) public _santas;\r\n    ERC20 _cifiTokenContract = ERC20(0x0);\r\n\r\n    address public _feeAccount = address(0x0000000000000000000000);\r\n    uint256 public _feeAmount = 0;\r\n\r\n    uint256 _linkFee = 0;\r\n    bytes32 _linkKeyHash = bytes32(\"\");\r\n    mapping(bytes32 => address) public requestIdToMinter;\r\n    mapping(bytes32 => address) public requestIdToSanta;\r\n    mapping(bytes32 => uint256) public requestIdToFaceValue;\r\n\r\n    constructor(\r\n        address cifi,\r\n        address vrfCoordinator,\r\n        address linkToken,\r\n        bytes32 linkKeyHash,\r\n        uint256 linkFee\r\n    ) VRFConsumerBase(vrfCoordinator, linkToken) {\r\n        _cifiTokenContract = ERC20(cifi);\r\n        _feeAccount = msg.sender;\r\n        _feeAmount = 1 * (10**18);\r\n        _linkFee = linkFee;\r\n        _linkKeyHash = linkKeyHash;\r\n    }\r\n\r\n    function createSanta(\r\n        string memory name,\r\n        string memory symbol,\r\n        string memory baseURI,\r\n        address acceptedToken,\r\n        uint256 maxNftCount\r\n    ) public onlyGovernance returns (address) {\r\n        require(\r\n            _nameToContractData[name].santa == address(0),\r\n            \"The name was already used\"\r\n        );\r\n        SantaV2 santa = new SantaV2(name, symbol, baseURI);\r\n        SantaContractData memory contractData;\r\n        contractData.acceptedToken = ERC20(acceptedToken);\r\n        contractData.maxCount = maxNftCount;\r\n        contractData.santa = address(santa);\r\n        _nameToContractData[name] = contractData;\r\n        _addressToContractData[address(santa)] = contractData;\r\n        _names.push(name);\r\n        emit SantaV2Created(\r\n            name,\r\n            symbol,\r\n            acceptedToken,\r\n            address(santa),\r\n            maxNftCount\r\n        );\r\n        return address(santa);\r\n    }\r\n\r\n    function getLastMintedNFTId()\r\n    public view returns (uint256)\r\n    {\r\n        return _lastMintedNFTId[msg.sender];\r\n    }\r\n\r\n    function getLastMintedNFTSantaAddress()\r\n    public view returns (address)\r\n    {\r\n        return _lastMintedNFTSantaAddress[msg.sender];\r\n    }\r\n\r\n    function getContractCount() public view returns (uint256) {\r\n        return _names.length;\r\n    }\r\n\r\n    function getContractNames(uint256 id) public view returns (string memory) {\r\n        return _names[id];\r\n    }\r\n\r\n    function getContractData(string memory name)\r\n        public\r\n        view\r\n        returns (\r\n            address acceptedToken,\r\n            uint256 maxCount,\r\n            address santa\r\n        )\r\n    {\r\n        SantaContractData memory contractData = _nameToContractData[name];\r\n        require(\r\n            contractData.santa != address(0),\r\n            \"SantaFactoryV3: Invalid name\"\r\n        );\r\n        acceptedToken = address(contractData.acceptedToken);\r\n        maxCount = contractData.maxCount;\r\n        santa = contractData.santa;\r\n    }\r\n\r\n    function getFaceValue(address santa, uint256 tokenId)\r\n        public\r\n        view\r\n        returns (uint256)\r\n    {\r\n        SantaV2Data memory santa_data = _santas[santa][tokenId];\r\n        return santa_data.face_value;\r\n    }\r\n\r\n    function setMintingStatus(bool statusValue)\r\n    public\r\n    returns (bool)\r\n    {\r\n        _mintingStatus[msg.sender] = statusValue;\r\n        return statusValue;\r\n    }\r\n\r\n    function getMintingStatus()\r\n    public \r\n    view\r\n    returns (bool)\r\n    {\r\n        return _mintingStatus[msg.sender];\r\n    }\r\n\r\n    /**\r\n     * @dev set cifi contract address\r\n     */\r\n    function setCifiContract(address cifi) public onlyGovernance {\r\n        _cifiTokenContract = ERC20(cifi);\r\n    }\r\n\r\n    function ChangeFeeAccount(address newFeeAccount)\r\n        public\r\n        onlyGovernance\r\n        returns (bool)\r\n    {\r\n        _feeAccount = newFeeAccount;\r\n        return true;\r\n    }\r\n\r\n    function ChangeFeeAmount(uint256 newFeeAmount)\r\n        public\r\n        onlyGovernance\r\n        returns (bool)\r\n    {\r\n        _feeAmount = newFeeAmount;\r\n        return true;\r\n    }\r\n\r\n    function mint(address santa, uint256 face_value) public returns (bytes32) { // return uint256\r\n        SantaContractData memory contractData = _addressToContractData[santa];\r\n        require(\r\n            face_value > 0,\r\n            \"SantaFactoryV3: face_value should be grater than 0!\"\r\n        );\r\n        require(\r\n            contractData.santa != address(0) && contractData.santa == santa,\r\n            \"SantaFactoryV3: Invalid Nft address\"\r\n        );\r\n        require(\r\n            contractData.acceptedToken.allowance(msg.sender, address(this)) >=\r\n                face_value,\r\n            \"SantaFactory2V2: Allownce is less than face_value!\"\r\n        );\r\n\r\n        require(\r\n            contractData.acceptedToken.balanceOf(msg.sender) >= face_value,\r\n            \"SantaFactoryV3: Your balance is less than face value!\"\r\n        );\r\n\r\n        require(\r\n            LINK.balanceOf(address(this)) >= _linkFee,\r\n            \"SantaFactoryV3: Not enough LINK - fill contract with faucet\"\r\n        );\r\n        require(\r\n            SantaV2(santa).totalSupply() < contractData.maxCount,\r\n            \"SantaFactoryV3: Total tokens were already minted!\"\r\n        );\r\n        _cifiTokenContract.transferFrom(msg.sender, _feeAccount, _feeAmount);\r\n        contractData.acceptedToken.transferFrom(\r\n            msg.sender,\r\n            address(this),\r\n            face_value\r\n        );\r\n        bytes32 requestId = requestRandomness(_linkKeyHash, _linkFee);\r\n        _mintingStatus[msg.sender] = true;\r\n        requestIdToMinter[requestId] = msg.sender;\r\n        requestIdToSanta[requestId] = santa;\r\n        requestIdToFaceValue[requestId] = face_value;        \r\n        return requestId;\r\n\r\n        // uint256 nftID = 1;\r\n        // while (SantaV2(santa).exists(nftID)) {\r\n        //     nftID = ((nftID + 1) % contractData.maxCount) + 1;\r\n        // }\r\n\r\n        // SantaV2(santa).mint(msg.sender, nftID);\r\n\r\n        // SantaV2Data memory santa_data;\r\n        // santa_data.santa = santa;\r\n        // santa_data.id = nftID;\r\n        // santa_data.face_value = face_value;\r\n        // santa_data.createdTime = block.timestamp;\r\n        // _santas[santa][nftID] = santa_data;\r\n\r\n        // emit SantaV2NFTAdded(santa, nftID, msg.sender, face_value);\r\n\r\n        // return nftID;\r\n    }\r\n\r\n    function fulfillRandomness(bytes32 requestId, uint256 randomness)\r\n        internal\r\n        override\r\n    {\r\n        address santa = requestIdToSanta[requestId];\r\n        SantaContractData memory contractData = _addressToContractData[santa];\r\n        require(\r\n            SantaV2(santa).totalSupply() < contractData.maxCount,\r\n            \"Total tokens were already minted!\"\r\n        );\r\n        address minter = requestIdToMinter[requestId];\r\n        uint256 nftID = (randomness % contractData.maxCount) + 1;\r\n\r\n        while (SantaV2(santa).exists(nftID)) {\r\n            nftID = ((nftID + 1) % contractData.maxCount) + 1;\r\n        }\r\n        uint256 face_value = requestIdToFaceValue[requestId];\r\n\r\n        SantaV2(santa).mint(minter, nftID);\r\n\r\n        SantaV2Data memory santa_data;\r\n        santa_data.santa = santa;\r\n        santa_data.id = nftID;\r\n        santa_data.face_value = face_value;\r\n        santa_data.createdTime = block.timestamp;\r\n        _santas[santa][nftID] = santa_data;\r\n        \r\n\r\n        _lastMintedNFTId[minter] = nftID;\r\n        _lastMintedNFTSantaAddress[minter] = santa;\r\n        _mintingStatus[minter] = false;\r\n        emit SantaV2NFTAdded(santa, nftID, minter, face_value);\r\n    }\r\n\r\n    function retrieveToken(address santa, uint256 tokenId)\r\n        external\r\n        returns (bool)\r\n    {\r\n        require(santa != address(0), \"SantaFactoryV2: ! 0 address\");\r\n        SantaV2Data memory santa_data = _santas[santa][tokenId];\r\n        SantaContractData memory contractData = _addressToContractData[santa];\r\n        require(santa_data.id > 0, \"SantaFactoryV2: not exist\");\r\n        require(\r\n            contractData.santa == santa,\r\n            \"SantaFactoryV2: Invalid Santa Address\"\r\n        );\r\n        require(\r\n            santa_data.santa == santa,\r\n            \"SantaFactoryV2: Invalid Santa Address\"\r\n        );\r\n        require(\r\n            SantaV2(santa).ownerOf(tokenId) == msg.sender,\r\n            \"SantaFactoryV2: Invalid owner\"\r\n        );\r\n        if (santa_data.face_value >= 0) {\r\n            contractData.acceptedToken.transfer(\r\n                SantaV2(santa).ownerOf(tokenId),\r\n                santa_data.face_value\r\n            );\r\n            santa_data.face_value = 0;\r\n            _santas[santa][tokenId] = santa_data;\r\n        }\r\n        return true;\r\n    }\r\n\r\n    function burn(address santa, uint256 tokenId) external returns (bool) {\r\n        SantaV2Data memory santa_data = _santas[santa][tokenId];\r\n        SantaContractData memory contractData = _addressToContractData[santa];\r\n        require(santa_data.id > 0, \"not exist\");\r\n\r\n        SantaV2(santa).safeTransferFrom(msg.sender, address(this), tokenId);\r\n        if (santa_data.face_value >= 0) {\r\n            contractData.acceptedToken.transfer(\r\n                SantaV2(santa).ownerOf(tokenId),\r\n                santa_data.face_value\r\n            );\r\n        }\r\n\r\n        SantaV2(santa).burn(tokenId);\r\n        delete _santas[santa][tokenId];\r\n        return true;\r\n    }\r\n\r\n    function onERC721Received(\r\n        address,\r\n        address,\r\n        uint256,\r\n        bytes memory\r\n    ) public virtual override returns (bytes4) {\r\n        return this.onERC721Received.selector;\r\n    }\r\n}\r\n",
  "sourcePath": "F:\\citizen\\santafeapp\\src\\contracts\\nft\\SantaFactoryV3.sol",
  "compiler": {
    "name": "solc",
    "version": "0.7.4+commit.3f05b770.Emscripten.clang"
  },
  "schemaVersion": "3.4.2",
  "updatedAt": "2021-08-16T15:39:51.048Z",
  "networkType": "ethereum",
  "devdoc": {
    "kind": "dev",
    "methods": {
      "setCifiContract(address)": {
        "details": "set cifi contract address"
      }
    },
    "version": 1
  },
  "userdoc": {
    "kind": "user",
    "methods": {},
    "version": 1
  }
}