{
  "contractName": "BlindBoxFactoryV1",
  "abi": [
    {
      "inputs": [
        {
          "internalType": "address",
          "name": "cifi",
          "type": "address"
        },
        {
          "internalType": "address",
          "name": "nftContract",
          "type": "address"
        },
        {
          "internalType": "address",
          "name": "feeAccount",
          "type": "address"
        },
        {
          "internalType": "address",
          "name": "vrfCoordinator",
          "type": "address"
        },
        {
          "internalType": "address",
          "name": "linkToken",
          "type": "address"
        },
        {
          "internalType": "bytes32",
          "name": "linkKeyHash",
          "type": "bytes32"
        },
        {
          "internalType": "uint256",
          "name": "linkFee",
          "type": "uint256"
        }
      ],
      "stateMutability": "nonpayable",
      "type": "constructor"
    },
    {
      "anonymous": false,
      "inputs": [
        {
          "indexed": true,
          "internalType": "uint256",
          "name": "id",
          "type": "uint256"
        },
        {
          "indexed": false,
          "internalType": "address",
          "name": "author",
          "type": "address"
        }
      ],
      "name": "BlindBoxAdded",
      "type": "event"
    },
    {
      "anonymous": false,
      "inputs": [
        {
          "indexed": true,
          "internalType": "address",
          "name": "previousOwner",
          "type": "address"
        },
        {
          "indexed": true,
          "internalType": "address",
          "name": "newOwner",
          "type": "address"
        }
      ],
      "name": "GovernanceTransferred",
      "type": "event"
    },
    {
      "inputs": [],
      "name": "_feeAccount",
      "outputs": [
        {
          "internalType": "address",
          "name": "",
          "type": "address"
        }
      ],
      "stateMutability": "view",
      "type": "function",
      "constant": true
    },
    {
      "inputs": [],
      "name": "_feeAmount",
      "outputs": [
        {
          "internalType": "uint256",
          "name": "",
          "type": "uint256"
        }
      ],
      "stateMutability": "view",
      "type": "function",
      "constant": true
    },
    {
      "inputs": [],
      "name": "_governance",
      "outputs": [
        {
          "internalType": "address",
          "name": "",
          "type": "address"
        }
      ],
      "stateMutability": "view",
      "type": "function",
      "constant": true
    },
    {
      "inputs": [
        {
          "internalType": "address",
          "name": "",
          "type": "address"
        }
      ],
      "name": "_lastMintedNFTId",
      "outputs": [
        {
          "internalType": "uint256",
          "name": "",
          "type": "uint256"
        }
      ],
      "stateMutability": "view",
      "type": "function",
      "constant": true
    },
    {
      "inputs": [],
      "name": "_maxCount",
      "outputs": [
        {
          "internalType": "uint256",
          "name": "",
          "type": "uint256"
        }
      ],
      "stateMutability": "view",
      "type": "function",
      "constant": true
    },
    {
      "inputs": [],
      "name": "_nftContract",
      "outputs": [
        {
          "internalType": "address",
          "name": "",
          "type": "address"
        }
      ],
      "stateMutability": "view",
      "type": "function",
      "constant": true
    },
    {
      "inputs": [],
      "name": "_nftMaxCountPerUser",
      "outputs": [
        {
          "internalType": "uint256",
          "name": "",
          "type": "uint256"
        }
      ],
      "stateMutability": "view",
      "type": "function",
      "constant": true
    },
    {
      "inputs": [
        {
          "internalType": "bytes32",
          "name": "requestId",
          "type": "bytes32"
        },
        {
          "internalType": "uint256",
          "name": "randomness",
          "type": "uint256"
        }
      ],
      "name": "rawFulfillRandomness",
      "outputs": [],
      "stateMutability": "nonpayable",
      "type": "function"
    },
    {
      "inputs": [
        {
          "internalType": "bytes32",
          "name": "",
          "type": "bytes32"
        }
      ],
      "name": "requestIdToMinter",
      "outputs": [
        {
          "internalType": "address",
          "name": "",
          "type": "address"
        }
      ],
      "stateMutability": "view",
      "type": "function",
      "constant": true
    },
    {
      "inputs": [
        {
          "internalType": "address",
          "name": "governance",
          "type": "address"
        }
      ],
      "name": "setGovernance",
      "outputs": [],
      "stateMutability": "nonpayable",
      "type": "function"
    },
    {
      "inputs": [
        {
          "internalType": "address",
          "name": "cifi",
          "type": "address"
        }
      ],
      "name": "setCifiContract",
      "outputs": [],
      "stateMutability": "nonpayable",
      "type": "function"
    },
    {
      "inputs": [
        {
          "internalType": "address",
          "name": "newFeeAccount",
          "type": "address"
        }
      ],
      "name": "ChangeFeeAccount",
      "outputs": [
        {
          "internalType": "bool",
          "name": "",
          "type": "bool"
        }
      ],
      "stateMutability": "nonpayable",
      "type": "function"
    },
    {
      "inputs": [
        {
          "internalType": "uint256",
          "name": "newFeeAmount",
          "type": "uint256"
        }
      ],
      "name": "ChangeFeeAmount",
      "outputs": [
        {
          "internalType": "bool",
          "name": "",
          "type": "bool"
        }
      ],
      "stateMutability": "nonpayable",
      "type": "function"
    },
    {
      "inputs": [],
      "name": "ableClaim",
      "outputs": [
        {
          "internalType": "bool",
          "name": "",
          "type": "bool"
        }
      ],
      "stateMutability": "view",
      "type": "function",
      "constant": true
    },
    {
      "inputs": [],
      "name": "mint",
      "outputs": [
        {
          "internalType": "bytes32",
          "name": "",
          "type": "bytes32"
        }
      ],
      "stateMutability": "nonpayable",
      "type": "function"
    },
    {
      "inputs": [
        {
          "internalType": "uint256",
          "name": "tokenId",
          "type": "uint256"
        }
      ],
      "name": "burn",
      "outputs": [
        {
          "internalType": "bool",
          "name": "",
          "type": "bool"
        }
      ],
      "stateMutability": "nonpayable",
      "type": "function"
    },
    {
      "inputs": [
        {
          "internalType": "address",
          "name": "",
          "type": "address"
        },
        {
          "internalType": "address",
          "name": "",
          "type": "address"
        },
        {
          "internalType": "uint256",
          "name": "",
          "type": "uint256"
        },
        {
          "internalType": "bytes",
          "name": "",
          "type": "bytes"
        }
      ],
      "name": "onERC721Received",
      "outputs": [
        {
          "internalType": "bytes4",
          "name": "",
          "type": "bytes4"
        }
      ],
      "stateMutability": "nonpayable",
      "type": "function"
    }
  ],
  "bytecode": "0x60c0604052612710600255600380546001600160a01b03199081169091556004805482169055600060058181556006556007819055600855600b8054909116905534801561004c57600080fd5b50604051611358380380611358833981810160405260e081101561006f57600080fd5b5080516020820151604083015160608085015160808087015160a08089015160c090990151600080546001600160a01b031990811632179091556001600160601b031995871b86169092529190941b9092169052600b80546001600160a01b0396871690841617905560038054948616948316949094179093556004805494909216931692909217909155670de0b6b3a764000060055560089190915560075560805160601c60a05160601c611216610142600039806108455280610b985250806103965280610b6952506112166000f3fe608060405234801561001057600080fd5b506004361061010b5760003560e01c80635a9e497d116100a2578063c548e76111610071578063c548e76114610319578063ca62a0991461033f578063dd146bb414610347578063ee9e756e14610364578063fc79d647146103815761010b565b80635a9e497d146102c057806394985ddd146102c85780639f8c8de0146102eb578063ab033ea9146102f35761010b565b80631c2f3e3d116100de5780631c2f3e3d1461023b5780633b2d29d11461025f5780633f84561f1461026757806342966c681461028f5761010b565b8063042c8001146101105780631249c58b1461012a578063150b7a02146101325780631ab1358a14610215575b600080fd5b610118610389565b60408051918252519081900360200190f35b61011861038f565b6101f86004803603608081101561014857600080fd5b6001600160a01b0382358116926020810135909116916040820135919081019060808101606082013564010000000081111561018357600080fd5b82018360208201111561019557600080fd5b803590602001918460018302840111640100000000831117156101b757600080fd5b91908080601f0160208091040260200160405190810160405280939291908181526020018383808284376000920191909152509295506106ae945050505050565b604080516001600160e01b03199092168252519081900360200190f35b6101186004803603602081101561022b57600080fd5b50356001600160a01b03166106be565b6102436106d0565b604080516001600160a01b039092168252519081900360200190f35b6101186106df565b61028d6004803603602081101561027d57600080fd5b50356001600160a01b03166106e5565b005b6102ac600480360360208110156102a557600080fd5b5035610757565b604080519115158252519081900360200190f35b610118610834565b61028d600480360360408110156102de57600080fd5b508035906020013561083a565b6102ac6108c5565b61028d6004803603602081101561030957600080fd5b50356001600160a01b0316610956565b6102ac6004803603602081101561032f57600080fd5b50356001600160a01b0316610a5c565b610243610ad2565b6102436004803603602081101561035d57600080fd5b5035610ae1565b6102ac6004803603602081101561037a57600080fd5b5035610afc565b610243610b56565b60065481565b60006007547f00000000000000000000000000000000000000000000000000000000000000006001600160a01b03166370a08231306040518263ffffffff1660e01b815260040180826001600160a01b0316815260200191505060206040518083038186803b15801561040157600080fd5b505afa158015610415573d6000803e3d6000fd5b505050506040513d602081101561042b57600080fd5b5051101561046a5760405162461bcd60e51b815260040180806020018281038252603e8152602001806110f3603e913960400191505060405180910390fd5b600254600360009054906101000a90046001600160a01b03166001600160a01b03166318160ddd6040518163ffffffff1660e01b815260040160206040518083038186803b1580156104bb57600080fd5b505afa1580156104cf573d6000803e3d6000fd5b505050506040513d60208110156104e557600080fd5b5051106105235760405162461bcd60e51b81526004018080602001828103825260348152602001806111526034913960400191505060405180910390fd5b600654600354604080516370a0823160e01b815233600482015290516001600160a01b03909216916370a0823191602480820192602092909190829003018186803b15801561057157600080fd5b505afa158015610585573d6000803e3d6000fd5b505050506040513d602081101561059b57600080fd5b5051106105d95760405162461bcd60e51b81526004018080602001828103825260288152602001806111b96028913960400191505060405180910390fd5b336000818152600960209081526040808320839055600b546004805460055484516323b872dd60e01b8152928301979097526001600160a01b039081166024830152604482019690965291519416936323b872dd93606480840194938390030190829087803b15801561064b57600080fd5b505af115801561065f573d6000803e3d6000fd5b505050506040513d602081101561067557600080fd5b505060085460075460009161068991610b65565b6000818152600a6020526040902080546001600160a01b031916331790559150505b90565b630a85bd0160e11b949350505050565b60096020526000908152604090205481565b6000546001600160a01b031681565b60025481565b6000546001600160a01b03163314610735576040805162461bcd60e51b815260206004820152600e60248201526d6e6f7420676f7665726e616e636560901b604482015290519081900360640190fd5b600b80546001600160a01b0319166001600160a01b0392909216919091179055565b60035460408051632142170760e11b81523360048201523060248201526044810184905290516000926001600160a01b0316916342842e0e916064808301928692919082900301818387803b1580156107af57600080fd5b505af11580156107c3573d6000803e3d6000fd5b505060035460408051630852cd8d60e31b81526004810187905290516001600160a01b0390921693506342966c68925060248082019260009290919082900301818387803b15801561081457600080fd5b505af1158015610828573d6000803e3d6000fd5b50600195945050505050565b60055481565b336001600160a01b037f000000000000000000000000000000000000000000000000000000000000000016146108b7576040805162461bcd60e51b815260206004820152601f60248201527f4f6e6c7920565246436f6f7264696e61746f722063616e2066756c66696c6c00604482015290519081900360640190fd5b6108c18282610d1a565b5050565b600654600354604080516370a0823160e01b81523360048201529051600093926001600160a01b0316916370a08231916024808301926020929190829003018186803b15801561091457600080fd5b505afa158015610928573d6000803e3d6000fd5b505050506040513d602081101561093e57600080fd5b5051101561094e575060016106ab565b5060006106ab565b6000546001600160a01b031633146109a6576040805162461bcd60e51b815260206004820152600e60248201526d6e6f7420676f7665726e616e636560901b604482015290519081900360640190fd5b6001600160a01b038116610a01576040805162461bcd60e51b815260206004820152601f60248201527f6e657720676f7665726e616e636520746865207a65726f206164647265737300604482015290519081900360640190fd5b600080546040516001600160a01b03808516939216917f5f56bee8cffbe9a78652a74a60705edede02af10b0bbb888ca44b79a0d42ce8091a3600080546001600160a01b0319166001600160a01b0392909216919091179055565b600080546001600160a01b03163314610aad576040805162461bcd60e51b815260206004820152600e60248201526d6e6f7420676f7665726e616e636560901b604482015290519081900360640190fd5b50600480546001600160a01b0383166001600160a01b03199091161790556001919050565b6004546001600160a01b031681565b600a602052600090815260409020546001600160a01b031681565b600080546001600160a01b03163314610b4d576040805162461bcd60e51b815260206004820152600e60248201526d6e6f7420676f7665726e616e636560901b604482015290519081900360640190fd5b50600555600190565b6003546001600160a01b031681565b60007f00000000000000000000000000000000000000000000000000000000000000006001600160a01b0316634000aea07f00000000000000000000000000000000000000000000000000000000000000008486600060405160200180838152602001828152602001925050506040516020818303038152906040526040518463ffffffff1660e01b815260040180846001600160a01b0316815260200183815260200180602001828103825283818151815260200191508051906020019080838360005b83811015610c42578181015183820152602001610c2a565b50505050905090810190601f168015610c6f5780820380516001836020036101000a031916815260200191505b50945050505050602060405180830381600087803b158015610c9057600080fd5b505af1158015610ca4573d6000803e3d6000fd5b505050506040513d6020811015610cba57600080fd5b5050600083815260016020526040812054610cda9085908390309061101e565b600085815260016020819052604090912054919250610cf99190611065565b600085815260016020526040902055610d1284826110c6565b949350505050565b600254600360009054906101000a90046001600160a01b03166001600160a01b03166318160ddd6040518163ffffffff1660e01b815260040160206040518083038186803b158015610d6b57600080fd5b505afa158015610d7f573d6000803e3d6000fd5b505050506040513d6020811015610d9557600080fd5b505110610dd35760405162461bcd60e51b81526004018080602001828103825260218152602001806111316021913960400191505060405180910390fd5b6000828152600a60209081526040918290205460065460035484516370a0823160e01b81526001600160a01b03938416600482018190529551929493909116926370a0823192602480840193829003018186803b158015610e3357600080fd5b505afa158015610e47573d6000803e3d6000fd5b505050506040513d6020811015610e5d57600080fd5b505110610e9b5760405162461bcd60e51b81526004018080602001828103825260338152602001806111866033913960400191505060405180910390fd5b60006002548381610ea857fe5b0660010190505b60035460408051634f558e7960e01b81526004810184905290516001600160a01b0390921691634f558e7991602480820192602092909190829003018186803b158015610efb57600080fd5b505afa158015610f0f573d6000803e3d6000fd5b505050506040513d6020811015610f2557600080fd5b505115610f45576002548160010181610f3a57fe5b066001019050610eaf565b600354604080516340c10f1960e01b81526001600160a01b03858116600483015260248201859052915191909216916340c10f199160448083019260209291908290030181600087803b158015610f9b57600080fd5b505af1158015610faf573d6000803e3d6000fd5b505050506040513d6020811015610fc557600080fd5b50506001600160a01b0382166000818152600960209081526040918290208490558151928352905183927f12c12e7c5576d1d1dd995a1769303087dbb9be63b4d537a1b667afcb64fcebfb92908290030190a250505050565b60408051602080820196909652808201949094526001600160a01b039290921660608401526080808401919091528151808403909101815260a09092019052805191012090565b6000828201838110156110bf576040805162461bcd60e51b815260206004820152601b60248201527f536166654d6174683a206164646974696f6e206f766572666c6f770000000000604482015290519081900360640190fd5b9392505050565b60408051602080820194909452808201929092528051808303820181526060909201905280519101209056fe426c696e64426f78466163746f727956313a204e6f7420656e6f756768204c494e4b202d2066696c6c20636f6e7472616374207769746820666175636574546f74616c20746f6b656e73207765726520616c7265616479206d696e74656421426c696e64426f78466163746f727956313a20546f74616c20746f6b656e73207765726520616c7265616479206d696e74656421426c696e64426f78466163746f727956313a20616c726561647920636c61696d6564206d617820636f756e742074696d657321426c696e64426f78466163746f727956313a20616c726561647920636c61696d20352074696d6573a2646970667358221220b788d70cf95a3c12562405780db789e8e51bdc716766fa1383898e2e19e10f9064736f6c63430007040033",
  "immutableReferences": {
    "77": [
      {
        "length": 32,
        "start": 918
      },
      {
        "length": 32,
        "start": 2921
      }
    ],
    "79": [
      {
        "length": 32,
        "start": 2117
      },
      {
        "length": 32,
        "start": 2968
      }
    ]
  },
  "source": "// SPDX-License-Identifier: MIT\r\npragma solidity ^0.7.4;\r\n\r\nimport \"@openzeppelin/contracts/math/SafeMath.sol\";\r\nimport \"@openzeppelin/contracts/token/ERC721/IERC721.sol\";\r\nimport \"@openzeppelin/contracts/token/ERC721/IERC721Receiver.sol\";\r\nimport \"@openzeppelin/contracts/utils/Address.sol\";\r\nimport \"@openzeppelin/contracts/token/ERC20/ERC20.sol\";\r\nimport \"@chainlink/contracts/src/v0.7/VRFConsumerBase.sol\";\r\nimport \"../library/Governance.sol\";\r\nimport \"../interface/INftAsset.sol\";\r\nimport \"./BlindBox.sol\";\r\n\r\ncontract BlindBoxFactoryV1 is Governance, VRFConsumerBase, IERC721Receiver {\r\n    using Address for address;\r\n    using SafeMath for uint256;\r\n    \r\n    event BlindBoxAdded(uint256 indexed id, address author);\r\n\r\n    uint256 public _maxCount = 10000;\r\n    address public _nftContract = address(0x0000000000000000000000);\r\n    address public _feeAccount = address(0x0000000000000000000000);\r\n    uint256 public _feeAmount = 0;\r\n    uint256 public _nftMaxCountPerUser = 5;\r\n    uint256 _linkFee = 0;\r\n    bytes32 _linkKeyHash = bytes32(\"\");\r\n\r\n    mapping(address => uint256) public _lastMintedNFTId;\r\n    mapping(bytes32 => address) public requestIdToMinter;\r\n\r\n    ERC20 _cifiTokenContract = ERC20(0x0);\r\n\r\n    constructor(\r\n        address cifi,\r\n        address nftContract,\r\n        address feeAccount,\r\n        address vrfCoordinator,\r\n        address linkToken,\r\n        bytes32 linkKeyHash,\r\n        uint256 linkFee\r\n    ) VRFConsumerBase(vrfCoordinator, linkToken) {\r\n        _cifiTokenContract = ERC20(cifi);\r\n        _nftContract = nftContract;\r\n        _feeAccount = feeAccount;\r\n        _feeAmount = 1 * (10**18);\r\n        _linkKeyHash = linkKeyHash;\r\n        _linkFee = linkFee;\r\n    }\r\n\r\n    function setCifiContract(address cifi) public onlyGovernance {\r\n        _cifiTokenContract = ERC20(cifi);\r\n    }\r\n\r\n    function ChangeFeeAccount(address newFeeAccount) public onlyGovernance returns (bool)\r\n    {\r\n        _feeAccount = newFeeAccount;\r\n        return true;\r\n    }\r\n\r\n    function ChangeFeeAmount(uint256 newFeeAmount) public onlyGovernance returns (bool) {\r\n        _feeAmount = newFeeAmount;\r\n        return true;\r\n    }\r\n\r\n    function ableClaim() public view returns (bool) {\r\n        if (BlindBox(_nftContract).balanceOf(msg.sender) < _nftMaxCountPerUser) {\r\n            return true;\r\n         } else {\r\n            return false;\r\n         }\r\n    }\r\n\r\n    function mint() public returns (bytes32) {\r\n        require(\r\n            LINK.balanceOf(address(this)) >= _linkFee,\r\n            \"BlindBoxFactoryV1: Not enough LINK - fill contract with faucet\"\r\n        );\r\n        require(\r\n            BlindBox(_nftContract).totalSupply() < _maxCount,\r\n            \"BlindBoxFactoryV1: Total tokens were already minted!\"\r\n        );\r\n        require(\r\n            BlindBox(_nftContract).balanceOf(msg.sender) < _nftMaxCountPerUser,\r\n            \"BlindBoxFactoryV1: already claim 5 times\"\r\n        );\r\n\r\n        _lastMintedNFTId[msg.sender] = 0;\r\n\r\n        _cifiTokenContract.transferFrom(msg.sender, _feeAccount, _feeAmount);\r\n        bytes32 requestId = requestRandomness(_linkKeyHash, _linkFee);\r\n        requestIdToMinter[requestId] = msg.sender;\r\n        return requestId;\r\n    }\r\n\r\n    function fulfillRandomness(bytes32 requestId, uint256 randomness) internal override {\r\n        require(\r\n            BlindBox(_nftContract).totalSupply() < _maxCount,\r\n            \"Total tokens were already minted!\"\r\n        );\r\n        address minter = requestIdToMinter[requestId];\r\n        require(\r\n            BlindBox(_nftContract).balanceOf(minter) < _nftMaxCountPerUser,\r\n            \"BlindBoxFactoryV1: already claimed max count times!\"\r\n        );\r\n        uint256 nftID = (randomness % _maxCount) + 1;\r\n\r\n        while (BlindBox(_nftContract).exists(nftID)) {\r\n            nftID = ((nftID + 1) % _maxCount) + 1;\r\n        }\r\n        BlindBox(_nftContract).mint(minter, nftID);\r\n        _lastMintedNFTId[minter] = nftID;\r\n\r\n        emit BlindBoxAdded(nftID, minter);\r\n    }\r\n\r\n    function burn(uint256 tokenId) external returns (bool) {\r\n        BlindBox(_nftContract).safeTransferFrom(msg.sender, address(this), tokenId);\r\n        BlindBox(_nftContract).burn(tokenId);\r\n        return true;\r\n    }\r\n\r\n    function onERC721Received(address, address, uint256, bytes memory) public virtual override returns (bytes4) {\r\n        return this.onERC721Received.selector;\r\n    }\r\n}\r\n",
  "sourcePath": "E:\\01_CIFI\\00_smart_contracts\\01_santafeapp\\contracts\\nft\\BlindBoxFactoryV1.sol",
  "compiler": {
    "name": "solc",
    "version": "0.7.4+commit.3f05b770.Emscripten.clang"
  },
  "schemaVersion": "3.4.2",
  "updatedAt": "2021-11-18T22:14:57.483Z",
  "networkType": "ethereum",
  "devdoc": {
    "kind": "dev",
    "methods": {},
    "version": 1
  },
  "userdoc": {
    "kind": "user",
    "methods": {},
    "version": 1
  }
}