{
  "contractName": "BlindBoxFactoryV2",
  "abi": [
    {
      "inputs": [
        {
          "internalType": "address",
          "name": "cifi",
          "type": "address"
        },
        {
          "internalType": "address",
          "name": "nftContract",
          "type": "address"
        },
        {
          "internalType": "address",
          "name": "feeAccount",
          "type": "address"
        },
        {
          "internalType": "address",
          "name": "vrfCoordinator",
          "type": "address"
        },
        {
          "internalType": "address",
          "name": "linkToken",
          "type": "address"
        },
        {
          "internalType": "bytes32",
          "name": "linkKeyHash",
          "type": "bytes32"
        },
        {
          "internalType": "uint256",
          "name": "linkFee",
          "type": "uint256"
        }
      ],
      "stateMutability": "nonpayable",
      "type": "constructor"
    },
    {
      "anonymous": false,
      "inputs": [
        {
          "indexed": true,
          "internalType": "uint256",
          "name": "id",
          "type": "uint256"
        },
        {
          "indexed": false,
          "internalType": "address",
          "name": "author",
          "type": "address"
        }
      ],
      "name": "BlindBoxAdded",
      "type": "event"
    },
    {
      "anonymous": false,
      "inputs": [
        {
          "indexed": true,
          "internalType": "address",
          "name": "previousOwner",
          "type": "address"
        },
        {
          "indexed": true,
          "internalType": "address",
          "name": "newOwner",
          "type": "address"
        }
      ],
      "name": "GovernanceTransferred",
      "type": "event"
    },
    {
      "inputs": [],
      "name": "_feeAccount",
      "outputs": [
        {
          "internalType": "address",
          "name": "",
          "type": "address"
        }
      ],
      "stateMutability": "view",
      "type": "function",
      "constant": true
    },
    {
      "inputs": [],
      "name": "_feeAmount",
      "outputs": [
        {
          "internalType": "uint256",
          "name": "",
          "type": "uint256"
        }
      ],
      "stateMutability": "view",
      "type": "function",
      "constant": true
    },
    {
      "inputs": [],
      "name": "_governance",
      "outputs": [
        {
          "internalType": "address",
          "name": "",
          "type": "address"
        }
      ],
      "stateMutability": "view",
      "type": "function",
      "constant": true
    },
    {
      "inputs": [
        {
          "internalType": "address",
          "name": "",
          "type": "address"
        }
      ],
      "name": "_lastMintedNFTId",
      "outputs": [
        {
          "internalType": "uint256",
          "name": "",
          "type": "uint256"
        }
      ],
      "stateMutability": "view",
      "type": "function",
      "constant": true
    },
    {
      "inputs": [],
      "name": "_maxCount",
      "outputs": [
        {
          "internalType": "uint256",
          "name": "",
          "type": "uint256"
        }
      ],
      "stateMutability": "view",
      "type": "function",
      "constant": true
    },
    {
      "inputs": [],
      "name": "_nftContract",
      "outputs": [
        {
          "internalType": "address",
          "name": "",
          "type": "address"
        }
      ],
      "stateMutability": "view",
      "type": "function",
      "constant": true
    },
    {
      "inputs": [],
      "name": "_nftMaxCountPerUser",
      "outputs": [
        {
          "internalType": "uint256",
          "name": "",
          "type": "uint256"
        }
      ],
      "stateMutability": "view",
      "type": "function",
      "constant": true
    },
    {
      "inputs": [],
      "name": "count",
      "outputs": [
        {
          "internalType": "uint256",
          "name": "",
          "type": "uint256"
        }
      ],
      "stateMutability": "view",
      "type": "function",
      "constant": true
    },
    {
      "inputs": [],
      "name": "interval",
      "outputs": [
        {
          "internalType": "uint256",
          "name": "",
          "type": "uint256"
        }
      ],
      "stateMutability": "view",
      "type": "function",
      "constant": true
    },
    {
      "inputs": [],
      "name": "nlimit",
      "outputs": [
        {
          "internalType": "uint256",
          "name": "",
          "type": "uint256"
        }
      ],
      "stateMutability": "view",
      "type": "function",
      "constant": true
    },
    {
      "inputs": [
        {
          "internalType": "address",
          "name": "",
          "type": "address"
        }
      ],
      "name": "queue_count_by_address",
      "outputs": [
        {
          "internalType": "uint256",
          "name": "",
          "type": "uint256"
        }
      ],
      "stateMutability": "view",
      "type": "function",
      "constant": true
    },
    {
      "inputs": [
        {
          "internalType": "uint256",
          "name": "",
          "type": "uint256"
        }
      ],
      "name": "queue_list",
      "outputs": [
        {
          "internalType": "address",
          "name": "",
          "type": "address"
        }
      ],
      "stateMutability": "view",
      "type": "function",
      "constant": true
    },
    {
      "inputs": [
        {
          "internalType": "uint256",
          "name": "",
          "type": "uint256"
        }
      ],
      "name": "queue_timestamp_list",
      "outputs": [
        {
          "internalType": "uint256",
          "name": "",
          "type": "uint256"
        }
      ],
      "stateMutability": "view",
      "type": "function",
      "constant": true
    },
    {
      "inputs": [
        {
          "internalType": "bytes32",
          "name": "requestId",
          "type": "bytes32"
        },
        {
          "internalType": "uint256",
          "name": "randomness",
          "type": "uint256"
        }
      ],
      "name": "rawFulfillRandomness",
      "outputs": [],
      "stateMutability": "nonpayable",
      "type": "function"
    },
    {
      "inputs": [
        {
          "internalType": "bytes32",
          "name": "",
          "type": "bytes32"
        }
      ],
      "name": "requestIdToMinter",
      "outputs": [
        {
          "internalType": "address",
          "name": "",
          "type": "address"
        }
      ],
      "stateMutability": "view",
      "type": "function",
      "constant": true
    },
    {
      "inputs": [
        {
          "internalType": "address",
          "name": "governance",
          "type": "address"
        }
      ],
      "name": "setGovernance",
      "outputs": [],
      "stateMutability": "nonpayable",
      "type": "function"
    },
    {
      "inputs": [
        {
          "internalType": "bytes",
          "name": "",
          "type": "bytes"
        }
      ],
      "name": "checkUpkeep",
      "outputs": [
        {
          "internalType": "bool",
          "name": "upkeepNeeded",
          "type": "bool"
        },
        {
          "internalType": "bytes",
          "name": "",
          "type": "bytes"
        }
      ],
      "stateMutability": "nonpayable",
      "type": "function"
    },
    {
      "inputs": [
        {
          "internalType": "bytes",
          "name": "",
          "type": "bytes"
        }
      ],
      "name": "performUpkeep",
      "outputs": [],
      "stateMutability": "nonpayable",
      "type": "function"
    },
    {
      "inputs": [
        {
          "internalType": "address",
          "name": "cifi",
          "type": "address"
        }
      ],
      "name": "setCifiContract",
      "outputs": [],
      "stateMutability": "nonpayable",
      "type": "function"
    },
    {
      "inputs": [
        {
          "internalType": "address",
          "name": "newFeeAccount",
          "type": "address"
        }
      ],
      "name": "ChangeFeeAccount",
      "outputs": [
        {
          "internalType": "bool",
          "name": "",
          "type": "bool"
        }
      ],
      "stateMutability": "nonpayable",
      "type": "function"
    },
    {
      "inputs": [
        {
          "internalType": "uint256",
          "name": "newFeeAmount",
          "type": "uint256"
        }
      ],
      "name": "ChangeFeeAmount",
      "outputs": [
        {
          "internalType": "bool",
          "name": "",
          "type": "bool"
        }
      ],
      "stateMutability": "nonpayable",
      "type": "function"
    },
    {
      "inputs": [],
      "name": "ableClaim",
      "outputs": [
        {
          "internalType": "bool",
          "name": "",
          "type": "bool"
        }
      ],
      "stateMutability": "view",
      "type": "function",
      "constant": true
    },
    {
      "inputs": [],
      "name": "mint",
      "outputs": [
        {
          "internalType": "uint256",
          "name": "",
          "type": "uint256"
        }
      ],
      "stateMutability": "nonpayable",
      "type": "function"
    },
    {
      "inputs": [
        {
          "internalType": "uint256",
          "name": "tokenId",
          "type": "uint256"
        }
      ],
      "name": "burn",
      "outputs": [
        {
          "internalType": "bool",
          "name": "",
          "type": "bool"
        }
      ],
      "stateMutability": "nonpayable",
      "type": "function"
    },
    {
      "inputs": [
        {
          "internalType": "address",
          "name": "",
          "type": "address"
        },
        {
          "internalType": "address",
          "name": "",
          "type": "address"
        },
        {
          "internalType": "uint256",
          "name": "",
          "type": "uint256"
        },
        {
          "internalType": "bytes",
          "name": "",
          "type": "bytes"
        }
      ],
      "name": "onERC721Received",
      "outputs": [
        {
          "internalType": "bytes4",
          "name": "",
          "type": "bytes4"
        }
      ],
      "stateMutability": "nonpayable",
      "type": "function"
    }
  ],
  "bytecode": "0x60e0604052612710600255600380546001600160a01b0319908116909155600480548216905560006005818155600655600781905560088190556032600b5561025860c052600c55600d8054909116905534801561005c57600080fd5b50604051611908380380611908833981810160405260e081101561007f57600080fd5b5080516020820151604083015160608085015160808087015160a08089015160c090990151600080546001600160a01b031990811632179091556001600160601b031995871b86169092529190941b9092169052600d80546001600160a01b0396871690841617905560038054948616948316949094179093556004805494909216931692909217909155670de0b6b3a764000060055560089190915560075560805160601c60a05160601c60c0516117a861016060003980610a9b5280610b86525080610bb352806112ff5250806105dd52806112d052506117a86000f3fe608060405234801561001057600080fd5b50600436106101735760003560e01c80635a9e497d116100de578063ab033ea911610097578063ca62a09911610071578063ca62a09914610580578063dd146bb414610588578063ee9e756e146105a5578063fc79d647146105c257610173565b8063ab033ea91461052c578063b754edca14610552578063c548e7611461055a57610173565b80635a9e497d146103da5780636d0bb788146103e25780636e04ff0d14610408578063947a36fb146104f957806394985ddd146105015780639f8c8de01461052457610173565b80633b2d29d1116101305780633b2d29d1146102cf5780633f84561f146102d757806342966c68146102ff5780634585e33b1461033057806355946d8b146103a057806357dcb2e4146103bd57610173565b8063042c80011461017857806306661abd146101925780631249c58b1461019a578063150b7a02146101a25780631ab1358a146102855780631c2f3e3d146102ab575b600080fd5b6101806105ca565b60408051918252519081900360200190f35b6101806105d0565b6101806105d6565b610268600480360360808110156101b857600080fd5b6001600160a01b038235811692602081013590911691604082013591908101906080810160608201356401000000008111156101f357600080fd5b82018360208201111561020557600080fd5b8035906020019184600183028401116401000000008311171561022757600080fd5b91908080601f0160208091040260200160405190810160405280939291908181526020018383808284376000920191909152509295506108f0945050505050565b604080516001600160e01b03199092168252519081900360200190f35b6101806004803603602081101561029b57600080fd5b50356001600160a01b0316610900565b6102b3610912565b604080516001600160a01b039092168252519081900360200190f35b610180610921565b6102fd600480360360208110156102ed57600080fd5b50356001600160a01b0316610927565b005b61031c6004803603602081101561031557600080fd5b5035610999565b604080519115158252519081900360200190f35b6102fd6004803603602081101561034657600080fd5b81019060208101813564010000000081111561036157600080fd5b82018360208201111561037357600080fd5b8035906020019184600183028401116401000000008311171561039557600080fd5b509092509050610a76565b610180600480360360208110156103b657600080fd5b5035610b17565b6102b3600480360360208110156103d357600080fd5b5035610b38565b610180610b62565b610180600480360360208110156103f857600080fd5b50356001600160a01b0316610b68565b6104786004803603602081101561041e57600080fd5b81019060208101813564010000000081111561043957600080fd5b82018360208201111561044b57600080fd5b8035906020019184600183028401116401000000008311171561046d57600080fd5b509092509050610b7a565b60405180831515815260200180602001828103825283818151815260200191508051906020019080838360005b838110156104bd5781810151838201526020016104a5565b50505050905090810190601f1680156104ea5780820380516001836020036101000a031916815260200191505b50935050505060405180910390f35b610180610b84565b6102fd6004803603604081101561051757600080fd5b5080359060200135610ba8565b61031c610c33565b6102fd6004803603602081101561054257600080fd5b50356001600160a01b0316610cc4565b610180610dca565b61031c6004803603602081101561057057600080fd5b50356001600160a01b0316610dd0565b6102b3610e46565b6102b36004803603602081101561059e57600080fd5b5035610e55565b61031c600480360360208110156105bb57600080fd5b5035610e70565b6102b3610eca565b60065481565b600c5481565b60006007547f00000000000000000000000000000000000000000000000000000000000000006001600160a01b03166370a08231306040518263ffffffff1660e01b815260040180826001600160a01b0316815260200191505060206040518083038186803b15801561064857600080fd5b505afa15801561065c573d6000803e3d6000fd5b505050506040513d602081101561067257600080fd5b505110156106b15760405162461bcd60e51b815260040180806020018281038252603e8152602001806116d9603e913960400191505060405180910390fd5b600254600360009054906101000a90046001600160a01b03166001600160a01b03166318160ddd6040518163ffffffff1660e01b815260040160206040518083038186803b15801561070257600080fd5b505afa158015610716573d6000803e3d6000fd5b505050506040513d602081101561072c57600080fd5b50511061076a5760405162461bcd60e51b81526004018080602001828103825260348152602001806117176034913960400191505060405180910390fd5b3360008181526010602090815260408083205460035482516370a0823160e01b81526004810196909652915190946001600160a01b03909216926370a082319260248082019391829003018186803b1580156107c557600080fd5b505afa1580156107d9573d6000803e3d6000fd5b505050506040513d60208110156107ef57600080fd5b5051600654909150828201106108365760405162461bcd60e51b815260040180806020018281038252602881526020018061174b6028913960400191505060405180910390fd5b600d5460048054600554604080516323b872dd60e01b815233948101949094526001600160a01b0392831660248501526044840191909152519216916323b872dd916064808201926020929091908290030181600087803b15801561089a57600080fd5b505af11580156108ae573d6000803e3d6000fd5b505050506040513d60208110156108c457600080fd5b506108d0905033610ed9565b336000908152601060205260409020600180840190915591010190505b90565b630a85bd0160e11b949350505050565b60096020526000908152604090205481565b6000546001600160a01b031681565b60025481565b6000546001600160a01b03163314610977576040805162461bcd60e51b815260206004820152600e60248201526d6e6f7420676f7665726e616e636560901b604482015290519081900360640190fd5b600d80546001600160a01b0319166001600160a01b0392909216919091179055565b60035460408051632142170760e11b81523360048201523060248201526044810184905290516000926001600160a01b0316916342842e0e916064808301928692919082900301818387803b1580156109f157600080fd5b505af1158015610a05573d6000803e3d6000fd5b505060035460408051630852cd8d60e31b81526004810187905290516001600160a01b0390921693506342966c68925060248082019260009290919082900301818387803b158015610a5657600080fd5b505af1158015610a6a573d6000803e3d6000fd5b50600195945050505050565b600c80546001019055600b54600e5460009111610a91575060015b600e5415610adf577f0000000000000000000000000000000000000000000000000000000000000000600f600081548110610ac857fe5b906000526020600020015442031115610adf575060015b8015610b1257610b10600e600081548110610af657fe5b6000918252602090912001546001600160a01b0316610f5a565b505b505050565b600f8181548110610b2757600080fd5b600091825260209091200154905081565b600e8181548110610b4857600080fd5b6000918252602090912001546001600160a01b0316905081565b60055481565b60106020526000908152604090205481565b5060019160609150565b7f000000000000000000000000000000000000000000000000000000000000000081565b336001600160a01b037f00000000000000000000000000000000000000000000000000000000000000001614610c25576040805162461bcd60e51b815260206004820152601f60248201527f4f6e6c7920565246436f6f7264696e61746f722063616e2066756c66696c6c00604482015290519081900360640190fd5b610c2f8282610fb7565b5050565b600654600354604080516370a0823160e01b81523360048201529051600093926001600160a01b0316916370a08231916024808301926020929190829003018186803b158015610c8257600080fd5b505afa158015610c96573d6000803e3d6000fd5b505050506040513d6020811015610cac57600080fd5b50511015610cbc575060016108ed565b5060006108ed565b6000546001600160a01b03163314610d14576040805162461bcd60e51b815260206004820152600e60248201526d6e6f7420676f7665726e616e636560901b604482015290519081900360640190fd5b6001600160a01b038116610d6f576040805162461bcd60e51b815260206004820152601f60248201527f6e657720676f7665726e616e636520746865207a65726f206164647265737300604482015290519081900360640190fd5b600080546040516001600160a01b03808516939216917f5f56bee8cffbe9a78652a74a60705edede02af10b0bbb888ca44b79a0d42ce8091a3600080546001600160a01b0319166001600160a01b0392909216919091179055565b600b5481565b600080546001600160a01b03163314610e21576040805162461bcd60e51b815260206004820152600e60248201526d6e6f7420676f7665726e616e636560901b604482015290519081900360640190fd5b50600480546001600160a01b0383166001600160a01b03199091161790556001919050565b6004546001600160a01b031681565b600a602052600090815260409020546001600160a01b031681565b600080546001600160a01b03163314610ec1576040805162461bcd60e51b815260206004820152600e60248201526d6e6f7420676f7665726e616e636560901b604482015290519081900360640190fd5b50600555600190565b6003546001600160a01b031681565b600e805460018082019092557fbb7b4a454dc3493923482f07822329ed19e8244eff582cc204f8554c3620c3fd0180546001600160a01b0319166001600160a01b039390931692909217909155600f80549182018155600052427f8d1108e10bcb7c27dddfc02ed9d693a074039d026cf4ea4240b40f7d581ac80290910155565b6001600160a01b03811660009081526009602052604081208190556008546007548291610f86916112cc565b6000818152600a6020526040902080546001600160a01b0386166001600160a01b0319909116179055915050919050565b600254600360009054906101000a90046001600160a01b03166001600160a01b03166318160ddd6040518163ffffffff1660e01b815260040160206040518083038186803b15801561100857600080fd5b505afa15801561101c573d6000803e3d6000fd5b505050506040513d602081101561103257600080fd5b5051106110705760405162461bcd60e51b81526004018080602001828103825260348152602001806117176034913960400191505060405180910390fd5b6000828152600a60209081526040918290205460065460035484516370a0823160e01b81526001600160a01b03938416600482018190529551929493909116926370a0823192602480840193829003018186803b1580156110d057600080fd5b505afa1580156110e4573d6000803e3d6000fd5b505050506040513d60208110156110fa57600080fd5b5051106111385760405162461bcd60e51b81526004018080602001828103825260338152602001806116a66033913960400191505060405180910390fd5b6000600254838161114557fe5b0660010190505b60035460408051634f558e7960e01b81526004810184905290516001600160a01b0390921691634f558e7991602480820192602092909190829003018186803b15801561119857600080fd5b505afa1580156111ac573d6000803e3d6000fd5b505050506040513d60208110156111c257600080fd5b5051156111e25760025481600101816111d757fe5b06600101905061114c565b600354604080516340c10f1960e01b81526001600160a01b03858116600483015260248201859052915191909216916340c10f199160448083019260209291908290030181600087803b15801561123857600080fd5b505af115801561124c573d6000803e3d6000fd5b505050506040513d602081101561126257600080fd5b50506001600160a01b0382166000908152600960205260409020819055611287611481565b604080516001600160a01b0384168152905182917f12c12e7c5576d1d1dd995a1769303087dbb9be63b4d537a1b667afcb64fcebfb919081900360200190a250505050565b60007f00000000000000000000000000000000000000000000000000000000000000006001600160a01b0316634000aea07f00000000000000000000000000000000000000000000000000000000000000008486600060405160200180838152602001828152602001925050506040516020818303038152906040526040518463ffffffff1660e01b815260040180846001600160a01b0316815260200183815260200180602001828103825283818151815260200191508051906020019080838360005b838110156113a9578181015183820152602001611391565b50505050905090810190601f1680156113d65780820380516001836020036101000a031916815260200191505b50945050505050602060405180830381600087803b1580156113f757600080fd5b505af115801561140b573d6000803e3d6000fd5b505050506040513d602081101561142157600080fd5b5050600083815260016020526040812054611441908590839030906115d1565b6000858152600160208190526040909120549192506114609190611618565b6000858152600160205260409020556114798482611679565b949350505050565b600e548061148f57506115cf565b6000600e60008154811061149f57fe5b60009182526020808320909101546001600160a01b031680835260109091526040822080546000198101909155909250905b6001840381101561157c57600e81600101815481106114ec57fe5b600091825260209091200154600e80546001600160a01b03909216918390811061151257fe5b9060005260206000200160006101000a8154816001600160a01b0302191690836001600160a01b03160217905550600f816001018154811061155057fe5b9060005260206000200154600f828154811061156857fe5b6000918252602090912001556001016114d1565b50600e80548061158857fe5b600082815260209020810160001990810180546001600160a01b0319169055019055600f8054806115b557fe5b600190038181906000526020600020016000905590555050505b565b60408051602080820196909652808201949094526001600160a01b039290921660608401526080808401919091528151808403909101815260a09092019052805191012090565b600082820183811015611672576040805162461bcd60e51b815260206004820152601b60248201527f536166654d6174683a206164646974696f6e206f766572666c6f770000000000604482015290519081900360640190fd5b9392505050565b60408051602080820194909452808201929092528051808303820181526060909201905280519101209056fe426c696e64426f78466163746f727956323a20616c726561647920636c61696d6564206d617820636f756e742074696d657321426c696e64426f78466163746f727956323a204e6f7420656e6f756768204c494e4b202d2066696c6c20636f6e7472616374207769746820666175636574426c696e64426f78466163746f727956323a20546f74616c20746f6b656e73207765726520616c7265616479206d696e74656421426c696e64426f78466163746f727956323a20616c726561647920636c61696d20352074696d6573a26469706673582212209f8ed71881e372e5b41df838af98415451d96276efe153b76893202817810fc564736f6c63430007040033",
  "immutableReferences": {
    "113": [
      {
        "length": 32,
        "start": 1501
      },
      {
        "length": 32,
        "start": 4816
      }
    ],
    "115": [
      {
        "length": 32,
        "start": 2995
      },
      {
        "length": 32,
        "start": 4863
      }
    ],
    "6700": [
      {
        "length": 32,
        "start": 2715
      },
      {
        "length": 32,
        "start": 2950
      }
    ]
  },
  "source": "// SPDX-License-Identifier: MIT\r\npragma solidity ^0.7.4;\r\n\r\nimport \"@openzeppelin/contracts/math/SafeMath.sol\";\r\nimport \"@openzeppelin/contracts/token/ERC721/IERC721.sol\";\r\nimport \"@openzeppelin/contracts/token/ERC721/IERC721Receiver.sol\";\r\nimport \"@openzeppelin/contracts/utils/Address.sol\";\r\nimport \"@openzeppelin/contracts/token/ERC20/ERC20.sol\";\r\nimport \"@chainlink/contracts/src/v0.7/VRFConsumerBase.sol\";\r\nimport \"@chainlink/contracts/src/v0.7/KeeperCompatible.sol\";\r\nimport \"../library/Governance.sol\";\r\nimport \"../interface/INftAsset.sol\";\r\nimport \"./BlindBox.sol\";\r\n\r\ncontract BlindBoxFactoryV2 is Governance, VRFConsumerBase, IERC721Receiver, KeeperCompatible {\r\n    using Address for address;\r\n    using SafeMath for uint256;\r\n    \r\n    event BlindBoxAdded(uint256 indexed id, address author);\r\n\r\n    uint256 public _maxCount = 10000;\r\n    address public _nftContract = address(0x0000000000000000000000);\r\n    address public _feeAccount = address(0x0000000000000000000000);\r\n    uint256 public _feeAmount = 0;\r\n    uint256 public _nftMaxCountPerUser = 5;\r\n    uint256 _linkFee = 0;\r\n    bytes32 _linkKeyHash = bytes32(\"\");\r\n\r\n    mapping(address => uint256) public _lastMintedNFTId;\r\n    mapping(bytes32 => address) public requestIdToMinter;\r\n    uint256 public nlimit = 50;\r\n    uint public immutable interval = 600; // 10mins\r\n\r\n    uint256 public count = 0;\r\n\r\n    ERC20 _cifiTokenContract = ERC20(0x0);\r\n\r\n    address[] public queue_list;\r\n    uint[] public queue_timestamp_list;\r\n    mapping(address => uint256) public queue_count_by_address;    \r\n\r\n    constructor(\r\n        address cifi,\r\n        address nftContract,\r\n        address feeAccount,\r\n        address vrfCoordinator,\r\n        address linkToken,\r\n        bytes32 linkKeyHash,\r\n        uint256 linkFee\r\n    ) VRFConsumerBase(vrfCoordinator, linkToken) {\r\n        _cifiTokenContract = ERC20(cifi);\r\n        _nftContract = nftContract;\r\n        _feeAccount = feeAccount;\r\n        _feeAmount = 1 * (10**18);\r\n        _linkKeyHash = linkKeyHash;\r\n        _linkFee = linkFee;\r\n    }\r\n\r\n    function checkUpkeep(bytes calldata) external override returns (bool upkeepNeeded, bytes memory) {\r\n        upkeepNeeded = true;\r\n    }\r\n\r\n    function performUpkeep(bytes calldata) external override {\r\n        count = count + 1;\r\n        bool _upkeepNeeded = false;\r\n        if (queue_list.length >= nlimit) _upkeepNeeded = true;\r\n        if (queue_list.length > 0) {\r\n            if (block.timestamp - queue_timestamp_list[0] > interval) {\r\n                _upkeepNeeded = true;\r\n            }\r\n        }\r\n        if (_upkeepNeeded) {\r\n            internal_mint(queue_list[0]);\r\n        }\r\n    }\r\n\r\n    function setCifiContract(address cifi) public onlyGovernance {\r\n        _cifiTokenContract = ERC20(cifi);\r\n    }\r\n\r\n    function ChangeFeeAccount(address newFeeAccount) public onlyGovernance returns (bool)\r\n    {\r\n        _feeAccount = newFeeAccount;\r\n        return true;\r\n    }\r\n\r\n    function ChangeFeeAmount(uint256 newFeeAmount) public onlyGovernance returns (bool) {\r\n        _feeAmount = newFeeAmount;\r\n        return true;\r\n    }\r\n\r\n    function ableClaim() public view returns (bool) {\r\n        if (BlindBox(_nftContract).balanceOf(msg.sender) < _nftMaxCountPerUser) {\r\n            return true;\r\n         } else {\r\n            return false;\r\n         }\r\n    }\r\n\r\n    function pushQueueList(address addr) internal {\r\n        queue_list.push(addr);\r\n        queue_timestamp_list.push(block.timestamp);\r\n    }\r\n\r\n    function popQueueList() internal {\r\n        uint length = queue_list.length;\r\n        if (length == 0) return;\r\n        address addr = queue_list[0];\r\n        uint256 queue_count = queue_count_by_address[addr];\r\n        queue_count_by_address[addr] = queue_count - 1;\r\n        for (uint i = 0; i < length - 1; i++) {\r\n            queue_list[i] = queue_list[i + 1];\r\n            queue_timestamp_list[i] = queue_timestamp_list[i + 1];\r\n        }\r\n        queue_list.pop();\r\n        queue_timestamp_list.pop();\r\n    }\r\n\r\n    function mint() public returns (uint256) {\r\n        require(\r\n            LINK.balanceOf(address(this)) >= _linkFee,\r\n            \"BlindBoxFactoryV2: Not enough LINK - fill contract with faucet\"\r\n        );\r\n        require(\r\n            BlindBox(_nftContract).totalSupply() < _maxCount,\r\n            \"BlindBoxFactoryV2: Total tokens were already minted!\"\r\n        );\r\n        uint256 queue_count = queue_count_by_address[msg.sender];\r\n        uint256 balance = BlindBox(_nftContract).balanceOf(msg.sender);\r\n        require(\r\n            (balance + queue_count) < _nftMaxCountPerUser,\r\n            \"BlindBoxFactoryV2: already claim 5 times\"\r\n        );\r\n\r\n        _cifiTokenContract.transferFrom(msg.sender, _feeAccount, _feeAmount);\r\n        pushQueueList(msg.sender);\r\n        queue_count_by_address[msg.sender] = queue_count + 1;\r\n        return balance + queue_count + 1;\r\n\r\n    }\r\n\r\n    function internal_mint(address addr) internal returns (bytes32){\r\n        _lastMintedNFTId[addr] = 0;\r\n        bytes32 requestId = requestRandomness(_linkKeyHash, _linkFee);\r\n        requestIdToMinter[requestId] = addr;\r\n        return requestId;\r\n    }\r\n\r\n    function fulfillRandomness(bytes32 requestId, uint256 randomness) internal override {\r\n        require(\r\n            BlindBox(_nftContract).totalSupply() < _maxCount,\r\n            \"BlindBoxFactoryV2: Total tokens were already minted!\"\r\n        );\r\n        address minter = requestIdToMinter[requestId];\r\n        require(\r\n            BlindBox(_nftContract).balanceOf(minter) < _nftMaxCountPerUser,\r\n            \"BlindBoxFactoryV2: already claimed max count times!\"\r\n        );\r\n        uint256 nftID = (randomness % _maxCount) + 1;\r\n\r\n        while (BlindBox(_nftContract).exists(nftID)) {\r\n            nftID = ((nftID + 1) % _maxCount) + 1;\r\n        }\r\n        BlindBox(_nftContract).mint(minter, nftID);\r\n        _lastMintedNFTId[minter] = nftID;\r\n        popQueueList();\r\n        emit BlindBoxAdded(nftID, minter);\r\n    }\r\n\r\n    function burn(uint256 tokenId) external returns (bool) {\r\n        BlindBox(_nftContract).safeTransferFrom(msg.sender, address(this), tokenId);\r\n        BlindBox(_nftContract).burn(tokenId);\r\n        return true;\r\n    }\r\n\r\n    function onERC721Received(address, address, uint256, bytes memory) public virtual override returns (bytes4) {\r\n        return this.onERC721Received.selector;\r\n    }\r\n}\r\n",
  "sourcePath": "E:\\01_CIFI\\00_smart_contracts\\01_santafeapp\\contracts\\nft\\BlindBoxFactoryV2.sol",
  "compiler": {
    "name": "solc",
    "version": "0.7.4+commit.3f05b770.Emscripten.clang"
  },
  "schemaVersion": "3.4.2",
  "updatedAt": "2021-11-29T09:53:40.713Z",
  "networkType": "ethereum",
  "devdoc": {
    "kind": "dev",
    "methods": {},
    "version": 1
  },
  "userdoc": {
    "kind": "user",
    "methods": {},
    "version": 1
  }
}