{
  "contractName": "SantaFactory",
  "abi": [
    {
      "inputs": [
        {
          "internalType": "address",
          "name": "cifi",
          "type": "address"
        },
        {
          "internalType": "address",
          "name": "nft",
          "type": "address"
        },
        {
          "internalType": "uint256",
          "name": "maxNftCount",
          "type": "uint256"
        },
        {
          "internalType": "address",
          "name": "vrfCoordinator",
          "type": "address"
        },
        {
          "internalType": "address",
          "name": "linkToken",
          "type": "address"
        },
        {
          "internalType": "bytes32",
          "name": "linkKeyHash",
          "type": "bytes32"
        },
        {
          "internalType": "uint256",
          "name": "linkFee",
          "type": "uint256"
        }
      ],
      "stateMutability": "nonpayable",
      "type": "constructor"
    },
    {
      "anonymous": false,
      "inputs": [
        {
          "indexed": true,
          "internalType": "address",
          "name": "previousOwner",
          "type": "address"
        },
        {
          "indexed": true,
          "internalType": "address",
          "name": "newOwner",
          "type": "address"
        }
      ],
      "name": "GovernanceTransferred",
      "type": "event"
    },
    {
      "anonymous": false,
      "inputs": [
        {
          "indexed": true,
          "internalType": "uint256",
          "name": "id",
          "type": "uint256"
        },
        {
          "indexed": false,
          "internalType": "address",
          "name": "author",
          "type": "address"
        }
      ],
      "name": "NFTAdded",
      "type": "event"
    },
    {
      "inputs": [],
      "name": "_cifi",
      "outputs": [
        {
          "internalType": "contract ICifi_Token",
          "name": "",
          "type": "address"
        }
      ],
      "stateMutability": "view",
      "type": "function",
      "constant": true
    },
    {
      "inputs": [
        {
          "internalType": "address",
          "name": "",
          "type": "address"
        }
      ],
      "name": "_claimMembers",
      "outputs": [
        {
          "internalType": "bool",
          "name": "",
          "type": "bool"
        }
      ],
      "stateMutability": "view",
      "type": "function",
      "constant": true
    },
    {
      "inputs": [],
      "name": "_governance",
      "outputs": [
        {
          "internalType": "address",
          "name": "",
          "type": "address"
        }
      ],
      "stateMutability": "view",
      "type": "function",
      "constant": true
    },
    {
      "inputs": [
        {
          "internalType": "address",
          "name": "",
          "type": "address"
        }
      ],
      "name": "_lastClaimedNFTId",
      "outputs": [
        {
          "internalType": "uint256",
          "name": "",
          "type": "uint256"
        }
      ],
      "stateMutability": "view",
      "type": "function",
      "constant": true
    },
    {
      "inputs": [],
      "name": "_maxClass",
      "outputs": [
        {
          "internalType": "uint256",
          "name": "",
          "type": "uint256"
        }
      ],
      "stateMutability": "view",
      "type": "function",
      "constant": true
    },
    {
      "inputs": [],
      "name": "_maxClassLong",
      "outputs": [
        {
          "internalType": "uint256",
          "name": "",
          "type": "uint256"
        }
      ],
      "stateMutability": "view",
      "type": "function",
      "constant": true
    },
    {
      "inputs": [
        {
          "internalType": "address",
          "name": "",
          "type": "address"
        }
      ],
      "name": "_minters",
      "outputs": [
        {
          "internalType": "bool",
          "name": "",
          "type": "bool"
        }
      ],
      "stateMutability": "view",
      "type": "function",
      "constant": true
    },
    {
      "inputs": [],
      "name": "_nft",
      "outputs": [
        {
          "internalType": "contract INftAsset",
          "name": "",
          "type": "address"
        }
      ],
      "stateMutability": "view",
      "type": "function",
      "constant": true
    },
    {
      "inputs": [],
      "name": "_nftId",
      "outputs": [
        {
          "internalType": "uint256",
          "name": "",
          "type": "uint256"
        }
      ],
      "stateMutability": "view",
      "type": "function",
      "constant": true
    },
    {
      "inputs": [],
      "name": "_stakingPowaBase",
      "outputs": [
        {
          "internalType": "uint256",
          "name": "",
          "type": "uint256"
        }
      ],
      "stateMutability": "view",
      "type": "function",
      "constant": true
    },
    {
      "inputs": [
        {
          "internalType": "bytes32",
          "name": "requestId",
          "type": "bytes32"
        },
        {
          "internalType": "uint256",
          "name": "randomness",
          "type": "uint256"
        }
      ],
      "name": "rawFulfillRandomness",
      "outputs": [],
      "stateMutability": "nonpayable",
      "type": "function"
    },
    {
      "inputs": [
        {
          "internalType": "bytes32",
          "name": "",
          "type": "bytes32"
        }
      ],
      "name": "requestIdToAddress",
      "outputs": [
        {
          "internalType": "address",
          "name": "",
          "type": "address"
        }
      ],
      "stateMutability": "view",
      "type": "function",
      "constant": true
    },
    {
      "inputs": [
        {
          "internalType": "bytes32",
          "name": "",
          "type": "bytes32"
        }
      ],
      "name": "requestIdToFaceValue",
      "outputs": [
        {
          "internalType": "uint256",
          "name": "",
          "type": "uint256"
        }
      ],
      "stateMutability": "view",
      "type": "function",
      "constant": true
    },
    {
      "inputs": [
        {
          "internalType": "address",
          "name": "governance",
          "type": "address"
        }
      ],
      "name": "setGovernance",
      "outputs": [],
      "stateMutability": "nonpayable",
      "type": "function"
    },
    {
      "inputs": [
        {
          "internalType": "address",
          "name": "minter",
          "type": "address"
        }
      ],
      "name": "addMinter",
      "outputs": [],
      "stateMutability": "nonpayable",
      "type": "function"
    },
    {
      "inputs": [
        {
          "internalType": "address",
          "name": "minter",
          "type": "address"
        }
      ],
      "name": "removeMinter",
      "outputs": [],
      "stateMutability": "nonpayable",
      "type": "function"
    },
    {
      "inputs": [
        {
          "internalType": "address",
          "name": "cifi",
          "type": "address"
        }
      ],
      "name": "setCifiContract",
      "outputs": [],
      "stateMutability": "nonpayable",
      "type": "function"
    },
    {
      "inputs": [
        {
          "internalType": "address",
          "name": "nft",
          "type": "address"
        }
      ],
      "name": "setNftContract",
      "outputs": [],
      "stateMutability": "nonpayable",
      "type": "function"
    },
    {
      "inputs": [],
      "name": "balance",
      "outputs": [
        {
          "internalType": "uint256",
          "name": "",
          "type": "uint256"
        }
      ],
      "stateMutability": "view",
      "type": "function",
      "constant": true
    },
    {
      "inputs": [],
      "name": "tokens",
      "outputs": [
        {
          "internalType": "uint256[]",
          "name": "",
          "type": "uint256[]"
        }
      ],
      "stateMutability": "view",
      "type": "function",
      "constant": true
    },
    {
      "inputs": [
        {
          "internalType": "uint256",
          "name": "staking_powa",
          "type": "uint256"
        },
        {
          "internalType": "uint256",
          "name": "face_value",
          "type": "uint256"
        }
      ],
      "name": "mint",
      "outputs": [
        {
          "internalType": "uint256",
          "name": "",
          "type": "uint256"
        }
      ],
      "stateMutability": "nonpayable",
      "type": "function"
    },
    {
      "inputs": [],
      "name": "nextTokenID",
      "outputs": [
        {
          "internalType": "uint256",
          "name": "",
          "type": "uint256"
        }
      ],
      "stateMutability": "view",
      "type": "function",
      "constant": true
    },
    {
      "inputs": [
        {
          "internalType": "address",
          "name": "to",
          "type": "address"
        },
        {
          "internalType": "uint256",
          "name": "nftID",
          "type": "uint256"
        }
      ],
      "name": "distribute",
      "outputs": [
        {
          "internalType": "uint256",
          "name": "",
          "type": "uint256"
        }
      ],
      "stateMutability": "nonpayable",
      "type": "function"
    },
    {
      "inputs": [],
      "name": "hasClaim",
      "outputs": [
        {
          "internalType": "bool",
          "name": "",
          "type": "bool"
        }
      ],
      "stateMutability": "view",
      "type": "function",
      "constant": true
    },
    {
      "inputs": [],
      "name": "claim",
      "outputs": [
        {
          "internalType": "bytes32",
          "name": "",
          "type": "bytes32"
        }
      ],
      "stateMutability": "nonpayable",
      "type": "function"
    },
    {
      "inputs": [],
      "name": "getLastClaimedNFTId",
      "outputs": [
        {
          "internalType": "uint256",
          "name": "",
          "type": "uint256"
        }
      ],
      "stateMutability": "view",
      "type": "function",
      "constant": true
    },
    {
      "inputs": [
        {
          "internalType": "uint256",
          "name": "nftId",
          "type": "uint256"
        },
        {
          "internalType": "address",
          "name": "reqAddress",
          "type": "address"
        }
      ],
      "name": "onmint",
      "outputs": [
        {
          "internalType": "uint256",
          "name": "",
          "type": "uint256"
        }
      ],
      "stateMutability": "nonpayable",
      "type": "function"
    },
    {
      "inputs": [
        {
          "internalType": "address",
          "name": "",
          "type": "address"
        },
        {
          "internalType": "address",
          "name": "",
          "type": "address"
        },
        {
          "internalType": "uint256",
          "name": "",
          "type": "uint256"
        },
        {
          "internalType": "bytes",
          "name": "",
          "type": "bytes"
        }
      ],
      "name": "onERC721Received",
      "outputs": [
        {
          "internalType": "bytes4",
          "name": "",
          "type": "bytes4"
        }
      ],
      "stateMutability": "nonpayable",
      "type": "function"
    }
  ],
  "bytecode": "0x60c0604052612710600281905560006005819055600680546001600160a01b03199081168255600780549091169055600855600a600981905591909155600b819055600c5534801561005057600080fd5b506040516114c33803806114c3833981810160405260e081101561007357600080fd5b5080516020820151604083015160608085015160808087015160a08089015160c090990151600080546001600160a01b031990811632179091556001600160601b031995871b86169092529190941b9092169052600680546001600160a01b0396871690841617905560078054959094169490911693909317909155600a55600b55600c5560805160601c60a05160601c61139861012b60003980610a155280610f6752508061089e5280610f3852506113986000f3fe608060405234801561001057600080fd5b50600436106101c45760003560e01c806352f5ad77116100f9578063bc64beee11610097578063e6952b5f11610071578063e6952b5f14610557578063eee699cb14610574578063f101e4811461057c578063fb93210814610584576101c4565b8063bc64beee1461050c578063c81d56be14610529578063d9d0b8141461054f576101c4565b8063983b2d56116100d3578063983b2d56146104605780639d63848a14610486578063ab033ea9146104de578063b69ef8a814610504576101c4565b806352f5ad771461040f57806394985ddd1461043557806398300e1814610458576101c4565b80633575597d116101665780633efbf91c116101405780633efbf91c146103b35780633f84561f146103bb5780634e71d92d146103e15780635136cdba146103e9576101c4565b80633575597d146103695780633b07d04c146103a35780633e2c3a5a146103ab576101c4565b80631b2ef1ca116101a25780631b2ef1ca146102ea5780631c2f3e3d1461030d5780632edc1bc1146103155780633092afd514610341576101c4565b806312c05835146101c9578063150b7a02146101ed5780631580db91146102d0575b600080fd5b6101d16105b0565b604080516001600160a01b039092168252519081900360200190f35b6102b36004803603608081101561020357600080fd5b6001600160a01b0382358116926020810135909116916040820135919081019060808101606082013564010000000081111561023e57600080fd5b82018360208201111561025057600080fd5b8035906020019184600183028401116401000000008311171561027257600080fd5b91908080601f0160208091040260200160405190810160405280939291908181526020018383808284376000920191909152509295506105bf945050505050565b604080516001600160e01b03199092168252519081900360200190f35b6102d86105cf565b60408051918252519081900360200190f35b6102d86004803603604081101561030057600080fd5b50803590602001356105d5565b6101d16106a1565b6102d86004803603604081101561032b57600080fd5b50803590602001356001600160a01b03166106b0565b6103676004803603602081101561035757600080fd5b50356001600160a01b03166106fa565b005b61038f6004803603602081101561037f57600080fd5b50356001600160a01b031661076b565b604080519115158252519081900360200190f35b6102d8610780565b61038f610786565b6102d861079c565b610367600480360360208110156103d157600080fd5b50356001600160a01b03166107a2565b6102d8610814565b6102d8600480360360208110156103ff57600080fd5b50356001600160a01b0316610986565b6103676004803603602081101561042557600080fd5b50356001600160a01b0316610998565b6103676004803603604081101561044b57600080fd5b5080359060200135610a0a565b6101d1610a95565b6103676004803603602081101561047657600080fd5b50356001600160a01b0316610aa4565b61048e610b18565b60408051602080825283518183015283519192839290830191858101910280838360005b838110156104ca5781810151838201526020016104b2565b505050509050019250505060405180910390f35b610367600480360360208110156104f457600080fd5b50356001600160a01b0316610c31565b6102d8610d37565b6101d16004803603602081101561052257600080fd5b5035610db3565b61038f6004803603602081101561053f57600080fd5b50356001600160a01b0316610dce565b6102d8610de3565b6102d86004803603602081101561056d57600080fd5b5035610de9565b6102d8610dfb565b6102d8610e0e565b6102d86004803603604081101561059a57600080fd5b506001600160a01b038135169060200135610e17565b6006546001600160a01b031681565b630a85bd0160e11b949350505050565b60025481565b6005805460010190819055600754604080516340c10f1960e01b81523360048201526024810193909352516000926001600160a01b03909216916340c10f1991604480830192602092919082900301818787803b15801561063557600080fd5b505af1158015610649573d6000803e3d6000fd5b505050506040513d602081101561065f57600080fd5b50506005546040805133815290517fbfbd6eaa32590f39923570e3a50c82ac962fc5cfdc5adf2511b078618ebaf1269181900360200190a25060055492915050565b6000546001600160a01b031681565b604080516001600160a01b0383168152905160009184917fbfbd6eaa32590f39923570e3a50c82ac962fc5cfdc5adf2511b078618ebaf1269181900360200190a250600192915050565b6000546001600160a01b0316331461074a576040805162461bcd60e51b815260206004820152600e60248201526d6e6f7420676f7665726e616e636560901b604482015290519081900360640190fd5b6001600160a01b03166000908152600360205260409020805460ff19169055565b60036020526000908152604090205460ff1681565b60095481565b3360009081526004602052604090205460ff1690565b60055481565b6000546001600160a01b031633146107f2576040805162461bcd60e51b815260206004820152600e60248201526d6e6f7420676f7665726e616e636560901b604482015290519081900360640190fd5b600680546001600160a01b0319166001600160a01b0392909216919091179055565b3360009081526004602052604081205460ff1615610865576040805162461bcd60e51b815260206004820152600960248201526868617320636c61696d60b81b604482015290519081900360640190fd5b33600090815260046020818152604092839020805460ff19166001179055600b5483516370a0823160e01b8152309381019390935292517f00000000000000000000000000000000000000000000000000000000000000006001600160a01b0316926370a08231926024808301939192829003018186803b1580156108e957600080fd5b505afa1580156108fd573d6000803e3d6000fd5b505050506040513d602081101561091357600080fd5b505110156109525760405162461bcd60e51b815260040180806020018281038252602b815260200180611338602b913960400191505060405180910390fd5b6000610962600c54600b54610f34565b6000818152600d6020526040902080546001600160a01b0319163317905591505090565b600f6020526000908152604090205481565b6000546001600160a01b031633146109e8576040805162461bcd60e51b815260206004820152600e60248201526d6e6f7420676f7665726e616e636560901b604482015290519081900360640190fd5b600780546001600160a01b0319166001600160a01b0392909216919091179055565b336001600160a01b037f00000000000000000000000000000000000000000000000000000000000000001614610a87576040805162461bcd60e51b815260206004820152601f60248201527f4f6e6c7920565246436f6f7264696e61746f722063616e2066756c66696c6c00604482015290519081900360640190fd5b610a9182826110e9565b5050565b6007546001600160a01b031681565b6000546001600160a01b03163314610af4576040805162461bcd60e51b815260206004820152600e60248201526d6e6f7420676f7665726e616e636560901b604482015290519081900360640190fd5b6001600160a01b03166000908152600360205260409020805460ff19166001179055565b60075460408051632118854760e21b815233600482015290516060926001600160a01b031691638462151c916024808301926000929190829003018186803b158015610b6357600080fd5b505afa158015610b77573d6000803e3d6000fd5b505050506040513d6000823e601f3d908101601f191682016040526020811015610ba057600080fd5b8101908080516040519392919084640100000000821115610bc057600080fd5b908301906020820185811115610bd557600080fd5b8251866020820283011164010000000082111715610bf257600080fd5b82525081516020918201928201910280838360005b83811015610c1f578181015183820152602001610c07565b50505050905001604052505050905090565b6000546001600160a01b03163314610c81576040805162461bcd60e51b815260206004820152600e60248201526d6e6f7420676f7665726e616e636560901b604482015290519081900360640190fd5b6001600160a01b038116610cdc576040805162461bcd60e51b815260206004820152601f60248201527f6e657720676f7665726e616e636520746865207a65726f206164647265737300604482015290519081900360640190fd5b600080546040516001600160a01b03808516939216917f5f56bee8cffbe9a78652a74a60705edede02af10b0bbb888ca44b79a0d42ce8091a3600080546001600160a01b0319166001600160a01b0392909216919091179055565b600754604080516370a0823160e01b815233600482015290516000926001600160a01b0316916370a08231916024808301926020929190829003018186803b158015610d8257600080fd5b505afa158015610d96573d6000803e3d6000fd5b505050506040513d6020811015610dac57600080fd5b5051905090565b600d602052600090815260409020546001600160a01b031681565b60046020526000908152604090205460ff1681565b60085481565b600e6020526000908152604090205481565b336000908152600f602052604090205490565b60055460010190565b3360009081526003602052604081205460ff16610e68576040805162461bcd60e51b815260206004820152600a60248201526918d85b89dd081b5a5b9d60b21b604482015290519081900360640190fd5b6005829055600754604080516340c10f1960e01b81526001600160a01b03868116600483015260248201869052915191909216916340c10f199160448083019260209291908290030181600087803b158015610ec357600080fd5b505af1158015610ed7573d6000803e3d6000fd5b505050506040513d6020811015610eed57600080fd5b5050604080516001600160a01b0385168152905183917fbfbd6eaa32590f39923570e3a50c82ac962fc5cfdc5adf2511b078618ebaf126919081900360200190a250919050565b60007f00000000000000000000000000000000000000000000000000000000000000006001600160a01b0316634000aea07f00000000000000000000000000000000000000000000000000000000000000008486600060405160200180838152602001828152602001925050506040516020818303038152906040526040518463ffffffff1660e01b815260040180846001600160a01b0316815260200183815260200180602001828103825283818151815260200191508051906020019080838360005b83811015611011578181015183820152602001610ff9565b50505050905090810190601f16801561103e5780820380516001836020036101000a031916815260200191505b50945050505050602060405180830381600087803b15801561105f57600080fd5b505af1158015611073573d6000803e3d6000fd5b505050506040513d602081101561108957600080fd5b50506000838152600160205260408120546110a990859083903090611263565b6000858152600160208190526040909120549192506110c891906112aa565b6000858152600160205260409020556110e1848261130b565b949350505050565b6000828152600d6020526040812054600a546001600160a01b039091169190838161111057fe5b0660010190505b60075460408051634f558e7960e01b81526004810184905290516001600160a01b0390921691634f558e7991602480820192602092909190829003018186803b15801561116357600080fd5b505afa158015611177573d6000803e3d6000fd5b505050506040513d602081101561118d57600080fd5b5051156111ad57600a5481600101816111a257fe5b066001019050611117565b6005819055600754604080516340c10f1960e01b81526001600160a01b03858116600483015260248201859052915191909216916340c10f199160448083019260209291908290030181600087803b15801561120857600080fd5b505af115801561121c573d6000803e3d6000fd5b505050506040513d602081101561123257600080fd5b50506005546001600160a01b0383166000908152600f6020526040902081905561125c90836106b0565b5050505050565b60408051602080820196909652808201949094526001600160a01b039290921660608401526080808401919091528151808403909101815260a09092019052805191012090565b600082820183811015611304576040805162461bcd60e51b815260206004820152601b60248201527f536166654d6174683a206164646974696f6e206f766572666c6f770000000000604482015290519081900360640190fd5b9392505050565b60408051602080820194909452808201929092528051808303820181526060909201905280519101209056fe4e6f7420656e6f756768204c494e4b202d2066696c6c20636f6e7472616374207769746820666175636574a2646970667358221220a53164a4469d927dc20f0b1ea7258aba04e38c052c4745cf0e0cbd01d0c6af3664736f6c63430007040033",
  "immutableReferences": {
    "77": [
      {
        "length": 32,
        "start": 2206
      },
      {
        "length": 32,
        "start": 3896
      }
    ],
    "79": [
      {
        "length": 32,
        "start": 2581
      },
      {
        "length": 32,
        "start": 3943
      }
    ]
  },
  "source": "// SPDX-License-Identifier: MIT\r\npragma solidity ^0.7.4;\r\n\r\nimport \"@openzeppelin/contracts/math/SafeMath.sol\";\r\nimport \"@openzeppelin/contracts/token/ERC721/IERC721.sol\";\r\nimport \"@openzeppelin/contracts/token/ERC721/IERC721Receiver.sol\";\r\nimport \"@openzeppelin/contracts/utils/Address.sol\";\r\n\r\nimport \"@chainlink/contracts/src/v0.7/VRFConsumerBase.sol\";\r\n\r\nimport \"../library/Governance.sol\";\r\nimport \"../interface/INftAsset.sol\";\r\nimport \"../interface/ICifi_Token.sol\";\r\n\r\ncontract SantaFactory is Governance, VRFConsumerBase, IERC721Receiver {\r\n    using Address for address;\r\n    using SafeMath for uint256;\r\n\r\n    struct SantaV1Data {\r\n        uint256 id;\r\n        uint256 class;\r\n        uint256 staking_powa;\r\n        uint256 face_value;\r\n        uint256 createdTime;\r\n    }\r\n    uint256 public _stakingPowaBase = 10000;\r\n    event NFTAdded(uint256 indexed id, address author);\r\n\r\n    // for minters\r\n    mapping(address => bool) public _minters;\r\n    mapping(address => bool) public _claimMembers;\r\n    uint256 public _nftId = 0;\r\n\r\n    ICifi_Token public _cifi = ICifi_Token(0x0);\r\n    INftAsset public _nft = INftAsset(0x0);\r\n\r\n    uint256 public _maxClass = 6;\r\n    uint256 public _maxClassLong = 10;\r\n\r\n    // for VRT\r\n    uint256 _maxNftCount = 10000;\r\n    uint256 _linkFee = 0;\r\n    bytes32 _linkKeyHash = bytes32(\"\");\r\n    mapping(bytes32 => address) public requestIdToAddress;\r\n    mapping(bytes32 => uint256) public requestIdToFaceValue;\r\n    mapping(address => uint256) public _lastClaimedNFTId;\r\n\r\n    constructor(\r\n        address cifi,\r\n        address nft,\r\n        uint256 maxNftCount,\r\n        address vrfCoordinator,\r\n        address linkToken,\r\n        bytes32 linkKeyHash,\r\n        uint256 linkFee\r\n    ) VRFConsumerBase(vrfCoordinator, linkToken) {\r\n        _cifi = ICifi_Token(cifi);\r\n        _nft = INftAsset(nft);\r\n        _maxNftCount = maxNftCount;\r\n        _linkFee = linkFee;\r\n        _linkKeyHash = linkKeyHash;\r\n    }\r\n\r\n    /**\r\n     * @dev for set min burn time\r\n     */\r\n\r\n    function addMinter(address minter) public onlyGovernance {\r\n        _minters[minter] = true;\r\n    }\r\n\r\n    function removeMinter(address minter) public onlyGovernance {\r\n        _minters[minter] = false;\r\n    }\r\n\r\n    /**\r\n     * @dev set cifi contract address\r\n     */\r\n    function setCifiContract(address cifi) public onlyGovernance {\r\n        _cifi = ICifi_Token(cifi);\r\n    }\r\n\r\n    function setNftContract(address nft) public onlyGovernance {\r\n        _nft = INftAsset(nft);\r\n    }\r\n\r\n    function balance() public view returns (uint256) {\r\n        return _nft.balanceOf(msg.sender);\r\n    }\r\n\r\n    function tokens() public view returns (uint256[] memory) {\r\n        return _nft.tokensOfOwner(msg.sender);\r\n    }\r\n\r\n    function mint(uint256 staking_powa, uint256 face_value)\r\n        public\r\n        returns (uint256)\r\n    {\r\n        _nftId++;\r\n        _nft.mint(msg.sender, _nftId);\r\n        emit NFTAdded(_nftId, msg.sender);\r\n        return _nftId;\r\n    }\r\n\r\n    function nextTokenID() public view returns (uint256) {\r\n        return _nftId + 1;\r\n    }\r\n\r\n    function distribute(address to, uint256 nftID) public returns (uint256) {\r\n        require(_minters[msg.sender], \"can't mint\");\r\n        _nftId = nftID;\r\n        _nft.mint(to, nftID);\r\n        emit NFTAdded(nftID, to);\r\n        return nftID;\r\n    }\r\n\r\n    function hasClaim() public view returns (bool) {\r\n        return _claimMembers[msg.sender];\r\n    }\r\n\r\n    function claim() public returns (bytes32) {\r\n        require(_claimMembers[msg.sender] == false, \"has claim\");\r\n\r\n        _claimMembers[msg.sender] = true;\r\n        require(\r\n            LINK.balanceOf(address(this)) >= _linkFee,\r\n            \"Not enough LINK - fill contract with faucet\"\r\n        );\r\n\r\n        bytes32 requestId = requestRandomness(_linkKeyHash, _linkFee);\r\n        requestIdToAddress[requestId] = msg.sender;\r\n\r\n        // _nftId++;\r\n\r\n        // _nft.mint(msg.sender, _nftId);\r\n        // emit NFTAdded(_nftId, msg.sender);\r\n        // _nftId = (requestId % _maxNftCount) + 1;\r\n        return requestId;\r\n    }\r\n\r\n    function fulfillRandomness(bytes32 requestId, uint256 randomness)\r\n        internal\r\n        override\r\n    {\r\n        address requestAddress = requestIdToAddress[requestId];\r\n        uint256 nftID = (randomness % _maxNftCount) + 1;\r\n\r\n        while (_nft.exists(nftID)) {\r\n            nftID = ((nftID + 1) % _maxNftCount) + 1;\r\n        }\r\n\r\n        _nftId = nftID;\r\n\r\n        _nft.mint(requestAddress, _nftId);\r\n        _lastClaimedNFTId[requestAddress] = _nftId;\r\n        onmint(_nftId, requestAddress);\r\n        // emit NFTAdded(_nftId, requestAddress);\r\n    }\r\n\r\n    function getLastClaimedNFTId()\r\n    public view returns (uint256)\r\n    {\r\n        return _lastClaimedNFTId[msg.sender];\r\n    }\r\n\r\n    function onmint(uint256 nftId, address reqAddress)\r\n    public returns (uint256)\r\n    {\r\n        emit NFTAdded(nftId, reqAddress);\r\n        return 1;\r\n    }\r\n    function onERC721Received(\r\n        address,\r\n        address,\r\n        uint256,\r\n        bytes memory\r\n    ) public virtual override returns (bytes4) {\r\n        return this.onERC721Received.selector;\r\n    }\r\n}\r\n",
  "sourcePath": "F:\\citizen\\depoly\\santafeapp\\src\\contracts\\nft\\SantaFactory.sol",
  "compiler": {
    "name": "solc",
    "version": "0.7.4+commit.3f05b770.Emscripten.clang"
  },
  "schemaVersion": "3.4.2",
  "updatedAt": "2021-08-17T10:34:41.159Z",
  "networkType": "ethereum",
  "devdoc": {
    "kind": "dev",
    "methods": {
      "addMinter(address)": {
        "details": "for set min burn time"
      },
      "setCifiContract(address)": {
        "details": "set cifi contract address"
      }
    },
    "version": 1
  },
  "userdoc": {
    "kind": "user",
    "methods": {},
    "version": 1
  }
}