{
  "contractName": "FamosoEvent",
  "abi": [
    {
      "inputs": [],
      "stateMutability": "nonpayable",
      "type": "constructor"
    },
    {
      "anonymous": false,
      "inputs": [
        {
          "indexed": true,
          "internalType": "address",
          "name": "famosoPair",
          "type": "address"
        },
        {
          "indexed": false,
          "internalType": "uint32",
          "name": "blockTimestamp",
          "type": "uint32"
        },
        {
          "indexed": true,
          "internalType": "address",
          "name": "sender",
          "type": "address"
        },
        {
          "indexed": false,
          "internalType": "uint256",
          "name": "amount",
          "type": "uint256"
        },
        {
          "indexed": false,
          "internalType": "uint256",
          "name": "amount0",
          "type": "uint256"
        },
        {
          "indexed": false,
          "internalType": "uint256",
          "name": "amount1",
          "type": "uint256"
        }
      ],
      "name": "EFBurn",
      "type": "event"
    },
    {
      "anonymous": false,
      "inputs": [
        {
          "indexed": true,
          "internalType": "address",
          "name": "famosoPair",
          "type": "address"
        },
        {
          "indexed": false,
          "internalType": "uint32",
          "name": "blockTimestamp",
          "type": "uint32"
        },
        {
          "indexed": true,
          "internalType": "address",
          "name": "sender",
          "type": "address"
        },
        {
          "indexed": false,
          "internalType": "uint256",
          "name": "amount0",
          "type": "uint256"
        },
        {
          "indexed": false,
          "internalType": "uint256",
          "name": "amount1",
          "type": "uint256"
        }
      ],
      "name": "EFMint",
      "type": "event"
    },
    {
      "anonymous": false,
      "inputs": [
        {
          "indexed": true,
          "internalType": "address",
          "name": "famosoPair",
          "type": "address"
        },
        {
          "indexed": false,
          "internalType": "uint32",
          "name": "blockTimestamp",
          "type": "uint32"
        },
        {
          "indexed": true,
          "internalType": "address",
          "name": "sender",
          "type": "address"
        },
        {
          "indexed": false,
          "internalType": "uint256",
          "name": "amount0In",
          "type": "uint256"
        },
        {
          "indexed": false,
          "internalType": "uint256",
          "name": "amount1In",
          "type": "uint256"
        },
        {
          "indexed": false,
          "internalType": "uint256",
          "name": "amount0Out",
          "type": "uint256"
        },
        {
          "indexed": false,
          "internalType": "uint256",
          "name": "amount1Out",
          "type": "uint256"
        }
      ],
      "name": "EFSwap",
      "type": "event"
    },
    {
      "anonymous": false,
      "inputs": [
        {
          "indexed": true,
          "internalType": "address",
          "name": "famosoPair",
          "type": "address"
        },
        {
          "indexed": false,
          "internalType": "uint32",
          "name": "blockTimestamp",
          "type": "uint32"
        },
        {
          "indexed": false,
          "internalType": "uint112",
          "name": "reserve0",
          "type": "uint112"
        },
        {
          "indexed": false,
          "internalType": "uint112",
          "name": "reserve1",
          "type": "uint112"
        }
      ],
      "name": "EFSync",
      "type": "event"
    },
    {
      "inputs": [
        {
          "internalType": "address",
          "name": "sender",
          "type": "address"
        },
        {
          "internalType": "uint256",
          "name": "amount0",
          "type": "uint256"
        },
        {
          "internalType": "uint256",
          "name": "amount1",
          "type": "uint256"
        }
      ],
      "name": "FMint",
      "outputs": [],
      "stateMutability": "nonpayable",
      "type": "function"
    },
    {
      "inputs": [
        {
          "internalType": "address",
          "name": "sender",
          "type": "address"
        },
        {
          "internalType": "uint256",
          "name": "amount",
          "type": "uint256"
        },
        {
          "internalType": "uint256",
          "name": "amount0",
          "type": "uint256"
        },
        {
          "internalType": "uint256",
          "name": "amount1",
          "type": "uint256"
        }
      ],
      "name": "FBurn",
      "outputs": [],
      "stateMutability": "nonpayable",
      "type": "function"
    },
    {
      "inputs": [
        {
          "internalType": "address",
          "name": "sender",
          "type": "address"
        },
        {
          "internalType": "uint256",
          "name": "amount0In",
          "type": "uint256"
        },
        {
          "internalType": "uint256",
          "name": "amount1In",
          "type": "uint256"
        },
        {
          "internalType": "uint256",
          "name": "amount0Out",
          "type": "uint256"
        },
        {
          "internalType": "uint256",
          "name": "amount1Out",
          "type": "uint256"
        }
      ],
      "name": "FSwap",
      "outputs": [],
      "stateMutability": "nonpayable",
      "type": "function"
    },
    {
      "inputs": [
        {
          "internalType": "uint112",
          "name": "reserve0",
          "type": "uint112"
        },
        {
          "internalType": "uint112",
          "name": "reserve1",
          "type": "uint112"
        }
      ],
      "name": "FSync",
      "outputs": [],
      "stateMutability": "nonpayable",
      "type": "function"
    }
  ],
  "bytecode": "0x608060405234801561001057600080fd5b506102dd806100206000396000f3fe608060405234801561001057600080fd5b506004361061004c5760003560e01c80630fb1b4be14610051578063bc6c111514610091578063bcf01b5b146100bf578063d6e0095d146100f7575b600080fd5b61008f600480360360a081101561006757600080fd5b506001600160a01b038135169060208101359060408101359060608101359060800135610129565b005b61008f600480360360408110156100a757600080fd5b506001600160701b0381358116916020013516610193565b61008f600480360360808110156100d557600080fd5b506001600160a01b0381351690602081013590604081013590606001356101eb565b61008f6004803603606081101561010d57600080fd5b506001600160a01b03813516906020810135906040013561024d565b604080514263ffffffff1680825260208201879052818301869052606082018590526080820184905291516001600160a01b0388169133917f3c15a77079a21575f1abd806f09f006a050507046a7ade759874ef74c2f84e529181900360a00190a3505050505050565b604080514263ffffffff168082526001600160701b038581166020840152841682840152915133917f097b1ec6e1c50d0e1a3f1aae54909b0c7490f7cb3003f6adc9dcbd450be89acb919081900360600190a2505050565b604080514263ffffffff16808252602082018690528183018590526060820184905291516001600160a01b0387169133917f7b3b2512cb3551208ba1925c4180ee950509253bce2f7456f9f975bbc1e064469181900360800190a35050505050565b6040805163ffffffff42168082526020820185905281830184905291516001600160a01b0386169133917fb8cda4c801115aefe935976dcc32e1914f5512c6ae6f735450dd1883dfbc78239181900360600190a35050505056fea2646970667358221220c5b44d408bc60ff0de5ad6183b1454da9d104a5deff2ace2bfc1956dcf7cfef264736f6c63430007040033",
  "immutableReferences": {},
  "source": "// SPDX-License-Identifier: MIT\r\npragma solidity >=0.4.22 <0.9.0;\r\n\r\ncontract FamosoEvent {\r\n    event EFMint(address indexed famosoPair, uint32 blockTimestamp, address indexed sender, uint256 amount0, uint256 amount1);\r\n    event EFBurn(address indexed famosoPair, uint32 blockTimestamp, address indexed sender, uint256 amount, uint256 amount0, uint256 amount1);\r\n    event EFSwap(address indexed famosoPair, uint32 blockTimestamp, address indexed sender, uint256 amount0In, uint256 amount1In, uint256 amount0Out, uint256 amount1Out);\r\n    event EFSync(address indexed famosoPair, uint32 blockTimestamp, uint112 reserve0, uint112 reserve1);\r\n    constructor() {}\r\n    function FMint(address sender, uint256 amount0, uint256 amount1) external {\r\n        uint32 blockTimestamp = uint32(block.timestamp % 2**32);\r\n        emit EFMint(msg.sender, blockTimestamp, sender, amount0, amount1);\r\n    }\r\n    function FBurn(address sender, uint256 amount, uint256 amount0, uint256 amount1) external {\r\n        uint32 blockTimestamp = uint32(block.timestamp % 2**32);\r\n        emit EFBurn(msg.sender, blockTimestamp, sender, amount, amount0, amount1);\r\n    }\r\n    function FSwap(address sender, uint256 amount0In, uint256 amount1In, uint256 amount0Out, uint256 amount1Out) external {\r\n        uint32 blockTimestamp = uint32(block.timestamp % 2**32);\r\n        emit EFSwap(msg.sender, blockTimestamp, sender, amount0In, amount1In, amount0Out, amount1Out);\r\n    }\r\n    function FSync(uint112 reserve0, uint112 reserve1) external {\r\n        uint32 blockTimestamp = uint32(block.timestamp % 2**32);\r\n        emit EFSync(msg.sender, blockTimestamp, reserve0, reserve1);\r\n    }\r\n}",
  "sourcePath": "F:\\uniswap\\famosoIntegrate\\contracts\\FamosoEvent.sol",
  "compiler": {
    "name": "solc",
    "version": "0.7.4+commit.3f05b770.Emscripten.clang"
  },
  "schemaVersion": "3.4.3",
  "updatedAt": "2021-10-21T11:07:16.898Z",
  "networkType": "ethereum",
  "devdoc": {
    "kind": "dev",
    "methods": {},
    "version": 1
  },
  "userdoc": {
    "kind": "user",
    "methods": {},
    "version": 1
  }
}