{
  "contractName": "FamosoCoin",
  "abi": [
    {
      "inputs": [],
      "stateMutability": "nonpayable",
      "type": "constructor"
    },
    {
      "anonymous": false,
      "inputs": [
        {
          "indexed": true,
          "internalType": "address",
          "name": "owner",
          "type": "address"
        },
        {
          "indexed": true,
          "internalType": "address",
          "name": "spender",
          "type": "address"
        },
        {
          "indexed": false,
          "internalType": "uint256",
          "name": "value",
          "type": "uint256"
        }
      ],
      "name": "Approval",
      "type": "event"
    },
    {
      "anonymous": false,
      "inputs": [
        {
          "indexed": true,
          "internalType": "address",
          "name": "sender",
          "type": "address"
        },
        {
          "indexed": false,
          "internalType": "uint256",
          "name": "amount0",
          "type": "uint256"
        },
        {
          "indexed": false,
          "internalType": "uint256",
          "name": "amount1",
          "type": "uint256"
        },
        {
          "indexed": true,
          "internalType": "address",
          "name": "to",
          "type": "address"
        }
      ],
      "name": "Burn",
      "type": "event"
    },
    {
      "anonymous": false,
      "inputs": [
        {
          "indexed": true,
          "internalType": "address",
          "name": "sender",
          "type": "address"
        },
        {
          "indexed": false,
          "internalType": "uint256",
          "name": "amount0",
          "type": "uint256"
        },
        {
          "indexed": false,
          "internalType": "uint256",
          "name": "amount1",
          "type": "uint256"
        }
      ],
      "name": "Mint",
      "type": "event"
    },
    {
      "anonymous": false,
      "inputs": [
        {
          "indexed": true,
          "internalType": "address",
          "name": "sender",
          "type": "address"
        },
        {
          "indexed": false,
          "internalType": "uint256",
          "name": "amountOut",
          "type": "uint256"
        },
        {
          "indexed": false,
          "internalType": "uint256",
          "name": "flag",
          "type": "uint256"
        }
      ],
      "name": "Swap",
      "type": "event"
    },
    {
      "anonymous": false,
      "inputs": [
        {
          "indexed": false,
          "internalType": "uint112",
          "name": "reserve0",
          "type": "uint112"
        },
        {
          "indexed": false,
          "internalType": "uint112",
          "name": "reserve1",
          "type": "uint112"
        }
      ],
      "name": "Sync",
      "type": "event"
    },
    {
      "anonymous": false,
      "inputs": [
        {
          "indexed": true,
          "internalType": "address",
          "name": "from",
          "type": "address"
        },
        {
          "indexed": true,
          "internalType": "address",
          "name": "to",
          "type": "address"
        },
        {
          "indexed": false,
          "internalType": "uint256",
          "name": "value",
          "type": "uint256"
        }
      ],
      "name": "Transfer",
      "type": "event"
    },
    {
      "inputs": [],
      "name": "MINIMUM_LIQUIDITY",
      "outputs": [
        {
          "internalType": "uint256",
          "name": "",
          "type": "uint256"
        }
      ],
      "stateMutability": "view",
      "type": "function",
      "constant": true
    },
    {
      "inputs": [
        {
          "internalType": "address",
          "name": "owner",
          "type": "address"
        },
        {
          "internalType": "address",
          "name": "spender",
          "type": "address"
        }
      ],
      "name": "allowance",
      "outputs": [
        {
          "internalType": "uint256",
          "name": "",
          "type": "uint256"
        }
      ],
      "stateMutability": "view",
      "type": "function",
      "constant": true
    },
    {
      "inputs": [
        {
          "internalType": "address",
          "name": "spender",
          "type": "address"
        },
        {
          "internalType": "uint256",
          "name": "amount",
          "type": "uint256"
        }
      ],
      "name": "approve",
      "outputs": [
        {
          "internalType": "bool",
          "name": "",
          "type": "bool"
        }
      ],
      "stateMutability": "nonpayable",
      "type": "function"
    },
    {
      "inputs": [
        {
          "internalType": "address",
          "name": "account",
          "type": "address"
        }
      ],
      "name": "balanceOf",
      "outputs": [
        {
          "internalType": "uint256",
          "name": "",
          "type": "uint256"
        }
      ],
      "stateMutability": "view",
      "type": "function",
      "constant": true
    },
    {
      "inputs": [],
      "name": "coin",
      "outputs": [
        {
          "internalType": "address",
          "name": "",
          "type": "address"
        }
      ],
      "stateMutability": "view",
      "type": "function",
      "constant": true
    },
    {
      "inputs": [],
      "name": "decimals",
      "outputs": [
        {
          "internalType": "uint8",
          "name": "",
          "type": "uint8"
        }
      ],
      "stateMutability": "view",
      "type": "function",
      "constant": true
    },
    {
      "inputs": [
        {
          "internalType": "address",
          "name": "spender",
          "type": "address"
        },
        {
          "internalType": "uint256",
          "name": "subtractedValue",
          "type": "uint256"
        }
      ],
      "name": "decreaseAllowance",
      "outputs": [
        {
          "internalType": "bool",
          "name": "",
          "type": "bool"
        }
      ],
      "stateMutability": "nonpayable",
      "type": "function"
    },
    {
      "inputs": [],
      "name": "factory",
      "outputs": [
        {
          "internalType": "address payable",
          "name": "",
          "type": "address"
        }
      ],
      "stateMutability": "view",
      "type": "function",
      "constant": true
    },
    {
      "inputs": [],
      "name": "fblist",
      "outputs": [
        {
          "internalType": "address",
          "name": "",
          "type": "address"
        }
      ],
      "stateMutability": "view",
      "type": "function",
      "constant": true
    },
    {
      "inputs": [
        {
          "internalType": "address",
          "name": "spender",
          "type": "address"
        },
        {
          "internalType": "uint256",
          "name": "addedValue",
          "type": "uint256"
        }
      ],
      "name": "increaseAllowance",
      "outputs": [
        {
          "internalType": "bool",
          "name": "",
          "type": "bool"
        }
      ],
      "stateMutability": "nonpayable",
      "type": "function"
    },
    {
      "inputs": [],
      "name": "kLast",
      "outputs": [
        {
          "internalType": "uint256",
          "name": "",
          "type": "uint256"
        }
      ],
      "stateMutability": "view",
      "type": "function",
      "constant": true
    },
    {
      "inputs": [],
      "name": "name",
      "outputs": [
        {
          "internalType": "string",
          "name": "",
          "type": "string"
        }
      ],
      "stateMutability": "view",
      "type": "function",
      "constant": true
    },
    {
      "inputs": [],
      "name": "symbol",
      "outputs": [
        {
          "internalType": "string",
          "name": "",
          "type": "string"
        }
      ],
      "stateMutability": "view",
      "type": "function",
      "constant": true
    },
    {
      "inputs": [],
      "name": "token",
      "outputs": [
        {
          "internalType": "address",
          "name": "",
          "type": "address"
        }
      ],
      "stateMutability": "view",
      "type": "function",
      "constant": true
    },
    {
      "inputs": [],
      "name": "totalSupply",
      "outputs": [
        {
          "internalType": "uint256",
          "name": "",
          "type": "uint256"
        }
      ],
      "stateMutability": "view",
      "type": "function",
      "constant": true
    },
    {
      "inputs": [
        {
          "internalType": "address",
          "name": "recipient",
          "type": "address"
        },
        {
          "internalType": "uint256",
          "name": "amount",
          "type": "uint256"
        }
      ],
      "name": "transfer",
      "outputs": [
        {
          "internalType": "bool",
          "name": "",
          "type": "bool"
        }
      ],
      "stateMutability": "nonpayable",
      "type": "function"
    },
    {
      "inputs": [
        {
          "internalType": "address",
          "name": "sender",
          "type": "address"
        },
        {
          "internalType": "address",
          "name": "recipient",
          "type": "address"
        },
        {
          "internalType": "uint256",
          "name": "amount",
          "type": "uint256"
        }
      ],
      "name": "transferFrom",
      "outputs": [
        {
          "internalType": "bool",
          "name": "",
          "type": "bool"
        }
      ],
      "stateMutability": "nonpayable",
      "type": "function"
    },
    {
      "stateMutability": "payable",
      "type": "receive",
      "payable": true
    },
    {
      "inputs": [
        {
          "internalType": "address",
          "name": "_token",
          "type": "address"
        },
        {
          "internalType": "address",
          "name": "_coin",
          "type": "address"
        }
      ],
      "name": "initialize",
      "outputs": [],
      "stateMutability": "nonpayable",
      "type": "function"
    },
    {
      "inputs": [],
      "name": "getReserves",
      "outputs": [
        {
          "internalType": "uint112",
          "name": "_reserve0",
          "type": "uint112"
        },
        {
          "internalType": "uint112",
          "name": "_reserve1",
          "type": "uint112"
        },
        {
          "internalType": "uint32",
          "name": "_blockTimestampLast",
          "type": "uint32"
        }
      ],
      "stateMutability": "view",
      "type": "function",
      "constant": true
    },
    {
      "inputs": [
        {
          "internalType": "address",
          "name": "to",
          "type": "address"
        },
        {
          "internalType": "uint256",
          "name": "amount",
          "type": "uint256"
        }
      ],
      "name": "mintTokenCoin",
      "outputs": [
        {
          "internalType": "uint256",
          "name": "liquidity",
          "type": "uint256"
        }
      ],
      "stateMutability": "payable",
      "type": "function",
      "payable": true
    },
    {
      "inputs": [
        {
          "internalType": "address",
          "name": "to",
          "type": "address"
        }
      ],
      "name": "burn",
      "outputs": [
        {
          "internalType": "uint256",
          "name": "amount0",
          "type": "uint256"
        },
        {
          "internalType": "uint256",
          "name": "amount1",
          "type": "uint256"
        }
      ],
      "stateMutability": "nonpayable",
      "type": "function"
    },
    {
      "inputs": [
        {
          "internalType": "uint256",
          "name": "amountIn",
          "type": "uint256"
        },
        {
          "internalType": "address",
          "name": "to",
          "type": "address"
        }
      ],
      "name": "swap",
      "outputs": [],
      "stateMutability": "payable",
      "type": "function",
      "payable": true
    }
  ],
  "bytecode": "0x60806040526001600855600b80546001600160a01b03191673e57df7a127dc25a6e52ad162d5a3dbb4b28082311790553480156200003c57600080fd5b50604080518082018252600a8152692330b6b7b9b7a1b7b4b760b11b602080830191825283518085019094526004845263464d534360e01b9084015281519192916200008b91600391620000b7565b508051620000a1906004906020840190620000b7565b50506005805460ff191660121790555062000163565b828054600181600116156101000203166002900490600052602060002090601f016020900481019282620000ef57600085556200013a565b82601f106200010a57805160ff19168380011785556200013a565b828001600101855582156200013a579182015b828111156200013a5782518255916020019190600101906200011d565b50620001489291506200014c565b5090565b5b808211156200014857600081556001016200014d565b6121fd80620001736000396000f3fe6080604052600436106101395760003560e01c806389afcb44116100ab578063c45a01551161006f578063c45a0155146104cd578063d3986f08146104e2578063dd62ed3e1461050e578063e41486da14610549578063f4bf71c51461055e578063fc0c546a1461058a57610140565b806389afcb44146103e557806395d89b4114610431578063a457c2d714610446578063a9059cbb1461047f578063ba9a7a56146104b857610140565b806323b872dd116100fd57806323b872dd146102b9578063313ce567146102fc5780633950935114610327578063485cc9551461036057806370a082311461039d5780637464fc3d146103d057610140565b806306fdde03146101455780630902f1ac146101cf578063095ea7b31461021457806311df99951461026157806318160ddd1461029257610140565b3661014057005b600080fd5b34801561015157600080fd5b5061015a61059f565b6040805160208082528351818301528351919283929083019185019080838360005b8381101561019457818101518382015260200161017c565b50505050905090810190601f1680156101c15780820380516001836020036101000a031916815260200191505b509250505060405180910390f35b3480156101db57600080fd5b506101e4610635565b604080516001600160701b03948516815292909316602083015263ffffffff168183015290519081900360600190f35b34801561022057600080fd5b5061024d6004803603604081101561023757600080fd5b506001600160a01b03813516906020013561065f565b604080519115158252519081900360200190f35b34801561026d57600080fd5b5061027661067d565b604080516001600160a01b039092168252519081900360200190f35b34801561029e57600080fd5b506102a761068c565b60408051918252519081900360200190f35b3480156102c557600080fd5b5061024d600480360360608110156102dc57600080fd5b506001600160a01b03813581169160208101359091169060400135610692565b34801561030857600080fd5b50610311610719565b6040805160ff9092168252519081900360200190f35b34801561033357600080fd5b5061024d6004803603604081101561034a57600080fd5b506001600160a01b038135169060200135610722565b34801561036c57600080fd5b5061039b6004803603604081101561038357600080fd5b506001600160a01b0381358116916020013516610770565b005b3480156103a957600080fd5b506102a7600480360360208110156103c057600080fd5b50356001600160a01b031661079e565b3480156103dc57600080fd5b506102a76107bd565b3480156103f157600080fd5b506104186004803603602081101561040857600080fd5b50356001600160a01b03166107c3565b6040805192835260208301919091528051918290030190f35b34801561043d57600080fd5b5061015a610d3f565b34801561045257600080fd5b5061024d6004803603604081101561046957600080fd5b506001600160a01b038135169060200135610da0565b34801561048b57600080fd5b5061024d600480360360408110156104a257600080fd5b506001600160a01b038135169060200135610e08565b3480156104c457600080fd5b506102a7610e1c565b3480156104d957600080fd5b50610276610e22565b61039b600480360360408110156104f857600080fd5b50803590602001356001600160a01b0316610e36565b34801561051a57600080fd5b506102a76004803603604081101561053157600080fd5b506001600160a01b038135811691602001351661132d565b34801561055557600080fd5b50610276611358565b6102a76004803603604081101561057457600080fd5b506001600160a01b038135169060200135611367565b34801561059657600080fd5b506102766116bc565b60038054604080516020601f600260001961010060018816150201909516949094049384018190048102820181019092528281526060939092909183018282801561062b5780601f106106005761010080835404028352916020019161062b565b820191906000526020600020905b81548152906001019060200180831161060e57829003601f168201915b5050505050905090565b6009546001600160701b0380821692600160701b830490911691600160e01b900463ffffffff1690565b600061067361066c6116cb565b84846116cf565b5060015b92915050565b6007546001600160a01b031681565b60025490565b600061069f8484846117bb565b61070f846106ab6116cb565b61070a856040518060600160405280602881526020016120e8602891396001600160a01b038a166000908152600160205260408120906106e96116cb565b6001600160a01b031681526020810191909152604001600020549190611916565b6116cf565b5060019392505050565b60055460ff1690565b600061067361072f6116cb565b8461070a85600160006107406116cb565b6001600160a01b03908116825260208083019390935260409182016000908120918c1681529252902054906119ad565b600680546001600160a01b039384166001600160a01b03199182161790915560078054929093169116179055565b6001600160a01b0381166000908152602081905260409020545b919050565b600a5481565b60008060085460011461080d576040805162461bcd60e51b815260206004820152600d60248201526c11985b5bdcdbc81313d0d2d151609a1b604482015290519081900360640190fd5b6000600855600b546040805163e78c96ed60e01b815233600482015290516001600160a01b039092169163e78c96ed91602480820192602092909190829003018186803b15801561085d57600080fd5b505afa158015610871573d6000803e3d6000fd5b505050506040513d602081101561088757600080fd5b5051156108c7576040805162461bcd60e51b8152602060048201526009602482015268125b8811909b1a5cdd60ba1b604482015290519081900360640190fd5b6000806108d2610635565b50600654600754604080516370a0823160e01b815230600482015290519496509294506001600160a01b039182169391169160009184916370a08231916024808301926020929190829003018186803b15801561092e57600080fd5b505afa158015610942573d6000803e3d6000fd5b505050506040513d602081101561095857600080fd5b5051600754604080516370a0823160e01b815230600482015290519293506000926001600160a01b03909216916370a0823191602480820192602092909190829003018186803b1580156109ab57600080fd5b505afa1580156109bf573d6000803e3d6000fd5b505050506040513d60208110156109d557600080fd5b5051905060006109e43061079e565b905060006109f061068c565b9050806109fd8386611a0e565b81610a0457fe5b04995080610a128385611a0e565b81610a1957fe5b04985060008a118015610a2c5750600089115b610a675760405162461bcd60e51b81526004018080602001828103825260298152602001806121106029913960400191505060405180910390fd5b610a713083611a67565b856001600160a01b031663a9059cbb8c8c6040518363ffffffff1660e01b815260040180836001600160a01b0316815260200182815260200192505050602060405180830381600087803b158015610ac857600080fd5b505af1158015610adc573d6000803e3d6000fd5b505050506040513d6020811015610af257600080fd5b5050604080516000808252602082019092526001600160a01b038d16908b906040518082805190602001908083835b60208310610b405780518252601f199092019160209182019101610b21565b6001836020036101000a03801982511681845116808217855250505050505090500191505060006040518083038185875af1925050503d8060008114610ba2576040519150601f19603f3d011682016040523d82523d6000602084013e610ba7565b606091505b5050905080610be75760405162461bcd60e51b815260040180806020018281038252602781526020018061205c6027913960400191505060405180910390fd5b604080516370a0823160e01b815230600482015290516001600160a01b038916916370a08231916024808301926020929190829003018186803b158015610c2d57600080fd5b505afa158015610c41573d6000803e3d6000fd5b505050506040513d6020811015610c5757600080fd5b5051600754604080516370a0823160e01b815230600482015290519297506001600160a01b03909116916370a0823191602480820192602092909190829003018186803b158015610ca757600080fd5b505afa158015610cbb573d6000803e3d6000fd5b505050506040513d6020811015610cd157600080fd5b50519350610ce185858b8b611b63565b604080518c8152602081018c905281516001600160a01b038f169233927fdccd412f0b1252819cb1fd330b93224ca42612892bb3f4f789976e6d81936496929081900390910190a35050505050505050506001600881905550915091565b60048054604080516020601f600260001961010060018816150201909516949094049384018190048102820181019092528281526060939092909183018282801561062b5780601f106106005761010080835404028352916020019161062b565b6000610673610dad6116cb565b8461070a856040518060600160405280602581526020016121a36025913960016000610dd76116cb565b6001600160a01b03908116825260208083019390935260409182016000908120918d16815292529020549190611916565b6000610673610e156116cb565b84846117bb565b6103e881565b60055461010090046001600160a01b031681565b600854600114610e7d576040805162461bcd60e51b815260206004820152600d60248201526c11985b5bdcdbc81313d0d2d151609a1b604482015290519081900360640190fd5b6000600855600b546040805163e78c96ed60e01b815233600482015290516001600160a01b039092169163e78c96ed91602480820192602092909190829003018186803b158015610ecd57600080fd5b505afa158015610ee1573d6000803e3d6000fd5b505050506040513d6020811015610ef757600080fd5b505115610f37576040805162461bcd60e51b8152602060048201526009602482015268125b8811909b1a5cdd60ba1b604482015290519081900360640190fd5b6000821180610f465750600034115b610f815760405162461bcd60e51b81526004018080602001828103825260228152602001806120836022913960400191505060405180910390fd5b600080610f8c610635565b5091509150816001600160701b031684108015610fb15750806001600160701b031634105b610fec5760405162461bcd60e51b81526004018080602001828103825260228152602001806120c66022913960400191505060405180910390fd5b6006546007546001600160a01b039182169116600080808089156111425761103b886001600160701b03168b01611035896001600160701b03168d611a0e90919063ffffffff16565b90611c12565b9150611049868a308d611c79565b604080516000808252602082019092526001600160a01b038b169084906040518082805190602001908083835b602083106110955780518252601f199092019160209182019101611076565b6001836020036101000a03801982511681845116808217855250505050505090500191505060006040518083038185875af1925050503d80600081146110f7576040519150601f19603f3d011682016040523d82523d6000602084013e6110fc565b606091505b505090508061113c5760405162461bcd60e51b815260040180806020018281038252602781526020018061205c6027913960400191505060405180910390fd5b506111e8565b506001611162346001600160701b03808a16820191611035918c16611a0e565b9150856001600160a01b031663a9059cbb8a846040518363ffffffff1660e01b815260040180836001600160a01b0316815260200182815260200192505050602060405180830381600087803b1580156111bb57600080fd5b505af11580156111cf573d6000803e3d6000fd5b505050506040513d60208110156111e557600080fd5b50505b604080516370a0823160e01b815230600482015290516001600160a01b038816916370a08231916024808301926020929190829003018186803b15801561122e57600080fd5b505afa158015611242573d6000803e3d6000fd5b505050506040513d602081101561125857600080fd5b5051600754604080516370a0823160e01b815230600482015290519296506001600160a01b03909116916370a0823191602480820192602092909190829003018186803b1580156112a857600080fd5b505afa1580156112bc573d6000803e3d6000fd5b505050506040513d60208110156112d257600080fd5b505192506112e284848a8a611b63565b6040805183815260208101839052815133927f77f92a1b6a1a11de8ca49515ad4c1fad45632dd3442167d74b90b304a3c7a758928290030190a2505060016008555050505050505050565b6001600160a01b03918216600090815260016020908152604080832093909416825291909152205490565b600b546001600160a01b031681565b60006008546001146113b0576040805162461bcd60e51b815260206004820152600d60248201526c11985b5bdcdbc81313d0d2d151609a1b604482015290519081900360640190fd5b6000600855600b546040805163e78c96ed60e01b815233600482015290516001600160a01b039092169163e78c96ed91602480820192602092909190829003018186803b15801561140057600080fd5b505afa158015611414573d6000803e3d6000fd5b505050506040513d602081101561142a57600080fd5b50511561146a576040805162461bcd60e51b8152602060048201526009602482015268125b8811909b1a5cdd60ba1b604482015290519081900360640190fd5b600080611475610635565b506006549193509150611493906001600160a01b0316863087611c79565b600654604080516370a0823160e01b815230600482015290516000926001600160a01b0316916370a08231916024808301926020929190829003018186803b1580156114de57600080fd5b505afa1580156114f2573d6000803e3d6000fd5b505050506040513d602081101561150857600080fd5b5051600754604080516370a0823160e01b815230600482015290519293506000926001600160a01b03909216916370a0823191602480820192602092909190829003018186803b15801561155b57600080fd5b505afa15801561156f573d6000803e3d6000fd5b505050506040513d602081101561158557600080fd5b50519050600061159e836001600160701b038716611dec565b90503460006115ab61068c565b9050806115d7576115d06103e86115ca6115c58686611a0e565b611e49565b90611dec565b975061161a565b6116176001600160701b0388166115ee8584611a0e565b816115f557fe5b046001600160701b03881661160a8585611a0e565b8161161157fe5b04611e9a565b97505b600088116116595760405162461bcd60e51b81526004018080602001828103825260298152602001806120336029913960400191505060405180910390fd5b6116638a89611eb0565b61166f85858989611b63565b6040805184815260208101849052815133927f4c209b5fc8ad50758f13e2e1088ba56a560dff690a1c6fef26394f4c03821c4f928290030190a25050600160085550939695505050505050565b6006546001600160a01b031681565b3390565b6001600160a01b0383166117145760405162461bcd60e51b815260040180806020018281038252602481526020018061217f6024913960400191505060405180910390fd5b6001600160a01b0382166117595760405162461bcd60e51b8152600401808060200182810382526022815260200180611feb6022913960400191505060405180910390fd5b6001600160a01b03808416600081815260016020908152604080832094871680845294825291829020859055815185815291517f8c5be1e5ebec7d5bd14f71427d1e84f3dd0314c0f7b2291e5b200ac8c7c3b9259281900390910190a3505050565b6001600160a01b0383166118005760405162461bcd60e51b815260040180806020018281038252602581526020018061215a6025913960400191505060405180910390fd5b6001600160a01b0382166118455760405162461bcd60e51b8152600401808060200182810382526023815260200180611fa66023913960400191505060405180910390fd5b611850838383611fa0565b61188d8160405180606001604052806026815260200161200d602691396001600160a01b0386166000908152602081905260409020549190611916565b6001600160a01b0380851660009081526020819052604080822093909355908416815220546118bc90826119ad565b6001600160a01b038084166000818152602081815260409182902094909455805185815290519193928716927fddf252ad1be2c89b69c2b068fc378daa952ba7f163c4a11628f55a4df523b3ef92918290030190a3505050565b600081848411156119a55760405162461bcd60e51b81526004018080602001828103825283818151815260200191508051906020019080838360005b8381101561196a578181015183820152602001611952565b50505050905090810190601f1680156119975780820380516001836020036101000a031916815260200191505b509250505060405180910390fd5b505050900390565b600082820183811015611a07576040805162461bcd60e51b815260206004820152601b60248201527f536166654d6174683a206164646974696f6e206f766572666c6f770000000000604482015290519081900360640190fd5b9392505050565b600082611a1d57506000610677565b82820282848281611a2a57fe5b0414611a075760405162461bcd60e51b81526004018080602001828103825260218152602001806120a56021913960400191505060405180910390fd5b6001600160a01b038216611aac5760405162461bcd60e51b81526004018080602001828103825260218152602001806121396021913960400191505060405180910390fd5b611ab882600083611fa0565b611af581604051806060016040528060228152602001611fc9602291396001600160a01b0385166000908152602081905260409020549190611916565b6001600160a01b038316600090815260208190526040902055600254611b1b9082611dec565b6002556040805182815290516000916001600160a01b038516917fddf252ad1be2c89b69c2b068fc378daa952ba7f163c4a11628f55a4df523b3ef9181900360200190a35050565b600980546dffffffffffffffffffffffffffff19166001600160701b03868116919091176dffffffffffffffffffffffffffff60701b1916600160701b8683168102919091176001600160e01b0316600160e01b4263ffffffff169081029190911793849055604080518585168152929094049092166020820152825191927f1c411e9a96e071241c2f21f7726b17ae89e3cab4c78be50e062b03a9fffbbad192918290030190a15050505050565b6000808211611c68576040805162461bcd60e51b815260206004820152601a60248201527f536166654d6174683a206469766973696f6e206279207a65726f000000000000604482015290519081900360640190fd5b818381611c7157fe5b049392505050565b604080516001600160a01b0385811660248301528481166044830152606480830185905283518084039091018152608490920183526020820180516001600160e01b03166323b872dd60e01b17815292518251600094606094938a169392918291908083835b60208310611cfe5780518252601f199092019160209182019101611cdf565b6001836020036101000a0380198251168184511680821785525050505050509050019150506000604051808303816000865af19150503d8060008114611d60576040519150601f19603f3d011682016040523d82523d6000602084013e611d65565b606091505b5091509150818015611d93575080511580611d935750808060200190516020811015611d9057600080fd5b50515b611de4576040805162461bcd60e51b815260206004820152601f60248201527f46616d6f736f436f696e3a205452414e5346455246524f4d5f4641494c454400604482015290519081900360640190fd5b505050505050565b600082821115611e43576040805162461bcd60e51b815260206004820152601e60248201527f536166654d6174683a207375627472616374696f6e206f766572666c6f770000604482015290519081900360640190fd5b50900390565b60006003821115611e8c575080600160028204015b81811015611e8657809150600281828581611e7557fe5b040181611e7e57fe5b049050611e5e565b506107b8565b81156107b857506001919050565b6000818310611ea95781611a07565b5090919050565b6001600160a01b038216611f0b576040805162461bcd60e51b815260206004820152601f60248201527f45524332303a206d696e7420746f20746865207a65726f206164647265737300604482015290519081900360640190fd5b611f1760008383611fa0565b600254611f2490826119ad565b6002556001600160a01b038216600090815260208190526040902054611f4a90826119ad565b6001600160a01b0383166000818152602081815260408083209490945583518581529351929391927fddf252ad1be2c89b69c2b068fc378daa952ba7f163c4a11628f55a4df523b3ef9281900390910190a35050565b50505056fe45524332303a207472616e7366657220746f20746865207a65726f206164647265737345524332303a206275726e20616d6f756e7420657863656564732062616c616e636545524332303a20617070726f766520746f20746865207a65726f206164647265737345524332303a207472616e7366657220616d6f756e7420657863656564732062616c616e636546616d6f736f436f696e3a20494e53554646494349454e545f4c49515549444954595f4d494e5445444661696c656420746f207472616e73666572207468652066756e64732c2061626f7274696e672e46616d6f736f436f696e3a20494e53554646494349454e545f494e5f414d4f554e54536166654d6174683a206d756c7469706c69636174696f6e206f766572666c6f7746616d6f736f436f696e3a20494e53554646494349454e545f4c495155494449545945524332303a207472616e7366657220616d6f756e74206578636565647320616c6c6f77616e636546616d6f736f436f696e3a20494e53554646494349454e545f4c49515549444954595f4255524e454445524332303a206275726e2066726f6d20746865207a65726f206164647265737345524332303a207472616e736665722066726f6d20746865207a65726f206164647265737345524332303a20617070726f76652066726f6d20746865207a65726f206164647265737345524332303a2064656372656173656420616c6c6f77616e63652062656c6f77207a65726fa26469706673582212200cf25d6dba40f4041a860d779c5893fd8cfb9f4cb09547f73b61cdefffb2790964736f6c63430007040033",
  "immutableReferences": {},
  "source": "// SPDX-License-Identifier: MIT\r\npragma solidity >=0.4.22 <0.9.0;\r\n\r\nimport \"@openzeppelin/contracts/math/SafeMath.sol\";\r\nimport \"@openzeppelin/contracts/token/ERC20/ERC20.sol\";\r\nimport \"./FBlist.sol\";\r\n\r\ncontract FamosoCoin is ERC20 {\r\n    using SafeMath for uint256;\r\n\r\n    address payable public factory;\r\n    address public token;\r\n    address public coin;\r\n    \r\n    uint256 private unlocked = 1;\r\n    \r\n    uint112 private reserve0;\r\n    uint112 private reserve1;\r\n    uint32 private blockTimestampLast;\r\n\r\n    uint256 public constant MINIMUM_LIQUIDITY = 10**3;\r\n    bytes4 private constant SELECTOR = bytes4(keccak256(bytes(\"transfer(address, uint256)\")));\r\n\r\n    uint public kLast;\r\n    address public fblist = address(0xE57df7A127dC25A6e52Ad162d5A3Dbb4b2808231);\r\n\r\n    event Mint(address indexed sender, uint256 amount0, uint256 amount1);\r\n    event Burn(address indexed sender, uint256 amount0, uint256 amount1, address indexed to);\r\n    event Swap(address indexed sender, uint256 amountOut, uint flag);\r\n    event Sync(uint112 reserve0, uint112 reserve1);\r\n\r\n    constructor() ERC20(\"FamosoCoin\", \"FMSC\") {}\r\n\r\n    function initialize(address _token, address _coin) external {\r\n        // require(msg.sender == factory, \"Famoso: FORBIDDEN\");\r\n        token = _token;\r\n        coin = _coin;\r\n    }\r\n\r\n    modifier lock() { \r\n        require(unlocked == 1, \"Famoso LOCKED\");\r\n        unlocked = 0;\r\n        _;\r\n        unlocked = 1; \r\n    }\r\n\r\n    function getReserves() public view returns ( uint112 _reserve0, uint112 _reserve1, uint32 _blockTimestampLast )\r\n    {\r\n        _reserve0 = reserve0;\r\n        _reserve1 = reserve1;\r\n        _blockTimestampLast = blockTimestampLast;\r\n    }\r\n\r\n    function add(uint256 x, uint256 y) internal pure returns (uint256 z) {\r\n        require((z = x + y) >= x, \"ds-math-add-overflow\");\r\n    }\r\n\r\n    function sub(uint256 x, uint256 y) internal pure returns (uint256 z) {\r\n        require((z = x - y) <= x, \"ds-math-sub-underflow\");\r\n    }\r\n\r\n    function mul(uint256 x, uint256 y) internal pure returns (uint256 z) {\r\n        require(y == 0 || (z = x * y) / y == x, \"ds-math-mul-overflow\");\r\n    }\r\n\r\n    function min(uint256 x, uint256 y) internal pure returns (uint256 z) {\r\n        z = x < y ? x : y;\r\n    }\r\n\r\n    function sqrt(uint256 y) internal pure returns (uint256 z) {\r\n        if (y > 3) {\r\n            z = y;\r\n            uint256 x = y / 2 + 1;\r\n            while (x < z) {\r\n                z = x;\r\n                x = (y / x + x) / 2;\r\n            }\r\n        } else if (y != 0) {\r\n            z = 1;\r\n        }\r\n    }\r\n\r\n    function safeTokenTransferFrom( address token, address from, address to, uint256 value ) private {\r\n        (bool success, bytes memory data) = token.call( abi.encodeWithSelector(0x23b872dd, from, to, value) );\r\n        require( success && (data.length == 0 || abi.decode(data, (bool))), \"FamosoCoin: TRANSFERFROM_FAILED\" );\r\n    }\r\n\r\n    // update reserves and, on the first call per block, price accumulators\r\n    function _update( uint256 balance0, uint256 balance1, uint112 _reserve0, uint112 _reserve1 ) private {\r\n        // require( balance0 <= uint112(-1) && balance1 <= uint112(-1), \"FamosoCoin: OVERFLOW\" );\r\n        uint32 blockTimestamp = uint32(block.timestamp % 2**32);\r\n        reserve0 = uint112(balance0);\r\n        reserve1 = uint112(balance1);\r\n        blockTimestampLast = blockTimestamp;\r\n        emit Sync(reserve0, reserve1);\r\n    }\r\n\r\n    function mintTokenCoin(address to, uint amount) external payable lock returns (uint256 liquidity) {\r\n        require(FBlist(fblist).inlist(msg.sender) == 0, \"In FBlist\");\r\n        (uint112 _reserve0, uint112 _reserve1,) = getReserves();\r\n        safeTokenTransferFrom(token, to, address(this), amount);\r\n\r\n        uint256 balance0 = ERC20(token).balanceOf(address(this));\r\n        uint256 balance1 = ERC20(coin).balanceOf(address(this));\r\n        uint256 amount0 = balance0.sub(_reserve0);\r\n        uint256 amount1 = msg.value;\r\n\r\n        uint256 _totalSupply = totalSupply();\r\n\r\n        if (_totalSupply == 0) {\r\n            liquidity = sqrt(amount0.mul(amount1)).sub(MINIMUM_LIQUIDITY);\r\n            // _mint(address(this), MINIMUM_LIQUIDITY);\r\n        } else {\r\n            liquidity = min( amount0.mul(_totalSupply) / _reserve0, amount1.mul(_totalSupply) / _reserve1 );\r\n        }\r\n        require(liquidity > 0, \"FamosoCoin: INSUFFICIENT_LIQUIDITY_MINTED\");\r\n        _mint(to, liquidity);\r\n\r\n        _update(balance0, balance1, _reserve0, _reserve1);\r\n        emit Mint(msg.sender, amount0, amount1);\r\n    }\r\n\r\n    function burn(address to) external lock returns (uint amount0, uint amount1) {\r\n        require(FBlist(fblist).inlist(msg.sender) == 0, \"In FBlist\");\r\n        (uint112 _reserve0, uint112 _reserve1,) = getReserves(); // gas savings\r\n        address _token = token;                                // gas savings\r\n        address _coin = coin;                                // gas savings\r\n        uint balance0 = ERC20(_token).balanceOf(address(this));\r\n        uint balance1 = ERC20(coin).balanceOf(address(this));\r\n        uint liquidity = balanceOf(address(this));\r\n\r\n        uint _totalSupply = totalSupply(); // gas savings, must be defined here since totalSupply can update in _mintFee\r\n        amount0 = liquidity.mul(balance0) / _totalSupply; // using balances ensures pro-rata distribution\r\n        amount1 = liquidity.mul(balance1) / _totalSupply; // using balances ensures pro-rata distribution\r\n        require(amount0 > 0 && amount1 > 0, 'FamosoCoin: INSUFFICIENT_LIQUIDITY_BURNED');\r\n        _burn(address(this), liquidity);\r\n        ERC20(_token).transfer(to, amount0);\r\n        (bool success,  ) = to.call{value: amount1}(new bytes(0));\r\n        require(success, \"Failed to transfer the funds, aborting.\");\r\n        balance0 = ERC20(_token).balanceOf(address(this));\r\n        balance1 = ERC20(coin).balanceOf(address(this));\r\n\r\n        _update(balance0, balance1, _reserve0, _reserve1);\r\n        emit Burn(msg.sender, amount0, amount1, to);\r\n    }\r\n\r\n    function swap(uint amountIn, address to) external payable lock {\r\n        require(FBlist(fblist).inlist(msg.sender) == 0, \"In FBlist\");\r\n        require(amountIn > 0 || msg.value > 0, 'FamosoCoin: INSUFFICIENT_IN_AMOUNT');\r\n        (uint112 _reserve0, uint112 _reserve1,) = getReserves(); // gas savings\r\n        require(amountIn < _reserve0 && msg.value < _reserve1, 'FamosoCoin: INSUFFICIENT_LIQUIDITY');\r\n        address _token = token;\r\n        address _coin = coin;\r\n        uint balance0;\r\n        uint balance1;\r\n        uint amountOut;\r\n        uint flag = 0;\r\n        if (amountIn > 0) {\r\n            amountOut = amountIn.mul(_reserve1).div(amountIn + _reserve0);\r\n            safeTokenTransferFrom(_token, to, address(this), amountIn);\r\n            (bool success,  ) = to.call{value: amountOut}(new bytes(0));\r\n            require(success, \"Failed to transfer the funds, aborting.\");\r\n        } else {\r\n            flag = 1;\r\n            amountOut = msg.value.mul(_reserve0).div(msg.value + _reserve1);\r\n            ERC20(_token).transfer(to, amountOut);\r\n        }\r\n\r\n        balance0 = ERC20(_token).balanceOf(address(this));\r\n        balance1 = ERC20(coin).balanceOf(address(this));\r\n        _update(balance0, balance1, _reserve0, _reserve1);\r\n        emit Swap(msg.sender, amountOut, flag);\r\n    }\r\n\r\n    receive () external payable {} \r\n}\r\n",
  "sourcePath": "F:\\uniswap\\famoso\\contracts\\FamosoCoin.sol",
  "compiler": {
    "name": "solc",
    "version": "0.7.4+commit.3f05b770.Emscripten.clang"
  },
  "schemaVersion": "3.4.2",
  "updatedAt": "2021-10-08T19:07:47.380Z",
  "networkType": "ethereum",
  "devdoc": {
    "kind": "dev",
    "methods": {
      "allowance(address,address)": {
        "details": "See {IERC20-allowance}."
      },
      "approve(address,uint256)": {
        "details": "See {IERC20-approve}. Requirements: - `spender` cannot be the zero address."
      },
      "balanceOf(address)": {
        "details": "See {IERC20-balanceOf}."
      },
      "decimals()": {
        "details": "Returns the number of decimals used to get its user representation. For example, if `decimals` equals `2`, a balance of `505` tokens should be displayed to a user as `5,05` (`505 / 10 ** 2`). Tokens usually opt for a value of 18, imitating the relationship between Ether and Wei. This is the value {ERC20} uses, unless {_setupDecimals} is called. NOTE: This information is only used for _display_ purposes: it in no way affects any of the arithmetic of the contract, including {IERC20-balanceOf} and {IERC20-transfer}."
      },
      "decreaseAllowance(address,uint256)": {
        "details": "Atomically decreases the allowance granted to `spender` by the caller. This is an alternative to {approve} that can be used as a mitigation for problems described in {IERC20-approve}. Emits an {Approval} event indicating the updated allowance. Requirements: - `spender` cannot be the zero address. - `spender` must have allowance for the caller of at least `subtractedValue`."
      },
      "increaseAllowance(address,uint256)": {
        "details": "Atomically increases the allowance granted to `spender` by the caller. This is an alternative to {approve} that can be used as a mitigation for problems described in {IERC20-approve}. Emits an {Approval} event indicating the updated allowance. Requirements: - `spender` cannot be the zero address."
      },
      "name()": {
        "details": "Returns the name of the token."
      },
      "symbol()": {
        "details": "Returns the symbol of the token, usually a shorter version of the name."
      },
      "totalSupply()": {
        "details": "See {IERC20-totalSupply}."
      },
      "transfer(address,uint256)": {
        "details": "See {IERC20-transfer}. Requirements: - `recipient` cannot be the zero address. - the caller must have a balance of at least `amount`."
      },
      "transferFrom(address,address,uint256)": {
        "details": "See {IERC20-transferFrom}. Emits an {Approval} event indicating the updated allowance. This is not required by the EIP. See the note at the beginning of {ERC20}. Requirements: - `sender` and `recipient` cannot be the zero address. - `sender` must have a balance of at least `amount`. - the caller must have allowance for ``sender``'s tokens of at least `amount`."
      }
    },
    "version": 1
  },
  "userdoc": {
    "kind": "user",
    "methods": {},
    "version": 1
  }
}