{
  "contractName": "Famoso",
  "abi": [
    {
      "inputs": [],
      "stateMutability": "nonpayable",
      "type": "constructor"
    },
    {
      "anonymous": false,
      "inputs": [
        {
          "indexed": true,
          "internalType": "address",
          "name": "owner",
          "type": "address"
        },
        {
          "indexed": true,
          "internalType": "address",
          "name": "spender",
          "type": "address"
        },
        {
          "indexed": false,
          "internalType": "uint256",
          "name": "value",
          "type": "uint256"
        }
      ],
      "name": "Approval",
      "type": "event"
    },
    {
      "anonymous": false,
      "inputs": [
        {
          "indexed": true,
          "internalType": "address",
          "name": "sender",
          "type": "address"
        },
        {
          "indexed": false,
          "internalType": "uint256",
          "name": "amount0",
          "type": "uint256"
        },
        {
          "indexed": false,
          "internalType": "uint256",
          "name": "amount1",
          "type": "uint256"
        },
        {
          "indexed": true,
          "internalType": "address",
          "name": "to",
          "type": "address"
        }
      ],
      "name": "Burn",
      "type": "event"
    },
    {
      "anonymous": false,
      "inputs": [
        {
          "indexed": true,
          "internalType": "address",
          "name": "sender",
          "type": "address"
        },
        {
          "indexed": false,
          "internalType": "uint256",
          "name": "amount0",
          "type": "uint256"
        },
        {
          "indexed": false,
          "internalType": "uint256",
          "name": "amount1",
          "type": "uint256"
        }
      ],
      "name": "Mint",
      "type": "event"
    },
    {
      "anonymous": false,
      "inputs": [
        {
          "indexed": true,
          "internalType": "address",
          "name": "sender",
          "type": "address"
        },
        {
          "indexed": false,
          "internalType": "uint256",
          "name": "amount0In",
          "type": "uint256"
        },
        {
          "indexed": false,
          "internalType": "uint256",
          "name": "amount1In",
          "type": "uint256"
        },
        {
          "indexed": false,
          "internalType": "uint256",
          "name": "amount0Out",
          "type": "uint256"
        },
        {
          "indexed": false,
          "internalType": "uint256",
          "name": "amount1Out",
          "type": "uint256"
        },
        {
          "indexed": true,
          "internalType": "address",
          "name": "to",
          "type": "address"
        }
      ],
      "name": "Swap",
      "type": "event"
    },
    {
      "anonymous": false,
      "inputs": [
        {
          "indexed": false,
          "internalType": "uint112",
          "name": "reserve0",
          "type": "uint112"
        },
        {
          "indexed": false,
          "internalType": "uint112",
          "name": "reserve1",
          "type": "uint112"
        }
      ],
      "name": "Sync",
      "type": "event"
    },
    {
      "anonymous": false,
      "inputs": [
        {
          "indexed": true,
          "internalType": "address",
          "name": "from",
          "type": "address"
        },
        {
          "indexed": true,
          "internalType": "address",
          "name": "to",
          "type": "address"
        },
        {
          "indexed": false,
          "internalType": "uint256",
          "name": "value",
          "type": "uint256"
        }
      ],
      "name": "Transfer",
      "type": "event"
    },
    {
      "inputs": [],
      "name": "MINIMUM_LIQUIDITY",
      "outputs": [
        {
          "internalType": "uint256",
          "name": "",
          "type": "uint256"
        }
      ],
      "stateMutability": "view",
      "type": "function",
      "constant": true
    },
    {
      "inputs": [
        {
          "internalType": "address",
          "name": "owner",
          "type": "address"
        },
        {
          "internalType": "address",
          "name": "spender",
          "type": "address"
        }
      ],
      "name": "allowance",
      "outputs": [
        {
          "internalType": "uint256",
          "name": "",
          "type": "uint256"
        }
      ],
      "stateMutability": "view",
      "type": "function",
      "constant": true
    },
    {
      "inputs": [
        {
          "internalType": "address",
          "name": "spender",
          "type": "address"
        },
        {
          "internalType": "uint256",
          "name": "amount",
          "type": "uint256"
        }
      ],
      "name": "approve",
      "outputs": [
        {
          "internalType": "bool",
          "name": "",
          "type": "bool"
        }
      ],
      "stateMutability": "nonpayable",
      "type": "function"
    },
    {
      "inputs": [
        {
          "internalType": "address",
          "name": "account",
          "type": "address"
        }
      ],
      "name": "balanceOf",
      "outputs": [
        {
          "internalType": "uint256",
          "name": "",
          "type": "uint256"
        }
      ],
      "stateMutability": "view",
      "type": "function",
      "constant": true
    },
    {
      "inputs": [],
      "name": "decimals",
      "outputs": [
        {
          "internalType": "uint8",
          "name": "",
          "type": "uint8"
        }
      ],
      "stateMutability": "view",
      "type": "function",
      "constant": true
    },
    {
      "inputs": [
        {
          "internalType": "address",
          "name": "spender",
          "type": "address"
        },
        {
          "internalType": "uint256",
          "name": "subtractedValue",
          "type": "uint256"
        }
      ],
      "name": "decreaseAllowance",
      "outputs": [
        {
          "internalType": "bool",
          "name": "",
          "type": "bool"
        }
      ],
      "stateMutability": "nonpayable",
      "type": "function"
    },
    {
      "inputs": [],
      "name": "factory",
      "outputs": [
        {
          "internalType": "address payable",
          "name": "",
          "type": "address"
        }
      ],
      "stateMutability": "view",
      "type": "function",
      "constant": true
    },
    {
      "inputs": [],
      "name": "fblist",
      "outputs": [
        {
          "internalType": "address",
          "name": "",
          "type": "address"
        }
      ],
      "stateMutability": "view",
      "type": "function",
      "constant": true
    },
    {
      "inputs": [
        {
          "internalType": "address",
          "name": "spender",
          "type": "address"
        },
        {
          "internalType": "uint256",
          "name": "addedValue",
          "type": "uint256"
        }
      ],
      "name": "increaseAllowance",
      "outputs": [
        {
          "internalType": "bool",
          "name": "",
          "type": "bool"
        }
      ],
      "stateMutability": "nonpayable",
      "type": "function"
    },
    {
      "inputs": [],
      "name": "kLast",
      "outputs": [
        {
          "internalType": "uint256",
          "name": "",
          "type": "uint256"
        }
      ],
      "stateMutability": "view",
      "type": "function",
      "constant": true
    },
    {
      "inputs": [],
      "name": "name",
      "outputs": [
        {
          "internalType": "string",
          "name": "",
          "type": "string"
        }
      ],
      "stateMutability": "view",
      "type": "function",
      "constant": true
    },
    {
      "inputs": [],
      "name": "symbol",
      "outputs": [
        {
          "internalType": "string",
          "name": "",
          "type": "string"
        }
      ],
      "stateMutability": "view",
      "type": "function",
      "constant": true
    },
    {
      "inputs": [],
      "name": "token0",
      "outputs": [
        {
          "internalType": "address",
          "name": "",
          "type": "address"
        }
      ],
      "stateMutability": "view",
      "type": "function",
      "constant": true
    },
    {
      "inputs": [],
      "name": "token1",
      "outputs": [
        {
          "internalType": "address",
          "name": "",
          "type": "address"
        }
      ],
      "stateMutability": "view",
      "type": "function",
      "constant": true
    },
    {
      "inputs": [],
      "name": "totalSupply",
      "outputs": [
        {
          "internalType": "uint256",
          "name": "",
          "type": "uint256"
        }
      ],
      "stateMutability": "view",
      "type": "function",
      "constant": true
    },
    {
      "inputs": [
        {
          "internalType": "address",
          "name": "recipient",
          "type": "address"
        },
        {
          "internalType": "uint256",
          "name": "amount",
          "type": "uint256"
        }
      ],
      "name": "transfer",
      "outputs": [
        {
          "internalType": "bool",
          "name": "",
          "type": "bool"
        }
      ],
      "stateMutability": "nonpayable",
      "type": "function"
    },
    {
      "inputs": [
        {
          "internalType": "address",
          "name": "sender",
          "type": "address"
        },
        {
          "internalType": "address",
          "name": "recipient",
          "type": "address"
        },
        {
          "internalType": "uint256",
          "name": "amount",
          "type": "uint256"
        }
      ],
      "name": "transferFrom",
      "outputs": [
        {
          "internalType": "bool",
          "name": "",
          "type": "bool"
        }
      ],
      "stateMutability": "nonpayable",
      "type": "function"
    },
    {
      "stateMutability": "payable",
      "type": "receive",
      "payable": true
    },
    {
      "inputs": [
        {
          "internalType": "address",
          "name": "_token0",
          "type": "address"
        },
        {
          "internalType": "address",
          "name": "_token1",
          "type": "address"
        }
      ],
      "name": "initialize",
      "outputs": [],
      "stateMutability": "nonpayable",
      "type": "function"
    },
    {
      "inputs": [],
      "name": "getReserves",
      "outputs": [
        {
          "internalType": "uint112",
          "name": "_reserve0",
          "type": "uint112"
        },
        {
          "internalType": "uint112",
          "name": "_reserve1",
          "type": "uint112"
        },
        {
          "internalType": "uint32",
          "name": "_blockTimestampLast",
          "type": "uint32"
        }
      ],
      "stateMutability": "view",
      "type": "function",
      "constant": true
    },
    {
      "inputs": [
        {
          "internalType": "address",
          "name": "to",
          "type": "address"
        },
        {
          "internalType": "uint256",
          "name": "amount0",
          "type": "uint256"
        },
        {
          "internalType": "uint256",
          "name": "amount1",
          "type": "uint256"
        }
      ],
      "name": "mintToken",
      "outputs": [
        {
          "internalType": "uint256",
          "name": "liquidity",
          "type": "uint256"
        }
      ],
      "stateMutability": "nonpayable",
      "type": "function"
    },
    {
      "inputs": [
        {
          "internalType": "address",
          "name": "to",
          "type": "address"
        }
      ],
      "name": "burn",
      "outputs": [
        {
          "internalType": "uint256",
          "name": "amount0",
          "type": "uint256"
        },
        {
          "internalType": "uint256",
          "name": "amount1",
          "type": "uint256"
        }
      ],
      "stateMutability": "nonpayable",
      "type": "function"
    },
    {
      "inputs": [
        {
          "internalType": "uint256",
          "name": "amount0In",
          "type": "uint256"
        },
        {
          "internalType": "uint256",
          "name": "amount1In",
          "type": "uint256"
        },
        {
          "internalType": "address",
          "name": "to",
          "type": "address"
        }
      ],
      "name": "swap",
      "outputs": [],
      "stateMutability": "nonpayable",
      "type": "function"
    }
  ],
  "bytecode": "0x6080604052600880546001600160a01b03191673e57df7a127dc25a6e52ad162d5a3dbb4b280823117905560016009553480156200003c57600080fd5b50604080518082018252600681526546616d6f736f60d01b602080830191825283518085019094526004845263119354d560e21b9084015281519192916200008791600391620000b3565b5080516200009d906004906020840190620000b3565b50506005805460ff19166012179055506200015f565b828054600181600116156101000203166002900490600052602060002090601f016020900481019282620000eb576000855562000136565b82601f106200010657805160ff191683800117855562000136565b8280016001018555821562000136579182015b828111156200013657825182559160200191906001019062000119565b506200014492915062000148565b5090565b5b8082111562000144576000815560010162000149565b6123e1806200016f6000396000f3fe6080604052600436106101395760003560e01c806370a08231116100ab578063a9059cbb1161006f578063a9059cbb146104fd578063ba9a7a5614610536578063c45a01551461054b578063d21220a714610560578063dd62ed3e14610575578063e41486da146105b057610140565b806370a082311461041b5780637464fc3d1461044e57806389afcb441461046357806395d89b41146104af578063a457c2d7146104c457610140565b806323a36d2b116100fd57806323a36d2b146102b957806323b872dd146102f8578063313ce5671461033b5780633950935114610366578063485cc9551461039f5780636d9a640a146103dc57610140565b806306fdde03146101455780630902f1ac146101cf578063095ea7b3146102145780630dfe16811461026157806318160ddd1461029257610140565b3661014057005b600080fd5b34801561015157600080fd5b5061015a6105c5565b6040805160208082528351818301528351919283929083019185019080838360005b8381101561019457818101518382015260200161017c565b50505050905090810190601f1680156101c15780820380516001836020036101000a031916815260200191505b509250505060405180910390f35b3480156101db57600080fd5b506101e461065b565b604080516001600160701b03948516815292909316602083015263ffffffff168183015290519081900360600190f35b34801561022057600080fd5b5061024d6004803603604081101561023757600080fd5b506001600160a01b038135169060200135610685565b604080519115158252519081900360200190f35b34801561026d57600080fd5b506102766106a3565b604080516001600160a01b039092168252519081900360200190f35b34801561029e57600080fd5b506102a76106b2565b60408051918252519081900360200190f35b3480156102c557600080fd5b506102a7600480360360608110156102dc57600080fd5b506001600160a01b0381351690602081013590604001356106b8565b34801561030457600080fd5b5061024d6004803603606081101561031b57600080fd5b506001600160a01b03813581169160208101359091169060400135610aef565b34801561034757600080fd5b50610350610b76565b6040805160ff9092168252519081900360200190f35b34801561037257600080fd5b5061024d6004803603604081101561038957600080fd5b506001600160a01b038135169060200135610b7f565b3480156103ab57600080fd5b506103da600480360360408110156103c257600080fd5b506001600160a01b0381358116916020013516610bcd565b005b3480156103e857600080fd5b506103da600480360360608110156103ff57600080fd5b50803590602081013590604001356001600160a01b0316610bfb565b34801561042757600080fd5b506102a76004803603602081101561043e57600080fd5b50356001600160a01b0316611208565b34801561045a57600080fd5b506102a7611227565b34801561046f57600080fd5b506104966004803603602081101561048657600080fd5b50356001600160a01b031661122d565b6040805192835260208301919091528051918290030190f35b3480156104bb57600080fd5b5061015a6117e2565b3480156104d057600080fd5b5061024d600480360360408110156104e757600080fd5b506001600160a01b038135169060200135611843565b34801561050957600080fd5b5061024d6004803603604081101561052057600080fd5b506001600160a01b0381351690602001356118ab565b34801561054257600080fd5b506102a76118bf565b34801561055757600080fd5b506102766118c5565b34801561056c57600080fd5b506102766118d9565b34801561058157600080fd5b506102a76004803603604081101561059857600080fd5b506001600160a01b03813581169160200135166118e8565b3480156105bc57600080fd5b50610276611913565b60038054604080516020601f60026000196101006001881615020190951694909404938401819004810282018101909252828152606093909290918301828280156106515780601f1061062657610100808354040283529160200191610651565b820191906000526020600020905b81548152906001019060200180831161063457829003601f168201915b5050505050905090565b600a546001600160701b0380821692600160701b830490911691600160e01b900463ffffffff1690565b6000610699610692611922565b8484611926565b5060015b92915050565b6006546001600160a01b031681565b60025490565b6008546040805163e78c96ed60e01b815233600482015290516000926001600160a01b03169163e78c96ed916024808301926020929190829003018186803b15801561070357600080fd5b505afa158015610717573d6000803e3d6000fd5b505050506040513d602081101561072d57600080fd5b50511561076d576040805162461bcd60e51b8152602060048201526009602482015268125b8811909b1a5cdd60ba1b604482015290519081900360640190fd5b6009546001146107b4576040805162461bcd60e51b815260206004820152600d60248201526c11985b5bdcdbc81313d0d2d151609a1b604482015290519081900360640190fd5b60006009556008546040805163e78c96ed60e01b815233600482015290516001600160a01b039092169163e78c96ed91602480820192602092909190829003018186803b15801561080457600080fd5b505afa158015610818573d6000803e3d6000fd5b505050506040513d602081101561082e57600080fd5b50511561086e576040805162461bcd60e51b8152602060048201526009602482015268125b8811909b1a5cdd60ba1b604482015290519081900360640190fd5b60008061087961065b565b506006549193509150610897906001600160a01b0316873088611a12565b6007546108af906001600160a01b0316873087611a12565b600654604080516370a0823160e01b815230600482015290516000926001600160a01b0316916370a08231916024808301926020929190829003018186803b1580156108fa57600080fd5b505afa15801561090e573d6000803e3d6000fd5b505050506040513d602081101561092457600080fd5b5051600754604080516370a0823160e01b815230600482015290519293506000926001600160a01b03909216916370a0823191602480820192602092909190829003018186803b15801561097757600080fd5b505afa15801561098b573d6000803e3d6000fd5b505050506040513d60208110156109a157600080fd5b5051905060006109ba836001600160701b038716611b85565b905060006109d1836001600160701b038716611b85565b905060006109dd6106b2565b905080610a0957610a026103e86109fc6109f78686611be2565b611c42565b90611b85565b9750610a4c565b610a496001600160701b038816610a208584611be2565b81610a2757fe5b046001600160701b038816610a3c8585611be2565b81610a4357fe5b04611c93565b97505b60008811610a8b5760405162461bcd60e51b81526004018080602001828103825260258152602001806122206025913960400191505060405180910390fd5b610a958b89611ca9565b610aa185858989611d99565b6040805184815260208101849052815133927f4c209b5fc8ad50758f13e2e1088ba56a560dff690a1c6fef26394f4c03821c4f928290030190a2505060016009555093979650505050505050565b6000610afc848484611e48565b610b6c84610b08611922565b610b67856040518060600160405280602881526020016122f5602891396001600160a01b038a16600090815260016020526040812090610b46611922565b6001600160a01b031681526020810191909152604001600020549190611fa3565b611926565b5060019392505050565b60055460ff1690565b6000610699610b8c611922565b84610b678560016000610b9d611922565b6001600160a01b03908116825260208083019390935260409182016000908120918c16815292529020549061203a565b600680546001600160a01b039384166001600160a01b03199182161790915560078054929093169116179055565b6008546040805163e78c96ed60e01b815233600482015290516001600160a01b039092169163e78c96ed91602480820192602092909190829003018186803b158015610c4657600080fd5b505afa158015610c5a573d6000803e3d6000fd5b505050506040513d6020811015610c7057600080fd5b505115610cb0576040805162461bcd60e51b8152602060048201526009602482015268125b8811909b1a5cdd60ba1b604482015290519081900360640190fd5b600954600114610cf7576040805162461bcd60e51b815260206004820152600d60248201526c11985b5bdcdbc81313d0d2d151609a1b604482015290519081900360640190fd5b60006009556008546040805163e78c96ed60e01b815233600482015290516001600160a01b039092169163e78c96ed91602480820192602092909190829003018186803b158015610d4757600080fd5b505afa158015610d5b573d6000803e3d6000fd5b505050506040513d6020811015610d7157600080fd5b505115610db1576040805162461bcd60e51b8152602060048201526009602482015268125b8811909b1a5cdd60ba1b604482015290519081900360640190fd5b6000831180610dc05750600082115b610e11576040805162461bcd60e51b815260206004820152601e60248201527f46616d6f736f3a20494e53554646494349454e545f494e5f414d4f554e540000604482015290519081900360640190fd5b600080610e1c61065b565b5091509150816001600160701b031685108015610e415750806001600160701b031684105b610e92576040805162461bcd60e51b815260206004820152601e60248201527f46616d6f736f3a20494e53554646494349454e545f4c49515549444954590000604482015290519081900360640190fd5b6006546007546001600160a01b03918216919081169085168214801590610ecb5750806001600160a01b0316856001600160a01b031614155b610f1c576040805162461bcd60e51b815260206004820152601a60248201527f46616d6f736f3a20494e56414c49445f544f5f41444452455353000000000000604482015290519081900360640190fd5b60008080808a15610fef57610f588b896001600160701b031601610f52896001600160701b03168e611be290919063ffffffff16565b90612094565b9050610f66868a308e611a12565b846001600160a01b031663a9059cbb8a836040518363ffffffff1660e01b815260040180836001600160a01b0316815260200182815260200192505050602060405180830381600087803b158015610fbd57600080fd5b505af1158015610fd1573d6000803e3d6000fd5b505050506040513d6020811015610fe757600080fd5b506110ac9050565b61101a8a886001600160701b031601610f528a6001600160701b03168d611be290919063ffffffff16565b9150611028858a308d611a12565b856001600160a01b031663a9059cbb8a846040518363ffffffff1660e01b815260040180836001600160a01b0316815260200182815260200192505050602060405180830381600087803b15801561107f57600080fd5b505af1158015611093573d6000803e3d6000fd5b505050506040513d60208110156110a957600080fd5b50505b604080516370a0823160e01b815230600482015290516001600160a01b038816916370a08231916024808301926020929190829003018186803b1580156110f257600080fd5b505afa158015611106573d6000803e3d6000fd5b505050506040513d602081101561111c57600080fd5b5051604080516370a0823160e01b815230600482015290519195506001600160a01b038716916370a0823191602480820192602092909190829003018186803b15801561116857600080fd5b505afa15801561117c573d6000803e3d6000fd5b505050506040513d602081101561119257600080fd5b505192506111a284848a8a611d99565b604080518c8152602081018c90528082018490526060810183905290516001600160a01b038b169133917fd78ad95fa46c994b6551d0da85fc275fe613ce37657fb8d5e3d130840159d8229181900360800190a350506001600955505050505050505050565b6001600160a01b0381166000908152602081905260409020545b919050565b600b5481565b6008546040805163e78c96ed60e01b8152336004820152905160009283926001600160a01b039091169163e78c96ed91602480820192602092909190829003018186803b15801561127d57600080fd5b505afa158015611291573d6000803e3d6000fd5b505050506040513d60208110156112a757600080fd5b5051156112e7576040805162461bcd60e51b8152602060048201526009602482015268125b8811909b1a5cdd60ba1b604482015290519081900360640190fd5b60095460011461132e576040805162461bcd60e51b815260206004820152600d60248201526c11985b5bdcdbc81313d0d2d151609a1b604482015290519081900360640190fd5b60006009556008546040805163e78c96ed60e01b815233600482015290516001600160a01b039092169163e78c96ed91602480820192602092909190829003018186803b15801561137e57600080fd5b505afa158015611392573d6000803e3d6000fd5b505050506040513d60208110156113a857600080fd5b5051156113e8576040805162461bcd60e51b8152602060048201526009602482015268125b8811909b1a5cdd60ba1b604482015290519081900360640190fd5b6000806113f361065b565b50600654600754604080516370a0823160e01b815230600482015290519496509294506001600160a01b039182169391169160009184916370a08231916024808301926020929190829003018186803b15801561144f57600080fd5b505afa158015611463573d6000803e3d6000fd5b505050506040513d602081101561147957600080fd5b5051604080516370a0823160e01b815230600482015290519192506000916001600160a01b038516916370a08231916024808301926020929190829003018186803b1580156114c757600080fd5b505afa1580156114db573d6000803e3d6000fd5b505050506040513d60208110156114f157600080fd5b50519050600061150030611208565b9050600061150c6106b2565b9050806115198386611be2565b8161152057fe5b0499508061152e8385611be2565b8161153557fe5b04985060008a1180156115485750600089115b6115835760405162461bcd60e51b81526004018080602001828103825260258152602001806122af6025913960400191505060405180910390fd5b61158d30836120fb565b856001600160a01b031663a9059cbb8c8c6040518363ffffffff1660e01b815260040180836001600160a01b0316815260200182815260200192505050602060405180830381600087803b1580156115e457600080fd5b505af11580156115f8573d6000803e3d6000fd5b505050506040513d602081101561160e57600080fd5b50506040805163a9059cbb60e01b81526001600160a01b038d81166004830152602482018c905291519187169163a9059cbb916044808201926020929091908290030181600087803b15801561166357600080fd5b505af1158015611677573d6000803e3d6000fd5b505050506040513d602081101561168d57600080fd5b5050604080516370a0823160e01b815230600482015290516001600160a01b038816916370a08231916024808301926020929190829003018186803b1580156116d557600080fd5b505afa1580156116e9573d6000803e3d6000fd5b505050506040513d60208110156116ff57600080fd5b5051604080516370a0823160e01b815230600482015290519195506001600160a01b038716916370a0823191602480820192602092909190829003018186803b15801561174b57600080fd5b505afa15801561175f573d6000803e3d6000fd5b505050506040513d602081101561177557600080fd5b5051925061178584848a8a611d99565b604080518b8152602081018b905281516001600160a01b038e169233927fdccd412f0b1252819cb1fd330b93224ca42612892bb3f4f789976e6d81936496929081900390910190a350505050505050506001600981905550915091565b60048054604080516020601f60026000196101006001881615020190951694909404938401819004810282018101909252828152606093909290918301828280156106515780601f1061062657610100808354040283529160200191610651565b6000610699611850611922565b84610b6785604051806060016040528060258152602001612387602591396001600061187a611922565b6001600160a01b03908116825260208083019390935260409182016000908120918d16815292529020549190611fa3565b60006106996118b8611922565b8484611e48565b6103e881565b60055461010090046001600160a01b031681565b6007546001600160a01b031681565b6001600160a01b03918216600090815260016020908152604080832093909416825291909152205490565b6008546001600160a01b031681565b3390565b6001600160a01b03831661196b5760405162461bcd60e51b81526004018080602001828103825260248152602001806123636024913960400191505060405180910390fd5b6001600160a01b0382166119b05760405162461bcd60e51b81526004018080602001828103825260228152602001806122676022913960400191505060405180910390fd5b6001600160a01b03808416600081815260016020908152604080832094871680845294825291829020859055815185815291517f8c5be1e5ebec7d5bd14f71427d1e84f3dd0314c0f7b2291e5b200ac8c7c3b9259281900390910190a3505050565b604080516001600160a01b0385811660248301528481166044830152606480830185905283518084039091018152608490920183526020820180516001600160e01b03166323b872dd60e01b17815292518251600094606094938a169392918291908083835b60208310611a975780518252601f199092019160209182019101611a78565b6001836020036101000a0380198251168184511680821785525050505050509050019150506000604051808303816000865af19150503d8060008114611af9576040519150601f19603f3d011682016040523d82523d6000602084013e611afe565b606091505b5091509150818015611b2c575080511580611b2c5750808060200190516020811015611b2957600080fd5b50515b611b7d576040805162461bcd60e51b815260206004820152601b60248201527f46616d6f736f3a205452414e5346455246524f4d5f4641494c45440000000000604482015290519081900360640190fd5b505050505050565b600082821115611bdc576040805162461bcd60e51b815260206004820152601e60248201527f536166654d6174683a207375627472616374696f6e206f766572666c6f770000604482015290519081900360640190fd5b50900390565b600082611bf15750600061069d565b82820282848281611bfe57fe5b0414611c3b5760405162461bcd60e51b81526004018080602001828103825260218152602001806122d46021913960400191505060405180910390fd5b9392505050565b60006003821115611c85575080600160028204015b81811015611c7f57809150600281828581611c6e57fe5b040181611c7757fe5b049050611c57565b50611222565b811561122257506001919050565b6000818310611ca25781611c3b565b5090919050565b6001600160a01b038216611d04576040805162461bcd60e51b815260206004820152601f60248201527f45524332303a206d696e7420746f20746865207a65726f206164647265737300604482015290519081900360640190fd5b611d10600083836121f7565b600254611d1d908261203a565b6002556001600160a01b038216600090815260208190526040902054611d43908261203a565b6001600160a01b0383166000818152602081815260408083209490945583518581529351929391927fddf252ad1be2c89b69c2b068fc378daa952ba7f163c4a11628f55a4df523b3ef9281900390910190a35050565b600a80546dffffffffffffffffffffffffffff19166001600160701b03868116919091176dffffffffffffffffffffffffffff60701b1916600160701b8683168102919091176001600160e01b0316600160e01b4263ffffffff169081029190911793849055604080518585168152929094049092166020820152825191927f1c411e9a96e071241c2f21f7726b17ae89e3cab4c78be50e062b03a9fffbbad192918290030190a15050505050565b6001600160a01b038316611e8d5760405162461bcd60e51b815260040180806020018281038252602581526020018061233e6025913960400191505060405180910390fd5b6001600160a01b038216611ed25760405162461bcd60e51b81526004018080602001828103825260238152602001806121fd6023913960400191505060405180910390fd5b611edd8383836121f7565b611f1a81604051806060016040528060268152602001612289602691396001600160a01b0386166000908152602081905260409020549190611fa3565b6001600160a01b038085166000908152602081905260408082209390935590841681522054611f49908261203a565b6001600160a01b038084166000818152602081815260409182902094909455805185815290519193928716927fddf252ad1be2c89b69c2b068fc378daa952ba7f163c4a11628f55a4df523b3ef92918290030190a3505050565b600081848411156120325760405162461bcd60e51b81526004018080602001828103825283818151815260200191508051906020019080838360005b83811015611ff7578181015183820152602001611fdf565b50505050905090810190601f1680156120245780820380516001836020036101000a031916815260200191505b509250505060405180910390fd5b505050900390565b600082820183811015611c3b576040805162461bcd60e51b815260206004820152601b60248201527f536166654d6174683a206164646974696f6e206f766572666c6f770000000000604482015290519081900360640190fd5b60008082116120ea576040805162461bcd60e51b815260206004820152601a60248201527f536166654d6174683a206469766973696f6e206279207a65726f000000000000604482015290519081900360640190fd5b8183816120f357fe5b049392505050565b6001600160a01b0382166121405760405162461bcd60e51b815260040180806020018281038252602181526020018061231d6021913960400191505060405180910390fd5b61214c826000836121f7565b61218981604051806060016040528060228152602001612245602291396001600160a01b0385166000908152602081905260409020549190611fa3565b6001600160a01b0383166000908152602081905260409020556002546121af9082611b85565b6002556040805182815290516000916001600160a01b038516917fddf252ad1be2c89b69c2b068fc378daa952ba7f163c4a11628f55a4df523b3ef9181900360200190a35050565b50505056fe45524332303a207472616e7366657220746f20746865207a65726f206164647265737346616d6f736f3a20494e53554646494349454e545f4c49515549444954595f4d494e54454445524332303a206275726e20616d6f756e7420657863656564732062616c616e636545524332303a20617070726f766520746f20746865207a65726f206164647265737345524332303a207472616e7366657220616d6f756e7420657863656564732062616c616e636546616d6f736f3a20494e53554646494349454e545f4c49515549444954595f4255524e4544536166654d6174683a206d756c7469706c69636174696f6e206f766572666c6f7745524332303a207472616e7366657220616d6f756e74206578636565647320616c6c6f77616e636545524332303a206275726e2066726f6d20746865207a65726f206164647265737345524332303a207472616e736665722066726f6d20746865207a65726f206164647265737345524332303a20617070726f76652066726f6d20746865207a65726f206164647265737345524332303a2064656372656173656420616c6c6f77616e63652062656c6f77207a65726fa264697066735822122057be40a15154951e999f0062057cf297f7b360e8dac0e25aa3e6c2dbf0c95f2d64736f6c63430007040033",
  "immutableReferences": {},
  "source": "// SPDX-License-Identifier: MIT\r\npragma solidity >=0.4.22 <0.9.0;\r\n\r\nimport \"@openzeppelin/contracts/math/SafeMath.sol\";\r\nimport \"@openzeppelin/contracts/token/ERC20/ERC20.sol\";\r\nimport \"./FBlist.sol\";\r\n\r\ncontract Famoso is ERC20 {\r\n    using SafeMath for uint256;\r\n\r\n    address payable public factory;\r\n    address public token0;\r\n    address public token1;\r\n    address public fblist = address(0xE57df7A127dC25A6e52Ad162d5A3Dbb4b2808231);\r\n    \r\n    uint256 private unlocked = 1;\r\n    \r\n    uint112 private reserve0;\r\n    uint112 private reserve1;\r\n    uint32 private blockTimestampLast;\r\n\r\n    uint256 public constant MINIMUM_LIQUIDITY = 10**3;\r\n    bytes4 private constant SELECTOR = bytes4(keccak256(bytes(\"transfer(address, uint256)\")));\r\n\r\n    uint public kLast;\r\n\r\n\r\n    event Mint(address indexed sender, uint256 amount0, uint256 amount1);\r\n    event Burn(address indexed sender, uint256 amount0, uint256 amount1, address indexed to);\r\n    event Swap(address indexed sender, uint256 amount0In, uint256 amount1In, uint256 amount0Out, uint256 amount1Out, address indexed to);\r\n    event Sync(uint112 reserve0, uint112 reserve1);\r\n\r\n    constructor() ERC20(\"Famoso\", \"FMST\") {}\r\n\r\n    function initialize(address _token0, address _token1) external {\r\n        // require(msg.sender == factory, \"Famoso: FORBIDDEN\");\r\n        token0 = _token0;\r\n        token1 = _token1;\r\n    }\r\n\r\n    modifier lock() { \r\n        require(FBlist(fblist).inlist(msg.sender) == 0, \"In FBlist\");\r\n        require(unlocked == 1, \"Famoso LOCKED\");\r\n        unlocked = 0;\r\n        _;\r\n        unlocked = 1;\r\n    }\r\n\r\n    function getReserves() public view returns ( uint112 _reserve0, uint112 _reserve1, uint32 _blockTimestampLast )\r\n    {\r\n        _reserve0 = reserve0;\r\n        _reserve1 = reserve1;\r\n        _blockTimestampLast = blockTimestampLast;\r\n    }\r\n\r\n    function add(uint256 x, uint256 y) internal pure returns (uint256 z) {\r\n        require((z = x + y) >= x, \"ds-math-add-overflow\");\r\n    }\r\n\r\n    function sub(uint256 x, uint256 y) internal pure returns (uint256 z) {\r\n        require((z = x - y) <= x, \"ds-math-sub-underflow\");\r\n    }\r\n\r\n    function mul(uint256 x, uint256 y) internal pure returns (uint256 z) {\r\n        require(y == 0 || (z = x * y) / y == x, \"ds-math-mul-overflow\");\r\n    }\r\n\r\n    function min(uint256 x, uint256 y) internal pure returns (uint256 z) {\r\n        z = x < y ? x : y;\r\n    }\r\n\r\n    function sqrt(uint256 y) internal pure returns (uint256 z) {\r\n        if (y > 3) {\r\n            z = y;\r\n            uint256 x = y / 2 + 1;\r\n            while (x < z) {\r\n                z = x;\r\n                x = (y / x + x) / 2;\r\n            }\r\n        } else if (y != 0) {\r\n            z = 1;\r\n        }\r\n    }\r\n\r\n    function safeTokenTransferFrom( address token, address from, address to, uint256 value ) private {\r\n        (bool success, bytes memory data) = token.call( abi.encodeWithSelector(0x23b872dd, from, to, value) );\r\n        require( success && (data.length == 0 || abi.decode(data, (bool))), \"Famoso: TRANSFERFROM_FAILED\" );\r\n    }\r\n\r\n    // update reserves and, on the first call per block, price accumulators\r\n    function _update( uint256 balance0, uint256 balance1, uint112 _reserve0, uint112 _reserve1 ) private {\r\n        // require( balance0 <= uint112(-1) && balance1 <= uint112(-1), \"Famoso: OVERFLOW\" );\r\n        uint32 blockTimestamp = uint32(block.timestamp % 2**32);\r\n        reserve0 = uint112(balance0);\r\n        reserve1 = uint112(balance1);\r\n        blockTimestampLast = blockTimestamp;\r\n        emit Sync(reserve0, reserve1);\r\n    }\r\n\r\n    function mintToken(address to, uint amount0, uint amount1) external lock returns (uint256 liquidity) {\r\n        require(FBlist(fblist).inlist(msg.sender) == 0, \"In FBlist\");\r\n        (uint112 _reserve0, uint112 _reserve1,) = getReserves();\r\n        safeTokenTransferFrom(token0, to, address(this), amount0);\r\n        safeTokenTransferFrom(token1, to, address(this), amount1);\r\n\r\n        uint256 balance0 = ERC20(token0).balanceOf(address(this));\r\n        uint256 balance1 = ERC20(token1).balanceOf(address(this));\r\n        uint256 amount0 = balance0.sub(_reserve0);\r\n        uint256 amount1 = balance1.sub(_reserve1);\r\n\r\n        uint256 _totalSupply = totalSupply();\r\n\r\n        if (_totalSupply == 0) {\r\n            liquidity = sqrt(amount0.mul(amount1)).sub(MINIMUM_LIQUIDITY);\r\n            // _mint(address(0), MINIMUM_LIQUIDITY);\r\n        } else {\r\n            liquidity = min( amount0.mul(_totalSupply) / _reserve0, amount1.mul(_totalSupply) / _reserve1 );\r\n        }\r\n        require(liquidity > 0, \"Famoso: INSUFFICIENT_LIQUIDITY_MINTED\");\r\n        _mint(to, liquidity);\r\n\r\n        _update(balance0, balance1, _reserve0, _reserve1);\r\n        emit Mint(msg.sender, amount0, amount1);\r\n    }\r\n\r\n    function burn(address to) external lock returns (uint amount0, uint amount1) {\r\n        require(FBlist(fblist).inlist(msg.sender) == 0, \"In FBlist\");\r\n        (uint112 _reserve0, uint112 _reserve1,) = getReserves(); // gas savings\r\n        address _token0 = token0;                                // gas savings\r\n        address _token1 = token1;                                // gas savings\r\n        uint balance0 = ERC20(_token0).balanceOf(address(this));\r\n        uint balance1 = ERC20(_token1).balanceOf(address(this));\r\n        uint liquidity = balanceOf(address(this));\r\n\r\n        uint _totalSupply = totalSupply(); // gas savings, must be defined here since totalSupply can update in _mintFee\r\n        amount0 = liquidity.mul(balance0) / _totalSupply; // using balances ensures pro-rata distribution\r\n        amount1 = liquidity.mul(balance1) / _totalSupply; // using balances ensures pro-rata distribution\r\n        require(amount0 > 0 && amount1 > 0, 'Famoso: INSUFFICIENT_LIQUIDITY_BURNED');\r\n        _burn(address(this), liquidity);\r\n        ERC20(_token0).transfer(to, amount0);\r\n        ERC20(_token1).transfer(to, amount1);\r\n        balance0 = ERC20(_token0).balanceOf(address(this));\r\n        balance1 = ERC20(_token1).balanceOf(address(this));\r\n\r\n        _update(balance0, balance1, _reserve0, _reserve1);\r\n        emit Burn(msg.sender, amount0, amount1, to);\r\n    }\r\n\r\n    function swap(uint amount0In, uint amount1In, address to) external lock {\r\n        require(FBlist(fblist).inlist(msg.sender) == 0, \"In FBlist\");\r\n        require(amount0In > 0 || amount1In > 0, 'Famoso: INSUFFICIENT_IN_AMOUNT');\r\n        (uint112 _reserve0, uint112 _reserve1,) = getReserves(); // gas savings\r\n        require(amount0In < _reserve0 && amount1In < _reserve1, 'Famoso: INSUFFICIENT_LIQUIDITY');\r\n        address _token0 = token0;\r\n        address _token1 = token1;\r\n        require(to != _token0 && to != _token1, 'Famoso: INVALID_TO_ADDRESS');\r\n\r\n        uint balance0;\r\n        uint balance1;\r\n        uint amount0Out;\r\n        uint amount1Out;\r\n        if (amount0In > 0) {\r\n            amount1Out = amount0In.mul(_reserve1).div(_reserve0 + amount0In);\r\n            safeTokenTransferFrom(_token0, to, address(this), amount0In);\r\n            ERC20(_token1).transfer(to, amount1Out);\r\n        } else {\r\n            amount0Out = amount1In.mul(_reserve0).div(_reserve1 + amount1In);\r\n            safeTokenTransferFrom(_token1, to, address(this), amount1In);\r\n            ERC20(_token0).transfer(to, amount0Out);\r\n        }\r\n        balance0 = ERC20(_token0).balanceOf(address(this));\r\n        balance1 = ERC20(_token1).balanceOf(address(this));\r\n\r\n        _update(balance0, balance1, _reserve0, _reserve1);\r\n        emit Swap(msg.sender, amount0In, amount1In, amount0Out, amount1Out, to);\r\n    }\r\n\r\n    receive () external payable {} \r\n}\r\n",
  "sourcePath": "F:\\uniswap\\famoso\\contracts\\Famoso.sol",
  "compiler": {
    "name": "solc",
    "version": "0.7.4+commit.3f05b770.Emscripten.clang"
  },
  "schemaVersion": "3.4.2",
  "updatedAt": "2021-10-08T19:07:47.354Z",
  "networkType": "ethereum",
  "devdoc": {
    "kind": "dev",
    "methods": {
      "allowance(address,address)": {
        "details": "See {IERC20-allowance}."
      },
      "approve(address,uint256)": {
        "details": "See {IERC20-approve}. Requirements: - `spender` cannot be the zero address."
      },
      "balanceOf(address)": {
        "details": "See {IERC20-balanceOf}."
      },
      "decimals()": {
        "details": "Returns the number of decimals used to get its user representation. For example, if `decimals` equals `2`, a balance of `505` tokens should be displayed to a user as `5,05` (`505 / 10 ** 2`). Tokens usually opt for a value of 18, imitating the relationship between Ether and Wei. This is the value {ERC20} uses, unless {_setupDecimals} is called. NOTE: This information is only used for _display_ purposes: it in no way affects any of the arithmetic of the contract, including {IERC20-balanceOf} and {IERC20-transfer}."
      },
      "decreaseAllowance(address,uint256)": {
        "details": "Atomically decreases the allowance granted to `spender` by the caller. This is an alternative to {approve} that can be used as a mitigation for problems described in {IERC20-approve}. Emits an {Approval} event indicating the updated allowance. Requirements: - `spender` cannot be the zero address. - `spender` must have allowance for the caller of at least `subtractedValue`."
      },
      "increaseAllowance(address,uint256)": {
        "details": "Atomically increases the allowance granted to `spender` by the caller. This is an alternative to {approve} that can be used as a mitigation for problems described in {IERC20-approve}. Emits an {Approval} event indicating the updated allowance. Requirements: - `spender` cannot be the zero address."
      },
      "name()": {
        "details": "Returns the name of the token."
      },
      "symbol()": {
        "details": "Returns the symbol of the token, usually a shorter version of the name."
      },
      "totalSupply()": {
        "details": "See {IERC20-totalSupply}."
      },
      "transfer(address,uint256)": {
        "details": "See {IERC20-transfer}. Requirements: - `recipient` cannot be the zero address. - the caller must have a balance of at least `amount`."
      },
      "transferFrom(address,address,uint256)": {
        "details": "See {IERC20-transferFrom}. Emits an {Approval} event indicating the updated allowance. This is not required by the EIP. See the note at the beginning of {ERC20}. Requirements: - `sender` and `recipient` cannot be the zero address. - `sender` must have a balance of at least `amount`. - the caller must have allowance for ``sender``'s tokens of at least `amount`."
      }
    },
    "version": 1
  },
  "userdoc": {
    "kind": "user",
    "methods": {},
    "version": 1
  }
}