{
  "contractName": "Auction_Marketplace",
  "abi": [
    {
      "inputs": [],
      "stateMutability": "nonpayable",
      "type": "constructor"
    },
    {
      "anonymous": false,
      "inputs": [
        {
          "indexed": false,
          "internalType": "bytes32",
          "name": "id",
          "type": "bytes32"
        }
      ],
      "name": "BidAccepted",
      "type": "event"
    },
    {
      "anonymous": false,
      "inputs": [
        {
          "indexed": false,
          "internalType": "bytes32",
          "name": "id",
          "type": "bytes32"
        }
      ],
      "name": "BidCancelled",
      "type": "event"
    },
    {
      "anonymous": false,
      "inputs": [
        {
          "indexed": false,
          "internalType": "bytes32",
          "name": "id",
          "type": "bytes32"
        },
        {
          "indexed": false,
          "internalType": "address",
          "name": "seller",
          "type": "address"
        },
        {
          "indexed": true,
          "internalType": "address",
          "name": "nftAddress",
          "type": "address"
        },
        {
          "indexed": true,
          "internalType": "uint256",
          "name": "assetId",
          "type": "uint256"
        },
        {
          "indexed": true,
          "internalType": "address",
          "name": "bidder",
          "type": "address"
        },
        {
          "indexed": false,
          "internalType": "string",
          "name": "tokenSymbol",
          "type": "string"
        },
        {
          "indexed": false,
          "internalType": "uint256",
          "name": "price",
          "type": "uint256"
        },
        {
          "indexed": false,
          "internalType": "uint256",
          "name": "expiresAt",
          "type": "uint256"
        }
      ],
      "name": "BidCreated",
      "type": "event"
    },
    {
      "anonymous": false,
      "inputs": [
        {
          "indexed": false,
          "internalType": "uint256",
          "name": "cutPerMillion",
          "type": "uint256"
        }
      ],
      "name": "ChangedFeePerMillion",
      "type": "event"
    },
    {
      "anonymous": false,
      "inputs": [
        {
          "indexed": false,
          "internalType": "bytes32",
          "name": "id",
          "type": "bytes32"
        }
      ],
      "name": "OrderCancelled",
      "type": "event"
    },
    {
      "anonymous": false,
      "inputs": [
        {
          "indexed": false,
          "internalType": "bytes32",
          "name": "id",
          "type": "bytes32"
        },
        {
          "indexed": true,
          "internalType": "address",
          "name": "seller",
          "type": "address"
        },
        {
          "indexed": true,
          "internalType": "address",
          "name": "nftAddress",
          "type": "address"
        },
        {
          "indexed": false,
          "internalType": "string",
          "name": "tokenSymbol",
          "type": "string"
        },
        {
          "indexed": true,
          "internalType": "uint256",
          "name": "assetId",
          "type": "uint256"
        },
        {
          "indexed": false,
          "internalType": "uint256",
          "name": "priceInWei",
          "type": "uint256"
        },
        {
          "indexed": false,
          "internalType": "uint256",
          "name": "expiresAt",
          "type": "uint256"
        }
      ],
      "name": "OrderCreated",
      "type": "event"
    },
    {
      "anonymous": false,
      "inputs": [
        {
          "indexed": false,
          "internalType": "bytes32",
          "name": "id",
          "type": "bytes32"
        },
        {
          "indexed": false,
          "internalType": "address",
          "name": "seller",
          "type": "address"
        },
        {
          "indexed": false,
          "internalType": "address",
          "name": "buyer",
          "type": "address"
        },
        {
          "indexed": true,
          "internalType": "address",
          "name": "nftAddress",
          "type": "address"
        },
        {
          "indexed": true,
          "internalType": "uint256",
          "name": "assetId",
          "type": "uint256"
        },
        {
          "indexed": false,
          "internalType": "string",
          "name": "tokenSymbol",
          "type": "string"
        },
        {
          "indexed": false,
          "internalType": "uint256",
          "name": "priceInWei",
          "type": "uint256"
        },
        {
          "indexed": false,
          "internalType": "uint256",
          "name": "timestamp",
          "type": "uint256"
        }
      ],
      "name": "OrderSuccessful",
      "type": "event"
    },
    {
      "anonymous": false,
      "inputs": [
        {
          "indexed": false,
          "internalType": "bytes32",
          "name": "id",
          "type": "bytes32"
        },
        {
          "indexed": false,
          "internalType": "string",
          "name": "tokenSymbol",
          "type": "string"
        },
        {
          "indexed": false,
          "internalType": "uint256",
          "name": "price",
          "type": "uint256"
        },
        {
          "indexed": false,
          "internalType": "uint256",
          "name": "expiresAt",
          "type": "uint256"
        }
      ],
      "name": "OrderUpdated",
      "type": "event"
    },
    {
      "anonymous": false,
      "inputs": [
        {
          "indexed": true,
          "internalType": "address",
          "name": "previousOwner",
          "type": "address"
        },
        {
          "indexed": true,
          "internalType": "address",
          "name": "newOwner",
          "type": "address"
        }
      ],
      "name": "OwnershipTransferred",
      "type": "event"
    },
    {
      "inputs": [],
      "name": "_INTERFACE_ID_ERC721",
      "outputs": [
        {
          "internalType": "bytes4",
          "name": "",
          "type": "bytes4"
        }
      ],
      "stateMutability": "view",
      "type": "function"
    },
    {
      "inputs": [
        {
          "internalType": "uint256",
          "name": "",
          "type": "uint256"
        }
      ],
      "name": "acceptedTokensSymbols",
      "outputs": [
        {
          "internalType": "string",
          "name": "",
          "type": "string"
        }
      ],
      "stateMutability": "view",
      "type": "function"
    },
    {
      "inputs": [],
      "name": "cutPerMillion",
      "outputs": [
        {
          "internalType": "uint256",
          "name": "",
          "type": "uint256"
        }
      ],
      "stateMutability": "view",
      "type": "function"
    },
    {
      "inputs": [],
      "name": "maxCutPerMillion",
      "outputs": [
        {
          "internalType": "uint256",
          "name": "",
          "type": "uint256"
        }
      ],
      "stateMutability": "view",
      "type": "function"
    },
    {
      "inputs": [],
      "name": "owner",
      "outputs": [
        {
          "internalType": "address",
          "name": "",
          "type": "address"
        }
      ],
      "stateMutability": "view",
      "type": "function"
    },
    {
      "inputs": [],
      "name": "renounceOwnership",
      "outputs": [],
      "stateMutability": "nonpayable",
      "type": "function"
    },
    {
      "inputs": [
        {
          "internalType": "uint256",
          "name": "_cutPerMillion",
          "type": "uint256"
        }
      ],
      "name": "setOwnerCutPerMillion",
      "outputs": [],
      "stateMutability": "nonpayable",
      "type": "function"
    },
    {
      "inputs": [
        {
          "internalType": "address",
          "name": "newOwner",
          "type": "address"
        }
      ],
      "name": "transferOwnership",
      "outputs": [],
      "stateMutability": "nonpayable",
      "type": "function"
    },
    {
      "inputs": [
        {
          "internalType": "address",
          "name": "_nftAddress",
          "type": "address"
        },
        {
          "internalType": "uint256",
          "name": "_assetId",
          "type": "uint256"
        }
      ],
      "name": "getBid",
      "outputs": [
        {
          "internalType": "bytes32",
          "name": "id",
          "type": "bytes32"
        },
        {
          "internalType": "address",
          "name": "bidder",
          "type": "address"
        },
        {
          "internalType": "string",
          "name": "tokenSymbol",
          "type": "string"
        },
        {
          "internalType": "uint256",
          "name": "price",
          "type": "uint256"
        }
      ],
      "stateMutability": "view",
      "type": "function"
    },
    {
      "inputs": [
        {
          "internalType": "address",
          "name": "_nftAddress",
          "type": "address"
        },
        {
          "internalType": "uint256",
          "name": "_assetId",
          "type": "uint256"
        },
        {
          "internalType": "string",
          "name": "_tokenSymbol",
          "type": "string"
        },
        {
          "internalType": "uint256",
          "name": "_price",
          "type": "uint256"
        },
        {
          "internalType": "uint256",
          "name": "_expiresAt",
          "type": "uint256"
        }
      ],
      "name": "createOrder",
      "outputs": [
        {
          "internalType": "bytes32",
          "name": "",
          "type": "bytes32"
        }
      ],
      "stateMutability": "nonpayable",
      "type": "function"
    },
    {
      "inputs": [
        {
          "internalType": "address",
          "name": "_nftAddress",
          "type": "address"
        },
        {
          "internalType": "uint256",
          "name": "_assetId",
          "type": "uint256"
        }
      ],
      "name": "cancelOrder",
      "outputs": [],
      "stateMutability": "nonpayable",
      "type": "function"
    },
    {
      "inputs": [
        {
          "internalType": "address",
          "name": "_nftAddress",
          "type": "address"
        },
        {
          "internalType": "uint256",
          "name": "_assetId",
          "type": "uint256"
        },
        {
          "internalType": "string",
          "name": "_tokenSymbol",
          "type": "string"
        },
        {
          "internalType": "uint256",
          "name": "_price",
          "type": "uint256"
        },
        {
          "internalType": "uint256",
          "name": "_expiresAt",
          "type": "uint256"
        }
      ],
      "name": "safePlaceBid",
      "outputs": [],
      "stateMutability": "nonpayable",
      "type": "function"
    },
    {
      "inputs": [
        {
          "internalType": "address",
          "name": "_nftAddress",
          "type": "address"
        },
        {
          "internalType": "uint256",
          "name": "_assetId",
          "type": "uint256"
        }
      ],
      "name": "cancelBid",
      "outputs": [],
      "stateMutability": "nonpayable",
      "type": "function"
    },
    {
      "inputs": [
        {
          "internalType": "address",
          "name": "_nftAddress",
          "type": "address"
        },
        {
          "internalType": "uint256",
          "name": "_assetId",
          "type": "uint256"
        }
      ],
      "name": "acceptBid",
      "outputs": [],
      "stateMutability": "nonpayable",
      "type": "function"
    },
    {
      "inputs": [
        {
          "internalType": "address",
          "name": "acceptedTokenAddress",
          "type": "address"
        },
        {
          "internalType": "string",
          "name": "acceptedTokenSymbol",
          "type": "string"
        }
      ],
      "name": "addAcceptedToken",
      "outputs": [
        {
          "internalType": "bool",
          "name": "",
          "type": "bool"
        }
      ],
      "stateMutability": "nonpayable",
      "type": "function"
    },
    {
      "inputs": [],
      "name": "getTokenSymbols",
      "outputs": [
        {
          "internalType": "string[]",
          "name": "",
          "type": "string[]"
        }
      ],
      "stateMutability": "view",
      "type": "function"
    },
    {
      "inputs": [
        {
          "internalType": "string",
          "name": "tokenSymbol",
          "type": "string"
        }
      ],
      "name": "getTokenAddress",
      "outputs": [
        {
          "internalType": "address",
          "name": "",
          "type": "address"
        }
      ],
      "stateMutability": "view",
      "type": "function"
    },
    {
      "inputs": [
        {
          "internalType": "address",
          "name": "",
          "type": "address"
        },
        {
          "internalType": "address",
          "name": "",
          "type": "address"
        },
        {
          "internalType": "uint256",
          "name": "",
          "type": "uint256"
        },
        {
          "internalType": "bytes",
          "name": "",
          "type": "bytes"
        }
      ],
      "name": "onERC721Received",
      "outputs": [
        {
          "internalType": "bytes4",
          "name": "",
          "type": "bytes4"
        }
      ],
      "stateMutability": "nonpayable",
      "type": "function"
    }
  ],
  "bytecode": "0x60806040526161a86001556040518060400160405280600481526020017f4349464900000000000000000000000000000000000000000000000000000000815250600290805190602001906200005792919062000172565b506040518060400160405280600381526020017f424e42000000000000000000000000000000000000000000000000000000000081525060039080519060200190620000a592919062000172565b50348015620000b357600080fd5b506000620000c66200016a60201b60201c565b9050806000806101000a81548173ffffffffffffffffffffffffffffffffffffffff021916908373ffffffffffffffffffffffffffffffffffffffff1602179055508073ffffffffffffffffffffffffffffffffffffffff16600073ffffffffffffffffffffffffffffffffffffffff167f8be0079c531659141344cd1fd0a4f28419497f9722a3daafe3b4186f6b6457e060405160405180910390a35062000228565b600033905090565b828054600181600116156101000203166002900490600052602060002090601f016020900481019282620001aa5760008555620001f6565b82601f10620001c557805160ff1916838001178555620001f6565b82800160010185558215620001f6579182015b82811115620001f5578251825591602001919060010190620001d8565b5b50905062000205919062000209565b5090565b5b80821115620002245760008160009055506001016200020a565b5090565b61514080620002386000396000f3fe608060405234801561001057600080fd5b50600436106101165760003560e01c8063715018a6116100a2578063c409123611610071578063c4091236146102e2578063c555e05014610312578063dece685414610330578063eac1b7881461034e578063f2fde38b1461036a57610116565b8063715018a61461026e57806384c6c273146102785780638da5cb5b146102a8578063955a5a76146102c657610116565b806319dad16d116100e957806319dad16d146101cc578063304149d8146101e857806339b6b1e514610218578063673c8553146102345780636a2061371461025257610116565b806302d5e6951461011b57806305b938161461014b578063150b7a021461016957806316ab2b0314610199575b600080fd5b610135600480360381019061013091906142d8565b610386565b6040516101429190614c37565b60405180910390f35b610153610442565b6040516101609190614a6a565b60405180910390f35b610183600480360381019061017e91906140d4565b61052b565b6040516101909190614c1c565b60405180910390f35b6101b360048036038101906101ae91906141a3565b61053f565b6040516101c39493929190614b2a565b60405180910390f35b6101e660048036038101906101e191906142d8565b6106e7565b005b61020260048036038101906101fd919061414f565b610834565b60405161020f9190614a8c565b60405180910390f35b610232600480360381019061022d91906141a3565b610988565b005b61023c610bc1565b6040516102499190614db9565b60405180910390f35b61026c600480360381019061026791906141a3565b610bc7565b005b610276610fbe565b005b610292600480360381019061028d91906141df565b61112b565b60405161029f9190614aa7565b60405180910390f35b6102b0611145565b6040516102bd91906149b8565b60405180910390f35b6102e060048036038101906102db91906141a3565b61116e565b005b6102fc60048036038101906102f79190614297565b611f22565b60405161030991906149b8565b60405180910390f35b61031a611f6a565b6040516103279190614db9565b60405180910390f35b610338611f71565b6040516103459190614c1c565b60405180910390f35b610368600480360381019061036391906141df565b611f7c565b005b610384600480360381019061037f9190614082565b611f90565b005b6007818154811061039657600080fd5b906000526020600020016000915090508054600181600116156101000203166002900480601f01602080910402602001604051908101604052809291908181526020018280546001816001161561010002031660029004801561043a5780601f1061040f5761010080835404028352916020019161043a565b820191906000526020600020905b81548152906001019060200180831161041d57829003601f168201915b505050505081565b60606007805480602002602001604051908101604052809291908181526020016000905b82821015610522578382906000526020600020018054600181600116156101000203166002900480601f01602080910402602001604051908101604052809291908181526020018280546001816001161561010002031660029004801561050e5780601f106104e35761010080835404028352916020019161050e565b820191906000526020600020905b8154815290600101906020018083116104f157829003601f168201915b505050505081526020019060010190610466565b50505050905090565b600063150b7a0260e01b9050949350505050565b6000806060600061054e613dca565b600560008873ffffffffffffffffffffffffffffffffffffffff1673ffffffffffffffffffffffffffffffffffffffff16815260200190815260200160002060008781526020019081526020016000206040518060a0016040529081600082015481526020016001820160009054906101000a900473ffffffffffffffffffffffffffffffffffffffff1673ffffffffffffffffffffffffffffffffffffffff1673ffffffffffffffffffffffffffffffffffffffff168152602001600282018054600181600116156101000203166002900480601f0160208091040260200160405190810160405280929190818152602001828054600181600116156101000203166002900480156106a25780601f10610677576101008083540402835291602001916106a2565b820191906000526020600020905b81548152906001019060200180831161068557829003601f168201915b50505050508152602001600382015481526020016004820154815250509050806000015194508060200151935080604001519250806060015191505092959194509250565b6106ef612182565b73ffffffffffffffffffffffffffffffffffffffff1661070d611145565b73ffffffffffffffffffffffffffffffffffffffff1614610796576040517f08c379a00000000000000000000000000000000000000000000000000000000081526004018080602001828103825260208152602001807f4f776e61626c653a2063616c6c6572206973206e6f7420746865206f776e657281525060200191505060405180910390fd5b620186a081106107f1576040517f08c379a00000000000000000000000000000000000000000000000000000000081526004018080602001828103825260368152602001806150d56036913960400191505060405180910390fd5b806001819055507fdb629698afb23c88e17ec4d29f97b3907c3e1fbfd116fa15f97569c7c16b3e4d6001546040518082815260200191505060405180910390a150565b600061083e612182565b73ffffffffffffffffffffffffffffffffffffffff1661085c611145565b73ffffffffffffffffffffffffffffffffffffffff16146108e5576040517f08c379a00000000000000000000000000000000000000000000000000000000081526004018080602001828103825260208152602001807f4f776e61626c653a2063616c6c6572206973206e6f7420746865206f776e657281525060200191505060405180910390fd5b826006836040516108f691906148d6565b908152602001604051809103902060006101000a81548173ffffffffffffffffffffffffffffffffffffffff021916908373ffffffffffffffffffffffffffffffffffffffff16021790555060078290806001815401808255809150506001900390600052602060002001600090919091909150908051906020019061097d929190613e12565b506001905092915050565b610990613dca565b600560008473ffffffffffffffffffffffffffffffffffffffff1673ffffffffffffffffffffffffffffffffffffffff16815260200190815260200160002060008381526020019081526020016000206040518060a0016040529081600082015481526020016001820160009054906101000a900473ffffffffffffffffffffffffffffffffffffffff1673ffffffffffffffffffffffffffffffffffffffff1673ffffffffffffffffffffffffffffffffffffffff168152602001600282018054600181600116156101000203166002900480601f016020809104026020016040519081016040528092919081815260200182805460018160011615610100020316600290048015610ae45780601f10610ab957610100808354040283529160200191610ae4565b820191906000526020600020905b815481529060010190602001808311610ac757829003601f168201915b505050505081526020016003820154815260200160048201548152505090503373ffffffffffffffffffffffffffffffffffffffff16816020015173ffffffffffffffffffffffffffffffffffffffff161480610b735750610b44611145565b73ffffffffffffffffffffffffffffffffffffffff163373ffffffffffffffffffffffffffffffffffffffff16145b610bb2576040517f08c379a0000000000000000000000000000000000000000000000000000000008152600401610ba990614c99565b60405180910390fd5b610bbc838361218a565b505050565b60015481565b610bcf613ea0565b600460008473ffffffffffffffffffffffffffffffffffffffff1673ffffffffffffffffffffffffffffffffffffffff16815260200190815260200160002060008381526020019081526020016000206040518060e0016040529081600082015481526020016001820160009054906101000a900473ffffffffffffffffffffffffffffffffffffffff1673ffffffffffffffffffffffffffffffffffffffff1673ffffffffffffffffffffffffffffffffffffffff1681526020016002820160009054906101000a900473ffffffffffffffffffffffffffffffffffffffff1673ffffffffffffffffffffffffffffffffffffffff1673ffffffffffffffffffffffffffffffffffffffff16815260200160038201548152602001600482018054600181600116156101000203166002900480601f016020809104026020016040519081016040528092919081815260200182805460018160011615610100020316600290048015610d835780601f10610d5857610100808354040283529160200191610d83565b820191906000526020600020905b815481529060010190602001808311610d6657829003601f168201915b505050505081526020016005820154815260200160068201548152505090503373ffffffffffffffffffffffffffffffffffffffff16816020015173ffffffffffffffffffffffffffffffffffffffff1614610e14576040517f08c379a0000000000000000000000000000000000000000000000000000000008152600401610e0b90614d19565b60405180910390fd5b610e1c613dca565b600560008573ffffffffffffffffffffffffffffffffffffffff1673ffffffffffffffffffffffffffffffffffffffff16815260200190815260200160002060008481526020019081526020016000206040518060a0016040529081600082015481526020016001820160009054906101000a900473ffffffffffffffffffffffffffffffffffffffff1673ffffffffffffffffffffffffffffffffffffffff1673ffffffffffffffffffffffffffffffffffffffff168152602001600282018054600181600116156101000203166002900480601f016020809104026020016040519081016040528092919081815260200182805460018160011615610100020316600290048015610f705780601f10610f4557610100808354040283529160200191610f70565b820191906000526020600020905b815481529060010190602001808311610f5357829003601f168201915b505050505081526020016003820154815260200160048201548152505090506000801b816000015114610fa857610fa7848461218a565b5b610fb882600001518585336125cd565b50505050565b610fc6612182565b73ffffffffffffffffffffffffffffffffffffffff16610fe4611145565b73ffffffffffffffffffffffffffffffffffffffff161461106d576040517f08c379a00000000000000000000000000000000000000000000000000000000081526004018080602001828103825260208152602001807f4f776e61626c653a2063616c6c6572206973206e6f7420746865206f776e657281525060200191505060405180910390fd5b600073ffffffffffffffffffffffffffffffffffffffff1660008054906101000a900473ffffffffffffffffffffffffffffffffffffffff1673ffffffffffffffffffffffffffffffffffffffff167f8be0079c531659141344cd1fd0a4f28419497f9722a3daafe3b4186f6b6457e060405160405180910390a360008060006101000a81548173ffffffffffffffffffffffffffffffffffffffff021916908373ffffffffffffffffffffffffffffffffffffffff160217905550565b600061113a868686868661274a565b905095945050505050565b60008060009054906101000a900473ffffffffffffffffffffffffffffffffffffffff16905090565b611176613ea0565b6111808383612b8f565b90503373ffffffffffffffffffffffffffffffffffffffff16816020015173ffffffffffffffffffffffffffffffffffffffff16146111f4576040517f08c379a00000000000000000000000000000000000000000000000000000000081526004016111eb90614d19565b60405180910390fd5b6111fc613dca565b600560008573ffffffffffffffffffffffffffffffffffffffff1673ffffffffffffffffffffffffffffffffffffffff16815260200190815260200160002060008481526020019081526020016000206040518060a0016040529081600082015481526020016001820160009054906101000a900473ffffffffffffffffffffffffffffffffffffffff1673ffffffffffffffffffffffffffffffffffffffff1673ffffffffffffffffffffffffffffffffffffffff168152602001600282018054600181600116156101000203166002900480601f0160208091040260200160405190810160405280929190818152602001828054600181600116156101000203166002900480156113505780601f1061132557610100808354040283529160200191611350565b820191906000526020600020905b81548152906001019060200180831161133357829003601f168201915b5050505050815260200160038201548152602001600482015481525050905042816080015110156113b6576040517f08c379a00000000000000000000000000000000000000000000000000000000081526004016113ad90614d59565b60405180910390fd5b600560008573ffffffffffffffffffffffffffffffffffffffff1673ffffffffffffffffffffffffffffffffffffffff16815260200190815260200160002060008481526020019081526020016000206000808201600090556001820160006101000a81549073ffffffffffffffffffffffffffffffffffffffff02191690556002820160006114469190613f0c565b6003820160009055600482016000905550507ff8c7d5572fa269efc040934ae7553d57f8906bffd616254bef0b94e2b569e416816000015160405161148b9190614aa7565b60405180910390a1600080600684608001516040516114aa91906148d6565b908152602001604051809103902060009054906101000a900473ffffffffffffffffffffffffffffffffffffffff169050600081905060008773ffffffffffffffffffffffffffffffffffffffff166301ffc9a7630760a14c60e01b6040518263ffffffff1660e01b81526004016115229190614c1c565b60206040518083038186803b15801561153a57600080fd5b505afa15801561154e573d6000803e3d6000fd5b505050506040513d601f19601f82011682018060405250810190611572919061426e565b1561184c5760008873ffffffffffffffffffffffffffffffffffffffff1663caa47fbf896040518263ffffffff1660e01b81526004016115b29190614db9565b60206040518083038186803b1580156115ca57600080fd5b505afa1580156115de573d6000803e3d6000fd5b505050506040513d601f19601f8201168201806040525081019061160291906140ab565b905060008973ffffffffffffffffffffffffffffffffffffffff16639e4c01418a6040518263ffffffff1660e01b815260040161163f9190614db9565b60206040518083038186803b15801561165757600080fd5b505afa15801561166b573d6000803e3d6000fd5b505050506040513d601f19601f8201168201806040525081019061168f9190614301565b90506116bd620f42406116af838a60600151612e0190919063ffffffff16565b612e8790919063ffffffff16565b9250611767886080015160038054600181600116156101000203166002900480601f01602080910402602001604051908101604052809291908181526020018280546001816001161561010002031660029004801561175d5780601f106117325761010080835404028352916020019161175d565b820191906000526020600020905b81548152906001019060200180831161174057829003601f168201915b5050505050612f10565b156117b8578173ffffffffffffffffffffffffffffffffffffffff166108fc849081150290604051600060405180830381858888f193505050501580156117b2573d6000803e3d6000fd5b50611849565b8373ffffffffffffffffffffffffffffffffffffffff166323b872dd3084866040518463ffffffff1660e01b81526004016117f593929190614a0a565b602060405180830381600087803b15801561180f57600080fd5b505af1158015611823573d6000803e3d6000fd5b505050506040513d601f19601f82011682018060405250810190611847919061426e565b505b50505b60006001541115611b7d57611885620f42406118776001548860600151612e0190919063ffffffff16565b612e8790919063ffffffff16565b935061192f866080015160028054600181600116156101000203166002900480601f0160208091040260200160405190810160405280929190818152602001828054600181600116156101000203166002900480156119255780601f106118fa57610100808354040283529160200191611925565b820191906000526020600020905b81548152906001019060200180831161190857829003601f168201915b5050505050612f10565b156119e3578173ffffffffffffffffffffffffffffffffffffffff166323b872dd30611959611145565b61196d600389612e8790919063ffffffff16565b6040518463ffffffff1660e01b815260040161198b93929190614a0a565b602060405180830381600087803b1580156119a557600080fd5b505af11580156119b9573d6000803e3d6000fd5b505050506040513d601f19601f820116820180604052508101906119dd919061426e565b50611b7c565b611a8b866080015160038054600181600116156101000203166002900480601f016020809104026020016040519081016040528092919081815260200182805460018160011615610100020316600290048015611a815780601f10611a5657610100808354040283529160200191611a81565b820191906000526020600020905b815481529060010190602001808311611a6457829003601f168201915b5050505050612f10565b15611ae357611a98611145565b73ffffffffffffffffffffffffffffffffffffffff166108fc859081150290604051600060405180830381858888f19350505050158015611add573d6000803e3d6000fd5b50611b7b565b8173ffffffffffffffffffffffffffffffffffffffff166323b872dd30611b08611145565b876040518463ffffffff1660e01b8152600401611b2793929190614a0a565b602060405180830381600087803b158015611b4157600080fd5b505af1158015611b55573d6000803e3d6000fd5b505050506040513d601f19601f82011682018060405250810190611b79919061426e565b505b5b5b611c25866080015160028054600181600116156101000203166002900480601f016020809104026020016040519081016040528092919081815260200182805460018160011615610100020316600290048015611c1b5780601f10611bf057610100808354040283529160200191611c1b565b820191906000526020600020905b815481529060010190602001808311611bfe57829003601f168201915b5050505050612f10565b15611d17576000611c7b82611c6d611c5a6002611c4c60038b612e8790919063ffffffff16565b612e0190919063ffffffff16565b8960600151612f6990919063ffffffff16565b612f6990919063ffffffff16565b90508273ffffffffffffffffffffffffffffffffffffffff166323b872dd308960200151846040518463ffffffff1660e01b8152600401611cbe93929190614a0a565b602060405180830381600087803b158015611cd857600080fd5b505af1158015611cec573d6000803e3d6000fd5b505050506040513d601f19601f82011682018060405250810190611d10919061426e565b5050611efa565b611dbf866080015160038054600181600116156101000203166002900480601f016020809104026020016040519081016040528092919081815260200182805460018160011615610100020316600290048015611db55780601f10611d8a57610100808354040283529160200191611db5565b820191906000526020600020905b815481529060010190602001808311611d9857829003601f168201915b5050505050612f10565b15611e3c57856020015173ffffffffffffffffffffffffffffffffffffffff166108fc611e0b83611dfd888a60600151612f6990919063ffffffff16565b612f6990919063ffffffff16565b9081150290604051600060405180830381858888f19350505050158015611e36573d6000803e3d6000fd5b50611ef9565b8173ffffffffffffffffffffffffffffffffffffffff166323b872dd308860200151611e8785611e798a8c60600151612f6990919063ffffffff16565b612f6990919063ffffffff16565b6040518463ffffffff1660e01b8152600401611ea593929190614a0a565b602060405180830381600087803b158015611ebf57600080fd5b505af1158015611ed3573d6000803e3d6000fd5b505050506040513d601f19601f82011682018060405250810190611ef7919061426e565b505b5b611f18866000015186602001518a8a8a608001518a60600151612fec565b5050505050505050565b6000600682604051611f3491906148d6565b908152602001604051809103902060009054906101000a900473ffffffffffffffffffffffffffffffffffffffff169050919050565b620186a081565b6380ac58cd60e01b81565b611f89858585858561337d565b5050505050565b611f98612182565b73ffffffffffffffffffffffffffffffffffffffff16611fb6611145565b73ffffffffffffffffffffffffffffffffffffffff161461203f576040517f08c379a00000000000000000000000000000000000000000000000000000000081526004018080602001828103825260208152602001807f4f776e61626c653a2063616c6c6572206973206e6f7420746865206f776e657281525060200191505060405180910390fd5b600073ffffffffffffffffffffffffffffffffffffffff168173ffffffffffffffffffffffffffffffffffffffff1614156120c5576040517f08c379a000000000000000000000000000000000000000000000000000000000815260040180806020018281038252602681526020018061508e6026913960400191505060405180910390fd5b8073ffffffffffffffffffffffffffffffffffffffff1660008054906101000a900473ffffffffffffffffffffffffffffffffffffffff1673ffffffffffffffffffffffffffffffffffffffff167f8be0079c531659141344cd1fd0a4f28419497f9722a3daafe3b4186f6b6457e060405160405180910390a3806000806101000a81548173ffffffffffffffffffffffffffffffffffffffff021916908373ffffffffffffffffffffffffffffffffffffffff16021790555050565b600033905090565b612192613dca565b600560008473ffffffffffffffffffffffffffffffffffffffff1673ffffffffffffffffffffffffffffffffffffffff16815260200190815260200160002060008381526020019081526020016000206040518060a0016040529081600082015481526020016001820160009054906101000a900473ffffffffffffffffffffffffffffffffffffffff1673ffffffffffffffffffffffffffffffffffffffff1673ffffffffffffffffffffffffffffffffffffffff168152602001600282018054600181600116156101000203166002900480601f0160208091040260200160405190810160405280929190818152602001828054600181600116156101000203166002900480156122e65780601f106122bb576101008083540402835291602001916122e6565b820191906000526020600020905b8154815290600101906020018083116122c957829003601f168201915b50505050508152602001600382015481526020016004820154815250509050600560008473ffffffffffffffffffffffffffffffffffffffff1673ffffffffffffffffffffffffffffffffffffffff16815260200190815260200160002060008381526020019081526020016000206000808201600090556001820160006101000a81549073ffffffffffffffffffffffffffffffffffffffff02191690556002820160006123959190613f0c565b6003820160009055600482016000905550506000600682604001516040516123bd91906148d6565b908152602001604051809103902060009054906101000a900473ffffffffffffffffffffffffffffffffffffffff169050600081905061249b836040015160038054600181600116156101000203166002900480601f0160208091040260200160405190810160405280929190818152602001828054600181600116156101000203166002900480156124915780601f1061246657610100808354040283529160200191612491565b820191906000526020600020905b81548152906001019060200180831161247457829003601f168201915b5050505050612f10565b156124f457826020015173ffffffffffffffffffffffffffffffffffffffff166108fc84606001519081150290604051600060405180830381858888f193505050501580156124ee573d6000803e3d6000fd5b5061258b565b8073ffffffffffffffffffffffffffffffffffffffff1663a9059cbb846020015185606001516040518363ffffffff1660e01b8152600401612537929190614a41565b602060405180830381600087803b15801561255157600080fd5b505af1158015612565573d6000803e3d6000fd5b505050506040513d601f19601f82011682018060405250810190612589919061426e565b505b7fb56dc4096011ba5fd2e46e5c3e7b04dec423b5e7b5fce9a17a419d77c832177c83600001516040516125be9190614aa7565b60405180910390a15050505050565b600460008473ffffffffffffffffffffffffffffffffffffffff1673ffffffffffffffffffffffffffffffffffffffff16815260200190815260200160002060008381526020019081526020016000206000808201600090556001820160006101000a81549073ffffffffffffffffffffffffffffffffffffffff02191690556002820160006101000a81549073ffffffffffffffffffffffffffffffffffffffff0219169055600382016000905560048201600061268c9190613f0c565b6005820160009055600682016000905550508273ffffffffffffffffffffffffffffffffffffffff166342842e0e3083856040518463ffffffff1660e01b81526004016126db93929190614a0a565b600060405180830381600087803b1580156126f557600080fd5b505af1158015612709573d6000803e3d6000fd5b505050507f5152abf959f6564662358c2e52b702259b78bac5ee7842a0f01937e670efcc7d8460405161273c9190614aa7565b60405180910390a150505050565b60008061275687613c69565b905060008173ffffffffffffffffffffffffffffffffffffffff16636352211e886040518263ffffffff1660e01b81526004016127939190614db9565b60206040518083038186803b1580156127ab57600080fd5b505afa1580156127bf573d6000803e3d6000fd5b505050506040513d601f19601f820116820180604052508101906127e391906140ab565b90503373ffffffffffffffffffffffffffffffffffffffff168173ffffffffffffffffffffffffffffffffffffffff1614612853576040517f08c379a000000000000000000000000000000000000000000000000000000000815260040161284a90614cb9565b60405180910390fd5b60008511612896576040517f08c379a000000000000000000000000000000000000000000000000000000000815260040161288d90614c79565b60405180910390fd5b6128aa603c42613d4290919063ffffffff16565b84116128eb576040517f08c379a00000000000000000000000000000000000000000000000000000000081526004016128e290614cd9565b60405180910390fd5b8173ffffffffffffffffffffffffffffffffffffffff166342842e0e82308a6040518463ffffffff1660e01b815260040161292893929190614a0a565b600060405180830381600087803b15801561294257600080fd5b505af1158015612956573d6000803e3d6000fd5b50505050600042828a8a8a8a6040516020016129779695949392919061494c565b6040516020818303038152906040528051906020012090506040518060e001604052808281526020018373ffffffffffffffffffffffffffffffffffffffff1681526020018a73ffffffffffffffffffffffffffffffffffffffff16815260200189815260200188815260200187815260200186815250600460008b73ffffffffffffffffffffffffffffffffffffffff1673ffffffffffffffffffffffffffffffffffffffff16815260200190815260200160002060008a81526020019081526020016000206000820151816000015560208201518160010160006101000a81548173ffffffffffffffffffffffffffffffffffffffff021916908373ffffffffffffffffffffffffffffffffffffffff16021790555060408201518160020160006101000a81548173ffffffffffffffffffffffffffffffffffffffff021916908373ffffffffffffffffffffffffffffffffffffffff160217905550606082015181600301556080820151816004019080519060200190612afc929190613e12565b5060a0820151816005015560c08201518160060155905050878973ffffffffffffffffffffffffffffffffffffffff168373ffffffffffffffffffffffffffffffffffffffff167fc5fa0a5ae8d69a29bf513897ca5286089de619f3d1594a11704093f7c1d0bb2a848b8b8b604051612b789493929190614bd0565b60405180910390a480935050505095945050505050565b612b97613ea0565b600460008473ffffffffffffffffffffffffffffffffffffffff1673ffffffffffffffffffffffffffffffffffffffff16815260200190815260200160002060008381526020019081526020016000206040518060e0016040529081600082015481526020016001820160009054906101000a900473ffffffffffffffffffffffffffffffffffffffff1673ffffffffffffffffffffffffffffffffffffffff1673ffffffffffffffffffffffffffffffffffffffff1681526020016002820160009054906101000a900473ffffffffffffffffffffffffffffffffffffffff1673ffffffffffffffffffffffffffffffffffffffff1673ffffffffffffffffffffffffffffffffffffffff16815260200160038201548152602001600482018054600181600116156101000203166002900480601f016020809104026020016040519081016040528092919081815260200182805460018160011615610100020316600290048015612d4b5780601f10612d2057610100808354040283529160200191612d4b565b820191906000526020600020905b815481529060010190602001808311612d2e57829003601f168201915b505050505081526020016005820154815260200160068201548152505090506000801b81600001511415612db4576040517f08c379a0000000000000000000000000000000000000000000000000000000008152600401612dab90614d39565b60405180910390fd5b428160c001511015612dfb576040517f08c379a0000000000000000000000000000000000000000000000000000000008152600401612df290614c59565b60405180910390fd5b92915050565b600080831415612e145760009050612e81565b6000828402905082848281612e2557fe5b0414612e7c576040517f08c379a00000000000000000000000000000000000000000000000000000000081526004018080602001828103825260218152602001806150b46021913960400191505060405180910390fd5b809150505b92915050565b6000808211612efe576040517f08c379a000000000000000000000000000000000000000000000000000000000815260040180806020018281038252601a8152602001807f536166654d6174683a206469766973696f6e206279207a65726f00000000000081525060200191505060405180910390fd5b818381612f0757fe5b04905092915050565b600081604051602001612f2391906148d6565b6040516020818303038152906040528051906020012083604051602001612f4a91906148d6565b6040516020818303038152906040528051906020012014905092915050565b600082821115612fe1576040517f08c379a000000000000000000000000000000000000000000000000000000000815260040180806020018281038252601e8152602001807f536166654d6174683a207375627472616374696f6e206f766572666c6f77000081525060200191505060405180910390fd5b818303905092915050565b612ff4613ea0565b600460008673ffffffffffffffffffffffffffffffffffffffff1673ffffffffffffffffffffffffffffffffffffffff16815260200190815260200160002060008581526020019081526020016000206040518060e0016040529081600082015481526020016001820160009054906101000a900473ffffffffffffffffffffffffffffffffffffffff1673ffffffffffffffffffffffffffffffffffffffff1673ffffffffffffffffffffffffffffffffffffffff1681526020016002820160009054906101000a900473ffffffffffffffffffffffffffffffffffffffff1673ffffffffffffffffffffffffffffffffffffffff1673ffffffffffffffffffffffffffffffffffffffff16815260200160038201548152602001600482018054600181600116156101000203166002900480601f0160208091040260200160405190810160405280929190818152602001828054600181600116156101000203166002900480156131a85780601f1061317d576101008083540402835291602001916131a8565b820191906000526020600020905b81548152906001019060200180831161318b57829003601f168201915b505050505081526020016005820154815260200160068201548152505090508473ffffffffffffffffffffffffffffffffffffffff166342842e0e3088876040518463ffffffff1660e01b815260040161320493929190614a0a565b600060405180830381600087803b15801561321e57600080fd5b505af1158015613232573d6000803e3d6000fd5b50505050600460008673ffffffffffffffffffffffffffffffffffffffff1673ffffffffffffffffffffffffffffffffffffffff16815260200190815260200160002060008581526020019081526020016000206000808201600090556001820160006101000a81549073ffffffffffffffffffffffffffffffffffffffff02191690556002820160006101000a81549073ffffffffffffffffffffffffffffffffffffffff021916905560038201600090556004820160006132f59190613f0c565b6005820160009055600682016000905550508060600151816040015173ffffffffffffffffffffffffffffffffffffffff167f0d6fd7252dd0da66e6b04e6e0000acb9a7edc31caabc890a33aee7ce74c97ca5836000015184602001518a8660800151884260405161336c96959493929190614ac2565b60405180910390a350505050505050565b613385613ea0565b61338f8686612b8f565b90508060c001518211156133a5578060c0015191505b6133ad613dca565b600560008873ffffffffffffffffffffffffffffffffffffffff1673ffffffffffffffffffffffffffffffffffffffff16815260200190815260200160002060008781526020019081526020016000206040518060a0016040529081600082015481526020016001820160009054906101000a900473ffffffffffffffffffffffffffffffffffffffff1673ffffffffffffffffffffffffffffffffffffffff1673ffffffffffffffffffffffffffffffffffffffff168152602001600282018054600181600116156101000203166002900480601f0160208091040260200160405190810160405280929190818152602001828054600181600116156101000203166002900480156135015780601f106134d657610100808354040283529160200191613501565b820191906000526020600020905b8154815290600101906020018083116134e457829003601f168201915b505050505081526020016003820154815260200160048201548152505090506000801b8160000151146137cf574281608001511061367e576135e1826080015160038054600181600116156101000203166002900480601f0160208091040260200160405190810160405280929190818152602001828054600181600116156101000203166002900480156135d75780601f106135ac576101008083540402835291602001916135d7565b820191906000526020600020905b8154815290600101906020018083116135ba57829003601f168201915b5050505050612f10565b1561363257806060015134101561362d576040517f08c379a000000000000000000000000000000000000000000000000000000000815260040161362490614d99565b60405180910390fd5b613679565b80606001518411613678576040517f08c379a000000000000000000000000000000000000000000000000000000000815260040161366f90614d99565b60405180910390fd5b5b6137c0565b613726826080015160038054600181600116156101000203166002900480601f01602080910402602001604051908101604052809291908181526020018280546001816001161561010002031660029004801561371c5780601f106136f15761010080835404028352916020019161371c565b820191906000526020600020905b8154815290600101906020018083116136ff57829003601f168201915b5050505050612f10565b15613777578160a00151341015613772576040517f08c379a000000000000000000000000000000000000000000000000000000000815260040161376990614d79565b60405180910390fd5b6137bf565b8160a001518410156137be576040517f08c379a00000000000000000000000000000000000000000000000000000000081526004016137b590614d79565b60405180910390fd5b5b5b6137ca878761218a565b613911565b613877826080015160038054600181600116156101000203166002900480601f01602080910402602001604051908101604052809291908181526020018280546001816001161561010002031660029004801561386d5780601f106138425761010080835404028352916020019161386d565b820191906000526020600020905b81548152906001019060200180831161385057829003601f168201915b5050505050612f10565b156138c8578160a001513410156138c3576040517f08c379a00000000000000000000000000000000000000000000000000000000081526004016138ba90614d79565b60405180910390fd5b613910565b8160a0015184101561390f576040517f08c379a000000000000000000000000000000000000000000000000000000000815260040161390690614d79565b60405180910390fd5b5b5b60006006836080015160405161392791906148d6565b908152602001604051809103902060009054906101000a900473ffffffffffffffffffffffffffffffffffffffff1690506000819050613a05846080015160038054600181600116156101000203166002900480601f0160208091040260200160405190810160405280929190818152602001828054600181600116156101000203166002900480156139fb5780601f106139d0576101008083540402835291602001916139fb565b820191906000526020600020905b8154815290600101906020018083116139de57829003601f168201915b5050505050612f10565b613a9a578073ffffffffffffffffffffffffffffffffffffffff166323b872dd3330896040518463ffffffff1660e01b8152600401613a46939291906149d3565b602060405180830381600087803b158015613a6057600080fd5b505af1158015613a74573d6000803e3d6000fd5b505050506040513d601f19601f82011682018060405250810190613a98919061426e565b505b6000423386600001518989604051602001613ab99594939291906148ed565b6040516020818303038152906040528051906020012090506040518060a001604052808281526020013373ffffffffffffffffffffffffffffffffffffffff1681526020018660800151815260200188815260200187815250600560008c73ffffffffffffffffffffffffffffffffffffffff1673ffffffffffffffffffffffffffffffffffffffff16815260200190815260200160002060008b81526020019081526020016000206000820151816000015560208201518160010160006101000a81548173ffffffffffffffffffffffffffffffffffffffff021916908373ffffffffffffffffffffffffffffffffffffffff1602179055506040820151816002019080519060200190613bcf929190613e12565b5060608201518160030155608082015181600401559050503373ffffffffffffffffffffffffffffffffffffffff16898b73ffffffffffffffffffffffffffffffffffffffff167f414980e6565614e96fb0cb904a363570b7f557a3e6fcaf4b921b7c3ef0d02f4e8489602001518a608001518d8d604051613c55959493929190614b76565b60405180910390a450505050505050505050565b60008173ffffffffffffffffffffffffffffffffffffffff166301ffc9a76380ac58cd60e01b6040518263ffffffff1660e01b8152600401613cab9190614c1c565b60206040518083038186803b158015613cc357600080fd5b505afa158015613cd7573d6000803e3d6000fd5b505050506040513d601f19601f82011682018060405250810190613cfb919061426e565b613d3a576040517f08c379a0000000000000000000000000000000000000000000000000000000008152600401613d3190614cf9565b60405180910390fd5b819050919050565b600080828401905083811015613dc0576040517f08c379a000000000000000000000000000000000000000000000000000000000815260040180806020018281038252601b8152602001807f536166654d6174683a206164646974696f6e206f766572666c6f77000000000081525060200191505060405180910390fd5b8091505092915050565b6040518060a0016040528060008019168152602001600073ffffffffffffffffffffffffffffffffffffffff1681526020016060815260200160008152602001600081525090565b828054600181600116156101000203166002900490600052602060002090601f016020900481019282613e485760008555613e8f565b82601f10613e6157805160ff1916838001178555613e8f565b82800160010185558215613e8f579182015b82811115613e8e578251825591602001919060010190613e73565b5b509050613e9c9190613f54565b5090565b6040518060e0016040528060008019168152602001600073ffffffffffffffffffffffffffffffffffffffff168152602001600073ffffffffffffffffffffffffffffffffffffffff168152602001600081526020016060815260200160008152602001600081525090565b50805460018160011615610100020316600290046000825580601f10613f325750613f51565b601f016020900490600052602060002090810190613f509190613f54565b5b50565b5b80821115613f6d576000816000905550600101613f55565b5090565b600081359050613f8081615048565b92915050565b600081519050613f9581615048565b92915050565b600081519050613faa8161505f565b92915050565b600082601f830112613fc157600080fd5b8135613fd4613fcf82614e05565b614dd4565b91508082526020830160208301858383011115613ff057600080fd5b613ffb838284614f9c565b50505092915050565b600082601f83011261401557600080fd5b813561402861402382614e35565b614dd4565b9150808252602083016020830185838301111561404457600080fd5b61404f838284614f9c565b50505092915050565b60008135905061406781615076565b92915050565b60008151905061407c81615076565b92915050565b60006020828403121561409457600080fd5b60006140a284828501613f71565b91505092915050565b6000602082840312156140bd57600080fd5b60006140cb84828501613f86565b91505092915050565b600080600080608085870312156140ea57600080fd5b60006140f887828801613f71565b945050602061410987828801613f71565b935050604061411a87828801614058565b925050606085013567ffffffffffffffff81111561413757600080fd5b61414387828801613fb0565b91505092959194509250565b6000806040838503121561416257600080fd5b600061417085828601613f71565b925050602083013567ffffffffffffffff81111561418d57600080fd5b61419985828601614004565b9150509250929050565b600080604083850312156141b657600080fd5b60006141c485828601613f71565b92505060206141d585828601614058565b9150509250929050565b600080600080600060a086880312156141f757600080fd5b600061420588828901613f71565b955050602061421688828901614058565b945050604086013567ffffffffffffffff81111561423357600080fd5b61423f88828901614004565b935050606061425088828901614058565b925050608061426188828901614058565b9150509295509295909350565b60006020828403121561428057600080fd5b600061428e84828501613f9b565b91505092915050565b6000602082840312156142a957600080fd5b600082013567ffffffffffffffff8111156142c357600080fd5b6142cf84828501614004565b91505092915050565b6000602082840312156142ea57600080fd5b60006142f884828501614058565b91505092915050565b60006020828403121561431357600080fd5b60006143218482850161406d565b91505092915050565b60006143368383614443565b905092915050565b61434781614f66565b82525050565b61435e61435982614ee8565b614ff0565b82525050565b61436d81614ed6565b82525050565b61438461437f82614ed6565b614fde565b82525050565b600061439582614e75565b61439f8185614e98565b9350836020820285016143b185614e65565b8060005b858110156143ed57848403895281516143ce858261432a565b94506143d983614e8b565b925060208a019950506001810190506143b5565b50829750879550505050505092915050565b61440881614efa565b82525050565b61441781614f06565b82525050565b61442e61442982614f06565b615002565b82525050565b61443d81614f10565b82525050565b600061444e82614e80565b6144588185614ea9565b9350614468818560208601614fab565b6144718161502a565b840191505092915050565b600061448782614e80565b6144918185614eba565b93506144a1818560208601614fab565b6144aa8161502a565b840191505092915050565b60006144c082614e80565b6144ca8185614ecb565b93506144da818560208601614fab565b80840191505092915050565b60006144f3601a83614eba565b91507f4d61726b6574706c6163653a206f7264657220657870697265640000000000006000830152602082019050919050565b6000614533602a83614eba565b91507f4d61726b6574706c6163653a2050726963652073686f756c642062652062696760008301527f676572207468616e2030000000000000000000000000000000000000000000006020830152604082019050919050565b6000614599602083614eba565b91507f4d61726b6574706c6163653a20556e617574686f72697a65642073656e6465726000830152602082019050919050565b60006145d9603383614eba565b91507f4d61726b6574706c6163653a204f6e6c7920746865206173736574206f776e6560008301527f722063616e20637265617465206f7264657273000000000000000000000000006020830152604082019050919050565b600061463f604383614eba565b91507f4d61726b6574706c6163653a205075626c69636174696f6e2073686f756c642060008301527f6265206d6f7265207468616e2031206d696e75746520696e207468652066757460208301527f75726500000000000000000000000000000000000000000000000000000000006040830152606082019050919050565b60006146cb603583614eba565b91507f546865204e465420636f6e74726163742068617320616e20696e76616c69642060008301527f45524337323120696d706c656d656e746174696f6e00000000000000000000006020830152604082019050919050565b6000614731602083614eba565b91507f4d61726b6574706c6163653a20756e617574686f72697a65642073656e6465726000830152602082019050919050565b6000614771602083614eba565b91507f4d61726b6574706c6163653a206173736574206e6f74207075626c69736865646000830152602082019050919050565b60006147b1601c83614eba565b91507f4d61726b6574706c6163653a20746865206269642065787069726564000000006000830152602082019050919050565b60006147f1603083614eba565b91507f4d61726b6574706c6163653a206269642073686f756c64206265203e3d20696e60008301527f6974616c206f72646572207072696365000000000000000000000000000000006020830152604082019050919050565b6000614857603583614eba565b91507f4d61726b6574706c6163653a206269642070726963652073686f756c6420626560008301527f20686967686572207468616e206c6173742062696400000000000000000000006020830152604082019050919050565b6148b981614f5c565b82525050565b6148d06148cb82614f5c565b61501e565b82525050565b60006148e282846144b5565b915081905092915050565b60006148f982886148bf565b602082019150614909828761434d565b601482019150614919828661441d565b60208201915061492982856148bf565b60208201915061493982846148bf565b6020820191508190509695505050505050565b600061495882896148bf565b6020820191506149688288614373565b6014820191506149788287614373565b60148201915061498882866148bf565b60208201915061499882856144b5565b91506149a482846148bf565b602082019150819050979650505050505050565b60006020820190506149cd6000830184614364565b92915050565b60006060820190506149e8600083018661433e565b6149f56020830185614364565b614a0260408301846148b0565b949350505050565b6000606082019050614a1f6000830186614364565b614a2c6020830185614364565b614a3960408301846148b0565b949350505050565b6000604082019050614a566000830185614364565b614a6360208301846148b0565b9392505050565b60006020820190508181036000830152614a84818461438a565b905092915050565b6000602082019050614aa160008301846143ff565b92915050565b6000602082019050614abc600083018461440e565b92915050565b600060c082019050614ad7600083018961440e565b614ae46020830188614364565b614af16040830187614364565b8181036060830152614b03818661447c565b9050614b1260808301856148b0565b614b1f60a08301846148b0565b979650505050505050565b6000608082019050614b3f600083018761440e565b614b4c6020830186614364565b8181036040830152614b5e818561447c565b9050614b6d60608301846148b0565b95945050505050565b600060a082019050614b8b600083018861440e565b614b986020830187614364565b8181036040830152614baa818661447c565b9050614bb960608301856148b0565b614bc660808301846148b0565b9695505050505050565b6000608082019050614be5600083018761440e565b8181036020830152614bf7818661447c565b9050614c0660408301856148b0565b614c1360608301846148b0565b95945050505050565b6000602082019050614c316000830184614434565b92915050565b60006020820190508181036000830152614c51818461447c565b905092915050565b60006020820190508181036000830152614c72816144e6565b9050919050565b60006020820190508181036000830152614c9281614526565b9050919050565b60006020820190508181036000830152614cb28161458c565b9050919050565b60006020820190508181036000830152614cd2816145cc565b9050919050565b60006020820190508181036000830152614cf281614632565b9050919050565b60006020820190508181036000830152614d12816146be565b9050919050565b60006020820190508181036000830152614d3281614724565b9050919050565b60006020820190508181036000830152614d5281614764565b9050919050565b60006020820190508181036000830152614d72816147a4565b9050919050565b60006020820190508181036000830152614d92816147e4565b9050919050565b60006020820190508181036000830152614db28161484a565b9050919050565b6000602082019050614dce60008301846148b0565b92915050565b6000604051905081810181811067ffffffffffffffff82111715614dfb57614dfa615028565b5b8060405250919050565b600067ffffffffffffffff821115614e2057614e1f615028565b5b601f19601f8301169050602081019050919050565b600067ffffffffffffffff821115614e5057614e4f615028565b5b601f19601f8301169050602081019050919050565b6000819050602082019050919050565b600081519050919050565b600081519050919050565b6000602082019050919050565b600082825260208201905092915050565b600082825260208201905092915050565b600082825260208201905092915050565b600081905092915050565b6000614ee182614f3c565b9050919050565b6000614ef382614f3c565b9050919050565b60008115159050919050565b6000819050919050565b60007fffffffff0000000000000000000000000000000000000000000000000000000082169050919050565b600073ffffffffffffffffffffffffffffffffffffffff82169050919050565b6000819050919050565b6000614f7182614f78565b9050919050565b6000614f8382614f8a565b9050919050565b6000614f9582614f3c565b9050919050565b82818337600083830152505050565b60005b83811015614fc9578082015181840152602081019050614fae565b83811115614fd8576000848401525b50505050565b6000614fe98261500c565b9050919050565b6000614ffb8261500c565b9050919050565b6000819050919050565b60006150178261503b565b9050919050565b6000819050919050565bfe5b6000601f19601f8301169050919050565b60008160601b9050919050565b61505181614ed6565b811461505c57600080fd5b50565b61506881614efa565b811461507357600080fd5b50565b61507f81614f5c565b811461508a57600080fd5b5056fe4f776e61626c653a206e6577206f776e657220697320746865207a65726f2061646472657373536166654d6174683a206d756c7469706c69636174696f6e206f766572666c6f77546865206f776e6572206375742073686f756c64206265206265747765656e203020616e64206d61784375745065724d696c6c696f6ea2646970667358221220257c2e0e0668bd5ce7e1ff18ec392a3ba3fdec316c03f3c488d562587324d23b64736f6c63430007040033",
  "immutableReferences": {},
  "source": "// SPDX-License-Identifier: MIT\r\npragma solidity >=0.4.22 <0.9.0;\r\npragma experimental ABIEncoderV2;\r\n\r\nimport \"@openzeppelin/contracts/token/ERC721/ERC721.sol\";\r\nimport \"@openzeppelin/contracts/token/ERC20/ERC20.sol\";\r\nimport \"@openzeppelin/contracts/math/SafeMath.sol\";\r\nimport \"@openzeppelin/contracts/utils/Address.sol\";\r\nimport \"@openzeppelin/contracts/access/Ownable.sol\";\r\nimport \"@openzeppelin/contracts/token/ERC721/IERC721Receiver.sol\";\r\nimport \"./interface/RoyaltyFactory.sol\";\r\nimport \"./INft_Marketplace.sol\";\r\nimport \"./FeeManager.sol\";\r\n\r\ncontract Auction_Marketplace is INft_Marketplace, FeeManager, IERC721Receiver {\r\n    using SafeMath for uint256;\r\n    string internal cifi_Symbol = \"CIFI\";\r\n    string bnb_Symbol = \"BNB\";\r\n    // From ERC721 registry assetId to Order (to avoid asset collision)\r\n    mapping(address => mapping(uint256 => Order)) orderByAssetId;\r\n\r\n    // From ERC721 registry assetId to Bid (to avoid asset collision)\r\n    mapping(address => mapping(uint256 => Bid)) bidByOrderId;\r\n\r\n    // from ERC20 symbols to their addresses\r\n    mapping(string => address) acceptedTokens;\r\n\r\n    // array that saves all the symbols of accepted tokens\r\n    string[] public acceptedTokensSymbols;\r\n\r\n    constructor() public {}\r\n\r\n    // 721 Interfaces\r\n    bytes4 public constant _INTERFACE_ID_ERC721 = 0x80ac58cd;\r\n    bytes4 private constant _INTERFACE_ID_ROYALTY = 0x0760a14c;\r\n\r\n    /**\r\n     * Creates a new order\r\n     *  _nftAddress - Non fungible contract address\r\n     *  _assetId - ID of the published NFT\r\n     *  _priceInAnyOfTheSupportedCurrencies - price In Any Of The Supported Currencies\r\n     *  _expiresAt - Duration of the order (in hours)\r\n     */\r\n\r\n    function getBid(address _nftAddress, uint256 _assetId)\r\n        public\r\n        view\r\n        returns (\r\n            bytes32 id,\r\n            address bidder,\r\n            string memory tokenSymbol,\r\n            uint256 price\r\n        )\r\n    {\r\n        Bid memory bid = bidByOrderId[_nftAddress][_assetId];\r\n        id = bid.id;\r\n        bidder = bid.bidder;\r\n        tokenSymbol = bid.tokenSymbol;\r\n        price = bid.price;\r\n    }\r\n\r\n    function createOrder(\r\n        address _nftAddress,\r\n        uint256 _assetId,\r\n        string memory _tokenSymbol,\r\n        uint256 _price,\r\n        uint256 _expiresAt\r\n    ) public returns (bytes32) {\r\n        return\r\n            _createOrder(\r\n                _nftAddress,\r\n                _assetId,\r\n                _tokenSymbol,\r\n                _price,\r\n                _expiresAt\r\n            );\r\n    }\r\n\r\n    /**\r\n     *  Cancel an already published order\r\n     *  can only be canceled by seller or the contract owner\r\n     *  nftAddress - Address of the NFT registry\r\n     *  assetId - ID of the published NFT\r\n     */\r\n    function cancelOrder(address _nftAddress, uint256 _assetId) public {\r\n        Order memory order = orderByAssetId[_nftAddress][_assetId];\r\n\r\n        require(order.seller == msg.sender, \"Marketplace: unauthorized sender\");\r\n\r\n        // Remove pending bid if any\r\n        Bid memory bid = bidByOrderId[_nftAddress][_assetId];\r\n\r\n        if (bid.id != 0) {\r\n            _cancelBid(_nftAddress, _assetId);\r\n        }\r\n\r\n        // Cancel order.\r\n        _cancelOrder(order.id, _nftAddress, _assetId, msg.sender);\r\n    }\r\n\r\n    /**\r\n     *  Places a bid for a published NFT\r\n     *  _nftAddress - Address of the NFT registry\r\n     *  _assetId - ID of the published NFT\r\n     *  _priceInAny Of The Supported Currencies - Bid price in acceptedToken currency\r\n     *  _expiresAt - Bid expiration time\r\n     */\r\n    function safePlaceBid(\r\n        address _nftAddress,\r\n        uint256 _assetId,\r\n        string memory _tokenSymbol,\r\n        uint256 _price,\r\n        uint256 _expiresAt\r\n    ) public {\r\n        _createBid(_nftAddress, _assetId, _tokenSymbol, _price, _expiresAt);\r\n    }\r\n\r\n    /**\r\n     * @dev Cancel an already published bid\r\n     *  can only be canceled by seller or the contract owner\r\n     * @param _nftAddress - Address of the NFT registry\r\n     * @param _assetId - ID of the published NFT\r\n     */\r\n    function cancelBid(address _nftAddress, uint256 _assetId) public {\r\n        Bid memory bid = bidByOrderId[_nftAddress][_assetId];\r\n\r\n        require(\r\n            bid.bidder == msg.sender || msg.sender == owner(),\r\n            \"Marketplace: Unauthorized sender\"\r\n        );\r\n\r\n        _cancelBid(_nftAddress, _assetId);\r\n    }\r\n\r\n    /**\r\n     * Executes the sale for a published NFT by accepting a current bid\r\n     *  _nftAddress - Address of the NFT registry\r\n     *  _assetId - ID of the published NFT\r\n     *  _priceInAnyOfTheFourCurrencies - price In Any Of The Four Currencies\r\n     */\r\n    function acceptBid(address _nftAddress, uint256 _assetId) public {\r\n        // check order validity\r\n        Order memory order = _getValidOrder(_nftAddress, _assetId);\r\n\r\n        // item seller is the only allowed to accept a bid\r\n        require(order.seller == msg.sender, \"Marketplace: unauthorized sender\");\r\n\r\n        Bid memory bid = bidByOrderId[_nftAddress][_assetId];\r\n\r\n        require(\r\n            bid.expiresAt >= block.timestamp,\r\n            \"Marketplace: the bid expired\"\r\n        );\r\n\r\n        // remove bid\r\n        delete bidByOrderId[_nftAddress][_assetId];\r\n\r\n        emit BidAccepted(bid.id);\r\n\r\n        uint256 saleShareAmount = 0;\r\n        address tokenAddress = acceptedTokens[order.tokenSymbol];\r\n        ERC20 acceptedToken = ERC20(tokenAddress);\r\n        uint256 royaltyFeeAmount = 0;\r\n        if (IERC165(_nftAddress).supportsInterface(_INTERFACE_ID_ROYALTY)) {\r\n            address orignalCreater = RoyaltyFactory(_nftAddress)\r\n            .getOriginalCreator(_assetId);\r\n            uint256 royaltyFee = RoyaltyFactory(_nftAddress).getRoyaltyFee(\r\n                _assetId\r\n            );\r\n            royaltyFeeAmount = bid.price.mul(royaltyFee).div(1e6);\r\n            if (compareStrings(order.tokenSymbol, bnb_Symbol)) {\r\n                // Transfer share amount for marketplace Owner\r\n                payable(orignalCreater).transfer(royaltyFeeAmount);\r\n            } else {\r\n                acceptedToken.transferFrom(\r\n                    address(this), //escrow\r\n                    orignalCreater,\r\n                    royaltyFeeAmount\r\n                );\r\n            }\r\n        }\r\n        // calc market fees\r\n        if (FeeManager.cutPerMillion > 0) {\r\n            // Calculate sale share\r\n            saleShareAmount = bid.price.mul(FeeManager.cutPerMillion).div(1e6);\r\n\r\n            if (compareStrings(order.tokenSymbol, cifi_Symbol)) {\r\n                // Transfer half of share amount for marketplace Owner\r\n                acceptedToken.transferFrom(\r\n                    address(this), //escrow\r\n                    owner(),\r\n                    saleShareAmount.div(3)\r\n                );\r\n            } else if (compareStrings(order.tokenSymbol, bnb_Symbol)) {\r\n                // Transfer share amount for marketplace Owner\r\n                payable(owner()).transfer(saleShareAmount);\r\n            } else {\r\n                acceptedToken.transferFrom(\r\n                    address(this), //escrow\r\n                    owner(),\r\n                    saleShareAmount\r\n                );\r\n            }\r\n        }\r\n\r\n        // bidding is only with CifiToken ( this needs to be updated when we go live to Binance smart chain )\r\n\r\n        // transfer escrowed bid amount minus market fee to seller\r\n        if (compareStrings(order.tokenSymbol, cifi_Symbol)) {\r\n            // Transfer accepted token amount minus market fee to seller\r\n            uint256 amount = bid.price.sub(saleShareAmount.div(3).mul(2)).sub(\r\n                royaltyFeeAmount\r\n            );\r\n            acceptedToken.transferFrom(\r\n                address(this), //escrow\r\n                order.seller, // seller\r\n                amount\r\n            );\r\n        } else if (compareStrings(order.tokenSymbol, bnb_Symbol)) {\r\n            // Transfer share amount for marketplace Owner\r\n            payable(order.seller).transfer(\r\n                bid.price.sub(saleShareAmount).sub(royaltyFeeAmount)\r\n            );\r\n        } else {\r\n            // Transfer accepted token amount minus market fee to seller\r\n            acceptedToken.transferFrom(\r\n                address(this), //escrow\r\n                order.seller, // seller\r\n                bid.price.sub(saleShareAmount).sub(royaltyFeeAmount)\r\n            );\r\n        }\r\n\r\n        _executeOrder(\r\n            order.id,\r\n            bid.bidder,\r\n            _nftAddress,\r\n            _assetId,\r\n            order.tokenSymbol,\r\n            bid.price\r\n        );\r\n    }\r\n\r\n    /**\r\n     * Internal function gets Order by nftRegistry and assetId. Checks for the order validity\r\n     * nftAddress - Address of the NFT registry\r\n     * assetId - ID of the published NFT\r\n     */\r\n    function _getValidOrder(address _nftAddress, uint256 _assetId)\r\n        internal\r\n        view\r\n        returns (Order memory order)\r\n    {\r\n        order = orderByAssetId[_nftAddress][_assetId];\r\n\r\n        require(order.id != 0, \"Marketplace: asset not published\");\r\n        require(\r\n            order.expiresAt >= block.timestamp,\r\n            \"Marketplace: order expired\"\r\n        );\r\n    }\r\n\r\n    /**\r\n     * Executes the sale for a published NFT\r\n     *  orderId - Order Id to execute\r\n     *  buyer - address\r\n     *  nftAddress - Address of the NFT registry\r\n     *  assetId - NFT id\r\n     *  price - Order price\r\n     */\r\n    function _executeOrder(\r\n        bytes32 _orderId,\r\n        address _buyer,\r\n        address _nftAddress,\r\n        uint256 _assetId,\r\n        string memory _tokenSymbol,\r\n        uint256 _price\r\n    ) internal {\r\n        // remove order\r\n\r\n        // Transfer NFT asset\r\n        Order memory order = orderByAssetId[_nftAddress][_assetId];\r\n        // Transfer NFT asset\r\n        IERC721(_nftAddress).safeTransferFrom(address(this), _buyer, _assetId);\r\n        delete orderByAssetId[_nftAddress][_assetId];\r\n        // Notify ..\r\n        emit OrderSuccessful(\r\n            order.id,\r\n            order.seller,\r\n            _buyer,\r\n            order.nftAddress,\r\n            order.nftId,\r\n            order.tokenSymbol,\r\n            _price,\r\n            block.timestamp\r\n        );\r\n    }\r\n\r\n    /**\r\n     * Creates a new order\r\n     *  nftAddress - Non fungible contract address\r\n     *  assetId - ID of the published NFT\r\n     *  priceInAnyOfTheSupportedCurrencies - price In Any Of The Supported Currencies\r\n     *  expiresAt - Expiration time for the order\r\n     */\r\n    function _createOrder(\r\n        address _nftAddress,\r\n        uint256 _assetId,\r\n        string memory _tokenSymbol,\r\n        uint256 _price,\r\n        uint256 _expiresAt\r\n    ) internal returns (bytes32) {\r\n        // Check nft registry\r\n        IERC721 nftRegistry = _requireERC721(_nftAddress);\r\n\r\n        // Check order creator is the asset owner\r\n        address assetOwner = nftRegistry.ownerOf(_assetId);\r\n\r\n        require(\r\n            assetOwner == msg.sender,\r\n            \"Marketplace: Only the asset owner can create orders\"\r\n        );\r\n\r\n        require(_price > 0, \"Marketplace: Price should be bigger than 0\");\r\n\r\n        require(\r\n            _expiresAt > block.timestamp.add(1 minutes),\r\n            \"Marketplace: Publication should be more than 1 minute in the future\"\r\n        );\r\n\r\n        // get NFT asset from seller\r\n        nftRegistry.safeTransferFrom(assetOwner, address(this), _assetId);\r\n\r\n        // create the orderId\r\n        bytes32 orderId = keccak256(\r\n            abi.encodePacked(\r\n                block.timestamp,\r\n                assetOwner,\r\n                _nftAddress,\r\n                _assetId,\r\n                _tokenSymbol,\r\n                _price\r\n            )\r\n        );\r\n\r\n        // save order\r\n        orderByAssetId[_nftAddress][_assetId] = Order({\r\n            id: orderId,\r\n            seller: assetOwner,\r\n            nftAddress: _nftAddress,\r\n            nftId: _assetId,\r\n            tokenSymbol: _tokenSymbol,\r\n            price: _price,\r\n            expiresAt: _expiresAt\r\n        });\r\n        emit OrderCreated(\r\n            orderId,\r\n            assetOwner,\r\n            _nftAddress,\r\n            _tokenSymbol,\r\n            _assetId,\r\n            _price,\r\n            _expiresAt\r\n        );\r\n        return orderId;\r\n    }\r\n\r\n    /**\r\n     *  Creates a new bid on a existing order\r\n     *  nftAddress - Non fungible contract address\r\n     *  assetId - ID of the published NFT\r\n     *  priceInAnyOfTheSupportedCurrencies - price In Any Of The Supported Currencies\r\n     *  expiresAt - expires time\r\n     */\r\n    function _createBid(\r\n        address _nftAddress,\r\n        uint256 _assetId,\r\n        string memory _tokenSymbol,\r\n        uint256 _price,\r\n        uint256 _expiresAt\r\n    ) internal {\r\n        // Checks order validity\r\n        Order memory order = _getValidOrder(_nftAddress, _assetId);\r\n\r\n        // check on expire time\r\n        if (_expiresAt > order.expiresAt) {\r\n            _expiresAt = order.expiresAt;\r\n        }\r\n\r\n        // Check price if theres previous a bid\r\n        Bid memory bid = bidByOrderId[_nftAddress][_assetId];\r\n\r\n        // if theres no previous bid, just check price > 0\r\n        if (bid.id != 0) {\r\n            if (bid.expiresAt >= block.timestamp) {\r\n                if (compareStrings(order.tokenSymbol, bnb_Symbol)) {\r\n                    require(\r\n                        msg.value >= bid.price,\r\n                        \"Marketplace: bid price should be higher than last bid\"\r\n                    );\r\n                } else {\r\n                    require(\r\n                        _price > bid.price,\r\n                        \"Marketplace: bid price should be higher than last bid\"\r\n                    );\r\n                }\r\n            } else {\r\n                if (compareStrings(order.tokenSymbol, bnb_Symbol)) {\r\n                    require(\r\n                        msg.value >= order.price,\r\n                        \"Marketplace: bid should be >= inital order price\"\r\n                    );\r\n                } else {\r\n                    require(\r\n                        _price >= order.price,\r\n                        \"Marketplace: bid should be >= inital order price\"\r\n                    );\r\n                }\r\n            }\r\n\r\n            _cancelBid(_nftAddress, _assetId);\r\n        } else {\r\n            if (compareStrings(order.tokenSymbol, bnb_Symbol)) {\r\n                require(\r\n                    msg.value >= order.price,\r\n                    \"Marketplace: bid should be >= inital order price\"\r\n                );\r\n            } else {\r\n                require(\r\n                    _price >= order.price,\r\n                    \"Marketplace: bid should be >= inital order price\"\r\n                );\r\n            }\r\n        }\r\n\r\n        // bidding is only with CifiToken ( this needs to be updated when we go live to Binance smart chain )\r\n        address tokenAddress = acceptedTokens[order.tokenSymbol];\r\n        ERC20 acceptedToken = ERC20(tokenAddress);\r\n\r\n        // Transfer sale amount from bidder to escrow\r\n        if (!compareStrings(order.tokenSymbol, bnb_Symbol)) {\r\n            acceptedToken.transferFrom(\r\n                msg.sender, // bidder\r\n                address(this),\r\n                _price\r\n            );\r\n        }\r\n        // Create bid\r\n        bytes32 bidId = keccak256(\r\n            abi.encodePacked(\r\n                block.timestamp,\r\n                msg.sender,\r\n                order.id,\r\n                _price,\r\n                _expiresAt\r\n            )\r\n        );\r\n\r\n        // Save Bid for this order\r\n        bidByOrderId[_nftAddress][_assetId] = Bid({\r\n            id: bidId,\r\n            bidder: msg.sender,\r\n            tokenSymbol: order.tokenSymbol,\r\n            price: _price,\r\n            expiresAt: _expiresAt\r\n        });\r\n\r\n        emit BidCreated(\r\n            bidId,\r\n            order.seller,\r\n            _nftAddress,\r\n            _assetId,\r\n            msg.sender, // bidder\r\n            order.tokenSymbol,\r\n            _price,\r\n            _expiresAt\r\n        );\r\n    }\r\n\r\n    /**\r\n     * Cancel an already published order\r\n     *  can only be canceled by seller or the contract owner\r\n     * orderId - Bid identifier\r\n     * nftAddress - Address of the NFT registry\r\n     * assetId - ID of the published NFT\r\n     * seller - Address\r\n     */\r\n    function _cancelOrder(\r\n        bytes32 _orderId,\r\n        address _nftAddress,\r\n        uint256 _assetId,\r\n        address _seller\r\n    ) internal {\r\n        delete orderByAssetId[_nftAddress][_assetId];\r\n        /// send asset back to seller\r\n        IERC721(_nftAddress).safeTransferFrom(address(this), _seller, _assetId);\r\n\r\n        emit OrderCancelled(_orderId);\r\n    }\r\n\r\n    /**\r\n     * Cancel bid from an already published order\r\n     *  can only be canceled by seller or the contract owner\r\n     * bidId - Bid identifier\r\n     * nftAddress - registry address\r\n     * assetId - ID of the published NFT\r\n     * bidder - Address\r\n     * escrowAmount - in acceptenToken currency\r\n     */\r\n    function _cancelBid(address _nftAddress, uint256 _assetId) internal {\r\n        Bid memory bid = bidByOrderId[_nftAddress][_assetId];\r\n        delete bidByOrderId[_nftAddress][_assetId];\r\n\r\n        // bidding is only with CifiToken ( this needs to be updated when we go live to Binance smart chain )\r\n        address tokenAddress = acceptedTokens[bid.tokenSymbol];\r\n        ERC20 acceptedToken = ERC20(tokenAddress);\r\n        if (compareStrings(bid.tokenSymbol, bnb_Symbol)) {\r\n            // Transfer share amount for marketplace Owner\r\n            payable(bid.bidder).transfer(bid.price);\r\n        } else {\r\n            // Transfer accepted token amount minus market fee to seller\r\n            acceptedToken.transfer(bid.bidder, bid.price);\r\n        }\r\n\r\n        emit BidCancelled(bid.id);\r\n    }\r\n\r\n    function _requireERC721(address _nftAddress)\r\n        internal\r\n        view\r\n        returns (IERC721)\r\n    {\r\n        require(\r\n            IERC721(_nftAddress).supportsInterface(_INTERFACE_ID_ERC721),\r\n            \"The NFT contract has an invalid ERC721 implementation\"\r\n        );\r\n        return IERC721(_nftAddress);\r\n    }\r\n\r\n    function addAcceptedToken(\r\n        address acceptedTokenAddress,\r\n        string memory acceptedTokenSymbol\r\n    ) public onlyOwner returns (bool) {\r\n        acceptedTokens[acceptedTokenSymbol] = acceptedTokenAddress;\r\n        acceptedTokensSymbols.push(acceptedTokenSymbol);\r\n        return true;\r\n    }\r\n\r\n    function getTokenSymbols() public view returns (string[] memory) {\r\n        return acceptedTokensSymbols;\r\n    }\r\n\r\n    function getTokenAddress(string memory tokenSymbol)\r\n        public\r\n        view\r\n        returns (address)\r\n    {\r\n        return acceptedTokens[tokenSymbol];\r\n    }\r\n\r\n    function onERC721Received(\r\n        address,\r\n        address,\r\n        uint256,\r\n        bytes memory\r\n    ) public virtual override returns (bytes4) {\r\n        return this.onERC721Received.selector;\r\n    }\r\n\r\n    function compareStrings(string memory a, string memory b)\r\n        internal\r\n        pure\r\n        returns (bool)\r\n    {\r\n        return (keccak256(abi.encodePacked((a))) ==\r\n            keccak256(abi.encodePacked((b))));\r\n    }\r\n}\r\n",
  "sourcePath": "F:/MyWork/LianHe/Citizen/SantaFe_Market/src/contracts/Auction_Marketplace.sol",
  "compiler": {
    "name": "solc",
    "version": "0.7.4+commit.3f05b770.Emscripten.clang"
  },
  "schemaVersion": "3.4.1",
  "updatedAt": "2021-07-23T08:33:41.411Z",
  "networkType": "ethereum",
  "devdoc": {
    "kind": "dev",
    "methods": {
      "cancelBid(address,uint256)": {
        "details": "Cancel an already published bid  can only be canceled by seller or the contract owner",
        "params": {
          "_assetId": "- ID of the published NFT",
          "_nftAddress": "- Address of the NFT registry"
        }
      },
      "owner()": {
        "details": "Returns the address of the current owner."
      },
      "renounceOwnership()": {
        "details": "Leaves the contract without owner. It will not be possible to call `onlyOwner` functions anymore. Can only be called by the current owner. NOTE: Renouncing ownership will leave the contract without an owner, thereby removing any functionality that is only available to the owner."
      },
      "transferOwnership(address)": {
        "details": "Transfers ownership of the contract to a new account (`newOwner`). Can only be called by the current owner."
      }
    },
    "version": 1
  },
  "userdoc": {
    "kind": "user",
    "methods": {
      "acceptBid(address,uint256)": {
        "notice": "Executes the sale for a published NFT by accepting a current bid  _nftAddress - Address of the NFT registry  _assetId - ID of the published NFT  _priceInAnyOfTheFourCurrencies - price In Any Of The Four Currencies"
      },
      "cancelOrder(address,uint256)": {
        "notice": "Cancel an already published order  can only be canceled by seller or the contract owner  nftAddress - Address of the NFT registry  assetId - ID of the published NFT"
      },
      "getBid(address,uint256)": {
        "notice": "Creates a new order  _nftAddress - Non fungible contract address  _assetId - ID of the published NFT  _priceInAnyOfTheSupportedCurrencies - price In Any Of The Supported Currencies  _expiresAt - Duration of the order (in hours)"
      },
      "safePlaceBid(address,uint256,string,uint256,uint256)": {
        "notice": "Places a bid for a published NFT  _nftAddress - Address of the NFT registry  _assetId - ID of the published NFT  _priceInAny Of The Supported Currencies - Bid price in acceptedToken currency  _expiresAt - Bid expiration time"
      },
      "setOwnerCutPerMillion(uint256)": {
        "notice": "Sets the share cut for the owner of the contract that's charged to the seller on a successful sale Share amount, from 0 to 99,999"
      }
    },
    "version": 1
  }
}