{
  "contractName": "Auction_Marketplace1155",
  "abi": [
    {
      "inputs": [],
      "stateMutability": "nonpayable",
      "type": "constructor"
    },
    {
      "anonymous": false,
      "inputs": [
        {
          "indexed": false,
          "internalType": "bytes32",
          "name": "id",
          "type": "bytes32"
        }
      ],
      "name": "BidAccepted",
      "type": "event"
    },
    {
      "anonymous": false,
      "inputs": [
        {
          "indexed": false,
          "internalType": "bytes32",
          "name": "id",
          "type": "bytes32"
        }
      ],
      "name": "BidCancelled",
      "type": "event"
    },
    {
      "anonymous": false,
      "inputs": [
        {
          "indexed": false,
          "internalType": "bytes32",
          "name": "id",
          "type": "bytes32"
        },
        {
          "indexed": false,
          "internalType": "address",
          "name": "seller",
          "type": "address"
        },
        {
          "indexed": true,
          "internalType": "address",
          "name": "nftAddress",
          "type": "address"
        },
        {
          "indexed": true,
          "internalType": "uint256",
          "name": "assetId",
          "type": "uint256"
        },
        {
          "indexed": false,
          "internalType": "uint256",
          "name": "amount",
          "type": "uint256"
        },
        {
          "indexed": true,
          "internalType": "address",
          "name": "bidder",
          "type": "address"
        },
        {
          "indexed": false,
          "internalType": "string",
          "name": "tokenSymbol",
          "type": "string"
        },
        {
          "indexed": false,
          "internalType": "uint256",
          "name": "price",
          "type": "uint256"
        },
        {
          "indexed": false,
          "internalType": "uint256",
          "name": "expiresAt",
          "type": "uint256"
        }
      ],
      "name": "BidCreated",
      "type": "event"
    },
    {
      "anonymous": false,
      "inputs": [
        {
          "indexed": false,
          "internalType": "uint256",
          "name": "cutPerMillion",
          "type": "uint256"
        }
      ],
      "name": "ChangedFeePerMillion",
      "type": "event"
    },
    {
      "anonymous": false,
      "inputs": [
        {
          "indexed": false,
          "internalType": "bytes32",
          "name": "id",
          "type": "bytes32"
        }
      ],
      "name": "OrderCancelled",
      "type": "event"
    },
    {
      "anonymous": false,
      "inputs": [
        {
          "indexed": false,
          "internalType": "bytes32",
          "name": "id",
          "type": "bytes32"
        },
        {
          "indexed": true,
          "internalType": "address",
          "name": "seller",
          "type": "address"
        },
        {
          "indexed": true,
          "internalType": "address",
          "name": "nftAddress",
          "type": "address"
        },
        {
          "indexed": true,
          "internalType": "uint256",
          "name": "assetId",
          "type": "uint256"
        },
        {
          "indexed": false,
          "internalType": "uint256",
          "name": "amount",
          "type": "uint256"
        },
        {
          "indexed": false,
          "internalType": "string",
          "name": "tokenSymbol",
          "type": "string"
        },
        {
          "indexed": false,
          "internalType": "uint256",
          "name": "priceInWei",
          "type": "uint256"
        },
        {
          "indexed": false,
          "internalType": "uint256",
          "name": "expiresAt",
          "type": "uint256"
        }
      ],
      "name": "OrderCreated",
      "type": "event"
    },
    {
      "anonymous": false,
      "inputs": [
        {
          "indexed": false,
          "internalType": "bytes32",
          "name": "id",
          "type": "bytes32"
        },
        {
          "indexed": false,
          "internalType": "address",
          "name": "seller",
          "type": "address"
        },
        {
          "indexed": false,
          "internalType": "address",
          "name": "buyer",
          "type": "address"
        },
        {
          "indexed": true,
          "internalType": "address",
          "name": "nftAddress",
          "type": "address"
        },
        {
          "indexed": true,
          "internalType": "uint256",
          "name": "assetId",
          "type": "uint256"
        },
        {
          "indexed": false,
          "internalType": "uint256",
          "name": "amount",
          "type": "uint256"
        },
        {
          "indexed": false,
          "internalType": "string",
          "name": "tokenSymbol",
          "type": "string"
        },
        {
          "indexed": false,
          "internalType": "uint256",
          "name": "priceInWei",
          "type": "uint256"
        },
        {
          "indexed": false,
          "internalType": "uint256",
          "name": "timestamp",
          "type": "uint256"
        }
      ],
      "name": "OrderSuccessful",
      "type": "event"
    },
    {
      "anonymous": false,
      "inputs": [
        {
          "indexed": true,
          "internalType": "address",
          "name": "previousOwner",
          "type": "address"
        },
        {
          "indexed": true,
          "internalType": "address",
          "name": "newOwner",
          "type": "address"
        }
      ],
      "name": "OwnershipTransferred",
      "type": "event"
    },
    {
      "inputs": [],
      "name": "_INTERFACE_ID_ERC1155",
      "outputs": [
        {
          "internalType": "bytes4",
          "name": "",
          "type": "bytes4"
        }
      ],
      "stateMutability": "view",
      "type": "function"
    },
    {
      "inputs": [
        {
          "internalType": "uint256",
          "name": "",
          "type": "uint256"
        }
      ],
      "name": "acceptedTokensSymbols",
      "outputs": [
        {
          "internalType": "string",
          "name": "",
          "type": "string"
        }
      ],
      "stateMutability": "view",
      "type": "function"
    },
    {
      "inputs": [],
      "name": "cutPerMillion",
      "outputs": [
        {
          "internalType": "uint256",
          "name": "",
          "type": "uint256"
        }
      ],
      "stateMutability": "view",
      "type": "function"
    },
    {
      "inputs": [],
      "name": "maxCutPerMillion",
      "outputs": [
        {
          "internalType": "uint256",
          "name": "",
          "type": "uint256"
        }
      ],
      "stateMutability": "view",
      "type": "function"
    },
    {
      "inputs": [],
      "name": "owner",
      "outputs": [
        {
          "internalType": "address",
          "name": "",
          "type": "address"
        }
      ],
      "stateMutability": "view",
      "type": "function"
    },
    {
      "inputs": [],
      "name": "renounceOwnership",
      "outputs": [],
      "stateMutability": "nonpayable",
      "type": "function"
    },
    {
      "inputs": [
        {
          "internalType": "uint256",
          "name": "_cutPerMillion",
          "type": "uint256"
        }
      ],
      "name": "setOwnerCutPerMillion",
      "outputs": [],
      "stateMutability": "nonpayable",
      "type": "function"
    },
    {
      "inputs": [
        {
          "internalType": "address",
          "name": "newOwner",
          "type": "address"
        }
      ],
      "name": "transferOwnership",
      "outputs": [],
      "stateMutability": "nonpayable",
      "type": "function"
    },
    {
      "inputs": [
        {
          "internalType": "bytes32",
          "name": "_orderId",
          "type": "bytes32"
        }
      ],
      "name": "getBid",
      "outputs": [
        {
          "internalType": "bytes32",
          "name": "id",
          "type": "bytes32"
        },
        {
          "internalType": "address",
          "name": "bidder",
          "type": "address"
        },
        {
          "internalType": "string",
          "name": "tokenSymbol",
          "type": "string"
        },
        {
          "internalType": "uint256",
          "name": "price",
          "type": "uint256"
        }
      ],
      "stateMutability": "view",
      "type": "function"
    },
    {
      "inputs": [
        {
          "internalType": "address",
          "name": "_nftAddress",
          "type": "address"
        },
        {
          "internalType": "uint256",
          "name": "_assetId",
          "type": "uint256"
        },
        {
          "internalType": "uint256",
          "name": "_amount",
          "type": "uint256"
        },
        {
          "internalType": "string",
          "name": "_tokenSymbol",
          "type": "string"
        },
        {
          "internalType": "uint256",
          "name": "_price",
          "type": "uint256"
        },
        {
          "internalType": "uint256",
          "name": "_expiresAt",
          "type": "uint256"
        }
      ],
      "name": "createOrder",
      "outputs": [
        {
          "internalType": "bytes32",
          "name": "",
          "type": "bytes32"
        }
      ],
      "stateMutability": "nonpayable",
      "type": "function"
    },
    {
      "inputs": [
        {
          "internalType": "bytes32",
          "name": "orderID",
          "type": "bytes32"
        }
      ],
      "name": "cancelOrder",
      "outputs": [],
      "stateMutability": "nonpayable",
      "type": "function"
    },
    {
      "inputs": [
        {
          "internalType": "bytes32",
          "name": "_orderId",
          "type": "bytes32"
        },
        {
          "internalType": "uint256",
          "name": "_price",
          "type": "uint256"
        },
        {
          "internalType": "uint256",
          "name": "_expiresAt",
          "type": "uint256"
        }
      ],
      "name": "safePlaceBid",
      "outputs": [],
      "stateMutability": "nonpayable",
      "type": "function"
    },
    {
      "inputs": [
        {
          "internalType": "bytes32",
          "name": "orderId",
          "type": "bytes32"
        }
      ],
      "name": "cancelBid",
      "outputs": [],
      "stateMutability": "nonpayable",
      "type": "function"
    },
    {
      "inputs": [
        {
          "internalType": "bytes32",
          "name": "orderId",
          "type": "bytes32"
        }
      ],
      "name": "acceptBid",
      "outputs": [],
      "stateMutability": "nonpayable",
      "type": "function"
    },
    {
      "inputs": [
        {
          "internalType": "address",
          "name": "acceptedTokenAddress",
          "type": "address"
        },
        {
          "internalType": "string",
          "name": "acceptedTokenSymbol",
          "type": "string"
        }
      ],
      "name": "addAcceptedToken",
      "outputs": [
        {
          "internalType": "bool",
          "name": "",
          "type": "bool"
        }
      ],
      "stateMutability": "nonpayable",
      "type": "function"
    },
    {
      "inputs": [],
      "name": "getTokenSymbols",
      "outputs": [
        {
          "internalType": "string[]",
          "name": "",
          "type": "string[]"
        }
      ],
      "stateMutability": "view",
      "type": "function"
    },
    {
      "inputs": [
        {
          "internalType": "string",
          "name": "tokenSymbol",
          "type": "string"
        }
      ],
      "name": "getTokenAddress",
      "outputs": [
        {
          "internalType": "address",
          "name": "",
          "type": "address"
        }
      ],
      "stateMutability": "view",
      "type": "function"
    },
    {
      "inputs": [
        {
          "internalType": "address",
          "name": "",
          "type": "address"
        },
        {
          "internalType": "address",
          "name": "",
          "type": "address"
        },
        {
          "internalType": "uint256",
          "name": "",
          "type": "uint256"
        },
        {
          "internalType": "uint256",
          "name": "",
          "type": "uint256"
        },
        {
          "internalType": "bytes",
          "name": "",
          "type": "bytes"
        }
      ],
      "name": "onERC1155Received",
      "outputs": [
        {
          "internalType": "bytes4",
          "name": "",
          "type": "bytes4"
        }
      ],
      "stateMutability": "nonpayable",
      "type": "function"
    },
    {
      "inputs": [
        {
          "internalType": "address",
          "name": "",
          "type": "address"
        },
        {
          "internalType": "address",
          "name": "",
          "type": "address"
        },
        {
          "internalType": "uint256[]",
          "name": "",
          "type": "uint256[]"
        },
        {
          "internalType": "uint256[]",
          "name": "",
          "type": "uint256[]"
        },
        {
          "internalType": "bytes",
          "name": "",
          "type": "bytes"
        }
      ],
      "name": "onERC1155BatchReceived",
      "outputs": [
        {
          "internalType": "bytes4",
          "name": "",
          "type": "bytes4"
        }
      ],
      "stateMutability": "nonpayable",
      "type": "function"
    },
    {
      "inputs": [
        {
          "internalType": "bytes4",
          "name": "",
          "type": "bytes4"
        }
      ],
      "name": "supportsInterface",
      "outputs": [
        {
          "internalType": "bool",
          "name": "",
          "type": "bool"
        }
      ],
      "stateMutability": "view",
      "type": "function"
    }
  ],
  "bytecode": "0x60806040526161a86001556040518060400160405280600481526020017f4349464900000000000000000000000000000000000000000000000000000000815250600290805190602001906200005792919062000172565b506040518060400160405280600381526020017f424e42000000000000000000000000000000000000000000000000000000000081525060039080519060200190620000a592919062000172565b50348015620000b357600080fd5b506000620000c66200016a60201b60201c565b9050806000806101000a81548173ffffffffffffffffffffffffffffffffffffffff021916908373ffffffffffffffffffffffffffffffffffffffff1602179055508073ffffffffffffffffffffffffffffffffffffffff16600073ffffffffffffffffffffffffffffffffffffffff167f8be0079c531659141344cd1fd0a4f28419497f9722a3daafe3b4186f6b6457e060405160405180910390a35062000228565b600033905090565b828054600181600116156101000203166002900490600052602060002090601f016020900481019282620001aa5760008555620001f6565b82601f10620001c557805160ff1916838001178555620001f6565b82800160010185558215620001f6579182015b82811115620001f5578251825591602001919060010190620001d8565b5b50905062000205919062000209565b5090565b5b80821115620002245760008160009055506001016200020a565b5090565b61520080620002386000396000f3fe608060405234801561001057600080fd5b506004361061012c5760003560e01c80638da5cb5b116100ad578063c555e05011610071578063c555e0501461035a578063c55dc86314610378578063df7cec2814610394578063f23a6e61146103b0578063f2fde38b146103e05761012c565b80638da5cb5b1461027957806391704e1e14610297578063bc197c81146102ca578063bfe92eb1146102fa578063c40912361461032a5761012c565b8063304149d8116100f4578063304149d8146101e9578063377a817b14610219578063673c855314610235578063715018a6146102535780637489ec231461025d5761012c565b806301ffc9a71461013157806302d5e6951461016157806305b938161461019157806319dad16d146101af578063233831cd146101cb575b600080fd5b61014b600480360381019061014691906142a0565b6103fc565b6040516101589190614b33565b60405180910390f35b61017b6004803603810190610176919061430a565b610403565b6040516101889190614d08565b60405180910390f35b6101996104bf565b6040516101a69190614b11565b60405180910390f35b6101c960048036038101906101c4919061430a565b6105a8565b005b6101d36106f5565b6040516101e09190614ced565b60405180910390f35b61020360048036038101906101fe919061410a565b610700565b6040516102109190614b33565b60405180910390f35b610233600480360381019061022e9190614251565b610854565b005b61023d610864565b60405161024a9190614e6a565b60405180910390f35b61025b61086a565b005b61027760048036038101906102729190614228565b6109d7565b005b610281610d56565b60405161028e91906149af565b60405180910390f35b6102b160048036038101906102ac9190614228565b610d7f565b6040516102c19493929190614bdf565b60405180910390f35b6102e460048036038101906102df9190613fac565b610ee8565b6040516102f19190614ced565b60405180910390f35b610314600480360381019061030f919061415e565b610f19565b6040516103219190614b4e565b60405180910390f35b610344600480360381019061033f91906142c9565b610f35565b60405161035191906149af565b60405180910390f35b610362610f7d565b60405161036f9190614e6a565b60405180910390f35b610392600480360381019061038d9190614228565b610f84565b005b6103ae60048036038101906103a99190614228565b611cc9565b005b6103ca60048036038101906103c59190614078565b611ec3565b6040516103d79190614ced565b60405180910390f35b6103fa60048036038101906103f59190613f5a565b611ef2565b005b6000919050565b6007818154811061041357600080fd5b906000526020600020016000915090508054600181600116156101000203166002900480601f0160208091040260200160405190810160405280929190818152602001828054600181600116156101000203166002900480156104b75780601f1061048c576101008083540402835291602001916104b7565b820191906000526020600020905b81548152906001019060200180831161049a57829003601f168201915b505050505081565b60606007805480602002602001604051908101604052809291908181526020016000905b8282101561059f578382906000526020600020018054600181600116156101000203166002900480601f01602080910402602001604051908101604052809291908181526020018280546001816001161561010002031660029004801561058b5780601f106105605761010080835404028352916020019161058b565b820191906000526020600020905b81548152906001019060200180831161056e57829003601f168201915b5050505050815260200190600101906104e3565b50505050905090565b6105b06120e4565b73ffffffffffffffffffffffffffffffffffffffff166105ce610d56565b73ffffffffffffffffffffffffffffffffffffffff1614610657576040517f08c379a00000000000000000000000000000000000000000000000000000000081526004018080602001828103825260208152602001807f4f776e61626c653a2063616c6c6572206973206e6f7420746865206f776e657281525060200191505060405180910390fd5b620186a081106106b2576040517f08c379a00000000000000000000000000000000000000000000000000000000081526004018080602001828103825260368152602001806151956036913960400191505060405180910390fd5b806001819055507fdb629698afb23c88e17ec4d29f97b3907c3e1fbfd116fa15f97569c7c16b3e4d6001546040518082815260200191505060405180910390a150565b63d9b67a2660e01b81565b600061070a6120e4565b73ffffffffffffffffffffffffffffffffffffffff16610728610d56565b73ffffffffffffffffffffffffffffffffffffffff16146107b1576040517f08c379a00000000000000000000000000000000000000000000000000000000081526004018080602001828103825260208152602001807f4f776e61626c653a2063616c6c6572206973206e6f7420746865206f776e657281525060200191505060405180910390fd5b826006836040516107c291906148bc565b908152602001604051809103902060006101000a81548173ffffffffffffffffffffffffffffffffffffffff021916908373ffffffffffffffffffffffffffffffffffffffff160217905550600782908060018154018082558091505060019003906000526020600020016000909190919091509080519060200190610849929190613c30565b506001905092915050565b61085f8383836120ec565b505050565b60015481565b6108726120e4565b73ffffffffffffffffffffffffffffffffffffffff16610890610d56565b73ffffffffffffffffffffffffffffffffffffffff1614610919576040517f08c379a00000000000000000000000000000000000000000000000000000000081526004018080602001828103825260208152602001807f4f776e61626c653a2063616c6c6572206973206e6f7420746865206f776e657281525060200191505060405180910390fd5b600073ffffffffffffffffffffffffffffffffffffffff1660008054906101000a900473ffffffffffffffffffffffffffffffffffffffff1673ffffffffffffffffffffffffffffffffffffffff167f8be0079c531659141344cd1fd0a4f28419497f9722a3daafe3b4186f6b6457e060405160405180910390a360008060006101000a81548173ffffffffffffffffffffffffffffffffffffffff021916908373ffffffffffffffffffffffffffffffffffffffff160217905550565b6109df613cbe565b6004600083815260200190815260200160002060405180610100016040529081600082015481526020016001820160009054906101000a900473ffffffffffffffffffffffffffffffffffffffff1673ffffffffffffffffffffffffffffffffffffffff1673ffffffffffffffffffffffffffffffffffffffff1681526020016002820160009054906101000a900473ffffffffffffffffffffffffffffffffffffffff1673ffffffffffffffffffffffffffffffffffffffff1673ffffffffffffffffffffffffffffffffffffffff1681526020016003820154815260200160048201548152602001600582018054600181600116156101000203166002900480601f016020809104026020016040519081016040528092919081815260200182805460018160011615610100020316600290048015610b615780601f10610b3657610100808354040283529160200191610b61565b820191906000526020600020905b815481529060010190602001808311610b4457829003601f168201915b505050505081526020016006820154815260200160078201548152505090503373ffffffffffffffffffffffffffffffffffffffff16816020015173ffffffffffffffffffffffffffffffffffffffff1614610bf2576040517f08c379a0000000000000000000000000000000000000000000000000000000008152600401610be990614dca565b60405180910390fd5b610bfa613d32565b600560008481526020019081526020016000206040518060a0016040529081600082015481526020016001820160009054906101000a900473ffffffffffffffffffffffffffffffffffffffff1673ffffffffffffffffffffffffffffffffffffffff1673ffffffffffffffffffffffffffffffffffffffff168152602001600282018054600181600116156101000203166002900480601f016020809104026020016040519081016040528092919081815260200182805460018160011615610100020316600290048015610d115780601f10610ce657610100808354040283529160200191610d11565b820191906000526020600020905b815481529060010190602001808311610cf457829003601f168201915b505050505081526020016003820154815260200160048201548152505090506000801b816000015114610d4857610d4783612968565b5b610d5183612d30565b505050565b60008060009054906101000a900473ffffffffffffffffffffffffffffffffffffffff16905090565b60008060606000610d8e613d32565b600560008781526020019081526020016000206040518060a0016040529081600082015481526020016001820160009054906101000a900473ffffffffffffffffffffffffffffffffffffffff1673ffffffffffffffffffffffffffffffffffffffff1673ffffffffffffffffffffffffffffffffffffffff168152602001600282018054600181600116156101000203166002900480601f016020809104026020016040519081016040528092919081815260200182805460018160011615610100020316600290048015610ea55780601f10610e7a57610100808354040283529160200191610ea5565b820191906000526020600020905b815481529060010190602001808311610e8857829003601f168201915b5050505050815260200160038201548152602001600482015481525050905080600001519450806020015193508060400151925080606001519150509193509193565b60007fbc197c819b3e337a6f9652dd10becd7eef83032af3b9d958d3d42f6694146621905098975050505050505050565b6000610f29878787878787613031565b90509695505050505050565b6000600682604051610f4791906148bc565b908152602001604051809103902060009054906101000a900473ffffffffffffffffffffffffffffffffffffffff169050919050565b620186a081565b610f8c613cbe565b610f958261336a565b90503373ffffffffffffffffffffffffffffffffffffffff16816020015173ffffffffffffffffffffffffffffffffffffffff1614611009576040517f08c379a000000000000000000000000000000000000000000000000000000000815260040161100090614dca565b60405180910390fd5b611011613d32565b600560008481526020019081526020016000206040518060a0016040529081600082015481526020016001820160009054906101000a900473ffffffffffffffffffffffffffffffffffffffff1673ffffffffffffffffffffffffffffffffffffffff1673ffffffffffffffffffffffffffffffffffffffff168152602001600282018054600181600116156101000203166002900480601f0160208091040260200160405190810160405280929190818152602001828054600181600116156101000203166002900480156111285780601f106110fd57610100808354040283529160200191611128565b820191906000526020600020905b81548152906001019060200180831161110b57829003601f168201915b50505050508152602001600382015481526020016004820154815250509050428160800151101561118e576040517f08c379a000000000000000000000000000000000000000000000000000000000815260040161118590614e0a565b60405180910390fd5b600560008481526020019081526020016000206000808201600090556001820160006101000a81549073ffffffffffffffffffffffffffffffffffffffff02191690556002820160006111e19190613d7a565b6003820160009055600482016000905550507ff8c7d5572fa269efc040934ae7553d57f8906bffd616254bef0b94e2b569e41681600001516040516112269190614b4e565b60405180910390a160008060068460a0015160405161124591906148bc565b908152602001604051809103902060009054906101000a900473ffffffffffffffffffffffffffffffffffffffff16905060008190506000856040015173ffffffffffffffffffffffffffffffffffffffff166301ffc9a7630760a14c60e01b6040518263ffffffff1660e01b81526004016112c19190614ced565b60206040518083038186803b1580156112d957600080fd5b505afa1580156112ed573d6000803e3d6000fd5b505050506040513d601f19601f8201168201806040525081019061131191906141ff565b156115fb576000866040015173ffffffffffffffffffffffffffffffffffffffff1663caa47fbf88606001516040518263ffffffff1660e01b81526004016113599190614e6a565b60206040518083038186803b15801561137157600080fd5b505afa158015611385573d6000803e3d6000fd5b505050506040513d601f19601f820116820180604052508101906113a99190613f83565b90506000876040015173ffffffffffffffffffffffffffffffffffffffff16639e4c014189606001516040518263ffffffff1660e01b81526004016113ee9190614e6a565b60206040518083038186803b15801561140657600080fd5b505afa15801561141a573d6000803e3d6000fd5b505050506040513d601f19601f8201168201806040525081019061143e9190614333565b905061146c620f424061145e838a606001516135a990919063ffffffff16565b61362f90919063ffffffff16565b92506115168860a0015160038054600181600116156101000203166002900480601f01602080910402602001604051908101604052809291908181526020018280546001816001161561010002031660029004801561150c5780601f106114e15761010080835404028352916020019161150c565b820191906000526020600020905b8154815290600101906020018083116114ef57829003601f168201915b50505050506136b8565b15611567578173ffffffffffffffffffffffffffffffffffffffff166108fc849081150290604051600060405180830381858888f19350505050158015611561573d6000803e3d6000fd5b506115f8565b8373ffffffffffffffffffffffffffffffffffffffff166323b872dd3084866040518463ffffffff1660e01b81526004016115a493929190614a59565b602060405180830381600087803b1580156115be57600080fd5b505af11580156115d2573d6000803e3d6000fd5b505050506040513d601f19601f820116820180604052508101906115f691906141ff565b505b50505b6000600154111561192c57611634620f424061162660015488606001516135a990919063ffffffff16565b61362f90919063ffffffff16565b93506116de8660a0015160028054600181600116156101000203166002900480601f0160208091040260200160405190810160405280929190818152602001828054600181600116156101000203166002900480156116d45780601f106116a9576101008083540402835291602001916116d4565b820191906000526020600020905b8154815290600101906020018083116116b757829003601f168201915b50505050506136b8565b15611792578173ffffffffffffffffffffffffffffffffffffffff166323b872dd30611708610d56565b61171c60038961362f90919063ffffffff16565b6040518463ffffffff1660e01b815260040161173a93929190614a59565b602060405180830381600087803b15801561175457600080fd5b505af1158015611768573d6000803e3d6000fd5b505050506040513d601f19601f8201168201806040525081019061178c91906141ff565b5061192b565b61183a8660a0015160038054600181600116156101000203166002900480601f0160208091040260200160405190810160405280929190818152602001828054600181600116156101000203166002900480156118305780601f1061180557610100808354040283529160200191611830565b820191906000526020600020905b81548152906001019060200180831161181357829003601f168201915b50505050506136b8565b1561189257611847610d56565b73ffffffffffffffffffffffffffffffffffffffff166108fc859081150290604051600060405180830381858888f1935050505015801561188c573d6000803e3d6000fd5b5061192a565b8173ffffffffffffffffffffffffffffffffffffffff166323b872dd306118b7610d56565b876040518463ffffffff1660e01b81526004016118d693929190614a59565b602060405180830381600087803b1580156118f057600080fd5b505af1158015611904573d6000803e3d6000fd5b505050506040513d601f19601f8201168201806040525081019061192891906141ff565b505b5b5b6119d48660a0015160028054600181600116156101000203166002900480601f0160208091040260200160405190810160405280929190818152602001828054600181600116156101000203166002900480156119ca5780601f1061199f576101008083540402835291602001916119ca565b820191906000526020600020905b8154815290600101906020018083116119ad57829003601f168201915b50505050506136b8565b15611ac6576000611a2a82611a1c611a0960026119fb60038b61362f90919063ffffffff16565b6135a990919063ffffffff16565b896060015161371190919063ffffffff16565b61371190919063ffffffff16565b90508273ffffffffffffffffffffffffffffffffffffffff166323b872dd308960200151846040518463ffffffff1660e01b8152600401611a6d93929190614a59565b602060405180830381600087803b158015611a8757600080fd5b505af1158015611a9b573d6000803e3d6000fd5b505050506040513d601f19601f82011682018060405250810190611abf91906141ff565b5050611ca9565b611b6e8660a0015160038054600181600116156101000203166002900480601f016020809104026020016040519081016040528092919081815260200182805460018160011615610100020316600290048015611b645780601f10611b3957610100808354040283529160200191611b64565b820191906000526020600020905b815481529060010190602001808311611b4757829003601f168201915b50505050506136b8565b15611beb57856020015173ffffffffffffffffffffffffffffffffffffffff166108fc611bba83611bac888a6060015161371190919063ffffffff16565b61371190919063ffffffff16565b9081150290604051600060405180830381858888f19350505050158015611be5573d6000803e3d6000fd5b50611ca8565b8173ffffffffffffffffffffffffffffffffffffffff166323b872dd308860200151611c3685611c288a8c6060015161371190919063ffffffff16565b61371190919063ffffffff16565b6040518463ffffffff1660e01b8152600401611c5493929190614a59565b602060405180830381600087803b158015611c6e57600080fd5b505af1158015611c82573d6000803e3d6000fd5b505050506040513d601f19601f82011682018060405250810190611ca691906141ff565b505b5b611cc0866000015186602001518760600151613794565b50505050505050565b611cd1613d32565b600560008381526020019081526020016000206040518060a0016040529081600082015481526020016001820160009054906101000a900473ffffffffffffffffffffffffffffffffffffffff1673ffffffffffffffffffffffffffffffffffffffff1673ffffffffffffffffffffffffffffffffffffffff168152602001600282018054600181600116156101000203166002900480601f016020809104026020016040519081016040528092919081815260200182805460018160011615610100020316600290048015611de85780601f10611dbd57610100808354040283529160200191611de8565b820191906000526020600020905b815481529060010190602001808311611dcb57829003601f168201915b505050505081526020016003820154815260200160048201548152505090503373ffffffffffffffffffffffffffffffffffffffff16816020015173ffffffffffffffffffffffffffffffffffffffff161480611e775750611e48610d56565b73ffffffffffffffffffffffffffffffffffffffff163373ffffffffffffffffffffffffffffffffffffffff16145b611eb6576040517f08c379a0000000000000000000000000000000000000000000000000000000008152600401611ead90614d6a565b60405180910390fd5b611ebf82612968565b5050565b60007ff23a6e612e1ff4830e658fe43f4e3cb4a5f8170bd5d9e69fb5d7a7fa9e4fdf9790509695505050505050565b611efa6120e4565b73ffffffffffffffffffffffffffffffffffffffff16611f18610d56565b73ffffffffffffffffffffffffffffffffffffffff1614611fa1576040517f08c379a00000000000000000000000000000000000000000000000000000000081526004018080602001828103825260208152602001807f4f776e61626c653a2063616c6c6572206973206e6f7420746865206f776e657281525060200191505060405180910390fd5b600073ffffffffffffffffffffffffffffffffffffffff168173ffffffffffffffffffffffffffffffffffffffff161415612027576040517f08c379a000000000000000000000000000000000000000000000000000000000815260040180806020018281038252602681526020018061514e6026913960400191505060405180910390fd5b8073ffffffffffffffffffffffffffffffffffffffff1660008054906101000a900473ffffffffffffffffffffffffffffffffffffffff1673ffffffffffffffffffffffffffffffffffffffff167f8be0079c531659141344cd1fd0a4f28419497f9722a3daafe3b4186f6b6457e060405160405180910390a3806000806101000a81548173ffffffffffffffffffffffffffffffffffffffff021916908373ffffffffffffffffffffffffffffffffffffffff16021790555050565b600033905090565b6120f4613cbe565b6120fd8461336a565b90508060e00151821115612113578060e0015191505b61211b613d32565b600560008681526020019081526020016000206040518060a0016040529081600082015481526020016001820160009054906101000a900473ffffffffffffffffffffffffffffffffffffffff1673ffffffffffffffffffffffffffffffffffffffff1673ffffffffffffffffffffffffffffffffffffffff168152602001600282018054600181600116156101000203166002900480601f0160208091040260200160405190810160405280929190818152602001828054600181600116156101000203166002900480156122325780601f1061220757610100808354040283529160200191612232565b820191906000526020600020905b81548152906001019060200180831161221557829003601f168201915b505050505081526020016003820154815260200160048201548152505090506000801b8160000151146124ff57428160800151106123af576123128260a0015160038054600181600116156101000203166002900480601f0160208091040260200160405190810160405280929190818152602001828054600181600116156101000203166002900480156123085780601f106122dd57610100808354040283529160200191612308565b820191906000526020600020905b8154815290600101906020018083116122eb57829003601f168201915b50505050506136b8565b1561236357806060015134101561235e576040517f08c379a000000000000000000000000000000000000000000000000000000000815260040161235590614e4a565b60405180910390fd5b6123aa565b806060015184116123a9576040517f08c379a00000000000000000000000000000000000000000000000000000000081526004016123a090614e4a565b60405180910390fd5b5b6124f1565b6124578260a0015160038054600181600116156101000203166002900480601f01602080910402602001604051908101604052809291908181526020018280546001816001161561010002031660029004801561244d5780601f106124225761010080835404028352916020019161244d565b820191906000526020600020905b81548152906001019060200180831161243057829003601f168201915b50505050506136b8565b156124a8578160c001513410156124a3576040517f08c379a000000000000000000000000000000000000000000000000000000000815260040161249a90614e2a565b60405180910390fd5b6124f0565b8160c001518410156124ef576040517f08c379a00000000000000000000000000000000000000000000000000000000081526004016124e690614e2a565b60405180910390fd5b5b5b6124fa85612968565b612641565b6125a78260a0015160038054600181600116156101000203166002900480601f01602080910402602001604051908101604052809291908181526020018280546001816001161561010002031660029004801561259d5780601f106125725761010080835404028352916020019161259d565b820191906000526020600020905b81548152906001019060200180831161258057829003601f168201915b50505050506136b8565b156125f8578160c001513410156125f3576040517f08c379a00000000000000000000000000000000000000000000000000000000081526004016125ea90614e2a565b60405180910390fd5b612640565b8160c0015184101561263f576040517f08c379a000000000000000000000000000000000000000000000000000000000815260040161263690614e2a565b60405180910390fd5b5b5b600060068360a0015160405161265791906148bc565b908152602001604051809103902060009054906101000a900473ffffffffffffffffffffffffffffffffffffffff16905060008190506127358460a0015160038054600181600116156101000203166002900480601f01602080910402602001604051908101604052809291908181526020018280546001816001161561010002031660029004801561272b5780601f106127005761010080835404028352916020019161272b565b820191906000526020600020905b81548152906001019060200180831161270e57829003601f168201915b50505050506136b8565b6127ca578073ffffffffffffffffffffffffffffffffffffffff166323b872dd3330896040518463ffffffff1660e01b8152600401612776939291906149ca565b602060405180830381600087803b15801561279057600080fd5b505af11580156127a4573d6000803e3d6000fd5b505050506040513d601f19601f820116820180604052508101906127c891906141ff565b505b60004233866000015189896040516020016127e9959493929190614950565b6040516020818303038152906040528051906020012090506040518060a001604052808281526020013373ffffffffffffffffffffffffffffffffffffffff1681526020018660a00151815260200188815260200187815250600560008a81526020019081526020016000206000820151816000015560208201518160010160006101000a81548173ffffffffffffffffffffffffffffffffffffffff021916908373ffffffffffffffffffffffffffffffffffffffff16021790555060408201518160020190805190602001906128c2929190613c30565b5060608201518160030155608082015181600401559050503373ffffffffffffffffffffffffffffffffffffffff168560600151866040015173ffffffffffffffffffffffffffffffffffffffff167f4cd547be94289200502f2d6ab679321a444aca3c086cecff1e152f751100aae78489602001518a608001518b60a001518e8e60405161295696959493929190614c2b565b60405180910390a45050505050505050565b612970613d32565b600560008381526020019081526020016000206040518060a0016040529081600082015481526020016001820160009054906101000a900473ffffffffffffffffffffffffffffffffffffffff1673ffffffffffffffffffffffffffffffffffffffff1673ffffffffffffffffffffffffffffffffffffffff168152602001600282018054600181600116156101000203166002900480601f016020809104026020016040519081016040528092919081815260200182805460018160011615610100020316600290048015612a875780601f10612a5c57610100808354040283529160200191612a87565b820191906000526020600020905b815481529060010190602001808311612a6a57829003601f168201915b50505050508152602001600382015481526020016004820154815250509050600560008381526020019081526020016000206000808201600090556001820160006101000a81549073ffffffffffffffffffffffffffffffffffffffff0219169055600282016000612af99190613d7a565b600382016000905560048201600090555050600060068260400151604051612b2191906148bc565b908152602001604051809103902060009054906101000a900473ffffffffffffffffffffffffffffffffffffffff1690506000819050612bff836040015160038054600181600116156101000203166002900480601f016020809104026020016040519081016040528092919081815260200182805460018160011615610100020316600290048015612bf55780601f10612bca57610100808354040283529160200191612bf5565b820191906000526020600020905b815481529060010190602001808311612bd857829003601f168201915b50505050506136b8565b15612c5857826020015173ffffffffffffffffffffffffffffffffffffffff166108fc84606001519081150290604051600060405180830381858888f19350505050158015612c52573d6000803e3d6000fd5b50612cef565b8073ffffffffffffffffffffffffffffffffffffffff1663a9059cbb846020015185606001516040518363ffffffff1660e01b8152600401612c9b929190614ae8565b602060405180830381600087803b158015612cb557600080fd5b505af1158015612cc9573d6000803e3d6000fd5b505050506040513d601f19601f82011682018060405250810190612ced91906141ff565b505b7fb56dc4096011ba5fd2e46e5c3e7b04dec423b5e7b5fce9a17a419d77c832177c8360000151604051612d229190614b4e565b60405180910390a150505050565b612d38613cbe565b6004600083815260200190815260200160002060405180610100016040529081600082015481526020016001820160009054906101000a900473ffffffffffffffffffffffffffffffffffffffff1673ffffffffffffffffffffffffffffffffffffffff1673ffffffffffffffffffffffffffffffffffffffff1681526020016002820160009054906101000a900473ffffffffffffffffffffffffffffffffffffffff1673ffffffffffffffffffffffffffffffffffffffff1673ffffffffffffffffffffffffffffffffffffffff1681526020016003820154815260200160048201548152602001600582018054600181600116156101000203166002900480601f016020809104026020016040519081016040528092919081815260200182805460018160011615610100020316600290048015612eba5780601f10612e8f57610100808354040283529160200191612eba565b820191906000526020600020905b815481529060010190602001808311612e9d57829003601f168201915b50505050508152602001600682015481526020016007820154815250509050600460008381526020019081526020016000206000808201600090556001820160006101000a81549073ffffffffffffffffffffffffffffffffffffffff02191690556002820160006101000a81549073ffffffffffffffffffffffffffffffffffffffff021916905560038201600090556004820160009055600582016000612f639190613d7a565b600682016000905560078201600090555050806040015173ffffffffffffffffffffffffffffffffffffffff1663f242432a308360200151846060015185608001516040518563ffffffff1660e01b8152600401612fc49493929190614a90565b600060405180830381600087803b158015612fde57600080fd5b505af1158015612ff2573d6000803e3d6000fd5b505050507f5152abf959f6564662358c2e52b702259b78bac5ee7842a0f01937e670efcc7d826040516130259190614b4e565b60405180910390a15050565b60008061303d88613acf565b905060008411613082576040517f08c379a000000000000000000000000000000000000000000000000000000000815260040161307990614d4a565b60405180910390fd5b613096603c42613ba890919063ffffffff16565b83116130d7576040517f08c379a00000000000000000000000000000000000000000000000000000000081526004016130ce90614d8a565b60405180910390fd5b8073ffffffffffffffffffffffffffffffffffffffff1663f242432a33308a8a6040518563ffffffff1660e01b81526004016131169493929190614a01565b600060405180830381600087803b15801561313057600080fd5b505af1158015613144573d6000803e3d6000fd5b505050506000426131536120e4565b8a8a8a8a8a60405160200161316e97969594939291906148d3565b6040516020818303038152906040528051906020012090506040518061010001604052808281526020016131a06120e4565b73ffffffffffffffffffffffffffffffffffffffff1681526020018a73ffffffffffffffffffffffffffffffffffffffff16815260200189815260200188815260200187815260200186815260200185815250600460008381526020019081526020016000206000820151816000015560208201518160010160006101000a81548173ffffffffffffffffffffffffffffffffffffffff021916908373ffffffffffffffffffffffffffffffffffffffff16021790555060408201518160020160006101000a81548173ffffffffffffffffffffffffffffffffffffffff021916908373ffffffffffffffffffffffffffffffffffffffff160217905550606082015181600301556080820151816004015560a08201518160050190805190602001906132ce929190613c30565b5060c0820151816006015560e08201518160070155905050878973ffffffffffffffffffffffffffffffffffffffff166133066120e4565b73ffffffffffffffffffffffffffffffffffffffff167fde5db03d591a7f03a4014a94140b3c980a78e272c8ff9cede12351a6e393f098848b8b8b8b604051613353959493929190614c93565b60405180910390a480925050509695505050505050565b613372613cbe565b6004600083815260200190815260200160002060405180610100016040529081600082015481526020016001820160009054906101000a900473ffffffffffffffffffffffffffffffffffffffff1673ffffffffffffffffffffffffffffffffffffffff1673ffffffffffffffffffffffffffffffffffffffff1681526020016002820160009054906101000a900473ffffffffffffffffffffffffffffffffffffffff1673ffffffffffffffffffffffffffffffffffffffff1673ffffffffffffffffffffffffffffffffffffffff1681526020016003820154815260200160048201548152602001600582018054600181600116156101000203166002900480601f0160208091040260200160405190810160405280929190818152602001828054600181600116156101000203166002900480156134f45780601f106134c9576101008083540402835291602001916134f4565b820191906000526020600020905b8154815290600101906020018083116134d757829003601f168201915b505050505081526020016006820154815260200160078201548152505090506000801b8160000151141561355d576040517f08c379a000000000000000000000000000000000000000000000000000000000815260040161355490614dea565b60405180910390fd5b428160e0015110156135a4576040517f08c379a000000000000000000000000000000000000000000000000000000000815260040161359b90614d2a565b60405180910390fd5b919050565b6000808314156135bc5760009050613629565b60008284029050828482816135cd57fe5b0414613624576040517f08c379a00000000000000000000000000000000000000000000000000000000081526004018080602001828103825260218152602001806151746021913960400191505060405180910390fd5b809150505b92915050565b60008082116136a6576040517f08c379a000000000000000000000000000000000000000000000000000000000815260040180806020018281038252601a8152602001807f536166654d6174683a206469766973696f6e206279207a65726f00000000000081525060200191505060405180910390fd5b8183816136af57fe5b04905092915050565b6000816040516020016136cb91906148bc565b60405160208183030381529060405280519060200120836040516020016136f291906148bc565b6040516020818303038152906040528051906020012014905092915050565b600082821115613789576040517f08c379a000000000000000000000000000000000000000000000000000000000815260040180806020018281038252601e8152602001807f536166654d6174683a207375627472616374696f6e206f766572666c6f77000081525060200191505060405180910390fd5b818303905092915050565b61379c613cbe565b6004600085815260200190815260200160002060405180610100016040529081600082015481526020016001820160009054906101000a900473ffffffffffffffffffffffffffffffffffffffff1673ffffffffffffffffffffffffffffffffffffffff1673ffffffffffffffffffffffffffffffffffffffff1681526020016002820160009054906101000a900473ffffffffffffffffffffffffffffffffffffffff1673ffffffffffffffffffffffffffffffffffffffff1673ffffffffffffffffffffffffffffffffffffffff1681526020016003820154815260200160048201548152602001600582018054600181600116156101000203166002900480601f01602080910402602001604051908101604052809291908181526020018280546001816001161561010002031660029004801561391e5780601f106138f35761010080835404028352916020019161391e565b820191906000526020600020905b81548152906001019060200180831161390157829003601f168201915b50505050508152602001600682015481526020016007820154815250509050806040015173ffffffffffffffffffffffffffffffffffffffff1663f242432a3085846060015185608001516040518563ffffffff1660e01b81526004016139889493929190614a90565b600060405180830381600087803b1580156139a257600080fd5b505af11580156139b6573d6000803e3d6000fd5b50505050600460008581526020019081526020016000206000808201600090556001820160006101000a81549073ffffffffffffffffffffffffffffffffffffffff02191690556002820160006101000a81549073ffffffffffffffffffffffffffffffffffffffff021916905560038201600090556004820160009055600582016000613a449190613d7a565b6006820160009055600782016000905550508060600151816040015173ffffffffffffffffffffffffffffffffffffffff167f85700a0fa5444cc686665384569252bb5d399da8c8c7587208d62fc23deaca66836000015184602001518786608001518760a001518942604051613ac19796959493929190614b69565b60405180910390a350505050565b60008173ffffffffffffffffffffffffffffffffffffffff166301ffc9a763d9b67a2660e01b6040518263ffffffff1660e01b8152600401613b119190614ced565b60206040518083038186803b158015613b2957600080fd5b505afa158015613b3d573d6000803e3d6000fd5b505050506040513d601f19601f82011682018060405250810190613b6191906141ff565b613ba0576040517f08c379a0000000000000000000000000000000000000000000000000000000008152600401613b9790614daa565b60405180910390fd5b819050919050565b600080828401905083811015613c26576040517f08c379a000000000000000000000000000000000000000000000000000000000815260040180806020018281038252601b8152602001807f536166654d6174683a206164646974696f6e206f766572666c6f77000000000081525060200191505060405180910390fd5b8091505092915050565b828054600181600116156101000203166002900490600052602060002090601f016020900481019282613c665760008555613cad565b82601f10613c7f57805160ff1916838001178555613cad565b82800160010185558215613cad579182015b82811115613cac578251825591602001919060010190613c91565b5b509050613cba9190613dc2565b5090565b60405180610100016040528060008019168152602001600073ffffffffffffffffffffffffffffffffffffffff168152602001600073ffffffffffffffffffffffffffffffffffffffff16815260200160008152602001600081526020016060815260200160008152602001600081525090565b6040518060a0016040528060008019168152602001600073ffffffffffffffffffffffffffffffffffffffff1681526020016060815260200160008152602001600081525090565b50805460018160011615610100020316600290046000825580601f10613da05750613dbf565b601f016020900490600052602060002090810190613dbe9190613dc2565b5b50565b5b80821115613ddb576000816000905550600101613dc3565b5090565b600081359050613dee816150da565b92915050565b600081519050613e03816150da565b92915050565b60008083601f840112613e1b57600080fd5b8235905067ffffffffffffffff811115613e3457600080fd5b602083019150836020820283011115613e4c57600080fd5b9250929050565b600081519050613e62816150f1565b92915050565b600081359050613e7781615108565b92915050565b600081359050613e8c8161511f565b92915050565b60008083601f840112613ea457600080fd5b8235905067ffffffffffffffff811115613ebd57600080fd5b602083019150836001820283011115613ed557600080fd5b9250929050565b600082601f830112613eed57600080fd5b8135613f00613efb82614eb6565b614e85565b91508082526020830160208301858383011115613f1c57600080fd5b613f2783828461502e565b50505092915050565b600081359050613f3f81615136565b92915050565b600081519050613f5481615136565b92915050565b600060208284031215613f6c57600080fd5b6000613f7a84828501613ddf565b91505092915050565b600060208284031215613f9557600080fd5b6000613fa384828501613df4565b91505092915050565b60008060008060008060008060a0898b031215613fc857600080fd5b6000613fd68b828c01613ddf565b9850506020613fe78b828c01613ddf565b975050604089013567ffffffffffffffff81111561400457600080fd5b6140108b828c01613e09565b9650965050606089013567ffffffffffffffff81111561402f57600080fd5b61403b8b828c01613e09565b9450945050608089013567ffffffffffffffff81111561405a57600080fd5b6140668b828c01613e92565b92509250509295985092959890939650565b60008060008060008060a0878903121561409157600080fd5b600061409f89828a01613ddf565b96505060206140b089828a01613ddf565b95505060406140c189828a01613f30565b94505060606140d289828a01613f30565b935050608087013567ffffffffffffffff8111156140ef57600080fd5b6140fb89828a01613e92565b92509250509295509295509295565b6000806040838503121561411d57600080fd5b600061412b85828601613ddf565b925050602083013567ffffffffffffffff81111561414857600080fd5b61415485828601613edc565b9150509250929050565b60008060008060008060c0878903121561417757600080fd5b600061418589828a01613ddf565b965050602061419689828a01613f30565b95505060406141a789828a01613f30565b945050606087013567ffffffffffffffff8111156141c457600080fd5b6141d089828a01613edc565b93505060806141e189828a01613f30565b92505060a06141f289828a01613f30565b9150509295509295509295565b60006020828403121561421157600080fd5b600061421f84828501613e53565b91505092915050565b60006020828403121561423a57600080fd5b600061424884828501613e68565b91505092915050565b60008060006060848603121561426657600080fd5b600061427486828701613e68565b935050602061428586828701613f30565b925050604061429686828701613f30565b9150509250925092565b6000602082840312156142b257600080fd5b60006142c084828501613e7d565b91505092915050565b6000602082840312156142db57600080fd5b600082013567ffffffffffffffff8111156142f557600080fd5b61430184828501613edc565b91505092915050565b60006020828403121561431c57600080fd5b600061432a84828501613f30565b91505092915050565b60006020828403121561434557600080fd5b600061435384828501613f45565b91505092915050565b60006143688383614475565b905092915050565b61437981614ff8565b82525050565b61439061438b82614f7a565b615082565b82525050565b61439f81614f68565b82525050565b6143b66143b182614f68565b615070565b82525050565b60006143c782614ef6565b6143d18185614f19565b9350836020820285016143e385614ee6565b8060005b8581101561441f5784840389528151614400858261435c565b945061440b83614f0c565b925060208a019950506001810190506143e7565b50829750879550505050505092915050565b61443a81614f8c565b82525050565b61444981614f98565b82525050565b61446061445b82614f98565b615094565b82525050565b61446f81614fa2565b82525050565b600061448082614f01565b61448a8185614f3b565b935061449a81856020860161503d565b6144a3816150bc565b840191505092915050565b60006144b982614f01565b6144c38185614f4c565b93506144d381856020860161503d565b6144dc816150bc565b840191505092915050565b60006144f282614f01565b6144fc8185614f5d565b935061450c81856020860161503d565b80840191505092915050565b6000614525601a83614f4c565b91507f4d61726b6574706c6163653a206f7264657220657870697265640000000000006000830152602082019050919050565b6000614565602a83614f4c565b91507f4d61726b6574706c6163653a2050726963652073686f756c642062652062696760008301527f676572207468616e2030000000000000000000000000000000000000000000006020830152604082019050919050565b60006145cb602083614f4c565b91507f4d61726b6574706c6163653a20556e617574686f72697a65642073656e6465726000830152602082019050919050565b600061460b604383614f4c565b91507f4d61726b6574706c6163653a205075626c69636174696f6e2073686f756c642060008301527f6265206d6f7265207468616e2031206d696e75746520696e207468652066757460208301527f75726500000000000000000000000000000000000000000000000000000000006040830152606082019050919050565b6000614697603583614f4c565b91507f546865204e465420636f6e74726163742068617320616e20696e76616c69642060008301527f45524337323120696d706c656d656e746174696f6e00000000000000000000006020830152604082019050919050565b60006146fd602083614f4c565b91507f4d61726b6574706c6163653a20756e617574686f72697a65642073656e6465726000830152602082019050919050565b600061473d602083614f4c565b91507f4d61726b6574706c6163653a206173736574206e6f74207075626c69736865646000830152602082019050919050565b600061477d601c83614f4c565b91507f4d61726b6574706c6163653a20746865206269642065787069726564000000006000830152602082019050919050565b60006147bd603083614f4c565b91507f4d61726b6574706c6163653a206269642073686f756c64206265203e3d20696e60008301527f6974616c206f72646572207072696365000000000000000000000000000000006020830152604082019050919050565b6000614823600083614f2a565b9150600082019050919050565b600061483d603583614f4c565b91507f4d61726b6574706c6163653a206269642070726963652073686f756c6420626560008301527f20686967686572207468616e206c6173742062696400000000000000000000006020830152604082019050919050565b61489f81614fee565b82525050565b6148b66148b182614fee565b6150b0565b82525050565b60006148c882846144e7565b915081905092915050565b60006148df828a6148a5565b6020820191506148ef828961437f565b6014820191506148ff82886143a5565b60148201915061490f82876148a5565b60208201915061491f82866148a5565b60208201915061492f82856144e7565b915061493b82846148a5565b60208201915081905098975050505050505050565b600061495c82886148a5565b60208201915061496c828761437f565b60148201915061497c828661444f565b60208201915061498c82856148a5565b60208201915061499c82846148a5565b6020820191508190509695505050505050565b60006020820190506149c46000830184614396565b92915050565b60006060820190506149df6000830186614370565b6149ec6020830185614396565b6149f96040830184614896565b949350505050565b600060a082019050614a166000830187614370565b614a236020830186614396565b614a306040830185614896565b614a3d6060830184614896565b8181036080830152614a4e81614816565b905095945050505050565b6000606082019050614a6e6000830186614396565b614a7b6020830185614396565b614a886040830184614896565b949350505050565b600060a082019050614aa56000830187614396565b614ab26020830186614396565b614abf6040830185614896565b614acc6060830184614896565b8181036080830152614add81614816565b905095945050505050565b6000604082019050614afd6000830185614396565b614b0a6020830184614896565b9392505050565b60006020820190508181036000830152614b2b81846143bc565b905092915050565b6000602082019050614b486000830184614431565b92915050565b6000602082019050614b636000830184614440565b92915050565b600060e082019050614b7e600083018a614440565b614b8b6020830189614396565b614b986040830188614396565b614ba56060830187614896565b8181036080830152614bb781866144ae565b9050614bc660a0830185614896565b614bd360c0830184614896565b98975050505050505050565b6000608082019050614bf46000830187614440565b614c016020830186614396565b8181036040830152614c1381856144ae565b9050614c226060830184614896565b95945050505050565b600060c082019050614c406000830189614440565b614c4d6020830188614396565b614c5a6040830187614896565b8181036060830152614c6c81866144ae565b9050614c7b6080830185614896565b614c8860a0830184614896565b979650505050505050565b600060a082019050614ca86000830188614440565b614cb56020830187614896565b8181036040830152614cc781866144ae565b9050614cd66060830185614896565b614ce36080830184614896565b9695505050505050565b6000602082019050614d026000830184614466565b92915050565b60006020820190508181036000830152614d2281846144ae565b905092915050565b60006020820190508181036000830152614d4381614518565b9050919050565b60006020820190508181036000830152614d6381614558565b9050919050565b60006020820190508181036000830152614d83816145be565b9050919050565b60006020820190508181036000830152614da3816145fe565b9050919050565b60006020820190508181036000830152614dc38161468a565b9050919050565b60006020820190508181036000830152614de3816146f0565b9050919050565b60006020820190508181036000830152614e0381614730565b9050919050565b60006020820190508181036000830152614e2381614770565b9050919050565b60006020820190508181036000830152614e43816147b0565b9050919050565b60006020820190508181036000830152614e6381614830565b9050919050565b6000602082019050614e7f6000830184614896565b92915050565b6000604051905081810181811067ffffffffffffffff82111715614eac57614eab6150ba565b5b8060405250919050565b600067ffffffffffffffff821115614ed157614ed06150ba565b5b601f19601f8301169050602081019050919050565b6000819050602082019050919050565b600081519050919050565b600081519050919050565b6000602082019050919050565b600082825260208201905092915050565b600082825260208201905092915050565b600082825260208201905092915050565b600082825260208201905092915050565b600081905092915050565b6000614f7382614fce565b9050919050565b6000614f8582614fce565b9050919050565b60008115159050919050565b6000819050919050565b60007fffffffff0000000000000000000000000000000000000000000000000000000082169050919050565b600073ffffffffffffffffffffffffffffffffffffffff82169050919050565b6000819050919050565b60006150038261500a565b9050919050565b60006150158261501c565b9050919050565b600061502782614fce565b9050919050565b82818337600083830152505050565b60005b8381101561505b578082015181840152602081019050615040565b8381111561506a576000848401525b50505050565b600061507b8261509e565b9050919050565b600061508d8261509e565b9050919050565b6000819050919050565b60006150a9826150cd565b9050919050565b6000819050919050565bfe5b6000601f19601f8301169050919050565b60008160601b9050919050565b6150e381614f68565b81146150ee57600080fd5b50565b6150fa81614f8c565b811461510557600080fd5b50565b61511181614f98565b811461511c57600080fd5b50565b61512881614fa2565b811461513357600080fd5b50565b61513f81614fee565b811461514a57600080fd5b5056fe4f776e61626c653a206e6577206f776e657220697320746865207a65726f2061646472657373536166654d6174683a206d756c7469706c69636174696f6e206f766572666c6f77546865206f776e6572206375742073686f756c64206265206265747765656e203020616e64206d61784375745065724d696c6c696f6ea2646970667358221220c49a9e43c2e4dda4be4da1496e3a17b9d8a4fbe117f3261b59a1ecfbd1a5053f64736f6c63430007040033",
  "immutableReferences": {},
  "source": "// SPDX-License-Identifier: MIT\r\npragma solidity >=0.4.22 <0.9.0;\r\npragma experimental ABIEncoderV2;\r\n\r\nimport \"@openzeppelin/contracts/token/ERC1155/ERC1155.sol\";\r\nimport \"@openzeppelin/contracts/token/ERC20/ERC20.sol\";\r\nimport \"@openzeppelin/contracts/math/SafeMath.sol\";\r\nimport \"@openzeppelin/contracts/utils/Address.sol\";\r\nimport \"@openzeppelin/contracts/access/Ownable.sol\";\r\nimport \"@openzeppelin/contracts/token/ERC1155/IERC1155Receiver.sol\";\r\nimport \"./interface/RoyaltyFactory.sol\";\r\nimport \"./INft_Marketplace1155.sol\";\r\nimport \"./FeeManager.sol\";\r\n\r\ncontract Auction_Marketplace1155 is\r\n    INft_Marketplace1155,\r\n    FeeManager,\r\n    IERC1155Receiver\r\n{\r\n    using SafeMath for uint256;\r\n    string internal cifi_Symbol = \"CIFI\";\r\n    string bnb_Symbol = \"BNB\";\r\n    // From ERC721 registry assetId to Order (to avoid asset collision)\r\n    mapping(bytes32 => Order) orderById;\r\n\r\n    // From ERC721 registry assetId to Bid (to avoid asset collision)\r\n    mapping(bytes32 => Bid) bidByOrderId;\r\n\r\n    // from ERC20 symbols to their addresses\r\n    mapping(string => address) acceptedTokens;\r\n\r\n    // array that saves all the symbols of accepted tokens\r\n    string[] public acceptedTokensSymbols;\r\n\r\n    constructor() {}\r\n\r\n    // 721 Interfaces\r\n    bytes4 public constant _INTERFACE_ID_ERC1155 = 0xd9b67a26;\r\n    bytes4 private constant _INTERFACE_ID_ROYALTY = 0x0760a14c;\r\n\r\n    /**\r\n     * Creates a new order\r\n     *  _nftAddress - Non fungible contract address\r\n     *  _assetId - ID of the published NFT\r\n     *  _priceInAnyOfTheSupportedCurrencies - price In Any Of The Supported Currencies\r\n     *  _expiresAt - Duration of the order (in hours)\r\n     */\r\n\r\n    function getBid(bytes32 _orderId)\r\n        public\r\n        view\r\n        returns (\r\n            bytes32 id,\r\n            address bidder,\r\n            string memory tokenSymbol,\r\n            uint256 price\r\n        )\r\n    {\r\n        Bid memory bid = bidByOrderId[_orderId];\r\n        id = bid.id;\r\n        bidder = bid.bidder;\r\n        tokenSymbol = bid.tokenSymbol;\r\n        price = bid.price;\r\n    }\r\n\r\n    function createOrder(\r\n        address _nftAddress,\r\n        uint256 _assetId,\r\n        uint256 _amount,\r\n        string memory _tokenSymbol,\r\n        uint256 _price,\r\n        uint256 _expiresAt\r\n    ) public returns (bytes32) {\r\n        return\r\n            _createOrder(\r\n                _nftAddress,\r\n                _assetId,\r\n                _amount,\r\n                _tokenSymbol,\r\n                _price,\r\n                _expiresAt\r\n            );\r\n    }\r\n\r\n    /**\r\n     *  Cancel an already published order\r\n     *  can only be canceled by seller or the contract owner\r\n     *  nftAddress - Address of the NFT registry\r\n     *  assetId - ID of the published NFT\r\n     */\r\n    function cancelOrder(bytes32 orderID) public {\r\n        Order memory order = orderById[orderID];\r\n\r\n        require(order.seller == msg.sender, \"Marketplace: unauthorized sender\");\r\n\r\n        // Remove pending bid if any\r\n        Bid memory bid = bidByOrderId[orderID];\r\n\r\n        if (bid.id != 0) {\r\n            _cancelBid(orderID);\r\n        }\r\n\r\n        // Cancel order.\r\n        _cancelOrder(orderID);\r\n    }\r\n\r\n    /**\r\n     *  Places a bid for a published NFT\r\n     *  _nftAddress - Address of the NFT registry\r\n     *  _assetId - ID of the published NFT\r\n     *  _priceInAny Of The Supported Currencies - Bid price in acceptedToken currency\r\n     *  _expiresAt - Bid expiration time\r\n     */\r\n    function safePlaceBid(\r\n        bytes32 _orderId,\r\n        uint256 _price,\r\n        uint256 _expiresAt\r\n    ) public {\r\n        _createBid(_orderId, _price, _expiresAt);\r\n    }\r\n\r\n    function cancelBid(bytes32 orderId) public {\r\n        Bid memory bid = bidByOrderId[orderId];\r\n\r\n        require(\r\n            bid.bidder == msg.sender || msg.sender == owner(),\r\n            \"Marketplace: Unauthorized sender\"\r\n        );\r\n\r\n        _cancelBid(orderId);\r\n    }\r\n\r\n    /**\r\n     * Executes the sale for a published NFT by accepting a current bid\r\n     *  _nftAddress - Address of the NFT registry\r\n     *  _assetId - ID of the published NFT\r\n     *  _priceInAnyOfTheFourCurrencies - price In Any Of The Four Currencies\r\n     */\r\n    function acceptBid(bytes32 orderId) public {\r\n        // check order validity\r\n        Order memory order = _getValidOrder(orderId);\r\n\r\n        // item seller is the only allowed to accept a bid\r\n        require(order.seller == msg.sender, \"Marketplace: unauthorized sender\");\r\n\r\n        Bid memory bid = bidByOrderId[orderId];\r\n\r\n        require(\r\n            bid.expiresAt >= block.timestamp,\r\n            \"Marketplace: the bid expired\"\r\n        );\r\n\r\n        // remove bid\r\n        delete bidByOrderId[orderId];\r\n\r\n        emit BidAccepted(bid.id);\r\n\r\n        uint256 saleShareAmount = 0;\r\n        address tokenAddress = acceptedTokens[order.tokenSymbol];\r\n        ERC20 acceptedToken = ERC20(tokenAddress);\r\n        uint256 royaltyFeeAmount = 0;\r\n        if (\r\n            IERC165(order.nftAddress).supportsInterface(_INTERFACE_ID_ROYALTY)\r\n        ) {\r\n            address orignalCreater = RoyaltyFactory(order.nftAddress)\r\n            .getOriginalCreator(order.nftId);\r\n            uint256 royaltyFee = RoyaltyFactory(order.nftAddress).getRoyaltyFee(\r\n                order.nftId\r\n            );\r\n            royaltyFeeAmount = bid.price.mul(royaltyFee).div(1e6);\r\n            if (compareStrings(order.tokenSymbol, bnb_Symbol)) {\r\n                // Transfer share amount for marketplace Owner\r\n                payable(orignalCreater).transfer(royaltyFeeAmount);\r\n            } else {\r\n                acceptedToken.transferFrom(\r\n                    address(this), //escrow\r\n                    orignalCreater,\r\n                    royaltyFeeAmount\r\n                );\r\n            }\r\n        }\r\n        // calc market fees\r\n        if (FeeManager.cutPerMillion > 0) {\r\n            // Calculate sale share\r\n            saleShareAmount = bid.price.mul(FeeManager.cutPerMillion).div(1e6);\r\n\r\n            if (compareStrings(order.tokenSymbol, cifi_Symbol)) {\r\n                // Transfer half of share amount for marketplace Owner\r\n                acceptedToken.transferFrom(\r\n                    address(this), //escrow\r\n                    owner(),\r\n                    saleShareAmount.div(3)\r\n                );\r\n            } else if (compareStrings(order.tokenSymbol, bnb_Symbol)) {\r\n                // Transfer share amount for marketplace Owner\r\n                payable(owner()).transfer(saleShareAmount);\r\n            } else {\r\n                acceptedToken.transferFrom(\r\n                    address(this), //escrow\r\n                    owner(),\r\n                    saleShareAmount\r\n                );\r\n            }\r\n        }\r\n\r\n        // bidding is only with CifiToken ( this needs to be updated when we go live to Binance smart chain )\r\n\r\n        // transfer escrowed bid amount minus market fee to seller\r\n        if (compareStrings(order.tokenSymbol, cifi_Symbol)) {\r\n            // Transfer accepted token amount minus market fee to seller\r\n            uint256 amount = bid.price.sub(saleShareAmount.div(3).mul(2)).sub(\r\n                royaltyFeeAmount\r\n            );\r\n            acceptedToken.transferFrom(\r\n                address(this), //escrow\r\n                order.seller, // seller\r\n                amount\r\n            );\r\n        } else if (compareStrings(order.tokenSymbol, bnb_Symbol)) {\r\n            // Transfer share amount for marketplace Owner\r\n            payable(order.seller).transfer(\r\n                bid.price.sub(saleShareAmount).sub(royaltyFeeAmount)\r\n            );\r\n        } else {\r\n            // Transfer accepted token amount minus market fee to seller\r\n            acceptedToken.transferFrom(\r\n                address(this), //escrow\r\n                order.seller, // seller\r\n                bid.price.sub(saleShareAmount).sub(royaltyFeeAmount)\r\n            );\r\n        }\r\n\r\n        _executeOrder(order.id, bid.bidder, bid.price);\r\n    }\r\n\r\n    /**\r\n     * Internal function gets Order by nftRegistry and assetId. Checks for the order validity\r\n     * nftAddress - Address of the NFT registry\r\n     * assetId - ID of the published NFT\r\n     */\r\n    function _getValidOrder(bytes32 _orderId)\r\n        internal\r\n        view\r\n        returns (Order memory order)\r\n    {\r\n        order = orderById[_orderId];\r\n\r\n        require(order.id != 0, \"Marketplace: asset not published\");\r\n        require(\r\n            order.expiresAt >= block.timestamp,\r\n            \"Marketplace: order expired\"\r\n        );\r\n    }\r\n\r\n    /**\r\n     * Executes the sale for a published NFT\r\n     *  orderId - Order Id to execute\r\n     *  buyer - address\r\n     *  nftAddress - Address of the NFT registry\r\n     *  assetId - NFT id\r\n     *  price - Order price\r\n     */\r\n    function _executeOrder(\r\n        bytes32 _orderId,\r\n        address _buyer,\r\n        uint256 _price\r\n    ) internal {\r\n        // remove order\r\n        Order memory order = orderById[_orderId];\r\n\r\n        // Transfer NFT asset\r\n        IERC1155(order.nftAddress).safeTransferFrom(\r\n            address(this),\r\n            _buyer,\r\n            order.nftId,\r\n            order.amount,\r\n            \"\"\r\n        );\r\n\r\n        delete orderById[_orderId];\r\n        // Notify ..\r\n        emit OrderSuccessful(\r\n            order.id,\r\n            order.seller,\r\n            _buyer,\r\n            order.nftAddress,\r\n            order.nftId,\r\n            order.amount,\r\n            order.tokenSymbol,\r\n            _price,\r\n            block.timestamp\r\n        );\r\n    }\r\n\r\n    /**\r\n     * Creates a new order\r\n     *  nftAddress - Non fungible contract address\r\n     *  assetId - ID of the published NFT\r\n     *  priceInAnyOfTheSupportedCurrencies - price In Any Of The Supported Currencies\r\n     *  expiresAt - Expiration time for the order\r\n     */\r\n    function _createOrder(\r\n        address _nftAddress,\r\n        uint256 _assetId,\r\n        uint256 _amount,\r\n        string memory _tokenSymbol,\r\n        uint256 _price,\r\n        uint256 _expiresAt\r\n    ) internal returns (bytes32) {\r\n        // Check nft registry\r\n        IERC1155 nftRegistry = _requireERC1155(_nftAddress);\r\n\r\n        // Check order creator is the asset owner\r\n\r\n        require(_price > 0, \"Marketplace: Price should be bigger than 0\");\r\n\r\n        require(\r\n            _expiresAt > block.timestamp.add(1 minutes),\r\n            \"Marketplace: Publication should be more than 1 minute in the future\"\r\n        );\r\n\r\n        // get NFT asset from seller\r\n        nftRegistry.safeTransferFrom(\r\n            msg.sender,\r\n            address(this),\r\n            _assetId,\r\n            _amount,\r\n            \"\"\r\n        );\r\n\r\n        // create the orderId\r\n        bytes32 orderId = keccak256(\r\n            abi.encodePacked(\r\n                block.timestamp,\r\n                _msgSender(),\r\n                _nftAddress,\r\n                _assetId,\r\n                _amount,\r\n                _tokenSymbol,\r\n                _price\r\n            )\r\n        );\r\n\r\n        // save order\r\n        orderById[orderId] = Order({\r\n            id: orderId,\r\n            seller: _msgSender(),\r\n            nftAddress: _nftAddress,\r\n            nftId: _assetId,\r\n            amount: _amount,\r\n            tokenSymbol: _tokenSymbol,\r\n            price: _price,\r\n            expiresAt: _expiresAt\r\n        });\r\n\r\n        emit OrderCreated(\r\n            orderId,\r\n            _msgSender(),\r\n            _nftAddress,\r\n            _assetId,\r\n            _amount,\r\n            _tokenSymbol,\r\n            _price,\r\n            _expiresAt\r\n        );\r\n        return orderId;\r\n    }\r\n\r\n    /**\r\n     *  Creates a new bid on a existing order\r\n     *  nftAddress - Non fungible contract address\r\n     *  assetId - ID of the published NFT\r\n     *  priceInAnyOfTheSupportedCurrencies - price In Any Of The Supported Currencies\r\n     *  expiresAt - expires time\r\n     */\r\n    function _createBid(\r\n        bytes32 _orderId,\r\n        uint256 _price,\r\n        uint256 _expiresAt\r\n    ) internal {\r\n        // Checks order validity\r\n        Order memory order = _getValidOrder(_orderId);\r\n\r\n        // check on expire time\r\n        if (_expiresAt > order.expiresAt) {\r\n            _expiresAt = order.expiresAt;\r\n        }\r\n\r\n        // Check price if theres previous a bid\r\n        Bid memory bid = bidByOrderId[_orderId];\r\n\r\n        // if theres no previous bid, just check price > 0\r\n        if (bid.id != 0) {\r\n            if (bid.expiresAt >= block.timestamp) {\r\n                if (compareStrings(order.tokenSymbol, bnb_Symbol)) {\r\n                    require(\r\n                        msg.value >= bid.price,\r\n                        \"Marketplace: bid price should be higher than last bid\"\r\n                    );\r\n                } else {\r\n                    require(\r\n                        _price > bid.price,\r\n                        \"Marketplace: bid price should be higher than last bid\"\r\n                    );\r\n                }\r\n            } else {\r\n                if (compareStrings(order.tokenSymbol, bnb_Symbol)) {\r\n                    require(\r\n                        msg.value >= order.price,\r\n                        \"Marketplace: bid should be >= inital order price\"\r\n                    );\r\n                } else {\r\n                    require(\r\n                        _price >= order.price,\r\n                        \"Marketplace: bid should be >= inital order price\"\r\n                    );\r\n                }\r\n            }\r\n\r\n            _cancelBid(_orderId);\r\n        } else {\r\n            if (compareStrings(order.tokenSymbol, bnb_Symbol)) {\r\n                require(\r\n                    msg.value >= order.price,\r\n                    \"Marketplace: bid should be >= inital order price\"\r\n                );\r\n            } else {\r\n                require(\r\n                    _price >= order.price,\r\n                    \"Marketplace: bid should be >= inital order price\"\r\n                );\r\n            }\r\n        }\r\n\r\n        // bidding is only with CifiToken ( this needs to be updated when we go live to Binance smart chain )\r\n        address tokenAddress = acceptedTokens[order.tokenSymbol];\r\n        ERC20 acceptedToken = ERC20(tokenAddress);\r\n\r\n        // Transfer sale amount from bidder to escrow\r\n        if (!compareStrings(order.tokenSymbol, bnb_Symbol)) {\r\n            acceptedToken.transferFrom(\r\n                msg.sender, // bidder\r\n                address(this),\r\n                _price\r\n            );\r\n        }\r\n        // Create bid\r\n        bytes32 bidId = keccak256(\r\n            abi.encodePacked(\r\n                block.timestamp,\r\n                msg.sender,\r\n                order.id,\r\n                _price,\r\n                _expiresAt\r\n            )\r\n        );\r\n\r\n        // Save Bid for this order\r\n        bidByOrderId[_orderId] = Bid({\r\n            id: bidId,\r\n            bidder: msg.sender,\r\n            tokenSymbol: order.tokenSymbol,\r\n            price: _price,\r\n            expiresAt: _expiresAt\r\n        });\r\n\r\n        emit BidCreated(\r\n            bidId,\r\n            order.seller,\r\n            order.nftAddress,\r\n            order.nftId,\r\n            order.amount,\r\n            msg.sender, // bidder\r\n            order.tokenSymbol,\r\n            _price,\r\n            _expiresAt\r\n        );\r\n    }\r\n\r\n    /**\r\n     * Cancel an already published order\r\n     *  can only be canceled by seller or the contract owner\r\n     * orderId - Bid identifier\r\n     * nftAddress - Address of the NFT registry\r\n     * assetId - ID of the published NFT\r\n     * seller - Address\r\n     */\r\n    function _cancelOrder(bytes32 _orderId) internal {\r\n        Order memory order = orderById[_orderId];\r\n        delete orderById[_orderId];\r\n        /// send asset back to seller\r\n        IERC1155(order.nftAddress).safeTransferFrom(\r\n            address(this),\r\n            order.seller,\r\n            order.nftId,\r\n            order.amount,\r\n            \"\"\r\n        );\r\n        emit OrderCancelled(_orderId);\r\n    }\r\n\r\n    /**\r\n     * Cancel bid from an already published order\r\n     *  can only be canceled by seller or the contract owner\r\n     * bidId - Bid identifier\r\n     * nftAddress - registry address\r\n     * assetId - ID of the published NFT\r\n     * bidder - Address\r\n     * escrowAmount - in acceptenToken currency\r\n     */\r\n    function _cancelBid(bytes32 _orderId) internal {\r\n        Bid memory bid = bidByOrderId[_orderId];\r\n        delete bidByOrderId[_orderId];\r\n\r\n        // bidding is only with CifiToken ( this needs to be updated when we go live to Binance smart chain )\r\n        address tokenAddress = acceptedTokens[bid.tokenSymbol];\r\n        ERC20 acceptedToken = ERC20(tokenAddress);\r\n        if (compareStrings(bid.tokenSymbol, bnb_Symbol)) {\r\n            // Transfer share amount for marketplace Owner\r\n            payable(bid.bidder).transfer(bid.price);\r\n        } else {\r\n            // Transfer accepted token amount minus market fee to seller\r\n            acceptedToken.transfer(bid.bidder, bid.price);\r\n        }\r\n\r\n        emit BidCancelled(bid.id);\r\n    }\r\n\r\n    function _requireERC1155(address _nftAddress)\r\n        internal\r\n        view\r\n        returns (IERC1155)\r\n    {\r\n        require(\r\n            IERC165(_nftAddress).supportsInterface(_INTERFACE_ID_ERC1155),\r\n            \"The NFT contract has an invalid ERC721 implementation\"\r\n        );\r\n        return IERC1155(_nftAddress);\r\n    }\r\n\r\n    function addAcceptedToken(\r\n        address acceptedTokenAddress,\r\n        string memory acceptedTokenSymbol\r\n    ) public onlyOwner returns (bool) {\r\n        acceptedTokens[acceptedTokenSymbol] = acceptedTokenAddress;\r\n        acceptedTokensSymbols.push(acceptedTokenSymbol);\r\n        return true;\r\n    }\r\n\r\n    function getTokenSymbols() public view returns (string[] memory) {\r\n        return acceptedTokensSymbols;\r\n    }\r\n\r\n    function getTokenAddress(string memory tokenSymbol)\r\n        public\r\n        view\r\n        returns (address)\r\n    {\r\n        return acceptedTokens[tokenSymbol];\r\n    }\r\n\r\n    function onERC1155Received(\r\n        address,\r\n        address,\r\n        uint256,\r\n        uint256,\r\n        bytes calldata\r\n    ) public virtual override returns (bytes4) {\r\n        return\r\n            bytes4(\r\n                keccak256(\r\n                    \"onERC1155Received(address,address,uint256,uint256,bytes)\"\r\n                )\r\n            );\r\n    }\r\n\r\n    function onERC1155BatchReceived(\r\n        address,\r\n        address,\r\n        uint256[] calldata,\r\n        uint256[] calldata,\r\n        bytes calldata\r\n    ) public virtual override returns (bytes4) {\r\n        return\r\n            bytes4(\r\n                keccak256(\r\n                    \"onERC1155BatchReceived(address,address,uint256[],uint256[],bytes)\"\r\n                )\r\n            );\r\n    }\r\n\r\n    function supportsInterface(bytes4)\r\n        public\r\n        view\r\n        virtual\r\n        override\r\n        returns (bool)\r\n    {\r\n        return false;\r\n    }\r\n\r\n    function compareStrings(string memory a, string memory b)\r\n        internal\r\n        pure\r\n        returns (bool)\r\n    {\r\n        return (keccak256(abi.encodePacked((a))) ==\r\n            keccak256(abi.encodePacked((b))));\r\n    }\r\n}\r\n",
  "sourcePath": "F:/MyWork/LianHe/Citizen/SantaFe_Market/src/contracts/Auction_Marketplace1155.sol",
  "compiler": {
    "name": "solc",
    "version": "0.7.4+commit.3f05b770.Emscripten.clang"
  },
  "schemaVersion": "3.4.1",
  "updatedAt": "2021-07-22T09:21:04.035Z",
  "devdoc": {
    "kind": "dev",
    "methods": {
      "owner()": {
        "details": "Returns the address of the current owner."
      },
      "renounceOwnership()": {
        "details": "Leaves the contract without owner. It will not be possible to call `onlyOwner` functions anymore. Can only be called by the current owner. NOTE: Renouncing ownership will leave the contract without an owner, thereby removing any functionality that is only available to the owner."
      },
      "transferOwnership(address)": {
        "details": "Transfers ownership of the contract to a new account (`newOwner`). Can only be called by the current owner."
      }
    },
    "version": 1
  },
  "userdoc": {
    "kind": "user",
    "methods": {
      "acceptBid(bytes32)": {
        "notice": "Executes the sale for a published NFT by accepting a current bid  _nftAddress - Address of the NFT registry  _assetId - ID of the published NFT  _priceInAnyOfTheFourCurrencies - price In Any Of The Four Currencies"
      },
      "cancelOrder(bytes32)": {
        "notice": "Cancel an already published order  can only be canceled by seller or the contract owner  nftAddress - Address of the NFT registry  assetId - ID of the published NFT"
      },
      "getBid(bytes32)": {
        "notice": "Creates a new order  _nftAddress - Non fungible contract address  _assetId - ID of the published NFT  _priceInAnyOfTheSupportedCurrencies - price In Any Of The Supported Currencies  _expiresAt - Duration of the order (in hours)"
      },
      "safePlaceBid(bytes32,uint256,uint256)": {
        "notice": "Places a bid for a published NFT  _nftAddress - Address of the NFT registry  _assetId - ID of the published NFT  _priceInAny Of The Supported Currencies - Bid price in acceptedToken currency  _expiresAt - Bid expiration time"
      },
      "setOwnerCutPerMillion(uint256)": {
        "notice": "Sets the share cut for the owner of the contract that's charged to the seller on a successful sale Share amount, from 0 to 99,999"
      }
    },
    "version": 1
  }
}