{
  "contractName": "FeeManager",
  "abi": [
    {
      "anonymous": false,
      "inputs": [
        {
          "indexed": false,
          "internalType": "uint256",
          "name": "cutPerMillion",
          "type": "uint256"
        }
      ],
      "name": "ChangedFeePerMillion",
      "type": "event"
    },
    {
      "anonymous": false,
      "inputs": [
        {
          "indexed": true,
          "internalType": "address",
          "name": "previousOwner",
          "type": "address"
        },
        {
          "indexed": true,
          "internalType": "address",
          "name": "newOwner",
          "type": "address"
        }
      ],
      "name": "OwnershipTransferred",
      "type": "event"
    },
    {
      "inputs": [],
      "name": "cutPerMillion",
      "outputs": [
        {
          "internalType": "uint256",
          "name": "",
          "type": "uint256"
        }
      ],
      "stateMutability": "view",
      "type": "function"
    },
    {
      "inputs": [],
      "name": "maxCutPerMillion",
      "outputs": [
        {
          "internalType": "uint256",
          "name": "",
          "type": "uint256"
        }
      ],
      "stateMutability": "view",
      "type": "function"
    },
    {
      "inputs": [],
      "name": "owner",
      "outputs": [
        {
          "internalType": "address",
          "name": "",
          "type": "address"
        }
      ],
      "stateMutability": "view",
      "type": "function"
    },
    {
      "inputs": [],
      "name": "renounceOwnership",
      "outputs": [],
      "stateMutability": "nonpayable",
      "type": "function"
    },
    {
      "inputs": [
        {
          "internalType": "address",
          "name": "newOwner",
          "type": "address"
        }
      ],
      "name": "transferOwnership",
      "outputs": [],
      "stateMutability": "nonpayable",
      "type": "function"
    },
    {
      "inputs": [
        {
          "internalType": "uint256",
          "name": "_cutPerMillion",
          "type": "uint256"
        }
      ],
      "name": "setOwnerCutPerMillion",
      "outputs": [],
      "stateMutability": "nonpayable",
      "type": "function"
    }
  ],
  "bytecode": "0x60806040526161a860015534801561001657600080fd5b506000610021610070565b600080546001600160a01b0319166001600160a01b0383169081178255604051929350917f8be0079c531659141344cd1fd0a4f28419497f9722a3daafe3b4186f6b6457e0908290a350610074565b3390565b61046e806100836000396000f3fe608060405234801561001057600080fd5b50600436106100625760003560e01c806319dad16d14610067578063673c855314610086578063715018a6146100a05780638da5cb5b146100a8578063c555e050146100cc578063f2fde38b146100d4575b600080fd5b6100846004803603602081101561007d57600080fd5b50356100fa565b005b61008e6101ea565b60408051918252519081900360200190f35b6100846101f0565b6100b06102ae565b604080516001600160a01b039092168252519081900360200190f35b61008e6102bd565b610084600480360360208110156100ea57600080fd5b50356001600160a01b03166102c4565b6101026103d8565b6001600160a01b03166101136102ae565b6001600160a01b03161461016e576040805162461bcd60e51b815260206004820181905260248201527f4f776e61626c653a2063616c6c6572206973206e6f7420746865206f776e6572604482015290519081900360640190fd5b620186a081106101af5760405162461bcd60e51b81526004018080602001828103825260368152602001806104036036913960400191505060405180910390fd5b60018190556040805182815290517fdb629698afb23c88e17ec4d29f97b3907c3e1fbfd116fa15f97569c7c16b3e4d9181900360200190a150565b60015481565b6101f86103d8565b6001600160a01b03166102096102ae565b6001600160a01b031614610264576040805162461bcd60e51b815260206004820181905260248201527f4f776e61626c653a2063616c6c6572206973206e6f7420746865206f776e6572604482015290519081900360640190fd5b600080546040516001600160a01b03909116907f8be0079c531659141344cd1fd0a4f28419497f9722a3daafe3b4186f6b6457e0908390a3600080546001600160a01b0319169055565b6000546001600160a01b031690565b620186a081565b6102cc6103d8565b6001600160a01b03166102dd6102ae565b6001600160a01b031614610338576040805162461bcd60e51b815260206004820181905260248201527f4f776e61626c653a2063616c6c6572206973206e6f7420746865206f776e6572604482015290519081900360640190fd5b6001600160a01b03811661037d5760405162461bcd60e51b81526004018080602001828103825260268152602001806103dd6026913960400191505060405180910390fd5b600080546040516001600160a01b03808516939216917f8be0079c531659141344cd1fd0a4f28419497f9722a3daafe3b4186f6b6457e091a3600080546001600160a01b0319166001600160a01b0392909216919091179055565b339056fe4f776e61626c653a206e6577206f776e657220697320746865207a65726f2061646472657373546865206f776e6572206375742073686f756c64206265206265747765656e203020616e64206d61784375745065724d696c6c696f6ea26469706673582212208c5b26c40751a2d33f345b75deb3d629caa720983e35b060ac39b13cd2d037c764736f6c63430007040033",
  "immutableReferences": {},
  "source": "// SPDX-License-Identifier: MIT\r\n\r\npragma solidity >=0.4.22 <0.9.0;\r\n\r\nimport \"@openzeppelin/contracts/access/Ownable.sol\";\r\n\r\ncontract FeeManager is Ownable {\r\n    event ChangedFeePerMillion(uint256 cutPerMillion);\r\n\r\n    // Market fee on sales\r\n    uint256 public cutPerMillion = 25000; //3% cut\r\n    uint256 public constant maxCutPerMillion = 100000; // 10% cut\r\n\r\n    /**\r\n     * Sets the share cut for the owner of the contract that's\r\n     * charged to the seller on a successful sale\r\n     * Share amount, from 0 to 99,999\r\n     */\r\n    function setOwnerCutPerMillion(uint256 _cutPerMillion) external onlyOwner {\r\n        require(\r\n            _cutPerMillion < maxCutPerMillion,\r\n            \"The owner cut should be between 0 and maxCutPerMillion\"\r\n        );\r\n\r\n        cutPerMillion = _cutPerMillion;\r\n        emit ChangedFeePerMillion(cutPerMillion);\r\n    }\r\n}\r\n",
  "sourcePath": "F:\\SantaFeMarketPlace_2021_8_31\\src\\contracts\\FeeManager.sol",
  "compiler": {
    "name": "solc",
    "version": "0.7.4+commit.3f05b770.Emscripten.clang"
  },
  "schemaVersion": "3.4.2",
  "updatedAt": "2021-08-31T01:01:59.523Z",
  "devdoc": {
    "kind": "dev",
    "methods": {
      "owner()": {
        "details": "Returns the address of the current owner."
      },
      "renounceOwnership()": {
        "details": "Leaves the contract without owner. It will not be possible to call `onlyOwner` functions anymore. Can only be called by the current owner. NOTE: Renouncing ownership will leave the contract without an owner, thereby removing any functionality that is only available to the owner."
      },
      "transferOwnership(address)": {
        "details": "Transfers ownership of the contract to a new account (`newOwner`). Can only be called by the current owner."
      }
    },
    "version": 1
  },
  "userdoc": {
    "kind": "user",
    "methods": {
      "setOwnerCutPerMillion(uint256)": {
        "notice": "Sets the share cut for the owner of the contract that's charged to the seller on a successful sale Share amount, from 0 to 99,999"
      }
    },
    "version": 1
  }
}