{
  "contractName": "Fixed_Marketplace",
  "abi": [
    {
      "inputs": [],
      "stateMutability": "nonpayable",
      "type": "constructor"
    },
    {
      "anonymous": false,
      "inputs": [
        {
          "indexed": false,
          "internalType": "bytes32",
          "name": "id",
          "type": "bytes32"
        }
      ],
      "name": "BidAccepted",
      "type": "event"
    },
    {
      "anonymous": false,
      "inputs": [
        {
          "indexed": false,
          "internalType": "bytes32",
          "name": "id",
          "type": "bytes32"
        }
      ],
      "name": "BidCancelled",
      "type": "event"
    },
    {
      "anonymous": false,
      "inputs": [
        {
          "indexed": false,
          "internalType": "bytes32",
          "name": "id",
          "type": "bytes32"
        },
        {
          "indexed": false,
          "internalType": "address",
          "name": "seller",
          "type": "address"
        },
        {
          "indexed": true,
          "internalType": "address",
          "name": "nftAddress",
          "type": "address"
        },
        {
          "indexed": true,
          "internalType": "uint256",
          "name": "assetId",
          "type": "uint256"
        },
        {
          "indexed": true,
          "internalType": "address",
          "name": "bidder",
          "type": "address"
        },
        {
          "indexed": false,
          "internalType": "string",
          "name": "tokenSymbol",
          "type": "string"
        },
        {
          "indexed": false,
          "internalType": "uint256",
          "name": "price",
          "type": "uint256"
        },
        {
          "indexed": false,
          "internalType": "uint256",
          "name": "expiresAt",
          "type": "uint256"
        }
      ],
      "name": "BidCreated",
      "type": "event"
    },
    {
      "anonymous": false,
      "inputs": [
        {
          "indexed": false,
          "internalType": "uint256",
          "name": "cutPerMillion",
          "type": "uint256"
        }
      ],
      "name": "ChangedFeePerMillion",
      "type": "event"
    },
    {
      "anonymous": false,
      "inputs": [
        {
          "indexed": false,
          "internalType": "bytes32",
          "name": "id",
          "type": "bytes32"
        }
      ],
      "name": "OrderCancelled",
      "type": "event"
    },
    {
      "anonymous": false,
      "inputs": [
        {
          "indexed": false,
          "internalType": "bytes32",
          "name": "id",
          "type": "bytes32"
        },
        {
          "indexed": true,
          "internalType": "address",
          "name": "seller",
          "type": "address"
        },
        {
          "indexed": true,
          "internalType": "address",
          "name": "nftAddress",
          "type": "address"
        },
        {
          "indexed": false,
          "internalType": "string",
          "name": "tokenSymbol",
          "type": "string"
        },
        {
          "indexed": true,
          "internalType": "uint256",
          "name": "assetId",
          "type": "uint256"
        },
        {
          "indexed": false,
          "internalType": "uint256",
          "name": "priceInWei",
          "type": "uint256"
        },
        {
          "indexed": false,
          "internalType": "uint256",
          "name": "expiresAt",
          "type": "uint256"
        }
      ],
      "name": "OrderCreated",
      "type": "event"
    },
    {
      "anonymous": false,
      "inputs": [
        {
          "indexed": false,
          "internalType": "bytes32",
          "name": "id",
          "type": "bytes32"
        },
        {
          "indexed": false,
          "internalType": "address",
          "name": "seller",
          "type": "address"
        },
        {
          "indexed": false,
          "internalType": "address",
          "name": "buyer",
          "type": "address"
        },
        {
          "indexed": true,
          "internalType": "address",
          "name": "nftAddress",
          "type": "address"
        },
        {
          "indexed": true,
          "internalType": "uint256",
          "name": "assetId",
          "type": "uint256"
        },
        {
          "indexed": false,
          "internalType": "string",
          "name": "tokenSymbol",
          "type": "string"
        },
        {
          "indexed": false,
          "internalType": "uint256",
          "name": "priceInWei",
          "type": "uint256"
        },
        {
          "indexed": false,
          "internalType": "uint256",
          "name": "timestamp",
          "type": "uint256"
        }
      ],
      "name": "OrderSuccessful",
      "type": "event"
    },
    {
      "anonymous": false,
      "inputs": [
        {
          "indexed": false,
          "internalType": "bytes32",
          "name": "id",
          "type": "bytes32"
        },
        {
          "indexed": false,
          "internalType": "string",
          "name": "tokenSymbol",
          "type": "string"
        },
        {
          "indexed": false,
          "internalType": "uint256",
          "name": "price",
          "type": "uint256"
        },
        {
          "indexed": false,
          "internalType": "uint256",
          "name": "expiresAt",
          "type": "uint256"
        }
      ],
      "name": "OrderUpdated",
      "type": "event"
    },
    {
      "anonymous": false,
      "inputs": [
        {
          "indexed": true,
          "internalType": "address",
          "name": "previousOwner",
          "type": "address"
        },
        {
          "indexed": true,
          "internalType": "address",
          "name": "newOwner",
          "type": "address"
        }
      ],
      "name": "OwnershipTransferred",
      "type": "event"
    },
    {
      "inputs": [],
      "name": "_INTERFACE_ID_ERC721",
      "outputs": [
        {
          "internalType": "bytes4",
          "name": "",
          "type": "bytes4"
        }
      ],
      "stateMutability": "view",
      "type": "function",
      "constant": true
    },
    {
      "inputs": [
        {
          "internalType": "uint256",
          "name": "",
          "type": "uint256"
        }
      ],
      "name": "acceptedTokensSymbols",
      "outputs": [
        {
          "internalType": "string",
          "name": "",
          "type": "string"
        }
      ],
      "stateMutability": "view",
      "type": "function",
      "constant": true
    },
    {
      "inputs": [],
      "name": "cutPerMillion",
      "outputs": [
        {
          "internalType": "uint256",
          "name": "",
          "type": "uint256"
        }
      ],
      "stateMutability": "view",
      "type": "function",
      "constant": true
    },
    {
      "inputs": [],
      "name": "maxCutPerMillion",
      "outputs": [
        {
          "internalType": "uint256",
          "name": "",
          "type": "uint256"
        }
      ],
      "stateMutability": "view",
      "type": "function",
      "constant": true
    },
    {
      "inputs": [],
      "name": "owner",
      "outputs": [
        {
          "internalType": "address",
          "name": "",
          "type": "address"
        }
      ],
      "stateMutability": "view",
      "type": "function",
      "constant": true
    },
    {
      "inputs": [],
      "name": "renounceOwnership",
      "outputs": [],
      "stateMutability": "nonpayable",
      "type": "function"
    },
    {
      "inputs": [
        {
          "internalType": "uint256",
          "name": "_cutPerMillion",
          "type": "uint256"
        }
      ],
      "name": "setOwnerCutPerMillion",
      "outputs": [],
      "stateMutability": "nonpayable",
      "type": "function"
    },
    {
      "inputs": [
        {
          "internalType": "address",
          "name": "newOwner",
          "type": "address"
        }
      ],
      "name": "transferOwnership",
      "outputs": [],
      "stateMutability": "nonpayable",
      "type": "function"
    },
    {
      "inputs": [
        {
          "internalType": "address",
          "name": "_nftAddress",
          "type": "address"
        },
        {
          "internalType": "uint256",
          "name": "_assetId",
          "type": "uint256"
        },
        {
          "internalType": "string",
          "name": "_tokenSymbol",
          "type": "string"
        },
        {
          "internalType": "uint256",
          "name": "_price",
          "type": "uint256"
        },
        {
          "internalType": "uint256",
          "name": "_expiresAt",
          "type": "uint256"
        }
      ],
      "name": "createOrder",
      "outputs": [
        {
          "internalType": "bytes32",
          "name": "",
          "type": "bytes32"
        }
      ],
      "stateMutability": "nonpayable",
      "type": "function"
    },
    {
      "inputs": [
        {
          "internalType": "address",
          "name": "_nftAddress",
          "type": "address"
        },
        {
          "internalType": "uint256",
          "name": "_assetId",
          "type": "uint256"
        }
      ],
      "name": "cancelOrder",
      "outputs": [],
      "stateMutability": "nonpayable",
      "type": "function"
    },
    {
      "inputs": [
        {
          "internalType": "address",
          "name": "_nftAddress",
          "type": "address"
        },
        {
          "internalType": "uint256",
          "name": "_assetId",
          "type": "uint256"
        }
      ],
      "name": "safeExecuteOrder",
      "outputs": [],
      "stateMutability": "payable",
      "type": "function",
      "payable": true
    },
    {
      "inputs": [
        {
          "internalType": "address",
          "name": "acceptedTokenAddress",
          "type": "address"
        },
        {
          "internalType": "string",
          "name": "acceptedTokenSymbol",
          "type": "string"
        }
      ],
      "name": "addAcceptedToken",
      "outputs": [
        {
          "internalType": "bool",
          "name": "",
          "type": "bool"
        }
      ],
      "stateMutability": "nonpayable",
      "type": "function"
    },
    {
      "inputs": [],
      "name": "getTokenSymbols",
      "outputs": [
        {
          "internalType": "string[]",
          "name": "",
          "type": "string[]"
        }
      ],
      "stateMutability": "view",
      "type": "function",
      "constant": true
    },
    {
      "inputs": [
        {
          "internalType": "string",
          "name": "tokenSymbol",
          "type": "string"
        }
      ],
      "name": "getTokenAddress",
      "outputs": [
        {
          "internalType": "address",
          "name": "",
          "type": "address"
        }
      ],
      "stateMutability": "view",
      "type": "function",
      "constant": true
    },
    {
      "inputs": [
        {
          "internalType": "address",
          "name": "",
          "type": "address"
        },
        {
          "internalType": "address",
          "name": "",
          "type": "address"
        },
        {
          "internalType": "uint256",
          "name": "",
          "type": "uint256"
        },
        {
          "internalType": "bytes",
          "name": "",
          "type": "bytes"
        }
      ],
      "name": "onERC721Received",
      "outputs": [
        {
          "internalType": "bytes4",
          "name": "",
          "type": "bytes4"
        }
      ],
      "stateMutability": "nonpayable",
      "type": "function"
    }
  ],
  "bytecode": "0x6161a860015560c060405260046080819052634349464960e01b60a09081526200002d9160029190620000c7565b506040805180820190915260038082526221272160e91b6020909201918252620000589181620000c7565b503480156200006657600080fd5b50600062000073620000c3565b600080546001600160a01b0319166001600160a01b0383169081178255604051929350917f8be0079c531659141344cd1fd0a4f28419497f9722a3daafe3b4186f6b6457e0908290a35062000173565b3390565b828054600181600116156101000203166002900490600052602060002090601f016020900481019282620000ff57600085556200014a565b82601f106200011a57805160ff19168380011785556200014a565b828001600101855582156200014a579182015b828111156200014a5782518255916020019190600101906200012d565b50620001589291506200015c565b5090565b5b808211156200015857600081556001016200015d565b61252680620001836000396000f3fe6080604052600436106100e85760003560e01c8063715018a61161008a578063c409123611610059578063c40912361461026d578063c555e0501461028d578063dece6854146102a2578063f2fde38b146102b7576100e8565b8063715018a61461020357806384c6c273146102185780638da5cb5b1461023857806392e0f63f1461025a576100e8565b806319dad16d116100c657806319dad16d14610172578063304149d814610194578063673c8553146101c15780636a206137146101e3576100e8565b806302d5e695146100ed57806305b9381614610123578063150b7a0214610145575b600080fd5b3480156100f957600080fd5b5061010d610108366004611fc1565b6102d7565b60405161011a91906121c8565b60405180910390f35b34801561012f57600080fd5b50610138610380565b60405161011a91906120cc565b34801561015157600080fd5b50610165610160366004611e1a565b610458565b60405161011a91906121b3565b34801561017e57600080fd5b5061019261018d366004611fc1565b610468565b005b3480156101a057600080fd5b506101b46101af366004611e84565b610546565b60405161011a919061212c565b3480156101cd57600080fd5b506101d6610639565b60405161011a9190612137565b3480156101ef57600080fd5b506101926101fe366004611ed2565b61063f565b34801561020f57600080fd5b50610192610793565b34801561022457600080fd5b506101d6610233366004611efd565b61083f565b34801561024457600080fd5b5061024d610858565b60405161011a9190612094565b610192610268366004611ed2565b610867565b34801561027957600080fd5b5061024d610288366004611f86565b6110e6565b34801561029957600080fd5b506101d6611118565b3480156102ae57600080fd5b5061016561111f565b3480156102c357600080fd5b506101926102d2366004611de2565b61112a565b600681815481106102e757600080fd5b600091825260209182902001805460408051601f60026000196101006001871615020190941693909304928301859004850281018501909152818152935090918301828280156103785780601f1061034d57610100808354040283529160200191610378565b820191906000526020600020905b81548152906001019060200180831161035b57829003601f168201915b505050505081565b60606006805480602002602001604051908101604052809291908181526020016000905b8282101561044f5760008481526020908190208301805460408051601f600260001961010060018716150201909416939093049283018590048502810185019091528181529283018282801561043b5780601f106104105761010080835404028352916020019161043b565b820191906000526020600020905b81548152906001019060200180831161041e57829003601f168201915b5050505050815260200190600101906103a4565b50505050905090565b630a85bd0160e11b949350505050565b61047061122c565b6001600160a01b0316610481610858565b6001600160a01b0316146104ca576040805162461bcd60e51b8152602060048201819052602482015260008051602061249b833981519152604482015290519081900360640190fd5b620186a0811061050b5760405162461bcd60e51b81526004018080602001828103825260368152602001806124bb6036913960400191505060405180910390fd5b60018190556040805182815290517fdb629698afb23c88e17ec4d29f97b3907c3e1fbfd116fa15f97569c7c16b3e4d9181900360200190a150565b600061055061122c565b6001600160a01b0316610561610858565b6001600160a01b0316146105aa576040805162461bcd60e51b8152602060048201819052602482015260008051602061249b833981519152604482015290519081900360640190fd5b826005836040516105bb919061201d565b9081526040516020918190038201902080546001600160a01b0319166001600160a01b03939093169290921790915560068054600181018255600091909152835161062d927ff652222313e28459528d920b65115c16c04f3efc82aaedc97be59f3f377c0d3f90920191850190611c49565b50600190505b92915050565b60015481565b610647611cd1565b6001600160a01b038381166000908152600460208181526040808420878552825292839020835160e081018552815481526001808301548716828501526002808401549097168287015260038301546060830152938201805486516101009682161596909602600019011696909604601f81018490048402850184019095528484529490936080860193928301828280156107235780601f106106f857610100808354040283529160200191610723565b820191906000526020600020905b81548152906001019060200180831161070657829003601f168201915b50505050508152602001600582015481526020016006820154815250509050336001600160a01b031681602001516001600160a01b0316146107805760405162461bcd60e51b81526004016107779061236d565b60405180910390fd5b805161078e90848433611230565b505050565b61079b61122c565b6001600160a01b03166107ac610858565b6001600160a01b0316146107f5576040805162461bcd60e51b8152602060048201819052602482015260008051602061249b833981519152604482015290519081900360640190fd5b600080546040516001600160a01b03909116907f8be0079c531659141344cd1fd0a4f28419497f9722a3daafe3b4186f6b6457e0908390a3600080546001600160a01b0319169055565b600061084e868686868661133a565b9695505050505050565b6000546001600160a01b031690565b61086f611cd1565b610879838361164b565b60208101519091506001600160a01b03163314156108a95760405162461bcd60e51b81526004016107779061236d565b608081015160038054604080516020601f6002600019610100600188161502019095169490940493840181900481028201810190925282815261094694939092909183018282801561093c5780601f106109115761010080835404028352916020019161093c565b820191906000526020600020905b81548152906001019060200180831161091f57829003601f168201915b5050505050611792565b1561096e57348160a001511461096e5760405162461bcd60e51b8152600401610777906123d7565b60008060058360800151604051610985919061201d565b908152604051908190036020018120546301ffc9a760e01b82526001600160a01b03908116925082916000918816906301ffc9a7906109cf906301d8285360e21b906004016121b3565b60206040518083038186803b1580156109e757600080fd5b505afa1580156109fb573d6000803e3d6000fd5b505050506040513d601f19601f82011682018060405250810190610a1f9190611f66565b15610bf05760405163caa47fbf60e01b81526000906001600160a01b0389169063caa47fbf90610a53908a90600401612137565b60206040518083038186803b158015610a6b57600080fd5b505afa158015610a7f573d6000803e3d6000fd5b505050506040513d601f19601f82011682018060405250810190610aa39190611dfe565b90506000886001600160a01b0316639e4c0141896040518263ffffffff1660e01b8152600401610ad39190612137565b60206040518083038186803b158015610aeb57600080fd5b505afa158015610aff573d6000803e3d6000fd5b505050506040513d601f19601f82011682018060405250810190610b239190611fd9565b9050610b49620f4240610b43838a60a001516117eb90919063ffffffff16565b9061184b565b60808801516003805460408051602060026001851615610100026000190190941693909304601f8101849004840282018401909252818152949750610bb094929183018282801561093c5780601f106109115761010080835404028352916020019161093c565b15610bed576040516001600160a01b0383169084156108fc029085906000818181858888f19350505050158015610beb573d6000803e3d6000fd5b505b50505b60015415610e4857610c18620f4240610b436001548860a001516117eb90919063ffffffff16565b60808601516002805460408051602060018416156101000260001901909316849004601f8101849004840282018401909252818152949850610c7c94929183018282801561093c5780601f106109115761010080835404028352916020019161093c565b15610d1057816001600160a01b03166323b872dd33610c99610858565b876040518463ffffffff1660e01b8152600401610cb8939291906120a8565b602060405180830381600087803b158015610cd257600080fd5b505af1158015610ce6573d6000803e3d6000fd5b505050506040513d601f19601f82011682018060405250810190610d0a9190611f66565b50610e48565b608085015160038054604080516020601f60026000196101006001881615020190951694909404938401819004810282018101909252828152610d7894939092909183018282801561093c5780601f106109115761010080835404028352916020019161093c565b15610dbd57610d85610858565b6001600160a01b03166108fc859081150290604051600060405180830381858888f19350505050158015610d0a573d6000803e3d6000fd5b816001600160a01b03166323b872dd33610dd5610858565b876040518463ffffffff1660e01b8152600401610df4939291906120a8565b602060405180830381600087803b158015610e0e57600080fd5b505af1158015610e22573d6000803e3d6000fd5b505050506040513d601f19601f82011682018060405250810190610e469190611f66565b505b608085015160028054604080516020601f60001961010060018716150201909416859004938401819004810282018101909252828152610ead94939092909183018282801561093c5780601f106109115761010080835404028352916020019161093c565b15610f545760a0850151600090610ec490866118b2565b60208701516040516323b872dd60e01b81529192506001600160a01b038516916323b872dd91610efb9133919086906004016120a8565b602060405180830381600087803b158015610f1557600080fd5b505af1158015610f29573d6000803e3d6000fd5b505050506040513d601f19601f82011682018060405250810190610f4d9190611f66565b50506110c3565b608085015160038054604080516020601f60026000196101006001881615020190951694909404938401819004810282018101909252828152610fbc94939092909183018282801561093c5780601f106109115761010080835404028352916020019161093c565b156110215784602001516001600160a01b03166108fc610ff383610fed888a60a001516118b290919063ffffffff16565b906118b2565b6040518115909202916000818181858888f1935050505015801561101b573d6000803e3d6000fd5b506110c3565b816001600160a01b03166323b872dd33876020015161105185610fed8a8c60a001516118b290919063ffffffff16565b6040518463ffffffff1660e01b815260040161106f939291906120a8565b602060405180830381600087803b15801561108957600080fd5b505af115801561109d573d6000803e3d6000fd5b505050506040513d601f19601f820116820180604052508101906110c19190611f66565b505b6110dd856000015133898989608001518a60a0015161190f565b50505050505050565b60006005826040516110f8919061201d565b908152604051908190036020019020546001600160a01b03169050919050565b620186a081565b6380ac58cd60e01b81565b61113261122c565b6001600160a01b0316611143610858565b6001600160a01b03161461118c576040805162461bcd60e51b8152602060048201819052602482015260008051602061249b833981519152604482015290519081900360640190fd5b6001600160a01b0381166111d15760405162461bcd60e51b81526004018080602001828103825260268152602001806124546026913960400191505060405180910390fd5b600080546040516001600160a01b03808516939216917f8be0079c531659141344cd1fd0a4f28419497f9722a3daafe3b4186f6b6457e091a3600080546001600160a01b0319166001600160a01b0392909216919091179055565b3390565b6001600160a01b038316600090815260046020818152604080842086855290915282208281556001810180546001600160a01b0319908116909155600282018054909116905560038101839055919061128b90830182611d0c565b50600060058201819055600690910155604051632142170760e11b81526001600160a01b038416906342842e0e906112cb903090859087906004016120a8565b600060405180830381600087803b1580156112e557600080fd5b505af11580156112f9573d6000803e3d6000fd5b505050507f5152abf959f6564662358c2e52b702259b78bac5ee7842a0f01937e670efcc7d8460405161132c9190612137565b60405180910390a150505050565b60008061134687611b49565b90506000816001600160a01b0316636352211e886040518263ffffffff1660e01b81526004016113769190612137565b60206040518083038186803b15801561138e57600080fd5b505afa1580156113a2573d6000803e3d6000fd5b505050506040513d601f19601f820116820180604052508101906113c69190611dfe565b90506001600160a01b03811633146113f05760405162461bcd60e51b81526004016107779061225c565b600085116114105760405162461bcd60e51b815260040161077790612212565b61141b42603c611bef565b84116114395760405162461bcd60e51b8152600401610777906122af565b604051632142170760e11b81526001600160a01b038316906342842e0e9061146990849030908c906004016120a8565b600060405180830381600087803b15801561148357600080fd5b505af1158015611497573d6000803e3d6000fd5b50505050600042828a8a8a8a6040516020016114b896959493929190612039565b6040516020818303038152906040528051906020012090506040518060e00160405280828152602001836001600160a01b031681526020018a6001600160a01b0316815260200189815260200188815260200187815260200186815250600460008b6001600160a01b03166001600160a01b0316815260200190815260200160002060008a81526020019081526020016000206000820151816000015560208201518160010160006101000a8154816001600160a01b0302191690836001600160a01b0316021790555060408201518160020160006101000a8154816001600160a01b0302191690836001600160a01b031602179055506060820151816003015560808201518160040190805190602001906115d5929190611c49565b5060a0820151816005015560c0820151816006015590505087896001600160a01b0316836001600160a01b03167fc5fa0a5ae8d69a29bf513897ca5286089de619f3d1594a11704093f7c1d0bb2a848b8b8b6040516116379493929190612187565b60405180910390a498975050505050505050565b611653611cd1565b6001600160a01b038381166000908152600460208181526040808420878552825292839020835160e081018552815481526001808301548716828501526002808401549097168287015260038301546060830152938201805486516101009682161596909602600019011696909604601f810184900484028501840190955284845294909360808601939283018282801561172f5780601f106117045761010080835404028352916020019161172f565b820191906000526020600020905b81548152906001019060200180831161171257829003601f168201915b505050918352505060058201546020820152600690910154604090910152805190915061176e5760405162461bcd60e51b8152600401610777906123a2565b428160c0015110156106335760405162461bcd60e51b8152600401610777906121db565b6000816040516020016117a5919061201d565b60405160208183030381529060405280519060200120836040516020016117cc919061201d565b6040516020818303038152906040528051906020012014905092915050565b6000826117fa57506000610633565b8282028284828161180757fe5b04146118445760405162461bcd60e51b815260040180806020018281038252602181526020018061247a6021913960400191505060405180910390fd5b9392505050565b60008082116118a1576040805162461bcd60e51b815260206004820152601a60248201527f536166654d6174683a206469766973696f6e206279207a65726f000000000000604482015290519081900360640190fd5b8183816118aa57fe5b049392505050565b600082821115611909576040805162461bcd60e51b815260206004820152601e60248201527f536166654d6174683a207375627472616374696f6e206f766572666c6f770000604482015290519081900360640190fd5b50900390565b611917611cd1565b6001600160a01b038581166000908152600460208181526040808420898552825292839020835160e081018552815481526001808301548716828501526002808401549097168287015260038301546060830152938201805486516101009682161596909602600019011696909604601f81018490048402850184019095528484529490936080860193928301828280156119f35780601f106119c8576101008083540402835291602001916119f3565b820191906000526020600020905b8154815290600101906020018083116119d657829003601f168201915b50505091835250506005820154602082015260069091015460409182015251632142170760e11b81529091506001600160a01b038616906342842e0e90611a429030908a9089906004016120a8565b600060405180830381600087803b158015611a5c57600080fd5b505af1158015611a70573d6000803e3d6000fd5b5050506001600160a01b038616600090815260046020818152604080842089855290915282208281556001810180546001600160a01b03199081169091556002820180549091169055600381018390559250611ace90830182611d0c565b600582016000905560068201600090555050806060015181604001516001600160a01b03167f0d6fd7252dd0da66e6b04e6e0000acb9a7edc31caabc890a33aee7ce74c97ca5836000015184602001518a86608001518842604051611b3896959493929190612140565b60405180910390a350505050505050565b6040516301ffc9a760e01b81526000906001600160a01b038316906301ffc9a790611b7f906380ac58cd60e01b906004016121b3565b60206040518083038186803b158015611b9757600080fd5b505afa158015611bab573d6000803e3d6000fd5b505050506040513d601f19601f82011682018060405250810190611bcf9190611f66565b611beb5760405162461bcd60e51b815260040161077790612318565b5090565b600082820183811015611844576040805162461bcd60e51b815260206004820152601b60248201527f536166654d6174683a206164646974696f6e206f766572666c6f770000000000604482015290519081900360640190fd5b828054600181600116156101000203166002900490600052602060002090601f016020900481019282611c7f5760008555611cc5565b82601f10611c9857805160ff1916838001178555611cc5565b82800160010185558215611cc5579182015b82811115611cc5578251825591602001919060010190611caa565b50611beb929150611d53565b6040805160e0810182526000808252602082018190529181018290526060808201839052608082015260a0810182905260c081019190915290565b50805460018160011615610100020316600290046000825580601f10611d325750611d50565b601f016020900490600052602060002090810190611d509190611d53565b50565b5b80821115611beb5760008155600101611d54565b600082601f830112611d78578081fd5b813567ffffffffffffffff80821115611d8d57fe5b604051601f8301601f191681016020018281118282101715611dab57fe5b604052828152925082848301602001861015611dc657600080fd5b8260208601602083013760006020848301015250505092915050565b600060208284031215611df3578081fd5b81356118448161243e565b600060208284031215611e0f578081fd5b81516118448161243e565b60008060008060808587031215611e2f578283fd5b8435611e3a8161243e565b93506020850135611e4a8161243e565b925060408501359150606085013567ffffffffffffffff811115611e6c578182fd5b611e7887828801611d68565b91505092959194509250565b60008060408385031215611e96578182fd5b8235611ea18161243e565b9150602083013567ffffffffffffffff811115611ebc578182fd5b611ec885828601611d68565b9150509250929050565b60008060408385031215611ee4578182fd5b8235611eef8161243e565b946020939093013593505050565b600080600080600060a08688031215611f14578081fd5b8535611f1f8161243e565b945060208601359350604086013567ffffffffffffffff811115611f41578182fd5b611f4d88828901611d68565b9598949750949560608101359550608001359392505050565b600060208284031215611f77578081fd5b81518015158114611844578182fd5b600060208284031215611f97578081fd5b813567ffffffffffffffff811115611fad578182fd5b611fb984828501611d68565b949350505050565b600060208284031215611fd2578081fd5b5035919050565b600060208284031215611fea578081fd5b5051919050565b6000815180845261200981602086016020860161240e565b601f01601f19169290920160200192915050565b6000825161202f81846020870161240e565b9190910192915050565b60008782526bffffffffffffffffffffffff19808860601b166020840152808760601b16603484015250846048830152835161207c81606885016020880161240e565b60689201918201929092526088019695505050505050565b6001600160a01b0391909116815260200190565b6001600160a01b039384168152919092166020820152604081019190915260600190565b6000602080830181845280855180835260408601915060408482028701019250838701855b8281101561211f57603f1988860301845261210d858351611ff1565b945092850192908501906001016120f1565b5092979650505050505050565b901515815260200190565b90815260200190565b8681526001600160a01b0386811660208301528516604082015260c06060820181905260009061217290830186611ff1565b60808301949094525060a00152949350505050565b6000858252608060208301526121a06080830186611ff1565b6040830194909452506060015292915050565b6001600160e01b031991909116815260200190565b6000602082526118446020830184611ff1565b6020808252601a908201527f4d61726b6574706c6163653a206f726465722065787069726564000000000000604082015260600190565b6020808252602a908201527f4d61726b6574706c6163653a2050726963652073686f756c64206265206269676040820152690676572207468616e20360b41b606082015260800190565b60208082526033908201527f4d61726b6574706c6163653a204f6e6c7920746865206173736574206f776e65604082015272722063616e20637265617465206f726465727360681b606082015260800190565b60208082526043908201527f4d61726b6574706c6163653a205075626c69636174696f6e2073686f756c642060408201527f6265206d6f7265207468616e2031206d696e75746520696e207468652066757460608201526275726560e81b608082015260a00190565b60208082526035908201527f546865204e465420636f6e74726163742068617320616e20696e76616c69642060408201527422a9219b99189034b6b83632b6b2b73a30ba34b7b760591b606082015260800190565b6020808252818101527f4d61726b6574706c6163653a20756e617574686f72697a65642073656e646572604082015260600190565b6020808252818101527f4d61726b6574706c6163653a206173736574206e6f74207075626c6973686564604082015260600190565b6020808252601a908201527f4d61726b6574706c6163653a20696e76616c6964207072696365000000000000604082015260600190565b60005b83811015612429578181015183820152602001612411565b83811115612438576000848401525b50505050565b6001600160a01b0381168114611d5057600080fdfe4f776e61626c653a206e6577206f776e657220697320746865207a65726f2061646472657373536166654d6174683a206d756c7469706c69636174696f6e206f766572666c6f774f776e61626c653a2063616c6c6572206973206e6f7420746865206f776e6572546865206f776e6572206375742073686f756c64206265206265747765656e203020616e64206d61784375745065724d696c6c696f6ea26469706673582212207f65b13ec4fb8eed5420b1d298b87eecce10610375f35273549791e4ee4f703f64736f6c63430007040033",
  "immutableReferences": {},
  "source": "// SPDX-License-Identifier: MIT\r\npragma solidity >=0.4.22 <0.9.0;\r\npragma experimental ABIEncoderV2;\r\n\r\nimport \"@openzeppelin/contracts/token/ERC721/ERC721.sol\";\r\nimport \"@openzeppelin/contracts/introspection/IERC165.sol\";\r\nimport \"@openzeppelin/contracts/token/ERC20/ERC20.sol\";\r\nimport \"@openzeppelin/contracts/math/SafeMath.sol\";\r\nimport \"@openzeppelin/contracts/utils/Address.sol\";\r\nimport \"@openzeppelin/contracts/access/Ownable.sol\";\r\nimport \"@openzeppelin/contracts/token/ERC721/IERC721Receiver.sol\";\r\nimport \"./interface/RoyaltyFactory.sol\";\r\nimport \"./INft_Marketplace.sol\";\r\nimport \"./FeeManager.sol\";\r\n\r\ncontract Fixed_Marketplace is INft_Marketplace, FeeManager, IERC721Receiver {\r\n    using SafeMath for uint256;\r\n    string internal cifi_Symbol = \"CIFI\";\r\n    string bnb_Symbol = \"BNB\";\r\n\r\n    // From ERC721 registry assetId to Order (to avoid asset collision)\r\n    mapping(address => mapping(uint256 => Order)) orderByAssetId;\r\n\r\n    mapping(string => address) acceptedTokens;\r\n\r\n    // array that saves all the symbols of accepted tokens\r\n    string[] public acceptedTokensSymbols;\r\n\r\n    constructor() {}\r\n\r\n    // 721 Interfaces\r\n    bytes4 public constant _INTERFACE_ID_ERC721 = 0x80ac58cd;\r\n    bytes4 private constant _INTERFACE_ID_ROYALTY = 0x0760a14c;\r\n\r\n    /**\r\n     * Creates a new order\r\n     *  _nftAddress - Non fungible contract address\r\n     *  _assetId - ID of the published NFT\r\n     *  _priceInAnyOfTheSupportedCurrencies - price In Any Of The Supported Currencies\r\n     *  _expiresAt - Duration of the order (in hours)\r\n     */\r\n\r\n    function createOrder(\r\n        address _nftAddress,\r\n        uint256 _assetId,\r\n        string memory _tokenSymbol,\r\n        uint256 _price,\r\n        uint256 _expiresAt\r\n    ) public returns (bytes32) {\r\n        return\r\n            _createOrder(\r\n                _nftAddress,\r\n                _assetId,\r\n                _tokenSymbol,\r\n                _price,\r\n                _expiresAt\r\n            );\r\n    }\r\n\r\n    /**\r\n     *  Cancel an already published order\r\n     *  can only be canceled by seller or the contract owner\r\n     *  nftAddress - Address of the NFT registry\r\n     *  assetId - ID of the published NFT\r\n     */\r\n    function cancelOrder(address _nftAddress, uint256 _assetId) public {\r\n        Order memory order = orderByAssetId[_nftAddress][_assetId];\r\n\r\n        require(order.seller == msg.sender, \"Marketplace: unauthorized sender\");\r\n\r\n        _cancelOrder(order.id, _nftAddress, _assetId, msg.sender);\r\n    }\r\n\r\n    /**\r\n     * Executes the sale for a published NFT\r\n     *  nftAddress - Address of the NFT registry\r\n     *  assetId - ID of the published NFT\r\n     *  priceInAnyOfTheFourCurrencies - Order price\r\n     */\r\n\r\n    function safeExecuteOrder(address _nftAddress, uint256 _assetId)\r\n        public\r\n        payable\r\n    {\r\n        // Get the current valid order for the asset or fail\r\n        Order memory order = _getValidOrder(_nftAddress, _assetId);\r\n\r\n        /// Check the execution price matches the order price\r\n        require(order.seller != msg.sender, \"Marketplace: unauthorized sender\");\r\n\r\n        if (compareStrings(order.tokenSymbol, bnb_Symbol)) {\r\n            require(order.price == msg.value, \"Marketplace: invalid price\");\r\n        }\r\n        // market fee to cut\r\n        uint256 saleShareAmount = 0;\r\n        address tokenAddress = acceptedTokens[order.tokenSymbol];\r\n        ERC20 acceptedToken = ERC20(tokenAddress);\r\n        uint256 royaltyFeeAmount = 0;\r\n        if (IERC165(_nftAddress).supportsInterface(_INTERFACE_ID_ROYALTY)) {\r\n            address orignalCreater =\r\n                RoyaltyFactory(_nftAddress).getOriginalCreator(_assetId);\r\n            uint256 royaltyFee =\r\n                RoyaltyFactory(_nftAddress).getRoyaltyFee(_assetId);\r\n            royaltyFeeAmount = order.price.mul(royaltyFee).div(1e6);\r\n            if (compareStrings(order.tokenSymbol, bnb_Symbol)) {\r\n                // Transfer share amount for marketplace Owner\r\n                payable(orignalCreater).transfer(royaltyFeeAmount);\r\n            } \r\n            // Remove the following block 2021-08-30\r\n            // else \r\n            // {\r\n            //     acceptedToken.transferFrom(\r\n            //         msg.sender, //buyer\r\n            //         orignalCreater,\r\n            //         royaltyFeeAmount\r\n            //     );\r\n            // }\r\n        }\r\n\r\n        // Send market fees to owner\r\n        if (FeeManager.cutPerMillion > 0) {\r\n            // Calculate sale share\r\n            saleShareAmount = order.price.mul(FeeManager.cutPerMillion).div(1e6);\r\n\r\n            if (compareStrings(order.tokenSymbol, cifi_Symbol)) {\r\n                // Transfer half of share amount for marketplace Owner\r\n                acceptedToken.transferFrom(\r\n                    msg.sender, //buyer\r\n                    owner(),\r\n                    saleShareAmount // saleShareAmount.div(3) changed_at 2021-08-30\r\n                );\r\n            } else if (compareStrings(order.tokenSymbol, bnb_Symbol)) {\r\n                // Transfer share amount for marketplace Owner\r\n                payable(owner()).transfer(saleShareAmount);\r\n            } else {\r\n                acceptedToken.transferFrom(\r\n                    msg.sender, //buyer\r\n                    owner(),\r\n                    saleShareAmount\r\n                );\r\n            }\r\n        }\r\n\r\n        if (compareStrings(order.tokenSymbol, cifi_Symbol)) {\r\n            // Transfer accepted token amount minus market fee to seller\r\n            uint256 amount =\r\n                order.price.sub(\r\n                    saleShareAmount // .div(3).mul(2)).sub(royaltyFeeAmount changed_at 2021-08-30\r\n                );\r\n            acceptedToken.transferFrom(\r\n                msg.sender, // buyer\r\n                order.seller, // seller\r\n                amount\r\n            );\r\n        } else if (compareStrings(order.tokenSymbol, bnb_Symbol)) {\r\n            // Transfer share amount for marketplace Owner\r\n            payable(order.seller).transfer(\r\n                order.price.sub(saleShareAmount).sub(royaltyFeeAmount)\r\n            );\r\n        } else {\r\n            // Transfer accepted token amount minus market fee to seller\r\n            acceptedToken.transferFrom(\r\n                msg.sender, // buyer\r\n                order.seller, // seller\r\n                order.price.sub(saleShareAmount).sub(royaltyFeeAmount)\r\n            );\r\n        }\r\n\r\n        _executeOrder(\r\n            order.id,\r\n            msg.sender, // buyer\r\n            _nftAddress,\r\n            _assetId,\r\n            order.tokenSymbol,\r\n            order.price\r\n        );\r\n    }\r\n\r\n    /**\r\n     * Internal function gets Order by nftRegistry and assetId. Checks for the order validity\r\n     * nftAddress - Address of the NFT registry\r\n     * assetId - ID of the published NFT\r\n     */\r\n    function _getValidOrder(address _nftAddress, uint256 _assetId)\r\n        internal\r\n        view\r\n        returns (Order memory order)\r\n    {\r\n        order = orderByAssetId[_nftAddress][_assetId];\r\n\r\n        require(order.id != 0, \"Marketplace: asset not published\");\r\n        require(\r\n            order.expiresAt >= block.timestamp,\r\n            \"Marketplace: order expired\"\r\n        );\r\n    }\r\n\r\n    /**\r\n     * Executes the sale for a published NFT\r\n     *  orderId - Order Id to execute\r\n     *  buyer - address\r\n     *  nftAddress - Address of the NFT registry\r\n     *  assetId - NFT id\r\n     *  price - Order price\r\n     */\r\n    function _executeOrder(\r\n        bytes32 _orderId,\r\n        address _buyer,\r\n        address _nftAddress,\r\n        uint256 _assetId,\r\n        string memory _tokenSymbol,\r\n        uint256 _price\r\n    ) internal {\r\n        // remove order\r\n        Order memory order = orderByAssetId[_nftAddress][_assetId];\r\n        // Transfer NFT asset\r\n        IERC721(_nftAddress).safeTransferFrom(address(this), _buyer, _assetId);\r\n\r\n        delete orderByAssetId[_nftAddress][_assetId];\r\n        // Notify ..\r\n        emit OrderSuccessful(\r\n            order.id,\r\n            order.seller,\r\n            _buyer,\r\n            order.nftAddress,\r\n            order.nftId,\r\n            order.tokenSymbol,\r\n            _price,\r\n            block.timestamp\r\n        );\r\n    }\r\n\r\n    /**\r\n     * Creates a new order\r\n     *  nftAddress - Non fungible contract address\r\n     *  assetId - ID of the published NFT\r\n     *  priceInAnyOfTheSupportedCurrencies - price In Any Of The Supported Currencies\r\n     *  expiresAt - Expiration time for the order\r\n     */\r\n    function _createOrder(\r\n        address _nftAddress,\r\n        uint256 _assetId,\r\n        string memory _tokenSymbol,\r\n        uint256 _price,\r\n        uint256 _expiresAt\r\n    ) internal returns (bytes32) {\r\n        // Check nft registry\r\n        IERC721 nftRegistry = _requireERC721(_nftAddress);\r\n\r\n        // Check order creator is the asset owner\r\n        address assetOwner = nftRegistry.ownerOf(_assetId);\r\n\r\n        require(\r\n            assetOwner == msg.sender,\r\n            \"Marketplace: Only the asset owner can create orders\"\r\n        );\r\n\r\n        require(_price > 0, \"Marketplace: Price should be bigger than 0\");\r\n\r\n        require(\r\n            _expiresAt > block.timestamp.add(1 minutes),\r\n            \"Marketplace: Publication should be more than 1 minute in the future\"\r\n        );\r\n\r\n        // get NFT asset from seller\r\n        nftRegistry.safeTransferFrom(assetOwner, address(this), _assetId);\r\n\r\n        // create the orderId\r\n        bytes32 orderId =\r\n            keccak256(\r\n                abi.encodePacked(\r\n                    block.timestamp,\r\n                    assetOwner,\r\n                    _nftAddress,\r\n                    _assetId,\r\n                    _tokenSymbol,\r\n                    _price\r\n                )\r\n            );\r\n\r\n        // save order\r\n        orderByAssetId[_nftAddress][_assetId] = Order({\r\n            id: orderId,\r\n            seller: assetOwner,\r\n            nftAddress: _nftAddress,\r\n            nftId: _assetId,\r\n            tokenSymbol: _tokenSymbol,\r\n            price: _price,\r\n            expiresAt: _expiresAt\r\n        });\r\n\r\n        emit OrderCreated(\r\n            orderId,\r\n            assetOwner,\r\n            _nftAddress,\r\n            _tokenSymbol,\r\n            _assetId,\r\n            _price,\r\n            _expiresAt\r\n        );\r\n        return orderId;\r\n    }\r\n\r\n    /**\r\n     * Cancel an already published order\r\n     *  can only be canceled by seller or the contract owner\r\n     * orderId - Bid identifier\r\n     * nftAddress - Address of the NFT registry\r\n     * assetId - ID of the published NFT\r\n     * seller - Address\r\n     */\r\n    function _cancelOrder(\r\n        bytes32 _orderId,\r\n        address _nftAddress,\r\n        uint256 _assetId,\r\n        address _seller\r\n    ) internal {\r\n        delete orderByAssetId[_nftAddress][_assetId];\r\n        /// send asset back to seller\r\n        IERC721(_nftAddress).safeTransferFrom(address(this), _seller, _assetId);\r\n        emit OrderCancelled(_orderId);\r\n    }\r\n\r\n    function _requireERC721(address _nftAddress)\r\n        internal\r\n        view\r\n        returns (IERC721)\r\n    {\r\n        require(\r\n            IERC165(_nftAddress).supportsInterface(_INTERFACE_ID_ERC721),\r\n            \"The NFT contract has an invalid ERC721 implementation\"\r\n        );\r\n        return IERC721(_nftAddress);\r\n    }\r\n\r\n    function addAcceptedToken(\r\n        address acceptedTokenAddress,\r\n        string memory acceptedTokenSymbol\r\n    ) public onlyOwner returns (bool) {\r\n        acceptedTokens[acceptedTokenSymbol] = acceptedTokenAddress;\r\n        acceptedTokensSymbols.push(acceptedTokenSymbol);\r\n        return true;\r\n    }\r\n\r\n    function getTokenSymbols() public view returns (string[] memory) {\r\n        return acceptedTokensSymbols;\r\n    }\r\n\r\n    function getTokenAddress(string memory tokenSymbol)\r\n        public\r\n        view\r\n        returns (address)\r\n    {\r\n        return acceptedTokens[tokenSymbol];\r\n    }\r\n\r\n    function onERC721Received(\r\n        address,\r\n        address,\r\n        uint256,\r\n        bytes memory\r\n    ) public virtual override returns (bytes4) {\r\n        return this.onERC721Received.selector;\r\n    }\r\n\r\n    function compareStrings(string memory a, string memory b)\r\n        internal\r\n        pure\r\n        returns (bool)\r\n    {\r\n        return (keccak256(abi.encodePacked((a))) ==\r\n            keccak256(abi.encodePacked((b))));\r\n    }\r\n}\r\n",
  "sourcePath": "F:\\SantaFeMarketPlace_2021_8_31\\src\\contracts\\Fixed_Marketplace.sol",
  "compiler": {
    "name": "solc",
    "version": "0.7.4+commit.3f05b770.Emscripten.clang"
  },
  "schemaVersion": "3.4.2",
  "updatedAt": "2021-08-31T01:07:31.259Z",
  "networkType": "ethereum",
  "devdoc": {
    "kind": "dev",
    "methods": {
      "owner()": {
        "details": "Returns the address of the current owner."
      },
      "renounceOwnership()": {
        "details": "Leaves the contract without owner. It will not be possible to call `onlyOwner` functions anymore. Can only be called by the current owner. NOTE: Renouncing ownership will leave the contract without an owner, thereby removing any functionality that is only available to the owner."
      },
      "transferOwnership(address)": {
        "details": "Transfers ownership of the contract to a new account (`newOwner`). Can only be called by the current owner."
      }
    },
    "version": 1
  },
  "userdoc": {
    "kind": "user",
    "methods": {
      "cancelOrder(address,uint256)": {
        "notice": "Cancel an already published order  can only be canceled by seller or the contract owner  nftAddress - Address of the NFT registry  assetId - ID of the published NFT"
      },
      "createOrder(address,uint256,string,uint256,uint256)": {
        "notice": "Creates a new order  _nftAddress - Non fungible contract address  _assetId - ID of the published NFT  _priceInAnyOfTheSupportedCurrencies - price In Any Of The Supported Currencies  _expiresAt - Duration of the order (in hours)"
      },
      "safeExecuteOrder(address,uint256)": {
        "notice": "Executes the sale for a published NFT  nftAddress - Address of the NFT registry  assetId - ID of the published NFT  priceInAnyOfTheFourCurrencies - Order price"
      },
      "setOwnerCutPerMillion(uint256)": {
        "notice": "Sets the share cut for the owner of the contract that's charged to the seller on a successful sale Share amount, from 0 to 99,999"
      }
    },
    "version": 1
  }
}