{
  "contractName": "Fixed_Marketplace1155",
  "abi": [
    {
      "inputs": [],
      "stateMutability": "nonpayable",
      "type": "constructor"
    },
    {
      "anonymous": false,
      "inputs": [
        {
          "indexed": false,
          "internalType": "bytes32",
          "name": "id",
          "type": "bytes32"
        }
      ],
      "name": "BidAccepted",
      "type": "event"
    },
    {
      "anonymous": false,
      "inputs": [
        {
          "indexed": false,
          "internalType": "bytes32",
          "name": "id",
          "type": "bytes32"
        }
      ],
      "name": "BidCancelled",
      "type": "event"
    },
    {
      "anonymous": false,
      "inputs": [
        {
          "indexed": false,
          "internalType": "bytes32",
          "name": "id",
          "type": "bytes32"
        },
        {
          "indexed": false,
          "internalType": "address",
          "name": "seller",
          "type": "address"
        },
        {
          "indexed": true,
          "internalType": "address",
          "name": "nftAddress",
          "type": "address"
        },
        {
          "indexed": true,
          "internalType": "uint256",
          "name": "assetId",
          "type": "uint256"
        },
        {
          "indexed": false,
          "internalType": "uint256",
          "name": "amount",
          "type": "uint256"
        },
        {
          "indexed": true,
          "internalType": "address",
          "name": "bidder",
          "type": "address"
        },
        {
          "indexed": false,
          "internalType": "string",
          "name": "tokenSymbol",
          "type": "string"
        },
        {
          "indexed": false,
          "internalType": "uint256",
          "name": "price",
          "type": "uint256"
        },
        {
          "indexed": false,
          "internalType": "uint256",
          "name": "expiresAt",
          "type": "uint256"
        }
      ],
      "name": "BidCreated",
      "type": "event"
    },
    {
      "anonymous": false,
      "inputs": [
        {
          "indexed": false,
          "internalType": "uint256",
          "name": "cutPerMillion",
          "type": "uint256"
        }
      ],
      "name": "ChangedFeePerMillion",
      "type": "event"
    },
    {
      "anonymous": false,
      "inputs": [
        {
          "indexed": false,
          "internalType": "bytes32",
          "name": "id",
          "type": "bytes32"
        }
      ],
      "name": "OrderCancelled",
      "type": "event"
    },
    {
      "anonymous": false,
      "inputs": [
        {
          "indexed": false,
          "internalType": "bytes32",
          "name": "id",
          "type": "bytes32"
        },
        {
          "indexed": true,
          "internalType": "address",
          "name": "seller",
          "type": "address"
        },
        {
          "indexed": true,
          "internalType": "address",
          "name": "nftAddress",
          "type": "address"
        },
        {
          "indexed": true,
          "internalType": "uint256",
          "name": "assetId",
          "type": "uint256"
        },
        {
          "indexed": false,
          "internalType": "uint256",
          "name": "amount",
          "type": "uint256"
        },
        {
          "indexed": false,
          "internalType": "string",
          "name": "tokenSymbol",
          "type": "string"
        },
        {
          "indexed": false,
          "internalType": "uint256",
          "name": "priceInWei",
          "type": "uint256"
        },
        {
          "indexed": false,
          "internalType": "uint256",
          "name": "expiresAt",
          "type": "uint256"
        }
      ],
      "name": "OrderCreated",
      "type": "event"
    },
    {
      "anonymous": false,
      "inputs": [
        {
          "indexed": false,
          "internalType": "bytes32",
          "name": "id",
          "type": "bytes32"
        },
        {
          "indexed": false,
          "internalType": "address",
          "name": "seller",
          "type": "address"
        },
        {
          "indexed": false,
          "internalType": "address",
          "name": "buyer",
          "type": "address"
        },
        {
          "indexed": true,
          "internalType": "address",
          "name": "nftAddress",
          "type": "address"
        },
        {
          "indexed": true,
          "internalType": "uint256",
          "name": "assetId",
          "type": "uint256"
        },
        {
          "indexed": false,
          "internalType": "uint256",
          "name": "amount",
          "type": "uint256"
        },
        {
          "indexed": false,
          "internalType": "string",
          "name": "tokenSymbol",
          "type": "string"
        },
        {
          "indexed": false,
          "internalType": "uint256",
          "name": "priceInWei",
          "type": "uint256"
        },
        {
          "indexed": false,
          "internalType": "uint256",
          "name": "timestamp",
          "type": "uint256"
        }
      ],
      "name": "OrderSuccessful",
      "type": "event"
    },
    {
      "anonymous": false,
      "inputs": [
        {
          "indexed": true,
          "internalType": "address",
          "name": "previousOwner",
          "type": "address"
        },
        {
          "indexed": true,
          "internalType": "address",
          "name": "newOwner",
          "type": "address"
        }
      ],
      "name": "OwnershipTransferred",
      "type": "event"
    },
    {
      "inputs": [],
      "name": "_INTERFACE_ID_ERC1155",
      "outputs": [
        {
          "internalType": "bytes4",
          "name": "",
          "type": "bytes4"
        }
      ],
      "stateMutability": "view",
      "type": "function"
    },
    {
      "inputs": [
        {
          "internalType": "uint256",
          "name": "",
          "type": "uint256"
        }
      ],
      "name": "acceptedTokensSymbols",
      "outputs": [
        {
          "internalType": "string",
          "name": "",
          "type": "string"
        }
      ],
      "stateMutability": "view",
      "type": "function"
    },
    {
      "inputs": [],
      "name": "cutPerMillion",
      "outputs": [
        {
          "internalType": "uint256",
          "name": "",
          "type": "uint256"
        }
      ],
      "stateMutability": "view",
      "type": "function"
    },
    {
      "inputs": [],
      "name": "maxCutPerMillion",
      "outputs": [
        {
          "internalType": "uint256",
          "name": "",
          "type": "uint256"
        }
      ],
      "stateMutability": "view",
      "type": "function"
    },
    {
      "inputs": [],
      "name": "owner",
      "outputs": [
        {
          "internalType": "address",
          "name": "",
          "type": "address"
        }
      ],
      "stateMutability": "view",
      "type": "function"
    },
    {
      "inputs": [],
      "name": "renounceOwnership",
      "outputs": [],
      "stateMutability": "nonpayable",
      "type": "function"
    },
    {
      "inputs": [
        {
          "internalType": "uint256",
          "name": "_cutPerMillion",
          "type": "uint256"
        }
      ],
      "name": "setOwnerCutPerMillion",
      "outputs": [],
      "stateMutability": "nonpayable",
      "type": "function"
    },
    {
      "inputs": [
        {
          "internalType": "address",
          "name": "newOwner",
          "type": "address"
        }
      ],
      "name": "transferOwnership",
      "outputs": [],
      "stateMutability": "nonpayable",
      "type": "function"
    },
    {
      "inputs": [
        {
          "internalType": "address",
          "name": "_nftAddress",
          "type": "address"
        },
        {
          "internalType": "uint256",
          "name": "_assetId",
          "type": "uint256"
        },
        {
          "internalType": "uint256",
          "name": "_amount",
          "type": "uint256"
        },
        {
          "internalType": "string",
          "name": "_tokenSymbol",
          "type": "string"
        },
        {
          "internalType": "uint256",
          "name": "_price",
          "type": "uint256"
        },
        {
          "internalType": "uint256",
          "name": "_expiresAt",
          "type": "uint256"
        }
      ],
      "name": "createOrder",
      "outputs": [
        {
          "internalType": "bytes32",
          "name": "",
          "type": "bytes32"
        }
      ],
      "stateMutability": "nonpayable",
      "type": "function"
    },
    {
      "inputs": [
        {
          "internalType": "bytes32",
          "name": "orderID",
          "type": "bytes32"
        }
      ],
      "name": "cancelOrder",
      "outputs": [],
      "stateMutability": "nonpayable",
      "type": "function"
    },
    {
      "inputs": [
        {
          "internalType": "bytes32",
          "name": "_orderId",
          "type": "bytes32"
        }
      ],
      "name": "safeExecuteOrder",
      "outputs": [],
      "stateMutability": "payable",
      "type": "function"
    },
    {
      "inputs": [
        {
          "internalType": "address",
          "name": "acceptedTokenAddress",
          "type": "address"
        },
        {
          "internalType": "string",
          "name": "acceptedTokenSymbol",
          "type": "string"
        }
      ],
      "name": "addAcceptedToken",
      "outputs": [
        {
          "internalType": "bool",
          "name": "",
          "type": "bool"
        }
      ],
      "stateMutability": "nonpayable",
      "type": "function"
    },
    {
      "inputs": [],
      "name": "getTokenSymbols",
      "outputs": [
        {
          "internalType": "string[]",
          "name": "",
          "type": "string[]"
        }
      ],
      "stateMutability": "view",
      "type": "function"
    },
    {
      "inputs": [
        {
          "internalType": "string",
          "name": "tokenSymbol",
          "type": "string"
        }
      ],
      "name": "getTokenAddress",
      "outputs": [
        {
          "internalType": "address",
          "name": "",
          "type": "address"
        }
      ],
      "stateMutability": "view",
      "type": "function"
    },
    {
      "inputs": [
        {
          "internalType": "address",
          "name": "",
          "type": "address"
        },
        {
          "internalType": "address",
          "name": "",
          "type": "address"
        },
        {
          "internalType": "uint256",
          "name": "",
          "type": "uint256"
        },
        {
          "internalType": "uint256",
          "name": "",
          "type": "uint256"
        },
        {
          "internalType": "bytes",
          "name": "",
          "type": "bytes"
        }
      ],
      "name": "onERC1155Received",
      "outputs": [
        {
          "internalType": "bytes4",
          "name": "",
          "type": "bytes4"
        }
      ],
      "stateMutability": "nonpayable",
      "type": "function"
    },
    {
      "inputs": [
        {
          "internalType": "address",
          "name": "",
          "type": "address"
        },
        {
          "internalType": "address",
          "name": "",
          "type": "address"
        },
        {
          "internalType": "uint256[]",
          "name": "",
          "type": "uint256[]"
        },
        {
          "internalType": "uint256[]",
          "name": "",
          "type": "uint256[]"
        },
        {
          "internalType": "bytes",
          "name": "",
          "type": "bytes"
        }
      ],
      "name": "onERC1155BatchReceived",
      "outputs": [
        {
          "internalType": "bytes4",
          "name": "",
          "type": "bytes4"
        }
      ],
      "stateMutability": "nonpayable",
      "type": "function"
    },
    {
      "inputs": [
        {
          "internalType": "bytes4",
          "name": "",
          "type": "bytes4"
        }
      ],
      "name": "supportsInterface",
      "outputs": [
        {
          "internalType": "bool",
          "name": "",
          "type": "bool"
        }
      ],
      "stateMutability": "view",
      "type": "function"
    }
  ],
  "bytecode": "0x60806040526161a86001556040518060400160405280600481526020017f4349464900000000000000000000000000000000000000000000000000000000815250600290805190602001906200005792919062000172565b506040518060400160405280600381526020017f424e42000000000000000000000000000000000000000000000000000000000081525060039080519060200190620000a592919062000172565b50348015620000b357600080fd5b506000620000c66200016a60201b60201c565b9050806000806101000a81548173ffffffffffffffffffffffffffffffffffffffff021916908373ffffffffffffffffffffffffffffffffffffffff1602179055508073ffffffffffffffffffffffffffffffffffffffff16600073ffffffffffffffffffffffffffffffffffffffff167f8be0079c531659141344cd1fd0a4f28419497f9722a3daafe3b4186f6b6457e060405160405180910390a35062000228565b600033905090565b828054600181600116156101000203166002900490600052602060002090601f016020900481019282620001aa5760008555620001f6565b82601f10620001c557805160ff1916838001178555620001f6565b82800160010185558215620001f6579182015b82811115620001f5578251825591602001919060010190620001d8565b5b50905062000205919062000209565b5090565b5b80821115620002245760008160009055506001016200020a565b5090565b613c5780620002386000396000f3fe6080604052600436106100fe5760003560e01c80637489ec2311610095578063bfe92eb111610064578063bfe92eb114610328578063c409123614610365578063c555e050146103a2578063f23a6e61146103cd578063f2fde38b1461040a576100fe565b80637489ec231461027b5780638da5cb5b146102a4578063ad650399146102cf578063bc197c81146102eb576100fe565b8063233831cd116100d1578063233831cd146101d1578063304149d8146101fc578063673c855314610239578063715018a614610264576100fe565b806301ffc9a71461010357806302d5e6951461014057806305b938161461017d57806319dad16d146101a8575b600080fd5b34801561010f57600080fd5b5061012a60048036038101906101259190612ff7565b610433565b60405161013791906136a8565b60405180910390f35b34801561014c57600080fd5b5061016760048036038101906101629190613061565b61043a565b60405161017491906137c9565b60405180910390f35b34801561018957600080fd5b506101926104f6565b60405161019f9190613686565b60405180910390f35b3480156101b457600080fd5b506101cf60048036038101906101ca9190613061565b6105df565b005b3480156101dd57600080fd5b506101e661072c565b6040516101f391906137ae565b60405180910390f35b34801561020857600080fd5b50610223600480360381019061021e9190612eb0565b610737565b60405161023091906136a8565b60405180910390f35b34801561024557600080fd5b5061024e61088b565b60405161025b91906138cb565b60405180910390f35b34801561027057600080fd5b50610279610891565b005b34801561028757600080fd5b506102a2600480360381019061029d9190612fce565b6109fe565b005b3480156102b057600080fd5b506102b9610c26565b6040516102c69190613584565b60405180910390f35b6102e960048036038101906102e49190612fce565b610c4f565b005b3480156102f757600080fd5b50610312600480360381019061030d9190612d52565b611856565b60405161031f91906137ae565b60405180910390f35b34801561033457600080fd5b5061034f600480360381019061034a9190612f04565b611887565b60405161035c91906136c3565b60405180910390f35b34801561037157600080fd5b5061038c60048036038101906103879190613020565b6118a3565b6040516103999190613584565b60405180910390f35b3480156103ae57600080fd5b506103b76118eb565b6040516103c491906138cb565b60405180910390f35b3480156103d957600080fd5b506103f460048036038101906103ef9190612e1e565b6118f2565b60405161040191906137ae565b60405180910390f35b34801561041657600080fd5b50610431600480360381019061042c9190612d00565b611921565b005b6000919050565b6006818154811061044a57600080fd5b906000526020600020016000915090508054600181600116156101000203166002900480601f0160208091040260200160405190810160405280929190818152602001828054600181600116156101000203166002900480156104ee5780601f106104c3576101008083540402835291602001916104ee565b820191906000526020600020905b8154815290600101906020018083116104d157829003601f168201915b505050505081565b60606006805480602002602001604051908101604052809291908181526020016000905b828210156105d6578382906000526020600020018054600181600116156101000203166002900480601f0160208091040260200160405190810160405280929190818152602001828054600181600116156101000203166002900480156105c25780601f10610597576101008083540402835291602001916105c2565b820191906000526020600020905b8154815290600101906020018083116105a557829003601f168201915b50505050508152602001906001019061051a565b50505050905090565b6105e7611b13565b73ffffffffffffffffffffffffffffffffffffffff16610605610c26565b73ffffffffffffffffffffffffffffffffffffffff161461068e576040517f08c379a00000000000000000000000000000000000000000000000000000000081526004018080602001828103825260208152602001807f4f776e61626c653a2063616c6c6572206973206e6f7420746865206f776e657281525060200191505060405180910390fd5b620186a081106106e9576040517f08c379a0000000000000000000000000000000000000000000000000000000008152600401808060200182810382526036815260200180613bec6036913960400191505060405180910390fd5b806001819055507fdb629698afb23c88e17ec4d29f97b3907c3e1fbfd116fa15f97569c7c16b3e4d6001546040518082815260200191505060405180910390a150565b63d9b67a2660e01b81565b6000610741611b13565b73ffffffffffffffffffffffffffffffffffffffff1661075f610c26565b73ffffffffffffffffffffffffffffffffffffffff16146107e8576040517f08c379a00000000000000000000000000000000000000000000000000000000081526004018080602001828103825260208152602001807f4f776e61626c653a2063616c6c6572206973206e6f7420746865206f776e657281525060200191505060405180910390fd5b826005836040516107f991906134f0565b908152602001604051809103902060006101000a81548173ffffffffffffffffffffffffffffffffffffffff021916908373ffffffffffffffffffffffffffffffffffffffff160217905550600682908060018154018082558091505060019003906000526020600020016000909190919091509080519060200190610880929190612a1e565b506001905092915050565b60015481565b610899611b13565b73ffffffffffffffffffffffffffffffffffffffff166108b7610c26565b73ffffffffffffffffffffffffffffffffffffffff1614610940576040517f08c379a00000000000000000000000000000000000000000000000000000000081526004018080602001828103825260208152602001807f4f776e61626c653a2063616c6c6572206973206e6f7420746865206f776e657281525060200191505060405180910390fd5b600073ffffffffffffffffffffffffffffffffffffffff1660008054906101000a900473ffffffffffffffffffffffffffffffffffffffff1673ffffffffffffffffffffffffffffffffffffffff167f8be0079c531659141344cd1fd0a4f28419497f9722a3daafe3b4186f6b6457e060405160405180910390a360008060006101000a81548173ffffffffffffffffffffffffffffffffffffffff021916908373ffffffffffffffffffffffffffffffffffffffff160217905550565b610a06612aac565b6004600083815260200190815260200160002060405180610100016040529081600082015481526020016001820160009054906101000a900473ffffffffffffffffffffffffffffffffffffffff1673ffffffffffffffffffffffffffffffffffffffff1673ffffffffffffffffffffffffffffffffffffffff1681526020016002820160009054906101000a900473ffffffffffffffffffffffffffffffffffffffff1673ffffffffffffffffffffffffffffffffffffffff1673ffffffffffffffffffffffffffffffffffffffff1681526020016003820154815260200160048201548152602001600582018054600181600116156101000203166002900480601f016020809104026020016040519081016040528092919081815260200182805460018160011615610100020316600290048015610b885780601f10610b5d57610100808354040283529160200191610b88565b820191906000526020600020905b815481529060010190602001808311610b6b57829003601f168201915b505050505081526020016006820154815260200160078201548152505090503373ffffffffffffffffffffffffffffffffffffffff16816020015173ffffffffffffffffffffffffffffffffffffffff1614610c19576040517f08c379a0000000000000000000000000000000000000000000000000000000008152600401610c109061386b565b60405180910390fd5b610c2282611b1b565b5050565b60008060009054906101000a900473ffffffffffffffffffffffffffffffffffffffff16905090565b610c57612aac565b610c6082611e1c565b90503373ffffffffffffffffffffffffffffffffffffffff16816020015173ffffffffffffffffffffffffffffffffffffffff161415610cd5576040517f08c379a0000000000000000000000000000000000000000000000000000000008152600401610ccc9061386b565b60405180910390fd5b610d7d8160a0015160038054600181600116156101000203166002900480601f016020809104026020016040519081016040528092919081815260200182805460018160011615610100020316600290048015610d735780601f10610d4857610100808354040283529160200191610d73565b820191906000526020600020905b815481529060010190602001808311610d5657829003601f168201915b505050505061205b565b15610dc957348160c0015114610dc8576040517f08c379a0000000000000000000000000000000000000000000000000000000008152600401610dbf906138ab565b60405180910390fd5b5b60008060058360a00151604051610de091906134f0565b908152602001604051809103902060009054906101000a900473ffffffffffffffffffffffffffffffffffffffff16905060008190506000846040015173ffffffffffffffffffffffffffffffffffffffff166301ffc9a7630760a14c60e01b6040518263ffffffff1660e01b8152600401610e5c91906137ae565b60206040518083038186803b158015610e7457600080fd5b505afa158015610e88573d6000803e3d6000fd5b505050506040513d601f19601f82011682018060405250810190610eac9190612fa5565b15611196576000856040015173ffffffffffffffffffffffffffffffffffffffff1663caa47fbf87606001516040518263ffffffff1660e01b8152600401610ef491906138cb565b60206040518083038186803b158015610f0c57600080fd5b505afa158015610f20573d6000803e3d6000fd5b505050506040513d601f19601f82011682018060405250810190610f449190612d29565b90506000866040015173ffffffffffffffffffffffffffffffffffffffff16639e4c014188606001516040518263ffffffff1660e01b8152600401610f8991906138cb565b60206040518083038186803b158015610fa157600080fd5b505afa158015610fb5573d6000803e3d6000fd5b505050506040513d601f19601f82011682018060405250810190610fd9919061308a565b9050611007620f4240610ff9838a60c001516120b490919063ffffffff16565b61213a90919063ffffffff16565b92506110b18760a0015160038054600181600116156101000203166002900480601f0160208091040260200160405190810160405280929190818152602001828054600181600116156101000203166002900480156110a75780601f1061107c576101008083540402835291602001916110a7565b820191906000526020600020905b81548152906001019060200180831161108a57829003601f168201915b505050505061205b565b15611102578173ffffffffffffffffffffffffffffffffffffffff166108fc849081150290604051600060405180830381858888f193505050501580156110fc573d6000803e3d6000fd5b50611193565b8373ffffffffffffffffffffffffffffffffffffffff166323b872dd3384866040518463ffffffff1660e01b815260040161113f9392919061359f565b602060405180830381600087803b15801561115957600080fd5b505af115801561116d573d6000803e3d6000fd5b505050506040513d601f19601f820116820180604052508101906111919190612fa5565b505b50505b600060015411156114c7576111cf620f42406111c16001548860c001516120b490919063ffffffff16565b61213a90919063ffffffff16565b93506112798560a0015160028054600181600116156101000203166002900480601f01602080910402602001604051908101604052809291908181526020018280546001816001161561010002031660029004801561126f5780601f106112445761010080835404028352916020019161126f565b820191906000526020600020905b81548152906001019060200180831161125257829003601f168201915b505050505061205b565b1561132d578173ffffffffffffffffffffffffffffffffffffffff166323b872dd336112a3610c26565b6112b760038961213a90919063ffffffff16565b6040518463ffffffff1660e01b81526004016112d59392919061359f565b602060405180830381600087803b1580156112ef57600080fd5b505af1158015611303573d6000803e3d6000fd5b505050506040513d601f19601f820116820180604052508101906113279190612fa5565b506114c6565b6113d58560a0015160038054600181600116156101000203166002900480601f0160208091040260200160405190810160405280929190818152602001828054600181600116156101000203166002900480156113cb5780601f106113a0576101008083540402835291602001916113cb565b820191906000526020600020905b8154815290600101906020018083116113ae57829003601f168201915b505050505061205b565b1561142d576113e2610c26565b73ffffffffffffffffffffffffffffffffffffffff166108fc859081150290604051600060405180830381858888f19350505050158015611427573d6000803e3d6000fd5b506114c5565b8173ffffffffffffffffffffffffffffffffffffffff166323b872dd33611452610c26565b876040518463ffffffff1660e01b81526004016114719392919061359f565b602060405180830381600087803b15801561148b57600080fd5b505af115801561149f573d6000803e3d6000fd5b505050506040513d601f19601f820116820180604052508101906114c39190612fa5565b505b5b5b61156f8560a0015160028054600181600116156101000203166002900480601f0160208091040260200160405190810160405280929190818152602001828054600181600116156101000203166002900480156115655780601f1061153a57610100808354040283529160200191611565565b820191906000526020600020905b81548152906001019060200180831161154857829003601f168201915b505050505061205b565b156116615760006115c5826115b76115a4600261159660038b61213a90919063ffffffff16565b6120b490919063ffffffff16565b8960c001516121c390919063ffffffff16565b6121c390919063ffffffff16565b90508273ffffffffffffffffffffffffffffffffffffffff166323b872dd338860200151846040518463ffffffff1660e01b81526004016116089392919061359f565b602060405180830381600087803b15801561162257600080fd5b505af1158015611636573d6000803e3d6000fd5b505050506040513d601f19601f8201168201806040525081019061165a9190612fa5565b5050611844565b6117098560a0015160038054600181600116156101000203166002900480601f0160208091040260200160405190810160405280929190818152602001828054600181600116156101000203166002900480156116ff5780601f106116d4576101008083540402835291602001916116ff565b820191906000526020600020905b8154815290600101906020018083116116e257829003601f168201915b505050505061205b565b1561178657846020015173ffffffffffffffffffffffffffffffffffffffff166108fc61175583611747888a60c001516121c390919063ffffffff16565b6121c390919063ffffffff16565b9081150290604051600060405180830381858888f19350505050158015611780573d6000803e3d6000fd5b50611843565b8173ffffffffffffffffffffffffffffffffffffffff166323b872dd3387602001516117d1856117c38a8c60c001516121c390919063ffffffff16565b6121c390919063ffffffff16565b6040518463ffffffff1660e01b81526004016117ef9392919061359f565b602060405180830381600087803b15801561180957600080fd5b505af115801561181d573d6000803e3d6000fd5b505050506040513d601f19601f820116820180604052508101906118419190612fa5565b505b5b61184e8633612246565b505050505050565b60007fbc197c819b3e337a6f9652dd10becd7eef83032af3b9d958d3d42f6694146621905098975050505050505050565b6000611897878787878787612584565b90509695505050505050565b60006005826040516118b591906134f0565b908152602001604051809103902060009054906101000a900473ffffffffffffffffffffffffffffffffffffffff169050919050565b620186a081565b60007ff23a6e612e1ff4830e658fe43f4e3cb4a5f8170bd5d9e69fb5d7a7fa9e4fdf9790509695505050505050565b611929611b13565b73ffffffffffffffffffffffffffffffffffffffff16611947610c26565b73ffffffffffffffffffffffffffffffffffffffff16146119d0576040517f08c379a00000000000000000000000000000000000000000000000000000000081526004018080602001828103825260208152602001807f4f776e61626c653a2063616c6c6572206973206e6f7420746865206f776e657281525060200191505060405180910390fd5b600073ffffffffffffffffffffffffffffffffffffffff168173ffffffffffffffffffffffffffffffffffffffff161415611a56576040517f08c379a0000000000000000000000000000000000000000000000000000000008152600401808060200182810382526026815260200180613ba56026913960400191505060405180910390fd5b8073ffffffffffffffffffffffffffffffffffffffff1660008054906101000a900473ffffffffffffffffffffffffffffffffffffffff1673ffffffffffffffffffffffffffffffffffffffff167f8be0079c531659141344cd1fd0a4f28419497f9722a3daafe3b4186f6b6457e060405160405180910390a3806000806101000a81548173ffffffffffffffffffffffffffffffffffffffff021916908373ffffffffffffffffffffffffffffffffffffffff16021790555050565b600033905090565b611b23612aac565b6004600083815260200190815260200160002060405180610100016040529081600082015481526020016001820160009054906101000a900473ffffffffffffffffffffffffffffffffffffffff1673ffffffffffffffffffffffffffffffffffffffff1673ffffffffffffffffffffffffffffffffffffffff1681526020016002820160009054906101000a900473ffffffffffffffffffffffffffffffffffffffff1673ffffffffffffffffffffffffffffffffffffffff1673ffffffffffffffffffffffffffffffffffffffff1681526020016003820154815260200160048201548152602001600582018054600181600116156101000203166002900480601f016020809104026020016040519081016040528092919081815260200182805460018160011615610100020316600290048015611ca55780601f10611c7a57610100808354040283529160200191611ca5565b820191906000526020600020905b815481529060010190602001808311611c8857829003601f168201915b50505050508152602001600682015481526020016007820154815250509050600460008381526020019081526020016000206000808201600090556001820160006101000a81549073ffffffffffffffffffffffffffffffffffffffff02191690556002820160006101000a81549073ffffffffffffffffffffffffffffffffffffffff021916905560038201600090556004820160009055600582016000611d4e9190612b20565b600682016000905560078201600090555050806040015173ffffffffffffffffffffffffffffffffffffffff1663f242432a308360200151846060015185608001516040518563ffffffff1660e01b8152600401611daf949392919061362e565b600060405180830381600087803b158015611dc957600080fd5b505af1158015611ddd573d6000803e3d6000fd5b505050507f5152abf959f6564662358c2e52b702259b78bac5ee7842a0f01937e670efcc7d82604051611e1091906136c3565b60405180910390a15050565b611e24612aac565b6004600083815260200190815260200160002060405180610100016040529081600082015481526020016001820160009054906101000a900473ffffffffffffffffffffffffffffffffffffffff1673ffffffffffffffffffffffffffffffffffffffff1673ffffffffffffffffffffffffffffffffffffffff1681526020016002820160009054906101000a900473ffffffffffffffffffffffffffffffffffffffff1673ffffffffffffffffffffffffffffffffffffffff1673ffffffffffffffffffffffffffffffffffffffff1681526020016003820154815260200160048201548152602001600582018054600181600116156101000203166002900480601f016020809104026020016040519081016040528092919081815260200182805460018160011615610100020316600290048015611fa65780601f10611f7b57610100808354040283529160200191611fa6565b820191906000526020600020905b815481529060010190602001808311611f8957829003601f168201915b505050505081526020016006820154815260200160078201548152505090506000801b8160000151141561200f576040517f08c379a00000000000000000000000000000000000000000000000000000000081526004016120069061388b565b60405180910390fd5b428160e001511015612056576040517f08c379a000000000000000000000000000000000000000000000000000000000815260040161204d906137eb565b60405180910390fd5b919050565b60008160405160200161206e91906134f0565b604051602081830303815290604052805190602001208360405160200161209591906134f0565b6040516020818303038152906040528051906020012014905092915050565b6000808314156120c75760009050612134565b60008284029050828482816120d857fe5b041461212f576040517f08c379a0000000000000000000000000000000000000000000000000000000008152600401808060200182810382526021815260200180613bcb6021913960400191505060405180910390fd5b809150505b92915050565b60008082116121b1576040517f08c379a000000000000000000000000000000000000000000000000000000000815260040180806020018281038252601a8152602001807f536166654d6174683a206469766973696f6e206279207a65726f00000000000081525060200191505060405180910390fd5b8183816121ba57fe5b04905092915050565b60008282111561223b576040517f08c379a000000000000000000000000000000000000000000000000000000000815260040180806020018281038252601e8152602001807f536166654d6174683a207375627472616374696f6e206f766572666c6f77000081525060200191505060405180910390fd5b818303905092915050565b61224e612aac565b6004600084815260200190815260200160002060405180610100016040529081600082015481526020016001820160009054906101000a900473ffffffffffffffffffffffffffffffffffffffff1673ffffffffffffffffffffffffffffffffffffffff1673ffffffffffffffffffffffffffffffffffffffff1681526020016002820160009054906101000a900473ffffffffffffffffffffffffffffffffffffffff1673ffffffffffffffffffffffffffffffffffffffff1673ffffffffffffffffffffffffffffffffffffffff1681526020016003820154815260200160048201548152602001600582018054600181600116156101000203166002900480601f0160208091040260200160405190810160405280929190818152602001828054600181600116156101000203166002900480156123d05780601f106123a5576101008083540402835291602001916123d0565b820191906000526020600020905b8154815290600101906020018083116123b357829003601f168201915b50505050508152602001600682015481526020016007820154815250509050806040015173ffffffffffffffffffffffffffffffffffffffff1663f242432a3084846060015185608001516040518563ffffffff1660e01b815260040161243a949392919061362e565b600060405180830381600087803b15801561245457600080fd5b505af1158015612468573d6000803e3d6000fd5b50505050600460008481526020019081526020016000206000808201600090556001820160006101000a81549073ffffffffffffffffffffffffffffffffffffffff02191690556002820160006101000a81549073ffffffffffffffffffffffffffffffffffffffff0219169055600382016000905560048201600090556005820160006124f69190612b20565b6006820160009055600782016000905550508060600151816040015173ffffffffffffffffffffffffffffffffffffffff167f85700a0fa5444cc686665384569252bb5d399da8c8c7587208d62fc23deaca66836000015184602001518686608001518760a001518860c001514260405161257797969594939291906136de565b60405180910390a3505050565b600080612590886128bd565b9050600084116125d5576040517f08c379a00000000000000000000000000000000000000000000000000000000081526004016125cc9061380b565b60405180910390fd5b6125e9603c4261299690919063ffffffff16565b831161262a576040517f08c379a00000000000000000000000000000000000000000000000000000000081526004016126219061382b565b60405180910390fd5b8073ffffffffffffffffffffffffffffffffffffffff1663f242432a33308a8a6040518563ffffffff1660e01b815260040161266994939291906135d6565b600060405180830381600087803b15801561268357600080fd5b505af1158015612697573d6000803e3d6000fd5b505050506000426126a6611b13565b8a8a8a8a8a6040516020016126c19796959493929190613507565b6040516020818303038152906040528051906020012090506040518061010001604052808281526020016126f3611b13565b73ffffffffffffffffffffffffffffffffffffffff1681526020018a73ffffffffffffffffffffffffffffffffffffffff16815260200189815260200188815260200187815260200186815260200185815250600460008381526020019081526020016000206000820151816000015560208201518160010160006101000a81548173ffffffffffffffffffffffffffffffffffffffff021916908373ffffffffffffffffffffffffffffffffffffffff16021790555060408201518160020160006101000a81548173ffffffffffffffffffffffffffffffffffffffff021916908373ffffffffffffffffffffffffffffffffffffffff160217905550606082015181600301556080820151816004015560a0820151816005019080519060200190612821929190612a1e565b5060c0820151816006015560e08201518160070155905050878973ffffffffffffffffffffffffffffffffffffffff16612859611b13565b73ffffffffffffffffffffffffffffffffffffffff167fde5db03d591a7f03a4014a94140b3c980a78e272c8ff9cede12351a6e393f098848b8b8b8b6040516128a6959493929190613754565b60405180910390a480925050509695505050505050565b60008173ffffffffffffffffffffffffffffffffffffffff166301ffc9a763d9b67a2660e01b6040518263ffffffff1660e01b81526004016128ff91906137ae565b60206040518083038186803b15801561291757600080fd5b505afa15801561292b573d6000803e3d6000fd5b505050506040513d601f19601f8201168201806040525081019061294f9190612fa5565b61298e576040517f08c379a00000000000000000000000000000000000000000000000000000000081526004016129859061384b565b60405180910390fd5b819050919050565b600080828401905083811015612a14576040517f08c379a000000000000000000000000000000000000000000000000000000000815260040180806020018281038252601b8152602001807f536166654d6174683a206164646974696f6e206f766572666c6f77000000000081525060200191505060405180910390fd5b8091505092915050565b828054600181600116156101000203166002900490600052602060002090601f016020900481019282612a545760008555612a9b565b82601f10612a6d57805160ff1916838001178555612a9b565b82800160010185558215612a9b579182015b82811115612a9a578251825591602001919060010190612a7f565b5b509050612aa89190612b68565b5090565b60405180610100016040528060008019168152602001600073ffffffffffffffffffffffffffffffffffffffff168152602001600073ffffffffffffffffffffffffffffffffffffffff16815260200160008152602001600081526020016060815260200160008152602001600081525090565b50805460018160011615610100020316600290046000825580601f10612b465750612b65565b601f016020900490600052602060002090810190612b649190612b68565b5b50565b5b80821115612b81576000816000905550600101612b69565b5090565b600081359050612b9481613b31565b92915050565b600081519050612ba981613b31565b92915050565b60008083601f840112612bc157600080fd5b8235905067ffffffffffffffff811115612bda57600080fd5b602083019150836020820283011115612bf257600080fd5b9250929050565b600081519050612c0881613b48565b92915050565b600081359050612c1d81613b5f565b92915050565b600081359050612c3281613b76565b92915050565b60008083601f840112612c4a57600080fd5b8235905067ffffffffffffffff811115612c6357600080fd5b602083019150836001820283011115612c7b57600080fd5b9250929050565b600082601f830112612c9357600080fd5b8135612ca6612ca182613917565b6138e6565b91508082526020830160208301858383011115612cc257600080fd5b612ccd838284613a8f565b50505092915050565b600081359050612ce581613b8d565b92915050565b600081519050612cfa81613b8d565b92915050565b600060208284031215612d1257600080fd5b6000612d2084828501612b85565b91505092915050565b600060208284031215612d3b57600080fd5b6000612d4984828501612b9a565b91505092915050565b60008060008060008060008060a0898b031215612d6e57600080fd5b6000612d7c8b828c01612b85565b9850506020612d8d8b828c01612b85565b975050604089013567ffffffffffffffff811115612daa57600080fd5b612db68b828c01612baf565b9650965050606089013567ffffffffffffffff811115612dd557600080fd5b612de18b828c01612baf565b9450945050608089013567ffffffffffffffff811115612e0057600080fd5b612e0c8b828c01612c38565b92509250509295985092959890939650565b60008060008060008060a08789031215612e3757600080fd5b6000612e4589828a01612b85565b9650506020612e5689828a01612b85565b9550506040612e6789828a01612cd6565b9450506060612e7889828a01612cd6565b935050608087013567ffffffffffffffff811115612e9557600080fd5b612ea189828a01612c38565b92509250509295509295509295565b60008060408385031215612ec357600080fd5b6000612ed185828601612b85565b925050602083013567ffffffffffffffff811115612eee57600080fd5b612efa85828601612c82565b9150509250929050565b60008060008060008060c08789031215612f1d57600080fd5b6000612f2b89828a01612b85565b9650506020612f3c89828a01612cd6565b9550506040612f4d89828a01612cd6565b945050606087013567ffffffffffffffff811115612f6a57600080fd5b612f7689828a01612c82565b9350506080612f8789828a01612cd6565b92505060a0612f9889828a01612cd6565b9150509295509295509295565b600060208284031215612fb757600080fd5b6000612fc584828501612bf9565b91505092915050565b600060208284031215612fe057600080fd5b6000612fee84828501612c0e565b91505092915050565b60006020828403121561300957600080fd5b600061301784828501612c23565b91505092915050565b60006020828403121561303257600080fd5b600082013567ffffffffffffffff81111561304c57600080fd5b61305884828501612c82565b91505092915050565b60006020828403121561307357600080fd5b600061308184828501612cd6565b91505092915050565b60006020828403121561309c57600080fd5b60006130aa84828501612ceb565b91505092915050565b60006130bf83836131b5565b905092915050565b6130d081613a59565b82525050565b6130e76130e2826139db565b613ae3565b82525050565b6130f6816139c9565b82525050565b61310d613108826139c9565b613ad1565b82525050565b600061311e82613957565b613128818561397a565b93508360208202850161313a85613947565b8060005b85811015613176578484038952815161315785826130b3565b94506131628361396d565b925060208a0199505060018101905061313e565b50829750879550505050505092915050565b613191816139ed565b82525050565b6131a0816139f9565b82525050565b6131af81613a03565b82525050565b60006131c082613962565b6131ca818561399c565b93506131da818560208601613a9e565b6131e381613b13565b840191505092915050565b60006131f982613962565b61320381856139ad565b9350613213818560208601613a9e565b61321c81613b13565b840191505092915050565b600061323282613962565b61323c81856139be565b935061324c818560208601613a9e565b80840191505092915050565b6000613265601a836139ad565b91507f4d61726b6574706c6163653a206f7264657220657870697265640000000000006000830152602082019050919050565b60006132a5602a836139ad565b91507f4d61726b6574706c6163653a2050726963652073686f756c642062652062696760008301527f676572207468616e2030000000000000000000000000000000000000000000006020830152604082019050919050565b600061330b6043836139ad565b91507f4d61726b6574706c6163653a205075626c69636174696f6e2073686f756c642060008301527f6265206d6f7265207468616e2031206d696e75746520696e207468652066757460208301527f75726500000000000000000000000000000000000000000000000000000000006040830152606082019050919050565b60006133976035836139ad565b91507f546865204e465420636f6e74726163742068617320616e20696e76616c69642060008301527f45524337323120696d706c656d656e746174696f6e00000000000000000000006020830152604082019050919050565b60006133fd6020836139ad565b91507f4d61726b6574706c6163653a20756e617574686f72697a65642073656e6465726000830152602082019050919050565b600061343d6020836139ad565b91507f4d61726b6574706c6163653a206173736574206e6f74207075626c69736865646000830152602082019050919050565b600061347d601a836139ad565b91507f4d61726b6574706c6163653a20696e76616c69642070726963650000000000006000830152602082019050919050565b60006134bd60008361398b565b9150600082019050919050565b6134d381613a4f565b82525050565b6134ea6134e582613a4f565b613b07565b82525050565b60006134fc8284613227565b915081905092915050565b6000613513828a6134d9565b60208201915061352382896130d6565b60148201915061353382886130fc565b60148201915061354382876134d9565b60208201915061355382866134d9565b6020820191506135638285613227565b915061356f82846134d9565b60208201915081905098975050505050505050565b600060208201905061359960008301846130ed565b92915050565b60006060820190506135b460008301866130c7565b6135c160208301856130ed565b6135ce60408301846134ca565b949350505050565b600060a0820190506135eb60008301876130c7565b6135f860208301866130ed565b61360560408301856134ca565b61361260608301846134ca565b8181036080830152613623816134b0565b905095945050505050565b600060a08201905061364360008301876130ed565b61365060208301866130ed565b61365d60408301856134ca565b61366a60608301846134ca565b818103608083015261367b816134b0565b905095945050505050565b600060208201905081810360008301526136a08184613113565b905092915050565b60006020820190506136bd6000830184613188565b92915050565b60006020820190506136d86000830184613197565b92915050565b600060e0820190506136f3600083018a613197565b61370060208301896130ed565b61370d60408301886130ed565b61371a60608301876134ca565b818103608083015261372c81866131ee565b905061373b60a08301856134ca565b61374860c08301846134ca565b98975050505050505050565b600060a0820190506137696000830188613197565b61377660208301876134ca565b818103604083015261378881866131ee565b905061379760608301856134ca565b6137a460808301846134ca565b9695505050505050565b60006020820190506137c360008301846131a6565b92915050565b600060208201905081810360008301526137e381846131ee565b905092915050565b6000602082019050818103600083015261380481613258565b9050919050565b6000602082019050818103600083015261382481613298565b9050919050565b60006020820190508181036000830152613844816132fe565b9050919050565b600060208201905081810360008301526138648161338a565b9050919050565b60006020820190508181036000830152613884816133f0565b9050919050565b600060208201905081810360008301526138a481613430565b9050919050565b600060208201905081810360008301526138c481613470565b9050919050565b60006020820190506138e060008301846134ca565b92915050565b6000604051905081810181811067ffffffffffffffff8211171561390d5761390c613b11565b5b8060405250919050565b600067ffffffffffffffff82111561393257613931613b11565b5b601f19601f8301169050602081019050919050565b6000819050602082019050919050565b600081519050919050565b600081519050919050565b6000602082019050919050565b600082825260208201905092915050565b600082825260208201905092915050565b600082825260208201905092915050565b600082825260208201905092915050565b600081905092915050565b60006139d482613a2f565b9050919050565b60006139e682613a2f565b9050919050565b60008115159050919050565b6000819050919050565b60007fffffffff0000000000000000000000000000000000000000000000000000000082169050919050565b600073ffffffffffffffffffffffffffffffffffffffff82169050919050565b6000819050919050565b6000613a6482613a6b565b9050919050565b6000613a7682613a7d565b9050919050565b6000613a8882613a2f565b9050919050565b82818337600083830152505050565b60005b83811015613abc578082015181840152602081019050613aa1565b83811115613acb576000848401525b50505050565b6000613adc82613af5565b9050919050565b6000613aee82613af5565b9050919050565b6000613b0082613b24565b9050919050565b6000819050919050565bfe5b6000601f19601f8301169050919050565b60008160601b9050919050565b613b3a816139c9565b8114613b4557600080fd5b50565b613b51816139ed565b8114613b5c57600080fd5b50565b613b68816139f9565b8114613b7357600080fd5b50565b613b7f81613a03565b8114613b8a57600080fd5b50565b613b9681613a4f565b8114613ba157600080fd5b5056fe4f776e61626c653a206e6577206f776e657220697320746865207a65726f2061646472657373536166654d6174683a206d756c7469706c69636174696f6e206f766572666c6f77546865206f776e6572206375742073686f756c64206265206265747765656e203020616e64206d61784375745065724d696c6c696f6ea2646970667358221220af7c368ae7e361f2e98f40b3b6957393d39470f2bd185aa1cd9bff28db84022764736f6c63430007040033",
  "immutableReferences": {},
  "source": "// SPDX-License-Identifier: MIT\r\npragma solidity >=0.4.22 <0.9.0;\r\npragma experimental ABIEncoderV2;\r\n\r\nimport \"@openzeppelin/contracts/token/ERC1155/ERC1155.sol\";\r\nimport \"@openzeppelin/contracts/introspection/IERC165.sol\";\r\nimport \"@openzeppelin/contracts/token/ERC20/ERC20.sol\";\r\nimport \"@openzeppelin/contracts/math/SafeMath.sol\";\r\nimport \"@openzeppelin/contracts/utils/Address.sol\";\r\nimport \"@openzeppelin/contracts/access/Ownable.sol\";\r\nimport \"@openzeppelin/contracts/token/ERC1155/IERC1155Receiver.sol\";\r\nimport \"./interface/RoyaltyFactory.sol\";\r\nimport \"./INft_Marketplace1155.sol\";\r\nimport \"./FeeManager.sol\";\r\n\r\ncontract Fixed_Marketplace1155 is\r\n    INft_Marketplace1155,\r\n    FeeManager,\r\n    IERC1155Receiver\r\n{\r\n    using SafeMath for uint256;\r\n    string internal cifi_Symbol = \"CIFI\";\r\n    string bnb_Symbol = \"BNB\";\r\n\r\n    // From ERC721 registry assetId to Order (to avoid asset collision)\r\n    mapping(bytes32 => Order) orderById;\r\n\r\n    mapping(string => address) acceptedTokens;\r\n\r\n    // array that saves all the symbols of accepted tokens\r\n    string[] public acceptedTokensSymbols;\r\n\r\n    constructor() {}\r\n\r\n    // 721 Interfaces\r\n    bytes4 public constant _INTERFACE_ID_ERC1155 = 0xd9b67a26;\r\n    bytes4 private constant _INTERFACE_ID_ROYALTY = 0x0760a14c;\r\n\r\n    /**\r\n     * Creates a new order\r\n     *  _nftAddress - Non fungible contract address\r\n     *  _assetId - ID of the published NFT\r\n     *  _priceInAnyOfTheSupportedCurrencies - price In Any Of The Supported Currencies\r\n     *  _expiresAt - Duration of the order (in hours)\r\n     */\r\n\r\n    function createOrder(\r\n        address _nftAddress,\r\n        uint256 _assetId,\r\n        uint256 _amount,\r\n        string memory _tokenSymbol,\r\n        uint256 _price,\r\n        uint256 _expiresAt\r\n    ) public returns (bytes32) {\r\n        return\r\n            _createOrder(\r\n                _nftAddress,\r\n                _assetId,\r\n                _amount,\r\n                _tokenSymbol,\r\n                _price,\r\n                _expiresAt\r\n            );\r\n    }\r\n\r\n    /**\r\n     *  Cancel an already published order\r\n     *  can only be canceled by seller or the contract owner\r\n     *  nftAddress - Address of the NFT registry\r\n     *  assetId - ID of the published NFT\r\n     */\r\n    function cancelOrder(bytes32 orderID) public {\r\n        Order memory order = orderById[orderID];\r\n\r\n        require(order.seller == msg.sender, \"Marketplace: unauthorized sender\");\r\n\r\n        _cancelOrder(orderID);\r\n    }\r\n\r\n    /**\r\n     * Executes the sale for a published NFT\r\n     *  nftAddress - Address of the NFT registry\r\n     *  assetId - ID of the published NFT\r\n     *  priceInAnyOfTheFourCurrencies - Order price\r\n     */\r\n\r\n    function safeExecuteOrder(bytes32 _orderId) public payable {\r\n        // Get the current valid order for the asset or fail\r\n        Order memory order = _getValidOrder(_orderId);\r\n\r\n        /// Check the execution price matches the order price\r\n        require(order.seller != msg.sender, \"Marketplace: unauthorized sender\");\r\n\r\n        if (compareStrings(order.tokenSymbol, bnb_Symbol)) {\r\n            require(order.price == msg.value, \"Marketplace: invalid price\");\r\n        }\r\n        // market fee to cut\r\n        uint256 saleShareAmount = 0;\r\n        address tokenAddress = acceptedTokens[order.tokenSymbol];\r\n        ERC20 acceptedToken = ERC20(tokenAddress);\r\n        uint256 royaltyFeeAmount = 0;\r\n        if (\r\n            IERC165(order.nftAddress).supportsInterface(_INTERFACE_ID_ROYALTY)\r\n        ) {\r\n            address orignalCreater = RoyaltyFactory(order.nftAddress)\r\n            .getOriginalCreator(order.nftId);\r\n            uint256 royaltyFee = RoyaltyFactory(order.nftAddress).getRoyaltyFee(\r\n                order.nftId\r\n            );\r\n            royaltyFeeAmount = order.price.mul(royaltyFee).div(1e6);\r\n            if (compareStrings(order.tokenSymbol, bnb_Symbol)) {\r\n                // Transfer share amount for marketplace Owner\r\n                payable(orignalCreater).transfer(royaltyFeeAmount);\r\n            } else {\r\n                acceptedToken.transferFrom(\r\n                    msg.sender, //buyer\r\n                    orignalCreater,\r\n                    royaltyFeeAmount\r\n                );\r\n            }\r\n        }\r\n        // Send market fees to owner\r\n        if (FeeManager.cutPerMillion > 0) {\r\n            // Calculate sale share\r\n            saleShareAmount = order.price.mul(FeeManager.cutPerMillion).div(\r\n                1e6\r\n            );\r\n\r\n            if (compareStrings(order.tokenSymbol, cifi_Symbol)) {\r\n                // Transfer half of share amount for marketplace Owner\r\n                acceptedToken.transferFrom(\r\n                    msg.sender, //buyer\r\n                    owner(),\r\n                    saleShareAmount.div(3)\r\n                );\r\n            } else if (compareStrings(order.tokenSymbol, bnb_Symbol)) {\r\n                // Transfer share amount for marketplace Owner\r\n                payable(owner()).transfer(saleShareAmount);\r\n            } else {\r\n                acceptedToken.transferFrom(\r\n                    msg.sender, //buyer\r\n                    owner(),\r\n                    saleShareAmount\r\n                );\r\n            }\r\n        }\r\n\r\n        if (compareStrings(order.tokenSymbol, cifi_Symbol)) {\r\n            // Transfer accepted token amount minus market fee to seller\r\n            uint256 amount = order.price.sub(saleShareAmount.div(3).mul(2)).sub(\r\n                royaltyFeeAmount\r\n            );\r\n            acceptedToken.transferFrom(\r\n                msg.sender, // buyer\r\n                order.seller, // seller\r\n                amount\r\n            );\r\n        } else if (compareStrings(order.tokenSymbol, bnb_Symbol)) {\r\n            // Transfer share amount for marketplace Owner\r\n            payable(order.seller).transfer(\r\n                order.price.sub(saleShareAmount).sub(royaltyFeeAmount)\r\n            );\r\n        } else {\r\n            // Transfer accepted token amount minus market fee to seller\r\n            acceptedToken.transferFrom(\r\n                msg.sender, // buyer\r\n                order.seller, // seller\r\n                order.price.sub(saleShareAmount).sub(royaltyFeeAmount)\r\n            );\r\n        }\r\n\r\n        _executeOrder(\r\n            _orderId,\r\n            msg.sender // buyer\r\n        );\r\n    }\r\n\r\n    /**\r\n     * Internal function gets Order by nftRegistry and assetId. Checks for the order validity\r\n     * nftAddress - Address of the NFT registry\r\n     * assetId - ID of the published NFT\r\n     */\r\n    function _getValidOrder(bytes32 _orderId)\r\n        internal\r\n        view\r\n        returns (Order memory order)\r\n    {\r\n        order = orderById[_orderId];\r\n\r\n        require(order.id != 0, \"Marketplace: asset not published\");\r\n        require(\r\n            order.expiresAt >= block.timestamp,\r\n            \"Marketplace: order expired\"\r\n        );\r\n    }\r\n\r\n    /**\r\n     * Executes the sale for a published NFT\r\n     *  orderId - Order Id to execute\r\n     *  buyer - address\r\n     *  nftAddress - Address of the NFT registry\r\n     *  assetId - NFT id\r\n     *  price - Order price\r\n     */\r\n    function _executeOrder(bytes32 _orderId, address _buyer) internal {\r\n        // remove order\r\n        Order memory order = orderById[_orderId];\r\n        // Transfer NFT asset\r\n        IERC1155(order.nftAddress).safeTransferFrom(\r\n            address(this),\r\n            _buyer,\r\n            order.nftId,\r\n            order.amount,\r\n            \"\"\r\n        );\r\n\r\n        delete orderById[_orderId];\r\n        // Notify ..\r\n        emit OrderSuccessful(\r\n            order.id,\r\n            order.seller,\r\n            _buyer,\r\n            order.nftAddress,\r\n            order.nftId,\r\n            order.amount,\r\n            order.tokenSymbol,\r\n            order.price,\r\n            block.timestamp\r\n        );\r\n    }\r\n\r\n    /**\r\n     * Creates a new order\r\n     *  nftAddress - Non fungible contract address\r\n     *  assetId - ID of the published NFT\r\n     *  priceInAnyOfTheSupportedCurrencies - price In Any Of The Supported Currencies\r\n     *  expiresAt - Expiration time for the order\r\n     */\r\n    function _createOrder(\r\n        address _nftAddress,\r\n        uint256 _assetId,\r\n        uint256 _amount,\r\n        string memory _tokenSymbol,\r\n        uint256 _price,\r\n        uint256 _expiresAt\r\n    ) internal returns (bytes32) {\r\n        // Check nft registry\r\n        IERC1155 nftRegistry = _requireERC1155(_nftAddress);\r\n\r\n        // Check order creator is the asset owner\r\n\r\n        require(_price > 0, \"Marketplace: Price should be bigger than 0\");\r\n\r\n        require(\r\n            _expiresAt > block.timestamp.add(1 minutes),\r\n            \"Marketplace: Publication should be more than 1 minute in the future\"\r\n        );\r\n\r\n        // get NFT asset from seller\r\n        nftRegistry.safeTransferFrom(\r\n            msg.sender,\r\n            address(this),\r\n            _assetId,\r\n            _amount,\r\n            \"\"\r\n        );\r\n\r\n        // create the orderId\r\n        bytes32 orderId = keccak256(\r\n            abi.encodePacked(\r\n                block.timestamp,\r\n                _msgSender(),\r\n                _nftAddress,\r\n                _assetId,\r\n                _amount,\r\n                _tokenSymbol,\r\n                _price\r\n            )\r\n        );\r\n\r\n        // save order\r\n        orderById[orderId] = Order({\r\n            id: orderId,\r\n            seller: _msgSender(),\r\n            nftAddress: _nftAddress,\r\n            nftId: _assetId,\r\n            amount: _amount,\r\n            tokenSymbol: _tokenSymbol,\r\n            price: _price,\r\n            expiresAt: _expiresAt\r\n        });\r\n\r\n        emit OrderCreated(\r\n            orderId,\r\n            _msgSender(),\r\n            _nftAddress,\r\n            _assetId,\r\n            _amount,\r\n            _tokenSymbol,\r\n            _price,\r\n            _expiresAt\r\n        );\r\n        return orderId;\r\n    }\r\n\r\n    /**\r\n     * Cancel an already published order\r\n     *  can only be canceled by seller or the contract owner\r\n     * orderId - Bid identifier\r\n     * nftAddress - Address of the NFT registry\r\n     * assetId - ID of the published NFT\r\n     * seller - Address\r\n     */\r\n    function _cancelOrder(bytes32 _orderId) internal {\r\n        Order memory order = orderById[_orderId];\r\n        delete orderById[_orderId];\r\n        /// send asset back to seller\r\n        IERC1155(order.nftAddress).safeTransferFrom(\r\n            address(this),\r\n            order.seller,\r\n            order.nftId,\r\n            order.amount,\r\n            \"\"\r\n        );\r\n        emit OrderCancelled(_orderId);\r\n    }\r\n\r\n    function _requireERC1155(address _nftAddress)\r\n        internal\r\n        view\r\n        returns (IERC1155)\r\n    {\r\n        require(\r\n            IERC165(_nftAddress).supportsInterface(_INTERFACE_ID_ERC1155),\r\n            \"The NFT contract has an invalid ERC721 implementation\"\r\n        );\r\n        return IERC1155(_nftAddress);\r\n    }\r\n\r\n    function addAcceptedToken(\r\n        address acceptedTokenAddress,\r\n        string memory acceptedTokenSymbol\r\n    ) public onlyOwner returns (bool) {\r\n        acceptedTokens[acceptedTokenSymbol] = acceptedTokenAddress;\r\n        acceptedTokensSymbols.push(acceptedTokenSymbol);\r\n        return true;\r\n    }\r\n\r\n    function getTokenSymbols() public view returns (string[] memory) {\r\n        return acceptedTokensSymbols;\r\n    }\r\n\r\n    function getTokenAddress(string memory tokenSymbol)\r\n        public\r\n        view\r\n        returns (address)\r\n    {\r\n        return acceptedTokens[tokenSymbol];\r\n    }\r\n\r\n    function onERC1155Received(\r\n        address,\r\n        address,\r\n        uint256,\r\n        uint256,\r\n        bytes calldata\r\n    ) public virtual override returns (bytes4) {\r\n        return\r\n            bytes4(\r\n                keccak256(\r\n                    \"onERC1155Received(address,address,uint256,uint256,bytes)\"\r\n                )\r\n            );\r\n    }\r\n\r\n    function onERC1155BatchReceived(\r\n        address,\r\n        address,\r\n        uint256[] calldata,\r\n        uint256[] calldata,\r\n        bytes calldata\r\n    ) public virtual override returns (bytes4) {\r\n        return\r\n            bytes4(\r\n                keccak256(\r\n                    \"onERC1155BatchReceived(address,address,uint256[],uint256[],bytes)\"\r\n                )\r\n            );\r\n    }\r\n\r\n    function supportsInterface(bytes4)\r\n        public\r\n        view\r\n        virtual\r\n        override\r\n        returns (bool)\r\n    {\r\n        return false;\r\n    }\r\n\r\n    function compareStrings(string memory a, string memory b)\r\n        internal\r\n        pure\r\n        returns (bool)\r\n    {\r\n        return (keccak256(abi.encodePacked((a))) ==\r\n            keccak256(abi.encodePacked((b))));\r\n    }\r\n}\r\n",
  "sourcePath": "F:/MyWork/LianHe/Citizen/SantaFe_Market/src/contracts/Fixed_Marketplace1155.sol",
  "compiler": {
    "name": "solc",
    "version": "0.7.4+commit.3f05b770.Emscripten.clang"
  },
  "schemaVersion": "3.4.1",
  "updatedAt": "2021-07-22T09:21:04.097Z",
  "devdoc": {
    "kind": "dev",
    "methods": {
      "owner()": {
        "details": "Returns the address of the current owner."
      },
      "renounceOwnership()": {
        "details": "Leaves the contract without owner. It will not be possible to call `onlyOwner` functions anymore. Can only be called by the current owner. NOTE: Renouncing ownership will leave the contract without an owner, thereby removing any functionality that is only available to the owner."
      },
      "transferOwnership(address)": {
        "details": "Transfers ownership of the contract to a new account (`newOwner`). Can only be called by the current owner."
      }
    },
    "version": 1
  },
  "userdoc": {
    "kind": "user",
    "methods": {
      "cancelOrder(bytes32)": {
        "notice": "Cancel an already published order  can only be canceled by seller or the contract owner  nftAddress - Address of the NFT registry  assetId - ID of the published NFT"
      },
      "createOrder(address,uint256,uint256,string,uint256,uint256)": {
        "notice": "Creates a new order  _nftAddress - Non fungible contract address  _assetId - ID of the published NFT  _priceInAnyOfTheSupportedCurrencies - price In Any Of The Supported Currencies  _expiresAt - Duration of the order (in hours)"
      },
      "safeExecuteOrder(bytes32)": {
        "notice": "Executes the sale for a published NFT  nftAddress - Address of the NFT registry  assetId - ID of the published NFT  priceInAnyOfTheFourCurrencies - Order price"
      },
      "setOwnerCutPerMillion(uint256)": {
        "notice": "Sets the share cut for the owner of the contract that's charged to the seller on a successful sale Share amount, from 0 to 99,999"
      }
    },
    "version": 1
  }
}